{
    "contractName": "Mixer",
    "abi": [
        {
            "inputs": [
                {
                    "internalType": "address",
                    "name": "r_addr",
                    "type": "address"
                },
                {
                    "internalType": "address",
                    "name": "pp_addr",
                    "type": "address"
                }
            ],
            "stateMutability": "nonpayable",
            "type": "constructor"
        },
        {
            "inputs": [
                {
                    "components": [
                        {
                            "components": [
                                {
                                    "components": [
                                        {
                                            "internalType": "uint256",
                                            "name": "X",
                                            "type": "uint256"
                                        },
                                        {
                                            "internalType": "uint256",
                                            "name": "Y",
                                            "type": "uint256"
                                        }
                                    ],
                                    "internalType": "struct alt_bn128.G1Point",
                                    "name": "pk",
                                    "type": "tuple"
                                },
                                {
                                    "components": [
                                        {
                                            "internalType": "uint256",
                                            "name": "X",
                                            "type": "uint256"
                                        },
                                        {
                                            "internalType": "uint256",
                                            "name": "Y",
                                            "type": "uint256"
                                        }
                                    ],
                                    "internalType": "struct alt_bn128.G1Point",
                                    "name": "tcom",
                                    "type": "tuple"
                                },
                                {
                                    "components": [
                                        {
                                            "internalType": "uint256",
                                            "name": "X",
                                            "type": "uint256"
                                        },
                                        {
                                            "internalType": "uint256",
                                            "name": "Y",
                                            "type": "uint256"
                                        }
                                    ],
                                    "internalType": "struct alt_bn128.G1Point",
                                    "name": "ocom",
                                    "type": "tuple"
                                }
                            ],
                            "internalType": "struct PubParam.Acc",
                            "name": "s",
                            "type": "tuple"
                        },
                        {
                            "internalType": "uint256[]",
                            "name": "attrS",
                            "type": "uint256[]"
                        }
                    ],
                    "internalType": "struct Mixer.TX_dp",
                    "name": "tx_dp",
                    "type": "tuple"
                },
                {
                    "internalType": "uint256[3]",
                    "name": "wit",
                    "type": "uint256[3]"
                }
            ],
            "name": "deposit",
            "outputs": [
                {
                    "components": [
                        {
                            "components": [
                                {
                                    "components": [
                                        {
                                            "internalType": "uint256",
                                            "name": "X",
                                            "type": "uint256"
                                        },
                                        {
                                            "internalType": "uint256",
                                            "name": "Y",
                                            "type": "uint256"
                                        }
                                    ],
                                    "internalType": "struct alt_bn128.G1Point",
                                    "name": "c",
                                    "type": "tuple"
                                },
                                {
                                    "internalType": "uint256[]",
                                    "name": "zs",
                                    "type": "uint256[]"
                                }
                            ],
                            "internalType": "struct PartialEquality.Sig",
                            "name": "pe_sig",
                            "type": "tuple"
                        }
                    ],
                    "internalType": "struct Mixer.Sig_dp",
                    "name": "sig",
                    "type": "tuple"
                }
            ],
            "stateMutability": "nonpayable",
            "type": "function"
        },
        {
            "inputs": [
                {
                    "components": [
                        {
                            "components": [
                                {
                                    "components": [
                                        {
                                            "internalType": "uint256",
                                            "name": "X",
                                            "type": "uint256"
                                        },
                                        {
                                            "internalType": "uint256",
                                            "name": "Y",
                                            "type": "uint256"
                                        }
                                    ],
                                    "internalType": "struct alt_bn128.G1Point",
                                    "name": "pk",
                                    "type": "tuple"
                                },
                                {
                                    "components": [
                                        {
                                            "internalType": "uint256",
                                            "name": "X",
                                            "type": "uint256"
                                        },
                                        {
                                            "internalType": "uint256",
                                            "name": "Y",
                                            "type": "uint256"
                                        }
                                    ],
                                    "internalType": "struct alt_bn128.G1Point",
                                    "name": "tcom",
                                    "type": "tuple"
                                },
                                {
                                    "components": [
                                        {
                                            "internalType": "uint256",
                                            "name": "X",
                                            "type": "uint256"
                                        },
                                        {
                                            "internalType": "uint256",
                                            "name": "Y",
                                            "type": "uint256"
                                        }
                                    ],
                                    "internalType": "struct alt_bn128.G1Point",
                                    "name": "ocom",
                                    "type": "tuple"
                                }
                            ],
                            "internalType": "struct PubParam.Acc",
                            "name": "s",
                            "type": "tuple"
                        },
                        {
                            "internalType": "uint256[]",
                            "name": "attrS",
                            "type": "uint256[]"
                        }
                    ],
                    "internalType": "struct Mixer.TX_dp",
                    "name": "tx_dp",
                    "type": "tuple"
                },
                {
                    "components": [
                        {
                            "components": [
                                {
                                    "components": [
                                        {
                                            "internalType": "uint256",
                                            "name": "X",
                                            "type": "uint256"
                                        },
                                        {
                                            "internalType": "uint256",
                                            "name": "Y",
                                            "type": "uint256"
                                        }
                                    ],
                                    "internalType": "struct alt_bn128.G1Point",
                                    "name": "c",
                                    "type": "tuple"
                                },
                                {
                                    "internalType": "uint256[]",
                                    "name": "zs",
                                    "type": "uint256[]"
                                }
                            ],
                            "internalType": "struct PartialEquality.Sig",
                            "name": "pe_sig",
                            "type": "tuple"
                        }
                    ],
                    "internalType": "struct Mixer.Sig_dp",
                    "name": "sig",
                    "type": "tuple"
                }
            ],
            "name": "process_dp",
            "outputs": [
                {
                    "internalType": "bool",
                    "name": "",
                    "type": "bool"
                }
            ],
            "stateMutability": "nonpayable",
            "type": "function"
        },
        {
            "inputs": [],
            "name": "spend",
            "outputs": [
                {
                    "internalType": "bool",
                    "name": "",
                    "type": "bool"
                }
            ],
            "stateMutability": "pure",
            "type": "function"
        },
        {
            "inputs": [
                {
                    "components": [
                        {
                            "components": [
                                {
                                    "internalType": "uint256",
                                    "name": "X",
                                    "type": "uint256"
                                },
                                {
                                    "internalType": "uint256",
                                    "name": "Y",
                                    "type": "uint256"
                                }
                            ],
                            "internalType": "struct alt_bn128.G1Point[]",
                            "name": "R",
                            "type": "tuple[]"
                        },
                        {
                            "components": [
                                {
                                    "internalType": "uint256",
                                    "name": "X",
                                    "type": "uint256"
                                },
                                {
                                    "internalType": "uint256",
                                    "name": "Y",
                                    "type": "uint256"
                                }
                            ],
                            "internalType": "struct alt_bn128.G1Point",
                            "name": "tag",
                            "type": "tuple"
                        },
                        {
                            "internalType": "uint256[]",
                            "name": "attrS",
                            "type": "uint256[]"
                        },
                        {
                            "internalType": "address",
                            "name": "u_rcpt",
                            "type": "address"
                        }
                    ],
                    "internalType": "struct Mixer.TX_wd",
                    "name": "tx_wd",
                    "type": "tuple"
                },
                {
                    "internalType": "uint256[4]",
                    "name": "wit",
                    "type": "uint256[4]"
                }
            ],
            "name": "withdraw",
            "outputs": [
                {
                    "components": [
                        {
                            "components": [
                                {
                                    "internalType": "uint256",
                                    "name": "z",
                                    "type": "uint256"
                                },
                                {
                                    "components": [
                                        {
                                            "internalType": "uint256",
                                            "name": "X",
                                            "type": "uint256"
                                        },
                                        {
                                            "internalType": "uint256",
                                            "name": "Y",
                                            "type": "uint256"
                                        }
                                    ],
                                    "internalType": "struct alt_bn128.G1Point",
                                    "name": "R",
                                    "type": "tuple"
                                },
                                {
                                    "components": [
                                        {
                                            "components": [
                                                {
                                                    "internalType": "uint256",
                                                    "name": "X",
                                                    "type": "uint256"
                                                },
                                                {
                                                    "internalType": "uint256",
                                                    "name": "Y",
                                                    "type": "uint256"
                                                }
                                            ],
                                            "internalType": "struct alt_bn128.G1Point[]",
                                            "name": "Ls",
                                            "type": "tuple[]"
                                        },
                                        {
                                            "components": [
                                                {
                                                    "internalType": "uint256",
                                                    "name": "X",
                                                    "type": "uint256"
                                                },
                                                {
                                                    "internalType": "uint256",
                                                    "name": "Y",
                                                    "type": "uint256"
                                                }
                                            ],
                                            "internalType": "struct alt_bn128.G1Point[]",
                                            "name": "Rs",
                                            "type": "tuple[]"
                                        },
                                        {
                                            "internalType": "uint256",
                                            "name": "a",
                                            "type": "uint256"
                                        },
                                        {
                                            "internalType": "uint256",
                                            "name": "b",
                                            "type": "uint256"
                                        }
                                    ],
                                    "internalType": "struct NISA.Sig",
                                    "name": "nisa_sig",
                                    "type": "tuple"
                                }
                            ],
                            "internalType": "struct DualRingEC.SigEC",
                            "name": "dr_sig",
                            "type": "tuple"
                        },
                        {
                            "components": [
                                {
                                    "components": [
                                        {
                                            "internalType": "uint256",
                                            "name": "X",
                                            "type": "uint256"
                                        },
                                        {
                                            "internalType": "uint256",
                                            "name": "Y",
                                            "type": "uint256"
                                        }
                                    ],
                                    "internalType": "struct alt_bn128.G1Point",
                                    "name": "cx",
                                    "type": "tuple"
                                },
                                {
                                    "components": [
                                        {
                                            "internalType": "uint256",
                                            "name": "X",
                                            "type": "uint256"
                                        },
                                        {
                                            "internalType": "uint256",
                                            "name": "Y",
                                            "type": "uint256"
                                        }
                                    ],
                                    "internalType": "struct alt_bn128.G1Point",
                                    "name": "cy",
                                    "type": "tuple"
                                },
                                {
                                    "internalType": "uint256[]",
                                    "name": "zs",
                                    "type": "uint256[]"
                                }
                            ],
                            "internalType": "struct DiffGenEqual.Sig",
                            "name": "dg_sig",
                            "type": "tuple"
                        }
                    ],
                    "internalType": "struct Mixer.Sig_wd",
                    "name": "sig",
                    "type": "tuple"
                }
            ],
            "stateMutability": "view",
            "type": "function"
        }
    ],
    "bytecode": "60806040523480156200001157600080fd5b506040516200787a3803806200787a833981016040819052620000349162000198565b600380546001600160a01b038085166001600160a01b0319928316179092556004805492841692909116919091179055604051620000729062000151565b604051809103906000f0801580156200008f573d6000803e3d6000fd5b50600580546001600160a01b0319166001600160a01b0392909216919091179055604051620000be906200015f565b604051809103906000f080158015620000db573d6000803e3d6000fd5b50600680546001600160a01b0319166001600160a01b03929092169190911790556040516200010a906200016d565b604051809103906000f08015801562000127573d6000803e3d6000fd5b50600780546001600160a01b0319166001600160a01b039290921691909117905550620001d09050565b610bdd80620026d583390190565b613a5080620032b283390190565b610b788062006d0283390190565b80516001600160a01b03811681146200019357600080fd5b919050565b60008060408385031215620001ac57600080fd5b620001b7836200017b565b9150620001c7602084016200017b565b90509250929050565b6124f580620001e06000396000f3fe608060405234801561001057600080fd5b506004361061004c5760003560e01c806345615bcc14610051578063a767730a14610069578063b7d6044914610089578063fb965dc11461009c575b600080fd5b60005b60405190151581526020015b60405180910390f35b61007c6100773660046118b0565b6100bc565b6040516100609190611aa9565b610054610097366004611bf5565b61082d565b6100af6100aa366004611cc8565b610eef565b6040516100609190611d84565b6100c4611582565b600480546020840151604051639766247160e01b815292830152610142916001600160a01b03909116906397662471906024016040805180830381865afa158015610113573d6000803e3d6000fd5b505050506040513d601f19601f820116820180604052508101906101379190611de5565b6020850151906113cf565b6101815760405162461bcd60e51b815260206004820152600b60248201526a546167206d61746368657360a81b60448201526064015b60405180910390fd5b6000600460009054906101000a90046001600160a01b03166001600160a01b0316632e52d6066040518163ffffffff1660e01b8152600401602060405180830381865afa1580156101d6573d6000803e3d6000fd5b505050506040513d601f19601f820116820180604052508101906101fa9190611e01565b90506000816001600160401b03811115610216576102166116a6565b60405190808252806020026020018201604052801561023f578160200160208202803683370190505b50905060005b85604001515181101561029f578560400151818151811061026857610268611d9f565b602002602001015182828151811061028257610282611d9f565b60209081029190910101528061029781611e30565b915050610245565b5060005b6004811015610307578481600481106102be576102be611d9f565b602002015182826102d0600487611e49565b6102da9190611e5c565b815181106102ea576102ea611d9f565b6020908102919091010152806102ff81611e30565b9150506102a3565b5073__$771d09cdd8473e56977c78841e64cbd8fc$__635ec01e4d6040518163ffffffff1660e01b8152600401602060405180830381865af4158015610351573d6000803e3d6000fd5b505050506040513d601f19601f820116820180604052508101906103759190611e01565b81610381600185611e49565b8151811061039157610391611d9f565b6020908102919091010152600480546040516338e0cdcb60e11b81526000926001600160a01b03909216916371c19b96916103ce91869101611e6f565b6040805180830381865afa1580156103ea573d6000803e3d6000fd5b505050506040513d601f19601f8201168201806040525081019061040e9190611de5565b905060005b86515181101561048557610453610429836113f1565b885180518490811061043d5761043d611d9f565b602002602001015161148190919063ffffffff16565b875180518390811061046757610467611d9f565b6020026020010181905250808061047d90611e30565b915050610413565b50600654600480546040805163eef6a68160e01b815281516000956001600160a01b039081169563504af2ae959091169363eef6a68193808301939192908290030181865afa1580156104dc573d6000803e3d6000fd5b505050506040513d601f19601f820116820180604052508101906105009190611de5565b8951600480546040805163b8c9d36560e01b815281516001600160a01b039093169363b8c9d3659382820193929091908290030181865afa158015610549573d6000803e3d6000fd5b505050506040513d601f19601f8201168201806040525081019061056d9190611de5565b6040518463ffffffff1660e01b815260040161058b93929190611ec6565b600060405180830381865afa1580156105a8573d6000803e3d6000fd5b505050506040513d6000823e601f3d908101601f191682016040526105d09190810190611f66565b6060880151604080516001600160a01b0390921660208084019190915281518084039091018152608083018252929350600091018061064a8761061460018b611e49565b8151811061062457610624611d9f565b60200260200101518b60036004811061063f5761063f611d9f565b6020020151906114d9565b81528951602090910152600654604051634f30e73160e11b81529192506001600160a01b031690639e61ce62906106899086908690869060040161204d565b600060405180830381865afa1580156106a6573d6000803e3d6000fd5b505050506040513d6000823e601f3d908101601f191682016040526106ce91908101906120f5565b87526007546004805460408051632d74e53160e01b815281516001600160a01b039586169563ff9cfea995941693632d74e5319383820193909291908290030181865afa158015610723573d6000803e3d6000fd5b505050506040513d601f19601f820116820180604052508101906107479190611de5565b600480546040805162e71aaf60e01b815290516001600160a01b039092169262e71aaf9282820192600092908290030181865afa15801561078c573d6000803e3d6000fd5b505050506040513d6000823e601f3d908101601f191682016040526107b491908101906121e8565b6004896040518563ffffffff1660e01b81526004016107d6949392919061221c565b600060405180830381865afa1580156107f3573d6000803e3d6000fd5b505050506040513d6000823e601f3d908101601f1916820160405261081b91908101906122be565b60208801525094979650505050505050565b600080429050600081856020015160028151811061084d5761084d611d9f565b6020026020010151111580156108805750846020015160038151811061087557610875611d9f565b602002602001015182105b905060006108fd6001805480602002602001604051908101604052809291908181526020016000905b828210156108ef578382906000526020600020906002020160405180604001604052908160008201548152602001600182015481525050815260200190600101906108a9565b505089515191506115279050565b865160408101516020909101519115925060009161091a91611481565b90506000600460009054906101000a90046001600160a01b03166001600160a01b0316632e52d6066040518163ffffffff1660e01b8152600401602060405180830381865afa158015610971573d6000803e3d6000fd5b505050506040513d601f19601f820116820180604052508101906109959190611e01565b6001600160401b038111156109ac576109ac6116a6565b6040519080825280602002602001820160405280156109d5578160200160208202803683370190505b50905060005b886020015151811015610a3557886020015181815181106109fe576109fe611d9f565b6020026020010151828281518110610a1857610a18611d9f565b602090810291909101015280610a2d81611e30565b9150506109db565b50600480546040516338e0cdcb60e11b81526000926001600160a01b03909216916371c19b9691610a6891869101611e6f565b6040805180830381865afa158015610a84573d6000803e3d6000fd5b505050506040513d601f19601f82011682018060405250810190610aa89190611de5565b90506000896020015151600460009054906101000a90046001600160a01b03166001600160a01b0316632e52d6066040518163ffffffff1660e01b8152600401602060405180830381865afa158015610b05573d6000803e3d6000fd5b505050506040513d601f19601f82011682018060405250810190610b299190611e01565b610b339190611e49565b6001600160401b03811115610b4a57610b4a6116a6565b604051908082528060200260200182016040528015610b73578160200160208202803683370190505b50905060005b8151811015610bc15760208b015151610b929082611e5c565b828281518110610ba457610ba4611d9f565b602090810291909101015280610bb981611e30565b915050610b79565b50600554600480546040805162e71aaf60e01b815290516000946001600160a01b0390811694633ef87f26949091169262e71aaf928183019288928290030181865afa158015610c15573d6000803e3d6000fd5b505050506040513d6000823e601f3d908101601f19168201604052610c3d91908101906121e8565b8c516040516001600160e01b031960e085901b168152610c66929187918b918a9160040161234e565b602060405180830381865afa158015610c83573d6000803e3d6000fd5b505050506040513d601f19601f82011682018060405250810190610ca791906123b5565b9050868015610cb35750855b8015610cbc5750805b15610edc576000805460018181018355828052875160029283027f290decd9548b62a8d60345a988386fc84ba6bc95484008f6362f93160ef3e5638101919091556020808a01517f290decd9548b62a8d60345a988386fc84ba6bc95484008f6362f93160ef3e564909201919091558e5151825480840184559285528051929093027fb10e2d527612073b26eecdfd717e6a320cf44b4afac2b0732d9fcbe2b7fa0cf6810192909255918201517fb10e2d527612073b26eecdfd717e6a320cf44b4afac2b0732d9fcbe2b7fa0cf790910155600354908d015180516001600160a01b039092169163e4b50cb891908490610db857610db8611d9f565b60200260200101516040518263ffffffff1660e01b8152600401610dde91815260200190565b602060405180830381865afa158015610dfb573d6000803e3d6000fd5b505050506040513d601f19601f82011682018060405250810190610e1f91906123d7565b9050806001600160a01b031663beabacc833308f60200151600181518110610e4957610e49611d9f565b60209081029190910101516040516001600160e01b031960e086901b1681526001600160a01b03938416600482015292909116602483015260448201526064016020604051808303816000875af1158015610ea8573d6000803e3d6000fd5b505050506040513d601f19601f82011682018060405250810190610ecc91906123b5565b9950505050505050505050610ee9565b6000985050505050505050505b92915050565b610ef76115a7565b600354602084015180516000926001600160a01b03169163e4b50cb8918490610f2257610f22611d9f565b60200260200101516040518263ffffffff1660e01b8152600401610f4891815260200190565b602060405180830381865afa158015610f65573d6000803e3d6000fd5b505050506040513d601f19601f82011682018060405250810190610f8991906123d7565b9050806001600160a01b031663095ea7b3308660200151600181518110610fb257610fb2611d9f565b60200260200101516040518363ffffffff1660e01b8152600401610feb9291906001600160a01b03929092168252602082015260400190565b6020604051808303816000875af115801561100a573d6000803e3d6000fd5b505050506040513d601f19601f8201168201806040525081019061102e91906123b5565b61107a5760405162461bcd60e51b815260206004820152601e60248201527f556e7375636365737366756c20617070726f7665206f7065726174696f6e00006044820152606401610178565b6000600460009054906101000a90046001600160a01b03166001600160a01b0316632e52d6066040518163ffffffff1660e01b8152600401602060405180830381865afa1580156110cf573d6000803e3d6000fd5b505050506040513d601f19601f820116820180604052508101906110f39190611e01565b90506000816001600160401b0381111561110f5761110f6116a6565b604051908082528060200260200182016040528015611138578160200160208202803683370190505b5090506000826001600160401b03811115611155576111556116a6565b60405190808252806020026020018201604052801561117e578160200160208202803683370190505b5060408051600380825260808201909252919250600091906020820160608036833701905050905060005b88602001515181101561123f57886020015181815181106111cc576111cc611d9f565b60200260200101518482815181106111e6576111e6611d9f565b6020026020010181815250508860200151818151811061120857611208611d9f565b602002602001015183828151811061122257611222611d9f565b60209081029190910101528061123781611e30565b9150506111a9565b5060005b60038110156112d15787816003811061125e5761125e611d9f565b6020020151848a6020015151836112759190611e5c565b8151811061128557611285611d9f565b602002602001018181525050886020015151816112a29190611e5c565b8282815181106112b4576112b4611d9f565b6020908102919091010152806112c981611e30565b915050611243565b50600554600480546040805162e71aaf60e01b815290516000946001600160a01b03908116946319d54992949091169262e71aaf928183019288928290030181865afa158015611325573d6000803e3d6000fd5b505050506040513d6000823e601f3d908101601f1916820160405261134d91908101906121e8565b8686866040518563ffffffff1660e01b815260040161136f94939291906123f4565b600060405180830381865afa15801561138c573d6000803e3d6000fd5b505050506040513d6000823e601f3d908101601f191682016040526113b49190810190612441565b60408051602081019091529081529998505050505050505050565b805182516000911480156113ea575081602001518360200151145b9392505050565b6040805180820190915260008082526020820152815115801561141657506020820151155b15611434575050604080518082019091526000808252602082015290565b60405180604001604052808360000151815260200183602001517f30644e72e131a029b85045b68181585d97816a916871ca8d3c208c16d87cfd476114799190611e49565b905292915050565b604080518082019091526000808252602082015261149d6115ba565b83518152602080850151818301528351604080840191909152908401516060830152826080836006600019fa6114d257600080fd5b5092915050565b60008183101561151d578261150e837f30644e72e131a029b85045b68181585d2833e84879b9709143e1f593f0000001611e49565b6115189190611e5c565b6113ea565b6113ea8284611e49565b6000805b83518110156115785761155784828151811061154957611549611d9f565b6020026020010151846113cf565b15611566576001915050610ee9565b8061157081611e30565b91505061152b565b5060009392505050565b60405180604001604052806115956115d8565b81526020016115a2611637565b905290565b60405180602001604052806115a2611684565b60405180608001604052806004906020820280368337509192915050565b604051806060016040528060008152602001611607604051806040016040528060008152602001600081525090565b81526020016115a26040518060800160405280606081526020016060815260200160008152602001600081525090565b6040805160a08101909152600060608201818152608083019190915281908152602001611677604051806040016040528060008152602001600081525090565b8152602001606081525090565b6040805160808101825260009181018281526060820192909252908190611677565b634e487b7160e01b600052604160045260246000fd5b604080519081016001600160401b03811182821017156116de576116de6116a6565b60405290565b604051608081016001600160401b03811182821017156116de576116de6116a6565b604051606081016001600160401b03811182821017156116de576116de6116a6565b604051602081016001600160401b03811182821017156116de576116de6116a6565b604051601f8201601f191681016001600160401b0381118282101715611772576117726116a6565b604052919050565b60006001600160401b03821115611793576117936116a6565b5060051b60200190565b6000604082840312156117af57600080fd5b6117b76116bc565b9050813581526020820135602082015292915050565b600082601f8301126117de57600080fd5b813560206117f36117ee8361177a565b61174a565b82815260059290921b8401810191818101908684111561181257600080fd5b8286015b8481101561182d5780358352918301918301611816565b509695505050505050565b6001600160a01b038116811461184d57600080fd5b50565b803561185b81611838565b919050565b600082601f83011261187157600080fd5b6118796116e4565b80608084018581111561188b57600080fd5b845b818110156118a557803584526020938401930161188d565b509095945050505050565b60008060a083850312156118c357600080fd5b82356001600160401b03808211156118da57600080fd5b9084019060a082870312156118ee57600080fd5b6118f66116e4565b82358281111561190557600080fd5b8301601f8101881361191657600080fd5b803560206119266117ee8361177a565b82815260069290921b8301810191818101908b84111561194557600080fd5b938201935b8385101561196e5761195c8c8661179d565b8252828201915060408501945061194a565b85525061197d8a87830161179d565b81850152606086013592508483111561199557600080fd5b6119a18a8488016117cd565b60408501526119b260808701611850565b60608501528397506119c68a828b01611860565b96505050505050509250929050565b600081518084526020808501945080840160005b83811015611a1957611a0687835180518252602090810151910152565b60409690960195908201906001016119e9565b509495945050505050565b600081518084526020808501945080840160005b83811015611a1957815187529582019590820190600101611a38565b611a6982825180518252602090810151910152565b60006020820151611a87604085018280518252602090810151910152565b50604082015160a06080850152611aa160a0850182611a24565b949350505050565b602081526000825160406020840152805160608401526020810151611adb608085018280518252602090810151910152565b5060408101519050608060c08401528051608060e0850152611b016101608501826119d5565b9050602082015160df1985830301610100860152611b1f82826119d5565b9150506040820151610120850152606082015161014085015260208501519150601f19848203016040850152611b558183611a54565b95945050505050565b600081830360e0811215611b7157600080fd5b611b796116bc565b915060c0811215611b8957600080fd5b50611b92611706565b611b9c848461179d565b8152611bab846040850161179d565b6020820152611bbd846080850161179d565b6040820152815260c08201356001600160401b03811115611bdd57600080fd5b611be9848285016117cd565b60208301525092915050565b60008060408385031215611c0857600080fd5b82356001600160401b0380821115611c1f57600080fd5b611c2b86838701611b5e565b93506020850135915080821115611c4157600080fd5b9084019060208287031215611c5557600080fd5b611c5d611728565b823582811115611c6c57600080fd5b929092019160608388031215611c8157600080fd5b611c896116bc565b611c93888561179d565b8152604084013583811115611ca757600080fd5b611cb3898287016117cd565b60208301525081529396939550929350505050565b60008060808385031215611cdb57600080fd5b82356001600160401b03811115611cf157600080fd5b611cfd85828601611b5e565b925050602084603f850112611d1157600080fd5b611d19611706565b806080860187811115611d2b57600080fd5b8387015b81811015611d465780358452928401928401611d2f565b509497909650945050505050565b611d6982825180518252602090810151910152565b6000602082015160606040850152611aa16060850182611a24565b6020815260008251602080840152611aa16040840182611d54565b634e487b7160e01b600052603260045260246000fd5b600060408284031215611dc757600080fd5b611dcf6116bc565b9050815181526020820151602082015292915050565b600060408284031215611df757600080fd5b6113ea8383611db5565b600060208284031215611e1357600080fd5b5051919050565b634e487b7160e01b600052601160045260246000fd5b600060018201611e4257611e42611e1a565b5060010190565b81810381811115610ee957610ee9611e1a565b80820180821115610ee957610ee9611e1a565b6020815260006113ea6020830184611a24565b600081518084526020808501945080840160005b83811015611a1957611eb387835180518252602090810151910152565b6040969096019590820190600101611e96565b835181526020808501519082015260a060408201526000611eea60a0830185611e82565b83516060840152602084015160808401529050611aa1565b600082601f830112611f1357600080fd5b81516020611f236117ee8361177a565b82815260069290921b84018101918181019086841115611f4257600080fd5b8286015b8481101561182d57611f588882611db5565b835291830191604001611f46565b600060208284031215611f7857600080fd5b81516001600160401b0380821115611f8f57600080fd5b9083019060608286031215611fa357600080fd5b611fab6116bc565b825182811115611fba57600080fd5b830160608188031215611fcc57600080fd5b611fd46116bc565b611fde8883611db5565b8152604082015184811115611ff257600080fd5b611ffe89828501611f02565b60208301525080835250506120168660208501611db5565b602082015295945050505050565b8060005b6002811015612047578151845260209384019390910190600101612028565b50505050565b60808152600084516060608084015261207460e08401825180518252602090810151910152565b6020908101516060610120850152906120916101408501836119d5565b81880151805160a08701526020015160c086015284810385830152865180825290925060005b818110156120d25787810183015184820184015282016120b7565b506000838201830152601f01601f1916909101019050611aa16040830184612024565b60006020828403121561210757600080fd5b81516001600160401b038082111561211e57600080fd5b908301906080828603121561213257600080fd5b61213a611706565b8251815261214b8660208501611db5565b602082015260608301518281111561216257600080fd5b92909201916080838703121561217757600080fd5b61217f6116e4565b83518381111561218e57600080fd5b61219a88828701611f02565b8252506020840151838111156121af57600080fd5b6121bb88828701611f02565b60208301525060408401516040820152606084015160608201528060408301525080935050505092915050565b6000602082840312156121fa57600080fd5b81516001600160401b0381111561221057600080fd5b611aa184828501611f02565b845181526020808601519082015260a06040820152600061224060a0830186611e82565b84606084015282810360808401526122588185611a24565b979650505050505050565b600082601f83011261227457600080fd5b815160206122846117ee8361177a565b82815260059290921b840181019181810190868411156122a357600080fd5b8286015b8481101561182d57805183529183019183016122a7565b6000602082840312156122d057600080fd5b81516001600160401b03808211156122e757600080fd5b9083019060a082860312156122fb57600080fd5b612303611706565b61230d8684611db5565b815261231c8660408501611db5565b602082015260808301518281111561233357600080fd5b61233f87828601612263565b60408301525095945050505050565b60e08152600061236160e0830188611e82565b82810360208401526123738188611a24565b8651604085015260208701516060850152905084516080840152602085015160a084015282810360c08401526123a98185611d54565b98975050505050505050565b6000602082840312156123c757600080fd5b815180151581146113ea57600080fd5b6000602082840312156123e957600080fd5b81516113ea81611838565b6080815260006124076080830187611e82565b82810360208401526124198187611a24565b9050828103604084015261242d8186611a24565b905082810360608401526122588185611a24565b60006020828403121561245357600080fd5b81516001600160401b038082111561246a57600080fd5b908301906060828603121561247e57600080fd5b6124866116bc565b6124908684611db5565b81526040830151828111156124a457600080fd5b6124b087828601612263565b6020830152509594505050505056fea26469706673582212205d8c69bd3d019fe535ceef7feae5275d7e6b6e52f98830e08feee1a8c0e408b264736f6c63430008130033608060405234801561001057600080fd5b50610bbd806100206000396000f3fe608060405234801561001057600080fd5b50600436106100365760003560e01c806319d549921461003b5780633ef87f2614610064575b600080fd5b61004e6100493660046108f9565b610087565b60405161005b91906109a6565b60405180910390f35b6100776100723660046109fe565b61042c565b604051901515815260200161005b565b6040805160808101825260009181018281526060808301939093528152602081019190915282518451146101125760405162461bcd60e51b815260206004820152602760248201527f5061727469616c457175616c7469793a207769746e65737320756e657175616c604482015266040d8cadccee8d60cb1b60648201526084015b60405180910390fd5b8151845181111561012257600080fd5b60008167ffffffffffffffff81111561013d5761013d610766565b604051908082528060200260200182016040528015610166578160200160208202803683370190505b50905060006040518060400160405280600081526020016000815250905060005b838110156102ff5773__$771d09cdd8473e56977c78841e64cbd8fc$__635ec01e4d6040518163ffffffff1660e01b8152600401602060405180830381865af41580156101d8573d6000803e3d6000fd5b505050506040513d601f19601f820116820180604052508101906101fc9190610aec565b83828151811061020e5761020e610b05565b602002602001018181525050885186828151811061022e5761022e610b05565b6020026020010151106102835760405162461bcd60e51b815260206004820152601f60248201527f5061727469616c457175616c7469793a20496e646578204f766572666c6f77006044820152606401610109565b6102eb6102e484838151811061029b5761029b610b05565b60200260200101518b8985815181106102b6576102b6610b05565b6020026020010151815181106102ce576102ce610b05565b602002602001015161050890919063ffffffff16565b839061057d565b9150806102f781610b31565b915050610187565b506000816040516020016103139190610b4a565b6040516020818303038152906040528051906020012060001c905060005b8481101561040b576103dc6103b4836103ae8c8b868151811061035657610356610b05565b60200260200101518151811061036e5761036e610b05565b60200260200101518c8c878151811061038957610389610b05565b6020026020010151815181106103a1576103a1610b05565b60200260200101516105ce565b90610623565b8583815181106103c6576103c6610b05565b602002602001015161065090919063ffffffff16565b8482815181106103ee576103ee610b05565b60209081029190910101528061040381610b31565b915050610331565b50506040805180820190915290815260208101919091529695505050505050565b6040805180820190915260008082526020820181905290815b8651811015610499576104856102e48560200151838151811061046a5761046a610b05565b60200260200101518a8a85815181106102b6576102b6610b05565b91508061049181610b31565b915050610445565b5082516040516000916104ae91602001610b4a565b6040516020818303038152906040528051906020012060001c905060006104ef85600001516104e4846104e98b6104e48c61067d565b61057d565b90610508565b90506104fb838261070d565b9998505050505050505050565b60408051808201909152600080825260208201528160010361052b575081610577565b816002036105445761053d838461057d565b9050610577565b61054c61072a565b83518152602080850151908201526040808201849052826060836007600019fa61057557600080fd5b505b92915050565b6040805180820190915260008082526020820152610599610748565b83518152602080850151818301528351604080840191909152908401516060830152826080836006600019fa61057557600080fd5b6000818310156106125782610603837f30644e72e131a029b85045b68181585d2833e84879b9709143e1f593f0000001610b61565b61060d9190610b74565b61061c565b61061c8284610b61565b9392505050565b60007f30644e72e131a029b85045b68181585d2833e84879b9709143e1f593f00000018284099392505050565b60007f30644e72e131a029b85045b68181585d2833e84879b9709143e1f593f00000018284089392505050565b604080518082019091526000808252602082015281511580156106a257506020820151155b156106c0575050604080518082019091526000808252602082015290565b60405180604001604052808360000151815260200183602001517f30644e72e131a029b85045b68181585d97816a916871ca8d3c208c16d87cfd476107059190610b61565b905292915050565b8051825160009114801561061c5750506020908101519101511490565b60405180606001604052806003906020820280368337509192915050565b60405180608001604052806004906020820280368337509192915050565b634e487b7160e01b600052604160045260246000fd5b6040805190810167ffffffffffffffff8111828210171561079f5761079f610766565b60405290565b604051601f8201601f1916810167ffffffffffffffff811182821017156107ce576107ce610766565b604052919050565b600067ffffffffffffffff8211156107f0576107f0610766565b5060051b60200190565b60006040828403121561080c57600080fd5b61081461077c565b9050813581526020820135602082015292915050565b600082601f83011261083b57600080fd5b8135602061085061084b836107d6565b6107a5565b82815260069290921b8401810191818101908684111561086f57600080fd5b8286015b848110156108935761088588826107fa565b835291830191604001610873565b509695505050505050565b600082601f8301126108af57600080fd5b813560206108bf61084b836107d6565b82815260059290921b840181019181810190868411156108de57600080fd5b8286015b8481101561089357803583529183019183016108e2565b6000806000806080858703121561090f57600080fd5b843567ffffffffffffffff8082111561092757600080fd5b6109338883890161082a565b9550602087013591508082111561094957600080fd5b6109558883890161089e565b9450604087013591508082111561096b57600080fd5b6109778883890161089e565b9350606087013591508082111561098d57600080fd5b5061099a8782880161089e565b91505092959194509250565b602080825282518051838301528101516040830152600090608083018482015160608581015280519182905282019060009060a08601905b8083101561089357835182529284019260019290920191908401906109de565b600080600080600060e08688031215610a1657600080fd5b853567ffffffffffffffff80821115610a2e57600080fd5b610a3a89838a0161082a565b96506020880135915080821115610a5057600080fd5b610a5c89838a0161089e565b9550610a6b8960408a016107fa565b9450610a7a8960808a016107fa565b935060c0880135915080821115610a9057600080fd5b908701906060828a031215610aa457600080fd5b610aac61077c565b610ab68a846107fa565b8152604083013582811115610aca57600080fd5b610ad68b82860161089e565b6020830152508093505050509295509295909350565b600060208284031215610afe57600080fd5b5051919050565b634e487b7160e01b600052603260045260246000fd5b634e487b7160e01b600052601160045260246000fd5b600060018201610b4357610b43610b1b565b5060010190565b815181526020808301519082015260408101610577565b8181038181111561057757610577610b1b565b8082018082111561057757610577610b1b56fea2646970667358221220b400f94a3219c834572ab0fea46118d51d58b7e4c444ffb062ef776e24267baf64736f6c63430008130033608060405234801561001057600080fd5b5060405161001d9061005f565b604051809103906000f080158015610039573d6000803e3d6000fd5b50600080546001600160a01b0319166001600160a01b039290921691909117905561006c565b611d6c80611ce483390190565b611c698061007b6000396000f3fe608060405234801561001057600080fd5b506004361061007d5760003560e01c80637d2beca31161005b5780637d2beca3146100e15780639e61ce62146100f45780639e8e957d14610114578063f4f4b6091461013657600080fd5b8063504af2ae146100825780636b7411c5146100ab57806375242580146100ce575b600080fd5b61009561009036600461114f565b610156565b6040516100a2919061122d565b60405180910390f35b6100be6100b9366004611340565b610185565b60405190151581526020016100a2565b6100be6100dc3660046114a1565b61025a565b6100956100ef36600461162c565b610394565b610107610102366004611659565b61042e565b6040516100a29190611713565b610127610122366004611755565b610577565b6040516100a2939291906117bd565b61014961014436600461162c565b610870565b6040516100a29190611802565b61015e610eae565b50604080516080810182529081019384526060810192909252918152602081019190915290565b60008061019a85600001518460200151610aa9565b90506000805b866020015151811015610240576101fa836101f5896020015184815181106101ca576101ca611815565b6020026020010151886000015185815181106101e8576101e8611815565b6020026020010151610aa9565b610b1c565b925061022c8560000151828151811061021557610215611815565b602002602001015183610b6d90919063ffffffff16565b91508061023881611841565b9150506101a0565b5061025085876020015184610b88565b1495945050505050565b600080610274848660000151602001518560200151610b88565b83518651519192506000916102a0916102959161029091610aa9565b610c5c565b602086015190610b1c565b6040805160808101825288516020908101518252808a015190820152808201839052606081018590526000548783015192516310a4eddf60e21b815293945090926001600160a01b0390911691634293b77c916103019185916004016118b9565b602060405180830381865afa15801561031e573d6000803e3d6000fd5b505050506040513d601f19601f8201168201806040525081019061034291906118e7565b6103875760405162461bcd60e51b8152602060048201526011602482015270111d585b149a5b99d150c819985a5b1959607a1b60448201526064015b60405180910390fd5b5060019695505050505050565b61039c610eae565b6103a68383610870565b816000018190525061042373__$771d09cdd8473e56977c78841e64cbd8fc$__635ec01e4d6040518163ffffffff1660e01b8152600401602060405180830381865af41580156103fa573d6000803e3d6000fd5b505050506040513d601f19601f8201168201806040525081019061041e9190611909565b610cda565b602082015292915050565b610436610eff565b604080518082019091526060815260006020820152600061046a604051806040016040528060008152602001600081525090565b8651610477908787610577565b604080516080810182528b516020908101518252808d0151818301528501518c51519598509396509194506000939192908301916104c3916104bc9161029091610aa9565b8590610b1c565b8152602001849052600080548651604051630ae8fb3b60e21b815293945091926001600160a01b0390911691632ba3ecec91610503918691600401611922565b600060405180830381865afa158015610520573d6000803e3d6000fd5b505050506040513d6000823e601f3d908101601f1916820160405261054891908101906119c6565b905060405180606001604052808660200151815260200184815260200182815250955050505050509392505050565b60408051808201909152606081526000602082015260006105ab604051806040016040528060008152602001600081525090565b60208681015151908501511061060e5760405162461bcd60e51b815260206004820152602260248201527f4475616c52696e673a20736563726574206b657920696e76616c696420696e646044820152610caf60f31b606482015260840161037e565b60008660200151516001600160401b0381111561062d5761062d610fd6565b604051908082528060200260200182016040528015610656578160200160208202803683370190505b509050600073__$771d09cdd8473e56977c78841e64cbd8fc$__635ec01e4d6040518163ffffffff1660e01b8152600401602060405180830381865af41580156106a4573d6000803e3d6000fd5b505050506040513d601f19601f820116820180604052508101906106c89190611909565b90506106d8886000015182610aa9565b92506000805b8960200151518110156107e457602088015181146107d25773__$771d09cdd8473e56977c78841e64cbd8fc$__635ec01e4d6040518163ffffffff1660e01b8152600401602060405180830381865af415801561073f573d6000803e3d6000fd5b505050506040513d601f19601f820116820180604052508101906107639190611909565b84828151811061077557610775611815565b60200260200101818152505061079684828151811061021557610215611815565b91506107cf856101f58c6020015184815181106107b5576107b5611815565b60200260200101518785815181106101e8576101e8611815565b94505b806107dc81611841565b9150506106de565b506107f4888a6020015186610b88565b945060006108028683610de0565b9050808489600160200201518151811061081e5761081e611815565b6020908102919091010152875160009061084c90610845906108409085610e23565b610e3e565b8590610b6d565b60408051808201909152958652602086015250929994985092965092945050505050565b60408051608081018252600091810182815260608083019390935281526020810191909152602082015183116108f65760405162461bcd60e51b815260206004820152602560248201527f4475616c52696e673a20736563726574206b657920696e76616c696420706f7360448201526434ba34b7b760d91b606482015260840161037e565b61094273__$771d09cdd8473e56977c78841e64cbd8fc$__635ec01e4d6040518163ffffffff1660e01b8152600401602060405180830381865af41580156103fa573d6000803e3d6000fd5b8152826001600160401b0381111561095c5761095c610fd6565b6040519080825280602002602001820160405280156109a157816020015b604080518082019091526000808252602082015281526020019060019003908161097a5790505b506020820152815181516109b491610aa9565b60208281015190840151815181106109ce576109ce611815565b602002602001018190525060005b83811015610aa25760208301518114610a9057600073__$771d09cdd8473e56977c78841e64cbd8fc$__635ec01e4d6040518163ffffffff1660e01b8152600401602060405180830381865af4158015610a3a573d6000803e3d6000fd5b505050506040513d601f19601f82011682018060405250810190610a5e9190611909565b8351909150610a6d9082610aa9565b83602001518381518110610a8357610a83611815565b6020026020010181905250505b80610a9a81611841565b9150506109dc565b5092915050565b604080518082019091526000808252602082015281600103610acc575081610b16565b81600203610ae557610ade8384610b1c565b9050610b16565b610aed610f5e565b83518152602080850151908201526040808201849052826060836007600019fa610aa257600080fd5b92915050565b6040805180820190915260008082526020820152610b38610f7c565b83518152602080850151818301528351604080840191909152908401516060830152826080836006600019fa610aa257600080fd5b6000600080516020611c148339815191528284089392505050565b604051630ef39c1960e41b8152600090600080516020611c1483398151915290859073__$771d09cdd8473e56977c78841e64cbd8fc$__9063ef39c19090610bd4908890600401611a83565b600060405180830381865af4158015610bf1573d6000803e3d6000fd5b505050506040513d6000823e601f3d908101601f19168201604052610c199190810190611afe565b8451602080870151604051610c319594939201611b6b565b6040516020818303038152906040528051906020012060001c610c549190611ba5565b949350505050565b60408051808201909152600080825260208201528151158015610c8157506020820151155b15610c9f575050604080518082019091526000808252602082015290565b6040518060400160405280836000015181526020018360200151600080516020611bf4833981519152610cd29190611bb9565b905292915050565b60408051808201909152600080825260208201526000610d08600080516020611bf483398151915284611ba5565b90506000610d17600183611bb9565b91506000805b81610dc657610d2d600185611bcc565b9350600080516020611bf48339815191528485099050600080516020611bf48339815191528482099050600080516020611bf4833981519152600382089050610da9816004610d8b600080516020611bf48339815191526001611bcc565b610d959190611bdf565b600080516020611bf4833981519152610e58565b925080600080516020611bf4833981519152848509149150610d1d565b505060408051808201909152918252602082015292915050565b600081831015610e125782610e0383600080516020611c14833981519152611bb9565b610e0d9190611bcc565b610e1c565b610e1c8284611bb9565b9392505050565b6000600080516020611c148339815191528284099392505050565b6000610b1682600080516020611c14833981519152611bb9565b6000610e62610f9a565b610e6a610fb8565b602080835282810181905260408301819052606083018790526080830186905260a083018590528160c0846005600019fa610ea457600080fd5b5195945050505050565b6040805160c08101825260006080820181815260a08301919091529181019182526060808201529081908152602001610efa604051806040016040528060008152602001600081525090565b905290565b604051806060016040528060008152602001610f2e604051806040016040528060008152602001600081525090565b8152602001610efa6040518060800160405280606081526020016060815260200160008152602001600081525090565b60405180606001604052806003906020820280368337509192915050565b60405180608001604052806004906020820280368337509192915050565b6040518060c001604052806006906020820280368337509192915050565b60405180602001604052806001906020820280368337509192915050565b634e487b7160e01b600052604160045260246000fd5b604080519081016001600160401b038111828210171561100e5761100e610fd6565b60405290565b604051606081016001600160401b038111828210171561100e5761100e610fd6565b604051608081016001600160401b038111828210171561100e5761100e610fd6565b604051601f8201601f191681016001600160401b038111828210171561108057611080610fd6565b604052919050565b60006040828403121561109a57600080fd5b6110a2610fec565b9050813581526020820135602082015292915050565b60006001600160401b038211156110d1576110d1610fd6565b5060051b60200190565b600082601f8301126110ec57600080fd5b813560206111016110fc836110b8565b611058565b82815260069290921b8401810191818101908684111561112057600080fd5b8286015b84811015611144576111368882611088565b835291830191604001611124565b509695505050505050565b600080600060a0848603121561116457600080fd5b61116e8585611088565b925060408401356001600160401b0381111561118957600080fd5b611195868287016110db565b9250506111a58560608601611088565b90509250925092565b600081518084526020808501945080840160005b838110156111f2576111df87835180518252602090810151910152565b60409690960195908201906001016111c2565b509495945050505050565b61121282825180518252602090810151910152565b6000602082015160606040850152610c5460608501826111ae565b60208152600082516060602084015261124960808401826111fd565b90506020840151611267604085018280518252602090810151910152565b509392505050565b60006060828403121561128157600080fd5b611289610fec565b90506112958383611088565b815260408201356001600160401b038111156112b057600080fd5b6112bc848285016110db565b60208301525092915050565b60006001600160401b038211156112e1576112e1610fd6565b50601f01601f191660200190565b600082601f83011261130057600080fd5b813561130e6110fc826112c8565b81815284602083860101111561132357600080fd5b816020850160208301376000918101602001919091529392505050565b60008060006060848603121561135557600080fd5b83356001600160401b038082111561136c57600080fd5b6113788783880161126f565b945060209150818601358181111561138f57600080fd5b61139b888289016112ef565b9450506040860135818111156113b057600080fd5b8601604081890312156113c257600080fd5b6113ca610fec565b8135838111156113d957600080fd5b82019250601f830189136113ec57600080fd5b82356113fa6110fc826110b8565b81815260059190911b8401850190858101908b83111561141957600080fd5b948601945b828610156114375785358252948601949086019061141e565b8084525050508382013584820152809450505050509250925092565b60006060828403121561146557600080fd5b61146d610fec565b905081356001600160401b0381111561148557600080fd5b6114918482850161126f565b8252506104238360208401611088565b6000806000606084860312156114b657600080fd5b83356001600160401b03808211156114cd57600080fd5b6114d987838801611453565b945060208601359150808211156114ef57600080fd5b6114fb878388016112ef565b9350604086013591508082111561151157600080fd5b908501906080828803121561152557600080fd5b61152d611014565b8235815261153e8860208501611088565b602082015260608301358281111561155557600080fd5b92909201916080838903121561156a57600080fd5b611572611036565b83358381111561158157600080fd5b61158d8a8287016110db565b8252506020840135838111156115a257600080fd5b6115ae8a8287016110db565b6020830152506040840135604082015260608401356060820152806040830152508093505050509250925092565b600082601f8301126115ed57600080fd5b6115f5610fec565b80604084018581111561160757600080fd5b845b81811015611621578035845260209384019301611609565b509095945050505050565b6000806060838503121561163f57600080fd5b8235915061165084602085016115dc565b90509250929050565b60008060006080848603121561166e57600080fd5b83356001600160401b038082111561168557600080fd5b61169187838801611453565b945060208601359150808211156116a757600080fd5b506116b4868287016112ef565b9250506111a585604086016115dc565b60008151608084526116d960808501826111ae565b9050602083015184820360208601526116f282826111ae565b91505060408301516040850152606083015160608501528091505092915050565b60208152815160208201526000602083015161173c604084018280518252602090810151910152565b506040830151608080840152610c5460a08401826116c4565b60008060006080848603121561176a57600080fd5b83356001600160401b038082111561178157600080fd5b6116918783880161126f565b600081518084526020808501945080840160005b838110156111f2578151875295820195908201906001016117a1565b6080815260008451604060808401526117d960c084018261178d565b60208781015160a08601528481018790528551604086015285015160608501529150610c549050565b602081526000610e1c60208301846111fd565b634e487b7160e01b600052603260045260246000fd5b634e487b7160e01b600052601160045260246000fd5b6000600182016118535761185361182b565b5060010190565b6000815160c0845261186f60c08501826111ae565b9050602083015161188d602086018280518252602090810151910152565b506040830151805160608601526020810151608086015250606083015160a08501528091505092915050565b6040815260006118cc604083018561185a565b82810360208401526118de81856116c4565b95945050505050565b6000602082840312156118f957600080fd5b81518015158114610e1c57600080fd5b60006020828403121561191b57600080fd5b5051919050565b604081526000611935604083018561185a565b82810360208401526118de818561178d565b600082601f83011261195857600080fd5b815160206119686110fc836110b8565b82815260069290921b8401810191818101908684111561198757600080fd5b8286015b8481101561114457604081890312156119a45760008081fd5b6119ac610fec565b81518152848201518582015283529183019160400161198b565b6000602082840312156119d857600080fd5b81516001600160401b03808211156119ef57600080fd5b9083019060808286031215611a0357600080fd5b611a0b611036565b825182811115611a1a57600080fd5b611a2687828601611947565b825250602083015182811115611a3b57600080fd5b611a4787828601611947565b602083015250604083015160408201526060830151606082015280935050505092915050565b634e487b7160e01b600052601260045260246000fd5b602080825282518282018190526000919060409081850190868401855b82811015611acd57611abd84835180518252602090810151910152565b9284019290850190600101611aa0565b5091979650505050505050565b60005b83811015611af5578181015183820152602001611add565b50506000910152565b600060208284031215611b1057600080fd5b81516001600160401b03811115611b2657600080fd5b8201601f81018413611b3757600080fd5b8051611b456110fc826112c8565b818152856020838501011115611b5a57600080fd5b6118de826020830160208601611ada565b60008551611b7d818460208a01611ada565b855190830190611b91818360208a01611ada565b019384525050602082015260400192915050565b600082611bb457611bb4611a6d565b500690565b81810381811115610b1657610b1661182b565b80820180821115610b1657610b1661182b565b600082611bee57611bee611a6d565b50049056fe30644e72e131a029b85045b68181585d97816a916871ca8d3c208c16d87cfd4730644e72e131a029b85045b68181585d2833e84879b9709143e1f593f0000001a2646970667358221220f130d85d931463e8ce31dfeeafc8cbc4bcc8f8362d67ee6a2d0690b2416065eb64736f6c63430008130033608060405234801561001057600080fd5b50611d4c806100206000396000f3fe608060405234801561001057600080fd5b50600436106100415760003560e01c806324f35549146100465780632ba3ecec1461006f5780634293b77c1461008f575b600080fd5b61005961005436600461171a565b6100b2565b60405161006691906117a5565b60405180910390f35b61008261007d36600461192f565b6102b4565b6040516100669190611992565b6100a261009d3660046119ec565b61086f565b6040519015158152602001610066565b6100ba611548565b600182516100c89190611acd565b825116156100f15760405162461bcd60e51b81526004016100e890611ae0565b60405180910390fd5b81516001600160401b0381111561010a5761010a61161e565b60405190808252806020026020018201604052801561014f57816020015b60408051808201909152600080825260208201528152602001906001900390816101285790505b50815260005b82518110156101a35761017161016c826002611b24565b610e4f565b825180518390811061018557610185611b37565b6020026020010181905250808061019b90611b4d565b915050610155565b506101ae6001610e4f565b6020820152815182906000906101c6576101c6611b37565b602002602001015181606001818152505061021981600001516000815181106101f1576101f1611b37565b60200260200101518360008151811061020c5761020c611b37565b6020026020010151610f55565b604082015260015b82518110156102ae57610251826060015184838151811061024457610244611b37565b6020026020010151610fc9565b60608301526040820151825180516102979291610292918590811061027857610278611b37565b602002602001015186858151811061020c5761020c611b37565b610fe4565b6040830152806102a681611b4d565b915050610221565b50919050565b6102df6040518060800160405280606081526020016060815260200160008152602001600081525090565b600182516102ed9190611acd565b8251161561030d5760405162461bcd60e51b81526004016100e890611ae0565b60006103198351611035565b9050806001600160401b038111156103335761033361161e565b60405190808252806020026020018201604052801561037857816020015b60408051808201909152600080825260208201528152602001906001900390816103515790505b508252806001600160401b038111156103935761039361161e565b6040519080825280602002602001820160405280156103d857816020015b60408051808201909152600080825260208201528152602001906001900390816103b15790505b5060208301526040808501519051632f2d020d60e01b815260009173__$771d09cdd8473e56977c78841e64cbd8fc$__91632f2d020d9161041b91600401611b66565b600060405180830381865af4158015610438573d6000803e3d6000fd5b505050506040513d6000823e601f3d908101601f191682016040526104609190810190611ba1565b6020860151604051632f2d020d60e01b815273__$771d09cdd8473e56977c78841e64cbd8fc$__91632f2d020d9161049b9190600401611b66565b600060405180830381865af41580156104b8573d6000803e3d6000fd5b505050506040513d6000823e601f3d908101601f191682016040526104e09190810190611ba1565b86606001516040516020016104f793929190611c34565b6040516020818303038152906040528051906020012060001c90506000610522866020015183610f55565b9050600085516001600160401b0381111561053f5761053f61161e565b604051908082528060200260200182016040528015610568578160200160208202803683370190505b509050600086516001600160401b038111156105865761058661161e565b6040519080825280602002602001820160405280156105cb57816020015b60408051808201909152600080825260208201528152602001906001900390816105a45790505b50905060005b82518110156106455760018382815181106105ee576105ee611b37565b6020908102919091010152885180518290811061060d5761060d611b37565b602002602001015182828151811061062757610627611b37565b6020026020010181905250808061063d90611b4d565b9150506105d1565b50604080518082019091526000808252602082015260408051808201909152600080825260208201526000805b8881101561081857610686858c888a61105f565b8b5180519296509094508591839081106106a2576106a2611b37565b6020026020010181905250828a6020015182815181106106c4576106c4611b37565b6020908102919091010152604051632f2d020d60e01b815273__$771d09cdd8473e56977c78841e64cbd8fc$__90632f2d020d90610706908790600401611b66565b600060405180830381865af4158015610723573d6000803e3d6000fd5b505050506040513d6000823e601f3d908101601f1916820160405261074b9190810190611ba1565b604051632f2d020d60e01b815273__$771d09cdd8473e56977c78841e64cbd8fc$__90632f2d020d90610782908790600401611b66565b600060405180830381865af415801561079f573d6000803e3d6000fd5b505050506040513d6000823e601f3d908101601f191682016040526107c79190810190611ba1565b6040516020016107d8929190611c69565b6040516020818303038152906040528051906020012060001c91506107ff858c8885611252565b909c50965094508061081081611b4d565b915050610672565b508960008151811061082c5761082c611b37565b60200260200101518960400181815250508460008151811061085057610850611b37565b6020026020010151896060018181525050505050505050505092915050565b600080610880846000015151611035565b90506000816001600160401b0381111561089c5761089c61161e565b6040519080825280602002602001820160405280156108c5578160200160208202803683370190505b5090506000826001600160401b038111156108e2576108e261161e565b60405190808252806020026020018201604052801561090b578160200160208202803683370190505b50905060008073__$771d09cdd8473e56977c78841e64cbd8fc$__632f2d020d89604001516040518263ffffffff1660e01b815260040161094c9190611b66565b600060405180830381865af4158015610969573d6000803e3d6000fd5b505050506040513d6000823e601f3d908101601f191682016040526109919190810190611ba1565b6020890151604051632f2d020d60e01b815273__$771d09cdd8473e56977c78841e64cbd8fc$__91632f2d020d916109cc9190600401611b66565b600060405180830381865af41580156109e9573d6000803e3d6000fd5b505050506040513d6000823e601f3d908101601f19168201604052610a119190810190611ba1565b8960600151604051602001610a2893929190611c34565b6040516020818303038152906040528051906020012060001c90506000610a6889604001516102928b60200151610a638d6060015187611482565b610f55565b90506001925060005b86811015610d165773__$771d09cdd8473e56977c78841e64cbd8fc$__632f2d020d8a600001518381518110610aa957610aa9611b37565b60200260200101516040518263ffffffff1660e01b8152600401610acd9190611b66565b600060405180830381865af4158015610aea573d6000803e3d6000fd5b505050506040513d6000823e601f3d908101601f19168201604052610b129190810190611ba1565b73__$771d09cdd8473e56977c78841e64cbd8fc$__632f2d020d8b602001518481518110610b4257610b42611b37565b60200260200101516040518263ffffffff1660e01b8152600401610b669190611b66565b600060405180830381865af4158015610b83573d6000803e3d6000fd5b505050506040513d6000823e601f3d908101601f19168201604052610bab9190810190611ba1565b604051602001610bbc929190611c69565b6040516020818303038152906040528051906020012060001c868281518110610be757610be7611b37565b602002602001018181525050610c15868281518110610c0857610c08611b37565b602002602001015161149d565b858281518110610c2757610c27611b37565b602002602001018181525050610c94826102928b600001518481518110610c5057610c50611b37565b6020026020010151610a638a8681518110610c6d57610c6d611b37565b60200260200101518b8781518110610c8757610c87611b37565b6020026020010151611482565b9150610cea826102928b602001518481518110610cb357610cb3611b37565b6020026020010151610a63898681518110610cd057610cd0611b37565b60200260200101518a8781518110610c8757610c87611b37565b9150610d0284868381518110610c8757610c87611b37565b935080610d0e81611b4d565b915050610a71565b506000610d418a60000151600081518110610d3357610d33611b37565b602002602001015185610f55565b905060015b8a5151811015610e03576001945060005b88811015610dc357600182821c811603610d9d57610d9686896001610d7c858e611acd565b610d869190611acd565b81518110610c8757610c87611b37565b9550610db1565b610dae86886001610d7c858e611acd565b95505b80610dbb81611b4d565b915050610d57565b50610def826102928d600001518481518110610de157610de1611b37565b602002602001015188610f55565b915080610dfb81611b4d565b915050610d46565b50610e2381610292610e198d6020015187610f55565b8c60600151610f55565b9050610e33818a60400151610f55565b9050610e3f82826114d0565b9750505050505050505b92915050565b60408051808201909152600080825260208201526000610e7d600080516020611cd783398151915284611cae565b90506000610e8c600183611acd565b91506000805b81610f3b57610ea2600185611b24565b9350600080516020611cd78339815191528485099050600080516020611cd78339815191528482099050600080516020611cd7833981519152600382089050610f1e816004610f00600080516020611cd78339815191526001611b24565b610f0a9190611cc2565b600080516020611cd78339815191526114f2565b925080600080516020611cd7833981519152848509149150610e92565b505060408051808201909152918252602082015292915050565b604080518082019091526000808252602082015281600103610f78575081610e49565b81600203610f9157610f8a8384610fe4565b9050610e49565b610f996115a6565b83518152602080850151908201526040808201849052826060836007600019fa610fc257600080fd5b5092915050565b6000600080516020611cf78339815191528284089392505050565b60408051808201909152600080825260208201526110006115c4565b83518152602080850151818301528351604080840191909152908401516060830152826080836006600019fa610fc257600080fd5b60005b600182111561105a5761104c600182611b24565b9050600182901c9150611038565b919050565b604080518082019091526000808252602082015260408051808201909152600080825260208201526000600286516110979190611cc2565b905060006110cb876000815181106110b1576110b1611b37565b6020026020010151878481518110610c8757610c87611b37565b905060006110ff8884815181106110e4576110e4611b37565b602002602001015188600081518110610c8757610c87611b37565b905060015b838110156111915761113f8361113a8b848151811061112557611125611b37565b60200260200101518b8589610d869190611b24565b610fc9565b925061117d8261113a8b6111538589611b24565b8151811061116357611163611b37565b60200260200101518b8581518110610c8757610c87611b37565b91508061118981611b4d565b915050611104565b5061119c8683610f55565b94506111a88682610f55565b935060005b83811015611245576111f1866102928c6111c78589611b24565b815181106111d7576111d7611b37565b60200260200101518c858151811061020c5761020c611b37565b9550611231856102928c848151811061120c5761120c611b37565b60200260200101518c85896112219190611b24565b8151811061020c5761020c611b37565b94508061123d81611b4d565b9150506111ad565b5050505094509492505050565b60608060606000600287516112679190611cc2565b905060006112748661149d565b9050816001600160401b0381111561128e5761128e61161e565b6040519080825280602002602001820160405280156112d357816020015b60408051808201909152600080825260208201528152602001906001900390816112ac5790505b509450816001600160401b038111156112ee576112ee61161e565b604051908082528060200260200182016040528015611317578160200160208202803683370190505b509350816001600160401b038111156113325761133261161e565b60405190808252806020026020018201604052801561135b578160200160208202803683370190505b50925060005b82811015611475576113bb61138f8b838151811061138157611381611b37565b602002602001015184610f55565b6102928c61139d8588611b24565b815181106113ad576113ad611b37565b60200260200101518a610f55565b8682815181106113cd576113cd611b37565b60200260200101819052506114006113f1888b8481518110610c8757610c87611b37565b61113a848c610d868689611b24565b85828151811061141257611412611b37565b602002602001018181525050611446611437838a8481518110610c8757610c87611b37565b61113a898b610d868689611b24565b84828151811061145857611458611b37565b60209081029190910101528061146d81611b4d565b915050611361565b5050509450945094915050565b6000600080516020611cf78339815191528284099392505050565b6000610e49826114bc6002600080516020611cf7833981519152611acd565b600080516020611cf78339815191526114f2565b805182516000911480156114eb575081602001518360200151145b9392505050565b60006114fc6115e2565b611504611600565b602080835282810181905260408301819052606083018790526080830186905260a083018590528160c0846005600019fa61153e57600080fd5b5195945050505050565b604051806080016040528060608152602001611577604051806040016040528060008152602001600081525090565b8152602001611599604051806040016040528060008152602001600081525090565b8152602001600081525090565b60405180606001604052806003906020820280368337509192915050565b60405180608001604052806004906020820280368337509192915050565b6040518060c001604052806006906020820280368337509192915050565b60405180602001604052806001906020820280368337509192915050565b634e487b7160e01b600052604160045260246000fd5b604051608081016001600160401b03811182821017156116565761165661161e565b60405290565b604051601f8201601f191681016001600160401b03811182821017156116845761168461161e565b604052919050565b60006001600160401b038211156116a5576116a561161e565b5060051b60200190565b600082601f8301126116c057600080fd5b813560206116d56116d08361168c565b61165c565b82815260059290921b840181019181810190868411156116f457600080fd5b8286015b8481101561170f57803583529183019183016116f8565b509695505050505050565b60006020828403121561172c57600080fd5b81356001600160401b0381111561174257600080fd5b61174e848285016116af565b949350505050565b600081518084526020808501945080840160005b8381101561179a5761178787835180518252602090810151910152565b604096909601959082019060010161176a565b509495945050505050565b602081526000825160c060208401526117c160e0840182611756565b905060208401516117df604085018280518252602090810151910152565b506040840151805160808501526020015160a084015260609093015160c0909201919091525090565b60006040828403121561181a57600080fd5b604051604081018181106001600160401b038211171561183c5761183c61161e565b604052823581526020928301359281019290925250919050565b600082601f83011261186757600080fd5b813560206118776116d08361168c565b82815260069290921b8401810191818101908684111561189657600080fd5b8286015b8481101561170f576118ac8882611808565b83529183019160400161189a565b600060c082840312156118cc57600080fd5b6118d4611634565b905081356001600160401b038111156118ec57600080fd5b6118f884828501611856565b8252506119088360208401611808565b602082015261191a8360608401611808565b604082015260a0820135606082015292915050565b6000806040838503121561194257600080fd5b82356001600160401b038082111561195957600080fd5b611965868387016118ba565b9350602085013591508082111561197b57600080fd5b50611988858286016116af565b9150509250929050565b6020815260008251608060208401526119ae60a0840182611756565b90506020840151601f198483030160408501526119cb8282611756565b91505060408401516060840152606084015160808401528091505092915050565b600080604083850312156119ff57600080fd5b82356001600160401b0380821115611a1657600080fd5b611a22868387016118ba565b93506020850135915080821115611a3857600080fd5b9084019060808287031215611a4c57600080fd5b611a54611634565b823582811115611a6357600080fd5b611a6f88828601611856565b825250602083013582811115611a8457600080fd5b611a9088828601611856565b60208301525060408301356040820152606083013560608201528093505050509250929050565b634e487b7160e01b600052601160045260246000fd5b81810381811115610e4957610e49611ab7565b60208082526024908201527f766563746f72206c656e6774682073686f756c64206265206120706f7765722060408201526337b3101960e11b606082015260800190565b80820180821115610e4957610e49611ab7565b634e487b7160e01b600052603260045260246000fd5b600060018201611b5f57611b5f611ab7565b5060010190565b815181526020808301519082015260408101610e49565b60005b83811015611b98578181015183820152602001611b80565b50506000910152565b600060208284031215611bb357600080fd5b81516001600160401b0380821115611bca57600080fd5b818401915084601f830112611bde57600080fd5b815181811115611bf057611bf061161e565b611c03601f8201601f191660200161165c565b9150808252856020828501011115611c1a57600080fd5b611c2b816020840160208601611b7d565b50949350505050565b60008451611c46818460208901611b7d565b845190830190611c5a818360208901611b7d565b01928352505060200192915050565b60008351611c7b818460208801611b7d565b835190830190611c8f818360208801611b7d565b01949350505050565b634e487b7160e01b600052601260045260246000fd5b600082611cbd57611cbd611c98565b500690565b600082611cd157611cd1611c98565b50049056fe30644e72e131a029b85045b68181585d97816a916871ca8d3c208c16d87cfd4730644e72e131a029b85045b68181585d2833e84879b9709143e1f593f0000001a2646970667358221220df22c8b637735d33f139c28e0b81dc0aea6014cebb01fe6275afcedff2cdd4cb64736f6c63430008130033608060405234801561001057600080fd5b50610b58806100206000396000f3fe608060405234801561001057600080fd5b50600436106100365760003560e01c8063d9502f751461003b578063ff9cfea914610063575b600080fd5b61004e6100493660046108e7565b610083565b60405190151581526020015b60405180910390f35b6100766100713660046109de565b610265565b60405161005a9190610a5d565b60008160400151518651146101055760405162461bcd60e51b815260206004820152603960248201527f4469666647656e457175616c203a2067656e657261746f7220616e642072657360448201527f706f6e7365206c656e67746820646f206e6f74206d617463680000000000000060648201526084015b60405180910390fd5b8151602080840151604080518451818501529383015190840152805160608401520151608082015260009060a0016040516020818303038152906040528051906020012060001c905060006101808460400151888151811061016957610169610acc565b60200260200101518a61056a90919063ffffffff16565b9050600061018e878461056a565b9050600061019c83836105df565b905060006040518060400160405280600081526020016000815250905060005b8b5181101561022c57610218610211896040015183815181106101e1576101e1610acc565b60200260200101518e84815181106101fb576101fb610acc565b602002602001015161056a90919063ffffffff16565b8390610601565b91508061022481610ae2565b9150506101bc565b506000610239898761056a565b9050600061024783836105df565b90508380156102535750805b9e9d5050505050505050505050505050565b61026d6106ac565b81518451146102e45760405162461bcd60e51b815260206004820152603760248201527f4469666647656e457175616c3a2067656e657261746f7220616e64207769746e60448201527f657373206c656e67746820646f206e6f74206d6174636800000000000000000060648201526084016100fc565b6000825167ffffffffffffffff81111561030057610300610735565b604051908082528060200260200182016040528015610329578160200160208202803683370190505b50905060006040518060400160405280600081526020016000815250905060005b82518110156104325773__$771d09cdd8473e56977c78841e64cbd8fc$__635ec01e4d6040518163ffffffff1660e01b8152600401602060405180830381865af415801561039c573d6000803e3d6000fd5b505050506040513d601f19601f820116820180604052508101906103c09190610b09565b8382815181106103d2576103d2610acc565b60200260200101818152505061041b6104108483815181106103f6576103f6610acc565b60200260200101518984815181106101fb576101fb610acc565b602086015190610601565b60208501528061042a81610ae2565b91505061034a565b50600061046183878151811061044a5761044a610acc565b60200260200101518961056a90919063ffffffff16565b905060008183604051602001610496929190825181526020928301518382015281516040820152910151606082015260800190565b6040516020818303038152906040528051906020012060001c905060005b8451811015610543576105146104ec838984815181106104d6576104d6610acc565b602002602001015161065290919063ffffffff16565b8683815181106104fe576104fe610acc565b602002602001015161067f90919063ffffffff16565b85828151811061052657610526610acc565b60209081029190910101528061053b81610ae2565b9150506104b4565b50506040805160608101825291825260208201929092529081019190915295945050505050565b60408051808201909152600080825260208201528160010361058d5750816105d9565b816002036105a65761059f8384610601565b90506105d9565b6105ae6106f9565b83518152602080850151908201526040808201849052826060836007600019fa6105d757600080fd5b505b92915050565b805182516000911480156105fa575081602001518360200151145b9392505050565b604080518082019091526000808252602082015261061d610717565b83518152602080850151818301528351604080840191909152908401516060830152826080836006600019fa6105d757600080fd5b60007f30644e72e131a029b85045b68181585d2833e84879b9709143e1f593f00000018284099392505050565b60007f30644e72e131a029b85045b68181585d2833e84879b9709143e1f593f00000018284089392505050565b6040805160a081019091526000606082018181526080830191909152819081526020016106ec604051806040016040528060008152602001600081525090565b8152602001606081525090565b60405180606001604052806003906020820280368337509192915050565b60405180608001604052806004906020820280368337509192915050565b634e487b7160e01b600052604160045260246000fd5b6040516060810167ffffffffffffffff8111828210171561076e5761076e610735565b60405290565b604051601f8201601f1916810167ffffffffffffffff8111828210171561079d5761079d610735565b604052919050565b6000604082840312156107b757600080fd5b6040516040810181811067ffffffffffffffff821117156107da576107da610735565b604052823581526020928301359281019290925250919050565b600067ffffffffffffffff82111561080e5761080e610735565b5060051b60200190565b600082601f83011261082957600080fd5b8135602061083e610839836107f4565b610774565b82815260069290921b8401810191818101908684111561085d57600080fd5b8286015b848110156108815761087388826107a5565b835291830191604001610861565b509695505050505050565b600082601f83011261089d57600080fd5b813560206108ad610839836107f4565b82815260059290921b840181019181810190868411156108cc57600080fd5b8286015b8481101561088157803583529183019183016108d0565b600080600080600080610120878903121561090157600080fd5b61090b88886107a5565b9550604087013567ffffffffffffffff8082111561092857600080fd5b6109348a838b01610818565b96506060890135955061094a8a60808b016107a5565b94506109598a60c08b016107a5565b935061010089013591508082111561097057600080fd5b9088019060a0828b03121561098457600080fd5b61098c61074b565b6109968b846107a5565b81526109a58b604085016107a5565b60208201526080830135828111156109bc57600080fd5b6109c88c82860161088c565b6040830152508093505050509295509295509295565b60008060008060a085870312156109f457600080fd5b6109fe86866107a5565b9350604085013567ffffffffffffffff80821115610a1b57600080fd5b610a2788838901610818565b9450606087013593506080870135915080821115610a4457600080fd5b50610a518782880161088c565b91505092959194509250565b60208082528251805183830152810151604083015260009060c0830184820151805160608601526020810151608086015250604085015160a08581015280519182905282019060009060e08601905b808310156108815783518252928401926001929092019190840190610aac565b634e487b7160e01b600052603260045260246000fd5b600060018201610b0257634e487b7160e01b600052601160045260246000fd5b5060010190565b600060208284031215610b1b57600080fd5b505191905056fea2646970667358221220ce74b8b8f74f13aaee8d1026b3b3e72e845fd6cafb26141d527f186df61bbccd64736f6c63430008130033",
    "sourcePath": "/Users/qian/Desktop/Y4/COMP4550/project/XCSwap/contracts/Mixer.sol",
    "compiler": {
        "name": "solc",
        "version": "0.8.19+commit.7dd6d404"
    },
    "functionHashes": {
        "deposit((((uint256,uint256),(uint256,uint256),(uint256,uint256)),uint256[]),uint256[3])": "fb965dc1",
        "process_dp((((uint256,uint256),(uint256,uint256),(uint256,uint256)),uint256[]),(((uint256,uint256),uint256[])))": "b7d60449",
        "spend()": "45615bcc",
        "withdraw(((uint256,uint256)[],(uint256,uint256),uint256[],address),uint256[4])": "a767730a"
    },
    "gasEstimates": {
        "creation": {
            "codeDepositCost": "1892200",
            "executionCost": "infinite",
            "totalCost": "infinite"
        },
        "external": {
            "deposit((((uint256,uint256),(uint256,uint256),(uint256,uint256)),uint256[]),uint256[3])": "infinite",
            "process_dp((((uint256,uint256),(uint256,uint256),(uint256,uint256)),uint256[]),(((uint256,uint256),uint256[])))": "infinite",
            "spend()": "154",
            "withdraw(((uint256,uint256)[],(uint256,uint256),uint256[],address),uint256[4])": "infinite"
        },
        "internal": {
            "_contains(struct alt_bn128.G1Point memory[] memory,struct alt_bn128.G1Point memory)": "infinite"
        }
    }
}