{
  "contractName": "alt_bn128",
  "abi": [
    {
      "inputs": [],
      "name": "b",
      "outputs": [
        {
          "internalType": "uint256",
          "name": "",
          "type": "uint256"
        }
      ],
      "stateMutability": "view",
      "type": "function",
      "constant": true
    },
    {
      "inputs": [],
      "name": "n",
      "outputs": [
        {
          "internalType": "uint256",
          "name": "",
          "type": "uint256"
        }
      ],
      "stateMutability": "view",
      "type": "function",
      "constant": true
    },
    {
      "inputs": [],
      "name": "q",
      "outputs": [
        {
          "internalType": "uint256",
          "name": "",
          "type": "uint256"
        }
      ],
      "stateMutability": "view",
      "type": "function",
      "constant": true
    },
    {
      "inputs": [
        {
          "components": [
            {
              "internalType": "uint256",
              "name": "X",
              "type": "uint256"
            },
            {
              "internalType": "uint256",
              "name": "Y",
              "type": "uint256"
            }
          ],
          "internalType": "struct alt_bn128.G1Point",
          "name": "p",
          "type": "tuple"
        }
      ],
      "name": "pack",
      "outputs": [
        {
          "internalType": "bytes",
          "name": "",
          "type": "bytes"
        }
      ],
      "stateMutability": "pure",
      "type": "function",
      "constant": true
    },
    {
      "inputs": [
        {
          "components": [
            {
              "internalType": "uint256",
              "name": "X",
              "type": "uint256"
            },
            {
              "internalType": "uint256",
              "name": "Y",
              "type": "uint256"
            }
          ],
          "internalType": "struct alt_bn128.G1Point[]",
          "name": "a",
          "type": "tuple[]"
        }
      ],
      "name": "packArray",
      "outputs": [
        {
          "internalType": "bytes",
          "name": "packed",
          "type": "bytes"
        }
      ],
      "stateMutability": "pure",
      "type": "function",
      "constant": true
    },
    {
      "inputs": [],
      "name": "random",
      "outputs": [
        {
          "internalType": "uint256",
          "name": "",
          "type": "uint256"
        }
      ],
      "stateMutability": "view",
      "type": "function",
      "constant": true
    },
    {
      "inputs": [
        {
          "internalType": "uint256",
          "name": "i",
          "type": "uint256"
        }
      ],
      "name": "random",
      "outputs": [
        {
          "internalType": "uint256",
          "name": "",
          "type": "uint256"
        }
      ],
      "stateMutability": "view",
      "type": "function",
      "constant": true
    }
  ],
  "bytecode": "0x61056561003a600b82828239805160001a60731461002d57634e487b7160e01b600052600060045260246000fd5b30600052607381538281f3fe73000000000000000000000000000000000000000030146080604052600436106100775760003560e01c80632e52d6061461007c5780632f2d020d146100b65780634df7e3d0146100d65780635ec01e4d146100de578063b863bd37146100e6578063ef39c190146100f9578063fd3ab2821461010c575b600080fd5b6100a37f30644e72e131a029b85045b68181585d97816a916871ca8d3c208c16d87cfd4781565b6040519081526020015b60405180910390f35b6100c96100c436600461033c565b610121565b6040516100ad9190610383565b6100a3600381565b6100a361015d565b6100a36100f43660046103b6565b6101bf565b6100c96101073660046103cf565b610224565b6100a360008051602061051083398151915281565b606081600001518260200151604051602001610147929190918252602082015260400190565b6040516020818303038152906040529050919050565b6000600080516020610510833981519152423360405160200161019792919091825260601b6001600160601b031916602082015260340190565b6040516020818303038152906040528051906020012060001c6101ba9190610481565b905090565b604080514260208201526001600160601b03193360601b169181019190915260548101829052600090600080516020610510833981519152906074016040516020818303038152906040528051906020012060001c61021e9190610481565b92915050565b60606102498260008151811061023c5761023c6104a3565b6020026020010151610121565b905060015b82518110156102a2578161026d84838151811061023c5761023c6104a3565b60405160200161027e9291906104b9565b6040516020818303038152906040529150808061029a906104e8565b91505061024e565b50919050565b634e487b7160e01b600052604160045260246000fd5b604051601f8201601f191681016001600160401b03811182821017156102e6576102e66102a8565b604052919050565b60006040828403121561030057600080fd5b604080519081016001600160401b0381118282101715610322576103226102a8565b604052823581526020928301359281019290925250919050565b60006040828403121561034e57600080fd5b61035883836102ee565b9392505050565b60005b8381101561037a578181015183820152602001610362565b50506000910152565b60208152600082518060208401526103a281604085016020870161035f565b601f01601f19169190910160400192915050565b6000602082840312156103c857600080fd5b5035919050565b600060208083850312156103e257600080fd5b82356001600160401b03808211156103f957600080fd5b818501915085601f83011261040d57600080fd5b81358181111561041f5761041f6102a8565b61042d848260051b016102be565b818152848101925060069190911b83018401908782111561044d57600080fd5b928401925b818410156104765761046488856102ee565b83528483019250604084019350610452565b979650505050505050565b60008261049e57634e487b7160e01b600052601260045260246000fd5b500690565b634e487b7160e01b600052603260045260246000fd5b600083516104cb81846020880161035f565b8351908301906104df81836020880161035f565b01949350505050565b60006001820161050857634e487b7160e01b600052601160045260246000fd5b506001019056fe30644e72e131a029b85045b68181585d2833e84879b9709143e1f593f0000001a2646970667358221220b6fb2f87d3f742f715b0fe9f3b850b6f2c07df7d206cf15e53213869cb24156b64736f6c63430008130033",
  "immutableReferences": {},
  "source": "// SPDX-License-Identifier: GPL-3.0\npragma solidity >=0.4.0 <0.9.0;\n\n/**\n * @dev arithmetic operations over elliptic curve alt_bn128\n */\nlibrary alt_bn128 {\n\n    /// @dev curve order (prime)\n    uint256 public constant q = 21888242871839275222246405745257275088548364400416034343698204186575808495617;\n    /// @dev field order (prime)\n    uint256 public constant n = 21888242871839275222246405745257275088696311157297823662689037894645226208583;\n    uint256 public constant b = 3;\n\n    // uint256 constant public ECSignMask = 0x8000000000000000000000000000000000000000000000000000000000000000;\n    // uint256 constant public BigModExponent = (n + 1)/4;\n\n    struct G1Point {\n        uint256 X;\n        uint256 Y;\n    }\n\n    /// @dev addition of 2 EC points\n    /// @param p1 a EC point\n    /// @param p2 a EC point\n    /// @return r sum of p1+p2\n    function add(G1Point memory p1, G1Point memory p2) internal view returns (G1Point memory r) {\n        uint256[4] memory input;\n        input[0] = p1.X;\n        input[1] = p1.Y;\n        input[2] = p2.X;\n        input[3] = p2.Y;\n        assembly {\n            if iszero(staticcall(not(0), 0x06, input, 0x80, r, 0x40)) {\n                revert(0, 0)\n            }\n        }\n    }\n\n    /// @dev scalar multiply an EC point\n    /// @param p EC point\n    /// @param s the scalar\n    /// @return r multipled EC point\n    function mul(G1Point memory p, uint256 s) internal view returns (G1Point memory r) {\n        if (s == 1) {\n            return p;\n        }\n        if (s == 2) {\n            return add(p, p);\n        }\n        uint256[3] memory input;\n        input[0] = p.X;\n        input[1] = p.Y;\n        input[2] = s;\n        assembly {\n            if iszero(staticcall(not(0), 0x07, input, 0x60, r, 0x40)) {\n                revert(0, 0)\n            }\n        }\n    }\n\n    function neg(G1Point memory p) internal pure returns (G1Point memory) {\n        if (p.X == 0 && p.Y == 0)\n            return G1Point(0, 0);\n        return G1Point(p.X, n - p.Y);\n        // return G1Point(p.X, n - (p.Y % n));\n    }\n\n    function eq(G1Point memory p1, G1Point memory p2) internal pure returns (bool) {\n        return p1.X == p2.X && p1.Y == p2.Y;\n    }\n\n    function add(uint256 x, uint256 y) internal pure returns (uint256) {\n        return addmod(x, y, q);\n    }\n\n    function mul(uint256 x, uint256 y) internal pure returns (uint256) {\n        return mulmod(x, y, q);\n    }\n\n    function inv(uint256 x) internal view returns (uint256) {\n        return modExp(x, q - 2, q);\n    }\n\n    function mod(uint256 x) internal pure returns (uint256) {\n        return x % q;\n    }\n\n    function sub(uint256 x, uint256 y) internal pure returns (uint256) {\n        return x >= y ? x - y : q - y + x;\n    }\n\n    function neg(uint256 x) internal pure returns (uint256) {\n        return q - x;\n    }\n\n    function modExp(uint256 base, uint256 exponent, uint256 modulus) internal view returns (uint256) {\n        uint256[6] memory input;\n        uint256[1] memory output;\n        input[0] = 0x20;  // length_of_BASE\n        input[1] = 0x20;  // length_of_EXPONENT\n        input[2] = 0x20;  // length_of_MODULUS\n        input[3] = base;\n        input[4] = exponent;\n        input[5] = modulus;\n        assembly {\n            if iszero(staticcall(not(0), 0x05, input, 0xc0, output, 0x20)) {\n                revert(0, 0)\n            }\n        }\n        return output[0];\n    }\n\n    function modExp(uint256 base, uint256 exponent) internal view returns (uint256) {\n        return modExp(base, exponent, q);\n    }\n\n    function uintToCurvePoint(uint256 x) internal view returns(G1Point memory p) {\n        uint256 seed = x % n;\n        uint256 y;\n        seed -= 1;\n        bool onCurve = false;\n        uint256 y2;\n        while(!onCurve) {\n            seed += 1;\n            y2 = mulmod(seed, seed, n);\n            y2 = mulmod(y2, seed, n);\n            y2 = addmod(y2, b, n);\n            // y2 += b;\n            y = modExp(y2, (n + 1) / 4, n);\n            onCurve = mulmod(y, y, n) == y2;\n        }\n        return G1Point(seed, y);\n    }\n\n    /** @dev pack and encode a G1Point */\n    function pack(G1Point memory p) public pure returns (bytes memory){\n      return abi.encodePacked(p.X, p.Y);\n    }\n\n    function packArray(alt_bn128.G1Point[] memory a) public pure returns (bytes memory packed) {\n        packed = pack(a[0]);\n        for (uint256 i = 1; i < a.length; i++) {\n            packed = abi.encodePacked(packed, pack(a[i]));\n        }\n    }\n\n    function random() public view returns(uint256){\n        return uint256(keccak256(abi.encodePacked(block.timestamp, msg.sender))) % q;\n    }\n    \n    function random(uint i) public view returns(uint256){\n        return uint256(keccak256(abi.encodePacked(block.timestamp, msg.sender, i))) % q;\n    }\n\n    // function random() internal view returns (uint256) {\n    //     return uint256(keccak256(abi.encodePacked(\n    //     tx.origin,\n    //     blockhash(block.number - 1),\n    //     block.timestamp\n    //     )));\n    // }\n}",
  "sourcePath": "/Users/qian/Desktop/Y4/COMP4550/project/XCSwap/contracts/lib/alt_bn128.sol",
  "compiler": {
    "name": "solc",
    "version": "0.8.19+commit.7dd6d404.Emscripten.clang"
  },
  "schemaVersion": "3.4.13",
  "updatedAt": "2023-09-01T16:52:33.566Z",
  "networkType": "ethereum",
  "devdoc": {
    "details": "arithmetic operations over elliptic curve alt_bn128",
    "kind": "dev",
    "methods": {
      "pack(alt_bn128.G1Point)": {
        "details": "pack and encode a G1Point "
      }
    },
    "stateVariables": {
      "n": {
        "details": "field order (prime)"
      },
      "q": {
        "details": "curve order (prime)"
      }
    },
    "version": 1
  },
  "userdoc": {
    "kind": "user",
    "methods": {},
    "version": 1
  }
}