{
  "contractName": "alt_bn128",
  "abi": [
    {
      "inputs": [],
      "name": "b",
      "outputs": [
        {
          "internalType": "uint256",
          "name": "",
          "type": "uint256"
        }
      ],
      "stateMutability": "view",
      "type": "function"
    },
    {
      "inputs": [],
      "name": "n",
      "outputs": [
        {
          "internalType": "uint256",
          "name": "",
          "type": "uint256"
        }
      ],
      "stateMutability": "view",
      "type": "function"
    },
    {
      "inputs": [],
      "name": "q",
      "outputs": [
        {
          "internalType": "uint256",
          "name": "",
          "type": "uint256"
        }
      ],
      "stateMutability": "view",
      "type": "function"
    },
    {
      "inputs": [
        {
          "components": [
            {
              "internalType": "uint256",
              "name": "X",
              "type": "uint256"
            },
            {
              "internalType": "uint256",
              "name": "Y",
              "type": "uint256"
            }
          ],
          "internalType": "struct alt_bn128.G1Point",
          "name": "p",
          "type": "tuple"
        }
      ],
      "name": "pack",
      "outputs": [
        {
          "internalType": "bytes",
          "name": "",
          "type": "bytes"
        }
      ],
      "stateMutability": "pure",
      "type": "function"
    },
    {
      "inputs": [
        {
          "components": [
            {
              "internalType": "uint256",
              "name": "X",
              "type": "uint256"
            },
            {
              "internalType": "uint256",
              "name": "Y",
              "type": "uint256"
            }
          ],
          "internalType": "struct alt_bn128.G1Point[]",
          "name": "a",
          "type": "tuple[]"
        }
      ],
      "name": "packArray",
      "outputs": [
        {
          "internalType": "bytes",
          "name": "packed",
          "type": "bytes"
        }
      ],
      "stateMutability": "pure",
      "type": "function"
    },
    {
      "inputs": [],
      "name": "random",
      "outputs": [
        {
          "internalType": "uint256",
          "name": "",
          "type": "uint256"
        }
      ],
      "stateMutability": "view",
      "type": "function"
    }
  ],
  "bytecode": "0x610886610053600b82828239805160001a607314610046577f4e487b7100000000000000000000000000000000000000000000000000000000600052600060045260246000fd5b30600052607381538281f3fe730000000000000000000000000000000000000000301460806040526004361061006c5760003560e01c80632e52d606146100715780632f2d020d1461008f5780634df7e3d0146100bf5780635ec01e4d146100dd578063ef39c190146100fb578063fd3ab2821461012b575b600080fd5b610079610149565b60405161008691906102d7565b60405180910390f35b6100a960048036038101906100a49190610413565b61016d565b6040516100b691906104bf565b60405180910390f35b6100c76101a0565b6040516100d491906102d7565b60405180910390f35b6100e56101a5565b6040516100f291906102d7565b60405180910390f35b610115600480360381019061011091906105ae565b610203565b60405161012291906104bf565b60405180910390f35b61013361029a565b60405161014091906102d7565b60405180910390f35b7f30644e72e131a029b85045b68181585d97816a916871ca8d3c208c16d87cfd4781565b60608160000151826020015160405160200161018a929190610618565b6040516020818303038152906040529050919050565b600381565b60007f30644e72e131a029b85045b68181585d2833e84879b9709143e1f593f000000142336040516020016101db9291906106be565b6040516020818303038152906040528051906020012060001c6101fe9190610719565b905090565b60606102298260008151811061021c5761021b61074a565b5b602002602001015161016d565b90506000600190505b8251811015610294578161025f8483815181106102525761025161074a565b5b602002602001015161016d565b6040516020016102709291906107b5565b6040516020818303038152906040529150808061028c90610808565b915050610232565b50919050565b7f30644e72e131a029b85045b68181585d2833e84879b9709143e1f593f000000181565b6000819050919050565b6102d1816102be565b82525050565b60006020820190506102ec60008301846102c8565b92915050565b6000604051905090565b600080fd5b600080fd5b600080fd5b6000601f19601f8301169050919050565b7f4e487b7100000000000000000000000000000000000000000000000000000000600052604160045260246000fd5b6103548261030b565b810181811067ffffffffffffffff821117156103735761037261031c565b5b80604052505050565b60006103866102f2565b9050610392828261034b565b919050565b6103a0816102be565b81146103ab57600080fd5b50565b6000813590506103bd81610397565b92915050565b6000604082840312156103d9576103d8610306565b5b6103e3604061037c565b905060006103f3848285016103ae565b6000830152506020610407848285016103ae565b60208301525092915050565b600060408284031215610429576104286102fc565b5b6000610437848285016103c3565b91505092915050565b600081519050919050565b600082825260208201905092915050565b60005b8381101561047a57808201518184015260208101905061045f565b60008484015250505050565b600061049182610440565b61049b818561044b565b93506104ab81856020860161045c565b6104b48161030b565b840191505092915050565b600060208201905081810360008301526104d98184610486565b905092915050565b600080fd5b600067ffffffffffffffff8211156105015761050061031c565b5b602082029050602081019050919050565b600080fd5b600061052a610525846104e6565b61037c565b9050808382526020820190506040840283018581111561054d5761054c610512565b5b835b81811015610576578061056288826103c3565b84526020840193505060408101905061054f565b5050509392505050565b600082601f830112610595576105946104e1565b5b81356105a5848260208601610517565b91505092915050565b6000602082840312156105c4576105c36102fc565b5b600082013567ffffffffffffffff8111156105e2576105e1610301565b5b6105ee84828501610580565b91505092915050565b6000819050919050565b61061261060d826102be565b6105f7565b82525050565b60006106248285610601565b6020820191506106348284610601565b6020820191508190509392505050565b600073ffffffffffffffffffffffffffffffffffffffff82169050919050565b600061066f82610644565b9050919050565b60008160601b9050919050565b600061068e82610676565b9050919050565b60006106a082610683565b9050919050565b6106b86106b382610664565b610695565b82525050565b60006106ca8285610601565b6020820191506106da82846106a7565b6014820191508190509392505050565b7f4e487b7100000000000000000000000000000000000000000000000000000000600052601260045260246000fd5b6000610724826102be565b915061072f836102be565b92508261073f5761073e6106ea565b5b828206905092915050565b7f4e487b7100000000000000000000000000000000000000000000000000000000600052603260045260246000fd5b600081905092915050565b600061078f82610440565b6107998185610779565b93506107a981856020860161045c565b80840191505092915050565b60006107c18285610784565b91506107cd8284610784565b91508190509392505050565b7f4e487b7100000000000000000000000000000000000000000000000000000000600052601160045260246000fd5b6000610813826102be565b91507fffffffffffffffffffffffffffffffffffffffffffffffffffffffffffffffff8203610845576108446107d9565b5b60018201905091905056fea26469706673582212208b6401ca5a2a95c4f8707b61230664bf4f8d694ce551f5245165ea2e08904d1364736f6c63430008130033",
  "immutableReferences": {},
  "source": "// SPDX-License-Identifier: GPL-3.0\npragma solidity >=0.4.0 <0.9.0;\n\n/**\n * @dev arithmetic operations over elliptic curve alt_bn128\n */\nlibrary alt_bn128 {\n\n    /// @dev curve order (prime)\n    uint256 public constant q = 21888242871839275222246405745257275088548364400416034343698204186575808495617;\n    /// @dev field order (prime)\n    uint256 public constant n = 21888242871839275222246405745257275088696311157297823662689037894645226208583;\n    uint256 public constant b = 3;\n\n    // uint256 constant public ECSignMask = 0x8000000000000000000000000000000000000000000000000000000000000000;\n    // uint256 constant public BigModExponent = (n + 1)/4;\n\n    struct G1Point {\n        uint256 X;\n        uint256 Y;\n    }\n\n    /// @dev addition of 2 EC points\n    /// @param p1 a EC point\n    /// @param p2 a EC point\n    /// @return r sum of p1+p2\n    function add(G1Point memory p1, G1Point memory p2) internal view returns (G1Point memory r) {\n        uint256[4] memory input;\n        input[0] = p1.X;\n        input[1] = p1.Y;\n        input[2] = p2.X;\n        input[3] = p2.Y;\n        assembly {\n            if iszero(staticcall(not(0), 0x06, input, 0x80, r, 0x40)) {\n                revert(0, 0)\n            }\n        }\n    }\n\n    /// @dev scalar multiply an EC point\n    /// @param p EC point\n    /// @param s the scalar\n    /// @return r multipled EC point\n    function mul(G1Point memory p, uint256 s) internal view returns (G1Point memory r) {\n        if (s == 1) {\n            return p;\n        }\n        if (s == 2) {\n            return add(p, p);\n        }\n        uint256[3] memory input;\n        input[0] = p.X;\n        input[1] = p.Y;\n        input[2] = s;\n        assembly {\n            if iszero(staticcall(not(0), 0x07, input, 0x60, r, 0x40)) {\n                revert(0, 0)\n            }\n        }\n    }\n\n    function neg(G1Point memory p) internal pure returns (G1Point memory) {\n        if (p.X == 0 && p.Y == 0)\n            return G1Point(0, 0);\n        return G1Point(p.X, n - p.Y);\n        // return G1Point(p.X, n - (p.Y % n));\n    }\n\n    function eq(G1Point memory p1, G1Point memory p2) internal pure returns (bool) {\n        return p1.X == p2.X && p1.Y == p2.Y;\n    }\n\n    function add(uint256 x, uint256 y) internal pure returns (uint256) {\n        return addmod(x, y, q);\n    }\n\n    function mul(uint256 x, uint256 y) internal pure returns (uint256) {\n        return mulmod(x, y, q);\n    }\n\n    function inv(uint256 x) internal view returns (uint256) {\n        return modExp(x, q - 2, q);\n    }\n\n    function mod(uint256 x) internal pure returns (uint256) {\n        return x % q;\n    }\n\n    function sub(uint256 x, uint256 y) internal pure returns (uint256) {\n        return x >= y ? x - y : q - y + x;\n    }\n\n    function neg(uint256 x) internal pure returns (uint256) {\n        return q - x;\n    }\n\n    function modExp(uint256 base, uint256 exponent, uint256 modulus) internal view returns (uint256) {\n        uint256[6] memory input;\n        uint256[1] memory output;\n        input[0] = 0x20;  // length_of_BASE\n        input[1] = 0x20;  // length_of_EXPONENT\n        input[2] = 0x20;  // length_of_MODULUS\n        input[3] = base;\n        input[4] = exponent;\n        input[5] = modulus;\n        assembly {\n            if iszero(staticcall(not(0), 0x05, input, 0xc0, output, 0x20)) {\n                revert(0, 0)\n            }\n        }\n        return output[0];\n    }\n\n    function modExp(uint256 base, uint256 exponent) internal view returns (uint256) {\n        return modExp(base, exponent, q);\n    }\n\n    function uintToCurvePoint(uint256 x) internal view returns(G1Point memory p) {\n        uint256 seed = x % n;\n        uint256 y;\n        seed -= 1;\n        bool onCurve = false;\n        uint256 y2;\n        while(!onCurve) {\n            seed += 1;\n            y2 = mulmod(seed, seed, n);\n            y2 = mulmod(y2, seed, n);\n            y2 = addmod(y2, b, n);\n            // y2 += b;\n            y = modExp(y2, (n + 1) / 4, n);\n            onCurve = mulmod(y, y, n) == y2;\n        }\n        return G1Point(seed, y);\n    }\n\n    /** @dev pack and encode a G1Point */\n    function pack(G1Point memory p) public pure returns (bytes memory){\n      return abi.encodePacked(p.X, p.Y);\n    }\n\n    function packArray(alt_bn128.G1Point[] memory a) public pure returns (bytes memory packed) {\n        packed = pack(a[0]);\n        for (uint256 i = 1; i < a.length; i++) {\n            packed = abi.encodePacked(packed, pack(a[i]));\n        }\n    }\n\n    function random() public view returns(uint256){\n        return uint256(keccak256(abi.encodePacked(block.timestamp, msg.sender))) % q;\n    }\n\n    // function random() internal view returns (uint256) {\n    //     return uint256(keccak256(abi.encodePacked(\n    //     tx.origin,\n    //     blockhash(block.number - 1),\n    //     block.timestamp\n    //     )));\n    // }\n}",
  "sourcePath": "/Users/qian/Desktop/Y4/COMP4550/project/XCSwap/contracts/lib/alt_bn128.sol",
  "compiler": {
    "name": "solc",
    "version": "0.8.19+commit.7dd6d404.Emscripten.clang"
  },
  "schemaVersion": "3.4.13",
  "updatedAt": "2023-07-13T08:51:17.586Z",
  "devdoc": {
    "details": "arithmetic operations over elliptic curve alt_bn128",
    "kind": "dev",
    "methods": {
      "pack(alt_bn128.G1Point)": {
        "details": "pack and encode a G1Point "
      }
    },
    "stateVariables": {
      "n": {
        "details": "field order (prime)"
      },
      "q": {
        "details": "curve order (prime)"
      }
    },
    "version": 1
  },
  "userdoc": {
    "kind": "user",
    "methods": {},
    "version": 1
  }
}