{
  "contractName": "DiffGenEqual",
  "abi": [
    {
      "inputs": [
        {
          "components": [
            {
              "internalType": "uint256",
              "name": "X",
              "type": "uint256"
            },
            {
              "internalType": "uint256",
              "name": "Y",
              "type": "uint256"
            }
          ],
          "internalType": "struct alt_bn128.G1Point",
          "name": "gx",
          "type": "tuple"
        },
        {
          "components": [
            {
              "internalType": "uint256",
              "name": "X",
              "type": "uint256"
            },
            {
              "internalType": "uint256",
              "name": "Y",
              "type": "uint256"
            }
          ],
          "internalType": "struct alt_bn128.G1Point[]",
          "name": "gys",
          "type": "tuple[]"
        },
        {
          "internalType": "uint256",
          "name": "x_idx",
          "type": "uint256"
        },
        {
          "internalType": "uint256[]",
          "name": "ys",
          "type": "uint256[]"
        }
      ],
      "name": "sign",
      "outputs": [
        {
          "components": [
            {
              "components": [
                {
                  "internalType": "uint256",
                  "name": "X",
                  "type": "uint256"
                },
                {
                  "internalType": "uint256",
                  "name": "Y",
                  "type": "uint256"
                }
              ],
              "internalType": "struct alt_bn128.G1Point",
              "name": "cx",
              "type": "tuple"
            },
            {
              "components": [
                {
                  "internalType": "uint256",
                  "name": "X",
                  "type": "uint256"
                },
                {
                  "internalType": "uint256",
                  "name": "Y",
                  "type": "uint256"
                }
              ],
              "internalType": "struct alt_bn128.G1Point",
              "name": "cy",
              "type": "tuple"
            },
            {
              "internalType": "uint256[]",
              "name": "zs",
              "type": "uint256[]"
            }
          ],
          "internalType": "struct DiffGenEqual.Sig",
          "name": "sig",
          "type": "tuple"
        }
      ],
      "stateMutability": "view",
      "type": "function"
    },
    {
      "inputs": [
        {
          "components": [
            {
              "internalType": "uint256",
              "name": "X",
              "type": "uint256"
            },
            {
              "internalType": "uint256",
              "name": "Y",
              "type": "uint256"
            }
          ],
          "internalType": "struct alt_bn128.G1Point",
          "name": "gx",
          "type": "tuple"
        },
        {
          "components": [
            {
              "internalType": "uint256",
              "name": "X",
              "type": "uint256"
            },
            {
              "internalType": "uint256",
              "name": "Y",
              "type": "uint256"
            }
          ],
          "internalType": "struct alt_bn128.G1Point[]",
          "name": "gys",
          "type": "tuple[]"
        },
        {
          "internalType": "uint256",
          "name": "x_idx",
          "type": "uint256"
        },
        {
          "components": [
            {
              "internalType": "uint256",
              "name": "X",
              "type": "uint256"
            },
            {
              "internalType": "uint256",
              "name": "Y",
              "type": "uint256"
            }
          ],
          "internalType": "struct alt_bn128.G1Point",
          "name": "Cx",
          "type": "tuple"
        },
        {
          "components": [
            {
              "internalType": "uint256",
              "name": "X",
              "type": "uint256"
            },
            {
              "internalType": "uint256",
              "name": "Y",
              "type": "uint256"
            }
          ],
          "internalType": "struct alt_bn128.G1Point",
          "name": "Cy",
          "type": "tuple"
        },
        {
          "components": [
            {
              "components": [
                {
                  "internalType": "uint256",
                  "name": "X",
                  "type": "uint256"
                },
                {
                  "internalType": "uint256",
                  "name": "Y",
                  "type": "uint256"
                }
              ],
              "internalType": "struct alt_bn128.G1Point",
              "name": "cx",
              "type": "tuple"
            },
            {
              "components": [
                {
                  "internalType": "uint256",
                  "name": "X",
                  "type": "uint256"
                },
                {
                  "internalType": "uint256",
                  "name": "Y",
                  "type": "uint256"
                }
              ],
              "internalType": "struct alt_bn128.G1Point",
              "name": "cy",
              "type": "tuple"
            },
            {
              "internalType": "uint256[]",
              "name": "zs",
              "type": "uint256[]"
            }
          ],
          "internalType": "struct DiffGenEqual.Sig",
          "name": "sig",
          "type": "tuple"
        }
      ],
      "name": "verify",
      "outputs": [
        {
          "internalType": "bool",
          "name": "",
          "type": "bool"
        }
      ],
      "stateMutability": "view",
      "type": "function"
    }
  ],
  "bytecode": "0x608060405234801561001057600080fd5b50610b22806100206000396000f3fe608060405234801561001057600080fd5b50600436106100365760003560e01c8063d9502f751461003b578063ff9cfea914610063575b600080fd5b61004e610049366004610871565b610083565b60405190151581526020015b60405180910390f35b610076610071366004610967565b610268565b60405161005a91906109f4565b60008160400151518651146101015760405162461bcd60e51b815260206004820152603960248201527f4469666647656e457175616c203a2067656e657261746f7220616e64207265736044820152780e0dedce6ca40d8cadccee8d040c8de40dcdee840dac2e8c6d603b1b60648201526084015b60405180910390fd5b60008260000151836020015160405160200161011e929190610a5b565b6040516020818303038152906040528051906020012060001c9050600061016b8460400151888151811061015457610154610a76565b60200260200101518a61053a90919063ffffffff16565b845190915060009061018790610181898661053a565b906105a3565b9050600061019583836105e8565b905060006040518060400160405280600081526020016000815250905060005b8b518110156102255761021161020a896040015183815181106101da576101da610a76565b60200260200101518e84815181106101f4576101f4610a76565b602002602001015161053a90919063ffffffff16565b83906105a3565b91508061021d81610a8c565b9150506101b5565b50602087015160009061023c906101818b8961053a565b9050600061024a83836105e8565b90508380156102565750805b9e9d5050505050505050505050505050565b610270610640565b81518451146102e15760405162461bcd60e51b815260206004820152603760248201527f4469666647656e457175616c3a2067656e657261746f7220616e64207769746e6044820152760cae6e640d8cadccee8d040c8de40dcdee840dac2e8c6d604b1b60648201526084016100f8565b600082516001600160401b038111156102fc576102fc6106c3565b604051908082528060200260200182016040528015610325578160200160208202803683370190505b50905060006040518060400160405280600081526020016000815250905060005b82518110156104205773__alt_bn128_____________________________635ec01e4d6040518163ffffffff1660e01b8152600401602060405180830381865af4158015610398573d6000803e3d6000fd5b505050506040513d601f19601f820116820180604052508101906103bc9190610ab3565b8382815181106103ce576103ce610a76565b60200260200101818152505061040c61020a8483815181106103f2576103f2610a76565b60200260200101518984815181106101f4576101f4610a76565b91508061041881610a8c565b915050610346565b50600061044f83878151811061043857610438610a76565b60200260200101518961053a90919063ffffffff16565b905060008183604051602001610466929190610a5b565b6040516020818303038152906040528051906020012060001c905060005b8451811015610513576104e46104bc838984815181106104a6576104a6610a76565b602002602001015161060a90919063ffffffff16565b8683815181106104ce576104ce610a76565b602002602001015161062590919063ffffffff16565b8582815181106104f6576104f6610a76565b60209081029190910101528061050b81610a8c565b915050610484565b50506040805160608101825291825260208201929092529081019190915295945050505050565b61054261066d565b8160010361055157508161059d565b8160020361056a5761056383846105a3565b905061059d565b610572610687565b83518152602080850151908201526040808201849052826060836007600019fa61059b57600080fd5b505b92915050565b6105ab61066d565b6105b36106a5565b83518152602080850151818301528351604080840191909152908401516060830152826080836006600019fa61059b57600080fd5b80518251600091148015610603575081602001518360200151145b9392505050565b6000600080516020610acd8339815191528284099392505050565b6000600080516020610acd8339815191528284089392505050565b604051806060016040528061065361066d565b815260200161066061066d565b8152602001606081525090565b604051806040016040528060008152602001600081525090565b60405180606001604052806003906020820280368337509192915050565b60405180608001604052806004906020820280368337509192915050565b634e487b7160e01b600052604160045260246000fd5b604051606081016001600160401b03811182821017156106fb576106fb6106c3565b60405290565b604051601f8201601f191681016001600160401b0381118282101715610729576107296106c3565b604052919050565b60006040828403121561074357600080fd5b604080519081016001600160401b0381118282101715610765576107656106c3565b604052823581526020928301359281019290925250919050565b60006001600160401b03821115610798576107986106c3565b5060051b60200190565b600082601f8301126107b357600080fd5b813560206107c86107c38361077f565b610701565b82815260069290921b840181019181810190868411156107e757600080fd5b8286015b8481101561080b576107fd8882610731565b8352918301916040016107eb565b509695505050505050565b600082601f83011261082757600080fd5b813560206108376107c38361077f565b82815260059290921b8401810191818101908684111561085657600080fd5b8286015b8481101561080b578035835291830191830161085a565b600080600080600080610120878903121561088b57600080fd5b6108958888610731565b955060408701356001600160401b03808211156108b157600080fd5b6108bd8a838b016107a2565b9650606089013595506108d38a60808b01610731565b94506108e28a60c08b01610731565b93506101008901359150808211156108f957600080fd5b9088019060a0828b03121561090d57600080fd5b6109156106d9565b61091f8b84610731565b815261092e8b60408501610731565b602082015260808301358281111561094557600080fd5b6109518c828601610816565b6040830152508093505050509295509295509295565b60008060008060a0858703121561097d57600080fd5b6109878686610731565b935060408501356001600160401b03808211156109a357600080fd5b6109af888389016107a2565b94506060870135935060808701359150808211156109cc57600080fd5b506109d987828801610816565b91505092959194509250565b80518252602090810151910152565b6000602080835260c08301610a0c82850186516109e5565b81850151610a1d60608601826109e5565b50604085015160a08581015280519182905282019060009060e08601905b8083101561080b5783518252928401926001929092019190840190610a3b565b60808101610a6982856109e5565b61060360408301846109e5565b634e487b7160e01b600052603260045260246000fd5b600060018201610aac57634e487b7160e01b600052601160045260246000fd5b5060010190565b600060208284031215610ac557600080fd5b505191905056fe30644e72e131a029b85045b68181585d2833e84879b9709143e1f593f0000001a264697066735822122008729c557d2c68b62416dbce34bc214c7e8e84a071a0c41961de8d23387c113064736f6c63430008130033",
  "immutableReferences": {},
  "source": "// SPDX-License-Identifier: GPL-3.0\npragma solidity >=0.7.0 <0.9.0;\n\nimport \"../lib/alt_bn128.sol\";\n\ncontract DiffGenEqual {\n\n  using alt_bn128 for uint256;\n  using alt_bn128 for alt_bn128.G1Point;\n\n  struct Sig {\n    alt_bn128.G1Point cx;\n    alt_bn128.G1Point cy;\n    uint256[] zs;\n  }\n  \n  /// @dev different generator\n  /// @param gx single generator\n  /// @param gys multi generator\n  /// @param x_idx index of witness x in y\n  /// @param ys multi generator witness \n  function sign(\n    alt_bn128.G1Point memory gx, \n    alt_bn128.G1Point[] memory gys, \n    uint256 x_idx,\n    uint256[] memory ys\n  ) public view returns (Sig memory sig) {\n\n    require(gys.length == ys.length, \"DiffGenEqual: generator and witness length do not match\");\n\n    uint256[] memory rs = new uint256[](ys.length);\n    alt_bn128.G1Point memory cy = alt_bn128.G1Point(0,0);\n\n    for (uint i = 0; i < rs.length; i++) {\n      rs[i] = alt_bn128.random();\n\n      cy = cy.add(gys[i].mul(rs[i]));\n    }\n\n    alt_bn128.G1Point memory cx = gx.mul(rs[x_idx]);\n\n    uint256 e = uint256(keccak256(abi.encode(cx, cy)));\n\n    for (uint i = 0; i < rs.length; i++) {\n      rs[i] = rs[i].add(ys[i].mul(e));\n    }\n\n    sig = Sig({\n      cx : cx,\n      cy : cy,\n      zs : rs\n    });\n  }\n\n  /// @param gx single generator\n  /// @param gys multi generator\n  /// @param x_idx index of witness x in y\n  /// @param Cx single gen commitment\n  function verify(\n    alt_bn128.G1Point memory gx, \n    alt_bn128.G1Point[] memory gys, \n    uint256 x_idx,\n    alt_bn128.G1Point memory Cx,\n    alt_bn128.G1Point memory Cy,\n    Sig memory sig\n  ) public view returns (bool) {\n    require (gys.length == sig.zs.length, \"DiffGenEqual : generator and response length do not match\");\n\n    uint256 e = uint256(keccak256(abi.encode(sig.cx, sig.cy)));\n\n    alt_bn128.G1Point memory b1L = gx.mul(sig.zs[x_idx]);\n    alt_bn128.G1Point memory b1R = Cx.mul(e).add(sig.cx);\n    bool b1 = alt_bn128.eq(b1L, b1R);\n\n    alt_bn128.G1Point memory b2L = alt_bn128.G1Point(0, 0);\n    for (uint i = 0; i < gys.length; i++) {\n      b2L = b2L.add(gys[i].mul(sig.zs[i]));\n    }\n    alt_bn128.G1Point memory b2R = Cy.mul(e).add(sig.cy);\n    bool b2 = alt_bn128.eq(b2L, b2R);\n\n    return b1 && b2;\n  }\n\n}",
  "sourcePath": "/Users/qian/Desktop/Y4/COMP4550/project/XCSwap/contracts/ZKP/DiffGenEqual.sol",
  "compiler": {
    "name": "solc",
    "version": "0.8.19+commit.7dd6d404.Emscripten.clang"
  },
  "schemaVersion": "3.4.13",
  "updatedAt": "2023-08-05T06:56:56.424Z",
  "devdoc": {
    "kind": "dev",
    "methods": {
      "sign((uint256,uint256),(uint256,uint256)[],uint256,uint256[])": {
        "details": "different generator",
        "params": {
          "gx": "single generator",
          "gys": "multi generator",
          "x_idx": "index of witness x in y",
          "ys": "multi generator witness "
        }
      },
      "verify((uint256,uint256),(uint256,uint256)[],uint256,(uint256,uint256),(uint256,uint256),((uint256,uint256),(uint256,uint256),uint256[]))": {
        "params": {
          "Cx": "single gen commitment",
          "gx": "single generator",
          "gys": "multi generator",
          "x_idx": "index of witness x in y"
        }
      }
    },
    "version": 1
  },
  "userdoc": {
    "kind": "user",
    "methods": {},
    "version": 1
  }
}