{
  "contractName": "DiffGenEqual",
  "abi": [
    {
      "inputs": [
        {
          "components": [
            {
              "internalType": "uint256",
              "name": "X",
              "type": "uint256"
            },
            {
              "internalType": "uint256",
              "name": "Y",
              "type": "uint256"
            }
          ],
          "internalType": "struct alt_bn128.G1Point",
          "name": "gx",
          "type": "tuple"
        },
        {
          "components": [
            {
              "internalType": "uint256",
              "name": "X",
              "type": "uint256"
            },
            {
              "internalType": "uint256",
              "name": "Y",
              "type": "uint256"
            }
          ],
          "internalType": "struct alt_bn128.G1Point[]",
          "name": "gys",
          "type": "tuple[]"
        },
        {
          "internalType": "uint256",
          "name": "x_idx",
          "type": "uint256"
        },
        {
          "internalType": "uint256[]",
          "name": "ys",
          "type": "uint256[]"
        }
      ],
      "name": "sign",
      "outputs": [
        {
          "components": [
            {
              "components": [
                {
                  "internalType": "uint256",
                  "name": "X",
                  "type": "uint256"
                },
                {
                  "internalType": "uint256",
                  "name": "Y",
                  "type": "uint256"
                }
              ],
              "internalType": "struct alt_bn128.G1Point",
              "name": "cx",
              "type": "tuple"
            },
            {
              "components": [
                {
                  "internalType": "uint256",
                  "name": "X",
                  "type": "uint256"
                },
                {
                  "internalType": "uint256",
                  "name": "Y",
                  "type": "uint256"
                }
              ],
              "internalType": "struct alt_bn128.G1Point",
              "name": "cy",
              "type": "tuple"
            },
            {
              "internalType": "uint256[]",
              "name": "zs",
              "type": "uint256[]"
            }
          ],
          "internalType": "struct DiffGenEqual.Sig",
          "name": "sig",
          "type": "tuple"
        }
      ],
      "stateMutability": "view",
      "type": "function",
      "constant": true
    },
    {
      "inputs": [
        {
          "components": [
            {
              "internalType": "uint256",
              "name": "X",
              "type": "uint256"
            },
            {
              "internalType": "uint256",
              "name": "Y",
              "type": "uint256"
            }
          ],
          "internalType": "struct alt_bn128.G1Point",
          "name": "gx",
          "type": "tuple"
        },
        {
          "components": [
            {
              "internalType": "uint256",
              "name": "X",
              "type": "uint256"
            },
            {
              "internalType": "uint256",
              "name": "Y",
              "type": "uint256"
            }
          ],
          "internalType": "struct alt_bn128.G1Point[]",
          "name": "gys",
          "type": "tuple[]"
        },
        {
          "internalType": "uint256",
          "name": "x_idx",
          "type": "uint256"
        },
        {
          "components": [
            {
              "internalType": "uint256",
              "name": "X",
              "type": "uint256"
            },
            {
              "internalType": "uint256",
              "name": "Y",
              "type": "uint256"
            }
          ],
          "internalType": "struct alt_bn128.G1Point",
          "name": "Cx",
          "type": "tuple"
        },
        {
          "components": [
            {
              "internalType": "uint256",
              "name": "X",
              "type": "uint256"
            },
            {
              "internalType": "uint256",
              "name": "Y",
              "type": "uint256"
            }
          ],
          "internalType": "struct alt_bn128.G1Point",
          "name": "Cy",
          "type": "tuple"
        },
        {
          "components": [
            {
              "components": [
                {
                  "internalType": "uint256",
                  "name": "X",
                  "type": "uint256"
                },
                {
                  "internalType": "uint256",
                  "name": "Y",
                  "type": "uint256"
                }
              ],
              "internalType": "struct alt_bn128.G1Point",
              "name": "cx",
              "type": "tuple"
            },
            {
              "components": [
                {
                  "internalType": "uint256",
                  "name": "X",
                  "type": "uint256"
                },
                {
                  "internalType": "uint256",
                  "name": "Y",
                  "type": "uint256"
                }
              ],
              "internalType": "struct alt_bn128.G1Point",
              "name": "cy",
              "type": "tuple"
            },
            {
              "internalType": "uint256[]",
              "name": "zs",
              "type": "uint256[]"
            }
          ],
          "internalType": "struct DiffGenEqual.Sig",
          "name": "sig",
          "type": "tuple"
        }
      ],
      "name": "verify",
      "outputs": [
        {
          "internalType": "bool",
          "name": "",
          "type": "bool"
        }
      ],
      "stateMutability": "view",
      "type": "function",
      "constant": true
    }
  ],
  "bytecode": "0x608060405234801561001057600080fd5b50610bab806100206000396000f3fe608060405234801561001057600080fd5b50600436106100365760003560e01c8063d9502f751461003b578063ff9cfea914610063575b600080fd5b61004e6100493660046108fa565b610083565b60405190151581526020015b60405180910390f35b6100766100713660046109f0565b6102f1565b60405161005a9190610a7d565b60008160400151518651146101015760405162461bcd60e51b815260206004820152603960248201527f4469666647656e457175616c203a2067656e657261746f7220616e64207265736044820152780e0dedce6ca40d8cadccee8d040c8de40dcdee840dac2e8c6d603b1b60648201526084015b60405180910390fd5b60008260000151836020015160405160200161011e929190610ae4565b6040516020818303038152906040528051906020012060001c9050600061016b8460400151888151811061015457610154610aff565b60200260200101518a6105c390919063ffffffff16565b84519091506000906101879061018189866105c3565b9061062c565b905060006101958383610671565b9050806101df5760405162461bcd60e51b8152602060048201526018602482015277111a599991d95b915c5d585b080e88188c4819985a5b195960421b60448201526064016100f8565b604080518082019091526000808252602082018190525b8b518110156102665761025261024b8960400151838151811061021b5761021b610aff565b60200260200101518e848151811061023557610235610aff565b60200260200101516105c390919063ffffffff16565b839061062c565b91508061025e81610b15565b9150506101f6565b50602087015160009061027d906101818b896105c3565b9050600061028b8383610671565b9050806102d55760405162461bcd60e51b8152602060048201526018602482015277111a599991d95b915c5d585b080e88188c8819985a5b195960421b60448201526064016100f8565b8380156102df5750805b9e9d5050505050505050505050505050565b6102f96106c9565b815184511461036a5760405162461bcd60e51b815260206004820152603760248201527f4469666647656e457175616c3a2067656e657261746f7220616e64207769746e6044820152760cae6e640d8cadccee8d040c8de40dcdee840dac2e8c6d604b1b60648201526084016100f8565b600082516001600160401b038111156103855761038561074c565b6040519080825280602002602001820160405280156103ae578160200160208202803683370190505b50905060006040518060400160405280600081526020016000815250905060005b82518110156104a95773__alt_bn128_____________________________635ec01e4d6040518163ffffffff1660e01b8152600401602060405180830381865af4158015610421573d6000803e3d6000fd5b505050506040513d601f19601f820116820180604052508101906104459190610b3c565b83828151811061045757610457610aff565b60200260200101818152505061049561024b84838151811061047b5761047b610aff565b602002602001015189848151811061023557610235610aff565b9150806104a181610b15565b9150506103cf565b5060006104d88387815181106104c1576104c1610aff565b6020026020010151896105c390919063ffffffff16565b9050600081836040516020016104ef929190610ae4565b6040516020818303038152906040528051906020012060001c905060005b845181101561059c5761056d6105458389848151811061052f5761052f610aff565b602002602001015161069390919063ffffffff16565b86838151811061055757610557610aff565b60200260200101516106ae90919063ffffffff16565b85828151811061057f5761057f610aff565b60209081029190910101528061059481610b15565b91505061050d565b50506040805160608101825291825260208201929092529081019190915295945050505050565b6105cb6106f6565b816001036105da575081610626565b816002036105f3576105ec838461062c565b9050610626565b6105fb610710565b83518152602080850151908201526040808201849052826060836007600019fa61062457600080fd5b505b92915050565b6106346106f6565b61063c61072e565b83518152602080850151818301528351604080840191909152908401516060830152826080836006600019fa61062457600080fd5b8051825160009114801561068c575081602001518360200151145b9392505050565b6000600080516020610b568339815191528284099392505050565b6000600080516020610b568339815191528284089392505050565b60405180606001604052806106dc6106f6565b81526020016106e96106f6565b8152602001606081525090565b604051806040016040528060008152602001600081525090565b60405180606001604052806003906020820280368337509192915050565b60405180608001604052806004906020820280368337509192915050565b634e487b7160e01b600052604160045260246000fd5b604051606081016001600160401b03811182821017156107845761078461074c565b60405290565b604051601f8201601f191681016001600160401b03811182821017156107b2576107b261074c565b604052919050565b6000604082840312156107cc57600080fd5b604080519081016001600160401b03811182821017156107ee576107ee61074c565b604052823581526020928301359281019290925250919050565b60006001600160401b038211156108215761082161074c565b5060051b60200190565b600082601f83011261083c57600080fd5b8135602061085161084c83610808565b61078a565b82815260069290921b8401810191818101908684111561087057600080fd5b8286015b848110156108945761088688826107ba565b835291830191604001610874565b509695505050505050565b600082601f8301126108b057600080fd5b813560206108c061084c83610808565b82815260059290921b840181019181810190868411156108df57600080fd5b8286015b8481101561089457803583529183019183016108e3565b600080600080600080610120878903121561091457600080fd5b61091e88886107ba565b955060408701356001600160401b038082111561093a57600080fd5b6109468a838b0161082b565b96506060890135955061095c8a60808b016107ba565b945061096b8a60c08b016107ba565b935061010089013591508082111561098257600080fd5b9088019060a0828b03121561099657600080fd5b61099e610762565b6109a88b846107ba565b81526109b78b604085016107ba565b60208201526080830135828111156109ce57600080fd5b6109da8c82860161089f565b6040830152508093505050509295509295509295565b60008060008060a08587031215610a0657600080fd5b610a1086866107ba565b935060408501356001600160401b0380821115610a2c57600080fd5b610a388883890161082b565b9450606087013593506080870135915080821115610a5557600080fd5b50610a628782880161089f565b91505092959194509250565b80518252602090810151910152565b6000602080835260c08301610a958285018651610a6e565b81850151610aa66060860182610a6e565b50604085015160a08581015280519182905282019060009060e08601905b808310156108945783518252928401926001929092019190840190610ac4565b60808101610af28285610a6e565b61068c6040830184610a6e565b634e487b7160e01b600052603260045260246000fd5b600060018201610b3557634e487b7160e01b600052601160045260246000fd5b5060010190565b600060208284031215610b4e57600080fd5b505191905056fe30644e72e131a029b85045b68181585d2833e84879b9709143e1f593f0000001a26469706673582212207684e9a6f2942d55bed35a671210a2ff5a8d7b7c2558ba3483209640a0e219cf64736f6c63430008130033",
  "immutableReferences": {},
  "source": "// SPDX-License-Identifier: GPL-3.0\npragma solidity >=0.7.0 <0.9.0;\n\nimport \"../lib/alt_bn128.sol\";\n\ncontract DiffGenEqual {\n\n  using alt_bn128 for uint256;\n  using alt_bn128 for alt_bn128.G1Point;\n\n  struct Sig {\n    alt_bn128.G1Point cx;\n    alt_bn128.G1Point cy;\n    uint256[] zs;\n  }\n  \n  /// @dev different generator\n  /// @param gx single generator\n  /// @param gys multi generator\n  /// @param x_idx index of witness x in y\n  /// @param ys multi generator witness \n  function sign(\n    alt_bn128.G1Point memory gx, \n    alt_bn128.G1Point[] memory gys, \n    uint256 x_idx,\n    uint256[] memory ys\n  ) public view returns (Sig memory sig) {\n\n    require(gys.length == ys.length, \"DiffGenEqual: generator and witness length do not match\");\n\n    uint256[] memory rs = new uint256[](ys.length);\n    alt_bn128.G1Point memory cy = alt_bn128.G1Point(0,0);\n\n    for (uint i = 0; i < rs.length; i++) {\n      rs[i] = alt_bn128.random();\n\n      cy = cy.add(gys[i].mul(rs[i]));\n    }\n\n    alt_bn128.G1Point memory cx = gx.mul(rs[x_idx]);\n\n    uint256 e = uint256(keccak256(abi.encode(cx, cy)));\n\n    for (uint i = 0; i < rs.length; i++) {\n      rs[i] = rs[i].add(ys[i].mul(e));\n    }\n\n    sig = Sig({\n      cx : cx,\n      cy : cy,\n      zs : rs\n    });\n  }\n\n  /// @dev verify different generator signature\n  /// @param gx single generator\n  /// @param gys multi generator\n  /// @param x_idx index of witness x in y\n  /// @param Cx single gen commitment\n  /// @param Cy multi gen commitment\n  /// @param sig DiffGenEqual signature\n  function verify(\n    alt_bn128.G1Point memory gx, \n    alt_bn128.G1Point[] memory gys, \n    uint256 x_idx,\n    alt_bn128.G1Point memory Cx,\n    alt_bn128.G1Point memory Cy,\n    Sig memory sig\n  ) public view returns (bool) {\n    require (gys.length == sig.zs.length, \"DiffGenEqual : generator and response length do not match\");\n\n    uint256 e = uint256(keccak256(abi.encode(sig.cx, sig.cy)));\n\n    alt_bn128.G1Point memory b1L = gx.mul(sig.zs[x_idx]);\n    alt_bn128.G1Point memory b1R = Cx.mul(e).add(sig.cx);\n    bool b1 = alt_bn128.eq(b1L, b1R);\n    require(b1, \"DiffGenEqual : b1 failed\");\n\n    alt_bn128.G1Point memory b2L = alt_bn128.G1Point(0, 0);\n    for (uint i = 0; i < gys.length; i++) {\n      b2L = b2L.add(gys[i].mul(sig.zs[i]));\n    }\n    alt_bn128.G1Point memory b2R = Cy.mul(e).add(sig.cy);\n    bool b2 = alt_bn128.eq(b2L, b2R);\n    require(b2, \"DiffGenEqual : b2 failed\");\n\n    return b1 && b2;\n  }\n\n}",
  "sourcePath": "/Users/qian/Desktop/Y4/COMP4550/project/XCSwap/contracts/ZKP/DiffGenEqual.sol",
  "compiler": {
    "name": "solc",
    "version": "0.8.19+commit.7dd6d404.Emscripten.clang"
  },
  "schemaVersion": "3.4.13",
  "updatedAt": "2023-08-19T10:00:12.025Z",
  "networkType": "ethereum",
  "devdoc": {
    "kind": "dev",
    "methods": {
      "sign((uint256,uint256),(uint256,uint256)[],uint256,uint256[])": {
        "details": "different generator",
        "params": {
          "gx": "single generator",
          "gys": "multi generator",
          "x_idx": "index of witness x in y",
          "ys": "multi generator witness "
        }
      },
      "verify((uint256,uint256),(uint256,uint256)[],uint256,(uint256,uint256),(uint256,uint256),((uint256,uint256),(uint256,uint256),uint256[]))": {
        "details": "verify different generator signature",
        "params": {
          "Cx": "single gen commitment",
          "Cy": "multi gen commitment",
          "gx": "single generator",
          "gys": "multi generator",
          "sig": "DiffGenEqual signature",
          "x_idx": "index of witness x in y"
        }
      }
    },
    "version": 1
  },
  "userdoc": {
    "kind": "user",
    "methods": {},
    "version": 1
  }
}