{
  "contractName": "DualRing",
  "abi": [
    {
      "inputs": [
        {
          "internalType": "uint256",
          "name": "ring_size",
          "type": "uint256"
        },
        {
          "internalType": "uint256[2]",
          "name": "skj",
          "type": "uint256[2]"
        }
      ],
      "name": "setup",
      "outputs": [
        {
          "components": [
            {
              "components": [
                {
                  "internalType": "uint256",
                  "name": "X",
                  "type": "uint256"
                },
                {
                  "internalType": "uint256",
                  "name": "Y",
                  "type": "uint256"
                }
              ],
              "internalType": "struct alt_bn128.G1Point",
              "name": "g",
              "type": "tuple"
            },
            {
              "components": [
                {
                  "internalType": "uint256",
                  "name": "X",
                  "type": "uint256"
                },
                {
                  "internalType": "uint256",
                  "name": "Y",
                  "type": "uint256"
                }
              ],
              "internalType": "struct alt_bn128.G1Point[]",
              "name": "pks",
              "type": "tuple[]"
            }
          ],
          "internalType": "struct DualRing.Param",
          "name": "pp",
          "type": "tuple"
        }
      ],
      "stateMutability": "view",
      "type": "function"
    },
    {
      "inputs": [
        {
          "components": [
            {
              "components": [
                {
                  "internalType": "uint256",
                  "name": "X",
                  "type": "uint256"
                },
                {
                  "internalType": "uint256",
                  "name": "Y",
                  "type": "uint256"
                }
              ],
              "internalType": "struct alt_bn128.G1Point",
              "name": "g",
              "type": "tuple"
            },
            {
              "components": [
                {
                  "internalType": "uint256",
                  "name": "X",
                  "type": "uint256"
                },
                {
                  "internalType": "uint256",
                  "name": "Y",
                  "type": "uint256"
                }
              ],
              "internalType": "struct alt_bn128.G1Point[]",
              "name": "pks",
              "type": "tuple[]"
            }
          ],
          "internalType": "struct DualRing.Param",
          "name": "pp",
          "type": "tuple"
        },
        {
          "internalType": "bytes",
          "name": "m",
          "type": "bytes"
        },
        {
          "internalType": "uint256[2]",
          "name": "skj",
          "type": "uint256[2]"
        }
      ],
      "name": "sign",
      "outputs": [
        {
          "components": [
            {
              "internalType": "uint256[]",
              "name": "cs",
              "type": "uint256[]"
            },
            {
              "internalType": "uint256",
              "name": "z",
              "type": "uint256"
            }
          ],
          "internalType": "struct DualRing.Sig",
          "name": "sig",
          "type": "tuple"
        },
        {
          "internalType": "uint256",
          "name": "c",
          "type": "uint256"
        },
        {
          "components": [
            {
              "internalType": "uint256",
              "name": "X",
              "type": "uint256"
            },
            {
              "internalType": "uint256",
              "name": "Y",
              "type": "uint256"
            }
          ],
          "internalType": "struct alt_bn128.G1Point",
          "name": "R",
          "type": "tuple"
        }
      ],
      "stateMutability": "view",
      "type": "function"
    },
    {
      "inputs": [
        {
          "components": [
            {
              "components": [
                {
                  "internalType": "uint256",
                  "name": "X",
                  "type": "uint256"
                },
                {
                  "internalType": "uint256",
                  "name": "Y",
                  "type": "uint256"
                }
              ],
              "internalType": "struct alt_bn128.G1Point",
              "name": "g",
              "type": "tuple"
            },
            {
              "components": [
                {
                  "internalType": "uint256",
                  "name": "X",
                  "type": "uint256"
                },
                {
                  "internalType": "uint256",
                  "name": "Y",
                  "type": "uint256"
                }
              ],
              "internalType": "struct alt_bn128.G1Point[]",
              "name": "pks",
              "type": "tuple[]"
            }
          ],
          "internalType": "struct DualRing.Param",
          "name": "pp",
          "type": "tuple"
        },
        {
          "internalType": "bytes",
          "name": "m",
          "type": "bytes"
        },
        {
          "components": [
            {
              "internalType": "uint256[]",
              "name": "cs",
              "type": "uint256[]"
            },
            {
              "internalType": "uint256",
              "name": "z",
              "type": "uint256"
            }
          ],
          "internalType": "struct DualRing.Sig",
          "name": "sig",
          "type": "tuple"
        }
      ],
      "name": "verify",
      "outputs": [
        {
          "internalType": "bool",
          "name": "",
          "type": "bool"
        }
      ],
      "stateMutability": "view",
      "type": "function"
    }
  ],
  "bytecode": "0x608060405234801561001057600080fd5b506111ef806100206000396000f3fe608060405234801561001057600080fd5b50600436106100415760003560e01c80636b7411c5146100465780639e8e957d1461006e578063f4f4b60914610090575b600080fd5b610059610054366004610cb3565b6100b0565b60405190151581526020015b60405180910390f35b61008161007c366004610e16565b610185565b60405161006593929190610e99565b6100a361009e366004610f01565b61046e565b6040516100659190610f2e565b6000806100c5856000015184602001516106a7565b90506000805b86602001515181101561016b5761012583610120896020015184815181106100f5576100f5610f96565b60200260200101518860000151858151811061011357610113610f96565b60200260200101516106a7565b61070e565b92506101578560000151828151811061014057610140610f96565b60200260200101518361075390919063ffffffff16565b91508061016381610fc2565b9150506100cb565b5061017b8587602001518461076e565b1495945050505050565b60408051808201909152606081526000602082015260006101a4610a0a565b60208681015151908501511061020c5760405162461bcd60e51b815260206004820152602260248201527f4475616c52696e673a20736563726574206b657920696e76616c696420696e646044820152610caf60f31b60648201526084015b60405180910390fd5b60008660200151516001600160401b0381111561022b5761022b610abc565b604051908082528060200260200182016040528015610254578160200160208202803683370190505b509050600073__alt_bn128_____________________________635ec01e4d6040518163ffffffff1660e01b8152600401602060405180830381865af41580156102a2573d6000803e3d6000fd5b505050506040513d601f19601f820116820180604052508101906102c69190610fdb565b90506102d68860000151826106a7565b92506000805b8960200151518110156103e257602088015181146103d05773__alt_bn128_____________________________635ec01e4d6040518163ffffffff1660e01b8152600401602060405180830381865af415801561033d573d6000803e3d6000fd5b505050506040513d601f19601f820116820180604052508101906103619190610fdb565b84828151811061037357610373610f96565b60200260200101818152505061039484828151811061014057610140610f96565b91506103cd856101208c6020015184815181106103b3576103b3610f96565b602002602001015187858151811061011357610113610f96565b94505b806103da81610fc2565b9150506102dc565b506103f2888a602001518661076e565b945060006104008683610842565b9050808489600160200201518151811061041c5761041c610f96565b6020908102919091010152875160009061044a906104439061043e9085610885565b6108a0565b8590610753565b60408051808201909152958652602086015250929994985092965092945050505050565b610476610a24565b602082015183116104d75760405162461bcd60e51b815260206004820152602560248201527f4475616c52696e673a20736563726574206b657920696e76616c696420706f7360448201526434ba34b7b760d91b6064820152608401610203565b61054c73__alt_bn128_____________________________635ec01e4d6040518163ffffffff1660e01b8152600401602060405180830381865af4158015610523573d6000803e3d6000fd5b505050506040513d601f19601f820116820180604052508101906105479190610fdb565b6108ba565b8152826001600160401b0381111561056657610566610abc565b60405190808252806020026020018201604052801561059f57816020015b61058c610a0a565b8152602001906001900390816105845790505b506020820152815181516105b2916106a7565b60208281015190840151815181106105cc576105cc610f96565b602002602001018190525060005b838110156106a0576020830151811461068e57600073__alt_bn128_____________________________635ec01e4d6040518163ffffffff1660e01b8152600401602060405180830381865af4158015610638573d6000803e3d6000fd5b505050506040513d601f19601f8201168201806040525081019061065c9190610fdb565b835190915061066b90826106a7565b8360200151838151811061068157610681610f96565b6020026020010181905250505b8061069881610fc2565b9150506105da565b5092915050565b6106af610a0a565b816001036106be575081610708565b816002036106d7576106d0838461070e565b9050610708565b6106df610a44565b83518152602080850151908201526040808201849052826060836007600019fa6106a057600080fd5b92915050565b610716610a0a565b61071e610a62565b83518152602080850151818301528351604080840191909152908401516060830152826080836006600019fa6106a057600080fd5b600060008051602061119a8339815191528284089392505050565b604051630ef39c1960e41b815260009060008051602061119a83398151915290859073__alt_bn128_____________________________9063ef39c190906107ba90889060040161100a565b600060405180830381865af41580156107d7573d6000803e3d6000fd5b505050506040513d6000823e601f3d908101601f191682016040526107ff919081019061107b565b845160208087015160405161081795949392016110f1565b6040516020818303038152906040528051906020012060001c61083a919061112b565b949350505050565b60008183101561087457826108658360008051602061119a83398151915261113f565b61086f9190611152565b61087e565b61087e828461113f565b9392505050565b600060008051602061119a8339815191528284099392505050565b60006107088260008051602061119a83398151915261113f565b6108c2610a0a565b60006108dc60008051602061117a8339815191528461112b565b905060006108eb60018361113f565b91506000805b8161099a57610901600185611152565b935060008051602061117a833981519152848509905060008051602061117a833981519152848209905060008051602061117a83398151915260038208905061097d81600461095f60008051602061117a8339815191526001611152565b6109699190611165565b60008051602061117a8339815191526109b4565b92508060008051602061117a8339815191528485091491506108f1565b505060408051808201909152918252602082015292915050565b60006109be610a80565b6109c6610a9e565b602080835282810181905260408301819052606083018790526080830186905260a083018590528160c0846005600019fa610a0057600080fd5b5195945050505050565b604051806040016040528060008152602001600081525090565b6040518060400160405280610a37610a0a565b8152602001606081525090565b60405180606001604052806003906020820280368337509192915050565b60405180608001604052806004906020820280368337509192915050565b6040518060c001604052806006906020820280368337509192915050565b60405180602001604052806001906020820280368337509192915050565b634e487b7160e01b600052604160045260246000fd5b604080519081016001600160401b0381118282101715610af457610af4610abc565b60405290565b604051601f8201601f191681016001600160401b0381118282101715610b2257610b22610abc565b604052919050565b600060408284031215610b3c57600080fd5b610b44610ad2565b9050813581526020820135602082015292915050565b60006001600160401b03821115610b7357610b73610abc565b5060051b60200190565b600060608284031215610b8f57600080fd5b610b97610ad2565b9050610ba38383610b2a565b81526040828101356001600160401b03811115610bbf57600080fd5b8301601f81018513610bd057600080fd5b80356020610be5610be083610b5a565b610afa565b82815260069290921b83018101918181019088841115610c0457600080fd5b938201935b83851015610c2a57610c1b8986610b2a565b82529385019390820190610c09565b808388015250505050505092915050565b60006001600160401b03821115610c5457610c54610abc565b50601f01601f191660200190565b600082601f830112610c7357600080fd5b8135610c81610be082610c3b565b818152846020838601011115610c9657600080fd5b816020850160208301376000918101602001919091529392505050565b600080600060608486031215610cc857600080fd5b83356001600160401b0380821115610cdf57600080fd5b610ceb87838801610b7d565b9450602091508186013581811115610d0257600080fd5b610d0e88828901610c62565b945050604086013581811115610d2357600080fd5b860160408189031215610d3557600080fd5b610d3d610ad2565b813583811115610d4c57600080fd5b82019250601f83018913610d5f57600080fd5b8235610d6d610be082610b5a565b81815260059190911b8401850190858101908b831115610d8c57600080fd5b948601945b82861015610daa57853582529486019490860190610d91565b8084525050508382013584820152809450505050509250925092565b600082601f830112610dd757600080fd5b610ddf610ad2565b806040840185811115610df157600080fd5b845b81811015610e0b578035845260209384019301610df3565b509095945050505050565b600080600060808486031215610e2b57600080fd5b83356001600160401b0380821115610e4257600080fd5b610e4e87838801610b7d565b94506020860135915080821115610e6457600080fd5b50610e7186828701610c62565b925050610e818560408601610dc6565b90509250925092565b80518252602090810151910152565b60808152600060c0820185516040608085015281815180845260e08601915060209350838301925060005b81811015610ee057835183529284019291840191600101610ec4565b50508783015160a086015291840186905250905061083a6040830184610e8a565b60008060608385031215610f1457600080fd5b82359150610f258460208501610dc6565b90509250929050565b6000602080835260808301610f468285018651610e8a565b8482015160608581015280519182905282019060009060a08601905b80831015610f8b57610f75828551610e8a565b6040820191508484019350600183019250610f62565b509695505050505050565b634e487b7160e01b600052603260045260246000fd5b634e487b7160e01b600052601160045260246000fd5b600060018201610fd457610fd4610fac565b5060010190565b600060208284031215610fed57600080fd5b5051919050565b634e487b7160e01b600052601260045260246000fd5b602080825282518282018190526000919060409081850190868401855b8281101561104a5761103a848351610e8a565b9284019290850190600101611027565b5091979650505050505050565b60005b8381101561107257818101518382015260200161105a565b50506000910152565b60006020828403121561108d57600080fd5b81516001600160401b038111156110a357600080fd5b8201601f810184136110b457600080fd5b80516110c2610be082610c3b565b8181528560208385010111156110d757600080fd5b6110e8826020830160208601611057565b95945050505050565b60008551611103818460208a01611057565b855190830190611117818360208a01611057565b019384525050602082015260400192915050565b60008261113a5761113a610ff4565b500690565b8181038181111561070857610708610fac565b8082018082111561070857610708610fac565b60008261117457611174610ff4565b50049056fe30644e72e131a029b85045b68181585d97816a916871ca8d3c208c16d87cfd4730644e72e131a029b85045b68181585d2833e84879b9709143e1f593f0000001a26469706673582212206c2dd681c4b05d7262d246dfa8efa29e2d6be0aebf4ed490c263511bda38ffad64736f6c63430008130033",
  "immutableReferences": {},
  "source": "// SPDX-License-Identifier: GPL-3.0\npragma solidity >=0.7.0 <0.9.0;\n\nimport \"../lib/alt_bn128.sol\";\n\ncontract DualRing {\n    using alt_bn128 for uint256;\n    using alt_bn128 for alt_bn128.G1Point; \n    using alt_bn128 for alt_bn128.G1Point[];\n\n    /// @param cs challenges\n    /// @param z response\n    struct Sig {\n        uint256[] cs;\n        uint256 z;\n    }\n\n    /// @param g random gen\n    /// @param pks accs\n    struct Param {\n        alt_bn128.G1Point g;\n        alt_bn128.G1Point[] pks;\n    }\n\n    // Function to generate a new private key\n    function setup(uint256 ring_size, uint256[2] memory skj) public view returns (Param memory pp) {\n        require(skj[1] < ring_size, \"DualRing: secret key invalid position\");\n        pp.g = alt_bn128.random().uintToCurvePoint();\n        pp.pks = new alt_bn128.G1Point[](ring_size);\n        pp.pks[skj[1]] = pp.g.mul(skj[0]);\n        for (uint i = 0; i < ring_size; i++) {\n            if (i != skj[1]){\n                uint256 k = alt_bn128.random();\n                pp.pks[i] = pp.g.mul(k);\n            }\n        }\n    }\n    \n    /** @dev dualring signature\n     * @param pp public parameters\n     * @param m message\n     * @param skj [sk, index]\n     * @return sig signature\n     * @return c sum_i c_i := H(m, pks, R) \n     * @return R g^r * prod_{i != j} pk_i^{c_i} \n     */\n    function sign(Param memory pp, bytes memory m, uint256[2] memory skj) \n    public view returns (Sig memory sig, uint256 c, alt_bn128.G1Point memory R) {\n        require(skj[1] < pp.pks.length, \"DualRing: secret key invalid index\");\n        uint256[] memory cs = new uint256[](pp.pks.length); // challenges\n        uint256 r = alt_bn128.random();\n        R = alt_bn128.mul(pp.g, r);\n        uint256 sum_i = 0;\n        for (uint256 i = 0; i < pp.pks.length; i++) {\n            if (i != skj[1]) {\n                cs[i] = alt_bn128.random();\n                sum_i = sum_i.add(cs[i]);\n                R = alt_bn128.add(R, alt_bn128.mul(pp.pks[i], cs[i]));\n            }\n        }\n        // Hash\n        c = H(m, pp.pks, R);\n        uint256 c_j = c.sub(sum_i);\n        cs[skj[1]] = c_j;\n        \n        uint256 z = r.add(alt_bn128.neg(skj[0].mul(c_j)));\n\n        sig = Sig({\n            cs : cs,\n            z : z\n        });\n    }\n\n    function verify(Param memory pp, bytes memory m, Sig memory sig) public view returns (bool) {\n        alt_bn128.G1Point memory R = alt_bn128.mul(pp.g, sig.z);\n        uint256 c = 0;\n\n        for (uint256 i = 0; i < pp.pks.length; i++) {\n            R = alt_bn128.add(R, alt_bn128.mul(pp.pks[i], sig.cs[i]));\n            c = c.add(sig.cs[i]);\n        }\n\n        return c == H(m, pp.pks, R);\n    }\n\n    function H(bytes memory m, alt_bn128.G1Point[] memory pks, alt_bn128.G1Point memory R) internal pure \n    returns (uint256) {\n        return uint256(keccak256(abi.encodePacked(m, pks.packArray(), R.X, R.Y))) % alt_bn128.q;\n    }\n}\n",
  "sourcePath": "/Users/qian/Desktop/Y4/COMP4550/project/XCSwap/contracts/ZKP/DualRing.sol",
  "compiler": {
    "name": "solc",
    "version": "0.8.19+commit.7dd6d404.Emscripten.clang"
  },
  "schemaVersion": "3.4.13",
  "updatedAt": "2023-10-13T18:51:33.502Z",
  "devdoc": {
    "kind": "dev",
    "methods": {
      "sign(((uint256,uint256),(uint256,uint256)[]),bytes,uint256[2])": {
        "details": "dualring signature",
        "params": {
          "m": "message",
          "pp": "public parameters",
          "skj": "[sk, index]"
        },
        "returns": {
          "R": "g^r * prod_{i != j} pk_i^{c_i} ",
          "c": "sum_i c_i := H(m, pks, R) ",
          "sig": "signature"
        }
      }
    },
    "version": 1
  },
  "userdoc": {
    "kind": "user",
    "methods": {},
    "version": 1
  }
}