{
  "contractName": "DualRing",
  "abi": [
    {
      "inputs": [
        {
          "internalType": "uint256",
          "name": "ring_size",
          "type": "uint256"
        },
        {
          "internalType": "uint256[2]",
          "name": "skj",
          "type": "uint256[2]"
        }
      ],
      "name": "setup",
      "outputs": [
        {
          "components": [
            {
              "components": [
                {
                  "internalType": "uint256",
                  "name": "X",
                  "type": "uint256"
                },
                {
                  "internalType": "uint256",
                  "name": "Y",
                  "type": "uint256"
                }
              ],
              "internalType": "struct alt_bn128.G1Point",
              "name": "g",
              "type": "tuple"
            },
            {
              "components": [
                {
                  "internalType": "uint256",
                  "name": "X",
                  "type": "uint256"
                },
                {
                  "internalType": "uint256",
                  "name": "Y",
                  "type": "uint256"
                }
              ],
              "internalType": "struct alt_bn128.G1Point[]",
              "name": "pks",
              "type": "tuple[]"
            }
          ],
          "internalType": "struct DualRing.Param",
          "name": "pp",
          "type": "tuple"
        }
      ],
      "stateMutability": "view",
      "type": "function"
    },
    {
      "inputs": [
        {
          "components": [
            {
              "components": [
                {
                  "internalType": "uint256",
                  "name": "X",
                  "type": "uint256"
                },
                {
                  "internalType": "uint256",
                  "name": "Y",
                  "type": "uint256"
                }
              ],
              "internalType": "struct alt_bn128.G1Point",
              "name": "g",
              "type": "tuple"
            },
            {
              "components": [
                {
                  "internalType": "uint256",
                  "name": "X",
                  "type": "uint256"
                },
                {
                  "internalType": "uint256",
                  "name": "Y",
                  "type": "uint256"
                }
              ],
              "internalType": "struct alt_bn128.G1Point[]",
              "name": "pks",
              "type": "tuple[]"
            }
          ],
          "internalType": "struct DualRing.Param",
          "name": "pp",
          "type": "tuple"
        },
        {
          "internalType": "string",
          "name": "m",
          "type": "string"
        },
        {
          "internalType": "uint256[2]",
          "name": "skj",
          "type": "uint256[2]"
        }
      ],
      "name": "sign",
      "outputs": [
        {
          "components": [
            {
              "internalType": "uint256[]",
              "name": "cs",
              "type": "uint256[]"
            },
            {
              "internalType": "uint256",
              "name": "z",
              "type": "uint256"
            }
          ],
          "internalType": "struct DualRing.Sig",
          "name": "sig",
          "type": "tuple"
        },
        {
          "internalType": "uint256",
          "name": "c",
          "type": "uint256"
        },
        {
          "components": [
            {
              "internalType": "uint256",
              "name": "X",
              "type": "uint256"
            },
            {
              "internalType": "uint256",
              "name": "Y",
              "type": "uint256"
            }
          ],
          "internalType": "struct alt_bn128.G1Point",
          "name": "R",
          "type": "tuple"
        }
      ],
      "stateMutability": "view",
      "type": "function"
    },
    {
      "inputs": [
        {
          "components": [
            {
              "components": [
                {
                  "internalType": "uint256",
                  "name": "X",
                  "type": "uint256"
                },
                {
                  "internalType": "uint256",
                  "name": "Y",
                  "type": "uint256"
                }
              ],
              "internalType": "struct alt_bn128.G1Point",
              "name": "g",
              "type": "tuple"
            },
            {
              "components": [
                {
                  "internalType": "uint256",
                  "name": "X",
                  "type": "uint256"
                },
                {
                  "internalType": "uint256",
                  "name": "Y",
                  "type": "uint256"
                }
              ],
              "internalType": "struct alt_bn128.G1Point[]",
              "name": "pks",
              "type": "tuple[]"
            }
          ],
          "internalType": "struct DualRing.Param",
          "name": "pp",
          "type": "tuple"
        },
        {
          "internalType": "string",
          "name": "m",
          "type": "string"
        },
        {
          "components": [
            {
              "internalType": "uint256[]",
              "name": "cs",
              "type": "uint256[]"
            },
            {
              "internalType": "uint256",
              "name": "z",
              "type": "uint256"
            }
          ],
          "internalType": "struct DualRing.Sig",
          "name": "sig",
          "type": "tuple"
        }
      ],
      "name": "verify",
      "outputs": [
        {
          "internalType": "bool",
          "name": "",
          "type": "bool"
        }
      ],
      "stateMutability": "view",
      "type": "function"
    }
  ],
  "bytecode": "0x608060405234801561001057600080fd5b50611e39806100206000396000f3fe608060405234801561001057600080fd5b50600436106100415760003560e01c80638cf63fd714610046578063b0f7e23214610078578063f4f4b609146100a8575b600080fd5b610060600480360381019061005b9190611272565b6100d8565b60405161006f93929190611436565b60405180910390f35b610092600480360381019061008d91906115a3565b610437565b60405161009f9190611665565b60405180910390f35b6100c260048036038101906100bd9190611680565b610513565b6040516100cf91906117db565b60405180910390f35b6100e0610dc7565b60006100ea610de1565b85602001515184600160028110610104576101036117fd565b5b602002015110610149576040517f08c379a0000000000000000000000000000000000000000000000000000000008152600401610140906118af565b60405180910390fd5b600086602001515167ffffffffffffffff81111561016a57610169610ecd565b5b6040519080825280602002602001820160405280156101985781602001602082028036833780820191505090505b509050600073__alt_bn128_____________________________635ec01e4d6040518163ffffffff1660e01b8152600401602060405180830381865af41580156101e6573d6000803e3d6000fd5b505050506040513d601f19601f8201168201806040525081019061020a91906118e4565b905061021a8860000151826107a7565b92506000805b8960200151518110156103685787600160028110610241576102406117fd565b5b602002015181146103555773__alt_bn128_____________________________635ec01e4d6040518163ffffffff1660e01b8152600401602060405180830381865af4158015610295573d6000803e3d6000fd5b505050506040513d601f19601f820116820180604052508101906102b991906118e4565b8482815181106102cc576102cb6117fd565b5b6020026020010181815250506103058482815181106102ee576102ed6117fd565b5b60200260200101518361085f90919063ffffffff16565b91506103528561034d8c602001518481518110610325576103246117fd565b5b60200260200101518785815181106103405761033f6117fd565b5b60200260200101516107a7565b61089b565b94505b808061036090611940565b915050610220565b50610378888a602001518661094f565b9450600061038f8287610a3b90919063ffffffff16565b90508084896001600281106103a7576103a66117fd565b5b6020020151815181106103bd576103bc6117fd565b5b60200260200101818152505060006104106104016103fc848c6000600281106103e9576103e86117fd565b5b6020020151610a9690919063ffffffff16565b610ad2565b8561085f90919063ffffffff16565b90506040518060400160405280868152602001828152509750505050505093509350939050565b60008061044c856000015184602001516107a7565b90506000805b8660200151518110156104f6576104ae836104a98960200151848151811061047d5761047c6117fd565b5b60200260200101518860000151858151811061049c5761049b6117fd565b5b60200260200101516107a7565b61089b565b92506104e1856000015182815181106104ca576104c96117fd565b5b60200260200101518361085f90919063ffffffff16565b915080806104ee90611940565b915050610452565b506105068587602001518461094f565b8114925050509392505050565b61051b610dfb565b82826001600281106105305761052f6117fd565b5b602002015110610575576040517f08c379a000000000000000000000000000000000000000000000000000000000815260040161056c906119fa565b60405180910390fd5b6105ea73__alt_bn128_____________________________635ec01e4d6040518163ffffffff1660e01b8152600401602060405180830381865af41580156105c1573d6000803e3d6000fd5b505050506040513d601f19601f820116820180604052508101906105e591906118e4565b610b07565b81600001819052508267ffffffffffffffff81111561060c5761060b610ecd565b5b60405190808252806020026020018201604052801561064557816020015b610632610de1565b81526020019060019003908161062a5790505b50816020018190525061067d82600060028110610665576106646117fd565b5b602002015182600001516107a790919063ffffffff16565b816020015183600160028110610696576106956117fd565b5b6020020151815181106106ac576106ab6117fd565b5b602002602001018190525060005b838110156107a057826001600281106106d6576106d56117fd565b5b6020020151811461078d57600073__alt_bn128_____________________________635ec01e4d6040518163ffffffff1660e01b8152600401602060405180830381865af415801561072c573d6000803e3d6000fd5b505050506040513d601f19601f8201168201806040525081019061075091906118e4565b90506107698184600001516107a790919063ffffffff16565b836020015183815181106107805761077f6117fd565b5b6020026020010181905250505b808061079890611940565b9150506106ba565b5092915050565b6107af610de1565b600182036107bf57829050610859565b600282036107d8576107d1838461089b565b9050610859565b6107e0610e1b565b8360000151816000600381106107f9576107f86117fd565b5b60200201818152505083602001518160016003811061081b5761081a6117fd565b5b6020020181815250508281600260038110610839576108386117fd565b5b6020020181815250506040826060836007600019fa61085757600080fd5b505b92915050565b60007f30644e72e131a029b85045b68181585d2833e84879b9709143e1f593f0000001806108905761088f611a1a565b5b828408905092915050565b6108a3610de1565b6108ab610e3d565b8360000151816000600481106108c4576108c36117fd565b5b6020020181815250508360200151816001600481106108e6576108e56117fd565b5b602002018181525050826000015181600260048110610908576109076117fd565b5b60200201818152505082602001518160036004811061092a576109296117fd565b5b6020020181815250506040826080836006600019fa61094857600080fd5b5092915050565b60007f30644e72e131a029b85045b68181585d2833e84879b9709143e1f593f0000001848473__alt_bn128_____________________________63ef39c19090916040518263ffffffff1660e01b81526004016109ac9190611b0e565b600060405180830381865af41580156109c9573d6000803e3d6000fd5b505050506040513d6000823e3d601f19601f820116820180604052508101906109f29190611bfb565b84600001518560200151604051602001610a0f9493929190611cf3565b6040516020818303038152906040528051906020012060001c610a329190611d39565b90509392505050565b600081831015610a815782827f30644e72e131a029b85045b68181585d2833e84879b9709143e1f593f0000001610a729190611d6a565b610a7c9190611d9e565b610a8e565b8183610a8d9190611d6a565b5b905092915050565b60007f30644e72e131a029b85045b68181585d2833e84879b9709143e1f593f000000180610ac757610ac6611a1a565b5b828409905092915050565b6000817f30644e72e131a029b85045b68181585d2833e84879b9709143e1f593f0000001610b009190611d6a565b9050919050565b610b0f610de1565b60007f30644e72e131a029b85045b68181585d97816a916871ca8d3c208c16d87cfd4783610b3d9190611d39565b90506000600182610b4e9190611d6a565b91506000805b81610ca557600184610b669190611d9e565b93507f30644e72e131a029b85045b68181585d97816a916871ca8d3c208c16d87cfd4780610b9757610b96611a1a565b5b84850990507f30644e72e131a029b85045b68181585d97816a916871ca8d3c208c16d87cfd4780610bcb57610bca611a1a565b5b84820990507f30644e72e131a029b85045b68181585d97816a916871ca8d3c208c16d87cfd4780610bff57610bfe611a1a565b5b600382089050610c6881600460017f30644e72e131a029b85045b68181585d97816a916871ca8d3c208c16d87cfd47610c389190611d9e565b610c429190611dd2565b7f30644e72e131a029b85045b68181585d97816a916871ca8d3c208c16d87cfd47610cc5565b9250807f30644e72e131a029b85045b68181585d97816a916871ca8d3c208c16d87cfd4780610c9a57610c99611a1a565b5b848509149150610b54565b604051806040016040528085815260200184815250945050505050919050565b6000610ccf610e5f565b610cd7610e81565b602082600060068110610ced57610cec6117fd565b5b602002018181525050602082600160068110610d0c57610d0b6117fd565b5b602002018181525050602082600260068110610d2b57610d2a6117fd565b5b6020020181815250508582600360068110610d4957610d486117fd565b5b6020020181815250508482600460068110610d6757610d666117fd565b5b6020020181815250508382600560068110610d8557610d846117fd565b5b60200201818152505060208160c0846005600019fa610da357600080fd5b80600060018110610db757610db66117fd565b5b6020020151925050509392505050565b604051806040016040528060608152602001600081525090565b604051806040016040528060008152602001600081525090565b6040518060400160405280610e0e610de1565b8152602001606081525090565b6040518060600160405280600390602082028036833780820191505090505090565b6040518060800160405280600490602082028036833780820191505090505090565b6040518060c00160405280600690602082028036833780820191505090505090565b6040518060200160405280600190602082028036833780820191505090505090565b6000604051905090565b600080fd5b600080fd5b600080fd5b6000601f19601f8301169050919050565b7f4e487b7100000000000000000000000000000000000000000000000000000000600052604160045260246000fd5b610f0582610ebc565b810181811067ffffffffffffffff82111715610f2457610f23610ecd565b5b80604052505050565b6000610f37610ea3565b9050610f438282610efc565b919050565b600080fd5b6000819050919050565b610f6081610f4d565b8114610f6b57600080fd5b50565b600081359050610f7d81610f57565b92915050565b600060408284031215610f9957610f98610eb7565b5b610fa36040610f2d565b90506000610fb384828501610f6e565b6000830152506020610fc784828501610f6e565b60208301525092915050565b600080fd5b600067ffffffffffffffff821115610ff357610ff2610ecd565b5b602082029050602081019050919050565b600080fd5b600061101c61101784610fd8565b610f2d565b9050808382526020820190506040840283018581111561103f5761103e611004565b5b835b8181101561106857806110548882610f83565b845260208401935050604081019050611041565b5050509392505050565b600082601f83011261108757611086610fd3565b5b8135611097848260208601611009565b91505092915050565b6000606082840312156110b6576110b5610eb7565b5b6110c06040610f2d565b905060006110d084828501610f83565b600083015250604082013567ffffffffffffffff8111156110f4576110f3610f48565b5b61110084828501611072565b60208301525092915050565b600080fd5b600067ffffffffffffffff82111561112c5761112b610ecd565b5b61113582610ebc565b9050602081019050919050565b82818337600083830152505050565b600061116461115f84611111565b610f2d565b9050828152602081018484840111156111805761117f61110c565b5b61118b848285611142565b509392505050565b600082601f8301126111a8576111a7610fd3565b5b81356111b8848260208601611151565b91505092915050565b600067ffffffffffffffff8211156111dc576111db610ecd565b5b602082029050919050565b60006111fa6111f5846111c1565b610f2d565b9050806020840283018581111561121457611213611004565b5b835b8181101561123d57806112298882610f6e565b845260208401935050602081019050611216565b5050509392505050565b600082601f83011261125c5761125b610fd3565b5b60026112698482856111e7565b91505092915050565b60008060006080848603121561128b5761128a610ead565b5b600084013567ffffffffffffffff8111156112a9576112a8610eb2565b5b6112b5868287016110a0565b935050602084013567ffffffffffffffff8111156112d6576112d5610eb2565b5b6112e286828701611193565b92505060406112f386828701611247565b9150509250925092565b600081519050919050565b600082825260208201905092915050565b6000819050602082019050919050565b61133281610f4d565b82525050565b60006113448383611329565b60208301905092915050565b6000602082019050919050565b6000611368826112fd565b6113728185611308565b935061137d83611319565b8060005b838110156113ae5781516113958882611338565b97506113a083611350565b925050600181019050611381565b5085935050505092915050565b600060408301600083015184820360008601526113d8828261135d565b91505060208301516113ed6020860182611329565b508091505092915050565b61140181610f4d565b82525050565b60408201600082015161141d6000850182611329565b5060208201516114306020850182611329565b50505050565b6000608082019050818103600083015261145081866113bb565b905061145f60208301856113f8565b61146c6040830184611407565b949350505050565b600067ffffffffffffffff82111561148f5761148e610ecd565b5b602082029050602081019050919050565b60006114b36114ae84611474565b610f2d565b905080838252602082019050602084028301858111156114d6576114d5611004565b5b835b818110156114ff57806114eb8882610f6e565b8452602084019350506020810190506114d8565b5050509392505050565b600082601f83011261151e5761151d610fd3565b5b813561152e8482602086016114a0565b91505092915050565b60006040828403121561154d5761154c610eb7565b5b6115576040610f2d565b9050600082013567ffffffffffffffff81111561157757611576610f48565b5b61158384828501611509565b600083015250602061159784828501610f6e565b60208301525092915050565b6000806000606084860312156115bc576115bb610ead565b5b600084013567ffffffffffffffff8111156115da576115d9610eb2565b5b6115e6868287016110a0565b935050602084013567ffffffffffffffff81111561160757611606610eb2565b5b61161386828701611193565b925050604084013567ffffffffffffffff81111561163457611633610eb2565b5b61164086828701611537565b9150509250925092565b60008115159050919050565b61165f8161164a565b82525050565b600060208201905061167a6000830184611656565b92915050565b6000806060838503121561169757611696610ead565b5b60006116a585828601610f6e565b92505060206116b685828601611247565b9150509250929050565b6040820160008201516116d66000850182611329565b5060208201516116e96020850182611329565b50505050565b600081519050919050565b600082825260208201905092915050565b6000819050602082019050919050565b600061172783836116c0565b60408301905092915050565b6000602082019050919050565b600061174b826116ef565b61175581856116fa565b93506117608361170b565b8060005b83811015611791578151611778888261171b565b975061178383611733565b925050600181019050611764565b5085935050505092915050565b60006060830160008301516117b660008601826116c0565b50602083015184820360408601526117ce8282611740565b9150508091505092915050565b600060208201905081810360008301526117f5818461179e565b905092915050565b7f4e487b7100000000000000000000000000000000000000000000000000000000600052603260045260246000fd5b600082825260208201905092915050565b7f4475616c52696e673a20736563726574206b657920696e76616c696420696e6460008201527f6578000000000000000000000000000000000000000000000000000000000000602082015250565b600061189960228361182c565b91506118a48261183d565b604082019050919050565b600060208201905081810360008301526118c88161188c565b9050919050565b6000815190506118de81610f57565b92915050565b6000602082840312156118fa576118f9610ead565b5b6000611908848285016118cf565b91505092915050565b7f4e487b7100000000000000000000000000000000000000000000000000000000600052601160045260246000fd5b600061194b82610f4d565b91507fffffffffffffffffffffffffffffffffffffffffffffffffffffffffffffffff820361197d5761197c611911565b5b600182019050919050565b7f4475616c52696e673a20736563726574206b657920696e76616c696420706f7360008201527f6974696f6e000000000000000000000000000000000000000000000000000000602082015250565b60006119e460258361182c565b91506119ef82611988565b604082019050919050565b60006020820190508181036000830152611a13816119d7565b9050919050565b7f4e487b7100000000000000000000000000000000000000000000000000000000600052601260045260246000fd5b600082825260208201905092915050565b611a6381610f4d565b82525050565b604082016000820151611a7f6000850182611a5a565b506020820151611a926020850182611a5a565b50505050565b6000611aa48383611a69565b60408301905092915050565b6000611abb826116ef565b611ac58185611a49565b9350611ad08361170b565b8060005b83811015611b01578151611ae88882611a98565b9750611af383611733565b925050600181019050611ad4565b5085935050505092915050565b60006020820190508181036000830152611b288184611ab0565b905092915050565b600067ffffffffffffffff821115611b4b57611b4a610ecd565b5b611b5482610ebc565b9050602081019050919050565b60005b83811015611b7f578082015181840152602081019050611b64565b60008484015250505050565b6000611b9e611b9984611b30565b610f2d565b905082815260208101848484011115611bba57611bb961110c565b5b611bc5848285611b61565b509392505050565b600082601f830112611be257611be1610fd3565b5b8151611bf2848260208601611b8b565b91505092915050565b600060208284031215611c1157611c10610ead565b5b600082015167ffffffffffffffff811115611c2f57611c2e610eb2565b5b611c3b84828501611bcd565b91505092915050565b600081519050919050565b600081905092915050565b6000611c6582611c44565b611c6f8185611c4f565b9350611c7f818560208601611b61565b80840191505092915050565b600081519050919050565b600081905092915050565b6000611cac82611c8b565b611cb68185611c96565b9350611cc6818560208601611b61565b80840191505092915050565b6000819050919050565b611ced611ce882610f4d565b611cd2565b82525050565b6000611cff8287611c5a565b9150611d0b8286611ca1565b9150611d178285611cdc565b602082019150611d278284611cdc565b60208201915081905095945050505050565b6000611d4482610f4d565b9150611d4f83610f4d565b925082611d5f57611d5e611a1a565b5b828206905092915050565b6000611d7582610f4d565b9150611d8083610f4d565b9250828203905081811115611d9857611d97611911565b5b92915050565b6000611da982610f4d565b9150611db483610f4d565b9250828201905080821115611dcc57611dcb611911565b5b92915050565b6000611ddd82610f4d565b9150611de883610f4d565b925082611df857611df7611a1a565b5b82820490509291505056fea2646970667358221220768f4e7102502d7d739aea346f01109dcf1d36a61776a305db984fb8bd9000b364736f6c63430008130033",
  "immutableReferences": {},
  "source": "// SPDX-License-Identifier: GPL-3.0\npragma solidity >=0.7.0 <0.9.0;\n\nimport \"../lib/alt_bn128.sol\";\n\ncontract DualRing {\n    using alt_bn128 for uint256;\n    using alt_bn128 for alt_bn128.G1Point; \n    using alt_bn128 for alt_bn128.G1Point[];\n\n    /// @param cs challenges\n    /// @param z response\n    struct Sig {\n        uint256[] cs;\n        uint256 z;\n    }\n\n    /// @param g random gen\n    /// @param pks accs\n    struct Param {\n        alt_bn128.G1Point g;\n        alt_bn128.G1Point[] pks;\n    }\n\n    // Function to generate a new private key\n    function setup(uint256 ring_size, uint256[2] memory skj) public view returns (Param memory pp) {\n        require(skj[1] < ring_size, \"DualRing: secret key invalid position\");\n        pp.g = alt_bn128.random().uintToCurvePoint();\n        pp.pks = new alt_bn128.G1Point[](ring_size);\n        pp.pks[skj[1]] = pp.g.mul(skj[0]);\n        for (uint i = 0; i < ring_size; i++) {\n            if (i != skj[1]){\n                uint256 k = alt_bn128.random();\n                pp.pks[i] = pp.g.mul(k);\n            }\n        }\n    }\n    \n    /** @dev dualring signature\n     * @param pp public parameters\n     * @param m message\n     * @param skj [sk, index]\n     * @return sig signature\n     * @return c sum_i c_i := H(m, pks, R) \n     * @return R g^r * prod_{i != j} pk_i^{c_i} \n     */\n    function sign(Param memory pp, string memory m, uint256[2] memory skj) \n    public view returns (Sig memory sig, uint256 c, alt_bn128.G1Point memory R) {\n        require(skj[1] < pp.pks.length, \"DualRing: secret key invalid index\");\n        uint256[] memory cs = new uint256[](pp.pks.length);\n        uint256 r = alt_bn128.random();\n        R = alt_bn128.mul(pp.g, r);\n        uint256 sum_i = 0;\n        for (uint256 i = 0; i < pp.pks.length; i++) {\n            if (i != skj[1]) {\n                cs[i] = alt_bn128.random();\n                sum_i = sum_i.add(cs[i]);\n                R = alt_bn128.add(R, alt_bn128.mul(pp.pks[i], cs[i]));\n            }\n        }\n        // Hash\n        c = H(m, pp.pks, R);\n        uint256 c_j = c.sub(sum_i);\n        cs[skj[1]] = c_j;\n        \n        uint256 z = r.add(alt_bn128.neg(skj[0].mul(c_j)));\n\n        sig = Sig({\n            cs : cs,\n            z : z\n        });\n    }\n\n    function verify(Param memory pp, string memory m, Sig memory sig) public view returns (bool) {\n        alt_bn128.G1Point memory R = alt_bn128.mul(pp.g, sig.z);\n        uint256 c = 0;\n\n        for (uint256 i = 0; i < pp.pks.length; i++) {\n            R = alt_bn128.add(R, alt_bn128.mul(pp.pks[i], sig.cs[i]));\n            c = c.add(sig.cs[i]);\n        }\n\n        return c == H(m, pp.pks, R);\n    }\n\n    function H(string memory m, alt_bn128.G1Point[] memory pks, alt_bn128.G1Point memory R) internal pure \n    returns (uint256) {\n        return uint256(keccak256(abi.encodePacked(m, pks.packArray(), R.X, R.Y))) % alt_bn128.q;\n    }\n}\n",
  "sourcePath": "/Users/qian/Desktop/Y4/COMP4550/project/XCSwap/contracts/ZKP/DualRing.sol",
  "compiler": {
    "name": "solc",
    "version": "0.8.19+commit.7dd6d404.Emscripten.clang"
  },
  "schemaVersion": "3.4.13",
  "updatedAt": "2023-07-13T08:51:17.529Z",
  "devdoc": {
    "kind": "dev",
    "methods": {
      "sign(((uint256,uint256),(uint256,uint256)[]),string,uint256[2])": {
        "details": "dualring signature",
        "params": {
          "m": "message",
          "pp": "public parameters",
          "skj": "[sk, index]"
        },
        "returns": {
          "R": "g^r * prod_{i != j} pk_i^{c_i} ",
          "c": "sum_i c_i := H(m, pks, R) ",
          "sig": "signature"
        }
      }
    },
    "version": 1
  },
  "userdoc": {
    "kind": "user",
    "methods": {},
    "version": 1
  }
}