{
  "contractName": "DualRingEcc",
  "abi": [
    {
      "inputs": [
        {
          "internalType": "uint256",
          "name": "",
          "type": "uint256"
        }
      ],
      "name": "sks",
      "outputs": [
        {
          "internalType": "uint256",
          "name": "",
          "type": "uint256"
        }
      ],
      "stateMutability": "view",
      "type": "function"
    },
    {
      "inputs": [
        {
          "internalType": "uint256",
          "name": "_ring_size",
          "type": "uint256"
        }
      ],
      "name": "generateKeys",
      "outputs": [],
      "stateMutability": "nonpayable",
      "type": "function"
    },
    {
      "inputs": [
        {
          "internalType": "string",
          "name": "_message",
          "type": "string"
        },
        {
          "internalType": "uint256",
          "name": "_privateKeyIndex",
          "type": "uint256"
        }
      ],
      "name": "basic_sign",
      "outputs": [
        {
          "components": [
            {
              "internalType": "uint256[]",
              "name": "c",
              "type": "uint256[]"
            },
            {
              "internalType": "uint256",
              "name": "z",
              "type": "uint256"
            },
            {
              "internalType": "uint256",
              "name": "sum",
              "type": "uint256"
            },
            {
              "components": [
                {
                  "internalType": "uint256",
                  "name": "X",
                  "type": "uint256"
                },
                {
                  "internalType": "uint256",
                  "name": "Y",
                  "type": "uint256"
                }
              ],
              "internalType": "struct alt_bn128.G1Point",
              "name": "R",
              "type": "tuple"
            },
            {
              "components": [
                {
                  "internalType": "uint256",
                  "name": "X",
                  "type": "uint256"
                },
                {
                  "internalType": "uint256",
                  "name": "Y",
                  "type": "uint256"
                }
              ],
              "internalType": "struct alt_bn128.G1Point[]",
              "name": "Gs",
              "type": "tuple[]"
            }
          ],
          "internalType": "struct DualRingEcc.Signature",
          "name": "",
          "type": "tuple"
        }
      ],
      "stateMutability": "view",
      "type": "function"
    },
    {
      "inputs": [
        {
          "internalType": "string",
          "name": "_message",
          "type": "string"
        },
        {
          "components": [
            {
              "internalType": "uint256[]",
              "name": "c",
              "type": "uint256[]"
            },
            {
              "internalType": "uint256",
              "name": "z",
              "type": "uint256"
            },
            {
              "internalType": "uint256",
              "name": "sum",
              "type": "uint256"
            },
            {
              "components": [
                {
                  "internalType": "uint256",
                  "name": "X",
                  "type": "uint256"
                },
                {
                  "internalType": "uint256",
                  "name": "Y",
                  "type": "uint256"
                }
              ],
              "internalType": "struct alt_bn128.G1Point",
              "name": "R",
              "type": "tuple"
            },
            {
              "components": [
                {
                  "internalType": "uint256",
                  "name": "X",
                  "type": "uint256"
                },
                {
                  "internalType": "uint256",
                  "name": "Y",
                  "type": "uint256"
                }
              ],
              "internalType": "struct alt_bn128.G1Point[]",
              "name": "Gs",
              "type": "tuple[]"
            }
          ],
          "internalType": "struct DualRingEcc.Signature",
          "name": "sig",
          "type": "tuple"
        }
      ],
      "name": "basic_verify",
      "outputs": [
        {
          "internalType": "bool",
          "name": "",
          "type": "bool"
        }
      ],
      "stateMutability": "view",
      "type": "function"
    }
  ],
  "bytecode": "0x608060405234801561001057600080fd5b50611ab1806100206000396000f3fe608060405234801561001057600080fd5b506004361061004c5760003560e01c8063101ae41c146100515780631a68fb5014610081578063255630511461009d578063473fd5e1146100cd575b600080fd5b61006b60048036038101906100669190611082565b6100fd565b60405161007891906112f7565b60405180910390f35b61009b60048036038101906100969190611319565b6105b0565b005b6100b760048036038101906100b29190611319565b6106a0565b6040516100c49190611355565b60405180910390f35b6100e760048036038101906100e29190611619565b6106c4565b6040516100f491906116ac565b60405180910390f35b610105610e1b565b600380549050821061014c576040517f08c379a00000000000000000000000000000000000000000000000000000000081526004016101439061174a565b60405180910390fd5b60007f30644e72e131a029b85045b68181585d2833e84879b9709143e1f593f000000142604051602001610180919061178b565b6040516020818303038152906040528051906020012060001c6101a391906117d5565b905060006101d1600060405180604001604052908160008201548152602001600182015481525050836108cb565b9050600060038054905067ffffffffffffffff8111156101f4576101f3610f21565b5b6040519080825280602002602001820160405280156102225781602001602082028036833780820191505090505b5090506000805b60038054905081101561036857868114610355577f30644e72e131a029b85045b68181585d2833e84879b9709143e1f593f0000001600a4283604051602001610273929190611806565b6040516020818303038152906040528051906020012060001c901c61029891906117d5565b8382815181106102ab576102aa611832565b5b6020026020010181815250508281815181106102ca576102c9611832565b5b6020026020010151826102dd9190611890565b91506000610345600283815481106102f8576102f7611832565b5b90600052602060002090600202016040518060400160405290816000820154815260200160018201548152505085848151811061033857610337611832565b5b60200260200101516108cb565b90506103518582610983565b9450505b8080610360906118c4565b915050610229565b5060008780519060200120905060007f30644e72e131a029b85045b68181585d2833e84879b9709143e1f593f000000160048361040f6002805480602002602001604051908101604052809291908181526020016000905b82821015610406578382906000526020600020906002020160405180604001604052908160008201548152602001600182015481525050815260200190600101906103c0565b50505050610a37565b8860000151896020015160405160200161042c94939291906119a8565b6040516020818303038152906040528051906020012060001c901c61045191906117d5565b90506104658161046085610aea565b610b1f565b84898151811061047857610477611832565b5b60200260200101818152505060007f30644e72e131a029b85045b68181585d2833e84879b9709143e1f593f0000001806104b5576104b46117a6565b5b858a815181106104c8576104c7611832565b5b602002602001015160038b815481106104e4576104e3611832565b5b906000526020600020015409905060006105068861050184610aea565b610b1f565b905060006040518060a001604052808881526020018381526020018581526020018981526020016002805480602002602001604051908101604052809291908181526020016000905b828210156105955783829060005260206000209060020201604051806040016040529081600082015481526020016001820154815250508152602001906001019061054f565b50505050815250905080995050505050505050505092915050565b6105ba6001610b5b565b60008082015181600001556020820151816001015590505060005b8181101561069c5760006001826105ec9190611890565b905060038190806001815401808255809150506001900390600052602060002001600090919091909150556000610643600060405180604001604052908160008201548152602001600182015481525050836108cb565b905060028190806001815401808255809150506001900390600052602060002090600202016000909190919091506000820151816000015560208201518160010155505050508080610694906118c4565b9150506105d5565b5050565b600381815481106106b057600080fd5b906000526020600020016000915090505481565b600080600090506000836000015190506000846020015190506000610709600060405180604001604052908160008201548152602001600182015481525050836108cb565b905060005b8660800151518110156107cf577f30644e72e131a029b85045b68181585d2833e84879b9709143e1f593f00000018061074a576107496117a6565b5b84828151811061075d5761075c611832565b5b60200260200101518608945060006107ad8860800151838151811061078557610784611832565b5b60200260200101518684815181106107a05761079f611832565b5b60200260200101516108cb565b90506107b98184610983565b92505080806107c7906118c4565b91505061070e565b5060008780519060200120905060007f30644e72e131a029b85045b68181585d2833e84879b9709143e1f593f00000016004836108766002805480602002602001604051908101604052809291908181526020016000905b8282101561086d57838290600052602060002090600202016040518060400160405290816000820154815260200160018201548152505081526020019060010190610827565b50505050610a37565b8660000151876020015160405160200161089394939291906119a8565b6040516020818303038152906040528051906020012060001c901c6108b891906117d5565b9050858114965050505050505092915050565b6108d3610e50565b600182036108e35782905061097d565b600282036108fc576108f58384610983565b905061097d565b610904610e6a565b83600001518160006003811061091d5761091c611832565b5b60200201818152505083602001518160016003811061093f5761093e611832565b5b602002018181525050828160026003811061095d5761095c611832565b5b6020020181815250506040826060836007600019fa61097b57600080fd5b505b92915050565b61098b610e50565b610993610e8c565b8360000151816000600481106109ac576109ab611832565b5b6020020181815250508360200151816001600481106109ce576109cd611832565b5b6020020181815250508260000151816002600481106109f0576109ef611832565b5b602002018181525050826020015181600360048110610a1257610a11611832565b5b6020020181815250506040826080836006600019fa610a3057600080fd5b5092915050565b60608060005b8351811015610ae0576000848281518110610a5b57610a5a611832565b5b602002602001015160000151858381518110610a7a57610a79611832565b5b602002602001015160200151604051602001610a97929190611806565b60405160208183030381529060405290508281604051602001610abb9291906119f2565b6040516020818303038152906040529250508080610ad8906118c4565b915050610a3d565b5080915050919050565b6000817f30644e72e131a029b85045b68181585d2833e84879b9709143e1f593f0000001610b189190611a16565b9050919050565b60007f30644e72e131a029b85045b68181585d2833e84879b9709143e1f593f000000180610b5057610b4f6117a6565b5b828408905092915050565b610b63610e50565b60007f30644e72e131a029b85045b68181585d97816a916871ca8d3c208c16d87cfd4783610b9191906117d5565b90506000600182610ba29190611a16565b91506000805b81610cf957600184610bba9190611890565b93507f30644e72e131a029b85045b68181585d97816a916871ca8d3c208c16d87cfd4780610beb57610bea6117a6565b5b84850990507f30644e72e131a029b85045b68181585d97816a916871ca8d3c208c16d87cfd4780610c1f57610c1e6117a6565b5b84820990507f30644e72e131a029b85045b68181585d97816a916871ca8d3c208c16d87cfd4780610c5357610c526117a6565b5b600382089050610cbc81600460017f30644e72e131a029b85045b68181585d97816a916871ca8d3c208c16d87cfd47610c8c9190611890565b610c969190611a4a565b7f30644e72e131a029b85045b68181585d97816a916871ca8d3c208c16d87cfd47610d19565b9250807f30644e72e131a029b85045b68181585d97816a916871ca8d3c208c16d87cfd4780610cee57610ced6117a6565b5b848509149150610ba8565b604051806040016040528085815260200184815250945050505050919050565b6000610d23610eae565b610d2b610ed0565b602082600060068110610d4157610d40611832565b5b602002018181525050602082600160068110610d6057610d5f611832565b5b602002018181525050602082600260068110610d7f57610d7e611832565b5b6020020181815250508582600360068110610d9d57610d9c611832565b5b6020020181815250508482600460068110610dbb57610dba611832565b5b6020020181815250508382600560068110610dd957610dd8611832565b5b60200201818152505060208160c0846005600019fa610df757600080fd5b80600060018110610e0b57610e0a611832565b5b6020020151925050509392505050565b6040518060a00160405280606081526020016000815260200160008152602001610e43610e50565b8152602001606081525090565b604051806040016040528060008152602001600081525090565b6040518060600160405280600390602082028036833780820191505090505090565b6040518060800160405280600490602082028036833780820191505090505090565b6040518060c00160405280600690602082028036833780820191505090505090565b6040518060200160405280600190602082028036833780820191505090505090565b6000604051905090565b600080fd5b600080fd5b600080fd5b600080fd5b6000601f19601f8301169050919050565b7f4e487b7100000000000000000000000000000000000000000000000000000000600052604160045260246000fd5b610f5982610f10565b810181811067ffffffffffffffff82111715610f7857610f77610f21565b5b80604052505050565b6000610f8b610ef2565b9050610f978282610f50565b919050565b600067ffffffffffffffff821115610fb757610fb6610f21565b5b610fc082610f10565b9050602081019050919050565b82818337600083830152505050565b6000610fef610fea84610f9c565b610f81565b90508281526020810184848401111561100b5761100a610f0b565b5b611016848285610fcd565b509392505050565b600082601f83011261103357611032610f06565b5b8135611043848260208601610fdc565b91505092915050565b6000819050919050565b61105f8161104c565b811461106a57600080fd5b50565b60008135905061107c81611056565b92915050565b6000806040838503121561109957611098610efc565b5b600083013567ffffffffffffffff8111156110b7576110b6610f01565b5b6110c38582860161101e565b92505060206110d48582860161106d565b9150509250929050565b600081519050919050565b600082825260208201905092915050565b6000819050602082019050919050565b6111138161104c565b82525050565b6000611125838361110a565b60208301905092915050565b6000602082019050919050565b6000611149826110de565b61115381856110e9565b935061115e836110fa565b8060005b8381101561118f5781516111768882611119565b975061118183611131565b925050600181019050611162565b5085935050505092915050565b6040820160008201516111b2600085018261110a565b5060208201516111c5602085018261110a565b50505050565b600081519050919050565b600082825260208201905092915050565b6000819050602082019050919050565b6000611203838361119c565b60408301905092915050565b6000602082019050919050565b6000611227826111cb565b61123181856111d6565b935061123c836111e7565b8060005b8381101561126d57815161125488826111f7565b975061125f8361120f565b925050600181019050611240565b5085935050505092915050565b600060c0830160008301518482036000860152611297828261113e565b91505060208301516112ac602086018261110a565b5060408301516112bf604086018261110a565b5060608301516112d2606086018261119c565b50608083015184820360a08601526112ea828261121c565b9150508091505092915050565b60006020820190508181036000830152611311818461127a565b905092915050565b60006020828403121561132f5761132e610efc565b5b600061133d8482850161106d565b91505092915050565b61134f8161104c565b82525050565b600060208201905061136a6000830184611346565b92915050565b600080fd5b600080fd5b600067ffffffffffffffff82111561139557611394610f21565b5b602082029050602081019050919050565b600080fd5b60006113be6113b98461137a565b610f81565b905080838252602082019050602084028301858111156113e1576113e06113a6565b5b835b8181101561140a57806113f6888261106d565b8452602084019350506020810190506113e3565b5050509392505050565b600082601f83011261142957611428610f06565b5b81356114398482602086016113ab565b91505092915050565b60006040828403121561145857611457611370565b5b6114626040610f81565b905060006114728482850161106d565b60008301525060206114868482850161106d565b60208301525092915050565b600067ffffffffffffffff8211156114ad576114ac610f21565b5b602082029050602081019050919050565b60006114d16114cc84611492565b610f81565b905080838252602082019050604084028301858111156114f4576114f36113a6565b5b835b8181101561151d57806115098882611442565b8452602084019350506040810190506114f6565b5050509392505050565b600082601f83011261153c5761153b610f06565b5b813561154c8482602086016114be565b91505092915050565b600060c0828403121561156b5761156a611370565b5b61157560a0610f81565b9050600082013567ffffffffffffffff81111561159557611594611375565b5b6115a184828501611414565b60008301525060206115b58482850161106d565b60208301525060406115c98482850161106d565b60408301525060606115dd84828501611442565b60608301525060a082013567ffffffffffffffff81111561160157611600611375565b5b61160d84828501611527565b60808301525092915050565b600080604083850312156116305761162f610efc565b5b600083013567ffffffffffffffff81111561164e5761164d610f01565b5b61165a8582860161101e565b925050602083013567ffffffffffffffff81111561167b5761167a610f01565b5b61168785828601611555565b9150509250929050565b60008115159050919050565b6116a681611691565b82525050565b60006020820190506116c1600083018461169d565b92915050565b600082825260208201905092915050565b7f4475616c52696e673a20496e76616c69642070726976617465206b657920696e60008201527f6465780000000000000000000000000000000000000000000000000000000000602082015250565b60006117346023836116c7565b915061173f826116d8565b604082019050919050565b6000602082019050818103600083015261176381611727565b9050919050565b6000819050919050565b6117856117808261104c565b61176a565b82525050565b60006117978284611774565b60208201915081905092915050565b7f4e487b7100000000000000000000000000000000000000000000000000000000600052601260045260246000fd5b60006117e08261104c565b91506117eb8361104c565b9250826117fb576117fa6117a6565b5b828206905092915050565b60006118128285611774565b6020820191506118228284611774565b6020820191508190509392505050565b7f4e487b7100000000000000000000000000000000000000000000000000000000600052603260045260246000fd5b7f4e487b7100000000000000000000000000000000000000000000000000000000600052601160045260246000fd5b600061189b8261104c565b91506118a68361104c565b92508282019050808211156118be576118bd611861565b5b92915050565b60006118cf8261104c565b91507fffffffffffffffffffffffffffffffffffffffffffffffffffffffffffffffff820361190157611900611861565b5b600182019050919050565b6000819050919050565b6000819050919050565b61193161192c8261190c565b611916565b82525050565b600081519050919050565b600081905092915050565b60005b8381101561196b578082015181840152602081019050611950565b60008484015250505050565b600061198282611937565b61198c8185611942565b935061199c81856020860161194d565b80840191505092915050565b60006119b48287611920565b6020820191506119c48286611977565b91506119d08285611774565b6020820191506119e08284611774565b60208201915081905095945050505050565b60006119fe8285611977565b9150611a0a8284611977565b91508190509392505050565b6000611a218261104c565b9150611a2c8361104c565b9250828203905081811115611a4457611a43611861565b5b92915050565b6000611a558261104c565b9150611a608361104c565b925082611a7057611a6f6117a6565b5b82820490509291505056fea2646970667358221220138b85aa9c0f1725d50b5072534643cd8e21e3020e66d2445b185b1e6fb3cb5d64736f6c63430008130033",
  "immutableReferences": {},
  "source": "// SPDX-License-Identifier: GPL-3.0\npragma solidity >=0.7.0 <0.9.0;\n\nimport \"./alt_bn128.sol\";\n\ncontract DualRingEcc {\n    using alt_bn128 for uint256;\n    using alt_bn128 for alt_bn128.G1Point;\n\n    struct Signature {\n        uint256[] c;\n        uint256 z;\n        uint256 sum;\n        alt_bn128.G1Point R;\n        alt_bn128.G1Point[] Gs;\n    }\n\n    alt_bn128.G1Point g; // group generator\n\n    alt_bn128.G1Point[] pks; //publicKeys for alt_bn128 point\n\n    uint256[] public sks; // private keys\n\n    // Function to generate a new private key\n    function generateKeys(uint _ring_size) public {\n        g = alt_bn128.uintToCurvePoint(1);\n\n        for (uint i = 0; i < _ring_size; i++) {\n            uint k = i + 1;\n            sks.push(k);\n            alt_bn128.G1Point memory pk = alt_bn128.mul(g, k);\n            pks.push(pk);\n        }\n    }\n\n    function packArray(\n        alt_bn128.G1Point[] memory arr\n    ) internal pure returns (bytes memory) {\n        bytes memory packed;\n\n        for (uint256 i = 0; i < arr.length; i++) {\n            bytes memory temp = abi.encodePacked(arr[i].X, arr[i].Y);\n            packed = abi.encodePacked(packed, temp);\n        }\n\n        return packed;\n    }\n\n    // Function to sign a message using a private key\n    function basic_sign(\n        string memory _message,\n        uint _privateKeyIndex\n    ) public view returns (Signature memory) {\n        require(\n            _privateKeyIndex < sks.length,\n            \"DualRing: Invalid private key index\"\n        );\n\n        uint256 r = uint256(keccak256(abi.encodePacked(block.timestamp))) %\n            (alt_bn128.q);\n\n        alt_bn128.G1Point memory R = alt_bn128.mul(g, r);\n\n        uint256[] memory cArray = new uint256[](sks.length);\n\n        uint256 sumExceptJ = 0;\n\n        for (uint256 i = 0; i < sks.length; i++) {\n            if (i != _privateKeyIndex) {\n                cArray[i] =\n                    (uint256(keccak256(abi.encodePacked(block.timestamp, i))) >>\n                        10) %\n                    (alt_bn128.q);\n                sumExceptJ = sumExceptJ + cArray[i];\n                alt_bn128.G1Point memory temp = alt_bn128.mul(\n                    pks[i],\n                    cArray[i]\n                );\n                R = alt_bn128.add(R, temp);\n            }\n        }\n\n        bytes32 messageHash = keccak256(bytes(_message));\n\n        uint256 c = (uint256(\n            bytes32(\n                keccak256(\n                    abi.encodePacked(messageHash, packArray(pks), R.X, R.Y)\n                )\n            )\n        ) >> 4) % (alt_bn128.q);\n\n        cArray[_privateKeyIndex] = alt_bn128.add(c, alt_bn128.neg(sumExceptJ));\n\n        uint256 p = mulmod(\n            sks[_privateKeyIndex],\n            cArray[_privateKeyIndex],\n            alt_bn128.q\n        );\n\n        uint256 z = alt_bn128.add(r, alt_bn128.neg(p));\n\n        Signature memory sig = Signature({\n            c: cArray,\n            z: z,\n            sum: c,\n            R: R,\n            Gs: pks\n        });\n\n        return sig;\n    }\n\n    // verify a message with the given signature\n    function basic_verify(\n        string memory _message,\n        Signature memory sig\n    ) public view returns (bool) {\n        uint256 sumExceptJ = 0;\n\n        uint256[] memory cArray = sig.c;\n\n        uint256 z = sig.z;\n\n        alt_bn128.G1Point memory R = alt_bn128.mul(g, z);\n\n        for (uint256 i = 0; i < sig.Gs.length; i++) {\n            sumExceptJ = addmod(sumExceptJ, cArray[i], alt_bn128.q);\n            alt_bn128.G1Point memory tempV = alt_bn128.mul(\n                sig.Gs[i],\n                cArray[i]\n            );\n            R = alt_bn128.add(tempV, R);\n        }\n        bytes32 messageHash = keccak256(bytes(_message));\n\n        uint256 c = (uint256(\n            bytes32(\n                keccak256(\n                    abi.encodePacked(messageHash, packArray(pks), R.X, R.Y)\n                )\n            )\n        ) >> 4) % (alt_bn128.q);\n\n        return c == sumExceptJ;\n    }\n}\n",
  "sourcePath": "/Users/qian/Desktop/Y4/COMP4550/project/XCSwap/contracts/dualring.sol",
  "compiler": {
    "name": "solc",
    "version": "0.8.19+commit.7dd6d404.Emscripten.clang"
  },
  "schemaVersion": "3.4.13",
  "updatedAt": "2023-06-26T14:47:58.891Z",
  "devdoc": {
    "kind": "dev",
    "methods": {},
    "version": 1
  },
  "userdoc": {
    "kind": "user",
    "methods": {},
    "version": 1
  }
}