{
  "contractName": "DualRing",
  "abi": [
    {
      "inputs": [
        {
          "internalType": "uint256",
          "name": "",
          "type": "uint256"
        }
      ],
      "name": "sks",
      "outputs": [
        {
          "internalType": "uint256",
          "name": "",
          "type": "uint256"
        }
      ],
      "stateMutability": "view",
      "type": "function"
    },
    {
      "inputs": [
        {
          "internalType": "uint256",
          "name": "_ring_size",
          "type": "uint256"
        }
      ],
      "name": "generateKeys",
      "outputs": [],
      "stateMutability": "nonpayable",
      "type": "function"
    },
    {
      "inputs": [
        {
          "internalType": "string",
          "name": "_message",
          "type": "string"
        },
        {
          "internalType": "uint256",
          "name": "_privateKeyIndex",
          "type": "uint256"
        }
      ],
      "name": "basic_sign",
      "outputs": [
        {
          "components": [
            {
              "internalType": "uint256[]",
              "name": "c",
              "type": "uint256[]"
            },
            {
              "internalType": "uint256",
              "name": "z",
              "type": "uint256"
            },
            {
              "internalType": "uint256",
              "name": "sum",
              "type": "uint256"
            },
            {
              "components": [
                {
                  "internalType": "uint256",
                  "name": "X",
                  "type": "uint256"
                },
                {
                  "internalType": "uint256",
                  "name": "Y",
                  "type": "uint256"
                }
              ],
              "internalType": "struct alt_bn128.G1Point",
              "name": "R",
              "type": "tuple"
            },
            {
              "components": [
                {
                  "internalType": "uint256",
                  "name": "X",
                  "type": "uint256"
                },
                {
                  "internalType": "uint256",
                  "name": "Y",
                  "type": "uint256"
                }
              ],
              "internalType": "struct alt_bn128.G1Point[]",
              "name": "Gs",
              "type": "tuple[]"
            }
          ],
          "internalType": "struct DualRing.Signature",
          "name": "",
          "type": "tuple"
        }
      ],
      "stateMutability": "view",
      "type": "function"
    },
    {
      "inputs": [
        {
          "internalType": "string",
          "name": "_message",
          "type": "string"
        },
        {
          "components": [
            {
              "internalType": "uint256[]",
              "name": "c",
              "type": "uint256[]"
            },
            {
              "internalType": "uint256",
              "name": "z",
              "type": "uint256"
            },
            {
              "internalType": "uint256",
              "name": "sum",
              "type": "uint256"
            },
            {
              "components": [
                {
                  "internalType": "uint256",
                  "name": "X",
                  "type": "uint256"
                },
                {
                  "internalType": "uint256",
                  "name": "Y",
                  "type": "uint256"
                }
              ],
              "internalType": "struct alt_bn128.G1Point",
              "name": "R",
              "type": "tuple"
            },
            {
              "components": [
                {
                  "internalType": "uint256",
                  "name": "X",
                  "type": "uint256"
                },
                {
                  "internalType": "uint256",
                  "name": "Y",
                  "type": "uint256"
                }
              ],
              "internalType": "struct alt_bn128.G1Point[]",
              "name": "Gs",
              "type": "tuple[]"
            }
          ],
          "internalType": "struct DualRing.Signature",
          "name": "sig",
          "type": "tuple"
        }
      ],
      "name": "basic_verify",
      "outputs": [
        {
          "internalType": "bool",
          "name": "",
          "type": "bool"
        }
      ],
      "stateMutability": "view",
      "type": "function"
    }
  ],
  "bytecode": "0x608060405234801561001057600080fd5b50611a78806100206000396000f3fe608060405234801561001057600080fd5b506004361061004c5760003560e01c8063101ae41c146100515780631a68fb5014610081578063255630511461009d578063473fd5e1146100cd575b600080fd5b61006b60048036038101906100669190611049565b6100fd565b60405161007891906112be565b60405180910390f35b61009b600480360381019061009691906112e0565b61057b565b005b6100b760048036038101906100b291906112e0565b61066b565b6040516100c4919061131c565b60405180910390f35b6100e760048036038101906100e291906115e0565b61068f565b6040516100f49190611673565b60405180910390f35b610105610de2565b600380549050821061014c576040517f08c379a000000000000000000000000000000000000000000000000000000000815260040161014390611711565b60405180910390fd5b60004260405160200161015f9190611752565b6040516020818303038152906040528051906020012060001c905060006101a660006040518060400160405290816000820154815260200160018201548152505083610892565b9050600060038054905067ffffffffffffffff8111156101c9576101c8610ee8565b5b6040519080825280602002602001820160405280156101f75781602001602082028036833780820191505090505b5090506000805b60038054905081101561033d5786811461032a577f30644e72e131a029b85045b68181585d2833e84879b9709143e1f593f0000001600a428360405160200161024892919061176d565b6040516020818303038152906040528051906020012060001c901c61026d91906117c8565b8382815181106102805761027f6117f9565b5b60200260200101818152505082818151811061029f5761029e6117f9565b5b6020026020010151826102b29190611857565b9150600061031a600283815481106102cd576102cc6117f9565b5b90600052602060002090600202016040518060400160405290816000820154815260200160018201548152505085848151811061030d5761030c6117f9565b5b6020026020010151610892565b9050610326858261094a565b9450505b80806103359061188b565b9150506101fe565b5060008780519060200120905060007f30644e72e131a029b85045b68181585d2833e84879b9709143e1f593f0000001826103e26002805480602002602001604051908101604052809291908181526020016000905b828210156103d957838290600052602060002090600202016040518060400160405290816000820154815260200160018201548152505081526020019060010190610393565b505050506109fe565b876000015188602001516040516020016103ff949392919061196f565b6040516020818303038152906040528051906020012060001c61042291906117c8565b90506104368161043185610ab1565b610ae6565b848981518110610449576104486117f9565b5b60200260200101818152505060007f30644e72e131a029b85045b68181585d2833e84879b9709143e1f593f00000018061048657610485611799565b5b858a81518110610499576104986117f9565b5b602002602001015160038b815481106104b5576104b46117f9565b5b9060005260206000200154099050600081886104d191906119b9565b905060006040518060a001604052808881526020018381526020018581526020018981526020016002805480602002602001604051908101604052809291908181526020016000905b828210156105605783829060005260206000209060020201604051806040016040529081600082015481526020016001820154815250508152602001906001019061051a565b50505050815250905080995050505050505050505092915050565b6105856001610b22565b60008082015181600001556020820151816001015590505060005b818110156106675760006001826105b79190611857565b90506003819080600181540180825580915050600190039060005260206000200160009091909190915055600061060e60006040518060400160405290816000820154815260200160018201548152505083610892565b90506002819080600181540180825580915050600190039060005260206000209060020201600090919091909150600082015181600001556020820151816001015550505050808061065f9061188b565b9150506105a0565b5050565b6003818154811061067b57600080fd5b906000526020600020016000915090505481565b6000806000905060008360000151905060008460200151905060006106d460006040518060400160405290816000820154815260200160018201548152505083610892565b905060005b60038054905081101561079a577f30644e72e131a029b85045b68181585d2833e84879b9709143e1f593f00000018061071557610714611799565b5b848281518110610728576107276117f9565b5b6020026020010151860894506000610778886080015183815181106107505761074f6117f9565b5b602002602001015186848151811061076b5761076a6117f9565b5b6020026020010151610892565b9050610784818461094a565b92505080806107929061188b565b9150506106d9565b5060008780519060200120905060007f30644e72e131a029b85045b68181585d2833e84879b9709143e1f593f00000018261083f6002805480602002602001604051908101604052809291908181526020016000905b82821015610836578382906000526020600020906002020160405180604001604052908160008201548152602001600182015481525050815260200190600101906107f0565b505050506109fe565b8560000151866020015160405160200161085c949392919061196f565b6040516020818303038152906040528051906020012060001c61087f91906117c8565b9050858114965050505050505092915050565b61089a610e17565b600182036108aa57829050610944565b600282036108c3576108bc838461094a565b9050610944565b6108cb610e31565b8360000151816000600381106108e4576108e36117f9565b5b602002018181525050836020015181600160038110610906576109056117f9565b5b6020020181815250508281600260038110610924576109236117f9565b5b6020020181815250506040826060836007600019fa61094257600080fd5b505b92915050565b610952610e17565b61095a610e53565b836000015181600060048110610973576109726117f9565b5b602002018181525050836020015181600160048110610995576109946117f9565b5b6020020181815250508260000151816002600481106109b7576109b66117f9565b5b6020020181815250508260200151816003600481106109d9576109d86117f9565b5b6020020181815250506040826080836006600019fa6109f757600080fd5b5092915050565b60608060005b8351811015610aa7576000848281518110610a2257610a216117f9565b5b602002602001015160000151858381518110610a4157610a406117f9565b5b602002602001015160200151604051602001610a5e92919061176d565b60405160208183030381529060405290508281604051602001610a829291906119ed565b6040516020818303038152906040529250508080610a9f9061188b565b915050610a04565b5080915050919050565b6000817f30644e72e131a029b85045b68181585d2833e84879b9709143e1f593f0000001610adf91906119b9565b9050919050565b60007f30644e72e131a029b85045b68181585d2833e84879b9709143e1f593f000000180610b1757610b16611799565b5b828408905092915050565b610b2a610e17565b60007f30644e72e131a029b85045b68181585d97816a916871ca8d3c208c16d87cfd4783610b5891906117c8565b90506000600182610b6991906119b9565b91506000805b81610cc057600184610b819190611857565b93507f30644e72e131a029b85045b68181585d97816a916871ca8d3c208c16d87cfd4780610bb257610bb1611799565b5b84850990507f30644e72e131a029b85045b68181585d97816a916871ca8d3c208c16d87cfd4780610be657610be5611799565b5b84820990507f30644e72e131a029b85045b68181585d97816a916871ca8d3c208c16d87cfd4780610c1a57610c19611799565b5b600382089050610c8381600460017f30644e72e131a029b85045b68181585d97816a916871ca8d3c208c16d87cfd47610c539190611857565b610c5d9190611a11565b7f30644e72e131a029b85045b68181585d97816a916871ca8d3c208c16d87cfd47610ce0565b9250807f30644e72e131a029b85045b68181585d97816a916871ca8d3c208c16d87cfd4780610cb557610cb4611799565b5b848509149150610b6f565b604051806040016040528085815260200184815250945050505050919050565b6000610cea610e75565b610cf2610e97565b602082600060068110610d0857610d076117f9565b5b602002018181525050602082600160068110610d2757610d266117f9565b5b602002018181525050602082600260068110610d4657610d456117f9565b5b6020020181815250508582600360068110610d6457610d636117f9565b5b6020020181815250508482600460068110610d8257610d816117f9565b5b6020020181815250508382600560068110610da057610d9f6117f9565b5b60200201818152505060208160c0846005600019fa610dbe57600080fd5b80600060018110610dd257610dd16117f9565b5b6020020151925050509392505050565b6040518060a00160405280606081526020016000815260200160008152602001610e0a610e17565b8152602001606081525090565b604051806040016040528060008152602001600081525090565b6040518060600160405280600390602082028036833780820191505090505090565b6040518060800160405280600490602082028036833780820191505090505090565b6040518060c00160405280600690602082028036833780820191505090505090565b6040518060200160405280600190602082028036833780820191505090505090565b6000604051905090565b600080fd5b600080fd5b600080fd5b600080fd5b6000601f19601f8301169050919050565b7f4e487b7100000000000000000000000000000000000000000000000000000000600052604160045260246000fd5b610f2082610ed7565b810181811067ffffffffffffffff82111715610f3f57610f3e610ee8565b5b80604052505050565b6000610f52610eb9565b9050610f5e8282610f17565b919050565b600067ffffffffffffffff821115610f7e57610f7d610ee8565b5b610f8782610ed7565b9050602081019050919050565b82818337600083830152505050565b6000610fb6610fb184610f63565b610f48565b905082815260208101848484011115610fd257610fd1610ed2565b5b610fdd848285610f94565b509392505050565b600082601f830112610ffa57610ff9610ecd565b5b813561100a848260208601610fa3565b91505092915050565b6000819050919050565b61102681611013565b811461103157600080fd5b50565b6000813590506110438161101d565b92915050565b600080604083850312156110605761105f610ec3565b5b600083013567ffffffffffffffff81111561107e5761107d610ec8565b5b61108a85828601610fe5565b925050602061109b85828601611034565b9150509250929050565b600081519050919050565b600082825260208201905092915050565b6000819050602082019050919050565b6110da81611013565b82525050565b60006110ec83836110d1565b60208301905092915050565b6000602082019050919050565b6000611110826110a5565b61111a81856110b0565b9350611125836110c1565b8060005b8381101561115657815161113d88826110e0565b9750611148836110f8565b925050600181019050611129565b5085935050505092915050565b60408201600082015161117960008501826110d1565b50602082015161118c60208501826110d1565b50505050565b600081519050919050565b600082825260208201905092915050565b6000819050602082019050919050565b60006111ca8383611163565b60408301905092915050565b6000602082019050919050565b60006111ee82611192565b6111f8818561119d565b9350611203836111ae565b8060005b8381101561123457815161121b88826111be565b9750611226836111d6565b925050600181019050611207565b5085935050505092915050565b600060c083016000830151848203600086015261125e8282611105565b915050602083015161127360208601826110d1565b50604083015161128660408601826110d1565b5060608301516112996060860182611163565b50608083015184820360a08601526112b182826111e3565b9150508091505092915050565b600060208201905081810360008301526112d88184611241565b905092915050565b6000602082840312156112f6576112f5610ec3565b5b600061130484828501611034565b91505092915050565b61131681611013565b82525050565b6000602082019050611331600083018461130d565b92915050565b600080fd5b600080fd5b600067ffffffffffffffff82111561135c5761135b610ee8565b5b602082029050602081019050919050565b600080fd5b600061138561138084611341565b610f48565b905080838252602082019050602084028301858111156113a8576113a761136d565b5b835b818110156113d157806113bd8882611034565b8452602084019350506020810190506113aa565b5050509392505050565b600082601f8301126113f0576113ef610ecd565b5b8135611400848260208601611372565b91505092915050565b60006040828403121561141f5761141e611337565b5b6114296040610f48565b9050600061143984828501611034565b600083015250602061144d84828501611034565b60208301525092915050565b600067ffffffffffffffff82111561147457611473610ee8565b5b602082029050602081019050919050565b600061149861149384611459565b610f48565b905080838252602082019050604084028301858111156114bb576114ba61136d565b5b835b818110156114e457806114d08882611409565b8452602084019350506040810190506114bd565b5050509392505050565b600082601f83011261150357611502610ecd565b5b8135611513848260208601611485565b91505092915050565b600060c0828403121561153257611531611337565b5b61153c60a0610f48565b9050600082013567ffffffffffffffff81111561155c5761155b61133c565b5b611568848285016113db565b600083015250602061157c84828501611034565b602083015250604061159084828501611034565b60408301525060606115a484828501611409565b60608301525060a082013567ffffffffffffffff8111156115c8576115c761133c565b5b6115d4848285016114ee565b60808301525092915050565b600080604083850312156115f7576115f6610ec3565b5b600083013567ffffffffffffffff81111561161557611614610ec8565b5b61162185828601610fe5565b925050602083013567ffffffffffffffff81111561164257611641610ec8565b5b61164e8582860161151c565b9150509250929050565b60008115159050919050565b61166d81611658565b82525050565b60006020820190506116886000830184611664565b92915050565b600082825260208201905092915050565b7f4475616c52696e673a20496e76616c69642070726976617465206b657920696e60008201527f6465780000000000000000000000000000000000000000000000000000000000602082015250565b60006116fb60238361168e565b91506117068261169f565b604082019050919050565b6000602082019050818103600083015261172a816116ee565b9050919050565b6000819050919050565b61174c61174782611013565b611731565b82525050565b600061175e828461173b565b60208201915081905092915050565b6000611779828561173b565b602082019150611789828461173b565b6020820191508190509392505050565b7f4e487b7100000000000000000000000000000000000000000000000000000000600052601260045260246000fd5b60006117d382611013565b91506117de83611013565b9250826117ee576117ed611799565b5b828206905092915050565b7f4e487b7100000000000000000000000000000000000000000000000000000000600052603260045260246000fd5b7f4e487b7100000000000000000000000000000000000000000000000000000000600052601160045260246000fd5b600061186282611013565b915061186d83611013565b925082820190508082111561188557611884611828565b5b92915050565b600061189682611013565b91507fffffffffffffffffffffffffffffffffffffffffffffffffffffffffffffffff82036118c8576118c7611828565b5b600182019050919050565b6000819050919050565b6000819050919050565b6118f86118f3826118d3565b6118dd565b82525050565b600081519050919050565b600081905092915050565b60005b83811015611932578082015181840152602081019050611917565b60008484015250505050565b6000611949826118fe565b6119538185611909565b9350611963818560208601611914565b80840191505092915050565b600061197b82876118e7565b60208201915061198b828661193e565b9150611997828561173b565b6020820191506119a7828461173b565b60208201915081905095945050505050565b60006119c482611013565b91506119cf83611013565b92508282039050818111156119e7576119e6611828565b5b92915050565b60006119f9828561193e565b9150611a05828461193e565b91508190509392505050565b6000611a1c82611013565b9150611a2783611013565b925082611a3757611a36611799565b5b82820490509291505056fea2646970667358221220b66343c7b2b9c7a1297ff174942097e698f0ab245d58097001e5f3e619a91b9364736f6c63430008130033",
  "immutableReferences": {},
  "source": "// SPDX-License-Identifier: GPL-3.0\npragma solidity >=0.7.0 <0.9.0;\n\n\n\nimport \"./alt_bn128.sol\";\n\n\ncontract DualRing {\n    using alt_bn128 for uint256;\n\tusing alt_bn128 for alt_bn128.G1Point;\n    \n\n    struct Signature {\n        uint256[] c;\n        uint256 z;\n        uint256 sum;\n        alt_bn128.G1Point R;\n        alt_bn128.G1Point[] Gs; \n    }\n\n\n\n    alt_bn128.G1Point g; // group generator\n\n    alt_bn128.G1Point[] pks; //publicKeys for alt_bn128 point\n\n    uint256[] public sks; // private keys\n\n\n\n\n    // Function to generate a new private key\n    function generateKeys(uint _ring_size) public{\n        // uint256 seed = uint256(keccak256(abi.encodePacked(block.timestamp)));\n\t\tg = alt_bn128.uintToCurvePoint(1);\n        for (uint i = 0; i < _ring_size; i++) {\n\n            uint k = i+1; \n            sks.push(k);\n            alt_bn128.G1Point memory pk = alt_bn128.mul(g,k);\n            pks.push(pk);\n\n\n        }\n        \n    }\n\n    function packArray(alt_bn128.G1Point[] memory arr) internal pure returns (bytes memory) {\n        bytes memory packed;\n        for (uint256 i = 0; i < arr.length; i++) {\n            bytes memory temp = abi.encodePacked(arr[i].X, arr[i].Y);\n            packed = abi.encodePacked(packed, temp);\n        }\n        return packed;\n    }\n\n\n\n    // Function to sign a message using a private key\n    function basic_sign(string memory _message, uint _privateKeyIndex)  public view returns (Signature memory) {\n        require(_privateKeyIndex < sks.length, \"DualRing: Invalid private key index\");\n\n\n        uint256 r = uint256(keccak256(abi.encodePacked(block.timestamp))); \n\n        alt_bn128.G1Point memory R = alt_bn128.mul(g,r); \n       \n        uint256[] memory cArray = new uint256[](sks.length);\n\n\n        uint256 sumExceptJ = 0;\n        for (uint256 i = 0 ; i < sks.length ; i ++){\n            if (i!=  _privateKeyIndex ){\n\n                cArray[i] = (uint256(keccak256(abi.encodePacked(block.timestamp,i)))>>10)%(alt_bn128.q);\n                sumExceptJ = sumExceptJ +  cArray[i];\n\n                alt_bn128.G1Point memory temp = alt_bn128.mul(pks[i],cArray[i]);\n                R = alt_bn128.add (R,temp);\n\n            }\n        }\n\n\n        bytes32 messageHash =  keccak256(bytes(_message));\n        uint256 c = (uint256(bytes32(keccak256(abi.encodePacked(messageHash, packArray(pks),R.X, R.Y)))))%(alt_bn128.q);\n\n        cArray[_privateKeyIndex] = alt_bn128.add(c, alt_bn128.neg(sumExceptJ));\n\n        uint256 p = mulmod(sks[_privateKeyIndex] , cArray[_privateKeyIndex],alt_bn128.q);\n\n\n        uint256 z = r-p;\n\n\n        Signature memory sig = Signature({\n            c: cArray,\n            z: z, \n            sum: c,\n            R: R,\n            Gs: pks\n        });\n\n        return sig;\n\n\n        \n    }\n\n\n    // verify a message with the given signature\n    function basic_verify(string memory _message, Signature memory sig) public view returns (bool) {\n\n\n            uint256 sumExceptJ = 0;\n\n            \n            uint256[] memory cArray = sig.c;\n            uint256 z = sig.z;\n\n            alt_bn128.G1Point memory R = alt_bn128.mul(g,z);\n\n            for (uint256 i = 0; i < sks.length ; i++){\n            sumExceptJ = addmod(sumExceptJ,cArray[i],alt_bn128.q);\n            alt_bn128.G1Point memory tempV = alt_bn128.mul(sig.Gs[i], cArray[i]);\n            R = alt_bn128.add(tempV,R);\n            }\n\n            bytes32 messageHash =  keccak256(bytes(_message));\n            uint256 c = (uint256(bytes32(keccak256(abi.encodePacked(messageHash, packArray(pks),R.X, R.Y)))))%(alt_bn128.q);\n            \n            return c == sumExceptJ;\n    }\n\n\n\n\n\n\n}",
  "sourcePath": "/Users/hxy/ZK-research/ZKP-Blockchain/contracts/DualRing.sol",
  "compiler": {
    "name": "solc",
    "version": "0.8.19+commit.7dd6d404.Emscripten.clang"
  },
  "schemaVersion": "3.4.13",
  "updatedAt": "2023-04-22T06:48:01.328Z",
  "devdoc": {
    "kind": "dev",
    "methods": {},
    "version": 1
  },
  "userdoc": {
    "kind": "user",
    "methods": {},
    "version": 1
  }
}