{
  "contractName": "DualRingBulletproof",
  "abi": [
    {
      "inputs": [],
      "stateMutability": "nonpayable",
      "type": "constructor"
    },
    {
      "inputs": [
        {
          "internalType": "uint256[]",
          "name": "a",
          "type": "uint256[]"
        }
      ],
      "name": "generateParam",
      "outputs": [
        {
          "components": [
            {
              "components": [
                {
                  "internalType": "uint256",
                  "name": "X",
                  "type": "uint256"
                },
                {
                  "internalType": "uint256",
                  "name": "Y",
                  "type": "uint256"
                }
              ],
              "internalType": "struct alt_bn128.G1Point[]",
              "name": "Gs",
              "type": "tuple[]"
            },
            {
              "components": [
                {
                  "internalType": "uint256",
                  "name": "X",
                  "type": "uint256"
                },
                {
                  "internalType": "uint256",
                  "name": "Y",
                  "type": "uint256"
                }
              ],
              "internalType": "struct alt_bn128.G1Point",
              "name": "P",
              "type": "tuple"
            },
            {
              "internalType": "uint256",
              "name": "c",
              "type": "uint256"
            }
          ],
          "internalType": "struct NISA.Param",
          "name": "param",
          "type": "tuple"
        }
      ],
      "stateMutability": "view",
      "type": "function"
    },
    {
      "inputs": [
        {
          "components": [
            {
              "components": [
                {
                  "internalType": "uint256",
                  "name": "X",
                  "type": "uint256"
                },
                {
                  "internalType": "uint256",
                  "name": "Y",
                  "type": "uint256"
                }
              ],
              "internalType": "struct alt_bn128.G1Point[]",
              "name": "Gs",
              "type": "tuple[]"
            },
            {
              "components": [
                {
                  "internalType": "uint256",
                  "name": "X",
                  "type": "uint256"
                },
                {
                  "internalType": "uint256",
                  "name": "Y",
                  "type": "uint256"
                }
              ],
              "internalType": "struct alt_bn128.G1Point",
              "name": "P",
              "type": "tuple"
            },
            {
              "internalType": "uint256",
              "name": "c",
              "type": "uint256"
            }
          ],
          "internalType": "struct NISA.Param",
          "name": "param",
          "type": "tuple"
        },
        {
          "internalType": "uint256[]",
          "name": "a",
          "type": "uint256[]"
        }
      ],
      "name": "prove",
      "outputs": [
        {
          "components": [
            {
              "components": [
                {
                  "internalType": "uint256",
                  "name": "X",
                  "type": "uint256"
                },
                {
                  "internalType": "uint256",
                  "name": "Y",
                  "type": "uint256"
                }
              ],
              "internalType": "struct alt_bn128.G1Point[]",
              "name": "Ls",
              "type": "tuple[]"
            },
            {
              "components": [
                {
                  "internalType": "uint256",
                  "name": "X",
                  "type": "uint256"
                },
                {
                  "internalType": "uint256",
                  "name": "Y",
                  "type": "uint256"
                }
              ],
              "internalType": "struct alt_bn128.G1Point[]",
              "name": "Rs",
              "type": "tuple[]"
            },
            {
              "internalType": "uint256",
              "name": "a",
              "type": "uint256"
            },
            {
              "internalType": "uint256",
              "name": "b",
              "type": "uint256"
            }
          ],
          "internalType": "struct NISA.Proof",
          "name": "p",
          "type": "tuple"
        }
      ],
      "stateMutability": "view",
      "type": "function"
    },
    {
      "inputs": [
        {
          "internalType": "uint256",
          "name": "",
          "type": "uint256"
        }
      ],
      "name": "sks",
      "outputs": [
        {
          "internalType": "uint256",
          "name": "",
          "type": "uint256"
        }
      ],
      "stateMutability": "view",
      "type": "function"
    },
    {
      "inputs": [
        {
          "internalType": "uint256[]",
          "name": "a",
          "type": "uint256[]"
        }
      ],
      "name": "test",
      "outputs": [
        {
          "internalType": "bool",
          "name": "",
          "type": "bool"
        }
      ],
      "stateMutability": "view",
      "type": "function"
    },
    {
      "inputs": [
        {
          "components": [
            {
              "components": [
                {
                  "internalType": "uint256",
                  "name": "X",
                  "type": "uint256"
                },
                {
                  "internalType": "uint256",
                  "name": "Y",
                  "type": "uint256"
                }
              ],
              "internalType": "struct alt_bn128.G1Point[]",
              "name": "Gs",
              "type": "tuple[]"
            },
            {
              "components": [
                {
                  "internalType": "uint256",
                  "name": "X",
                  "type": "uint256"
                },
                {
                  "internalType": "uint256",
                  "name": "Y",
                  "type": "uint256"
                }
              ],
              "internalType": "struct alt_bn128.G1Point",
              "name": "P",
              "type": "tuple"
            },
            {
              "internalType": "uint256",
              "name": "c",
              "type": "uint256"
            }
          ],
          "internalType": "struct NISA.Param",
          "name": "param",
          "type": "tuple"
        },
        {
          "components": [
            {
              "components": [
                {
                  "internalType": "uint256",
                  "name": "X",
                  "type": "uint256"
                },
                {
                  "internalType": "uint256",
                  "name": "Y",
                  "type": "uint256"
                }
              ],
              "internalType": "struct alt_bn128.G1Point[]",
              "name": "Ls",
              "type": "tuple[]"
            },
            {
              "components": [
                {
                  "internalType": "uint256",
                  "name": "X",
                  "type": "uint256"
                },
                {
                  "internalType": "uint256",
                  "name": "Y",
                  "type": "uint256"
                }
              ],
              "internalType": "struct alt_bn128.G1Point[]",
              "name": "Rs",
              "type": "tuple[]"
            },
            {
              "internalType": "uint256",
              "name": "a",
              "type": "uint256"
            },
            {
              "internalType": "uint256",
              "name": "b",
              "type": "uint256"
            }
          ],
          "internalType": "struct NISA.Proof",
          "name": "p",
          "type": "tuple"
        }
      ],
      "name": "verify",
      "outputs": [
        {
          "internalType": "bool",
          "name": "",
          "type": "bool"
        }
      ],
      "stateMutability": "view",
      "type": "function"
    },
    {
      "inputs": [
        {
          "internalType": "uint256",
          "name": "_ring_size",
          "type": "uint256"
        }
      ],
      "name": "generateKeys",
      "outputs": [],
      "stateMutability": "nonpayable",
      "type": "function"
    },
    {
      "inputs": [
        {
          "internalType": "string",
          "name": "_message",
          "type": "string"
        },
        {
          "internalType": "uint256",
          "name": "_privateKeyIndex",
          "type": "uint256"
        }
      ],
      "name": "basic_sign",
      "outputs": [
        {
          "components": [
            {
              "internalType": "uint256[]",
              "name": "c",
              "type": "uint256[]"
            },
            {
              "internalType": "uint256",
              "name": "z",
              "type": "uint256"
            },
            {
              "internalType": "uint256",
              "name": "sum",
              "type": "uint256"
            },
            {
              "components": [
                {
                  "internalType": "uint256",
                  "name": "X",
                  "type": "uint256"
                },
                {
                  "internalType": "uint256",
                  "name": "Y",
                  "type": "uint256"
                }
              ],
              "internalType": "struct alt_bn128.G1Point",
              "name": "R",
              "type": "tuple"
            }
          ],
          "internalType": "struct DualRingBulletproof.Response",
          "name": "",
          "type": "tuple"
        }
      ],
      "stateMutability": "view",
      "type": "function"
    },
    {
      "inputs": [
        {
          "internalType": "string",
          "name": "_message",
          "type": "string"
        },
        {
          "components": [
            {
              "internalType": "uint256[]",
              "name": "c",
              "type": "uint256[]"
            },
            {
              "internalType": "uint256",
              "name": "z",
              "type": "uint256"
            },
            {
              "internalType": "uint256",
              "name": "sum",
              "type": "uint256"
            },
            {
              "components": [
                {
                  "internalType": "uint256",
                  "name": "X",
                  "type": "uint256"
                },
                {
                  "internalType": "uint256",
                  "name": "Y",
                  "type": "uint256"
                }
              ],
              "internalType": "struct alt_bn128.G1Point",
              "name": "R",
              "type": "tuple"
            }
          ],
          "internalType": "struct DualRingBulletproof.Response",
          "name": "sig",
          "type": "tuple"
        }
      ],
      "name": "basic_verify",
      "outputs": [
        {
          "internalType": "bool",
          "name": "",
          "type": "bool"
        }
      ],
      "stateMutability": "view",
      "type": "function"
    },
    {
      "inputs": [
        {
          "internalType": "string",
          "name": "_message",
          "type": "string"
        },
        {
          "internalType": "uint256",
          "name": "_privateKeyIndex",
          "type": "uint256"
        }
      ],
      "name": "full_sign",
      "outputs": [
        {
          "components": [
            {
              "internalType": "uint256",
              "name": "z",
              "type": "uint256"
            },
            {
              "components": [
                {
                  "components": [
                    {
                      "internalType": "uint256",
                      "name": "X",
                      "type": "uint256"
                    },
                    {
                      "internalType": "uint256",
                      "name": "Y",
                      "type": "uint256"
                    }
                  ],
                  "internalType": "struct alt_bn128.G1Point[]",
                  "name": "Ls",
                  "type": "tuple[]"
                },
                {
                  "components": [
                    {
                      "internalType": "uint256",
                      "name": "X",
                      "type": "uint256"
                    },
                    {
                      "internalType": "uint256",
                      "name": "Y",
                      "type": "uint256"
                    }
                  ],
                  "internalType": "struct alt_bn128.G1Point[]",
                  "name": "Rs",
                  "type": "tuple[]"
                },
                {
                  "internalType": "uint256",
                  "name": "a",
                  "type": "uint256"
                },
                {
                  "internalType": "uint256",
                  "name": "b",
                  "type": "uint256"
                }
              ],
              "internalType": "struct NISA.Proof",
              "name": "pi",
              "type": "tuple"
            },
            {
              "components": [
                {
                  "components": [
                    {
                      "internalType": "uint256",
                      "name": "X",
                      "type": "uint256"
                    },
                    {
                      "internalType": "uint256",
                      "name": "Y",
                      "type": "uint256"
                    }
                  ],
                  "internalType": "struct alt_bn128.G1Point[]",
                  "name": "Gs",
                  "type": "tuple[]"
                },
                {
                  "components": [
                    {
                      "internalType": "uint256",
                      "name": "X",
                      "type": "uint256"
                    },
                    {
                      "internalType": "uint256",
                      "name": "Y",
                      "type": "uint256"
                    }
                  ],
                  "internalType": "struct alt_bn128.G1Point",
                  "name": "P",
                  "type": "tuple"
                },
                {
                  "internalType": "uint256",
                  "name": "c",
                  "type": "uint256"
                }
              ],
              "internalType": "struct NISA.Param",
              "name": "pa",
              "type": "tuple"
            }
          ],
          "internalType": "struct DualRingBulletproof.Signature",
          "name": "",
          "type": "tuple"
        }
      ],
      "stateMutability": "view",
      "type": "function"
    },
    {
      "inputs": [
        {
          "components": [
            {
              "internalType": "uint256",
              "name": "z",
              "type": "uint256"
            },
            {
              "components": [
                {
                  "components": [
                    {
                      "internalType": "uint256",
                      "name": "X",
                      "type": "uint256"
                    },
                    {
                      "internalType": "uint256",
                      "name": "Y",
                      "type": "uint256"
                    }
                  ],
                  "internalType": "struct alt_bn128.G1Point[]",
                  "name": "Ls",
                  "type": "tuple[]"
                },
                {
                  "components": [
                    {
                      "internalType": "uint256",
                      "name": "X",
                      "type": "uint256"
                    },
                    {
                      "internalType": "uint256",
                      "name": "Y",
                      "type": "uint256"
                    }
                  ],
                  "internalType": "struct alt_bn128.G1Point[]",
                  "name": "Rs",
                  "type": "tuple[]"
                },
                {
                  "internalType": "uint256",
                  "name": "a",
                  "type": "uint256"
                },
                {
                  "internalType": "uint256",
                  "name": "b",
                  "type": "uint256"
                }
              ],
              "internalType": "struct NISA.Proof",
              "name": "pi",
              "type": "tuple"
            },
            {
              "components": [
                {
                  "components": [
                    {
                      "internalType": "uint256",
                      "name": "X",
                      "type": "uint256"
                    },
                    {
                      "internalType": "uint256",
                      "name": "Y",
                      "type": "uint256"
                    }
                  ],
                  "internalType": "struct alt_bn128.G1Point[]",
                  "name": "Gs",
                  "type": "tuple[]"
                },
                {
                  "components": [
                    {
                      "internalType": "uint256",
                      "name": "X",
                      "type": "uint256"
                    },
                    {
                      "internalType": "uint256",
                      "name": "Y",
                      "type": "uint256"
                    }
                  ],
                  "internalType": "struct alt_bn128.G1Point",
                  "name": "P",
                  "type": "tuple"
                },
                {
                  "internalType": "uint256",
                  "name": "c",
                  "type": "uint256"
                }
              ],
              "internalType": "struct NISA.Param",
              "name": "pa",
              "type": "tuple"
            }
          ],
          "internalType": "struct DualRingBulletproof.Signature",
          "name": "sig",
          "type": "tuple"
        }
      ],
      "name": "get_para",
      "outputs": [
        {
          "components": [
            {
              "internalType": "uint256",
              "name": "z",
              "type": "uint256"
            },
            {
              "components": [
                {
                  "internalType": "uint256",
                  "name": "X",
                  "type": "uint256"
                },
                {
                  "internalType": "uint256",
                  "name": "Y",
                  "type": "uint256"
                }
              ],
              "internalType": "struct alt_bn128.G1Point[]",
              "name": "Gs",
              "type": "tuple[]"
            },
            {
              "components": [
                {
                  "internalType": "uint256",
                  "name": "X",
                  "type": "uint256"
                },
                {
                  "internalType": "uint256",
                  "name": "Y",
                  "type": "uint256"
                }
              ],
              "internalType": "struct alt_bn128.G1Point",
              "name": "P",
              "type": "tuple"
            },
            {
              "internalType": "uint256",
              "name": "c",
              "type": "uint256"
            },
            {
              "components": [
                {
                  "internalType": "uint256",
                  "name": "X",
                  "type": "uint256"
                },
                {
                  "internalType": "uint256",
                  "name": "Y",
                  "type": "uint256"
                }
              ],
              "internalType": "struct alt_bn128.G1Point[]",
              "name": "Ls",
              "type": "tuple[]"
            },
            {
              "components": [
                {
                  "internalType": "uint256",
                  "name": "X",
                  "type": "uint256"
                },
                {
                  "internalType": "uint256",
                  "name": "Y",
                  "type": "uint256"
                }
              ],
              "internalType": "struct alt_bn128.G1Point[]",
              "name": "Rs",
              "type": "tuple[]"
            },
            {
              "internalType": "uint256",
              "name": "a",
              "type": "uint256"
            },
            {
              "internalType": "uint256",
              "name": "b",
              "type": "uint256"
            }
          ],
          "internalType": "struct DualRingBulletproof.Args",
          "name": "args",
          "type": "tuple"
        }
      ],
      "stateMutability": "pure",
      "type": "function"
    },
    {
      "inputs": [
        {
          "internalType": "string",
          "name": "_message",
          "type": "string"
        },
        {
          "components": [
            {
              "internalType": "uint256",
              "name": "z",
              "type": "uint256"
            },
            {
              "components": [
                {
                  "components": [
                    {
                      "internalType": "uint256",
                      "name": "X",
                      "type": "uint256"
                    },
                    {
                      "internalType": "uint256",
                      "name": "Y",
                      "type": "uint256"
                    }
                  ],
                  "internalType": "struct alt_bn128.G1Point[]",
                  "name": "Ls",
                  "type": "tuple[]"
                },
                {
                  "components": [
                    {
                      "internalType": "uint256",
                      "name": "X",
                      "type": "uint256"
                    },
                    {
                      "internalType": "uint256",
                      "name": "Y",
                      "type": "uint256"
                    }
                  ],
                  "internalType": "struct alt_bn128.G1Point[]",
                  "name": "Rs",
                  "type": "tuple[]"
                },
                {
                  "internalType": "uint256",
                  "name": "a",
                  "type": "uint256"
                },
                {
                  "internalType": "uint256",
                  "name": "b",
                  "type": "uint256"
                }
              ],
              "internalType": "struct NISA.Proof",
              "name": "pi",
              "type": "tuple"
            },
            {
              "components": [
                {
                  "components": [
                    {
                      "internalType": "uint256",
                      "name": "X",
                      "type": "uint256"
                    },
                    {
                      "internalType": "uint256",
                      "name": "Y",
                      "type": "uint256"
                    }
                  ],
                  "internalType": "struct alt_bn128.G1Point[]",
                  "name": "Gs",
                  "type": "tuple[]"
                },
                {
                  "components": [
                    {
                      "internalType": "uint256",
                      "name": "X",
                      "type": "uint256"
                    },
                    {
                      "internalType": "uint256",
                      "name": "Y",
                      "type": "uint256"
                    }
                  ],
                  "internalType": "struct alt_bn128.G1Point",
                  "name": "P",
                  "type": "tuple"
                },
                {
                  "internalType": "uint256",
                  "name": "c",
                  "type": "uint256"
                }
              ],
              "internalType": "struct NISA.Param",
              "name": "pa",
              "type": "tuple"
            }
          ],
          "internalType": "struct DualRingBulletproof.Signature",
          "name": "sig",
          "type": "tuple"
        }
      ],
      "name": "full_verify",
      "outputs": [
        {
          "internalType": "bool",
          "name": "",
          "type": "bool"
        }
      ],
      "stateMutability": "view",
      "type": "function"
    },
    {
      "inputs": [
        {
          "internalType": "string",
          "name": "_message",
          "type": "string"
        },
        {
          "components": [
            {
              "internalType": "uint256",
              "name": "z",
              "type": "uint256"
            },
            {
              "components": [
                {
                  "internalType": "uint256",
                  "name": "X",
                  "type": "uint256"
                },
                {
                  "internalType": "uint256",
                  "name": "Y",
                  "type": "uint256"
                }
              ],
              "internalType": "struct alt_bn128.G1Point[]",
              "name": "Gs",
              "type": "tuple[]"
            },
            {
              "components": [
                {
                  "internalType": "uint256",
                  "name": "X",
                  "type": "uint256"
                },
                {
                  "internalType": "uint256",
                  "name": "Y",
                  "type": "uint256"
                }
              ],
              "internalType": "struct alt_bn128.G1Point",
              "name": "P",
              "type": "tuple"
            },
            {
              "internalType": "uint256",
              "name": "c",
              "type": "uint256"
            },
            {
              "components": [
                {
                  "internalType": "uint256",
                  "name": "X",
                  "type": "uint256"
                },
                {
                  "internalType": "uint256",
                  "name": "Y",
                  "type": "uint256"
                }
              ],
              "internalType": "struct alt_bn128.G1Point[]",
              "name": "Ls",
              "type": "tuple[]"
            },
            {
              "components": [
                {
                  "internalType": "uint256",
                  "name": "X",
                  "type": "uint256"
                },
                {
                  "internalType": "uint256",
                  "name": "Y",
                  "type": "uint256"
                }
              ],
              "internalType": "struct alt_bn128.G1Point[]",
              "name": "Rs",
              "type": "tuple[]"
            },
            {
              "internalType": "uint256",
              "name": "a",
              "type": "uint256"
            },
            {
              "internalType": "uint256",
              "name": "b",
              "type": "uint256"
            }
          ],
          "internalType": "struct DualRingBulletproof.Args",
          "name": "sig",
          "type": "tuple"
        }
      ],
      "name": "from_external_verify",
      "outputs": [
        {
          "internalType": "bool",
          "name": "",
          "type": "bool"
        }
      ],
      "stateMutability": "view",
      "type": "function"
    }
  ],
  "bytecode": "0x60806040523480156200001157600080fd5b506200002460016200004260201b60201c565b60008082015181600001556020820151816001015590505062000519565b6200004c6200033e565b60007f30644e72e131a029b85045b68181585d97816a916871ca8d3c208c16d87cfd47836200007c9190620003d5565b905060006001826200008f91906200043c565b91506000805b816200020257600184620000aa919062000477565b93507f30644e72e131a029b85045b68181585d97816a916871ca8d3c208c16d87cfd4780620000de57620000dd620003a6565b5b84850990507f30644e72e131a029b85045b68181585d97816a916871ca8d3c208c16d87cfd4780620001155762000114620003a6565b5b84820990507f30644e72e131a029b85045b68181585d97816a916871ca8d3c208c16d87cfd47806200014c576200014b620003a6565b5b600382089050620001c181600460017f30644e72e131a029b85045b68181585d97816a916871ca8d3c208c16d87cfd4762000188919062000477565b620001949190620004b2565b7f30644e72e131a029b85045b68181585d97816a916871ca8d3c208c16d87cfd476200022260201b60201c565b9250807f30644e72e131a029b85045b68181585d97816a916871ca8d3c208c16d87cfd4780620001f657620001f5620003a6565b5b84850914915062000095565b604051806040016040528085815260200184815250945050505050919050565b60006200022e62000358565b620002386200037a565b602082600060068110620002515762000250620004ea565b5b602002018181525050602082600160068110620002735762000272620004ea565b5b602002018181525050602082600260068110620002955762000294620004ea565b5b6020020181815250508582600360068110620002b657620002b5620004ea565b5b6020020181815250508482600460068110620002d757620002d6620004ea565b5b6020020181815250508382600560068110620002f857620002f7620004ea565b5b60200201818152505060208160c0846005600019fa6200031757600080fd5b806000600181106200032e576200032d620004ea565b5b6020020151925050509392505050565b604051806040016040528060008152602001600081525090565b6040518060c00160405280600690602082028036833780820191505090505090565b6040518060200160405280600190602082028036833780820191505090505090565b6000819050919050565b7f4e487b7100000000000000000000000000000000000000000000000000000000600052601260045260246000fd5b6000620003e2826200039c565b9150620003ef836200039c565b925082620004025762000401620003a6565b5b828206905092915050565b7f4e487b7100000000000000000000000000000000000000000000000000000000600052601160045260246000fd5b600062000449826200039c565b915062000456836200039c565b92508282039050818111156200047157620004706200040d565b5b92915050565b600062000484826200039c565b915062000491836200039c565b9250828201905080821115620004ac57620004ab6200040d565b5b92915050565b6000620004bf826200039c565b9150620004cc836200039c565b925082620004df57620004de620003a6565b5b828204905092915050565b7f4e487b7100000000000000000000000000000000000000000000000000000000600052603260045260246000fd5b6140c580620005296000396000f3fe608060405234801561001057600080fd5b50600436106100b45760003560e01c80639ae5baa3116100715780639ae5baa3146101c5578063b37bfc84146101f5578063b5c5d37a14610225578063c71cb64b14610255578063ca16068414610285578063f909cb5b146102b5576100b4565b8063101ae41c146100b957806319dcfead146100e95780631a68fb501461011957806325563051146101355780636c468bb51461016557806397ee8a4714610195575b600080fd5b6100d360048036038101906100ce9190612c31565b6102e5565b6040516100e09190612ddd565b60405180910390f35b61010360048036038101906100fe91906130ed565b6106cd565b60405161011091906132a4565b60405180910390f35b610133600480360381019061012e91906132c6565b610752565b005b61014f600480360381019061014a91906132c6565b610843565b60405161015c9190613302565b60405180910390f35b61017f600480360381019061017a919061331d565b610867565b60405161018c91906133b0565b60405180910390f35b6101af60048036038101906101aa91906133cb565b610f0b565b6040516101bc91906133b0565b60405180910390f35b6101df60048036038101906101da9190612c31565b611047565b6040516101ec9190613554565b60405180910390f35b61020f600480360381019061020a9190613695565b611175565b60405161021c91906133b0565b60405180910390f35b61023f600480360381019061023a91906137d0565b611305565b60405161024c9190613869565b60405180910390f35b61026f600480360381019061026a919061391f565b611536565b60405161027c91906133b0565b60405180910390f35b61029f600480360381019061029a91906137d0565b611730565b6040516102ac91906133b0565b60405180910390f35b6102cf60048036038101906102ca9190613997565b61175f565b6040516102dc9190613a79565b60405180910390f35b6102ed61290a565b6005805490508210610334576040517f08c379a000000000000000000000000000000000000000000000000000000000815260040161032b90613b1e565b60405180910390fd5b6000426040516020016103479190613b5f565b6040516020818303038152906040528051906020012060001c9050600061038e60026040518060400160405290816000820154815260200160018201548152505083611d16565b9050600060048054905067ffffffffffffffff8111156103b1576103b0612ad0565b5b6040519080825280602002602001820160405280156103df5781602001602082028036833780820191505090505b5090506000805b60048054905081101561052557868114610512577f30644e72e131a029b85045b68181585d2833e84879b9709143e1f593f0000001600a4283604051602001610430929190613b7a565b6040516020818303038152906040528051906020012060001c901c6104559190613bd5565b83828151811061046857610467613c06565b5b60200260200101818152505082818151811061048757610486613c06565b5b60200260200101518261049a9190613c64565b91506000610502600483815481106104b5576104b4613c06565b5b9060005260206000209060020201604051806040016040529081600082015481526020016001820154815250508584815181106104f5576104f4613c06565b5b6020026020010151611d16565b905061050e8582611dce565b9450505b808061051d90613c98565b9150506103e6565b506000878051906020012090506000816105a96004805480602002602001604051908101604052809291908181526020016000905b828210156105a05783829060005260206000209060020201604051806040016040529081600082015481526020016001820154815250508152602001906001019061055a565b50505050611e82565b866000015187602001516040516020016105c69493929190613d7c565b6040516020818303038152906040528051906020012060001c90506105f3816105ee85611f35565b611f6a565b84898151811061060657610605613c06565b5b60200260200101818152505060007f30644e72e131a029b85045b68181585d2833e84879b9709143e1f593f00000018061064357610642613ba6565b5b858a8151811061065657610655613c06565b5b602002602001015160058b8154811061067257610671613c06565b5b906000526020600020015409905060006106948861068f84611f35565b611f6a565b90506000604051806080016040528088815260200183815260200185815260200189815250905080995050505050505050505092915050565b6106d5612938565b604051806101000160405280836000015181526020018360400151600001518152602001836040015160200151815260200183604001516040015181526020018360200151600001518152602001836020015160200151815260200183602001516040015181526020018360200151606001518152509050919050565b61075c6001611fa6565b6002600082015181600001556020820151816001015590505060005b8181101561083f57600060018261078f9190613c64565b9050600581908060018154018082558091505060019003906000526020600020016000909190919091505560006107e660026040518060400160405290816000820154815260200160018201548152505083611d16565b90506004819080600181540180825580915050600190039060005260206000209060020201600090919091909150600082015181600001556020820151816001015550505050808061083790613c98565b915050610778565b5050565b6005818154811061085357600080fd5b906000526020600020016000915090505481565b600080610878846000015151612164565b905060008167ffffffffffffffff81111561089657610895612ad0565b5b6040519080825280602002602001820160405280156108c45781602001602082028036833780820191505090505b50905060008267ffffffffffffffff8111156108e3576108e2612ad0565b5b6040519080825280602002602001820160405280156109115781602001602082028036833780820191505090505b50905060008073__alt_bn128_____________________________63aba8f70689602001516040518263ffffffff1660e01b81526004016109529190613e04565b602060405180830381865af415801561096f573d6000803e3d6000fd5b505050506040513d601f19601f820116820180604052508101906109939190613e4b565b73__alt_bn128_____________________________63aba8f70660006040518263ffffffff1660e01b81526004016109cb9190613ef0565b602060405180830381865af41580156109e8573d6000803e3d6000fd5b505050506040513d601f19601f82011682018060405250810190610a0c9190613e4b565b8960400151604051602001610a2393929190613f0b565b6040516020818303038152906040528051906020012060001c90506000610a848960200151610a7f600060405180604001604052908160008201548152602001600182015481525050610a7a8d6040015187612198565b611d16565b611dce565b90506001925060005b86811015610d655773__alt_bn128_____________________________63aba8f7068a600001518381518110610ac657610ac5613c06565b5b60200260200101516040518263ffffffff1660e01b8152600401610aea9190613e04565b602060405180830381865af4158015610b07573d6000803e3d6000fd5b505050506040513d601f19601f82011682018060405250810190610b2b9190613e4b565b73__alt_bn128_____________________________63aba8f7068b602001518481518110610b5c57610b5b613c06565b5b60200260200101516040518263ffffffff1660e01b8152600401610b809190613e04565b602060405180830381865af4158015610b9d573d6000803e3d6000fd5b505050506040513d601f19601f82011682018060405250810190610bc19190613e4b565b604051602001610bd2929190613f48565b6040516020818303038152906040528051906020012060001c868281518110610bfe57610bfd613c06565b5b602002602001018181525050610c2d868281518110610c2057610c1f613c06565b5b60200260200101516121d4565b858281518110610c4057610c3f613c06565b5b602002602001018181525050610cba82610cb58b600001518481518110610c6a57610c69613c06565b5b6020026020010151610cb08a8681518110610c8857610c87613c06565b5b60200260200101518b8781518110610ca357610ca2613c06565b5b6020026020010151612198565b611d16565b611dce565b9150610d2a82610d258b602001518481518110610cda57610cd9613c06565b5b6020026020010151610d20898681518110610cf857610cf7613c06565b5b60200260200101518a8781518110610d1357610d12613c06565b5b6020026020010151612198565b611d16565b611dce565b9150610d5084868381518110610d4357610d42613c06565b5b6020026020010151612198565b93508080610d5d90613c98565b915050610a8d565b506000610d918a60000151600081518110610d8357610d82613c06565b5b602002602001015185611d16565b90506000600190505b8a6000015151811015610e9f576001945060005b88811015610e5857610dc08282612234565b15610e0757610e0086896001848d610dd89190613f74565b610de29190613f74565b81518110610df357610df2613c06565b5b6020026020010151612198565b9550610e45565b610e4286886001848d610e1a9190613f74565b610e249190613f74565b81518110610e3557610e34613c06565b5b6020026020010151612198565b95505b8080610e5090613c98565b915050610dae565b50610e8a82610e858d600001518481518110610e7757610e76613c06565b5b602002602001015188611d16565b611dce565b91508080610e9790613c98565b915050610d9a565b50610ee081610edb610ed160006040518060400160405290816000820154815260200160018201548152505087611d16565b8c60600151611d16565b611dce565b9050610ef0818a60400151611d16565b9050610efc8282612247565b97505050505050505092915050565b6000801515610f2283604001518460200151610867565b151503610f325760009050611041565b6000610f73610f656002604051806040016040529081600082015481526020016001820154815250508560000151611d16565b846040015160200151611dce565b9050600084805190602001209050600081610ff86004805480602002602001604051908101604052809291908181526020016000905b82821015610fef57838290600052602060002090600202016040518060400160405290816000820154815260200160018201548152505081526020019060010190610fa9565b50505050611e82565b846000015185602001516040516020016110159493929190613d7c565b6040516020818303038152906040528051906020012060001c9050846040015160400151811493505050505b92915050565b61104f612983565b600061105b84846102e5565b905060006110956110906002604051806040016040529081600082015481526020016001820154815250508460200151611d16565b61226f565b9050600060405180606001604052806004805480602002602001604051908101604052809291908181526020016000905b8282101561110c578382906000526020600020906002020160405180604001604052908160008201548152602001600182015481525050815260200190600101906110c6565b505050508152602001611123848660600151611dce565b815260200184604001518152509050600061114282856000015161175f565b90506000604051806060016040528086602001518152602001838152602001848152509050809550505050505092915050565b600080604051806060016040528084602001518152602001846040015181526020018460600151815250905060006040518060800160405280856080015181526020018560a0015181526020018560c0015181526020018560e001518152509050600015156111e48383610867565b1515036111f6576000925050506112ff565b60006112336112296002604051806040016040529081600082015481526020016001820154815250508760000151611d16565b8660400151611dce565b90506000868051906020012090506000816112b86004805480602002602001604051908101604052809291908181526020016000905b828210156112af57838290600052602060002090600202016040518060400160405290816000820154815260200160018201548152505081526020019060010190611269565b50505050611e82565b846000015185602001516040516020016112d59493929190613d7c565b6040516020818303038152906040528051906020012060001c905086606001518114955050505050505b92915050565b61130d6129b0565b60006001835161131d9190613f74565b83511614611360576040517f08c379a00000000000000000000000000000000000000000000000000000000081526004016113579061401a565b60405180910390fd5b815167ffffffffffffffff81111561137b5761137a612ad0565b5b6040519080825280602002602001820160405280156113b457816020015b6113a16129d7565b8152602001906001900390816113995790505b50816000018190525060005b8251811015611413576113de6002826113d99190613c64565b611fa6565b826000015182815181106113f5576113f4613c06565b5b6020026020010181905250808061140b90613c98565b9150506113c0565b508160008151811061142857611427613c06565b5b602002602001015181604001818152505061147d816000015160008151811061145457611453613c06565b5b6020026020010151836000815181106114705761146f613c06565b5b6020026020010151611d16565b81602001819052506000600190505b8251811015611530576114bd82604001518483815181106114b0576114af613c06565b5b6020026020010151611f6a565b8260400181815250506115158260200151611510846000015184815181106114e8576114e7613c06565b5b602002602001015186858151811061150357611502613c06565b5b6020026020010151611d16565b611dce565b8260200181905250808061152890613c98565b91505061148c565b50919050565b60008060009050600083600001519050600084602001519050600061157b60026040518060400160405290816000820154815260200160018201548152505083611d16565b905060005b600480549050811015611663577f30644e72e131a029b85045b68181585d2833e84879b9709143e1f593f0000001806115bc576115bb613ba6565b5b8482815181106115cf576115ce613c06565b5b6020026020010151860894506000611641600483815481106115f4576115f3613c06565b5b90600052602060002090600202016040518060400160405290816000820154815260200160018201548152505086848151811061163457611633613c06565b5b6020026020010151611d16565b905061164d8184611dce565b925050808061165b90613c98565b915050611580565b506000878051906020012090506000816116e76004805480602002602001604051908101604052809291908181526020016000905b828210156116de57838290600052602060002090600202016040518060400160405290816000820154815260200160018201548152505081526020019060010190611698565b50505050611e82565b846000015185602001516040516020016117049493929190613d7c565b6040516020818303038152906040528051906020012060001c9050858114965050505050505092915050565b60008061173c83611305565b9050600061174a828561175f565b90506117568282610867565b92505050919050565b6117676129f1565b6000600183516117779190613f74565b835116146117ba576040517f08c379a00000000000000000000000000000000000000000000000000000000081526004016117b19061401a565b60405180910390fd5b60006117c68351612164565b90508067ffffffffffffffff8111156117e2576117e1612ad0565b5b60405190808252806020026020018201604052801561181b57816020015b6118086129d7565b8152602001906001900390816118005790505b5082600001819052508067ffffffffffffffff81111561183e5761183d612ad0565b5b60405190808252806020026020018201604052801561187757816020015b6118646129d7565b81526020019060019003908161185c5790505b508260200181905250600073__alt_bn128_____________________________63aba8f70686602001516040518263ffffffff1660e01b81526004016118bd9190613e04565b602060405180830381865af41580156118da573d6000803e3d6000fd5b505050506040513d601f19601f820116820180604052508101906118fe9190613e4b565b73__alt_bn128_____________________________63aba8f70660006040518263ffffffff1660e01b81526004016119369190613ef0565b602060405180830381865af4158015611953573d6000803e3d6000fd5b505050506040513d601f19601f820116820180604052508101906119779190613e4b565b866040015160405160200161198e93929190613f0b565b6040516020818303038152906040528051906020012060001c905060006119d560006040518060400160405290816000820154815260200160018201548152505083611d16565b90506000855167ffffffffffffffff8111156119f4576119f3612ad0565b5b604051908082528060200260200182016040528015611a225781602001602082028036833780820191505090505b5090506000865167ffffffffffffffff811115611a4257611a41612ad0565b5b604051908082528060200260200182016040528015611a7b57816020015b611a686129d7565b815260200190600190039081611a605790505b50905060005b8251811015611afb576001838281518110611a9f57611a9e613c06565b5b60200260200101818152505088600001518181518110611ac257611ac1613c06565b5b6020026020010151828281518110611add57611adc613c06565b5b60200260200101819052508080611af390613c98565b915050611a81565b50611b046129d7565b611b0c6129d7565b600080600090505b88811015611cbd57611b28858c888a612302565b8094508195505050838a600001518281518110611b4857611b47613c06565b5b6020026020010181905250828a602001518281518110611b6b57611b6a613c06565b5b602002602001018190525073__alt_bn128_____________________________63aba8f706856040518263ffffffff1660e01b8152600401611bad9190613e04565b602060405180830381865af4158015611bca573d6000803e3d6000fd5b505050506040513d601f19601f82011682018060405250810190611bee9190613e4b565b73__alt_bn128_____________________________63aba8f706856040518263ffffffff1660e01b8152600401611c259190613e04565b602060405180830381865af4158015611c42573d6000803e3d6000fd5b505050506040513d601f19601f82011682018060405250810190611c669190613e4b565b604051602001611c77929190613f48565b6040516020818303038152906040528051906020012060001c9150611c9e858c8885612560565b809850819d508297505050508080611cb590613c98565b915050611b14565b5089600081518110611cd257611cd1613c06565b5b602002602001015189604001818152505084600081518110611cf757611cf6613c06565b5b6020026020010151896060018181525050505050505050505092915050565b611d1e6129d7565b60018203611d2e57829050611dc8565b60028203611d4757611d408384611dce565b9050611dc8565b611d4f612a19565b836000015181600060038110611d6857611d67613c06565b5b602002018181525050836020015181600160038110611d8a57611d89613c06565b5b6020020181815250508281600260038110611da857611da7613c06565b5b6020020181815250506040826060836007600019fa611dc657600080fd5b505b92915050565b611dd66129d7565b611dde612a3b565b836000015181600060048110611df757611df6613c06565b5b602002018181525050836020015181600160048110611e1957611e18613c06565b5b602002018181525050826000015181600260048110611e3b57611e3a613c06565b5b602002018181525050826020015181600360048110611e5d57611e5c613c06565b5b6020020181815250506040826080836006600019fa611e7b57600080fd5b5092915050565b60608060005b8351811015611f2b576000848281518110611ea657611ea5613c06565b5b602002602001015160000151858381518110611ec557611ec4613c06565b5b602002602001015160200151604051602001611ee2929190613b7a565b60405160208183030381529060405290508281604051602001611f0692919061403a565b6040516020818303038152906040529250508080611f2390613c98565b915050611e88565b5080915050919050565b6000817f30644e72e131a029b85045b68181585d2833e84879b9709143e1f593f0000001611f639190613f74565b9050919050565b60007f30644e72e131a029b85045b68181585d2833e84879b9709143e1f593f000000180611f9b57611f9a613ba6565b5b828408905092915050565b611fae6129d7565b60007f30644e72e131a029b85045b68181585d97816a916871ca8d3c208c16d87cfd4783611fdc9190613bd5565b90506000600182611fed9190613f74565b91506000805b81612144576001846120059190613c64565b93507f30644e72e131a029b85045b68181585d97816a916871ca8d3c208c16d87cfd478061203657612035613ba6565b5b84850990507f30644e72e131a029b85045b68181585d97816a916871ca8d3c208c16d87cfd478061206a57612069613ba6565b5b84820990507f30644e72e131a029b85045b68181585d97816a916871ca8d3c208c16d87cfd478061209e5761209d613ba6565b5b60038208905061210781600460017f30644e72e131a029b85045b68181585d97816a916871ca8d3c208c16d87cfd476120d79190613c64565b6120e1919061405e565b7f30644e72e131a029b85045b68181585d97816a916871ca8d3c208c16d87cfd47612808565b9250807f30644e72e131a029b85045b68181585d97816a916871ca8d3c208c16d87cfd478061213957612138613ba6565b5b848509149150611ff3565b604051806040016040528085815260200184815250945050505050919050565b60005b60018211156121935760018161217d9190613c64565b905060028261218c919061405e565b9150612167565b919050565b60007f30644e72e131a029b85045b68181585d2833e84879b9709143e1f593f0000001806121c9576121c8613ba6565b5b828409905092915050565b600061222d8260027f30644e72e131a029b85045b68181585d2833e84879b9709143e1f593f00000016122079190613f74565b7f30644e72e131a029b85045b68181585d2833e84879b9709143e1f593f0000001612808565b9050919050565b60006001808385901c1614905092915050565b600081600001518360000151148015612267575081602001518360200151145b905092915050565b6122776129d7565b6000826000015114801561228f575060008260200151145b156122b257604051806040016040528060008152602001600081525090506122fd565b60405180604001604052808360000151815260200183602001517f30644e72e131a029b85045b68181585d97816a916871ca8d3c208c16d87cfd476122f79190613f74565b81525090505b919050565b61230a6129d7565b6123126129d7565b600060028651612322919061405e565b905060006123658760008151811061233d5761233c613c06565b5b602002602001015187848151811061235857612357613c06565b5b6020026020010151612198565b905060006123a888848151811061237f5761237e613c06565b5b60200260200101518860008151811061239b5761239a613c06565b5b6020026020010151612198565b90506000600190505b838110156124745761240b836124068b84815181106123d3576123d2613c06565b5b60200260200101518b85896123e89190613c64565b815181106123f9576123f8613c06565b5b6020026020010151612198565b611f6a565b925061245f8261245a8b84886124219190613c64565b8151811061243257612431613c06565b5b60200260200101518b858151811061244d5761244c613c06565b5b6020026020010151612198565b611f6a565b9150808061246c90613c98565b9150506123b1565b5061247f8683611d16565b945061248b8682611d16565b935060005b83811015612553576124ea866124e58c84886124ac9190613c64565b815181106124bd576124bc613c06565b5b60200260200101518c85815181106124d8576124d7613c06565b5b6020026020010151611d16565b611dce565b955061253e856125398c848151811061250657612505613c06565b5b60200260200101518c858961251b9190613c64565b8151811061252c5761252b613c06565b5b6020026020010151611d16565b611dce565b9450808061254b90613c98565b915050612490565b5050505094509492505050565b6060806060600060028751612575919061405e565b90506000612582866121d4565b90508167ffffffffffffffff81111561259e5761259d612ad0565b5b6040519080825280602002602001820160405280156125d757816020015b6125c46129d7565b8152602001906001900390816125bc5790505b5094508167ffffffffffffffff8111156125f4576125f3612ad0565b5b6040519080825280602002602001820160405280156126225781602001602082028036833780820191505090505b5093508167ffffffffffffffff81111561263f5761263e612ad0565b5b60405190808252806020026020018201604052801561266d5781602001602082028036833780820191505090505b50925060005b828110156127fb576126d66126a28b838151811061269457612693613c06565b5b602002602001015184611d16565b6126d18c84876126b29190613c64565b815181106126c3576126c2613c06565b5b60200260200101518a611d16565b611dce565b8682815181106126e9576126e8613c06565b5b602002602001018190525061274f61271b888b848151811061270e5761270d613c06565b5b6020026020010151612198565b61274a848c858861272c9190613c64565b8151811061273d5761273c613c06565b5b6020026020010151612198565b611f6a565b85828151811061276257612761613c06565b5b6020026020010181815250506127c9612795838a848151811061278857612787613c06565b5b6020026020010151612198565b6127c4898b85886127a69190613c64565b815181106127b7576127b6613c06565b5b6020026020010151612198565b611f6a565b8482815181106127dc576127db613c06565b5b60200260200101818152505080806127f390613c98565b915050612673565b5050509450945094915050565b6000612812612a5d565b61281a612a7f565b6020826000600681106128305761282f613c06565b5b60200201818152505060208260016006811061284f5761284e613c06565b5b60200201818152505060208260026006811061286e5761286d613c06565b5b602002018181525050858260036006811061288c5761288b613c06565b5b60200201818152505084826004600681106128aa576128a9613c06565b5b60200201818152505083826005600681106128c8576128c7613c06565b5b60200201818152505060208160c0846005600019fa6128e657600080fd5b806000600181106128fa576128f9613c06565b5b6020020151925050509392505050565b60405180608001604052806060815260200160008152602001600081526020016129326129d7565b81525090565b604051806101000160405280600081526020016060815260200161295a6129d7565b815260200160008152602001606081526020016060815260200160008152602001600081525090565b60405180606001604052806000815260200161299d6129f1565b81526020016129aa6129b0565b81525090565b6040518060600160405280606081526020016129ca6129d7565b8152602001600081525090565b604051806040016040528060008152602001600081525090565b6040518060800160405280606081526020016060815260200160008152602001600081525090565b6040518060600160405280600390602082028036833780820191505090505090565b6040518060800160405280600490602082028036833780820191505090505090565b6040518060c00160405280600690602082028036833780820191505090505090565b6040518060200160405280600190602082028036833780820191505090505090565b6000604051905090565b600080fd5b600080fd5b600080fd5b600080fd5b6000601f19601f8301169050919050565b7f4e487b7100000000000000000000000000000000000000000000000000000000600052604160045260246000fd5b612b0882612abf565b810181811067ffffffffffffffff82111715612b2757612b26612ad0565b5b80604052505050565b6000612b3a612aa1565b9050612b468282612aff565b919050565b600067ffffffffffffffff821115612b6657612b65612ad0565b5b612b6f82612abf565b9050602081019050919050565b82818337600083830152505050565b6000612b9e612b9984612b4b565b612b30565b905082815260208101848484011115612bba57612bb9612aba565b5b612bc5848285612b7c565b509392505050565b600082601f830112612be257612be1612ab5565b5b8135612bf2848260208601612b8b565b91505092915050565b6000819050919050565b612c0e81612bfb565b8114612c1957600080fd5b50565b600081359050612c2b81612c05565b92915050565b60008060408385031215612c4857612c47612aab565b5b600083013567ffffffffffffffff811115612c6657612c65612ab0565b5b612c7285828601612bcd565b9250506020612c8385828601612c1c565b9150509250929050565b600081519050919050565b600082825260208201905092915050565b6000819050602082019050919050565b612cc281612bfb565b82525050565b6000612cd48383612cb9565b60208301905092915050565b6000602082019050919050565b6000612cf882612c8d565b612d028185612c98565b9350612d0d83612ca9565b8060005b83811015612d3e578151612d258882612cc8565b9750612d3083612ce0565b925050600181019050612d11565b5085935050505092915050565b604082016000820151612d616000850182612cb9565b506020820151612d746020850182612cb9565b50505050565b600060a0830160008301518482036000860152612d978282612ced565b9150506020830151612dac6020860182612cb9565b506040830151612dbf6040860182612cb9565b506060830151612dd26060860182612d4b565b508091505092915050565b60006020820190508181036000830152612df78184612d7a565b905092915050565b600080fd5b600080fd5b600067ffffffffffffffff821115612e2457612e23612ad0565b5b602082029050602081019050919050565b600080fd5b600060408284031215612e5057612e4f612dff565b5b612e5a6040612b30565b90506000612e6a84828501612c1c565b6000830152506020612e7e84828501612c1c565b60208301525092915050565b6000612e9d612e9884612e09565b612b30565b90508083825260208201905060408402830185811115612ec057612ebf612e35565b5b835b81811015612ee95780612ed58882612e3a565b845260208401935050604081019050612ec2565b5050509392505050565b600082601f830112612f0857612f07612ab5565b5b8135612f18848260208601612e8a565b91505092915050565b600060808284031215612f3757612f36612dff565b5b612f416080612b30565b9050600082013567ffffffffffffffff811115612f6157612f60612e04565b5b612f6d84828501612ef3565b600083015250602082013567ffffffffffffffff811115612f9157612f90612e04565b5b612f9d84828501612ef3565b6020830152506040612fb184828501612c1c565b6040830152506060612fc584828501612c1c565b60608301525092915050565b600060808284031215612fe757612fe6612dff565b5b612ff16060612b30565b9050600082013567ffffffffffffffff81111561301157613010612e04565b5b61301d84828501612ef3565b600083015250602061303184828501612e3a565b602083015250606061304584828501612c1c565b60408301525092915050565b60006060828403121561306757613066612dff565b5b6130716060612b30565b9050600061308184828501612c1c565b600083015250602082013567ffffffffffffffff8111156130a5576130a4612e04565b5b6130b184828501612f21565b602083015250604082013567ffffffffffffffff8111156130d5576130d4612e04565b5b6130e184828501612fd1565b60408301525092915050565b60006020828403121561310357613102612aab565b5b600082013567ffffffffffffffff81111561312157613120612ab0565b5b61312d84828501613051565b91505092915050565b600081519050919050565b600082825260208201905092915050565b6000819050602082019050919050565b600061316e8383612d4b565b60408301905092915050565b6000602082019050919050565b600061319282613136565b61319c8185613141565b93506131a783613152565b8060005b838110156131d85781516131bf8882613162565b97506131ca8361317a565b9250506001810190506131ab565b5085935050505092915050565b6000610120830160008301516131fe6000860182612cb9565b50602083015184820360208601526132168282613187565b915050604083015161322b6040860182612d4b565b50606083015161323e6080860182612cb9565b50608083015184820360a08601526132568282613187565b91505060a083015184820360c08601526132708282613187565b91505060c083015161328560e0860182612cb9565b5060e0830151613299610100860182612cb9565b508091505092915050565b600060208201905081810360008301526132be81846131e5565b905092915050565b6000602082840312156132dc576132db612aab565b5b60006132ea84828501612c1c565b91505092915050565b6132fc81612bfb565b82525050565b600060208201905061331760008301846132f3565b92915050565b6000806040838503121561333457613333612aab565b5b600083013567ffffffffffffffff81111561335257613351612ab0565b5b61335e85828601612fd1565b925050602083013567ffffffffffffffff81111561337f5761337e612ab0565b5b61338b85828601612f21565b9150509250929050565b60008115159050919050565b6133aa81613395565b82525050565b60006020820190506133c560008301846133a1565b92915050565b600080604083850312156133e2576133e1612aab565b5b600083013567ffffffffffffffff811115613400576133ff612ab0565b5b61340c85828601612bcd565b925050602083013567ffffffffffffffff81111561342d5761342c612ab0565b5b61343985828601613051565b9150509250929050565b600060808301600083015184820360008601526134608282613187565b9150506020830151848203602086015261347a8282613187565b915050604083015161348f6040860182612cb9565b5060608301516134a26060860182612cb9565b508091505092915050565b600060808301600083015184820360008601526134ca8282613187565b91505060208301516134df6020860182612d4b565b5060408301516134f26060860182612cb9565b508091505092915050565b60006060830160008301516135156000860182612cb9565b506020830151848203602086015261352d8282613443565b9150506040830151848203604086015261354782826134ad565b9150508091505092915050565b6000602082019050818103600083015261356e81846134fd565b905092915050565b6000610120828403121561358d5761358c612dff565b5b613598610100612b30565b905060006135a884828501612c1c565b600083015250602082013567ffffffffffffffff8111156135cc576135cb612e04565b5b6135d884828501612ef3565b60208301525060406135ec84828501612e3a565b604083015250608061360084828501612c1c565b60608301525060a082013567ffffffffffffffff81111561362457613623612e04565b5b61363084828501612ef3565b60808301525060c082013567ffffffffffffffff81111561365457613653612e04565b5b61366084828501612ef3565b60a08301525060e061367484828501612c1c565b60c08301525061010061368984828501612c1c565b60e08301525092915050565b600080604083850312156136ac576136ab612aab565b5b600083013567ffffffffffffffff8111156136ca576136c9612ab0565b5b6136d685828601612bcd565b925050602083013567ffffffffffffffff8111156136f7576136f6612ab0565b5b61370385828601613576565b9150509250929050565b600067ffffffffffffffff82111561372857613727612ad0565b5b602082029050602081019050919050565b600061374c6137478461370d565b612b30565b9050808382526020820190506020840283018581111561376f5761376e612e35565b5b835b8181101561379857806137848882612c1c565b845260208401935050602081019050613771565b5050509392505050565b600082601f8301126137b7576137b6612ab5565b5b81356137c7848260208601613739565b91505092915050565b6000602082840312156137e6576137e5612aab565b5b600082013567ffffffffffffffff81111561380457613803612ab0565b5b613810848285016137a2565b91505092915050565b600060808301600083015184820360008601526138368282613187565b915050602083015161384b6020860182612d4b565b50604083015161385e6060860182612cb9565b508091505092915050565b600060208201905081810360008301526138838184613819565b905092915050565b600060a082840312156138a1576138a0612dff565b5b6138ab6080612b30565b9050600082013567ffffffffffffffff8111156138cb576138ca612e04565b5b6138d7848285016137a2565b60008301525060206138eb84828501612c1c565b60208301525060406138ff84828501612c1c565b604083015250606061391384828501612e3a565b60608301525092915050565b6000806040838503121561393657613935612aab565b5b600083013567ffffffffffffffff81111561395457613953612ab0565b5b61396085828601612bcd565b925050602083013567ffffffffffffffff81111561398157613980612ab0565b5b61398d8582860161388b565b9150509250929050565b600080604083850312156139ae576139ad612aab565b5b600083013567ffffffffffffffff8111156139cc576139cb612ab0565b5b6139d885828601612fd1565b925050602083013567ffffffffffffffff8111156139f9576139f8612ab0565b5b613a05858286016137a2565b9150509250929050565b60006080830160008301518482036000860152613a2c8282613187565b91505060208301518482036020860152613a468282613187565b9150506040830151613a5b6040860182612cb9565b506060830151613a6e6060860182612cb9565b508091505092915050565b60006020820190508181036000830152613a938184613a0f565b905092915050565b600082825260208201905092915050565b7f4475616c52696e673a20496e76616c69642070726976617465206b657920696e60008201527f6465780000000000000000000000000000000000000000000000000000000000602082015250565b6000613b08602383613a9b565b9150613b1382613aac565b604082019050919050565b60006020820190508181036000830152613b3781613afb565b9050919050565b6000819050919050565b613b59613b5482612bfb565b613b3e565b82525050565b6000613b6b8284613b48565b60208201915081905092915050565b6000613b868285613b48565b602082019150613b968284613b48565b6020820191508190509392505050565b7f4e487b7100000000000000000000000000000000000000000000000000000000600052601260045260246000fd5b6000613be082612bfb565b9150613beb83612bfb565b925082613bfb57613bfa613ba6565b5b828206905092915050565b7f4e487b7100000000000000000000000000000000000000000000000000000000600052603260045260246000fd5b7f4e487b7100000000000000000000000000000000000000000000000000000000600052601160045260246000fd5b6000613c6f82612bfb565b9150613c7a83612bfb565b9250828201905080821115613c9257613c91613c35565b5b92915050565b6000613ca382612bfb565b91507fffffffffffffffffffffffffffffffffffffffffffffffffffffffffffffffff8203613cd557613cd4613c35565b5b600182019050919050565b6000819050919050565b6000819050919050565b613d05613d0082613ce0565b613cea565b82525050565b600081519050919050565b600081905092915050565b60005b83811015613d3f578082015181840152602081019050613d24565b60008484015250505050565b6000613d5682613d0b565b613d608185613d16565b9350613d70818560208601613d21565b80840191505092915050565b6000613d888287613cf4565b602082019150613d988286613d4b565b9150613da48285613b48565b602082019150613db48284613b48565b60208201915081905095945050505050565b613dcf81612bfb565b82525050565b604082016000820151613deb6000850182613dc6565b506020820151613dfe6020850182613dc6565b50505050565b6000604082019050613e196000830184613dd5565b92915050565b613e2881613ce0565b8114613e3357600080fd5b50565b600081519050613e4581613e1f565b92915050565b600060208284031215613e6157613e60612aab565b5b6000613e6f84828501613e36565b91505092915050565b60008160001c9050919050565b6000819050919050565b6000613ea2613e9d83613e78565b613e85565b9050919050565b604082016000808301549050613ebe81613e8f565b613ecb6000860182613dc6565b5060018301549050613edc81613e8f565b613ee96020860182613dc6565b5050505050565b6000604082019050613f056000830184613ea9565b92915050565b6000613f178286613cf4565b602082019150613f278285613cf4565b602082019150613f378284613b48565b602082019150819050949350505050565b6000613f548285613cf4565b602082019150613f648284613cf4565b6020820191508190509392505050565b6000613f7f82612bfb565b9150613f8a83612bfb565b9250828203905081811115613fa257613fa1613c35565b5b92915050565b7f766563746f72206c656e6774682073686f756c64206265206120706f7765722060008201527f6f66203200000000000000000000000000000000000000000000000000000000602082015250565b6000614004602483613a9b565b915061400f82613fa8565b604082019050919050565b6000602082019050818103600083015261403381613ff7565b9050919050565b60006140468285613d4b565b91506140528284613d4b565b91508190509392505050565b600061406982612bfb565b915061407483612bfb565b92508261408457614083613ba6565b5b82820490509291505056fea2646970667358221220b93a856e9537d3058435762be8327a74680bf5a05b4940efeca2e507734a302164736f6c63430008130033",
  "immutableReferences": {},
  "source": "// SPDX-License-Identifier: GPL-3.0\r\npragma solidity >=0.7.0 <0.9.0;\r\n\r\nimport \"./alt_bn128.sol\";\r\nimport \"./nisa.sol\";\r\n\r\ncontract DualRingBulletproof is NISA{\r\n\r\n    using alt_bn128 for uint256;\r\n\tusing alt_bn128 for alt_bn128.G1Point;\r\n    \r\n    struct Response{\r\n        uint256[] c;\r\n        uint256 z;\r\n        uint256 sum;\r\n        alt_bn128.G1Point R;\r\n    }\r\n\r\n    struct Signature{\r\n        uint256 z;\r\n        Proof pi;\r\n        Param pa;\r\n    }\r\n\r\n    alt_bn128.G1Point g; // group generator\r\n\r\n    alt_bn128.G1Point[] pks; //publicKeys for alt_bn128 point\r\n\r\n    uint256[] public sks; // private keys\r\n\r\n\r\n    // uint256[2]  S ;\r\n    constructor() NISA() {}\r\n\r\n    // Function to generate a new private key\r\n    function generateKeys(uint _ring_size) public {\r\n\r\n        // uint256 seed = uint256(keccak256(abi.encodePacked(block.timestamp)));\r\n\t\tg = alt_bn128.uintToCurvePoint(1);\r\n        for (uint i = 0; i < _ring_size; i++) {\r\n            uint k = i+1; \r\n            sks.push(k);\r\n\r\n            alt_bn128.G1Point memory pk = alt_bn128.mul(g,k);\r\n            pks.push(pk);\r\n        }\r\n        \r\n    }\r\n\r\n    function packArray(alt_bn128.G1Point[] memory arr) internal pure returns (bytes memory) {\r\n        bytes memory packed;\r\n        for (uint256 i = 0; i < arr.length; i++) {\r\n            bytes memory temp = abi.encodePacked(arr[i].X, arr[i].Y);\r\n            packed = abi.encodePacked(packed, temp);\r\n        }\r\n        return packed;\r\n    }\r\n\r\n\r\n\r\n    // Function to sign a message using a private key\r\n    function basic_sign(string memory _message, uint _privateKeyIndex)  public view returns (Response memory) {\r\n        require(_privateKeyIndex < sks.length, \"DualRing: Invalid private key index\");\r\n\r\n\r\n        uint256 r = uint256(keccak256(abi.encodePacked(block.timestamp))); // random number, for testing purpose set it fixed\r\n\r\n        // emit LogVariable(r);\r\n        \r\n        // commitment point R \r\n        alt_bn128.G1Point memory R = alt_bn128.mul(g,r); \r\n       \r\n        uint256[] memory cArray = new uint256[](pks.length);\r\n\r\n\r\n        uint256 sumExceptJ = 0;\r\n        for (uint256 i = 0 ; i < pks.length ; i ++){\r\n            if (i!=  _privateKeyIndex ){\r\n\r\n                cArray[i] = (uint256(keccak256(abi.encodePacked(block.timestamp,i)))>>10)% alt_bn128.q;\r\n                sumExceptJ = sumExceptJ +  cArray[i];\r\n\r\n                alt_bn128.G1Point memory temp = alt_bn128.mul(pks[i],cArray[i]);\r\n                R = alt_bn128.add (R,temp);\r\n\r\n            }\r\n        }\r\n\r\n\r\n        bytes32 messageHash =  keccak256(bytes(_message));\r\n        uint256 c = (uint256(bytes32(keccak256(abi.encodePacked(messageHash, packArray(pks),R.X, R.Y)))));\r\n\r\n        cArray[_privateKeyIndex] = alt_bn128.add(c, alt_bn128.neg(sumExceptJ ));\r\n\r\n        uint256 p = mulmod(sks[_privateKeyIndex] , cArray[_privateKeyIndex],alt_bn128.q);\r\n\r\n        uint256 z = alt_bn128.add(r, alt_bn128.neg(p));\r\n\r\n        Response memory sig = Response({\r\n            c: cArray,\r\n            z: z, \r\n            sum: c,\r\n            R: R \r\n        });\r\n\r\n        return sig;\r\n    }\r\n\r\n\r\n    // verify a message with the given signature\r\n    function basic_verify(string memory _message, Response memory sig) public view returns (bool) {\r\n\r\n        uint256 sumExceptJ = 0;\r\n        \r\n        uint256[] memory cArray = sig.c;\r\n        uint256 z = sig.z;\r\n\r\n        alt_bn128.G1Point memory R = alt_bn128.mul(g,z);\r\n\r\n        for (uint256 i = 0; i < pks.length ; i++){\r\n            sumExceptJ = addmod(sumExceptJ,cArray[i],alt_bn128.q);\r\n\r\n            alt_bn128.G1Point memory tempV = alt_bn128.mul(pks[i], cArray[i]);\r\n\r\n            R = alt_bn128.add(tempV,R);\r\n        }\r\n\r\n\r\n        bytes32 messageHash =  keccak256(bytes(_message));\r\n        uint256 c = (uint256(bytes32(keccak256(abi.encodePacked(messageHash, packArray(pks),R.X, R.Y)))));\r\n\r\n\r\n        return c == sumExceptJ;\r\n    }\r\n\r\n\r\n    // sign a message with bulletproof\r\n    function full_sign(string memory _message, uint _privateKeyIndex)  public view returns (Signature memory ) {\r\n        Response memory re = basic_sign(_message, _privateKeyIndex);\r\n        alt_bn128.G1Point memory temp =  alt_bn128.neg(alt_bn128.mul(g,re.z));\r\n\r\n        Param memory param =Param({\r\n            Gs : pks,\r\n            P : alt_bn128.add(temp,re.R),\r\n            c : re.sum  \r\n        });\r\n\r\n        Proof memory p = prove(param, re.c);// use bulletproof to reduce the signature size;\r\n\r\n        Signature memory sig = Signature({\r\n            z : re.z,\r\n            pi : p,\r\n            pa : param\r\n        });\r\n\r\n        return sig;\r\n    }\r\n\r\n    struct Args {\r\n        uint256 z;\r\n\t\talt_bn128.G1Point[] Gs; \r\n\t\talt_bn128.G1Point P; \r\n\t\tuint256 c;\r\n\t\talt_bn128.G1Point[] Ls;\r\n\t\talt_bn128.G1Point[] Rs;\r\n\t\tuint256 a;\r\n\t\tuint256 b;\r\n    }\r\n    \r\n\r\n    function get_para(Signature memory sig) public pure returns (Args memory args){\r\n        args = Args({\r\n            z: sig.z,\r\n            Gs: sig.pa.Gs,\r\n            P: sig.pa.P,\r\n            c: sig.pa.c,\r\n            Ls: sig.pi.Ls,\r\n            Rs: sig.pi.Rs,\r\n            a: sig.pi.a,\r\n            b: sig.pi.b\r\n        });\r\n    }\r\n\r\n\r\n    // verify the message and proof generated from the full_sign funnction\r\n    function full_verify(string memory _message, Signature memory sig )  public view returns (bool ) {\r\n\r\n        if (verify(sig.pa, sig.pi) == false){\r\n            return false;\r\n        }\r\n\r\n        alt_bn128.G1Point memory R =  alt_bn128.add(alt_bn128.mul(g,sig.z),sig.pa.P);\r\n\r\n        // alt_bn128.G1Point memory R = response.s.R;\r\n        bytes32 messageHash =  keccak256(bytes(_message));\r\n        uint256 c = (uint256(bytes32(keccak256(abi.encodePacked(messageHash, packArray(pks),R.X, R.Y)))));\r\n\r\n        return c== sig.pa.c;\r\n\r\n    }\r\n\r\n\r\n    function from_external_verify(string memory _message, Args memory sig )  public view returns (bool ) {\r\n\r\n        Param memory pa =Param({\r\n            Gs : sig.Gs,\r\n            P: sig.P,\r\n            c: sig.c\r\n            });\r\n        Proof memory pi =Proof({\r\n            Ls: sig.Ls,\r\n            Rs: sig.Rs,\r\n            a: sig.a,\r\n            b: sig.b  \r\n            });\r\n            \r\n        if (verify(pa, pi) == false){\r\n            return false;\r\n        }\r\n\r\n        alt_bn128.G1Point memory R =  alt_bn128.add(alt_bn128.mul(g,sig.z),sig.P);\r\n\r\n        // alt_bn128.G1Point memory R = response.s.R;\r\n        bytes32 messageHash =  keccak256(bytes(_message));\r\n        uint256 c = (uint256(bytes32(keccak256(abi.encodePacked(messageHash, packArray(pks),R.X, R.Y)))));\r\n\r\n        return c== sig.c;\r\n                \r\n    }\r\n}",
  "sourcePath": "/Users/qian/Desktop/Y4/COMP4550/ZKP-Blockchain-new/contracts/DualRingBulletproof.sol",
  "compiler": {
    "name": "solc",
    "version": "0.8.19+commit.7dd6d404.Emscripten.clang"
  },
  "schemaVersion": "3.4.13",
  "updatedAt": "2023-06-25T14:23:18.349Z",
  "devdoc": {
    "kind": "dev",
    "methods": {},
    "version": 1
  },
  "userdoc": {
    "kind": "user",
    "methods": {
      "generateParam(uint256[])": {
        "notice": "Gs : public keys P : prod_i (g_i ^ a_i) c : sum_i a_i"
      },
      "test(uint256[])": {
        "notice": "test correctness "
      }
    },
    "version": 1
  }
}