{
  "contractName": "DualRingEC",
  "abi": [
    {
      "inputs": [],
      "stateMutability": "nonpayable",
      "type": "constructor"
    },
    {
      "inputs": [
        {
          "internalType": "uint256",
          "name": "ring_size",
          "type": "uint256"
        },
        {
          "internalType": "uint256[2]",
          "name": "skj",
          "type": "uint256[2]"
        }
      ],
      "name": "setup",
      "outputs": [
        {
          "components": [
            {
              "components": [
                {
                  "internalType": "uint256",
                  "name": "X",
                  "type": "uint256"
                },
                {
                  "internalType": "uint256",
                  "name": "Y",
                  "type": "uint256"
                }
              ],
              "internalType": "struct alt_bn128.G1Point",
              "name": "g",
              "type": "tuple"
            },
            {
              "components": [
                {
                  "internalType": "uint256",
                  "name": "X",
                  "type": "uint256"
                },
                {
                  "internalType": "uint256",
                  "name": "Y",
                  "type": "uint256"
                }
              ],
              "internalType": "struct alt_bn128.G1Point[]",
              "name": "pks",
              "type": "tuple[]"
            }
          ],
          "internalType": "struct DualRing.Param",
          "name": "pp",
          "type": "tuple"
        }
      ],
      "stateMutability": "view",
      "type": "function"
    },
    {
      "inputs": [
        {
          "components": [
            {
              "components": [
                {
                  "internalType": "uint256",
                  "name": "X",
                  "type": "uint256"
                },
                {
                  "internalType": "uint256",
                  "name": "Y",
                  "type": "uint256"
                }
              ],
              "internalType": "struct alt_bn128.G1Point",
              "name": "g",
              "type": "tuple"
            },
            {
              "components": [
                {
                  "internalType": "uint256",
                  "name": "X",
                  "type": "uint256"
                },
                {
                  "internalType": "uint256",
                  "name": "Y",
                  "type": "uint256"
                }
              ],
              "internalType": "struct alt_bn128.G1Point[]",
              "name": "pks",
              "type": "tuple[]"
            }
          ],
          "internalType": "struct DualRing.Param",
          "name": "pp",
          "type": "tuple"
        },
        {
          "internalType": "bytes",
          "name": "m",
          "type": "bytes"
        },
        {
          "internalType": "uint256[2]",
          "name": "skj",
          "type": "uint256[2]"
        }
      ],
      "name": "sign",
      "outputs": [
        {
          "components": [
            {
              "internalType": "uint256[]",
              "name": "cs",
              "type": "uint256[]"
            },
            {
              "internalType": "uint256",
              "name": "z",
              "type": "uint256"
            }
          ],
          "internalType": "struct DualRing.Sig",
          "name": "sig",
          "type": "tuple"
        },
        {
          "internalType": "uint256",
          "name": "c",
          "type": "uint256"
        },
        {
          "components": [
            {
              "internalType": "uint256",
              "name": "X",
              "type": "uint256"
            },
            {
              "internalType": "uint256",
              "name": "Y",
              "type": "uint256"
            }
          ],
          "internalType": "struct alt_bn128.G1Point",
          "name": "R",
          "type": "tuple"
        }
      ],
      "stateMutability": "view",
      "type": "function"
    },
    {
      "inputs": [
        {
          "components": [
            {
              "components": [
                {
                  "internalType": "uint256",
                  "name": "X",
                  "type": "uint256"
                },
                {
                  "internalType": "uint256",
                  "name": "Y",
                  "type": "uint256"
                }
              ],
              "internalType": "struct alt_bn128.G1Point",
              "name": "g",
              "type": "tuple"
            },
            {
              "components": [
                {
                  "internalType": "uint256",
                  "name": "X",
                  "type": "uint256"
                },
                {
                  "internalType": "uint256",
                  "name": "Y",
                  "type": "uint256"
                }
              ],
              "internalType": "struct alt_bn128.G1Point[]",
              "name": "pks",
              "type": "tuple[]"
            }
          ],
          "internalType": "struct DualRing.Param",
          "name": "pp",
          "type": "tuple"
        },
        {
          "internalType": "bytes",
          "name": "m",
          "type": "bytes"
        },
        {
          "components": [
            {
              "internalType": "uint256[]",
              "name": "cs",
              "type": "uint256[]"
            },
            {
              "internalType": "uint256",
              "name": "z",
              "type": "uint256"
            }
          ],
          "internalType": "struct DualRing.Sig",
          "name": "sig",
          "type": "tuple"
        }
      ],
      "name": "verify",
      "outputs": [
        {
          "internalType": "bool",
          "name": "",
          "type": "bool"
        }
      ],
      "stateMutability": "view",
      "type": "function"
    },
    {
      "inputs": [
        {
          "internalType": "uint256",
          "name": "ring_size",
          "type": "uint256"
        },
        {
          "internalType": "uint256[2]",
          "name": "skj",
          "type": "uint256[2]"
        }
      ],
      "name": "setupEC",
      "outputs": [
        {
          "components": [
            {
              "components": [
                {
                  "components": [
                    {
                      "internalType": "uint256",
                      "name": "X",
                      "type": "uint256"
                    },
                    {
                      "internalType": "uint256",
                      "name": "Y",
                      "type": "uint256"
                    }
                  ],
                  "internalType": "struct alt_bn128.G1Point",
                  "name": "g",
                  "type": "tuple"
                },
                {
                  "components": [
                    {
                      "internalType": "uint256",
                      "name": "X",
                      "type": "uint256"
                    },
                    {
                      "internalType": "uint256",
                      "name": "Y",
                      "type": "uint256"
                    }
                  ],
                  "internalType": "struct alt_bn128.G1Point[]",
                  "name": "pks",
                  "type": "tuple[]"
                }
              ],
              "internalType": "struct DualRing.Param",
              "name": "dr_pp",
              "type": "tuple"
            },
            {
              "components": [
                {
                  "internalType": "uint256",
                  "name": "X",
                  "type": "uint256"
                },
                {
                  "internalType": "uint256",
                  "name": "Y",
                  "type": "uint256"
                }
              ],
              "internalType": "struct alt_bn128.G1Point",
              "name": "u",
              "type": "tuple"
            }
          ],
          "internalType": "struct DualRingEC.ParamEC",
          "name": "pp",
          "type": "tuple"
        }
      ],
      "stateMutability": "view",
      "type": "function"
    },
    {
      "inputs": [
        {
          "components": [
            {
              "internalType": "uint256",
              "name": "X",
              "type": "uint256"
            },
            {
              "internalType": "uint256",
              "name": "Y",
              "type": "uint256"
            }
          ],
          "internalType": "struct alt_bn128.G1Point",
          "name": "g",
          "type": "tuple"
        },
        {
          "components": [
            {
              "internalType": "uint256",
              "name": "X",
              "type": "uint256"
            },
            {
              "internalType": "uint256",
              "name": "Y",
              "type": "uint256"
            }
          ],
          "internalType": "struct alt_bn128.G1Point[]",
          "name": "pks",
          "type": "tuple[]"
        },
        {
          "components": [
            {
              "internalType": "uint256",
              "name": "X",
              "type": "uint256"
            },
            {
              "internalType": "uint256",
              "name": "Y",
              "type": "uint256"
            }
          ],
          "internalType": "struct alt_bn128.G1Point",
          "name": "u",
          "type": "tuple"
        }
      ],
      "name": "param",
      "outputs": [
        {
          "components": [
            {
              "components": [
                {
                  "components": [
                    {
                      "internalType": "uint256",
                      "name": "X",
                      "type": "uint256"
                    },
                    {
                      "internalType": "uint256",
                      "name": "Y",
                      "type": "uint256"
                    }
                  ],
                  "internalType": "struct alt_bn128.G1Point",
                  "name": "g",
                  "type": "tuple"
                },
                {
                  "components": [
                    {
                      "internalType": "uint256",
                      "name": "X",
                      "type": "uint256"
                    },
                    {
                      "internalType": "uint256",
                      "name": "Y",
                      "type": "uint256"
                    }
                  ],
                  "internalType": "struct alt_bn128.G1Point[]",
                  "name": "pks",
                  "type": "tuple[]"
                }
              ],
              "internalType": "struct DualRing.Param",
              "name": "dr_pp",
              "type": "tuple"
            },
            {
              "components": [
                {
                  "internalType": "uint256",
                  "name": "X",
                  "type": "uint256"
                },
                {
                  "internalType": "uint256",
                  "name": "Y",
                  "type": "uint256"
                }
              ],
              "internalType": "struct alt_bn128.G1Point",
              "name": "u",
              "type": "tuple"
            }
          ],
          "internalType": "struct DualRingEC.ParamEC",
          "name": "",
          "type": "tuple"
        }
      ],
      "stateMutability": "pure",
      "type": "function"
    },
    {
      "inputs": [
        {
          "components": [
            {
              "components": [
                {
                  "components": [
                    {
                      "internalType": "uint256",
                      "name": "X",
                      "type": "uint256"
                    },
                    {
                      "internalType": "uint256",
                      "name": "Y",
                      "type": "uint256"
                    }
                  ],
                  "internalType": "struct alt_bn128.G1Point",
                  "name": "g",
                  "type": "tuple"
                },
                {
                  "components": [
                    {
                      "internalType": "uint256",
                      "name": "X",
                      "type": "uint256"
                    },
                    {
                      "internalType": "uint256",
                      "name": "Y",
                      "type": "uint256"
                    }
                  ],
                  "internalType": "struct alt_bn128.G1Point[]",
                  "name": "pks",
                  "type": "tuple[]"
                }
              ],
              "internalType": "struct DualRing.Param",
              "name": "dr_pp",
              "type": "tuple"
            },
            {
              "components": [
                {
                  "internalType": "uint256",
                  "name": "X",
                  "type": "uint256"
                },
                {
                  "internalType": "uint256",
                  "name": "Y",
                  "type": "uint256"
                }
              ],
              "internalType": "struct alt_bn128.G1Point",
              "name": "u",
              "type": "tuple"
            }
          ],
          "internalType": "struct DualRingEC.ParamEC",
          "name": "pp",
          "type": "tuple"
        },
        {
          "internalType": "bytes",
          "name": "m",
          "type": "bytes"
        },
        {
          "internalType": "uint256[2]",
          "name": "skj",
          "type": "uint256[2]"
        }
      ],
      "name": "signEC",
      "outputs": [
        {
          "components": [
            {
              "internalType": "uint256",
              "name": "z",
              "type": "uint256"
            },
            {
              "components": [
                {
                  "internalType": "uint256",
                  "name": "X",
                  "type": "uint256"
                },
                {
                  "internalType": "uint256",
                  "name": "Y",
                  "type": "uint256"
                }
              ],
              "internalType": "struct alt_bn128.G1Point",
              "name": "R",
              "type": "tuple"
            },
            {
              "components": [
                {
                  "components": [
                    {
                      "internalType": "uint256",
                      "name": "X",
                      "type": "uint256"
                    },
                    {
                      "internalType": "uint256",
                      "name": "Y",
                      "type": "uint256"
                    }
                  ],
                  "internalType": "struct alt_bn128.G1Point[]",
                  "name": "Ls",
                  "type": "tuple[]"
                },
                {
                  "components": [
                    {
                      "internalType": "uint256",
                      "name": "X",
                      "type": "uint256"
                    },
                    {
                      "internalType": "uint256",
                      "name": "Y",
                      "type": "uint256"
                    }
                  ],
                  "internalType": "struct alt_bn128.G1Point[]",
                  "name": "Rs",
                  "type": "tuple[]"
                },
                {
                  "internalType": "uint256",
                  "name": "a",
                  "type": "uint256"
                },
                {
                  "internalType": "uint256",
                  "name": "b",
                  "type": "uint256"
                }
              ],
              "internalType": "struct NISA.Sig",
              "name": "nisa_sig",
              "type": "tuple"
            }
          ],
          "internalType": "struct DualRingEC.SigEC",
          "name": "sig",
          "type": "tuple"
        }
      ],
      "stateMutability": "view",
      "type": "function"
    },
    {
      "inputs": [
        {
          "components": [
            {
              "components": [
                {
                  "components": [
                    {
                      "internalType": "uint256",
                      "name": "X",
                      "type": "uint256"
                    },
                    {
                      "internalType": "uint256",
                      "name": "Y",
                      "type": "uint256"
                    }
                  ],
                  "internalType": "struct alt_bn128.G1Point",
                  "name": "g",
                  "type": "tuple"
                },
                {
                  "components": [
                    {
                      "internalType": "uint256",
                      "name": "X",
                      "type": "uint256"
                    },
                    {
                      "internalType": "uint256",
                      "name": "Y",
                      "type": "uint256"
                    }
                  ],
                  "internalType": "struct alt_bn128.G1Point[]",
                  "name": "pks",
                  "type": "tuple[]"
                }
              ],
              "internalType": "struct DualRing.Param",
              "name": "dr_pp",
              "type": "tuple"
            },
            {
              "components": [
                {
                  "internalType": "uint256",
                  "name": "X",
                  "type": "uint256"
                },
                {
                  "internalType": "uint256",
                  "name": "Y",
                  "type": "uint256"
                }
              ],
              "internalType": "struct alt_bn128.G1Point",
              "name": "u",
              "type": "tuple"
            }
          ],
          "internalType": "struct DualRingEC.ParamEC",
          "name": "pp",
          "type": "tuple"
        },
        {
          "internalType": "bytes",
          "name": "m",
          "type": "bytes"
        },
        {
          "components": [
            {
              "internalType": "uint256",
              "name": "z",
              "type": "uint256"
            },
            {
              "components": [
                {
                  "internalType": "uint256",
                  "name": "X",
                  "type": "uint256"
                },
                {
                  "internalType": "uint256",
                  "name": "Y",
                  "type": "uint256"
                }
              ],
              "internalType": "struct alt_bn128.G1Point",
              "name": "R",
              "type": "tuple"
            },
            {
              "components": [
                {
                  "components": [
                    {
                      "internalType": "uint256",
                      "name": "X",
                      "type": "uint256"
                    },
                    {
                      "internalType": "uint256",
                      "name": "Y",
                      "type": "uint256"
                    }
                  ],
                  "internalType": "struct alt_bn128.G1Point[]",
                  "name": "Ls",
                  "type": "tuple[]"
                },
                {
                  "components": [
                    {
                      "internalType": "uint256",
                      "name": "X",
                      "type": "uint256"
                    },
                    {
                      "internalType": "uint256",
                      "name": "Y",
                      "type": "uint256"
                    }
                  ],
                  "internalType": "struct alt_bn128.G1Point[]",
                  "name": "Rs",
                  "type": "tuple[]"
                },
                {
                  "internalType": "uint256",
                  "name": "a",
                  "type": "uint256"
                },
                {
                  "internalType": "uint256",
                  "name": "b",
                  "type": "uint256"
                }
              ],
              "internalType": "struct NISA.Sig",
              "name": "nisa_sig",
              "type": "tuple"
            }
          ],
          "internalType": "struct DualRingEC.SigEC",
          "name": "sig",
          "type": "tuple"
        }
      ],
      "name": "verifyEC",
      "outputs": [
        {
          "internalType": "bool",
          "name": "",
          "type": "bool"
        }
      ],
      "stateMutability": "view",
      "type": "function"
    }
  ],
  "bytecode": "0x608060405234801561001057600080fd5b5060405161001d9061005f565b604051809103906000f080158015610039573d6000803e3d6000fd5b50600080546001600160a01b0319166001600160a01b039290921691909117905561006c565b611cbd80611c1183390190565b611b968061007b6000396000f3fe608060405234801561001057600080fd5b506004361061006d5760003560e01c8063504af2ae146100725780636b7411c51461009b57806375242580146100be5780637d2beca3146100d15780639e61ce62146100e45780639e8e957d14610104578063f4f4b60914610126575b600080fd5b6100856100803660046110b5565b610146565b604051610092919061118e565b60405180910390f35b6100ae6100a9366004611297565b610175565b6040519015158152602001610092565b6100ae6100cc3660046113f8565b61024a565b6100856100df366004611583565b610384565b6100f76100f23660046115b0565b61041e565b604051610092919061166a565b6101176101123660046116a2565b610545565b6040516100929392919061170a565b610139610134366004611583565b61081c565b6040516100929190611747565b61014e610e01565b50604080516080810182529081019384526060810192909252918152602081019190915290565b60008061018a85600001518460200151610a2c565b90506000805b866020015151811015610230576101ea836101e5896020015184815181106101ba576101ba61175a565b6020026020010151886000015185815181106101d8576101d861175a565b6020026020010151610a2c565b610a93565b925061021c856000015182815181106102055761020561175a565b602002602001015183610ad890919063ffffffff16565b91508061022881611786565b915050610190565b5061024085876020015184610af3565b1495945050505050565b600080610264848660000151602001518560200151610af3565b8351865151919250600091610290916102859161028091610a2c565b610bc7565b602086015190610a93565b6040805160808101825288516020908101518252808a015190820152808201839052606081018590526000548783015192516310a4eddf60e21b815293945090926001600160a01b0390911691634293b77c916102f19185916004016117f0565b602060405180830381865afa15801561030e573d6000803e3d6000fd5b505050506040513d601f19601f82011682018060405250810190610332919061181e565b6103775760405162461bcd60e51b8152602060048201526011602482015270111d585b149a5b99d150c819985a5b1959607a1b60448201526064015b60405180910390fd5b5060019695505050505050565b61038c610e01565b610396838361081c565b816000018190525061041373__alt_bn128_____________________________635ec01e4d6040518163ffffffff1660e01b8152600401602060405180830381865af41580156103ea573d6000803e3d6000fd5b505050506040513d601f19601f8201168201806040525081019061040e9190611840565b610c39565b602082015292915050565b610426610e26565b61042e610e70565b6000610438610e8a565b8651610445908787610545565b604080516080810182528b516020908101518252808d0151818301528501518c51519598509396509194506000939192908301916104919161048a9161028091610a2c565b8590610a93565b8152602001849052600080548651604051630ae8fb3b60e21b815293945091926001600160a01b0390911691632ba3ecec916104d1918691600401611859565b600060405180830381865afa1580156104ee573d6000803e3d6000fd5b505050506040513d6000823e601f3d908101601f1916820160405261051691908101906118fd565b905060405180606001604052808660200151815260200184815260200182815250955050505050509392505050565b61054d610e70565b6000610557610e8a565b6020868101515190850151106105ba5760405162461bcd60e51b815260206004820152602260248201527f4475616c52696e673a20736563726574206b657920696e76616c696420696e646044820152610caf60f31b606482015260840161036e565b60008660200151516001600160401b038111156105d9576105d9610f3c565b604051908082528060200260200182016040528015610602578160200160208202803683370190505b509050600073__alt_bn128_____________________________635ec01e4d6040518163ffffffff1660e01b8152600401602060405180830381865af4158015610650573d6000803e3d6000fd5b505050506040513d601f19601f820116820180604052508101906106749190611840565b9050610684886000015182610a2c565b92506000805b896020015151811015610790576020880151811461077e5773__alt_bn128_____________________________635ec01e4d6040518163ffffffff1660e01b8152600401602060405180830381865af41580156106eb573d6000803e3d6000fd5b505050506040513d601f19601f8201168201806040525081019061070f9190611840565b8482815181106107215761072161175a565b6020026020010181815250506107428482815181106102055761020561175a565b915061077b856101e58c6020015184815181106107615761076161175a565b60200260200101518785815181106101d8576101d861175a565b94505b8061078881611786565b91505061068a565b506107a0888a6020015186610af3565b945060006107ae8683610d33565b905080848960016020020151815181106107ca576107ca61175a565b602090810291909101015287516000906107f8906107f1906107ec9085610d76565b610d91565b8590610ad8565b60408051808201909152958652602086015250929994985092965092945050505050565b610824610ea4565b602082015183116108855760405162461bcd60e51b815260206004820152602560248201527f4475616c52696e673a20736563726574206b657920696e76616c696420706f7360448201526434ba34b7b760d91b606482015260840161036e565b6108d173__alt_bn128_____________________________635ec01e4d6040518163ffffffff1660e01b8152600401602060405180830381865af41580156103ea573d6000803e3d6000fd5b8152826001600160401b038111156108eb576108eb610f3c565b60405190808252806020026020018201604052801561092457816020015b610911610e8a565b8152602001906001900390816109095790505b5060208201528151815161093791610a2c565b60208281015190840151815181106109515761095161175a565b602002602001018190525060005b83811015610a255760208301518114610a1357600073__alt_bn128_____________________________635ec01e4d6040518163ffffffff1660e01b8152600401602060405180830381865af41580156109bd573d6000803e3d6000fd5b505050506040513d601f19601f820116820180604052508101906109e19190611840565b83519091506109f09082610a2c565b83602001518381518110610a0657610a0661175a565b6020026020010181905250505b80610a1d81611786565b91505061095f565b5092915050565b610a34610e8a565b81600103610a43575081610a8d565b81600203610a5c57610a558384610a93565b9050610a8d565b610a64610ec4565b83518152602080850151908201526040808201849052826060836007600019fa610a2557600080fd5b92915050565b610a9b610e8a565b610aa3610ee2565b83518152602080850151818301528351604080840191909152908401516060830152826080836006600019fa610a2557600080fd5b6000600080516020611b418339815191528284089392505050565b604051630ef39c1960e41b8152600090600080516020611b4183398151915290859073__alt_bn128_____________________________9063ef39c19090610b3f9088906004016119ba565b600060405180830381865af4158015610b5c573d6000803e3d6000fd5b505050506040513d6000823e601f3d908101601f19168201604052610b849190810190611a2b565b8451602080870151604051610b9c9594939201611a98565b6040516020818303038152906040528051906020012060001c610bbf9190611ad2565b949350505050565b610bcf610e8a565b8151158015610be057506020820151155b15610bfe575050604080518082019091526000808252602082015290565b6040518060400160405280836000015181526020018360200151600080516020611b21833981519152610c319190611ae6565b905292915050565b610c41610e8a565b6000610c5b600080516020611b2183398151915284611ad2565b90506000610c6a600183611ae6565b91506000805b81610d1957610c80600185611af9565b9350600080516020611b218339815191528485099050600080516020611b218339815191528482099050600080516020611b21833981519152600382089050610cfc816004610cde600080516020611b218339815191526001611af9565b610ce89190611b0c565b600080516020611b21833981519152610dab565b925080600080516020611b21833981519152848509149150610c70565b505060408051808201909152918252602082015292915050565b600081831015610d655782610d5683600080516020611b41833981519152611ae6565b610d609190611af9565b610d6f565b610d6f8284611ae6565b9392505050565b6000600080516020611b418339815191528284099392505050565b6000610a8d82600080516020611b41833981519152611ae6565b6000610db5610f00565b610dbd610f1e565b602080835282810181905260408301819052606083018790526080830186905260a083018590528160c0846005600019fa610df757600080fd5b5195945050505050565b6040518060400160405280610e14610ea4565b8152602001610e21610e8a565b905290565b604051806060016040528060008152602001610e40610e8a565b8152602001610e216040518060800160405280606081526020016060815260200160008152602001600081525090565b604051806040016040528060608152602001600081525090565b604051806040016040528060008152602001600081525090565b6040518060400160405280610eb7610e8a565b8152602001606081525090565b60405180606001604052806003906020820280368337509192915050565b60405180608001604052806004906020820280368337509192915050565b6040518060c001604052806006906020820280368337509192915050565b60405180602001604052806001906020820280368337509192915050565b634e487b7160e01b600052604160045260246000fd5b604080519081016001600160401b0381118282101715610f7457610f74610f3c565b60405290565b604051606081016001600160401b0381118282101715610f7457610f74610f3c565b604051608081016001600160401b0381118282101715610f7457610f74610f3c565b604051601f8201601f191681016001600160401b0381118282101715610fe657610fe6610f3c565b604052919050565b60006040828403121561100057600080fd5b611008610f52565b9050813581526020820135602082015292915050565b60006001600160401b0382111561103757611037610f3c565b5060051b60200190565b600082601f83011261105257600080fd5b813560206110676110628361101e565b610fbe565b82815260069290921b8401810191818101908684111561108657600080fd5b8286015b848110156110aa5761109c8882610fee565b83529183019160400161108a565b509695505050505050565b600080600060a084860312156110ca57600080fd5b6110d48585610fee565b925060408401356001600160401b038111156110ef57600080fd5b6110fb86828701611041565b92505061110b8560608601610fee565b90509250925092565b80518252602090810151910152565b600081518084526020808501945080840160005b8381101561115d5761114a878351611114565b6040969096019590820190600101611137565b509495945050505050565b611173828251611114565b6000602082015160606040850152610bbf6060850182611123565b6020815260008251606060208401526111aa6080840182611168565b905060208401516111be6040850182611114565b509392505050565b6000606082840312156111d857600080fd5b6111e0610f52565b90506111ec8383610fee565b815260408201356001600160401b0381111561120757600080fd5b61121384828501611041565b60208301525092915050565b60006001600160401b0382111561123857611238610f3c565b50601f01601f191660200190565b600082601f83011261125757600080fd5b81356112656110628261121f565b81815284602083860101111561127a57600080fd5b816020850160208301376000918101602001919091529392505050565b6000806000606084860312156112ac57600080fd5b83356001600160401b03808211156112c357600080fd5b6112cf878388016111c6565b94506020915081860135818111156112e657600080fd5b6112f288828901611246565b94505060408601358181111561130757600080fd5b86016040818903121561131957600080fd5b611321610f52565b81358381111561133057600080fd5b82019250601f8301891361134357600080fd5b82356113516110628261101e565b81815260059190911b8401850190858101908b83111561137057600080fd5b948601945b8286101561138e57853582529486019490860190611375565b8084525050508382013584820152809450505050509250925092565b6000606082840312156113bc57600080fd5b6113c4610f52565b905081356001600160401b038111156113dc57600080fd5b6113e8848285016111c6565b8252506104138360208401610fee565b60008060006060848603121561140d57600080fd5b83356001600160401b038082111561142457600080fd5b611430878388016113aa565b9450602086013591508082111561144657600080fd5b61145287838801611246565b9350604086013591508082111561146857600080fd5b908501906080828803121561147c57600080fd5b611484610f7a565b823581526114958860208501610fee565b60208201526060830135828111156114ac57600080fd5b9290920191608083890312156114c157600080fd5b6114c9610f9c565b8335838111156114d857600080fd5b6114e48a828701611041565b8252506020840135838111156114f957600080fd5b6115058a828701611041565b6020830152506040840135604082015260608401356060820152806040830152508093505050509250925092565b600082601f83011261154457600080fd5b61154c610f52565b80604084018581111561155e57600080fd5b845b81811015611578578035845260209384019301611560565b509095945050505050565b6000806060838503121561159657600080fd5b823591506115a78460208501611533565b90509250929050565b6000806000608084860312156115c557600080fd5b83356001600160401b03808211156115dc57600080fd5b6115e8878388016113aa565b945060208601359150808211156115fe57600080fd5b5061160b86828701611246565b92505061110b8560408601611533565b60008151608084526116306080850182611123565b9050602083015184820360208601526116498282611123565b91505060408301516040850152606083015160608501528091505092915050565b6020815281516020820152600060208301516116896040840182611114565b506040830151608080840152610bbf60a084018261161b565b6000806000608084860312156116b757600080fd5b83356001600160401b03808211156116ce57600080fd5b6115e8878388016111c6565b600081518084526020808501945080840160005b8381101561115d578151875295820195908201906001016116ee565b60808152600084516040608084015261172660c08401826116da565b60208781015160a086015284018690529150610bbf90506040830184611114565b602081526000610d6f6020830184611168565b634e487b7160e01b600052603260045260246000fd5b634e487b7160e01b600052601160045260246000fd5b60006001820161179857611798611770565b5060010190565b6000815160c084526117b460c0850182611123565b905060208301516117c86020860182611114565b5060408301516117db6060860182611114565b50606083015160a08501528091505092915050565b604081526000611803604083018561179f565b8281036020840152611815818561161b565b95945050505050565b60006020828403121561183057600080fd5b81518015158114610d6f57600080fd5b60006020828403121561185257600080fd5b5051919050565b60408152600061186c604083018561179f565b828103602084015261181581856116da565b600082601f83011261188f57600080fd5b8151602061189f6110628361101e565b82815260069290921b840181019181810190868411156118be57600080fd5b8286015b848110156110aa57604081890312156118db5760008081fd5b6118e3610f52565b8151815284820151858201528352918301916040016118c2565b60006020828403121561190f57600080fd5b81516001600160401b038082111561192657600080fd5b908301906080828603121561193a57600080fd5b611942610f9c565b82518281111561195157600080fd5b61195d8782860161187e565b82525060208301518281111561197257600080fd5b61197e8782860161187e565b602083015250604083015160408201526060830151606082015280935050505092915050565b634e487b7160e01b600052601260045260246000fd5b602080825282518282018190526000919060409081850190868401855b828110156119fa576119ea848351611114565b92840192908501906001016119d7565b5091979650505050505050565b60005b83811015611a22578181015183820152602001611a0a565b50506000910152565b600060208284031215611a3d57600080fd5b81516001600160401b03811115611a5357600080fd5b8201601f81018413611a6457600080fd5b8051611a726110628261121f565b818152856020838501011115611a8757600080fd5b611815826020830160208601611a07565b60008551611aaa818460208a01611a07565b855190830190611abe818360208a01611a07565b019384525050602082015260400192915050565b600082611ae157611ae16119a4565b500690565b81810381811115610a8d57610a8d611770565b80820180821115610a8d57610a8d611770565b600082611b1b57611b1b6119a4565b50049056fe30644e72e131a029b85045b68181585d97816a916871ca8d3c208c16d87cfd4730644e72e131a029b85045b68181585d2833e84879b9709143e1f593f0000001a2646970667358221220f587be5d7c1d960d278ceffec989c11065fcfef3322464b3143ad97810364fbc64736f6c63430008130033608060405234801561001057600080fd5b50611c9d806100206000396000f3fe608060405234801561001057600080fd5b50600436106100415760003560e01c806324f35549146100465780632ba3ecec1461006f5780634293b77c1461008f575b600080fd5b61005961005436600461167a565b6100b2565b604051610066919061170a565b60405180910390f35b61008261007d366004611889565b6102a8565b60405161006691906118ec565b6100a261009d366004611946565b610827565b6040519015158152602001610066565b6100ba6114b8565b600182516100c89190611a27565b825116156100f15760405162461bcd60e51b81526004016100e890611a3a565b60405180910390fd5b81516001600160401b0381111561010a5761010a61157e565b60405190808252806020026020018201604052801561014357816020015b6101306114ec565b8152602001906001900390816101285790505b50815260005b825181101561019757610165610160826002611a7e565b610e07565b825180518390811061017957610179611a91565b6020026020010181905250808061018f90611aa7565b915050610149565b506101a26001610e07565b6020820152815182906000906101ba576101ba611a91565b602002602001015181606001818152505061020d81600001516000815181106101e5576101e5611a91565b60200260200101518360008151811061020057610200611a91565b6020026020010151610f01565b604082015260015b82518110156102a257610245826060015184838151811061023857610238611a91565b6020026020010151610f69565b606083015260408201518251805161028b9291610286918590811061026c5761026c611a91565b602002602001015186858151811061020057610200611a91565b610f84565b60408301528061029a81611aa7565b915050610215565b50919050565b6102d36040518060800160405280606081526020016060815260200160008152602001600081525090565b600182516102e19190611a27565b825116156103015760405162461bcd60e51b81526004016100e890611a3a565b600061030d8351610fc9565b9050806001600160401b038111156103275761032761157e565b60405190808252806020026020018201604052801561036057816020015b61034d6114ec565b8152602001906001900390816103455790505b508252806001600160401b0381111561037b5761037b61157e565b6040519080825280602002602001820160405280156103b457816020015b6103a16114ec565b8152602001906001900390816103995790505b5060208301526040808501519051632f2d020d60e01b815260009173__alt_bn128_____________________________91632f2d020d916103f791600401611ac0565b600060405180830381865af4158015610414573d6000803e3d6000fd5b505050506040513d6000823e601f3d908101601f1916820160405261043c9190810190611af2565b6020860151604051632f2d020d60e01b815273__alt_bn128_____________________________91632f2d020d916104779190600401611ac0565b600060405180830381865af4158015610494573d6000803e3d6000fd5b505050506040513d6000823e601f3d908101601f191682016040526104bc9190810190611af2565b86606001516040516020016104d393929190611b85565b6040516020818303038152906040528051906020012060001c905060006104fe866020015183610f01565b9050600085516001600160401b0381111561051b5761051b61157e565b604051908082528060200260200182016040528015610544578160200160208202803683370190505b509050600086516001600160401b038111156105625761056261157e565b60405190808252806020026020018201604052801561059b57816020015b6105886114ec565b8152602001906001900390816105805790505b50905060005b82518110156106155760018382815181106105be576105be611a91565b602090810291909101015288518051829081106105dd576105dd611a91565b60200260200101518282815181106105f7576105f7611a91565b6020026020010181905250808061060d90611aa7565b9150506105a1565b5061061e6114ec565b6106266114ec565b6000805b888110156107d05761063e858c888a610ff3565b8b51805192965090945085918390811061065a5761065a611a91565b6020026020010181905250828a60200151828151811061067c5761067c611a91565b6020908102919091010152604051632f2d020d60e01b815273__alt_bn128_____________________________90632f2d020d906106be908790600401611ac0565b600060405180830381865af41580156106db573d6000803e3d6000fd5b505050506040513d6000823e601f3d908101601f191682016040526107039190810190611af2565b604051632f2d020d60e01b815273__alt_bn128_____________________________90632f2d020d9061073a908790600401611ac0565b600060405180830381865af4158015610757573d6000803e3d6000fd5b505050506040513d6000823e601f3d908101601f1916820160405261077f9190810190611af2565b604051602001610790929190611bba565b6040516020818303038152906040528051906020012060001c91506107b7858c88856111ce565b909c5096509450806107c881611aa7565b91505061062a565b50896000815181106107e4576107e4611a91565b60200260200101518960400181815250508460008151811061080857610808611a91565b6020026020010151896060018181525050505050505050505092915050565b600080610838846000015151610fc9565b90506000816001600160401b038111156108545761085461157e565b60405190808252806020026020018201604052801561087d578160200160208202803683370190505b5090506000826001600160401b0381111561089a5761089a61157e565b6040519080825280602002602001820160405280156108c3578160200160208202803683370190505b50905060008073__alt_bn128_____________________________632f2d020d89604001516040518263ffffffff1660e01b81526004016109049190611ac0565b600060405180830381865af4158015610921573d6000803e3d6000fd5b505050506040513d6000823e601f3d908101601f191682016040526109499190810190611af2565b6020890151604051632f2d020d60e01b815273__alt_bn128_____________________________91632f2d020d916109849190600401611ac0565b600060405180830381865af41580156109a1573d6000803e3d6000fd5b505050506040513d6000823e601f3d908101601f191682016040526109c99190810190611af2565b89606001516040516020016109e093929190611b85565b6040516020818303038152906040528051906020012060001c90506000610a2089604001516102868b60200151610a1b8d60600151876113f2565b610f01565b90506001925060005b86811015610cce5773__alt_bn128_____________________________632f2d020d8a600001518381518110610a6157610a61611a91565b60200260200101516040518263ffffffff1660e01b8152600401610a859190611ac0565b600060405180830381865af4158015610aa2573d6000803e3d6000fd5b505050506040513d6000823e601f3d908101601f19168201604052610aca9190810190611af2565b73__alt_bn128_____________________________632f2d020d8b602001518481518110610afa57610afa611a91565b60200260200101516040518263ffffffff1660e01b8152600401610b1e9190611ac0565b600060405180830381865af4158015610b3b573d6000803e3d6000fd5b505050506040513d6000823e601f3d908101601f19168201604052610b639190810190611af2565b604051602001610b74929190611bba565b6040516020818303038152906040528051906020012060001c868281518110610b9f57610b9f611a91565b602002602001018181525050610bcd868281518110610bc057610bc0611a91565b602002602001015161140d565b858281518110610bdf57610bdf611a91565b602002602001018181525050610c4c826102868b600001518481518110610c0857610c08611a91565b6020026020010151610a1b8a8681518110610c2557610c25611a91565b60200260200101518b8781518110610c3f57610c3f611a91565b60200260200101516113f2565b9150610ca2826102868b602001518481518110610c6b57610c6b611a91565b6020026020010151610a1b898681518110610c8857610c88611a91565b60200260200101518a8781518110610c3f57610c3f611a91565b9150610cba84868381518110610c3f57610c3f611a91565b935080610cc681611aa7565b915050610a29565b506000610cf98a60000151600081518110610ceb57610ceb611a91565b602002602001015185610f01565b905060015b8a5151811015610dbb576001945060005b88811015610d7b57600182821c811603610d5557610d4e86896001610d34858e611a27565b610d3e9190611a27565b81518110610c3f57610c3f611a91565b9550610d69565b610d6686886001610d34858e611a27565b95505b80610d7381611aa7565b915050610d0f565b50610da7826102868d600001518481518110610d9957610d99611a91565b602002602001015188610f01565b915080610db381611aa7565b915050610cfe565b50610ddb81610286610dd18d6020015187610f01565b8c60600151610f01565b9050610deb818a60400151610f01565b9050610df78282611440565b9750505050505050505b92915050565b610e0f6114ec565b6000610e29600080516020611c2883398151915284611bff565b90506000610e38600183611a27565b91506000805b81610ee757610e4e600185611a7e565b9350600080516020611c288339815191528485099050600080516020611c288339815191528482099050600080516020611c28833981519152600382089050610eca816004610eac600080516020611c288339815191526001611a7e565b610eb69190611c13565b600080516020611c28833981519152611462565b925080600080516020611c28833981519152848509149150610e3e565b505060408051808201909152918252602082015292915050565b610f096114ec565b81600103610f18575081610e01565b81600203610f3157610f2a8384610f84565b9050610e01565b610f39611506565b83518152602080850151908201526040808201849052826060836007600019fa610f6257600080fd5b5092915050565b6000600080516020611c488339815191528284089392505050565b610f8c6114ec565b610f94611524565b83518152602080850151818301528351604080840191909152908401516060830152826080836006600019fa610f6257600080fd5b60005b6001821115610fee57610fe0600182611a7e565b9050600182901c9150610fcc565b919050565b610ffb6114ec565b6110036114ec565b6000600286516110139190611c13565b905060006110478760008151811061102d5761102d611a91565b6020026020010151878481518110610c3f57610c3f611a91565b9050600061107b88848151811061106057611060611a91565b602002602001015188600081518110610c3f57610c3f611a91565b905060015b8381101561110d576110bb836110b68b84815181106110a1576110a1611a91565b60200260200101518b8589610d3e9190611a7e565b610f69565b92506110f9826110b68b6110cf8589611a7e565b815181106110df576110df611a91565b60200260200101518b8581518110610c3f57610c3f611a91565b91508061110581611aa7565b915050611080565b506111188683610f01565b94506111248682610f01565b935060005b838110156111c15761116d866102868c6111438589611a7e565b8151811061115357611153611a91565b60200260200101518c858151811061020057610200611a91565b95506111ad856102868c848151811061118857611188611a91565b60200260200101518c858961119d9190611a7e565b8151811061020057610200611a91565b9450806111b981611aa7565b915050611129565b5050505094509492505050565b60608060606000600287516111e39190611c13565b905060006111f08661140d565b9050816001600160401b0381111561120a5761120a61157e565b60405190808252806020026020018201604052801561124357816020015b6112306114ec565b8152602001906001900390816112285790505b509450816001600160401b0381111561125e5761125e61157e565b604051908082528060200260200182016040528015611287578160200160208202803683370190505b509350816001600160401b038111156112a2576112a261157e565b6040519080825280602002602001820160405280156112cb578160200160208202803683370190505b50925060005b828110156113e55761132b6112ff8b83815181106112f1576112f1611a91565b602002602001015184610f01565b6102868c61130d8588611a7e565b8151811061131d5761131d611a91565b60200260200101518a610f01565b86828151811061133d5761133d611a91565b6020026020010181905250611370611361888b8481518110610c3f57610c3f611a91565b6110b6848c610d3e8689611a7e565b85828151811061138257611382611a91565b6020026020010181815250506113b66113a7838a8481518110610c3f57610c3f611a91565b6110b6898b610d3e8689611a7e565b8482815181106113c8576113c8611a91565b6020908102919091010152806113dd81611aa7565b9150506112d1565b5050509450945094915050565b6000600080516020611c488339815191528284099392505050565b6000610e018261142c6002600080516020611c48833981519152611a27565b600080516020611c48833981519152611462565b8051825160009114801561145b575081602001518360200151145b9392505050565b600061146c611542565b611474611560565b602080835282810181905260408301819052606083018790526080830186905260a083018590528160c0846005600019fa6114ae57600080fd5b5195945050505050565b6040518060800160405280606081526020016114d26114ec565b81526020016114df6114ec565b8152602001600081525090565b604051806040016040528060008152602001600081525090565b60405180606001604052806003906020820280368337509192915050565b60405180608001604052806004906020820280368337509192915050565b6040518060c001604052806006906020820280368337509192915050565b60405180602001604052806001906020820280368337509192915050565b634e487b7160e01b600052604160045260246000fd5b604051608081016001600160401b03811182821017156115b6576115b661157e565b60405290565b604051601f8201601f191681016001600160401b03811182821017156115e4576115e461157e565b604052919050565b60006001600160401b038211156116055761160561157e565b5060051b60200190565b600082601f83011261162057600080fd5b81356020611635611630836115ec565b6115bc565b82815260059290921b8401810191818101908684111561165457600080fd5b8286015b8481101561166f5780358352918301918301611658565b509695505050505050565b60006020828403121561168c57600080fd5b81356001600160401b038111156116a257600080fd5b6116ae8482850161160f565b949350505050565b80518252602090810151910152565b600081518084526020808501945080840160005b838110156116ff576116ec8783516116b6565b60409690960195908201906001016116d9565b509495945050505050565b602081526000825160c0602084015261172660e08401826116c5565b9050602084015161173a60408501826116b6565b50604084015161174d60808501826116b6565b50606084015160c08401528091505092915050565b60006040828403121561177457600080fd5b604080519081016001600160401b03811182821017156117965761179661157e565b604052823581526020928301359281019290925250919050565b600082601f8301126117c157600080fd5b813560206117d1611630836115ec565b82815260069290921b840181019181810190868411156117f057600080fd5b8286015b8481101561166f576118068882611762565b8352918301916040016117f4565b600060c0828403121561182657600080fd5b61182e611594565b905081356001600160401b0381111561184657600080fd5b611852848285016117b0565b8252506118628360208401611762565b60208201526118748360608401611762565b604082015260a0820135606082015292915050565b6000806040838503121561189c57600080fd5b82356001600160401b03808211156118b357600080fd5b6118bf86838701611814565b935060208501359150808211156118d557600080fd5b506118e28582860161160f565b9150509250929050565b60208152600082516080602084015261190860a08401826116c5565b90506020840151601f1984830301604085015261192582826116c5565b91505060408401516060840152606084015160808401528091505092915050565b6000806040838503121561195957600080fd5b82356001600160401b038082111561197057600080fd5b61197c86838701611814565b9350602085013591508082111561199257600080fd5b90840190608082870312156119a657600080fd5b6119ae611594565b8235828111156119bd57600080fd5b6119c9888286016117b0565b8252506020830135828111156119de57600080fd5b6119ea888286016117b0565b60208301525060408301356040820152606083013560608201528093505050509250929050565b634e487b7160e01b600052601160045260246000fd5b81810381811115610e0157610e01611a11565b60208082526024908201527f766563746f72206c656e6774682073686f756c64206265206120706f7765722060408201526337b3101960e11b606082015260800190565b80820180821115610e0157610e01611a11565b634e487b7160e01b600052603260045260246000fd5b600060018201611ab957611ab9611a11565b5060010190565b60408101610e0182846116b6565b60005b83811015611ae9578181015183820152602001611ad1565b50506000910152565b600060208284031215611b0457600080fd5b81516001600160401b0380821115611b1b57600080fd5b818401915084601f830112611b2f57600080fd5b815181811115611b4157611b4161157e565b611b54601f8201601f19166020016115bc565b9150808252856020828501011115611b6b57600080fd5b611b7c816020840160208601611ace565b50949350505050565b60008451611b97818460208901611ace565b845190830190611bab818360208901611ace565b01928352505060200192915050565b60008351611bcc818460208801611ace565b835190830190611be0818360208801611ace565b01949350505050565b634e487b7160e01b600052601260045260246000fd5b600082611c0e57611c0e611be9565b500690565b600082611c2257611c22611be9565b50049056fe30644e72e131a029b85045b68181585d97816a916871ca8d3c208c16d87cfd4730644e72e131a029b85045b68181585d2833e84879b9709143e1f593f0000001a26469706673582212205b745105b61dbdb50862601db2afe54cbf28b55e2b6d1d2c9dd7916cca68fce264736f6c63430008130033",
  "immutableReferences": {},
  "source": "// SPDX-License-Identifier: GPL-3.0\r\npragma solidity >=0.7.0 <0.9.0;\r\n\r\nimport \"../lib/alt_bn128.sol\";\r\nimport \"./DualRing.sol\";\r\nimport \"./NISA.sol\";\r\n\r\ncontract DualRingEC is DualRing {\r\n    using alt_bn128 for uint256;\r\n\tusing alt_bn128 for alt_bn128.G1Point;\r\n    using alt_bn128 for alt_bn128.G1Point[];\r\n\r\n    NISA private nisa;\r\n\r\n    /// @param dr_pp {g, pks}\r\n    /// @param u random generator\r\n    struct ParamEC {\r\n        DualRing.Param dr_pp;\r\n        alt_bn128.G1Point u;\r\n    }\r\n\r\n    // struct ParamEC {\r\n    //     alt_bn128.G1Point g;\r\n    //     alt_bn128.G1Point[] pks;\r\n    //     alt_bn128.G1Point u;\r\n    // }\r\n\r\n    /// @param z response\r\n    /// @param R g^r * prod_{i != j} pk_i^{c_i} \r\n    /// @param nisa_sig shortened signature\r\n    struct SigEC{\r\n        uint256 z;\r\n        alt_bn128.G1Point R;\r\n        NISA.Sig nisa_sig;\r\n    }\r\n\r\n    constructor () {\r\n        nisa = new NISA();\r\n    }\r\n\r\n    /// @dev setup a ring\r\n    /// @param ring_size ring size\r\n    /// @param skj [sk, index]\r\n    function setupEC(uint256 ring_size, uint256[2] memory skj) public view returns (ParamEC memory pp){\r\n        // DualRing.Param memory p = DualRing.setup(ring_size, skj);\r\n        pp.dr_pp = DualRing.setup(ring_size, skj);\r\n        pp.u = alt_bn128.random().uintToCurvePoint();\r\n        // pp = ParamEC({\r\n        //     g : p.g,\r\n        //     pks : p.pks,\r\n        //     u : alt_bn128.random().uintToCurvePoint()\r\n        // });\r\n    }\r\n\r\n    function param(\r\n        alt_bn128.G1Point memory g, \r\n        alt_bn128.G1Point[] memory pks, \r\n        alt_bn128.G1Point memory u) \r\n    public pure returns (ParamEC memory) {\r\n        return ParamEC({\r\n            dr_pp : DualRing.Param(g, pks),\r\n            u : u\r\n        });\r\n    }\r\n    \r\n    /// @dev sign a dualring signature on message m\r\n    /// @param pp {g, pks, u}\r\n    /// @param m message\r\n    /// @param skj [sk, index]\r\n    function signEC(ParamEC memory pp, bytes memory m, uint256[2] memory skj) public view returns (SigEC memory sig) {\r\n        DualRing.Sig memory dr_sig; \r\n        uint256 c;\r\n        alt_bn128.G1Point memory R; \r\n        (dr_sig, c, R) = DualRing.sign(pp.dr_pp, m, skj);\r\n        // (dr_sig, c, R) = DualRing.sign(DualRing.Param(pp.g, pp.pks), m, skj);\r\n\r\n        NISA.Param memory nisa_pp = NISA.Param({\r\n            Gs : pp.dr_pp.pks,\r\n            P : R.add(pp.dr_pp.g.mul(dr_sig.z).neg()),\r\n            // Gs : pp.pks,\r\n            // P : R.add(pp.g.mul(dr_sig.z).neg()),\r\n            u : pp.u,\r\n            c : c  \r\n        });\r\n        /// @dev reduce signature size by NISA (bulletproof)\r\n        NISA.Sig memory nisa_sig = nisa.prove(nisa_pp, dr_sig.cs); \r\n        // NISA.Sig memory nisa_sig = NISA.prove(nisa_pp, dr_sig.cs); \r\n\r\n        sig = SigEC({\r\n            z : dr_sig.z,\r\n            R : R,\r\n            nisa_sig : nisa_sig\r\n        });\r\n    }\r\n\r\n    /// @dev verify a dualring signature on message m\r\n    /// @param pp {g, pks, u}\r\n    /// @param m message\r\n    /// @param sig {z, R, nisa_sig}\r\n    function verifyEC(ParamEC memory pp, bytes memory m, SigEC memory sig) public view returns (bool) {\r\n        uint256 c = H(m, pp.dr_pp.pks, sig.R);\r\n        alt_bn128.G1Point memory P = sig.R.add(pp.dr_pp.g.mul(sig.z).neg());\r\n        // uint256 c = H(m, pp.pks, sig.R);\r\n        // alt_bn128.G1Point memory P = sig.R.add(pp.g.mul(sig.z).neg());\r\n\r\n        NISA.Param memory nisa_pp = NISA.Param({\r\n            Gs : pp.dr_pp.pks,\r\n            // Gs : pp.pks,\r\n            P : P,\r\n            u : pp.u,\r\n            c : c\r\n        });\r\n        require(nisa.verify(nisa_pp, sig.nisa_sig), \"DualRingEC failed\");\r\n        // require(NISA.verify(nisa_pp, sig.nisa_sig), \"DualRingEC failed\");\r\n\r\n        return true;\r\n    }\r\n}",
  "sourcePath": "/Users/qian/Desktop/Y4/COMP4550/project/XCSwap/contracts/ZKP/DualRingEC.sol",
  "compiler": {
    "name": "solc",
    "version": "0.8.19+commit.7dd6d404.Emscripten.clang"
  },
  "schemaVersion": "3.4.13",
  "updatedAt": "2023-10-15T17:45:47.025Z",
  "networkType": "ethereum",
  "devdoc": {
    "kind": "dev",
    "methods": {
      "setupEC(uint256,uint256[2])": {
        "details": "setup a ring",
        "params": {
          "ring_size": "ring size",
          "skj": "[sk, index]"
        }
      },
      "sign(((uint256,uint256),(uint256,uint256)[]),bytes,uint256[2])": {
        "details": "dualring signature",
        "params": {
          "m": "message",
          "pp": "public parameters",
          "skj": "[sk, index]"
        },
        "returns": {
          "R": "g^r * prod_{i != j} pk_i^{c_i} ",
          "c": "sum_i c_i := H(m, pks, R) ",
          "sig": "signature"
        }
      },
      "signEC((((uint256,uint256),(uint256,uint256)[]),(uint256,uint256)),bytes,uint256[2])": {
        "details": "sign a dualring signature on message m",
        "params": {
          "m": "message",
          "pp": "{g, pks, u}",
          "skj": "[sk, index]"
        }
      },
      "verifyEC((((uint256,uint256),(uint256,uint256)[]),(uint256,uint256)),bytes,(uint256,(uint256,uint256),((uint256,uint256)[],(uint256,uint256)[],uint256,uint256)))": {
        "details": "verify a dualring signature on message m",
        "params": {
          "m": "message",
          "pp": "{g, pks, u}",
          "sig": "{z, R, nisa_sig}"
        }
      }
    },
    "version": 1
  },
  "userdoc": {
    "kind": "user",
    "methods": {},
    "version": 1
  }
}