{
  "contractName": "DualRingEC",
  "abi": [
    {
      "inputs": [],
      "stateMutability": "nonpayable",
      "type": "constructor"
    },
    {
      "inputs": [
        {
          "internalType": "uint256[]",
          "name": "a",
          "type": "uint256[]"
        }
      ],
      "name": "generateParam",
      "outputs": [
        {
          "components": [
            {
              "components": [
                {
                  "internalType": "uint256",
                  "name": "X",
                  "type": "uint256"
                },
                {
                  "internalType": "uint256",
                  "name": "Y",
                  "type": "uint256"
                }
              ],
              "internalType": "struct alt_bn128.G1Point[]",
              "name": "Gs",
              "type": "tuple[]"
            },
            {
              "components": [
                {
                  "internalType": "uint256",
                  "name": "X",
                  "type": "uint256"
                },
                {
                  "internalType": "uint256",
                  "name": "Y",
                  "type": "uint256"
                }
              ],
              "internalType": "struct alt_bn128.G1Point",
              "name": "P",
              "type": "tuple"
            },
            {
              "internalType": "uint256",
              "name": "c",
              "type": "uint256"
            }
          ],
          "internalType": "struct NISA.Param",
          "name": "param",
          "type": "tuple"
        }
      ],
      "stateMutability": "view",
      "type": "function",
      "constant": true
    },
    {
      "inputs": [
        {
          "components": [
            {
              "components": [
                {
                  "internalType": "uint256",
                  "name": "X",
                  "type": "uint256"
                },
                {
                  "internalType": "uint256",
                  "name": "Y",
                  "type": "uint256"
                }
              ],
              "internalType": "struct alt_bn128.G1Point[]",
              "name": "Gs",
              "type": "tuple[]"
            },
            {
              "components": [
                {
                  "internalType": "uint256",
                  "name": "X",
                  "type": "uint256"
                },
                {
                  "internalType": "uint256",
                  "name": "Y",
                  "type": "uint256"
                }
              ],
              "internalType": "struct alt_bn128.G1Point",
              "name": "P",
              "type": "tuple"
            },
            {
              "internalType": "uint256",
              "name": "c",
              "type": "uint256"
            }
          ],
          "internalType": "struct NISA.Param",
          "name": "param",
          "type": "tuple"
        },
        {
          "internalType": "uint256[]",
          "name": "a",
          "type": "uint256[]"
        }
      ],
      "name": "prove",
      "outputs": [
        {
          "components": [
            {
              "components": [
                {
                  "internalType": "uint256",
                  "name": "X",
                  "type": "uint256"
                },
                {
                  "internalType": "uint256",
                  "name": "Y",
                  "type": "uint256"
                }
              ],
              "internalType": "struct alt_bn128.G1Point[]",
              "name": "Ls",
              "type": "tuple[]"
            },
            {
              "components": [
                {
                  "internalType": "uint256",
                  "name": "X",
                  "type": "uint256"
                },
                {
                  "internalType": "uint256",
                  "name": "Y",
                  "type": "uint256"
                }
              ],
              "internalType": "struct alt_bn128.G1Point[]",
              "name": "Rs",
              "type": "tuple[]"
            },
            {
              "internalType": "uint256",
              "name": "a",
              "type": "uint256"
            },
            {
              "internalType": "uint256",
              "name": "b",
              "type": "uint256"
            }
          ],
          "internalType": "struct NISA.Proof",
          "name": "p",
          "type": "tuple"
        }
      ],
      "stateMutability": "view",
      "type": "function",
      "constant": true
    },
    {
      "inputs": [
        {
          "internalType": "uint256",
          "name": "",
          "type": "uint256"
        }
      ],
      "name": "sks",
      "outputs": [
        {
          "internalType": "uint256",
          "name": "",
          "type": "uint256"
        }
      ],
      "stateMutability": "view",
      "type": "function",
      "constant": true
    },
    {
      "inputs": [
        {
          "internalType": "uint256[]",
          "name": "a",
          "type": "uint256[]"
        }
      ],
      "name": "test",
      "outputs": [
        {
          "internalType": "bool",
          "name": "",
          "type": "bool"
        }
      ],
      "stateMutability": "view",
      "type": "function",
      "constant": true
    },
    {
      "inputs": [
        {
          "components": [
            {
              "components": [
                {
                  "internalType": "uint256",
                  "name": "X",
                  "type": "uint256"
                },
                {
                  "internalType": "uint256",
                  "name": "Y",
                  "type": "uint256"
                }
              ],
              "internalType": "struct alt_bn128.G1Point[]",
              "name": "Gs",
              "type": "tuple[]"
            },
            {
              "components": [
                {
                  "internalType": "uint256",
                  "name": "X",
                  "type": "uint256"
                },
                {
                  "internalType": "uint256",
                  "name": "Y",
                  "type": "uint256"
                }
              ],
              "internalType": "struct alt_bn128.G1Point",
              "name": "P",
              "type": "tuple"
            },
            {
              "internalType": "uint256",
              "name": "c",
              "type": "uint256"
            }
          ],
          "internalType": "struct NISA.Param",
          "name": "param",
          "type": "tuple"
        },
        {
          "components": [
            {
              "components": [
                {
                  "internalType": "uint256",
                  "name": "X",
                  "type": "uint256"
                },
                {
                  "internalType": "uint256",
                  "name": "Y",
                  "type": "uint256"
                }
              ],
              "internalType": "struct alt_bn128.G1Point[]",
              "name": "Ls",
              "type": "tuple[]"
            },
            {
              "components": [
                {
                  "internalType": "uint256",
                  "name": "X",
                  "type": "uint256"
                },
                {
                  "internalType": "uint256",
                  "name": "Y",
                  "type": "uint256"
                }
              ],
              "internalType": "struct alt_bn128.G1Point[]",
              "name": "Rs",
              "type": "tuple[]"
            },
            {
              "internalType": "uint256",
              "name": "a",
              "type": "uint256"
            },
            {
              "internalType": "uint256",
              "name": "b",
              "type": "uint256"
            }
          ],
          "internalType": "struct NISA.Proof",
          "name": "p",
          "type": "tuple"
        }
      ],
      "name": "verify",
      "outputs": [
        {
          "internalType": "bool",
          "name": "",
          "type": "bool"
        }
      ],
      "stateMutability": "view",
      "type": "function",
      "constant": true
    },
    {
      "inputs": [
        {
          "internalType": "uint256",
          "name": "_ring_size",
          "type": "uint256"
        }
      ],
      "name": "generateKeys",
      "outputs": [],
      "stateMutability": "nonpayable",
      "type": "function"
    },
    {
      "inputs": [
        {
          "internalType": "string",
          "name": "_message",
          "type": "string"
        },
        {
          "internalType": "uint256",
          "name": "_privateKeyIndex",
          "type": "uint256"
        }
      ],
      "name": "basic_sign",
      "outputs": [
        {
          "components": [
            {
              "internalType": "uint256[]",
              "name": "c",
              "type": "uint256[]"
            },
            {
              "internalType": "uint256",
              "name": "z",
              "type": "uint256"
            },
            {
              "internalType": "uint256",
              "name": "sum",
              "type": "uint256"
            },
            {
              "components": [
                {
                  "internalType": "uint256",
                  "name": "X",
                  "type": "uint256"
                },
                {
                  "internalType": "uint256",
                  "name": "Y",
                  "type": "uint256"
                }
              ],
              "internalType": "struct alt_bn128.G1Point",
              "name": "R",
              "type": "tuple"
            }
          ],
          "internalType": "struct DualRingEC.Response",
          "name": "",
          "type": "tuple"
        }
      ],
      "stateMutability": "view",
      "type": "function",
      "constant": true
    },
    {
      "inputs": [
        {
          "internalType": "string",
          "name": "_message",
          "type": "string"
        },
        {
          "components": [
            {
              "internalType": "uint256[]",
              "name": "c",
              "type": "uint256[]"
            },
            {
              "internalType": "uint256",
              "name": "z",
              "type": "uint256"
            },
            {
              "internalType": "uint256",
              "name": "sum",
              "type": "uint256"
            },
            {
              "components": [
                {
                  "internalType": "uint256",
                  "name": "X",
                  "type": "uint256"
                },
                {
                  "internalType": "uint256",
                  "name": "Y",
                  "type": "uint256"
                }
              ],
              "internalType": "struct alt_bn128.G1Point",
              "name": "R",
              "type": "tuple"
            }
          ],
          "internalType": "struct DualRingEC.Response",
          "name": "sig",
          "type": "tuple"
        }
      ],
      "name": "basic_verify",
      "outputs": [
        {
          "internalType": "bool",
          "name": "",
          "type": "bool"
        }
      ],
      "stateMutability": "view",
      "type": "function",
      "constant": true
    },
    {
      "inputs": [
        {
          "internalType": "string",
          "name": "_message",
          "type": "string"
        },
        {
          "internalType": "uint256",
          "name": "_privateKeyIndex",
          "type": "uint256"
        }
      ],
      "name": "full_sign",
      "outputs": [
        {
          "components": [
            {
              "internalType": "uint256",
              "name": "z",
              "type": "uint256"
            },
            {
              "components": [
                {
                  "components": [
                    {
                      "internalType": "uint256",
                      "name": "X",
                      "type": "uint256"
                    },
                    {
                      "internalType": "uint256",
                      "name": "Y",
                      "type": "uint256"
                    }
                  ],
                  "internalType": "struct alt_bn128.G1Point[]",
                  "name": "Ls",
                  "type": "tuple[]"
                },
                {
                  "components": [
                    {
                      "internalType": "uint256",
                      "name": "X",
                      "type": "uint256"
                    },
                    {
                      "internalType": "uint256",
                      "name": "Y",
                      "type": "uint256"
                    }
                  ],
                  "internalType": "struct alt_bn128.G1Point[]",
                  "name": "Rs",
                  "type": "tuple[]"
                },
                {
                  "internalType": "uint256",
                  "name": "a",
                  "type": "uint256"
                },
                {
                  "internalType": "uint256",
                  "name": "b",
                  "type": "uint256"
                }
              ],
              "internalType": "struct NISA.Proof",
              "name": "pi",
              "type": "tuple"
            },
            {
              "components": [
                {
                  "components": [
                    {
                      "internalType": "uint256",
                      "name": "X",
                      "type": "uint256"
                    },
                    {
                      "internalType": "uint256",
                      "name": "Y",
                      "type": "uint256"
                    }
                  ],
                  "internalType": "struct alt_bn128.G1Point[]",
                  "name": "Gs",
                  "type": "tuple[]"
                },
                {
                  "components": [
                    {
                      "internalType": "uint256",
                      "name": "X",
                      "type": "uint256"
                    },
                    {
                      "internalType": "uint256",
                      "name": "Y",
                      "type": "uint256"
                    }
                  ],
                  "internalType": "struct alt_bn128.G1Point",
                  "name": "P",
                  "type": "tuple"
                },
                {
                  "internalType": "uint256",
                  "name": "c",
                  "type": "uint256"
                }
              ],
              "internalType": "struct NISA.Param",
              "name": "pp",
              "type": "tuple"
            }
          ],
          "internalType": "struct DualRingEC.Signature",
          "name": "",
          "type": "tuple"
        }
      ],
      "stateMutability": "view",
      "type": "function",
      "constant": true
    },
    {
      "inputs": [
        {
          "components": [
            {
              "internalType": "uint256",
              "name": "z",
              "type": "uint256"
            },
            {
              "components": [
                {
                  "components": [
                    {
                      "internalType": "uint256",
                      "name": "X",
                      "type": "uint256"
                    },
                    {
                      "internalType": "uint256",
                      "name": "Y",
                      "type": "uint256"
                    }
                  ],
                  "internalType": "struct alt_bn128.G1Point[]",
                  "name": "Ls",
                  "type": "tuple[]"
                },
                {
                  "components": [
                    {
                      "internalType": "uint256",
                      "name": "X",
                      "type": "uint256"
                    },
                    {
                      "internalType": "uint256",
                      "name": "Y",
                      "type": "uint256"
                    }
                  ],
                  "internalType": "struct alt_bn128.G1Point[]",
                  "name": "Rs",
                  "type": "tuple[]"
                },
                {
                  "internalType": "uint256",
                  "name": "a",
                  "type": "uint256"
                },
                {
                  "internalType": "uint256",
                  "name": "b",
                  "type": "uint256"
                }
              ],
              "internalType": "struct NISA.Proof",
              "name": "pi",
              "type": "tuple"
            },
            {
              "components": [
                {
                  "components": [
                    {
                      "internalType": "uint256",
                      "name": "X",
                      "type": "uint256"
                    },
                    {
                      "internalType": "uint256",
                      "name": "Y",
                      "type": "uint256"
                    }
                  ],
                  "internalType": "struct alt_bn128.G1Point[]",
                  "name": "Gs",
                  "type": "tuple[]"
                },
                {
                  "components": [
                    {
                      "internalType": "uint256",
                      "name": "X",
                      "type": "uint256"
                    },
                    {
                      "internalType": "uint256",
                      "name": "Y",
                      "type": "uint256"
                    }
                  ],
                  "internalType": "struct alt_bn128.G1Point",
                  "name": "P",
                  "type": "tuple"
                },
                {
                  "internalType": "uint256",
                  "name": "c",
                  "type": "uint256"
                }
              ],
              "internalType": "struct NISA.Param",
              "name": "pp",
              "type": "tuple"
            }
          ],
          "internalType": "struct DualRingEC.Signature",
          "name": "sig",
          "type": "tuple"
        }
      ],
      "name": "get_para",
      "outputs": [
        {
          "components": [
            {
              "internalType": "uint256",
              "name": "z",
              "type": "uint256"
            },
            {
              "components": [
                {
                  "internalType": "uint256",
                  "name": "X",
                  "type": "uint256"
                },
                {
                  "internalType": "uint256",
                  "name": "Y",
                  "type": "uint256"
                }
              ],
              "internalType": "struct alt_bn128.G1Point[]",
              "name": "Gs",
              "type": "tuple[]"
            },
            {
              "components": [
                {
                  "internalType": "uint256",
                  "name": "X",
                  "type": "uint256"
                },
                {
                  "internalType": "uint256",
                  "name": "Y",
                  "type": "uint256"
                }
              ],
              "internalType": "struct alt_bn128.G1Point",
              "name": "P",
              "type": "tuple"
            },
            {
              "internalType": "uint256",
              "name": "c",
              "type": "uint256"
            },
            {
              "components": [
                {
                  "internalType": "uint256",
                  "name": "X",
                  "type": "uint256"
                },
                {
                  "internalType": "uint256",
                  "name": "Y",
                  "type": "uint256"
                }
              ],
              "internalType": "struct alt_bn128.G1Point[]",
              "name": "Ls",
              "type": "tuple[]"
            },
            {
              "components": [
                {
                  "internalType": "uint256",
                  "name": "X",
                  "type": "uint256"
                },
                {
                  "internalType": "uint256",
                  "name": "Y",
                  "type": "uint256"
                }
              ],
              "internalType": "struct alt_bn128.G1Point[]",
              "name": "Rs",
              "type": "tuple[]"
            },
            {
              "internalType": "uint256",
              "name": "a",
              "type": "uint256"
            },
            {
              "internalType": "uint256",
              "name": "b",
              "type": "uint256"
            }
          ],
          "internalType": "struct DualRingEC.Args",
          "name": "args",
          "type": "tuple"
        }
      ],
      "stateMutability": "pure",
      "type": "function",
      "constant": true
    },
    {
      "inputs": [
        {
          "internalType": "string",
          "name": "_message",
          "type": "string"
        },
        {
          "components": [
            {
              "internalType": "uint256",
              "name": "z",
              "type": "uint256"
            },
            {
              "components": [
                {
                  "components": [
                    {
                      "internalType": "uint256",
                      "name": "X",
                      "type": "uint256"
                    },
                    {
                      "internalType": "uint256",
                      "name": "Y",
                      "type": "uint256"
                    }
                  ],
                  "internalType": "struct alt_bn128.G1Point[]",
                  "name": "Ls",
                  "type": "tuple[]"
                },
                {
                  "components": [
                    {
                      "internalType": "uint256",
                      "name": "X",
                      "type": "uint256"
                    },
                    {
                      "internalType": "uint256",
                      "name": "Y",
                      "type": "uint256"
                    }
                  ],
                  "internalType": "struct alt_bn128.G1Point[]",
                  "name": "Rs",
                  "type": "tuple[]"
                },
                {
                  "internalType": "uint256",
                  "name": "a",
                  "type": "uint256"
                },
                {
                  "internalType": "uint256",
                  "name": "b",
                  "type": "uint256"
                }
              ],
              "internalType": "struct NISA.Proof",
              "name": "pi",
              "type": "tuple"
            },
            {
              "components": [
                {
                  "components": [
                    {
                      "internalType": "uint256",
                      "name": "X",
                      "type": "uint256"
                    },
                    {
                      "internalType": "uint256",
                      "name": "Y",
                      "type": "uint256"
                    }
                  ],
                  "internalType": "struct alt_bn128.G1Point[]",
                  "name": "Gs",
                  "type": "tuple[]"
                },
                {
                  "components": [
                    {
                      "internalType": "uint256",
                      "name": "X",
                      "type": "uint256"
                    },
                    {
                      "internalType": "uint256",
                      "name": "Y",
                      "type": "uint256"
                    }
                  ],
                  "internalType": "struct alt_bn128.G1Point",
                  "name": "P",
                  "type": "tuple"
                },
                {
                  "internalType": "uint256",
                  "name": "c",
                  "type": "uint256"
                }
              ],
              "internalType": "struct NISA.Param",
              "name": "pp",
              "type": "tuple"
            }
          ],
          "internalType": "struct DualRingEC.Signature",
          "name": "sig",
          "type": "tuple"
        }
      ],
      "name": "full_verify",
      "outputs": [
        {
          "internalType": "bool",
          "name": "",
          "type": "bool"
        }
      ],
      "stateMutability": "view",
      "type": "function",
      "constant": true
    },
    {
      "inputs": [
        {
          "internalType": "string",
          "name": "_message",
          "type": "string"
        },
        {
          "components": [
            {
              "internalType": "uint256",
              "name": "z",
              "type": "uint256"
            },
            {
              "components": [
                {
                  "internalType": "uint256",
                  "name": "X",
                  "type": "uint256"
                },
                {
                  "internalType": "uint256",
                  "name": "Y",
                  "type": "uint256"
                }
              ],
              "internalType": "struct alt_bn128.G1Point[]",
              "name": "Gs",
              "type": "tuple[]"
            },
            {
              "components": [
                {
                  "internalType": "uint256",
                  "name": "X",
                  "type": "uint256"
                },
                {
                  "internalType": "uint256",
                  "name": "Y",
                  "type": "uint256"
                }
              ],
              "internalType": "struct alt_bn128.G1Point",
              "name": "P",
              "type": "tuple"
            },
            {
              "internalType": "uint256",
              "name": "c",
              "type": "uint256"
            },
            {
              "components": [
                {
                  "internalType": "uint256",
                  "name": "X",
                  "type": "uint256"
                },
                {
                  "internalType": "uint256",
                  "name": "Y",
                  "type": "uint256"
                }
              ],
              "internalType": "struct alt_bn128.G1Point[]",
              "name": "Ls",
              "type": "tuple[]"
            },
            {
              "components": [
                {
                  "internalType": "uint256",
                  "name": "X",
                  "type": "uint256"
                },
                {
                  "internalType": "uint256",
                  "name": "Y",
                  "type": "uint256"
                }
              ],
              "internalType": "struct alt_bn128.G1Point[]",
              "name": "Rs",
              "type": "tuple[]"
            },
            {
              "internalType": "uint256",
              "name": "a",
              "type": "uint256"
            },
            {
              "internalType": "uint256",
              "name": "b",
              "type": "uint256"
            }
          ],
          "internalType": "struct DualRingEC.Args",
          "name": "sig",
          "type": "tuple"
        }
      ],
      "name": "from_external_verify",
      "outputs": [
        {
          "internalType": "bool",
          "name": "",
          "type": "bool"
        }
      ],
      "stateMutability": "view",
      "type": "function",
      "constant": true
    }
  ],
  "bytecode": "0x60806040523480156200001157600080fd5b506200002460016200004260201b60201c565b60008082015181600001556020820151816001015590505062000519565b6200004c6200033e565b60007f30644e72e131a029b85045b68181585d97816a916871ca8d3c208c16d87cfd47836200007c9190620003d5565b905060006001826200008f91906200043c565b91506000805b816200020257600184620000aa919062000477565b93507f30644e72e131a029b85045b68181585d97816a916871ca8d3c208c16d87cfd4780620000de57620000dd620003a6565b5b84850990507f30644e72e131a029b85045b68181585d97816a916871ca8d3c208c16d87cfd4780620001155762000114620003a6565b5b84820990507f30644e72e131a029b85045b68181585d97816a916871ca8d3c208c16d87cfd47806200014c576200014b620003a6565b5b600382089050620001c181600460017f30644e72e131a029b85045b68181585d97816a916871ca8d3c208c16d87cfd4762000188919062000477565b620001949190620004b2565b7f30644e72e131a029b85045b68181585d97816a916871ca8d3c208c16d87cfd476200022260201b60201c565b9250807f30644e72e131a029b85045b68181585d97816a916871ca8d3c208c16d87cfd4780620001f657620001f5620003a6565b5b84850914915062000095565b604051806040016040528085815260200184815250945050505050919050565b60006200022e62000358565b620002386200037a565b602082600060068110620002515762000250620004ea565b5b602002018181525050602082600160068110620002735762000272620004ea565b5b602002018181525050602082600260068110620002955762000294620004ea565b5b6020020181815250508582600360068110620002b657620002b5620004ea565b5b6020020181815250508482600460068110620002d757620002d6620004ea565b5b6020020181815250508382600560068110620002f857620002f7620004ea565b5b60200201818152505060208160c0846005600019fa6200031757600080fd5b806000600181106200032e576200032d620004ea565b5b6020020151925050509392505050565b604051806040016040528060008152602001600081525090565b6040518060c00160405280600690602082028036833780820191505090505090565b6040518060200160405280600190602082028036833780820191505090505090565b6000819050919050565b7f4e487b7100000000000000000000000000000000000000000000000000000000600052601260045260246000fd5b6000620003e2826200039c565b9150620003ef836200039c565b925082620004025762000401620003a6565b5b828206905092915050565b7f4e487b7100000000000000000000000000000000000000000000000000000000600052601160045260246000fd5b600062000449826200039c565b915062000456836200039c565b92508282039050818111156200047157620004706200040d565b5b92915050565b600062000484826200039c565b915062000491836200039c565b9250828201905080821115620004ac57620004ab6200040d565b5b92915050565b6000620004bf826200039c565b9150620004cc836200039c565b925082620004df57620004de620003a6565b5b828204905092915050565b7f4e487b7100000000000000000000000000000000000000000000000000000000600052603260045260246000fd5b6140e080620005296000396000f3fe608060405234801561001057600080fd5b50600436106100b45760003560e01c80639ae5baa3116100715780639ae5baa3146101c5578063b37bfc84146101f5578063b5c5d37a14610225578063c71cb64b14610255578063ca16068414610285578063f909cb5b146102b5576100b4565b8063101ae41c146100b957806319dcfead146100e95780631a68fb501461011957806325563051146101355780636c468bb51461016557806397ee8a4714610195575b600080fd5b6100d360048036038101906100ce9190612c4c565b6102e5565b6040516100e09190612df8565b60405180910390f35b61010360048036038101906100fe9190613108565b6106e8565b60405161011091906132bf565b60405180910390f35b610133600480360381019061012e91906132e1565b61076d565b005b61014f600480360381019061014a91906132e1565b61085e565b60405161015c919061331d565b60405180910390f35b61017f600480360381019061017a9190613338565b610882565b60405161018c91906133cb565b60405180910390f35b6101af60048036038101906101aa91906133e6565b610f26565b6040516101bc91906133cb565b60405180910390f35b6101df60048036038101906101da9190612c4c565b611062565b6040516101ec919061356f565b60405180910390f35b61020f600480360381019061020a91906136b0565b611190565b60405161021c91906133cb565b60405180910390f35b61023f600480360381019061023a91906137eb565b611320565b60405161024c9190613884565b60405180910390f35b61026f600480360381019061026a919061393a565b611551565b60405161027c91906133cb565b60405180910390f35b61029f600480360381019061029a91906137eb565b61174b565b6040516102ac91906133cb565b60405180910390f35b6102cf60048036038101906102ca91906139b2565b61177a565b6040516102dc9190613a94565b60405180910390f35b6102ed612925565b6005805490508210610334576040517f08c379a000000000000000000000000000000000000000000000000000000000815260040161032b90613b39565b60405180910390fd5b6000426040516020016103479190613b7a565b6040516020818303038152906040528051906020012060001c9050600061039782600260405180604001604052908160008201548152602001600182015481525050611d3190919063ffffffff16565b9050600060048054905067ffffffffffffffff8111156103ba576103b9612aeb565b5b6040519080825280602002602001820160405280156103e85781602001602082028036833780820191505090505b5090506000805b6004805490508110156105405786811461052d577f30644e72e131a029b85045b68181585d2833e84879b9709143e1f593f0000001600a4283604051602001610439929190613b95565b6040516020818303038152906040528051906020012060001c901c61045e9190613bf0565b83828151811061047157610470613c21565b5b6020026020010181815250508281815181106104905761048f613c21565b5b6020026020010151826104a39190613c7f565b915060006105148483815181106104bd576104bc613c21565b5b6020026020010151600484815481106104d9576104d8613c21565b5b906000526020600020906002020160405180604001604052908160008201548152602001600182015481525050611d3190919063ffffffff16565b90506105298186611de990919063ffffffff16565b9450505b808061053890613cb3565b9150506103ef565b506000878051906020012090506000816105c46004805480602002602001604051908101604052809291908181526020016000905b828210156105bb57838290600052602060002090600202016040518060400160405290816000820154815260200160018201548152505081526020019060010190610575565b50505050611e9d565b866000015187602001516040516020016105e19493929190613d97565b6040516020818303038152906040528051906020012060001c905061060e8161060985611f50565b611f85565b84898151811061062157610620613c21565b5b60200260200101818152505060007f30644e72e131a029b85045b68181585d2833e84879b9709143e1f593f00000018061065e5761065d613bc1565b5b858a8151811061067157610670613c21565b5b602002602001015160058b8154811061068d5761068c613c21565b5b906000526020600020015409905060006106af886106aa84611f50565b611f85565b90506000604051806080016040528088815260200183815260200185815260200189815250905080995050505050505050505092915050565b6106f0612953565b604051806101000160405280836000015181526020018360400151600001518152602001836040015160200151815260200183604001516040015181526020018360200151600001518152602001836020015160200151815260200183602001516040015181526020018360200151606001518152509050919050565b6107776001611fc1565b6002600082015181600001556020820151816001015590505060005b8181101561085a5760006001826107aa9190613c7f565b90506005819080600181540180825580915050600190039060005260206000200160009091909190915055600061080160026040518060400160405290816000820154815260200160018201548152505083611d31565b90506004819080600181540180825580915050600190039060005260206000209060020201600090919091909150600082015181600001556020820151816001015550505050808061085290613cb3565b915050610793565b5050565b6005818154811061086e57600080fd5b906000526020600020016000915090505481565b60008061089384600001515161217f565b905060008167ffffffffffffffff8111156108b1576108b0612aeb565b5b6040519080825280602002602001820160405280156108df5781602001602082028036833780820191505090505b50905060008267ffffffffffffffff8111156108fe576108fd612aeb565b5b60405190808252806020026020018201604052801561092c5781602001602082028036833780820191505090505b50905060008073__alt_bn128_____________________________63aba8f70689602001516040518263ffffffff1660e01b815260040161096d9190613e1f565b602060405180830381865af415801561098a573d6000803e3d6000fd5b505050506040513d601f19601f820116820180604052508101906109ae9190613e66565b73__alt_bn128_____________________________63aba8f70660006040518263ffffffff1660e01b81526004016109e69190613f0b565b602060405180830381865af4158015610a03573d6000803e3d6000fd5b505050506040513d601f19601f82011682018060405250810190610a279190613e66565b8960400151604051602001610a3e93929190613f26565b6040516020818303038152906040528051906020012060001c90506000610a9f8960200151610a9a600060405180604001604052908160008201548152602001600182015481525050610a958d60400151876121b3565b611d31565b611de9565b90506001925060005b86811015610d805773__alt_bn128_____________________________63aba8f7068a600001518381518110610ae157610ae0613c21565b5b60200260200101516040518263ffffffff1660e01b8152600401610b059190613e1f565b602060405180830381865af4158015610b22573d6000803e3d6000fd5b505050506040513d601f19601f82011682018060405250810190610b469190613e66565b73__alt_bn128_____________________________63aba8f7068b602001518481518110610b7757610b76613c21565b5b60200260200101516040518263ffffffff1660e01b8152600401610b9b9190613e1f565b602060405180830381865af4158015610bb8573d6000803e3d6000fd5b505050506040513d601f19601f82011682018060405250810190610bdc9190613e66565b604051602001610bed929190613f63565b6040516020818303038152906040528051906020012060001c868281518110610c1957610c18613c21565b5b602002602001018181525050610c48868281518110610c3b57610c3a613c21565b5b60200260200101516121ef565b858281518110610c5b57610c5a613c21565b5b602002602001018181525050610cd582610cd08b600001518481518110610c8557610c84613c21565b5b6020026020010151610ccb8a8681518110610ca357610ca2613c21565b5b60200260200101518b8781518110610cbe57610cbd613c21565b5b60200260200101516121b3565b611d31565b611de9565b9150610d4582610d408b602001518481518110610cf557610cf4613c21565b5b6020026020010151610d3b898681518110610d1357610d12613c21565b5b60200260200101518a8781518110610d2e57610d2d613c21565b5b60200260200101516121b3565b611d31565b611de9565b9150610d6b84868381518110610d5e57610d5d613c21565b5b60200260200101516121b3565b93508080610d7890613cb3565b915050610aa8565b506000610dac8a60000151600081518110610d9e57610d9d613c21565b5b602002602001015185611d31565b90506000600190505b8a6000015151811015610eba576001945060005b88811015610e7357610ddb828261224f565b15610e2257610e1b86896001848d610df39190613f8f565b610dfd9190613f8f565b81518110610e0e57610e0d613c21565b5b60200260200101516121b3565b9550610e60565b610e5d86886001848d610e359190613f8f565b610e3f9190613f8f565b81518110610e5057610e4f613c21565b5b60200260200101516121b3565b95505b8080610e6b90613cb3565b915050610dc9565b50610ea582610ea08d600001518481518110610e9257610e91613c21565b5b602002602001015188611d31565b611de9565b91508080610eb290613cb3565b915050610db5565b50610efb81610ef6610eec60006040518060400160405290816000820154815260200160018201548152505087611d31565b8c60600151611d31565b611de9565b9050610f0b818a60400151611d31565b9050610f178282612262565b97505050505050505092915050565b6000801515610f3d83604001518460200151610882565b151503610f4d576000905061105c565b6000610f8e610f806002604051806040016040529081600082015481526020016001820154815250508560000151611d31565b846040015160200151611de9565b90506000848051906020012090506000816110136004805480602002602001604051908101604052809291908181526020016000905b8282101561100a57838290600052602060002090600202016040518060400160405290816000820154815260200160018201548152505081526020019060010190610fc4565b50505050611e9d565b846000015185602001516040516020016110309493929190613d97565b6040516020818303038152906040528051906020012060001c9050846040015160400151811493505050505b92915050565b61106a61299e565b600061107684846102e5565b905060006110b06110ab6002604051806040016040529081600082015481526020016001820154815250508460200151611d31565b61228a565b9050600060405180606001604052806004805480602002602001604051908101604052809291908181526020016000905b82821015611127578382906000526020600020906002020160405180604001604052908160008201548152602001600182015481525050815260200190600101906110e1565b50505050815260200161113e848660600151611de9565b815260200184604001518152509050600061115d82856000015161177a565b90506000604051806060016040528086602001518152602001838152602001848152509050809550505050505092915050565b600080604051806060016040528084602001518152602001846040015181526020018460600151815250905060006040518060800160405280856080015181526020018560a0015181526020018560c0015181526020018560e001518152509050600015156111ff8383610882565b1515036112115760009250505061131a565b600061124e6112446002604051806040016040529081600082015481526020016001820154815250508760000151611d31565b8660400151611de9565b90506000868051906020012090506000816112d36004805480602002602001604051908101604052809291908181526020016000905b828210156112ca57838290600052602060002090600202016040518060400160405290816000820154815260200160018201548152505081526020019060010190611284565b50505050611e9d565b846000015185602001516040516020016112f09493929190613d97565b6040516020818303038152906040528051906020012060001c905086606001518114955050505050505b92915050565b6113286129cb565b6000600183516113389190613f8f565b8351161461137b576040517f08c379a000000000000000000000000000000000000000000000000000000000815260040161137290614035565b60405180910390fd5b815167ffffffffffffffff81111561139657611395612aeb565b5b6040519080825280602002602001820160405280156113cf57816020015b6113bc6129f2565b8152602001906001900390816113b45790505b50816000018190525060005b825181101561142e576113f96002826113f49190613c7f565b611fc1565b826000015182815181106114105761140f613c21565b5b6020026020010181905250808061142690613cb3565b9150506113db565b508160008151811061144357611442613c21565b5b6020026020010151816040018181525050611498816000015160008151811061146f5761146e613c21565b5b60200260200101518360008151811061148b5761148a613c21565b5b6020026020010151611d31565b81602001819052506000600190505b825181101561154b576114d882604001518483815181106114cb576114ca613c21565b5b6020026020010151611f85565b826040018181525050611530826020015161152b8460000151848151811061150357611502613c21565b5b602002602001015186858151811061151e5761151d613c21565b5b6020026020010151611d31565b611de9565b8260200181905250808061154390613cb3565b9150506114a7565b50919050565b60008060009050600083600001519050600084602001519050600061159660026040518060400160405290816000820154815260200160018201548152505083611d31565b905060005b60048054905081101561167e577f30644e72e131a029b85045b68181585d2833e84879b9709143e1f593f0000001806115d7576115d6613bc1565b5b8482815181106115ea576115e9613c21565b5b602002602001015186089450600061165c6004838154811061160f5761160e613c21565b5b90600052602060002090600202016040518060400160405290816000820154815260200160018201548152505086848151811061164f5761164e613c21565b5b6020026020010151611d31565b90506116688184611de9565b925050808061167690613cb3565b91505061159b565b506000878051906020012090506000816117026004805480602002602001604051908101604052809291908181526020016000905b828210156116f9578382906000526020600020906002020160405180604001604052908160008201548152602001600182015481525050815260200190600101906116b3565b50505050611e9d565b8460000151856020015160405160200161171f9493929190613d97565b6040516020818303038152906040528051906020012060001c9050858114965050505050505092915050565b60008061175783611320565b90506000611765828561177a565b90506117718282610882565b92505050919050565b611782612a0c565b6000600183516117929190613f8f565b835116146117d5576040517f08c379a00000000000000000000000000000000000000000000000000000000081526004016117cc90614035565b60405180910390fd5b60006117e1835161217f565b90508067ffffffffffffffff8111156117fd576117fc612aeb565b5b60405190808252806020026020018201604052801561183657816020015b6118236129f2565b81526020019060019003908161181b5790505b5082600001819052508067ffffffffffffffff81111561185957611858612aeb565b5b60405190808252806020026020018201604052801561189257816020015b61187f6129f2565b8152602001906001900390816118775790505b508260200181905250600073__alt_bn128_____________________________63aba8f70686602001516040518263ffffffff1660e01b81526004016118d89190613e1f565b602060405180830381865af41580156118f5573d6000803e3d6000fd5b505050506040513d601f19601f820116820180604052508101906119199190613e66565b73__alt_bn128_____________________________63aba8f70660006040518263ffffffff1660e01b81526004016119519190613f0b565b602060405180830381865af415801561196e573d6000803e3d6000fd5b505050506040513d601f19601f820116820180604052508101906119929190613e66565b86604001516040516020016119a993929190613f26565b6040516020818303038152906040528051906020012060001c905060006119f060006040518060400160405290816000820154815260200160018201548152505083611d31565b90506000855167ffffffffffffffff811115611a0f57611a0e612aeb565b5b604051908082528060200260200182016040528015611a3d5781602001602082028036833780820191505090505b5090506000865167ffffffffffffffff811115611a5d57611a5c612aeb565b5b604051908082528060200260200182016040528015611a9657816020015b611a836129f2565b815260200190600190039081611a7b5790505b50905060005b8251811015611b16576001838281518110611aba57611ab9613c21565b5b60200260200101818152505088600001518181518110611add57611adc613c21565b5b6020026020010151828281518110611af857611af7613c21565b5b60200260200101819052508080611b0e90613cb3565b915050611a9c565b50611b1f6129f2565b611b276129f2565b600080600090505b88811015611cd857611b43858c888a61231d565b8094508195505050838a600001518281518110611b6357611b62613c21565b5b6020026020010181905250828a602001518281518110611b8657611b85613c21565b5b602002602001018190525073__alt_bn128_____________________________63aba8f706856040518263ffffffff1660e01b8152600401611bc89190613e1f565b602060405180830381865af4158015611be5573d6000803e3d6000fd5b505050506040513d601f19601f82011682018060405250810190611c099190613e66565b73__alt_bn128_____________________________63aba8f706856040518263ffffffff1660e01b8152600401611c409190613e1f565b602060405180830381865af4158015611c5d573d6000803e3d6000fd5b505050506040513d601f19601f82011682018060405250810190611c819190613e66565b604051602001611c92929190613f63565b6040516020818303038152906040528051906020012060001c9150611cb9858c888561257b565b809850819d508297505050508080611cd090613cb3565b915050611b2f565b5089600081518110611ced57611cec613c21565b5b602002602001015189604001818152505084600081518110611d1257611d11613c21565b5b6020026020010151896060018181525050505050505050505092915050565b611d396129f2565b60018203611d4957829050611de3565b60028203611d6257611d5b8384611de9565b9050611de3565b611d6a612a34565b836000015181600060038110611d8357611d82613c21565b5b602002018181525050836020015181600160038110611da557611da4613c21565b5b6020020181815250508281600260038110611dc357611dc2613c21565b5b6020020181815250506040826060836007600019fa611de157600080fd5b505b92915050565b611df16129f2565b611df9612a56565b836000015181600060048110611e1257611e11613c21565b5b602002018181525050836020015181600160048110611e3457611e33613c21565b5b602002018181525050826000015181600260048110611e5657611e55613c21565b5b602002018181525050826020015181600360048110611e7857611e77613c21565b5b6020020181815250506040826080836006600019fa611e9657600080fd5b5092915050565b60608060005b8351811015611f46576000848281518110611ec157611ec0613c21565b5b602002602001015160000151858381518110611ee057611edf613c21565b5b602002602001015160200151604051602001611efd929190613b95565b60405160208183030381529060405290508281604051602001611f21929190614055565b6040516020818303038152906040529250508080611f3e90613cb3565b915050611ea3565b5080915050919050565b6000817f30644e72e131a029b85045b68181585d2833e84879b9709143e1f593f0000001611f7e9190613f8f565b9050919050565b60007f30644e72e131a029b85045b68181585d2833e84879b9709143e1f593f000000180611fb657611fb5613bc1565b5b828408905092915050565b611fc96129f2565b60007f30644e72e131a029b85045b68181585d97816a916871ca8d3c208c16d87cfd4783611ff79190613bf0565b905060006001826120089190613f8f565b91506000805b8161215f576001846120209190613c7f565b93507f30644e72e131a029b85045b68181585d97816a916871ca8d3c208c16d87cfd478061205157612050613bc1565b5b84850990507f30644e72e131a029b85045b68181585d97816a916871ca8d3c208c16d87cfd478061208557612084613bc1565b5b84820990507f30644e72e131a029b85045b68181585d97816a916871ca8d3c208c16d87cfd47806120b9576120b8613bc1565b5b60038208905061212281600460017f30644e72e131a029b85045b68181585d97816a916871ca8d3c208c16d87cfd476120f29190613c7f565b6120fc9190614079565b7f30644e72e131a029b85045b68181585d97816a916871ca8d3c208c16d87cfd47612823565b9250807f30644e72e131a029b85045b68181585d97816a916871ca8d3c208c16d87cfd478061215457612153613bc1565b5b84850914915061200e565b604051806040016040528085815260200184815250945050505050919050565b60005b60018211156121ae576001816121989190613c7f565b90506002826121a79190614079565b9150612182565b919050565b60007f30644e72e131a029b85045b68181585d2833e84879b9709143e1f593f0000001806121e4576121e3613bc1565b5b828409905092915050565b60006122488260027f30644e72e131a029b85045b68181585d2833e84879b9709143e1f593f00000016122229190613f8f565b7f30644e72e131a029b85045b68181585d2833e84879b9709143e1f593f0000001612823565b9050919050565b60006001808385901c1614905092915050565b600081600001518360000151148015612282575081602001518360200151145b905092915050565b6122926129f2565b600082600001511480156122aa575060008260200151145b156122cd5760405180604001604052806000815260200160008152509050612318565b60405180604001604052808360000151815260200183602001517f30644e72e131a029b85045b68181585d97816a916871ca8d3c208c16d87cfd476123129190613f8f565b81525090505b919050565b6123256129f2565b61232d6129f2565b60006002865161233d9190614079565b905060006123808760008151811061235857612357613c21565b5b602002602001015187848151811061237357612372613c21565b5b60200260200101516121b3565b905060006123c388848151811061239a57612399613c21565b5b6020026020010151886000815181106123b6576123b5613c21565b5b60200260200101516121b3565b90506000600190505b8381101561248f57612426836124218b84815181106123ee576123ed613c21565b5b60200260200101518b85896124039190613c7f565b8151811061241457612413613c21565b5b60200260200101516121b3565b611f85565b925061247a826124758b848861243c9190613c7f565b8151811061244d5761244c613c21565b5b60200260200101518b858151811061246857612467613c21565b5b60200260200101516121b3565b611f85565b9150808061248790613cb3565b9150506123cc565b5061249a8683611d31565b94506124a68682611d31565b935060005b8381101561256e57612505866125008c84886124c79190613c7f565b815181106124d8576124d7613c21565b5b60200260200101518c85815181106124f3576124f2613c21565b5b6020026020010151611d31565b611de9565b9550612559856125548c848151811061252157612520613c21565b5b60200260200101518c85896125369190613c7f565b8151811061254757612546613c21565b5b6020026020010151611d31565b611de9565b9450808061256690613cb3565b9150506124ab565b5050505094509492505050565b60608060606000600287516125909190614079565b9050600061259d866121ef565b90508167ffffffffffffffff8111156125b9576125b8612aeb565b5b6040519080825280602002602001820160405280156125f257816020015b6125df6129f2565b8152602001906001900390816125d75790505b5094508167ffffffffffffffff81111561260f5761260e612aeb565b5b60405190808252806020026020018201604052801561263d5781602001602082028036833780820191505090505b5093508167ffffffffffffffff81111561265a57612659612aeb565b5b6040519080825280602002602001820160405280156126885781602001602082028036833780820191505090505b50925060005b82811015612816576126f16126bd8b83815181106126af576126ae613c21565b5b602002602001015184611d31565b6126ec8c84876126cd9190613c7f565b815181106126de576126dd613c21565b5b60200260200101518a611d31565b611de9565b86828151811061270457612703613c21565b5b602002602001018190525061276a612736888b848151811061272957612728613c21565b5b60200260200101516121b3565b612765848c85886127479190613c7f565b8151811061275857612757613c21565b5b60200260200101516121b3565b611f85565b85828151811061277d5761277c613c21565b5b6020026020010181815250506127e46127b0838a84815181106127a3576127a2613c21565b5b60200260200101516121b3565b6127df898b85886127c19190613c7f565b815181106127d2576127d1613c21565b5b60200260200101516121b3565b611f85565b8482815181106127f7576127f6613c21565b5b602002602001018181525050808061280e90613cb3565b91505061268e565b5050509450945094915050565b600061282d612a78565b612835612a9a565b60208260006006811061284b5761284a613c21565b5b60200201818152505060208260016006811061286a57612869613c21565b5b60200201818152505060208260026006811061288957612888613c21565b5b60200201818152505085826003600681106128a7576128a6613c21565b5b60200201818152505084826004600681106128c5576128c4613c21565b5b60200201818152505083826005600681106128e3576128e2613c21565b5b60200201818152505060208160c0846005600019fa61290157600080fd5b8060006001811061291557612914613c21565b5b6020020151925050509392505050565b604051806080016040528060608152602001600081526020016000815260200161294d6129f2565b81525090565b60405180610100016040528060008152602001606081526020016129756129f2565b815260200160008152602001606081526020016060815260200160008152602001600081525090565b6040518060600160405280600081526020016129b8612a0c565b81526020016129c56129cb565b81525090565b6040518060600160405280606081526020016129e56129f2565b8152602001600081525090565b604051806040016040528060008152602001600081525090565b6040518060800160405280606081526020016060815260200160008152602001600081525090565b6040518060600160405280600390602082028036833780820191505090505090565b6040518060800160405280600490602082028036833780820191505090505090565b6040518060c00160405280600690602082028036833780820191505090505090565b6040518060200160405280600190602082028036833780820191505090505090565b6000604051905090565b600080fd5b600080fd5b600080fd5b600080fd5b6000601f19601f8301169050919050565b7f4e487b7100000000000000000000000000000000000000000000000000000000600052604160045260246000fd5b612b2382612ada565b810181811067ffffffffffffffff82111715612b4257612b41612aeb565b5b80604052505050565b6000612b55612abc565b9050612b618282612b1a565b919050565b600067ffffffffffffffff821115612b8157612b80612aeb565b5b612b8a82612ada565b9050602081019050919050565b82818337600083830152505050565b6000612bb9612bb484612b66565b612b4b565b905082815260208101848484011115612bd557612bd4612ad5565b5b612be0848285612b97565b509392505050565b600082601f830112612bfd57612bfc612ad0565b5b8135612c0d848260208601612ba6565b91505092915050565b6000819050919050565b612c2981612c16565b8114612c3457600080fd5b50565b600081359050612c4681612c20565b92915050565b60008060408385031215612c6357612c62612ac6565b5b600083013567ffffffffffffffff811115612c8157612c80612acb565b5b612c8d85828601612be8565b9250506020612c9e85828601612c37565b9150509250929050565b600081519050919050565b600082825260208201905092915050565b6000819050602082019050919050565b612cdd81612c16565b82525050565b6000612cef8383612cd4565b60208301905092915050565b6000602082019050919050565b6000612d1382612ca8565b612d1d8185612cb3565b9350612d2883612cc4565b8060005b83811015612d59578151612d408882612ce3565b9750612d4b83612cfb565b925050600181019050612d2c565b5085935050505092915050565b604082016000820151612d7c6000850182612cd4565b506020820151612d8f6020850182612cd4565b50505050565b600060a0830160008301518482036000860152612db28282612d08565b9150506020830151612dc76020860182612cd4565b506040830151612dda6040860182612cd4565b506060830151612ded6060860182612d66565b508091505092915050565b60006020820190508181036000830152612e128184612d95565b905092915050565b600080fd5b600080fd5b600067ffffffffffffffff821115612e3f57612e3e612aeb565b5b602082029050602081019050919050565b600080fd5b600060408284031215612e6b57612e6a612e1a565b5b612e756040612b4b565b90506000612e8584828501612c37565b6000830152506020612e9984828501612c37565b60208301525092915050565b6000612eb8612eb384612e24565b612b4b565b90508083825260208201905060408402830185811115612edb57612eda612e50565b5b835b81811015612f045780612ef08882612e55565b845260208401935050604081019050612edd565b5050509392505050565b600082601f830112612f2357612f22612ad0565b5b8135612f33848260208601612ea5565b91505092915050565b600060808284031215612f5257612f51612e1a565b5b612f5c6080612b4b565b9050600082013567ffffffffffffffff811115612f7c57612f7b612e1f565b5b612f8884828501612f0e565b600083015250602082013567ffffffffffffffff811115612fac57612fab612e1f565b5b612fb884828501612f0e565b6020830152506040612fcc84828501612c37565b6040830152506060612fe084828501612c37565b60608301525092915050565b60006080828403121561300257613001612e1a565b5b61300c6060612b4b565b9050600082013567ffffffffffffffff81111561302c5761302b612e1f565b5b61303884828501612f0e565b600083015250602061304c84828501612e55565b602083015250606061306084828501612c37565b60408301525092915050565b60006060828403121561308257613081612e1a565b5b61308c6060612b4b565b9050600061309c84828501612c37565b600083015250602082013567ffffffffffffffff8111156130c0576130bf612e1f565b5b6130cc84828501612f3c565b602083015250604082013567ffffffffffffffff8111156130f0576130ef612e1f565b5b6130fc84828501612fec565b60408301525092915050565b60006020828403121561311e5761311d612ac6565b5b600082013567ffffffffffffffff81111561313c5761313b612acb565b5b6131488482850161306c565b91505092915050565b600081519050919050565b600082825260208201905092915050565b6000819050602082019050919050565b60006131898383612d66565b60408301905092915050565b6000602082019050919050565b60006131ad82613151565b6131b7818561315c565b93506131c28361316d565b8060005b838110156131f35781516131da888261317d565b97506131e583613195565b9250506001810190506131c6565b5085935050505092915050565b6000610120830160008301516132196000860182612cd4565b506020830151848203602086015261323182826131a2565b91505060408301516132466040860182612d66565b5060608301516132596080860182612cd4565b50608083015184820360a086015261327182826131a2565b91505060a083015184820360c086015261328b82826131a2565b91505060c08301516132a060e0860182612cd4565b5060e08301516132b4610100860182612cd4565b508091505092915050565b600060208201905081810360008301526132d98184613200565b905092915050565b6000602082840312156132f7576132f6612ac6565b5b600061330584828501612c37565b91505092915050565b61331781612c16565b82525050565b6000602082019050613332600083018461330e565b92915050565b6000806040838503121561334f5761334e612ac6565b5b600083013567ffffffffffffffff81111561336d5761336c612acb565b5b61337985828601612fec565b925050602083013567ffffffffffffffff81111561339a57613399612acb565b5b6133a685828601612f3c565b9150509250929050565b60008115159050919050565b6133c5816133b0565b82525050565b60006020820190506133e060008301846133bc565b92915050565b600080604083850312156133fd576133fc612ac6565b5b600083013567ffffffffffffffff81111561341b5761341a612acb565b5b61342785828601612be8565b925050602083013567ffffffffffffffff81111561344857613447612acb565b5b6134548582860161306c565b9150509250929050565b6000608083016000830151848203600086015261347b82826131a2565b9150506020830151848203602086015261349582826131a2565b91505060408301516134aa6040860182612cd4565b5060608301516134bd6060860182612cd4565b508091505092915050565b600060808301600083015184820360008601526134e582826131a2565b91505060208301516134fa6020860182612d66565b50604083015161350d6060860182612cd4565b508091505092915050565b60006060830160008301516135306000860182612cd4565b5060208301518482036020860152613548828261345e565b9150506040830151848203604086015261356282826134c8565b9150508091505092915050565b600060208201905081810360008301526135898184613518565b905092915050565b600061012082840312156135a8576135a7612e1a565b5b6135b3610100612b4b565b905060006135c384828501612c37565b600083015250602082013567ffffffffffffffff8111156135e7576135e6612e1f565b5b6135f384828501612f0e565b602083015250604061360784828501612e55565b604083015250608061361b84828501612c37565b60608301525060a082013567ffffffffffffffff81111561363f5761363e612e1f565b5b61364b84828501612f0e565b60808301525060c082013567ffffffffffffffff81111561366f5761366e612e1f565b5b61367b84828501612f0e565b60a08301525060e061368f84828501612c37565b60c0830152506101006136a484828501612c37565b60e08301525092915050565b600080604083850312156136c7576136c6612ac6565b5b600083013567ffffffffffffffff8111156136e5576136e4612acb565b5b6136f185828601612be8565b925050602083013567ffffffffffffffff81111561371257613711612acb565b5b61371e85828601613591565b9150509250929050565b600067ffffffffffffffff82111561374357613742612aeb565b5b602082029050602081019050919050565b600061376761376284613728565b612b4b565b9050808382526020820190506020840283018581111561378a57613789612e50565b5b835b818110156137b3578061379f8882612c37565b84526020840193505060208101905061378c565b5050509392505050565b600082601f8301126137d2576137d1612ad0565b5b81356137e2848260208601613754565b91505092915050565b60006020828403121561380157613800612ac6565b5b600082013567ffffffffffffffff81111561381f5761381e612acb565b5b61382b848285016137bd565b91505092915050565b6000608083016000830151848203600086015261385182826131a2565b91505060208301516138666020860182612d66565b5060408301516138796060860182612cd4565b508091505092915050565b6000602082019050818103600083015261389e8184613834565b905092915050565b600060a082840312156138bc576138bb612e1a565b5b6138c66080612b4b565b9050600082013567ffffffffffffffff8111156138e6576138e5612e1f565b5b6138f2848285016137bd565b600083015250602061390684828501612c37565b602083015250604061391a84828501612c37565b604083015250606061392e84828501612e55565b60608301525092915050565b6000806040838503121561395157613950612ac6565b5b600083013567ffffffffffffffff81111561396f5761396e612acb565b5b61397b85828601612be8565b925050602083013567ffffffffffffffff81111561399c5761399b612acb565b5b6139a8858286016138a6565b9150509250929050565b600080604083850312156139c9576139c8612ac6565b5b600083013567ffffffffffffffff8111156139e7576139e6612acb565b5b6139f385828601612fec565b925050602083013567ffffffffffffffff811115613a1457613a13612acb565b5b613a20858286016137bd565b9150509250929050565b60006080830160008301518482036000860152613a4782826131a2565b91505060208301518482036020860152613a6182826131a2565b9150506040830151613a766040860182612cd4565b506060830151613a896060860182612cd4565b508091505092915050565b60006020820190508181036000830152613aae8184613a2a565b905092915050565b600082825260208201905092915050565b7f4475616c52696e673a20496e76616c69642070726976617465206b657920696e60008201527f6465780000000000000000000000000000000000000000000000000000000000602082015250565b6000613b23602383613ab6565b9150613b2e82613ac7565b604082019050919050565b60006020820190508181036000830152613b5281613b16565b9050919050565b6000819050919050565b613b74613b6f82612c16565b613b59565b82525050565b6000613b868284613b63565b60208201915081905092915050565b6000613ba18285613b63565b602082019150613bb18284613b63565b6020820191508190509392505050565b7f4e487b7100000000000000000000000000000000000000000000000000000000600052601260045260246000fd5b6000613bfb82612c16565b9150613c0683612c16565b925082613c1657613c15613bc1565b5b828206905092915050565b7f4e487b7100000000000000000000000000000000000000000000000000000000600052603260045260246000fd5b7f4e487b7100000000000000000000000000000000000000000000000000000000600052601160045260246000fd5b6000613c8a82612c16565b9150613c9583612c16565b9250828201905080821115613cad57613cac613c50565b5b92915050565b6000613cbe82612c16565b91507fffffffffffffffffffffffffffffffffffffffffffffffffffffffffffffffff8203613cf057613cef613c50565b5b600182019050919050565b6000819050919050565b6000819050919050565b613d20613d1b82613cfb565b613d05565b82525050565b600081519050919050565b600081905092915050565b60005b83811015613d5a578082015181840152602081019050613d3f565b60008484015250505050565b6000613d7182613d26565b613d7b8185613d31565b9350613d8b818560208601613d3c565b80840191505092915050565b6000613da38287613d0f565b602082019150613db38286613d66565b9150613dbf8285613b63565b602082019150613dcf8284613b63565b60208201915081905095945050505050565b613dea81612c16565b82525050565b604082016000820151613e066000850182613de1565b506020820151613e196020850182613de1565b50505050565b6000604082019050613e346000830184613df0565b92915050565b613e4381613cfb565b8114613e4e57600080fd5b50565b600081519050613e6081613e3a565b92915050565b600060208284031215613e7c57613e7b612ac6565b5b6000613e8a84828501613e51565b91505092915050565b60008160001c9050919050565b6000819050919050565b6000613ebd613eb883613e93565b613ea0565b9050919050565b604082016000808301549050613ed981613eaa565b613ee66000860182613de1565b5060018301549050613ef781613eaa565b613f046020860182613de1565b5050505050565b6000604082019050613f206000830184613ec4565b92915050565b6000613f328286613d0f565b602082019150613f428285613d0f565b602082019150613f528284613b63565b602082019150819050949350505050565b6000613f6f8285613d0f565b602082019150613f7f8284613d0f565b6020820191508190509392505050565b6000613f9a82612c16565b9150613fa583612c16565b9250828203905081811115613fbd57613fbc613c50565b5b92915050565b7f766563746f72206c656e6774682073686f756c64206265206120706f7765722060008201527f6f66203200000000000000000000000000000000000000000000000000000000602082015250565b600061401f602483613ab6565b915061402a82613fc3565b604082019050919050565b6000602082019050818103600083015261404e81614012565b9050919050565b60006140618285613d66565b915061406d8284613d66565b91508190509392505050565b600061408482612c16565b915061408f83612c16565b92508261409f5761409e613bc1565b5b82820490509291505056fea26469706673582212209631186cf56b807bbeb50aab9e31943b7b63c876e9f50fa7d1fc8f8efecb3de764736f6c63430008130033",
  "immutableReferences": {},
  "source": "// SPDX-License-Identifier: GPL-3.0\r\npragma solidity >=0.7.0 <0.9.0;\r\n\r\nimport \"./alt_bn128.sol\";\r\nimport \"./NISA.sol\";\r\n\r\ncontract DualRingEC is NISA{\r\n\r\n    using alt_bn128 for uint256;\r\n\tusing alt_bn128 for alt_bn128.G1Point;\r\n    \r\n    struct Response{\r\n        uint256[] c;\r\n        uint256 z;\r\n        uint256 sum;\r\n        alt_bn128.G1Point R;\r\n    }\r\n\r\n    struct Signature{\r\n        uint256 z;\r\n        Proof pi;\r\n        Param pp;\r\n    }\r\n\r\n    alt_bn128.G1Point g; // group generator\r\n\r\n    alt_bn128.G1Point[] pks; //publicKeys for alt_bn128 point\r\n\r\n    uint256[] public sks; // private keys\r\n\r\n\r\n    // uint256[2]  S ;\r\n    constructor() NISA() {}\r\n\r\n    // Function to generate a new private key\r\n    function generateKeys(uint _ring_size) public {\r\n\r\n        // uint256 seed = uint256(keccak256(abi.encodePacked(block.timestamp)));\r\n\t\tg = alt_bn128.uintToCurvePoint(1);\r\n        for (uint i = 0; i < _ring_size; i++) {\r\n            uint k = i+1; \r\n            sks.push(k);\r\n\r\n            alt_bn128.G1Point memory pk = alt_bn128.mul(g,k);\r\n            pks.push(pk);\r\n        }\r\n        \r\n    }\r\n\r\n    function packArray(alt_bn128.G1Point[] memory arr) internal pure returns (bytes memory) {\r\n        bytes memory packed;\r\n        for (uint256 i = 0; i < arr.length; i++) {\r\n            bytes memory temp = abi.encodePacked(arr[i].X, arr[i].Y);\r\n            packed = abi.encodePacked(packed, temp);\r\n        }\r\n        return packed;\r\n    }\r\n\r\n\r\n\r\n    // Function to sign a message using a private key\r\n    function basic_sign(string memory _message, uint _privateKeyIndex) public view returns (Response memory) {\r\n        require(_privateKeyIndex < sks.length, \"DualRing: Invalid private key index\");\r\n\r\n\r\n        uint256 r = uint256(keccak256(abi.encodePacked(block.timestamp))); // random number, for testing purpose set it fixed\r\n\r\n        // emit LogVariable(r);\r\n        \r\n        // commitment point R \r\n        alt_bn128.G1Point memory R = g.mul(r); \r\n       \r\n        uint256[] memory cArray = new uint256[](pks.length);\r\n\r\n\r\n        uint256 sumExceptJ = 0;\r\n        for (uint256 i = 0 ; i < pks.length ; i ++){\r\n            if (i!=  _privateKeyIndex ){\r\n\r\n                cArray[i] = (uint256(keccak256(abi.encodePacked(block.timestamp,i)))>>10)% alt_bn128.q;\r\n                sumExceptJ = sumExceptJ +  cArray[i];\r\n\r\n                alt_bn128.G1Point memory temp = pks[i].mul(cArray[i]);\r\n                R = R.add(temp);\r\n            }\r\n        }\r\n\r\n\r\n        bytes32 messageHash = keccak256(bytes(_message));\r\n        uint256 c = (uint256(bytes32(keccak256(abi.encodePacked(messageHash, packArray(pks),R.X, R.Y)))));\r\n\r\n        cArray[_privateKeyIndex] = alt_bn128.add(c, alt_bn128.neg(sumExceptJ ));\r\n\r\n        uint256 p = mulmod(sks[_privateKeyIndex] , cArray[_privateKeyIndex],alt_bn128.q);\r\n\r\n        uint256 z = alt_bn128.add(r, alt_bn128.neg(p));\r\n\r\n        Response memory sig = Response({\r\n            c: cArray,\r\n            z: z, \r\n            sum: c,\r\n            R: R \r\n        });\r\n\r\n        return sig;\r\n    }\r\n\r\n\r\n    // verify a message with the given signature\r\n    function basic_verify(string memory _message, Response memory sig) public view returns (bool) {\r\n\r\n        uint256 sumExceptJ = 0;\r\n        \r\n        uint256[] memory cArray = sig.c;\r\n        uint256 z = sig.z;\r\n\r\n        alt_bn128.G1Point memory R = alt_bn128.mul(g,z);\r\n\r\n        for (uint256 i = 0; i < pks.length ; i++){\r\n            sumExceptJ = addmod(sumExceptJ,cArray[i],alt_bn128.q);\r\n\r\n            alt_bn128.G1Point memory tempV = alt_bn128.mul(pks[i], cArray[i]);\r\n\r\n            R = alt_bn128.add(tempV,R);\r\n        }\r\n\r\n\r\n        bytes32 messageHash =  keccak256(bytes(_message));\r\n        uint256 c = (uint256(bytes32(keccak256(abi.encodePacked(messageHash, packArray(pks),R.X, R.Y)))));\r\n\r\n\r\n        return c == sumExceptJ;\r\n    }\r\n\r\n\r\n    // sign a message with bulletproof\r\n    function full_sign(string memory _message, uint _privateKeyIndex)  public view returns (Signature memory ) {\r\n        Response memory re = basic_sign(_message, _privateKeyIndex);\r\n        alt_bn128.G1Point memory temp =  alt_bn128.neg(alt_bn128.mul(g,re.z));\r\n\r\n        Param memory param =Param({\r\n            Gs : pks,\r\n            P : alt_bn128.add(temp,re.R),\r\n            c : re.sum  \r\n        });\r\n\r\n        Proof memory p = prove(param, re.c);// use bulletproof to reduce the signature size;\r\n\r\n        Signature memory sig = Signature({\r\n            z : re.z,\r\n            pi : p,\r\n            pp : param\r\n        });\r\n\r\n        return sig;\r\n    }\r\n\r\n    struct Args {\r\n        uint256 z;\r\n\t\talt_bn128.G1Point[] Gs; \r\n\t\talt_bn128.G1Point P; \r\n\t\tuint256 c;\r\n\t\talt_bn128.G1Point[] Ls;\r\n\t\talt_bn128.G1Point[] Rs;\r\n\t\tuint256 a;\r\n\t\tuint256 b;\r\n    }\r\n    \r\n\r\n    function get_para(Signature memory sig) public pure returns (Args memory args){\r\n        args = Args({\r\n            z: sig.z,\r\n            Gs: sig.pp.Gs,\r\n            P: sig.pp.P,\r\n            c: sig.pp.c,\r\n            Ls: sig.pi.Ls,\r\n            Rs: sig.pi.Rs,\r\n            a: sig.pi.a,\r\n            b: sig.pi.b\r\n        });\r\n    }\r\n\r\n\r\n    // verify the message and proof generated from the full_sign funnction\r\n    function full_verify(string memory _message, Signature memory sig )  public view returns (bool ) {\r\n\r\n        if (verify(sig.pp, sig.pi) == false){\r\n            return false;\r\n        }\r\n\r\n        alt_bn128.G1Point memory R =  alt_bn128.add(alt_bn128.mul(g,sig.z),sig.pp.P);\r\n\r\n        // alt_bn128.G1Point memory R = response.s.R;\r\n        bytes32 messageHash =  keccak256(bytes(_message));\r\n        uint256 c = (uint256(bytes32(keccak256(abi.encodePacked(messageHash, packArray(pks),R.X, R.Y)))));\r\n\r\n        return c== sig.pp.c;\r\n\r\n    }\r\n\r\n\r\n    function from_external_verify(string memory _message, Args memory sig)  public view returns (bool) {\r\n        Param memory pa =Param({\r\n            Gs : sig.Gs,\r\n            P: sig.P,\r\n            c: sig.c\r\n            });\r\n        Proof memory pi =Proof({\r\n            Ls: sig.Ls,\r\n            Rs: sig.Rs,\r\n            a: sig.a,\r\n            b: sig.b  \r\n            });\r\n            \r\n        if (verify(pa, pi) == false){\r\n            return false;\r\n        }\r\n\r\n        alt_bn128.G1Point memory R =  alt_bn128.add(alt_bn128.mul(g,sig.z),sig.P);\r\n\r\n        // alt_bn128.G1Point memory R = response.s.R;\r\n        bytes32 messageHash =  keccak256(bytes(_message));\r\n        uint256 c = (uint256(bytes32(keccak256(abi.encodePacked(messageHash, packArray(pks),R.X, R.Y)))));\r\n\r\n        return c== sig.c;\r\n                \r\n    }\r\n}",
  "sourcePath": "/Users/qian/Desktop/Y4/COMP4550/project/XCSwap/contracts/ZKP/DualRingEC.sol",
  "compiler": {
    "name": "solc",
    "version": "0.8.19+commit.7dd6d404.Emscripten.clang"
  },
  "schemaVersion": "3.4.13",
  "updatedAt": "2023-07-04T06:50:40.701Z",
  "networkType": "ethereum",
  "devdoc": {
    "kind": "dev",
    "methods": {},
    "version": 1
  },
  "userdoc": {
    "kind": "user",
    "methods": {
      "generateParam(uint256[])": {
        "notice": "Gs : public keys P : prod_i (g_i ^ a_i) c : sum_i a_i"
      },
      "test(uint256[])": {
        "notice": "test correctness "
      }
    },
    "version": 1
  }
}