{
  "contractName": "DualRingEC",
  "abi": [
    {
      "inputs": [],
      "stateMutability": "nonpayable",
      "type": "constructor"
    },
    {
      "inputs": [
        {
          "internalType": "uint256",
          "name": "ring_size",
          "type": "uint256"
        },
        {
          "internalType": "uint256[2]",
          "name": "skj",
          "type": "uint256[2]"
        }
      ],
      "name": "setup",
      "outputs": [
        {
          "components": [
            {
              "components": [
                {
                  "internalType": "uint256",
                  "name": "X",
                  "type": "uint256"
                },
                {
                  "internalType": "uint256",
                  "name": "Y",
                  "type": "uint256"
                }
              ],
              "internalType": "struct alt_bn128.G1Point",
              "name": "g",
              "type": "tuple"
            },
            {
              "components": [
                {
                  "internalType": "uint256",
                  "name": "X",
                  "type": "uint256"
                },
                {
                  "internalType": "uint256",
                  "name": "Y",
                  "type": "uint256"
                }
              ],
              "internalType": "struct alt_bn128.G1Point[]",
              "name": "pks",
              "type": "tuple[]"
            }
          ],
          "internalType": "struct DualRing.Param",
          "name": "pp",
          "type": "tuple"
        }
      ],
      "stateMutability": "view",
      "type": "function"
    },
    {
      "inputs": [
        {
          "components": [
            {
              "components": [
                {
                  "internalType": "uint256",
                  "name": "X",
                  "type": "uint256"
                },
                {
                  "internalType": "uint256",
                  "name": "Y",
                  "type": "uint256"
                }
              ],
              "internalType": "struct alt_bn128.G1Point",
              "name": "g",
              "type": "tuple"
            },
            {
              "components": [
                {
                  "internalType": "uint256",
                  "name": "X",
                  "type": "uint256"
                },
                {
                  "internalType": "uint256",
                  "name": "Y",
                  "type": "uint256"
                }
              ],
              "internalType": "struct alt_bn128.G1Point[]",
              "name": "pks",
              "type": "tuple[]"
            }
          ],
          "internalType": "struct DualRing.Param",
          "name": "pp",
          "type": "tuple"
        },
        {
          "internalType": "string",
          "name": "m",
          "type": "string"
        },
        {
          "internalType": "uint256[2]",
          "name": "skj",
          "type": "uint256[2]"
        }
      ],
      "name": "sign",
      "outputs": [
        {
          "components": [
            {
              "internalType": "uint256[]",
              "name": "cs",
              "type": "uint256[]"
            },
            {
              "internalType": "uint256",
              "name": "z",
              "type": "uint256"
            }
          ],
          "internalType": "struct DualRing.Sig",
          "name": "sig",
          "type": "tuple"
        },
        {
          "internalType": "uint256",
          "name": "c",
          "type": "uint256"
        },
        {
          "components": [
            {
              "internalType": "uint256",
              "name": "X",
              "type": "uint256"
            },
            {
              "internalType": "uint256",
              "name": "Y",
              "type": "uint256"
            }
          ],
          "internalType": "struct alt_bn128.G1Point",
          "name": "R",
          "type": "tuple"
        }
      ],
      "stateMutability": "view",
      "type": "function"
    },
    {
      "inputs": [
        {
          "components": [
            {
              "components": [
                {
                  "internalType": "uint256",
                  "name": "X",
                  "type": "uint256"
                },
                {
                  "internalType": "uint256",
                  "name": "Y",
                  "type": "uint256"
                }
              ],
              "internalType": "struct alt_bn128.G1Point",
              "name": "g",
              "type": "tuple"
            },
            {
              "components": [
                {
                  "internalType": "uint256",
                  "name": "X",
                  "type": "uint256"
                },
                {
                  "internalType": "uint256",
                  "name": "Y",
                  "type": "uint256"
                }
              ],
              "internalType": "struct alt_bn128.G1Point[]",
              "name": "pks",
              "type": "tuple[]"
            }
          ],
          "internalType": "struct DualRing.Param",
          "name": "pp",
          "type": "tuple"
        },
        {
          "internalType": "string",
          "name": "m",
          "type": "string"
        },
        {
          "components": [
            {
              "internalType": "uint256[]",
              "name": "cs",
              "type": "uint256[]"
            },
            {
              "internalType": "uint256",
              "name": "z",
              "type": "uint256"
            }
          ],
          "internalType": "struct DualRing.Sig",
          "name": "sig",
          "type": "tuple"
        }
      ],
      "name": "verify",
      "outputs": [
        {
          "internalType": "bool",
          "name": "",
          "type": "bool"
        }
      ],
      "stateMutability": "view",
      "type": "function"
    },
    {
      "inputs": [
        {
          "internalType": "uint256",
          "name": "ring_size",
          "type": "uint256"
        },
        {
          "internalType": "uint256[2]",
          "name": "skj",
          "type": "uint256[2]"
        }
      ],
      "name": "setupEC",
      "outputs": [
        {
          "components": [
            {
              "components": [
                {
                  "components": [
                    {
                      "internalType": "uint256",
                      "name": "X",
                      "type": "uint256"
                    },
                    {
                      "internalType": "uint256",
                      "name": "Y",
                      "type": "uint256"
                    }
                  ],
                  "internalType": "struct alt_bn128.G1Point",
                  "name": "g",
                  "type": "tuple"
                },
                {
                  "components": [
                    {
                      "internalType": "uint256",
                      "name": "X",
                      "type": "uint256"
                    },
                    {
                      "internalType": "uint256",
                      "name": "Y",
                      "type": "uint256"
                    }
                  ],
                  "internalType": "struct alt_bn128.G1Point[]",
                  "name": "pks",
                  "type": "tuple[]"
                }
              ],
              "internalType": "struct DualRing.Param",
              "name": "dr_pp",
              "type": "tuple"
            },
            {
              "components": [
                {
                  "internalType": "uint256",
                  "name": "X",
                  "type": "uint256"
                },
                {
                  "internalType": "uint256",
                  "name": "Y",
                  "type": "uint256"
                }
              ],
              "internalType": "struct alt_bn128.G1Point",
              "name": "u",
              "type": "tuple"
            }
          ],
          "internalType": "struct DualRingEC.ParamEC",
          "name": "pp",
          "type": "tuple"
        }
      ],
      "stateMutability": "view",
      "type": "function"
    },
    {
      "inputs": [
        {
          "components": [
            {
              "components": [
                {
                  "components": [
                    {
                      "internalType": "uint256",
                      "name": "X",
                      "type": "uint256"
                    },
                    {
                      "internalType": "uint256",
                      "name": "Y",
                      "type": "uint256"
                    }
                  ],
                  "internalType": "struct alt_bn128.G1Point",
                  "name": "g",
                  "type": "tuple"
                },
                {
                  "components": [
                    {
                      "internalType": "uint256",
                      "name": "X",
                      "type": "uint256"
                    },
                    {
                      "internalType": "uint256",
                      "name": "Y",
                      "type": "uint256"
                    }
                  ],
                  "internalType": "struct alt_bn128.G1Point[]",
                  "name": "pks",
                  "type": "tuple[]"
                }
              ],
              "internalType": "struct DualRing.Param",
              "name": "dr_pp",
              "type": "tuple"
            },
            {
              "components": [
                {
                  "internalType": "uint256",
                  "name": "X",
                  "type": "uint256"
                },
                {
                  "internalType": "uint256",
                  "name": "Y",
                  "type": "uint256"
                }
              ],
              "internalType": "struct alt_bn128.G1Point",
              "name": "u",
              "type": "tuple"
            }
          ],
          "internalType": "struct DualRingEC.ParamEC",
          "name": "pp",
          "type": "tuple"
        },
        {
          "internalType": "string",
          "name": "m",
          "type": "string"
        },
        {
          "internalType": "uint256[2]",
          "name": "skj",
          "type": "uint256[2]"
        }
      ],
      "name": "signEC",
      "outputs": [
        {
          "components": [
            {
              "internalType": "uint256",
              "name": "z",
              "type": "uint256"
            },
            {
              "components": [
                {
                  "internalType": "uint256",
                  "name": "X",
                  "type": "uint256"
                },
                {
                  "internalType": "uint256",
                  "name": "Y",
                  "type": "uint256"
                }
              ],
              "internalType": "struct alt_bn128.G1Point",
              "name": "R",
              "type": "tuple"
            },
            {
              "components": [
                {
                  "components": [
                    {
                      "internalType": "uint256",
                      "name": "X",
                      "type": "uint256"
                    },
                    {
                      "internalType": "uint256",
                      "name": "Y",
                      "type": "uint256"
                    }
                  ],
                  "internalType": "struct alt_bn128.G1Point[]",
                  "name": "Ls",
                  "type": "tuple[]"
                },
                {
                  "components": [
                    {
                      "internalType": "uint256",
                      "name": "X",
                      "type": "uint256"
                    },
                    {
                      "internalType": "uint256",
                      "name": "Y",
                      "type": "uint256"
                    }
                  ],
                  "internalType": "struct alt_bn128.G1Point[]",
                  "name": "Rs",
                  "type": "tuple[]"
                },
                {
                  "internalType": "uint256",
                  "name": "a",
                  "type": "uint256"
                },
                {
                  "internalType": "uint256",
                  "name": "b",
                  "type": "uint256"
                }
              ],
              "internalType": "struct NISA.Sig",
              "name": "nisa_sig",
              "type": "tuple"
            }
          ],
          "internalType": "struct DualRingEC.SigEC",
          "name": "sig",
          "type": "tuple"
        }
      ],
      "stateMutability": "view",
      "type": "function"
    },
    {
      "inputs": [
        {
          "components": [
            {
              "components": [
                {
                  "components": [
                    {
                      "internalType": "uint256",
                      "name": "X",
                      "type": "uint256"
                    },
                    {
                      "internalType": "uint256",
                      "name": "Y",
                      "type": "uint256"
                    }
                  ],
                  "internalType": "struct alt_bn128.G1Point",
                  "name": "g",
                  "type": "tuple"
                },
                {
                  "components": [
                    {
                      "internalType": "uint256",
                      "name": "X",
                      "type": "uint256"
                    },
                    {
                      "internalType": "uint256",
                      "name": "Y",
                      "type": "uint256"
                    }
                  ],
                  "internalType": "struct alt_bn128.G1Point[]",
                  "name": "pks",
                  "type": "tuple[]"
                }
              ],
              "internalType": "struct DualRing.Param",
              "name": "dr_pp",
              "type": "tuple"
            },
            {
              "components": [
                {
                  "internalType": "uint256",
                  "name": "X",
                  "type": "uint256"
                },
                {
                  "internalType": "uint256",
                  "name": "Y",
                  "type": "uint256"
                }
              ],
              "internalType": "struct alt_bn128.G1Point",
              "name": "u",
              "type": "tuple"
            }
          ],
          "internalType": "struct DualRingEC.ParamEC",
          "name": "pp",
          "type": "tuple"
        },
        {
          "internalType": "string",
          "name": "m",
          "type": "string"
        },
        {
          "components": [
            {
              "internalType": "uint256",
              "name": "z",
              "type": "uint256"
            },
            {
              "components": [
                {
                  "internalType": "uint256",
                  "name": "X",
                  "type": "uint256"
                },
                {
                  "internalType": "uint256",
                  "name": "Y",
                  "type": "uint256"
                }
              ],
              "internalType": "struct alt_bn128.G1Point",
              "name": "R",
              "type": "tuple"
            },
            {
              "components": [
                {
                  "components": [
                    {
                      "internalType": "uint256",
                      "name": "X",
                      "type": "uint256"
                    },
                    {
                      "internalType": "uint256",
                      "name": "Y",
                      "type": "uint256"
                    }
                  ],
                  "internalType": "struct alt_bn128.G1Point[]",
                  "name": "Ls",
                  "type": "tuple[]"
                },
                {
                  "components": [
                    {
                      "internalType": "uint256",
                      "name": "X",
                      "type": "uint256"
                    },
                    {
                      "internalType": "uint256",
                      "name": "Y",
                      "type": "uint256"
                    }
                  ],
                  "internalType": "struct alt_bn128.G1Point[]",
                  "name": "Rs",
                  "type": "tuple[]"
                },
                {
                  "internalType": "uint256",
                  "name": "a",
                  "type": "uint256"
                },
                {
                  "internalType": "uint256",
                  "name": "b",
                  "type": "uint256"
                }
              ],
              "internalType": "struct NISA.Sig",
              "name": "nisa_sig",
              "type": "tuple"
            }
          ],
          "internalType": "struct DualRingEC.SigEC",
          "name": "sig",
          "type": "tuple"
        }
      ],
      "name": "verifyEC",
      "outputs": [
        {
          "internalType": "bool",
          "name": "",
          "type": "bool"
        }
      ],
      "stateMutability": "view",
      "type": "function"
    }
  ],
  "bytecode": "0x60806040523480156200001157600080fd5b50604051620000209062000083565b604051809103906000f0801580156200003d573d6000803e3d6000fd5b506000806101000a81548173ffffffffffffffffffffffffffffffffffffffff021916908373ffffffffffffffffffffffffffffffffffffffff16021790555062000091565b6126f98062002cba83390190565b612c1980620000a16000396000f3fe608060405234801561001057600080fd5b50600436106100615760003560e01c80623b5086146100665780637d2beca3146100965780638cf63fd7146100c6578063b0f7e232146100f8578063f4f4b60914610128578063fd25e3e614610158575b600080fd5b610080600480360381019061007b91906118a8565b610188565b60405161008d919061196a565b60405180910390f35b6100b060048036038101906100ab9190611a36565b610303565b6040516100bd9190611bdd565b60405180910390f35b6100e060048036038101906100db9190611bff565b6103a0565b6040516100ef93929190611db4565b60405180910390f35b610112600480360381019061010d9190611f21565b6106ff565b60405161011f919061196a565b60405180910390f35b610142600480360381019061013d9190611a36565b6107db565b60405161014f9190612005565b60405180910390f35b610172600480360381019061016d9190612027565b610a6f565b60405161017f919061216c565b60405180910390f35b6000806101a2848660000151602001518560200151610be4565b905060006101e36101d06101cb8660000151896000015160000151610cd090919063ffffffff16565b610d88565b8560200151610e1b90919063ffffffff16565b90506000604051806080016040528088600001516020015181526020018860200151815260200183815260200184815250905060008054906101000a900473ffffffffffffffffffffffffffffffffffffffff1673ffffffffffffffffffffffffffffffffffffffff16634293b77c8287604001516040518363ffffffff1660e01b815260040161027592919061225b565b602060405180830381865afa158015610292573d6000803e3d6000fd5b505050506040513d601f19601f820116820180604052508101906102b691906122be565b6102f5576040517f08c379a00000000000000000000000000000000000000000000000000000000081526004016102ec90612348565b60405180910390fd5b600193505050509392505050565b61030b611297565b61031583836107db565b816000018190525061039273__alt_bn128_____________________________635ec01e4d6040518163ffffffff1660e01b8152600401602060405180830381865af4158015610369573d6000803e3d6000fd5b505050506040513d601f19601f8201168201806040525081019061038d919061237d565b610ecf565b816020018190525092915050565b6103a86112bd565b60006103b26112d7565b856020015151846001600281106103cc576103cb6123aa565b5b602002015110610411576040517f08c379a00000000000000000000000000000000000000000000000000000000081526004016104089061244b565b60405180910390fd5b600086602001515167ffffffffffffffff81111561043257610431611418565b5b6040519080825280602002602001820160405280156104605781602001602082028036833780820191505090505b509050600073__alt_bn128_____________________________635ec01e4d6040518163ffffffff1660e01b8152600401602060405180830381865af41580156104ae573d6000803e3d6000fd5b505050506040513d601f19601f820116820180604052508101906104d2919061237d565b90506104e2886000015182610cd0565b92506000805b8960200151518110156106305787600160028110610509576105086123aa565b5b6020020151811461061d5773__alt_bn128_____________________________635ec01e4d6040518163ffffffff1660e01b8152600401602060405180830381865af415801561055d573d6000803e3d6000fd5b505050506040513d601f19601f82011682018060405250810190610581919061237d565b848281518110610594576105936123aa565b5b6020026020010181815250506105cd8482815181106105b6576105b56123aa565b5b60200260200101518361108d90919063ffffffff16565b915061061a856106158c6020015184815181106105ed576105ec6123aa565b5b6020026020010151878581518110610608576106076123aa565b5b6020026020010151610cd0565b610e1b565b94505b80806106289061249a565b9150506104e8565b50610640888a6020015186610be4565b9450600061065782876110c990919063ffffffff16565b905080848960016002811061066f5761066e6123aa565b5b602002015181518110610685576106846123aa565b5b60200260200101818152505060006106d86106c96106c4848c6000600281106106b1576106b06123aa565b5b602002015161112490919063ffffffff16565b611160565b8561108d90919063ffffffff16565b90506040518060400160405280868152602001828152509750505050505093509350939050565b60008061071485600001518460200151610cd0565b90506000805b8660200151518110156107be576107768361077189602001518481518110610745576107446123aa565b5b602002602001015188600001518581518110610764576107636123aa565b5b6020026020010151610cd0565b610e1b565b92506107a985600001518281518110610792576107916123aa565b5b60200260200101518361108d90919063ffffffff16565b915080806107b69061249a565b91505061071a565b506107ce85876020015184610be4565b8114925050509392505050565b6107e36112f1565b82826001600281106107f8576107f76123aa565b5b60200201511061083d576040517f08c379a000000000000000000000000000000000000000000000000000000000815260040161083490612554565b60405180910390fd5b6108b273__alt_bn128_____________________________635ec01e4d6040518163ffffffff1660e01b8152600401602060405180830381865af4158015610889573d6000803e3d6000fd5b505050506040513d601f19601f820116820180604052508101906108ad919061237d565b610ecf565b81600001819052508267ffffffffffffffff8111156108d4576108d3611418565b5b60405190808252806020026020018201604052801561090d57816020015b6108fa6112d7565b8152602001906001900390816108f25790505b5081602001819052506109458260006002811061092d5761092c6123aa565b5b60200201518260000151610cd090919063ffffffff16565b81602001518360016002811061095e5761095d6123aa565b5b602002015181518110610974576109736123aa565b5b602002602001018190525060005b83811015610a68578260016002811061099e5761099d6123aa565b5b60200201518114610a5557600073__alt_bn128_____________________________635ec01e4d6040518163ffffffff1660e01b8152600401602060405180830381865af41580156109f4573d6000803e3d6000fd5b505050506040513d601f19601f82011682018060405250810190610a18919061237d565b9050610a31818460000151610cd090919063ffffffff16565b83602001518381518110610a4857610a476123aa565b5b6020026020010181905250505b8080610a609061249a565b915050610982565b5092915050565b610a77611311565b610a7f6112bd565b6000610a896112d7565b610a98876000015187876103a0565b80935081945082955050505060006040518060800160405280896000015160200151815260200189602001518152602001610b02610af3610aee88602001518d6000015160000151610cd090919063ffffffff16565b610d88565b85610e1b90919063ffffffff16565b815260200184815250905060008060009054906101000a900473ffffffffffffffffffffffffffffffffffffffff1673ffffffffffffffffffffffffffffffffffffffff16632ba3ecec8387600001516040518363ffffffff1660e01b8152600401610b6f9291906125e3565b600060405180830381865afa158015610b8c573d6000803e3d6000fd5b505050506040513d6000823e3d601f19601f82011682018060405250810190610bb591906127b1565b905060405180606001604052808660200151815260200184815260200182815250955050505050509392505050565b60007f30644e72e131a029b85045b68181585d2833e84879b9709143e1f593f0000001848473__alt_bn128_____________________________63ef39c19090916040518263ffffffff1660e01b8152600401610c4191906128bf565b600060405180830381865af4158015610c5e573d6000803e3d6000fd5b505050506040513d6000823e3d601f19601f82011682018060405250810190610c8791906129ac565b84600001518560200151604051602001610ca49493929190612aa4565b6040516020818303038152906040528051906020012060001c610cc79190612b19565b90509392505050565b610cd86112d7565b60018203610ce857829050610d82565b60028203610d0157610cfa8384610e1b565b9050610d82565b610d0961133e565b836000015181600060038110610d2257610d216123aa565b5b602002018181525050836020015181600160038110610d4457610d436123aa565b5b6020020181815250508281600260038110610d6257610d616123aa565b5b6020020181815250506040826060836007600019fa610d8057600080fd5b505b92915050565b610d906112d7565b60008260000151148015610da8575060008260200151145b15610dcb5760405180604001604052806000815260200160008152509050610e16565b60405180604001604052808360000151815260200183602001517f30644e72e131a029b85045b68181585d97816a916871ca8d3c208c16d87cfd47610e109190612b4a565b81525090505b919050565b610e236112d7565b610e2b611360565b836000015181600060048110610e4457610e436123aa565b5b602002018181525050836020015181600160048110610e6657610e656123aa565b5b602002018181525050826000015181600260048110610e8857610e876123aa565b5b602002018181525050826020015181600360048110610eaa57610ea96123aa565b5b6020020181815250506040826080836006600019fa610ec857600080fd5b5092915050565b610ed76112d7565b60007f30644e72e131a029b85045b68181585d97816a916871ca8d3c208c16d87cfd4783610f059190612b19565b90506000600182610f169190612b4a565b91506000805b8161106d57600184610f2e9190612b7e565b93507f30644e72e131a029b85045b68181585d97816a916871ca8d3c208c16d87cfd4780610f5f57610f5e612aea565b5b84850990507f30644e72e131a029b85045b68181585d97816a916871ca8d3c208c16d87cfd4780610f9357610f92612aea565b5b84820990507f30644e72e131a029b85045b68181585d97816a916871ca8d3c208c16d87cfd4780610fc757610fc6612aea565b5b60038208905061103081600460017f30644e72e131a029b85045b68181585d97816a916871ca8d3c208c16d87cfd476110009190612b7e565b61100a9190612bb2565b7f30644e72e131a029b85045b68181585d97816a916871ca8d3c208c16d87cfd47611195565b9250807f30644e72e131a029b85045b68181585d97816a916871ca8d3c208c16d87cfd478061106257611061612aea565b5b848509149150610f1c565b604051806040016040528085815260200184815250945050505050919050565b60007f30644e72e131a029b85045b68181585d2833e84879b9709143e1f593f0000001806110be576110bd612aea565b5b828408905092915050565b60008183101561110f5782827f30644e72e131a029b85045b68181585d2833e84879b9709143e1f593f00000016111009190612b4a565b61110a9190612b7e565b61111c565b818361111b9190612b4a565b5b905092915050565b60007f30644e72e131a029b85045b68181585d2833e84879b9709143e1f593f00000018061115557611154612aea565b5b828409905092915050565b6000817f30644e72e131a029b85045b68181585d2833e84879b9709143e1f593f000000161118e9190612b4a565b9050919050565b600061119f611382565b6111a76113a4565b6020826000600681106111bd576111bc6123aa565b5b6020020181815250506020826001600681106111dc576111db6123aa565b5b6020020181815250506020826002600681106111fb576111fa6123aa565b5b6020020181815250508582600360068110611219576112186123aa565b5b6020020181815250508482600460068110611237576112366123aa565b5b6020020181815250508382600560068110611255576112546123aa565b5b60200201818152505060208160c0846005600019fa61127357600080fd5b80600060018110611287576112866123aa565b5b6020020151925050509392505050565b60405180604001604052806112aa6112f1565b81526020016112b76112d7565b81525090565b604051806040016040528060608152602001600081525090565b604051806040016040528060008152602001600081525090565b60405180604001604052806113046112d7565b8152602001606081525090565b60405180606001604052806000815260200161132b6112d7565b81526020016113386113c6565b81525090565b6040518060600160405280600390602082028036833780820191505090505090565b6040518060800160405280600490602082028036833780820191505090505090565b6040518060c00160405280600690602082028036833780820191505090505090565b6040518060200160405280600190602082028036833780820191505090505090565b6040518060800160405280606081526020016060815260200160008152602001600081525090565b6000604051905090565b600080fd5b600080fd5b600080fd5b6000601f19601f8301169050919050565b7f4e487b7100000000000000000000000000000000000000000000000000000000600052604160045260246000fd5b61145082611407565b810181811067ffffffffffffffff8211171561146f5761146e611418565b5b80604052505050565b60006114826113ee565b905061148e8282611447565b919050565b600080fd5b6000819050919050565b6114ab81611498565b81146114b657600080fd5b50565b6000813590506114c8816114a2565b92915050565b6000604082840312156114e4576114e3611402565b5b6114ee6040611478565b905060006114fe848285016114b9565b6000830152506020611512848285016114b9565b60208301525092915050565b600080fd5b600067ffffffffffffffff82111561153e5761153d611418565b5b602082029050602081019050919050565b600080fd5b600061156761156284611523565b611478565b9050808382526020820190506040840283018581111561158a5761158961154f565b5b835b818110156115b3578061159f88826114ce565b84526020840193505060408101905061158c565b5050509392505050565b600082601f8301126115d2576115d161151e565b5b81356115e2848260208601611554565b91505092915050565b60006060828403121561160157611600611402565b5b61160b6040611478565b9050600061161b848285016114ce565b600083015250604082013567ffffffffffffffff81111561163f5761163e611493565b5b61164b848285016115bd565b60208301525092915050565b60006060828403121561166d5761166c611402565b5b6116776040611478565b9050600082013567ffffffffffffffff81111561169757611696611493565b5b6116a3848285016115eb565b60008301525060206116b7848285016114ce565b60208301525092915050565b600080fd5b600067ffffffffffffffff8211156116e3576116e2611418565b5b6116ec82611407565b9050602081019050919050565b82818337600083830152505050565b600061171b611716846116c8565b611478565b905082815260208101848484011115611737576117366116c3565b5b6117428482856116f9565b509392505050565b600082601f83011261175f5761175e61151e565b5b813561176f848260208601611708565b91505092915050565b60006080828403121561178e5761178d611402565b5b6117986080611478565b9050600082013567ffffffffffffffff8111156117b8576117b7611493565b5b6117c4848285016115bd565b600083015250602082013567ffffffffffffffff8111156117e8576117e7611493565b5b6117f4848285016115bd565b6020830152506040611808848285016114b9565b604083015250606061181c848285016114b9565b60608301525092915050565b60006080828403121561183e5761183d611402565b5b6118486060611478565b90506000611858848285016114b9565b600083015250602061186c848285016114ce565b602083015250606082013567ffffffffffffffff8111156118905761188f611493565b5b61189c84828501611778565b60408301525092915050565b6000806000606084860312156118c1576118c06113f8565b5b600084013567ffffffffffffffff8111156118df576118de6113fd565b5b6118eb86828701611657565b935050602084013567ffffffffffffffff81111561190c5761190b6113fd565b5b6119188682870161174a565b925050604084013567ffffffffffffffff811115611939576119386113fd565b5b61194586828701611828565b9150509250925092565b60008115159050919050565b6119648161194f565b82525050565b600060208201905061197f600083018461195b565b92915050565b600067ffffffffffffffff8211156119a05761199f611418565b5b602082029050919050565b60006119be6119b984611985565b611478565b905080602084028301858111156119d8576119d761154f565b5b835b81811015611a0157806119ed88826114b9565b8452602084019350506020810190506119da565b5050509392505050565b600082601f830112611a2057611a1f61151e565b5b6002611a2d8482856119ab565b91505092915050565b60008060608385031215611a4d57611a4c6113f8565b5b6000611a5b858286016114b9565b9250506020611a6c85828601611a0b565b9150509250929050565b611a7f81611498565b82525050565b604082016000820151611a9b6000850182611a76565b506020820151611aae6020850182611a76565b50505050565b600081519050919050565b600082825260208201905092915050565b6000819050602082019050919050565b6000611aec8383611a85565b60408301905092915050565b6000602082019050919050565b6000611b1082611ab4565b611b1a8185611abf565b9350611b2583611ad0565b8060005b83811015611b56578151611b3d8882611ae0565b9750611b4883611af8565b925050600181019050611b29565b5085935050505092915050565b6000606083016000830151611b7b6000860182611a85565b5060208301518482036040860152611b938282611b05565b9150508091505092915050565b60006060830160008301518482036000860152611bbd8282611b63565b9150506020830151611bd26020860182611a85565b508091505092915050565b60006020820190508181036000830152611bf78184611ba0565b905092915050565b600080600060808486031215611c1857611c176113f8565b5b600084013567ffffffffffffffff811115611c3657611c356113fd565b5b611c42868287016115eb565b935050602084013567ffffffffffffffff811115611c6357611c626113fd565b5b611c6f8682870161174a565b9250506040611c8086828701611a0b565b9150509250925092565b600081519050919050565b600082825260208201905092915050565b6000819050602082019050919050565b6000611cc28383611a76565b60208301905092915050565b6000602082019050919050565b6000611ce682611c8a565b611cf08185611c95565b9350611cfb83611ca6565b8060005b83811015611d2c578151611d138882611cb6565b9750611d1e83611cce565b925050600181019050611cff565b5085935050505092915050565b60006040830160008301518482036000860152611d568282611cdb565b9150506020830151611d6b6020860182611a76565b508091505092915050565b611d7f81611498565b82525050565b604082016000820151611d9b6000850182611a76565b506020820151611dae6020850182611a76565b50505050565b60006080820190508181036000830152611dce8186611d39565b9050611ddd6020830185611d76565b611dea6040830184611d85565b949350505050565b600067ffffffffffffffff821115611e0d57611e0c611418565b5b602082029050602081019050919050565b6000611e31611e2c84611df2565b611478565b90508083825260208201905060208402830185811115611e5457611e5361154f565b5b835b81811015611e7d5780611e6988826114b9565b845260208401935050602081019050611e56565b5050509392505050565b600082601f830112611e9c57611e9b61151e565b5b8135611eac848260208601611e1e565b91505092915050565b600060408284031215611ecb57611eca611402565b5b611ed56040611478565b9050600082013567ffffffffffffffff811115611ef557611ef4611493565b5b611f0184828501611e87565b6000830152506020611f15848285016114b9565b60208301525092915050565b600080600060608486031215611f3a57611f396113f8565b5b600084013567ffffffffffffffff811115611f5857611f576113fd565b5b611f64868287016115eb565b935050602084013567ffffffffffffffff811115611f8557611f846113fd565b5b611f918682870161174a565b925050604084013567ffffffffffffffff811115611fb257611fb16113fd565b5b611fbe86828701611eb5565b9150509250925092565b6000606083016000830151611fe06000860182611a85565b5060208301518482036040860152611ff88282611b05565b9150508091505092915050565b6000602082019050818103600083015261201f8184611fc8565b905092915050565b6000806000608084860312156120405761203f6113f8565b5b600084013567ffffffffffffffff81111561205e5761205d6113fd565b5b61206a86828701611657565b935050602084013567ffffffffffffffff81111561208b5761208a6113fd565b5b6120978682870161174a565b92505060406120a886828701611a0b565b9150509250925092565b600060808301600083015184820360008601526120cf8282611b05565b915050602083015184820360208601526120e98282611b05565b91505060408301516120fe6040860182611a76565b5060608301516121116060860182611a76565b508091505092915050565b60006080830160008301516121346000860182611a76565b5060208301516121476020860182611a85565b506040830151848203606086015261215f82826120b2565b9150508091505092915050565b60006020820190508181036000830152612186818461211c565b905092915050565b600060c08301600083015184820360008601526121ab8282611b05565b91505060208301516121c06020860182611a85565b5060408301516121d36060860182611a85565b5060608301516121e660a0860182611a76565b508091505092915050565b6000608083016000830151848203600086015261220e8282611b05565b915050602083015184820360208601526122288282611b05565b915050604083015161223d6040860182611a76565b5060608301516122506060860182611a76565b508091505092915050565b60006040820190508181036000830152612275818561218e565b9050818103602083015261228981846121f1565b90509392505050565b61229b8161194f565b81146122a657600080fd5b50565b6000815190506122b881612292565b92915050565b6000602082840312156122d4576122d36113f8565b5b60006122e2848285016122a9565b91505092915050565b600082825260208201905092915050565b7f4475616c52696e674543206661696c6564000000000000000000000000000000600082015250565b60006123326011836122eb565b915061233d826122fc565b602082019050919050565b6000602082019050818103600083015261236181612325565b9050919050565b600081519050612377816114a2565b92915050565b600060208284031215612393576123926113f8565b5b60006123a184828501612368565b91505092915050565b7f4e487b7100000000000000000000000000000000000000000000000000000000600052603260045260246000fd5b7f4475616c52696e673a20736563726574206b657920696e76616c696420696e6460008201527f6578000000000000000000000000000000000000000000000000000000000000602082015250565b60006124356022836122eb565b9150612440826123d9565b604082019050919050565b6000602082019050818103600083015261246481612428565b9050919050565b7f4e487b7100000000000000000000000000000000000000000000000000000000600052601160045260246000fd5b60006124a582611498565b91507fffffffffffffffffffffffffffffffffffffffffffffffffffffffffffffffff82036124d7576124d661246b565b5b600182019050919050565b7f4475616c52696e673a20736563726574206b657920696e76616c696420706f7360008201527f6974696f6e000000000000000000000000000000000000000000000000000000602082015250565b600061253e6025836122eb565b9150612549826124e2565b604082019050919050565b6000602082019050818103600083015261256d81612531565b9050919050565b600082825260208201905092915050565b600061259082611c8a565b61259a8185612574565b93506125a583611ca6565b8060005b838110156125d65781516125bd8882611cb6565b97506125c883611cce565b9250506001810190506125a9565b5085935050505092915050565b600060408201905081810360008301526125fd818561218e565b905081810360208301526126118184612585565b90509392505050565b6000604082840312156126305761262f611402565b5b61263a6040611478565b9050600061264a84828501612368565b600083015250602061265e84828501612368565b60208301525092915050565b600061267d61267884611523565b611478565b905080838252602082019050604084028301858111156126a05761269f61154f565b5b835b818110156126c957806126b5888261261a565b8452602084019350506040810190506126a2565b5050509392505050565b600082601f8301126126e8576126e761151e565b5b81516126f884826020860161266a565b91505092915050565b60006080828403121561271757612716611402565b5b6127216080611478565b9050600082015167ffffffffffffffff81111561274157612740611493565b5b61274d848285016126d3565b600083015250602082015167ffffffffffffffff81111561277157612770611493565b5b61277d848285016126d3565b602083015250604061279184828501612368565b60408301525060606127a584828501612368565b60608301525092915050565b6000602082840312156127c7576127c66113f8565b5b600082015167ffffffffffffffff8111156127e5576127e46113fd565b5b6127f184828501612701565b91505092915050565b600082825260208201905092915050565b61281481611498565b82525050565b604082016000820151612830600085018261280b565b506020820151612843602085018261280b565b50505050565b6000612855838361281a565b60408301905092915050565b600061286c82611ab4565b61287681856127fa565b935061288183611ad0565b8060005b838110156128b25781516128998882612849565b97506128a483611af8565b925050600181019050612885565b5085935050505092915050565b600060208201905081810360008301526128d98184612861565b905092915050565b600067ffffffffffffffff8211156128fc576128fb611418565b5b61290582611407565b9050602081019050919050565b60005b83811015612930578082015181840152602081019050612915565b60008484015250505050565b600061294f61294a846128e1565b611478565b90508281526020810184848401111561296b5761296a6116c3565b5b612976848285612912565b509392505050565b600082601f8301126129935761299261151e565b5b81516129a384826020860161293c565b91505092915050565b6000602082840312156129c2576129c16113f8565b5b600082015167ffffffffffffffff8111156129e0576129df6113fd565b5b6129ec8482850161297e565b91505092915050565b600081519050919050565b600081905092915050565b6000612a16826129f5565b612a208185612a00565b9350612a30818560208601612912565b80840191505092915050565b600081519050919050565b600081905092915050565b6000612a5d82612a3c565b612a678185612a47565b9350612a77818560208601612912565b80840191505092915050565b6000819050919050565b612a9e612a9982611498565b612a83565b82525050565b6000612ab08287612a0b565b9150612abc8286612a52565b9150612ac88285612a8d565b602082019150612ad88284612a8d565b60208201915081905095945050505050565b7f4e487b7100000000000000000000000000000000000000000000000000000000600052601260045260246000fd5b6000612b2482611498565b9150612b2f83611498565b925082612b3f57612b3e612aea565b5b828206905092915050565b6000612b5582611498565b9150612b6083611498565b9250828203905081811115612b7857612b7761246b565b5b92915050565b6000612b8982611498565b9150612b9483611498565b9250828201905080821115612bac57612bab61246b565b5b92915050565b6000612bbd82611498565b9150612bc883611498565b925082612bd857612bd7612aea565b5b82820490509291505056fea26469706673582212207c7c965b519b62f63fc4eff812e40b155d13d1cd29f72d590e549b1b80685f8664736f6c63430008130033608060405234801561001057600080fd5b506126d9806100206000396000f3fe608060405234801561001057600080fd5b50600436106100415760003560e01c806324f35549146100465780632ba3ecec146100765780634293b77c146100a6575b600080fd5b610060600480360381019061005b9190611c60565b6100d6565b60405161006d9190611df9565b60405180910390f35b610090600480360381019061008b9190611fcc565b610319565b60405161009d91906120ae565b60405180910390f35b6100c060048036038101906100bb9190612180565b6108cb565b6040516100cd9190612213565b60405180910390f35b6100de6119bf565b6000600183516100ee919061225d565b83511614610131576040517f08c379a000000000000000000000000000000000000000000000000000000000815260040161012890612314565b60405180910390fd5b815167ffffffffffffffff81111561014c5761014b611ae7565b5b60405190808252806020026020018201604052801561018557816020015b6101726119f3565b81526020019060019003908161016a5790505b50816000018190525060005b82518110156101e4576101af6002826101aa9190612334565b610f4e565b826000015182815181106101c6576101c5612368565b5b602002602001018190525080806101dc90612397565b915050610191565b506101ef6001610f4e565b81602001819052508160008151811061020b5761020a612368565b5b6020026020010151816060018181525050610260816000015160008151811061023757610236612368565b5b60200260200101518360008151811061025357610252612368565b5b602002602001015161110c565b81604001819052506000600190505b8251811015610313576102a0826060015184838151811061029357610292612368565b5b60200260200101516111c4565b8260600181815250506102f882604001516102f3846000015184815181106102cb576102ca612368565b5b60200260200101518685815181106102e6576102e5612368565b5b602002602001015161110c565b611200565b8260400181905250808061030b90612397565b91505061026f565b50919050565b610321611a0d565b600060018351610331919061225d565b83511614610374576040517f08c379a000000000000000000000000000000000000000000000000000000000815260040161036b90612314565b60405180910390fd5b600061038083516112b4565b90508067ffffffffffffffff81111561039c5761039b611ae7565b5b6040519080825280602002602001820160405280156103d557816020015b6103c26119f3565b8152602001906001900390816103ba5790505b5082600001819052508067ffffffffffffffff8111156103f8576103f7611ae7565b5b60405190808252806020026020018201604052801561043157816020015b61041e6119f3565b8152602001906001900390816104165790505b508260200181905250600073__alt_bn128_____________________________632f2d020d86604001516040518263ffffffff1660e01b8152600401610477919061241d565b600060405180830381865af4158015610494573d6000803e3d6000fd5b505050506040513d6000823e3d601f19601f820116820180604052508101906104bd9190612508565b73__alt_bn128_____________________________632f2d020d87602001516040518263ffffffff1660e01b81526004016104f8919061241d565b600060405180830381865af4158015610515573d6000803e3d6000fd5b505050506040513d6000823e3d601f19601f8201168201806040525081019061053e9190612508565b8660600151604051602001610555939291906125b9565b6040516020818303038152906040528051906020012060001c9050600061058086602001518361110c565b90506000855167ffffffffffffffff81111561059f5761059e611ae7565b5b6040519080825280602002602001820160405280156105cd5781602001602082028036833780820191505090505b5090506000865167ffffffffffffffff8111156105ed576105ec611ae7565b5b60405190808252806020026020018201604052801561062657816020015b6106136119f3565b81526020019060019003908161060b5790505b50905060005b82518110156106a657600183828151811061064a57610649612368565b5b6020026020010181815250508860000151818151811061066d5761066c612368565b5b602002602001015182828151811061068857610687612368565b5b6020026020010181905250808061069e90612397565b91505061062c565b506106af6119f3565b6106b76119f3565b600080600090505b88811015610872576106d3858c888a6112e0565b8094508195505050838a6000015182815181106106f3576106f2612368565b5b6020026020010181905250828a60200151828151811061071657610715612368565b5b602002602001018190525073__alt_bn128_____________________________632f2d020d856040518263ffffffff1660e01b8152600401610758919061241d565b600060405180830381865af4158015610775573d6000803e3d6000fd5b505050506040513d6000823e3d601f19601f8201168201806040525081019061079e9190612508565b73__alt_bn128_____________________________632f2d020d856040518263ffffffff1660e01b81526004016107d5919061241d565b600060405180830381865af41580156107f2573d6000803e3d6000fd5b505050506040513d6000823e3d601f19601f8201168201806040525081019061081b9190612508565b60405160200161082c9291906125ee565b6040516020818303038152906040528051906020012060001c9150610853858c888561153e565b809850819d50829750505050808061086a90612397565b9150506106bf565b508960008151811061088757610886612368565b5b6020026020010151896040018181525050846000815181106108ac576108ab612368565b5b6020026020010151896060018181525050505050505050505092915050565b6000806108dc8460000151516112b4565b905060008167ffffffffffffffff8111156108fa576108f9611ae7565b5b6040519080825280602002602001820160405280156109285781602001602082028036833780820191505090505b50905060008267ffffffffffffffff81111561094757610946611ae7565b5b6040519080825280602002602001820160405280156109755781602001602082028036833780820191505090505b50905060008073__alt_bn128_____________________________632f2d020d89604001516040518263ffffffff1660e01b81526004016109b6919061241d565b600060405180830381865af41580156109d3573d6000803e3d6000fd5b505050506040513d6000823e3d601f19601f820116820180604052508101906109fc9190612508565b73__alt_bn128_____________________________632f2d020d8a602001516040518263ffffffff1660e01b8152600401610a37919061241d565b600060405180830381865af4158015610a54573d6000803e3d6000fd5b505050506040513d6000823e3d601f19601f82011682018060405250810190610a7d9190612508565b8960600151604051602001610a94939291906125b9565b6040516020818303038152906040528051906020012060001c90506000610ad98960400151610ad48b60200151610acf8d60600151876117e6565b61110c565b611200565b90506001925060005b86811015610dc45773__alt_bn128_____________________________632f2d020d8a600001518381518110610b1b57610b1a612368565b5b60200260200101516040518263ffffffff1660e01b8152600401610b3f919061241d565b600060405180830381865af4158015610b5c573d6000803e3d6000fd5b505050506040513d6000823e3d601f19601f82011682018060405250810190610b859190612508565b73__alt_bn128_____________________________632f2d020d8b602001518481518110610bb657610bb5612368565b5b60200260200101516040518263ffffffff1660e01b8152600401610bda919061241d565b600060405180830381865af4158015610bf7573d6000803e3d6000fd5b505050506040513d6000823e3d601f19601f82011682018060405250810190610c209190612508565b604051602001610c319291906125ee565b6040516020818303038152906040528051906020012060001c868281518110610c5d57610c5c612368565b5b602002602001018181525050610c8c868281518110610c7f57610c7e612368565b5b6020026020010151611822565b858281518110610c9f57610c9e612368565b5b602002602001018181525050610d1982610d148b600001518481518110610cc957610cc8612368565b5b6020026020010151610d0f8a8681518110610ce757610ce6612368565b5b60200260200101518b8781518110610d0257610d01612368565b5b60200260200101516117e6565b61110c565b611200565b9150610d8982610d848b602001518481518110610d3957610d38612368565b5b6020026020010151610d7f898681518110610d5757610d56612368565b5b60200260200101518a8781518110610d7257610d71612368565b5b60200260200101516117e6565b61110c565b611200565b9150610daf84868381518110610da257610da1612368565b5b60200260200101516117e6565b93508080610dbc90612397565b915050610ae2565b506000610df08a60000151600081518110610de257610de1612368565b5b60200260200101518561110c565b90506000600190505b8a6000015151811015610efe576001945060005b88811015610eb757610e1f8282611882565b15610e6657610e5f86896001848d610e37919061225d565b610e41919061225d565b81518110610e5257610e51612368565b5b60200260200101516117e6565b9550610ea4565b610ea186886001848d610e79919061225d565b610e83919061225d565b81518110610e9457610e93612368565b5b60200260200101516117e6565b95505b8080610eaf90612397565b915050610e0d565b50610ee982610ee48d600001518481518110610ed657610ed5612368565b5b60200260200101518861110c565b611200565b91508080610ef690612397565b915050610df9565b50610f2381610f1e610f148d602001518761110c565b8c6060015161110c565b611200565b9050610f33818a6040015161110c565b9050610f3f8282611895565b97505050505050505092915050565b610f566119f3565b60007f30644e72e131a029b85045b68181585d97816a916871ca8d3c208c16d87cfd4783610f849190612641565b90506000600182610f95919061225d565b91506000805b816110ec57600184610fad9190612334565b93507f30644e72e131a029b85045b68181585d97816a916871ca8d3c208c16d87cfd4780610fde57610fdd612612565b5b84850990507f30644e72e131a029b85045b68181585d97816a916871ca8d3c208c16d87cfd478061101257611011612612565b5b84820990507f30644e72e131a029b85045b68181585d97816a916871ca8d3c208c16d87cfd478061104657611045612612565b5b6003820890506110af81600460017f30644e72e131a029b85045b68181585d97816a916871ca8d3c208c16d87cfd4761107f9190612334565b6110899190612672565b7f30644e72e131a029b85045b68181585d97816a916871ca8d3c208c16d87cfd476118bd565b9250807f30644e72e131a029b85045b68181585d97816a916871ca8d3c208c16d87cfd47806110e1576110e0612612565b5b848509149150610f9b565b604051806040016040528085815260200184815250945050505050919050565b6111146119f3565b60018203611124578290506111be565b6002820361113d576111368384611200565b90506111be565b611145611a35565b83600001518160006003811061115e5761115d612368565b5b6020020181815250508360200151816001600381106111805761117f612368565b5b602002018181525050828160026003811061119e5761119d612368565b5b6020020181815250506040826060836007600019fa6111bc57600080fd5b505b92915050565b60007f30644e72e131a029b85045b68181585d2833e84879b9709143e1f593f0000001806111f5576111f4612612565b5b828408905092915050565b6112086119f3565b611210611a57565b83600001518160006004811061122957611228612368565b5b60200201818152505083602001518160016004811061124b5761124a612368565b5b60200201818152505082600001518160026004811061126d5761126c612368565b5b60200201818152505082602001518160036004811061128f5761128e612368565b5b6020020181815250506040826080836006600019fa6112ad57600080fd5b5092915050565b60005b60018211156112db576001816112cd9190612334565b9050600182901c91506112b7565b919050565b6112e86119f3565b6112f06119f3565b6000600286516113009190612672565b905060006113438760008151811061131b5761131a612368565b5b602002602001015187848151811061133657611335612368565b5b60200260200101516117e6565b9050600061138688848151811061135d5761135c612368565b5b60200260200101518860008151811061137957611378612368565b5b60200260200101516117e6565b90506000600190505b83811015611452576113e9836113e48b84815181106113b1576113b0612368565b5b60200260200101518b85896113c69190612334565b815181106113d7576113d6612368565b5b60200260200101516117e6565b6111c4565b925061143d826114388b84886113ff9190612334565b815181106114105761140f612368565b5b60200260200101518b858151811061142b5761142a612368565b5b60200260200101516117e6565b6111c4565b9150808061144a90612397565b91505061138f565b5061145d868361110c565b9450611469868261110c565b935060005b83811015611531576114c8866114c38c848861148a9190612334565b8151811061149b5761149a612368565b5b60200260200101518c85815181106114b6576114b5612368565b5b602002602001015161110c565b611200565b955061151c856115178c84815181106114e4576114e3612368565b5b60200260200101518c85896114f99190612334565b8151811061150a57611509612368565b5b602002602001015161110c565b611200565b9450808061152990612397565b91505061146e565b5050505094509492505050565b60608060606000600287516115539190612672565b9050600061156086611822565b90508167ffffffffffffffff81111561157c5761157b611ae7565b5b6040519080825280602002602001820160405280156115b557816020015b6115a26119f3565b81526020019060019003908161159a5790505b5094508167ffffffffffffffff8111156115d2576115d1611ae7565b5b6040519080825280602002602001820160405280156116005781602001602082028036833780820191505090505b5093508167ffffffffffffffff81111561161d5761161c611ae7565b5b60405190808252806020026020018201604052801561164b5781602001602082028036833780820191505090505b50925060005b828110156117d9576116b46116808b838151811061167257611671612368565b5b60200260200101518461110c565b6116af8c84876116909190612334565b815181106116a1576116a0612368565b5b60200260200101518a61110c565b611200565b8682815181106116c7576116c6612368565b5b602002602001018190525061172d6116f9888b84815181106116ec576116eb612368565b5b60200260200101516117e6565b611728848c858861170a9190612334565b8151811061171b5761171a612368565b5b60200260200101516117e6565b6111c4565b8582815181106117405761173f612368565b5b6020026020010181815250506117a7611773838a848151811061176657611765612368565b5b60200260200101516117e6565b6117a2898b85886117849190612334565b8151811061179557611794612368565b5b60200260200101516117e6565b6111c4565b8482815181106117ba576117b9612368565b5b60200260200101818152505080806117d190612397565b915050611651565b5050509450945094915050565b60007f30644e72e131a029b85045b68181585d2833e84879b9709143e1f593f00000018061181757611816612612565b5b828409905092915050565b600061187b8260027f30644e72e131a029b85045b68181585d2833e84879b9709143e1f593f0000001611855919061225d565b7f30644e72e131a029b85045b68181585d2833e84879b9709143e1f593f00000016118bd565b9050919050565b60006001808385901c1614905092915050565b6000816000015183600001511480156118b5575081602001518360200151145b905092915050565b60006118c7611a79565b6118cf611a9b565b6020826000600681106118e5576118e4612368565b5b60200201818152505060208260016006811061190457611903612368565b5b60200201818152505060208260026006811061192357611922612368565b5b602002018181525050858260036006811061194157611940612368565b5b602002018181525050848260046006811061195f5761195e612368565b5b602002018181525050838260056006811061197d5761197c612368565b5b60200201818152505060208160c0846005600019fa61199b57600080fd5b806000600181106119af576119ae612368565b5b6020020151925050509392505050565b6040518060800160405280606081526020016119d96119f3565b81526020016119e66119f3565b8152602001600081525090565b604051806040016040528060008152602001600081525090565b6040518060800160405280606081526020016060815260200160008152602001600081525090565b6040518060600160405280600390602082028036833780820191505090505090565b6040518060800160405280600490602082028036833780820191505090505090565b6040518060c00160405280600690602082028036833780820191505090505090565b6040518060200160405280600190602082028036833780820191505090505090565b6000604051905090565b600080fd5b600080fd5b600080fd5b6000601f19601f8301169050919050565b7f4e487b7100000000000000000000000000000000000000000000000000000000600052604160045260246000fd5b611b1f82611ad6565b810181811067ffffffffffffffff82111715611b3e57611b3d611ae7565b5b80604052505050565b6000611b51611abd565b9050611b5d8282611b16565b919050565b600067ffffffffffffffff821115611b7d57611b7c611ae7565b5b602082029050602081019050919050565b600080fd5b6000819050919050565b611ba681611b93565b8114611bb157600080fd5b50565b600081359050611bc381611b9d565b92915050565b6000611bdc611bd784611b62565b611b47565b90508083825260208201905060208402830185811115611bff57611bfe611b8e565b5b835b81811015611c285780611c148882611bb4565b845260208401935050602081019050611c01565b5050509392505050565b600082601f830112611c4757611c46611ad1565b5b8135611c57848260208601611bc9565b91505092915050565b600060208284031215611c7657611c75611ac7565b5b600082013567ffffffffffffffff811115611c9457611c93611acc565b5b611ca084828501611c32565b91505092915050565b600081519050919050565b600082825260208201905092915050565b6000819050602082019050919050565b611cde81611b93565b82525050565b604082016000820151611cfa6000850182611cd5565b506020820151611d0d6020850182611cd5565b50505050565b6000611d1f8383611ce4565b60408301905092915050565b6000602082019050919050565b6000611d4382611ca9565b611d4d8185611cb4565b9350611d5883611cc5565b8060005b83811015611d89578151611d708882611d13565b9750611d7b83611d2b565b925050600181019050611d5c565b5085935050505092915050565b600060c0830160008301518482036000860152611db38282611d38565b9150506020830151611dc86020860182611ce4565b506040830151611ddb6060860182611ce4565b506060830151611dee60a0860182611cd5565b508091505092915050565b60006020820190508181036000830152611e138184611d96565b905092915050565b600080fd5b600080fd5b600067ffffffffffffffff821115611e4057611e3f611ae7565b5b602082029050602081019050919050565b600060408284031215611e6757611e66611e1b565b5b611e716040611b47565b90506000611e8184828501611bb4565b6000830152506020611e9584828501611bb4565b60208301525092915050565b6000611eb4611eaf84611e25565b611b47565b90508083825260208201905060408402830185811115611ed757611ed6611b8e565b5b835b81811015611f005780611eec8882611e51565b845260208401935050604081019050611ed9565b5050509392505050565b600082601f830112611f1f57611f1e611ad1565b5b8135611f2f848260208601611ea1565b91505092915050565b600060c08284031215611f4e57611f4d611e1b565b5b611f586080611b47565b9050600082013567ffffffffffffffff811115611f7857611f77611e20565b5b611f8484828501611f0a565b6000830152506020611f9884828501611e51565b6020830152506060611fac84828501611e51565b60408301525060a0611fc084828501611bb4565b60608301525092915050565b60008060408385031215611fe357611fe2611ac7565b5b600083013567ffffffffffffffff81111561200157612000611acc565b5b61200d85828601611f38565b925050602083013567ffffffffffffffff81111561202e5761202d611acc565b5b61203a85828601611c32565b9150509250929050565b600060808301600083015184820360008601526120618282611d38565b9150506020830151848203602086015261207b8282611d38565b91505060408301516120906040860182611cd5565b5060608301516120a36060860182611cd5565b508091505092915050565b600060208201905081810360008301526120c88184612044565b905092915050565b6000608082840312156120e6576120e5611e1b565b5b6120f06080611b47565b9050600082013567ffffffffffffffff8111156121105761210f611e20565b5b61211c84828501611f0a565b600083015250602082013567ffffffffffffffff8111156121405761213f611e20565b5b61214c84828501611f0a565b602083015250604061216084828501611bb4565b604083015250606061217484828501611bb4565b60608301525092915050565b6000806040838503121561219757612196611ac7565b5b600083013567ffffffffffffffff8111156121b5576121b4611acc565b5b6121c185828601611f38565b925050602083013567ffffffffffffffff8111156121e2576121e1611acc565b5b6121ee858286016120d0565b9150509250929050565b60008115159050919050565b61220d816121f8565b82525050565b60006020820190506122286000830184612204565b92915050565b7f4e487b7100000000000000000000000000000000000000000000000000000000600052601160045260246000fd5b600061226882611b93565b915061227383611b93565b925082820390508181111561228b5761228a61222e565b5b92915050565b600082825260208201905092915050565b7f766563746f72206c656e6774682073686f756c64206265206120706f7765722060008201527f6f66203200000000000000000000000000000000000000000000000000000000602082015250565b60006122fe602483612291565b9150612309826122a2565b604082019050919050565b6000602082019050818103600083015261232d816122f1565b9050919050565b600061233f82611b93565b915061234a83611b93565b92508282019050808211156123625761236161222e565b5b92915050565b7f4e487b7100000000000000000000000000000000000000000000000000000000600052603260045260246000fd5b60006123a282611b93565b91507fffffffffffffffffffffffffffffffffffffffffffffffffffffffffffffffff82036123d4576123d361222e565b5b600182019050919050565b6123e881611b93565b82525050565b60408201600082015161240460008501826123df565b50602082015161241760208501826123df565b50505050565b600060408201905061243260008301846123ee565b92915050565b600080fd5b600067ffffffffffffffff82111561245857612457611ae7565b5b61246182611ad6565b9050602081019050919050565b60005b8381101561248c578082015181840152602081019050612471565b60008484015250505050565b60006124ab6124a68461243d565b611b47565b9050828152602081018484840111156124c7576124c6612438565b5b6124d284828561246e565b509392505050565b600082601f8301126124ef576124ee611ad1565b5b81516124ff848260208601612498565b91505092915050565b60006020828403121561251e5761251d611ac7565b5b600082015167ffffffffffffffff81111561253c5761253b611acc565b5b612548848285016124da565b91505092915050565b600081519050919050565b600081905092915050565b600061257282612551565b61257c818561255c565b935061258c81856020860161246e565b80840191505092915050565b6000819050919050565b6125b36125ae82611b93565b612598565b82525050565b60006125c58286612567565b91506125d18285612567565b91506125dd82846125a2565b602082019150819050949350505050565b60006125fa8285612567565b91506126068284612567565b91508190509392505050565b7f4e487b7100000000000000000000000000000000000000000000000000000000600052601260045260246000fd5b600061264c82611b93565b915061265783611b93565b92508261266757612666612612565b5b828206905092915050565b600061267d82611b93565b915061268883611b93565b92508261269857612697612612565b5b82820490509291505056fea264697066735822122027bf4ad910f5953b8561850f511bed16c5115d36992294ea7d0d908f6281efc864736f6c63430008130033",
  "immutableReferences": {},
  "source": "// SPDX-License-Identifier: GPL-3.0\r\npragma solidity >=0.7.0 <0.9.0;\r\n\r\n// import \"../lib/alt_bn128.sol\";\r\nimport \"./DualRing.sol\";\r\nimport \"./NISA.sol\";\r\n\r\ncontract DualRingEC is DualRing {\r\n    using alt_bn128 for uint256;\r\n\tusing alt_bn128 for alt_bn128.G1Point;\r\n    using alt_bn128 for alt_bn128.G1Point[];\r\n\r\n    NISA private nisa;\r\n\r\n    /// @param dr_pp {g, pks}\r\n    /// @param u random generator\r\n    struct ParamEC {\r\n        DualRing.Param dr_pp;\r\n        alt_bn128.G1Point u;\r\n    }\r\n\r\n    /// @param z response\r\n    /// @param R g^r * prod_{i != j} pk_i^{c_i} \r\n    /// @param nisa_sig shortened signature\r\n    struct SigEC{\r\n        uint256 z;\r\n        alt_bn128.G1Point R;\r\n        NISA.Sig nisa_sig;\r\n    }\r\n\r\n    // constructor (address nisa_addr) {\r\n    //     nisa = NISA(nisa_addr);\r\n    // }\r\n\r\n    constructor () {\r\n        nisa = new NISA();\r\n    }\r\n\r\n    /// @dev setup a ring\r\n    /// @param ring_size ring size\r\n    /// @param skj [sk, index]\r\n    function setupEC(uint256 ring_size, uint256[2] memory skj) public view returns (ParamEC memory pp){\r\n        pp.dr_pp = DualRing.setup(ring_size, skj);\r\n        pp.u = alt_bn128.random().uintToCurvePoint();\r\n        // pp = ParamEC({\r\n        //     g : p.g,\r\n        //     pks : p.pks,\r\n        //     u : alt_bn128.random().uintToCurvePoint()\r\n        // });\r\n    }\r\n    \r\n    /// @dev sign a dualring signature on message m\r\n    function signEC(ParamEC memory pp, string memory m, uint[2] memory skj) public view returns (SigEC memory sig) {\r\n        DualRing.Sig memory dr_sig; \r\n        uint256 c;\r\n        alt_bn128.G1Point memory R; \r\n        (dr_sig, c, R) = DualRing.sign(pp.dr_pp, m, skj);\r\n\r\n        NISA.Param memory nisa_pp = NISA.Param({\r\n            Gs : pp.dr_pp.pks,\r\n            P : R.add(pp.dr_pp.g.mul(dr_sig.z).neg()),\r\n            u : pp.u,\r\n            c : c  \r\n        });\r\n        /// @dev reduce signature size by NISA (bulletproof)\r\n        NISA.Sig memory nisa_sig = nisa.prove(nisa_pp, dr_sig.cs); \r\n\r\n        sig = SigEC({\r\n            z : dr_sig.z,\r\n            R : R,\r\n            nisa_sig : nisa_sig\r\n        });\r\n    }\r\n\r\n    /// @dev verify a dualring signature on message m\r\n    function verifyEC(ParamEC memory pp, string memory m, SigEC memory sig) public view returns (bool) {\r\n        uint256 c = H(m, pp.dr_pp.pks, sig.R);\r\n        alt_bn128.G1Point memory P = sig.R.add(pp.dr_pp.g.mul(sig.z).neg());\r\n\r\n        NISA.Param memory nisa_pp = NISA.Param({\r\n            Gs : pp.dr_pp.pks,\r\n            P : P,\r\n            u : pp.u,\r\n            c : c\r\n        });\r\n        require(nisa.verify(nisa_pp, sig.nisa_sig), \"DualRingEC failed\");\r\n\r\n        return true;\r\n    }\r\n}",
  "sourcePath": "/Users/qian/Desktop/Y4/COMP4550/project/XCSwap/contracts/ZKP/DualRingEC.sol",
  "compiler": {
    "name": "solc",
    "version": "0.8.19+commit.7dd6d404.Emscripten.clang"
  },
  "schemaVersion": "3.4.13",
  "updatedAt": "2023-07-13T08:51:17.547Z",
  "devdoc": {
    "kind": "dev",
    "methods": {
      "setupEC(uint256,uint256[2])": {
        "details": "setup a ring",
        "params": {
          "ring_size": "ring size",
          "skj": "[sk, index]"
        }
      },
      "sign(((uint256,uint256),(uint256,uint256)[]),string,uint256[2])": {
        "details": "dualring signature",
        "params": {
          "m": "message",
          "pp": "public parameters",
          "skj": "[sk, index]"
        },
        "returns": {
          "R": "g^r * prod_{i != j} pk_i^{c_i} ",
          "c": "sum_i c_i := H(m, pks, R) ",
          "sig": "signature"
        }
      },
      "signEC((((uint256,uint256),(uint256,uint256)[]),(uint256,uint256)),string,uint256[2])": {
        "details": "sign a dualring signature on message m"
      },
      "verifyEC((((uint256,uint256),(uint256,uint256)[]),(uint256,uint256)),string,(uint256,(uint256,uint256),((uint256,uint256)[],(uint256,uint256)[],uint256,uint256)))": {
        "details": "verify a dualring signature on message m"
      }
    },
    "version": 1
  },
  "userdoc": {
    "kind": "user",
    "methods": {},
    "version": 1
  }
}