{
  "contractName": "FTFactory",
  "abi": [
    {
      "inputs": [
        {
          "internalType": "string",
          "name": "name",
          "type": "string"
        },
        {
          "internalType": "string",
          "name": "symbol",
          "type": "string"
        }
      ],
      "name": "createFT",
      "outputs": [],
      "stateMutability": "nonpayable",
      "type": "function"
    },
    {
      "inputs": [],
      "name": "getTokens",
      "outputs": [
        {
          "internalType": "address[]",
          "name": "",
          "type": "address[]"
        }
      ],
      "stateMutability": "view",
      "type": "function"
    }
  ],
  "bytecode": "0x608060405234801561001057600080fd5b5061111c806100206000396000f3fe608060405234801561001057600080fd5b50600436106100365760003560e01c80636a18b18a1461003b578063aa6ca80814610050575b600080fd5b61004e610049366004610209565b61006e565b005b6100586100f8565b604051610065919061026c565b60405180910390f35b6000828260405161007e9061015a565b6100899291906102ff565b604051809103906000f0801580156100a5573d6000803e3d6000fd5b50600080546001810182559080527f290decd9548b62a8d60345a988386fc84ba6bc95484008f6362f93160ef3e5630180546001600160a01b0319166001600160a01b0392909216919091179055505050565b6060600080548060200260200160405190810160405280929190818152602001828054801561015057602002820191906000526020600020905b81546001600160a01b03168152600190910190602001808311610132575b5050505050905090565b610db98061032e83390190565b634e487b7160e01b600052604160045260246000fd5b600082601f83011261018e57600080fd5b81356001600160401b03808211156101a8576101a8610167565b604051601f8301601f19908116603f011681019082821181831017156101d0576101d0610167565b816040528381528660208588010111156101e957600080fd5b836020870160208301376000602085830101528094505050505092915050565b6000806040838503121561021c57600080fd5b82356001600160401b038082111561023357600080fd5b61023f8683870161017d565b9350602085013591508082111561025557600080fd5b506102628582860161017d565b9150509250929050565b6020808252825182820181905260009190848201906040850190845b818110156102ad5783516001600160a01b031683529284019291840191600101610288565b50909695505050505050565b6000815180845260005b818110156102df576020818501810151868301820152016102c3565b506000602082860101526020601f19601f83011685010191505092915050565b60408152600061031260408301856102b9565b828103602084015261032481856102b9565b9594505050505056fe60806040523480156200001157600080fd5b5060405162000db938038062000db9833981016040819052620000349162000147565b81818181600062000046838262000240565b50600162000055828262000240565b5060069150620000689050838262000240565b50600762000077828262000240565b50505050506200030c565b634e487b7160e01b600052604160045260246000fd5b600082601f830112620000aa57600080fd5b81516001600160401b0380821115620000c757620000c762000082565b604051601f8301601f19908116603f01168101908282118183101715620000f257620000f262000082565b816040528381526020925086838588010111156200010f57600080fd5b600091505b8382101562000133578582018301518183018401529082019062000114565b600093810190920192909252949350505050565b600080604083850312156200015b57600080fd5b82516001600160401b03808211156200017357600080fd5b620001818683870162000098565b935060208501519150808211156200019857600080fd5b50620001a78582860162000098565b9150509250929050565b600181811c90821680620001c657607f821691505b602082108103620001e757634e487b7160e01b600052602260045260246000fd5b50919050565b601f8211156200023b57600081815260208120601f850160051c81016020861015620002165750805b601f850160051c820191505b81811015620002375782815560010162000222565b5050505b505050565b81516001600160401b038111156200025c576200025c62000082565b62000274816200026d8454620001b1565b84620001ed565b602080601f831160018114620002ac5760008415620002935750858301515b600019600386901b1c1916600185901b17855562000237565b600085815260208120601f198616915b82811015620002dd57888601518255948401946001909101908401620002bc565b5085821015620002fc5787850151600019600388901b60f8161c191681555b5050505050600190811b01905550565b610a9d806200031c6000396000f3fe608060405234801561001057600080fd5b50600436106100d05760003560e01c806306fdde03146100d5578063095ea7b3146100f357806318160ddd1461011657806323b872dd146101285780632a16cca41461013b578063313ce5671461014e578063395093511461015d57806340c10f19146101705780634a980a1a146101855780634e0f33e31461019857806370a08231146101a057806395d89b41146101b3578063a457c2d7146101bb578063a9059cbb146101ce578063beabacc8146101e1578063dd62ed3e146101f4575b600080fd5b6100dd610207565b6040516100ea91906108b5565b60405180910390f35b61010661010136600461091f565b610216565b60405190151581526020016100ea565b6005545b6040519081526020016100ea565b610106610136366004610949565b61022b565b61010661014936600461091f565b61024f565b604051601281526020016100ea565b61010661016b36600461091f565b6102bd565b61018361017e36600461091f565b6102e9565b005b610183610193366004610985565b6102f7565b60025461011a565b61011a6101ae36600461099e565b61033a565b6100dd610355565b6101066101c936600461091f565b61035f565b6101066101dc36600461091f565b6103da565b6101066101ef366004610949565b6103e8565b61011a6102023660046109b9565b6103f5565b6060610211610420565b905090565b600061022283836104b2565b90505b92915050565b6000336102398582856104c0565b61024485858561053a565b506001949350505050565b6000338261025c8261033a565b10156102a85760405162461bcd60e51b8152602060048201526016602482015275496e73756666696369656e7420416c6c6f77616e636560501b60448201526064015b60405180910390fd5b826102b382866103f5565b1015949350505050565b6000336102df8185856102d083836103f5565b6102da91906109ec565b6106d3565b5060019392505050565b6102f382826107f7565b5050565b600254156103355760405162461bcd60e51b815260206004820152600b60248201526a547970652065786973747360a81b604482015260640161029f565b600255565b6001600160a01b031660009081526003602052604090205490565b60606102116108a6565b6000338161036d82866103f5565b9050838110156103cd5760405162461bcd60e51b815260206004820152602560248201527f45524332303a2064656372656173656420616c6c6f77616e63652062656c6f77604482015264207a65726f60d81b606482015260840161029f565b61024482868684036106d3565b6000336102df81858561053a565b60006102df84848461053a565b6001600160a01b03918216600090815260046020908152604080832093909416825291909152205490565b60606006805461042f90610a0d565b80601f016020809104026020016040519081016040528092919081815260200182805461045b90610a0d565b80156104a85780601f1061047d576101008083540402835291602001916104a8565b820191906000526020600020905b81548152906001019060200180831161048b57829003601f168201915b5050505050905090565b6000336102df8185856106d3565b60006104cc84846103f5565b9050600019811461053457818110156105275760405162461bcd60e51b815260206004820152601d60248201527f45524332303a20696e73756666696369656e7420616c6c6f77616e6365000000604482015260640161029f565b61053484848484036106d3565b50505050565b6001600160a01b03831661059e5760405162461bcd60e51b815260206004820152602560248201527f45524332303a207472616e736665722066726f6d20746865207a65726f206164604482015264647265737360d81b606482015260840161029f565b6001600160a01b0382166106005760405162461bcd60e51b815260206004820152602360248201527f45524332303a207472616e7366657220746f20746865207a65726f206164647260448201526265737360e81b606482015260840161029f565b6001600160a01b038316600090815260036020526040902054818110156106785760405162461bcd60e51b815260206004820152602660248201527f45524332303a207472616e7366657220616d6f756e7420657863656564732062604482015265616c616e636560d01b606482015260840161029f565b6001600160a01b038085166000818152600360205260408082208686039055928616808252908390208054860190559151600080516020610a48833981519152906106c69086815260200190565b60405180910390a3610534565b6001600160a01b0383166107355760405162461bcd60e51b8152602060048201526024808201527f45524332303a20617070726f76652066726f6d20746865207a65726f206164646044820152637265737360e01b606482015260840161029f565b6001600160a01b0382166107965760405162461bcd60e51b815260206004820152602260248201527f45524332303a20617070726f766520746f20746865207a65726f206164647265604482015261737360f01b606482015260840161029f565b6001600160a01b0383811660008181526004602090815260408083209487168084529482529182902085905590518481527f8c5be1e5ebec7d5bd14f71427d1e84f3dd0314c0f7b2291e5b200ac8c7c3b925910160405180910390a3505050565b6001600160a01b03821661084d5760405162461bcd60e51b815260206004820152601f60248201527f45524332303a206d696e7420746f20746865207a65726f206164647265737300604482015260640161029f565b806005600082825461085f91906109ec565b90915550506001600160a01b038216600081815260036020908152604080832080548601905551848152600080516020610a48833981519152910160405180910390a35050565b60606007805461042f90610a0d565b600060208083528351808285015260005b818110156108e2578581018301518582016040015282016108c6565b506000604082860101526040601f19601f8301168501019250505092915050565b80356001600160a01b038116811461091a57600080fd5b919050565b6000806040838503121561093257600080fd5b61093b83610903565b946020939093013593505050565b60008060006060848603121561095e57600080fd5b61096784610903565b925061097560208501610903565b9150604084013590509250925092565b60006020828403121561099757600080fd5b5035919050565b6000602082840312156109b057600080fd5b61022282610903565b600080604083850312156109cc57600080fd5b6109d583610903565b91506109e360208401610903565b90509250929050565b8082018082111561022557634e487b7160e01b600052601160045260246000fd5b600181811c90821680610a2157607f821691505b602082108103610a4157634e487b7160e01b600052602260045260246000fd5b5091905056feddf252ad1be2c89b69c2b068fc378daa952ba7f163c4a11628f55a4df523b3efa2646970667358221220a32842501dc5400f6c08a521deef6d87f17f1b564f4cb1e5a70efebf15da733c64736f6c63430008130033a26469706673582212200e070a8405ddf85397d828f68e12603b07c5725db732a3766d962575bde1008864736f6c63430008130033",
  "immutableReferences": {},
  "source": "// SPDX-License-Identifier: GPL-3.0\npragma solidity >=0.4.0 <0.9.0;\n\nimport \"./Token.sol\";\nimport \"../../node_modules/@openzeppelin/contracts/token/ERC20/ERC20.sol\";\n/**\n * @dev ERC20\n */\ncontract TokenFT is Token, ERC20 {\n\n  constructor (string memory _name, string memory _symbol) Token (_name, _symbol) ERC20 (_name, _symbol) {}\n\n  function name() public view override(ERC20, Token) returns (string memory) {\n    return super.name();\n  }\n\n  function symbol() public view override(ERC20, Token) returns (string memory) {\n    return super.symbol();\n  }\n\n  /// @dev approve spender to spend token on behave of owner\n  /// @param spender authorised spender\n  /// @param value authorised amount\n  function approve(address spender, uint256 value) public override(ERC20) returns (bool) {\n    return ERC20.approve(spender, value);\n  }\n\n  function isApproved(address spender, uint256 value) public view override returns (bool){\n    address owner = _msgSender();\n    if (balanceOf(owner) < value) revert (\"Insufficient Allowance\");\n    return ERC20.allowance(owner, spender) >= value;\n  }\n\n  /// @dev transfer token\n  /// @param from owner address\n  /// @param to destination address\n  /// @param value transfer value\n  function transfer(address from, address to, uint256 value) public override returns (bool) {\n    // return ERC20.transferFrom(from, to, value);\n    ERC20._transfer(from, to, value);\n    return true;\n  }\n\n  function mint(address account, uint256 value) public override {\n    ERC20._mint(account, value);\n  }\n\n}\n\ncontract FTFactory {\n  address[] _tokens;\n\n  function createFT(string memory name, string memory symbol) public {\n    TokenFT token = new TokenFT(name, symbol);\n    _tokens.push(address(token));\n  }\n\n  function getTokens() public view returns (address[] memory) {\n    return _tokens;\n  }\n}",
  "sourcePath": "/Users/qian/Desktop/Y4/COMP4550/project/XCSwap/contracts/Token/TokenFT.sol",
  "compiler": {
    "name": "solc",
    "version": "0.8.19+commit.7dd6d404.Emscripten.clang"
  },
  "schemaVersion": "3.4.13",
  "updatedAt": "2023-09-22T13:12:19.748Z",
  "devdoc": {
    "kind": "dev",
    "methods": {},
    "version": 1
  },
  "userdoc": {
    "kind": "user",
    "methods": {},
    "version": 1
  }
}