{
  "contractName": "Mixer",
  "abi": [
    {
      "inputs": [
        {
          "components": [
            {
              "components": [
                {
                  "components": [
                    {
                      "internalType": "uint256",
                      "name": "X",
                      "type": "uint256"
                    },
                    {
                      "internalType": "uint256",
                      "name": "Y",
                      "type": "uint256"
                    }
                  ],
                  "internalType": "struct alt_bn128.G1Point",
                  "name": "acc",
                  "type": "tuple"
                },
                {
                  "components": [
                    {
                      "internalType": "uint256",
                      "name": "X",
                      "type": "uint256"
                    },
                    {
                      "internalType": "uint256",
                      "name": "Y",
                      "type": "uint256"
                    }
                  ],
                  "internalType": "struct alt_bn128.G1Point",
                  "name": "tcom",
                  "type": "tuple"
                },
                {
                  "components": [
                    {
                      "internalType": "uint256",
                      "name": "X",
                      "type": "uint256"
                    },
                    {
                      "internalType": "uint256",
                      "name": "Y",
                      "type": "uint256"
                    }
                  ],
                  "internalType": "struct alt_bn128.G1Point",
                  "name": "ocom",
                  "type": "tuple"
                }
              ],
              "internalType": "struct XCSwap.Acc",
              "name": "src",
              "type": "tuple"
            },
            {
              "internalType": "uint256",
              "name": "ty",
              "type": "uint256"
            },
            {
              "internalType": "uint256",
              "name": "val",
              "type": "uint256"
            },
            {
              "internalType": "uint256",
              "name": "t_beg",
              "type": "uint256"
            },
            {
              "internalType": "uint256",
              "name": "t_end",
              "type": "uint256"
            }
          ],
          "internalType": "struct XCSwap.TX_dp",
          "name": "_tx",
          "type": "tuple"
        }
      ],
      "name": "process_deposit",
      "outputs": [
        {
          "internalType": "bool",
          "name": "",
          "type": "bool"
        }
      ],
      "stateMutability": "view",
      "type": "function"
    }
  ],
  "bytecode": "0x608060405234801561001057600080fd5b5061031a806100206000396000f3fe608060405234801561001057600080fd5b506004361061002b5760003560e01c80639e7ca5fe14610030575b600080fd5b61004a60048036038101906100459190610280565b610060565b60405161005791906102c9565b60405180910390f35b6000919050565b6000604051905090565b600080fd5b600080fd5b6000601f19601f8301169050919050565b7f4e487b7100000000000000000000000000000000000000000000000000000000600052604160045260246000fd5b6100c48261007b565b810181811067ffffffffffffffff821117156100e3576100e261008c565b5b80604052505050565b60006100f6610067565b905061010282826100bb565b919050565b6000819050919050565b61011a81610107565b811461012557600080fd5b50565b60008135905061013781610111565b92915050565b60006040828403121561015357610152610076565b5b61015d60406100ec565b9050600061016d84828501610128565b600083015250602061018184828501610128565b60208301525092915050565b600060c082840312156101a3576101a2610076565b5b6101ad60606100ec565b905060006101bd8482850161013d565b60008301525060406101d18482850161013d565b60208301525060806101e58482850161013d565b60408301525092915050565b6000610140828403121561020857610207610076565b5b61021260a06100ec565b905060006102228482850161018d565b60008301525060c061023684828501610128565b60208301525060e061024a84828501610128565b60408301525061010061025f84828501610128565b60608301525061012061027484828501610128565b60808301525092915050565b6000610140828403121561029757610296610071565b5b60006102a5848285016101f1565b91505092915050565b60008115159050919050565b6102c3816102ae565b82525050565b60006020820190506102de60008301846102ba565b9291505056fea264697066735822122051e2104ce11ca995afd3cbbaf992ff270594543163457fef8635c511426f8b9364736f6c63430008130033",
  "immutableReferences": {},
  "source": "// SPDX-License-Identifier: GPL-3.0\npragma solidity >=0.4.0 <0.9.0;\n\nimport \"./lib/alt_bn128.sol\";\nimport \"./Token/Token.sol\";\nimport \"./XCSwap.sol\";\n\ncontract Mixer is XCSwap {\n  \n  using alt_bn128 for uint256;\n  using alt_bn128 for alt_bn128.G1Point;\n\n  alt_bn128.G1Point[] accs;\n  alt_bn128.G1Point[] pks;\n  alt_bn128.G1Point[] tags;\n\n  function process_deposit (TX_dp memory _tx) external view returns (bool) {\n\n  }\n\n}",
  "sourcePath": "/Users/qian/Desktop/Y4/COMP4550/project/XCSwap/contracts/Mixer.sol",
  "compiler": {
    "name": "solc",
    "version": "0.8.19+commit.7dd6d404.Emscripten.clang"
  },
  "schemaVersion": "3.4.13",
  "updatedAt": "2023-07-13T08:51:17.498Z",
  "devdoc": {
    "kind": "dev",
    "methods": {},
    "version": 1
  },
  "userdoc": {
    "kind": "user",
    "methods": {},
    "version": 1
  }
}