{
  "contractName": "Mixer",
  "abi": [
    {
      "inputs": [
        {
          "internalType": "address",
          "name": "r_addr",
          "type": "address"
        },
        {
          "internalType": "address",
          "name": "pp_addr",
          "type": "address"
        },
        {
          "internalType": "address",
          "name": "dp_addr",
          "type": "address"
        },
        {
          "internalType": "address",
          "name": "wd_addr",
          "type": "address"
        },
        {
          "internalType": "address",
          "name": "sp_addr",
          "type": "address"
        }
      ],
      "stateMutability": "nonpayable",
      "type": "constructor"
    },
    {
      "inputs": [],
      "name": "init",
      "outputs": [],
      "stateMutability": "nonpayable",
      "type": "function"
    },
    {
      "inputs": [
        {
          "components": [
            {
              "components": [
                {
                  "components": [
                    {
                      "internalType": "uint256",
                      "name": "X",
                      "type": "uint256"
                    },
                    {
                      "internalType": "uint256",
                      "name": "Y",
                      "type": "uint256"
                    }
                  ],
                  "internalType": "struct alt_bn128.G1Point",
                  "name": "pk",
                  "type": "tuple"
                },
                {
                  "components": [
                    {
                      "internalType": "uint256",
                      "name": "X",
                      "type": "uint256"
                    },
                    {
                      "internalType": "uint256",
                      "name": "Y",
                      "type": "uint256"
                    }
                  ],
                  "internalType": "struct alt_bn128.G1Point",
                  "name": "tcom",
                  "type": "tuple"
                },
                {
                  "components": [
                    {
                      "internalType": "uint256",
                      "name": "X",
                      "type": "uint256"
                    },
                    {
                      "internalType": "uint256",
                      "name": "Y",
                      "type": "uint256"
                    }
                  ],
                  "internalType": "struct alt_bn128.G1Point",
                  "name": "ocom",
                  "type": "tuple"
                }
              ],
              "internalType": "struct PubParam.Acc",
              "name": "s",
              "type": "tuple"
            },
            {
              "internalType": "uint256[]",
              "name": "attrS",
              "type": "uint256[]"
            }
          ],
          "internalType": "struct SoKdp.TX",
          "name": "tx_dp",
          "type": "tuple"
        },
        {
          "internalType": "uint256[3]",
          "name": "wit",
          "type": "uint256[3]"
        }
      ],
      "name": "deposit",
      "outputs": [
        {
          "components": [
            {
              "components": [
                {
                  "components": [
                    {
                      "internalType": "uint256",
                      "name": "X",
                      "type": "uint256"
                    },
                    {
                      "internalType": "uint256",
                      "name": "Y",
                      "type": "uint256"
                    }
                  ],
                  "internalType": "struct alt_bn128.G1Point",
                  "name": "c",
                  "type": "tuple"
                },
                {
                  "internalType": "uint256[]",
                  "name": "zs",
                  "type": "uint256[]"
                }
              ],
              "internalType": "struct PartialEquality.Sig",
              "name": "pe_sig",
              "type": "tuple"
            }
          ],
          "internalType": "struct SoKdp.Sig",
          "name": "sig",
          "type": "tuple"
        }
      ],
      "stateMutability": "nonpayable",
      "type": "function"
    },
    {
      "inputs": [
        {
          "components": [
            {
              "components": [
                {
                  "components": [
                    {
                      "internalType": "uint256",
                      "name": "X",
                      "type": "uint256"
                    },
                    {
                      "internalType": "uint256",
                      "name": "Y",
                      "type": "uint256"
                    }
                  ],
                  "internalType": "struct alt_bn128.G1Point",
                  "name": "pk",
                  "type": "tuple"
                },
                {
                  "components": [
                    {
                      "internalType": "uint256",
                      "name": "X",
                      "type": "uint256"
                    },
                    {
                      "internalType": "uint256",
                      "name": "Y",
                      "type": "uint256"
                    }
                  ],
                  "internalType": "struct alt_bn128.G1Point",
                  "name": "tcom",
                  "type": "tuple"
                },
                {
                  "components": [
                    {
                      "internalType": "uint256",
                      "name": "X",
                      "type": "uint256"
                    },
                    {
                      "internalType": "uint256",
                      "name": "Y",
                      "type": "uint256"
                    }
                  ],
                  "internalType": "struct alt_bn128.G1Point",
                  "name": "ocom",
                  "type": "tuple"
                }
              ],
              "internalType": "struct PubParam.Acc",
              "name": "s",
              "type": "tuple"
            },
            {
              "internalType": "uint256[]",
              "name": "attrS",
              "type": "uint256[]"
            }
          ],
          "internalType": "struct SoKdp.TX",
          "name": "tx_dp",
          "type": "tuple"
        },
        {
          "components": [
            {
              "components": [
                {
                  "components": [
                    {
                      "internalType": "uint256",
                      "name": "X",
                      "type": "uint256"
                    },
                    {
                      "internalType": "uint256",
                      "name": "Y",
                      "type": "uint256"
                    }
                  ],
                  "internalType": "struct alt_bn128.G1Point",
                  "name": "c",
                  "type": "tuple"
                },
                {
                  "internalType": "uint256[]",
                  "name": "zs",
                  "type": "uint256[]"
                }
              ],
              "internalType": "struct PartialEquality.Sig",
              "name": "pe_sig",
              "type": "tuple"
            }
          ],
          "internalType": "struct SoKdp.Sig",
          "name": "sig",
          "type": "tuple"
        }
      ],
      "name": "process_dp",
      "outputs": [
        {
          "internalType": "bool",
          "name": "",
          "type": "bool"
        }
      ],
      "stateMutability": "nonpayable",
      "type": "function"
    },
    {
      "inputs": [
        {
          "components": [
            {
              "components": [
                {
                  "internalType": "uint256",
                  "name": "X",
                  "type": "uint256"
                },
                {
                  "internalType": "uint256",
                  "name": "Y",
                  "type": "uint256"
                }
              ],
              "internalType": "struct alt_bn128.G1Point[]",
              "name": "R",
              "type": "tuple[]"
            },
            {
              "components": [
                {
                  "internalType": "uint256",
                  "name": "X",
                  "type": "uint256"
                },
                {
                  "internalType": "uint256",
                  "name": "Y",
                  "type": "uint256"
                }
              ],
              "internalType": "struct alt_bn128.G1Point[]",
              "name": "gs",
              "type": "tuple[]"
            },
            {
              "components": [
                {
                  "internalType": "uint256",
                  "name": "X",
                  "type": "uint256"
                },
                {
                  "internalType": "uint256",
                  "name": "Y",
                  "type": "uint256"
                }
              ],
              "internalType": "struct alt_bn128.G1Point",
              "name": "tag",
              "type": "tuple"
            },
            {
              "internalType": "uint256[]",
              "name": "attrS",
              "type": "uint256[]"
            },
            {
              "internalType": "address",
              "name": "u_rcpt",
              "type": "address"
            }
          ],
          "internalType": "struct SoKwd.TX",
          "name": "tx_wd",
          "type": "tuple"
        },
        {
          "internalType": "uint256[4]",
          "name": "wit",
          "type": "uint256[4]"
        }
      ],
      "name": "withdraw",
      "outputs": [
        {
          "components": [
            {
              "components": [
                {
                  "internalType": "uint256",
                  "name": "X",
                  "type": "uint256"
                },
                {
                  "internalType": "uint256",
                  "name": "Y",
                  "type": "uint256"
                }
              ],
              "internalType": "struct alt_bn128.G1Point",
              "name": "acc_d",
              "type": "tuple"
            },
            {
              "components": [
                {
                  "components": [
                    {
                      "internalType": "uint256",
                      "name": "X",
                      "type": "uint256"
                    },
                    {
                      "internalType": "uint256",
                      "name": "Y",
                      "type": "uint256"
                    }
                  ],
                  "internalType": "struct alt_bn128.G1Point",
                  "name": "cv",
                  "type": "tuple"
                },
                {
                  "components": [
                    {
                      "internalType": "uint256",
                      "name": "X",
                      "type": "uint256"
                    },
                    {
                      "internalType": "uint256",
                      "name": "Y",
                      "type": "uint256"
                    }
                  ],
                  "internalType": "struct alt_bn128.G1Point",
                  "name": "ct",
                  "type": "tuple"
                },
                {
                  "components": [
                    {
                      "internalType": "uint256",
                      "name": "X",
                      "type": "uint256"
                    },
                    {
                      "internalType": "uint256",
                      "name": "Y",
                      "type": "uint256"
                    }
                  ],
                  "internalType": "struct alt_bn128.G1Point[]",
                  "name": "cds",
                  "type": "tuple[]"
                },
                {
                  "internalType": "uint256[]",
                  "name": "fs",
                  "type": "uint256[]"
                },
                {
                  "internalType": "uint256",
                  "name": "u",
                  "type": "uint256"
                },
                {
                  "internalType": "uint256",
                  "name": "s",
                  "type": "uint256"
                }
              ],
              "internalType": "struct OneofMany.Sig",
              "name": "om_sig",
              "type": "tuple"
            },
            {
              "components": [
                {
                  "components": [
                    {
                      "internalType": "uint256",
                      "name": "X",
                      "type": "uint256"
                    },
                    {
                      "internalType": "uint256",
                      "name": "Y",
                      "type": "uint256"
                    }
                  ],
                  "internalType": "struct alt_bn128.G1Point",
                  "name": "cx",
                  "type": "tuple"
                },
                {
                  "components": [
                    {
                      "internalType": "uint256",
                      "name": "X",
                      "type": "uint256"
                    },
                    {
                      "internalType": "uint256",
                      "name": "Y",
                      "type": "uint256"
                    }
                  ],
                  "internalType": "struct alt_bn128.G1Point",
                  "name": "cy",
                  "type": "tuple"
                },
                {
                  "internalType": "uint256[]",
                  "name": "zs",
                  "type": "uint256[]"
                }
              ],
              "internalType": "struct DiffGenEqual.Sig",
              "name": "dg_sig",
              "type": "tuple"
            },
            {
              "components": [
                {
                  "components": [
                    {
                      "internalType": "uint256",
                      "name": "X",
                      "type": "uint256"
                    },
                    {
                      "internalType": "uint256",
                      "name": "Y",
                      "type": "uint256"
                    }
                  ],
                  "internalType": "struct alt_bn128.G1Point",
                  "name": "c",
                  "type": "tuple"
                },
                {
                  "internalType": "uint256[]",
                  "name": "zs",
                  "type": "uint256[]"
                }
              ],
              "internalType": "struct PartialEquality.Sig",
              "name": "pe_sig",
              "type": "tuple"
            }
          ],
          "internalType": "struct SoKwd.Sig",
          "name": "",
          "type": "tuple"
        }
      ],
      "stateMutability": "view",
      "type": "function"
    },
    {
      "inputs": [
        {
          "components": [
            {
              "components": [
                {
                  "internalType": "uint256",
                  "name": "X",
                  "type": "uint256"
                },
                {
                  "internalType": "uint256",
                  "name": "Y",
                  "type": "uint256"
                }
              ],
              "internalType": "struct alt_bn128.G1Point[]",
              "name": "R",
              "type": "tuple[]"
            },
            {
              "components": [
                {
                  "internalType": "uint256",
                  "name": "X",
                  "type": "uint256"
                },
                {
                  "internalType": "uint256",
                  "name": "Y",
                  "type": "uint256"
                }
              ],
              "internalType": "struct alt_bn128.G1Point[]",
              "name": "gs",
              "type": "tuple[]"
            },
            {
              "components": [
                {
                  "internalType": "uint256",
                  "name": "X",
                  "type": "uint256"
                },
                {
                  "internalType": "uint256",
                  "name": "Y",
                  "type": "uint256"
                }
              ],
              "internalType": "struct alt_bn128.G1Point",
              "name": "tag",
              "type": "tuple"
            },
            {
              "internalType": "uint256[]",
              "name": "attrS",
              "type": "uint256[]"
            },
            {
              "internalType": "address",
              "name": "u_rcpt",
              "type": "address"
            }
          ],
          "internalType": "struct SoKwd.TX",
          "name": "tx_wd",
          "type": "tuple"
        },
        {
          "components": [
            {
              "components": [
                {
                  "internalType": "uint256",
                  "name": "X",
                  "type": "uint256"
                },
                {
                  "internalType": "uint256",
                  "name": "Y",
                  "type": "uint256"
                }
              ],
              "internalType": "struct alt_bn128.G1Point",
              "name": "acc_d",
              "type": "tuple"
            },
            {
              "components": [
                {
                  "components": [
                    {
                      "internalType": "uint256",
                      "name": "X",
                      "type": "uint256"
                    },
                    {
                      "internalType": "uint256",
                      "name": "Y",
                      "type": "uint256"
                    }
                  ],
                  "internalType": "struct alt_bn128.G1Point",
                  "name": "cv",
                  "type": "tuple"
                },
                {
                  "components": [
                    {
                      "internalType": "uint256",
                      "name": "X",
                      "type": "uint256"
                    },
                    {
                      "internalType": "uint256",
                      "name": "Y",
                      "type": "uint256"
                    }
                  ],
                  "internalType": "struct alt_bn128.G1Point",
                  "name": "ct",
                  "type": "tuple"
                },
                {
                  "components": [
                    {
                      "internalType": "uint256",
                      "name": "X",
                      "type": "uint256"
                    },
                    {
                      "internalType": "uint256",
                      "name": "Y",
                      "type": "uint256"
                    }
                  ],
                  "internalType": "struct alt_bn128.G1Point[]",
                  "name": "cds",
                  "type": "tuple[]"
                },
                {
                  "internalType": "uint256[]",
                  "name": "fs",
                  "type": "uint256[]"
                },
                {
                  "internalType": "uint256",
                  "name": "u",
                  "type": "uint256"
                },
                {
                  "internalType": "uint256",
                  "name": "s",
                  "type": "uint256"
                }
              ],
              "internalType": "struct OneofMany.Sig",
              "name": "om_sig",
              "type": "tuple"
            },
            {
              "components": [
                {
                  "components": [
                    {
                      "internalType": "uint256",
                      "name": "X",
                      "type": "uint256"
                    },
                    {
                      "internalType": "uint256",
                      "name": "Y",
                      "type": "uint256"
                    }
                  ],
                  "internalType": "struct alt_bn128.G1Point",
                  "name": "cx",
                  "type": "tuple"
                },
                {
                  "components": [
                    {
                      "internalType": "uint256",
                      "name": "X",
                      "type": "uint256"
                    },
                    {
                      "internalType": "uint256",
                      "name": "Y",
                      "type": "uint256"
                    }
                  ],
                  "internalType": "struct alt_bn128.G1Point",
                  "name": "cy",
                  "type": "tuple"
                },
                {
                  "internalType": "uint256[]",
                  "name": "zs",
                  "type": "uint256[]"
                }
              ],
              "internalType": "struct DiffGenEqual.Sig",
              "name": "dg_sig",
              "type": "tuple"
            },
            {
              "components": [
                {
                  "components": [
                    {
                      "internalType": "uint256",
                      "name": "X",
                      "type": "uint256"
                    },
                    {
                      "internalType": "uint256",
                      "name": "Y",
                      "type": "uint256"
                    }
                  ],
                  "internalType": "struct alt_bn128.G1Point",
                  "name": "c",
                  "type": "tuple"
                },
                {
                  "internalType": "uint256[]",
                  "name": "zs",
                  "type": "uint256[]"
                }
              ],
              "internalType": "struct PartialEquality.Sig",
              "name": "pe_sig",
              "type": "tuple"
            }
          ],
          "internalType": "struct SoKwd.Sig",
          "name": "sig",
          "type": "tuple"
        }
      ],
      "name": "process_wd",
      "outputs": [
        {
          "internalType": "bool",
          "name": "",
          "type": "bool"
        }
      ],
      "stateMutability": "nonpayable",
      "type": "function"
    },
    {
      "inputs": [
        {
          "components": [
            {
              "components": [
                {
                  "internalType": "uint256",
                  "name": "X",
                  "type": "uint256"
                },
                {
                  "internalType": "uint256",
                  "name": "Y",
                  "type": "uint256"
                }
              ],
              "internalType": "struct alt_bn128.G1Point[]",
              "name": "R",
              "type": "tuple[]"
            },
            {
              "components": [
                {
                  "internalType": "uint256",
                  "name": "X",
                  "type": "uint256"
                },
                {
                  "internalType": "uint256",
                  "name": "Y",
                  "type": "uint256"
                }
              ],
              "internalType": "struct alt_bn128.G1Point[]",
              "name": "gs",
              "type": "tuple[]"
            },
            {
              "components": [
                {
                  "internalType": "uint256",
                  "name": "X",
                  "type": "uint256"
                },
                {
                  "internalType": "uint256",
                  "name": "Y",
                  "type": "uint256"
                }
              ],
              "internalType": "struct alt_bn128.G1Point",
              "name": "tagS",
              "type": "tuple"
            },
            {
              "internalType": "uint256[3]",
              "name": "attrS",
              "type": "uint256[3]"
            },
            {
              "components": [
                {
                  "internalType": "uint256",
                  "name": "X",
                  "type": "uint256"
                },
                {
                  "internalType": "uint256",
                  "name": "Y",
                  "type": "uint256"
                }
              ],
              "internalType": "struct alt_bn128.G1Point",
              "name": "pk_T",
              "type": "tuple"
            },
            {
              "components": [
                {
                  "internalType": "uint256",
                  "name": "X",
                  "type": "uint256"
                },
                {
                  "internalType": "uint256",
                  "name": "Y",
                  "type": "uint256"
                }
              ],
              "internalType": "struct alt_bn128.G1Point[]",
              "name": "tcom_T",
              "type": "tuple[]"
            },
            {
              "components": [
                {
                  "internalType": "uint256",
                  "name": "X",
                  "type": "uint256"
                },
                {
                  "internalType": "uint256",
                  "name": "Y",
                  "type": "uint256"
                }
              ],
              "internalType": "struct alt_bn128.G1Point[]",
              "name": "ocom_T",
              "type": "tuple[]"
            }
          ],
          "internalType": "struct SoKsp.TX",
          "name": "tx_sp",
          "type": "tuple"
        },
        {
          "components": [
            {
              "internalType": "uint256",
              "name": "theta",
              "type": "uint256"
            },
            {
              "internalType": "uint256[]",
              "name": "attrS",
              "type": "uint256[]"
            },
            {
              "internalType": "uint256",
              "name": "sk_T",
              "type": "uint256"
            },
            {
              "internalType": "uint256[4][]",
              "name": "attrTs",
              "type": "uint256[4][]"
            }
          ],
          "internalType": "struct SoKsp.Wit",
          "name": "wit",
          "type": "tuple"
        }
      ],
      "name": "spend",
      "outputs": [
        {
          "components": [
            {
              "components": [
                {
                  "internalType": "uint256",
                  "name": "X",
                  "type": "uint256"
                },
                {
                  "internalType": "uint256",
                  "name": "Y",
                  "type": "uint256"
                }
              ],
              "internalType": "struct alt_bn128.G1Point",
              "name": "acc_d",
              "type": "tuple"
            },
            {
              "components": [
                {
                  "components": [
                    {
                      "internalType": "uint256",
                      "name": "X",
                      "type": "uint256"
                    },
                    {
                      "internalType": "uint256",
                      "name": "Y",
                      "type": "uint256"
                    }
                  ],
                  "internalType": "struct alt_bn128.G1Point",
                  "name": "cv",
                  "type": "tuple"
                },
                {
                  "components": [
                    {
                      "internalType": "uint256",
                      "name": "X",
                      "type": "uint256"
                    },
                    {
                      "internalType": "uint256",
                      "name": "Y",
                      "type": "uint256"
                    }
                  ],
                  "internalType": "struct alt_bn128.G1Point",
                  "name": "ct",
                  "type": "tuple"
                },
                {
                  "components": [
                    {
                      "internalType": "uint256",
                      "name": "X",
                      "type": "uint256"
                    },
                    {
                      "internalType": "uint256",
                      "name": "Y",
                      "type": "uint256"
                    }
                  ],
                  "internalType": "struct alt_bn128.G1Point[]",
                  "name": "cds",
                  "type": "tuple[]"
                },
                {
                  "internalType": "uint256[]",
                  "name": "fs",
                  "type": "uint256[]"
                },
                {
                  "internalType": "uint256",
                  "name": "u",
                  "type": "uint256"
                },
                {
                  "internalType": "uint256",
                  "name": "s",
                  "type": "uint256"
                }
              ],
              "internalType": "struct OneofMany.Sig",
              "name": "om_sig",
              "type": "tuple"
            },
            {
              "components": [
                {
                  "components": [
                    {
                      "internalType": "uint256",
                      "name": "X",
                      "type": "uint256"
                    },
                    {
                      "internalType": "uint256",
                      "name": "Y",
                      "type": "uint256"
                    }
                  ],
                  "internalType": "struct alt_bn128.G1Point",
                  "name": "cx",
                  "type": "tuple"
                },
                {
                  "components": [
                    {
                      "internalType": "uint256",
                      "name": "X",
                      "type": "uint256"
                    },
                    {
                      "internalType": "uint256",
                      "name": "Y",
                      "type": "uint256"
                    }
                  ],
                  "internalType": "struct alt_bn128.G1Point",
                  "name": "cy",
                  "type": "tuple"
                },
                {
                  "internalType": "uint256[]",
                  "name": "zs",
                  "type": "uint256[]"
                }
              ],
              "internalType": "struct DiffGenEqual.Sig",
              "name": "dg_tag_sig",
              "type": "tuple"
            },
            {
              "components": [
                {
                  "components": [
                    {
                      "internalType": "uint256",
                      "name": "X",
                      "type": "uint256"
                    },
                    {
                      "internalType": "uint256",
                      "name": "Y",
                      "type": "uint256"
                    }
                  ],
                  "internalType": "struct alt_bn128.G1Point",
                  "name": "c",
                  "type": "tuple"
                },
                {
                  "internalType": "uint256[]",
                  "name": "zs",
                  "type": "uint256[]"
                }
              ],
              "internalType": "struct PartialEquality.Sig",
              "name": "pe_opn_sig",
              "type": "tuple"
            },
            {
              "components": [
                {
                  "components": [
                    {
                      "internalType": "uint256",
                      "name": "X",
                      "type": "uint256"
                    },
                    {
                      "internalType": "uint256",
                      "name": "Y",
                      "type": "uint256"
                    }
                  ],
                  "internalType": "struct alt_bn128.G1Point",
                  "name": "c",
                  "type": "tuple"
                },
                {
                  "internalType": "uint256[]",
                  "name": "zs",
                  "type": "uint256[]"
                }
              ],
              "internalType": "struct PartialEquality.Sig[]",
              "name": "pe_ty_sig",
              "type": "tuple[]"
            },
            {
              "components": [
                {
                  "components": [
                    {
                      "internalType": "uint256",
                      "name": "X",
                      "type": "uint256"
                    },
                    {
                      "internalType": "uint256",
                      "name": "Y",
                      "type": "uint256"
                    }
                  ],
                  "internalType": "struct alt_bn128.G1Point",
                  "name": "cx",
                  "type": "tuple"
                },
                {
                  "components": [
                    {
                      "internalType": "uint256",
                      "name": "X",
                      "type": "uint256"
                    },
                    {
                      "internalType": "uint256",
                      "name": "Y",
                      "type": "uint256"
                    }
                  ],
                  "internalType": "struct alt_bn128.G1Point",
                  "name": "cy",
                  "type": "tuple"
                },
                {
                  "internalType": "uint256[]",
                  "name": "zs",
                  "type": "uint256[]"
                }
              ],
              "internalType": "struct DiffGenEqual.Sig[]",
              "name": "dg_sk_sig",
              "type": "tuple[]"
            }
          ],
          "internalType": "struct SoKsp.Sig",
          "name": "",
          "type": "tuple"
        }
      ],
      "stateMutability": "view",
      "type": "function"
    },
    {
      "inputs": [
        {
          "components": [
            {
              "components": [
                {
                  "internalType": "uint256",
                  "name": "X",
                  "type": "uint256"
                },
                {
                  "internalType": "uint256",
                  "name": "Y",
                  "type": "uint256"
                }
              ],
              "internalType": "struct alt_bn128.G1Point[]",
              "name": "R",
              "type": "tuple[]"
            },
            {
              "components": [
                {
                  "internalType": "uint256",
                  "name": "X",
                  "type": "uint256"
                },
                {
                  "internalType": "uint256",
                  "name": "Y",
                  "type": "uint256"
                }
              ],
              "internalType": "struct alt_bn128.G1Point[]",
              "name": "gs",
              "type": "tuple[]"
            },
            {
              "components": [
                {
                  "internalType": "uint256",
                  "name": "X",
                  "type": "uint256"
                },
                {
                  "internalType": "uint256",
                  "name": "Y",
                  "type": "uint256"
                }
              ],
              "internalType": "struct alt_bn128.G1Point",
              "name": "tagS",
              "type": "tuple"
            },
            {
              "internalType": "uint256[3]",
              "name": "attrS",
              "type": "uint256[3]"
            },
            {
              "components": [
                {
                  "internalType": "uint256",
                  "name": "X",
                  "type": "uint256"
                },
                {
                  "internalType": "uint256",
                  "name": "Y",
                  "type": "uint256"
                }
              ],
              "internalType": "struct alt_bn128.G1Point",
              "name": "pk_T",
              "type": "tuple"
            },
            {
              "components": [
                {
                  "internalType": "uint256",
                  "name": "X",
                  "type": "uint256"
                },
                {
                  "internalType": "uint256",
                  "name": "Y",
                  "type": "uint256"
                }
              ],
              "internalType": "struct alt_bn128.G1Point[]",
              "name": "tcom_T",
              "type": "tuple[]"
            },
            {
              "components": [
                {
                  "internalType": "uint256",
                  "name": "X",
                  "type": "uint256"
                },
                {
                  "internalType": "uint256",
                  "name": "Y",
                  "type": "uint256"
                }
              ],
              "internalType": "struct alt_bn128.G1Point[]",
              "name": "ocom_T",
              "type": "tuple[]"
            }
          ],
          "internalType": "struct SoKsp.TX",
          "name": "tx_sp",
          "type": "tuple"
        },
        {
          "components": [
            {
              "components": [
                {
                  "internalType": "uint256",
                  "name": "X",
                  "type": "uint256"
                },
                {
                  "internalType": "uint256",
                  "name": "Y",
                  "type": "uint256"
                }
              ],
              "internalType": "struct alt_bn128.G1Point",
              "name": "acc_d",
              "type": "tuple"
            },
            {
              "components": [
                {
                  "components": [
                    {
                      "internalType": "uint256",
                      "name": "X",
                      "type": "uint256"
                    },
                    {
                      "internalType": "uint256",
                      "name": "Y",
                      "type": "uint256"
                    }
                  ],
                  "internalType": "struct alt_bn128.G1Point",
                  "name": "cv",
                  "type": "tuple"
                },
                {
                  "components": [
                    {
                      "internalType": "uint256",
                      "name": "X",
                      "type": "uint256"
                    },
                    {
                      "internalType": "uint256",
                      "name": "Y",
                      "type": "uint256"
                    }
                  ],
                  "internalType": "struct alt_bn128.G1Point",
                  "name": "ct",
                  "type": "tuple"
                },
                {
                  "components": [
                    {
                      "internalType": "uint256",
                      "name": "X",
                      "type": "uint256"
                    },
                    {
                      "internalType": "uint256",
                      "name": "Y",
                      "type": "uint256"
                    }
                  ],
                  "internalType": "struct alt_bn128.G1Point[]",
                  "name": "cds",
                  "type": "tuple[]"
                },
                {
                  "internalType": "uint256[]",
                  "name": "fs",
                  "type": "uint256[]"
                },
                {
                  "internalType": "uint256",
                  "name": "u",
                  "type": "uint256"
                },
                {
                  "internalType": "uint256",
                  "name": "s",
                  "type": "uint256"
                }
              ],
              "internalType": "struct OneofMany.Sig",
              "name": "om_sig",
              "type": "tuple"
            },
            {
              "components": [
                {
                  "components": [
                    {
                      "internalType": "uint256",
                      "name": "X",
                      "type": "uint256"
                    },
                    {
                      "internalType": "uint256",
                      "name": "Y",
                      "type": "uint256"
                    }
                  ],
                  "internalType": "struct alt_bn128.G1Point",
                  "name": "cx",
                  "type": "tuple"
                },
                {
                  "components": [
                    {
                      "internalType": "uint256",
                      "name": "X",
                      "type": "uint256"
                    },
                    {
                      "internalType": "uint256",
                      "name": "Y",
                      "type": "uint256"
                    }
                  ],
                  "internalType": "struct alt_bn128.G1Point",
                  "name": "cy",
                  "type": "tuple"
                },
                {
                  "internalType": "uint256[]",
                  "name": "zs",
                  "type": "uint256[]"
                }
              ],
              "internalType": "struct DiffGenEqual.Sig",
              "name": "dg_tag_sig",
              "type": "tuple"
            },
            {
              "components": [
                {
                  "components": [
                    {
                      "internalType": "uint256",
                      "name": "X",
                      "type": "uint256"
                    },
                    {
                      "internalType": "uint256",
                      "name": "Y",
                      "type": "uint256"
                    }
                  ],
                  "internalType": "struct alt_bn128.G1Point",
                  "name": "c",
                  "type": "tuple"
                },
                {
                  "internalType": "uint256[]",
                  "name": "zs",
                  "type": "uint256[]"
                }
              ],
              "internalType": "struct PartialEquality.Sig",
              "name": "pe_opn_sig",
              "type": "tuple"
            },
            {
              "components": [
                {
                  "components": [
                    {
                      "internalType": "uint256",
                      "name": "X",
                      "type": "uint256"
                    },
                    {
                      "internalType": "uint256",
                      "name": "Y",
                      "type": "uint256"
                    }
                  ],
                  "internalType": "struct alt_bn128.G1Point",
                  "name": "c",
                  "type": "tuple"
                },
                {
                  "internalType": "uint256[]",
                  "name": "zs",
                  "type": "uint256[]"
                }
              ],
              "internalType": "struct PartialEquality.Sig[]",
              "name": "pe_ty_sig",
              "type": "tuple[]"
            },
            {
              "components": [
                {
                  "components": [
                    {
                      "internalType": "uint256",
                      "name": "X",
                      "type": "uint256"
                    },
                    {
                      "internalType": "uint256",
                      "name": "Y",
                      "type": "uint256"
                    }
                  ],
                  "internalType": "struct alt_bn128.G1Point",
                  "name": "cx",
                  "type": "tuple"
                },
                {
                  "components": [
                    {
                      "internalType": "uint256",
                      "name": "X",
                      "type": "uint256"
                    },
                    {
                      "internalType": "uint256",
                      "name": "Y",
                      "type": "uint256"
                    }
                  ],
                  "internalType": "struct alt_bn128.G1Point",
                  "name": "cy",
                  "type": "tuple"
                },
                {
                  "internalType": "uint256[]",
                  "name": "zs",
                  "type": "uint256[]"
                }
              ],
              "internalType": "struct DiffGenEqual.Sig[]",
              "name": "dg_sk_sig",
              "type": "tuple[]"
            }
          ],
          "internalType": "struct SoKsp.Sig",
          "name": "sig",
          "type": "tuple"
        }
      ],
      "name": "process_sp",
      "outputs": [
        {
          "internalType": "bool",
          "name": "",
          "type": "bool"
        }
      ],
      "stateMutability": "nonpayable",
      "type": "function"
    },
    {
      "inputs": [],
      "name": "get_accs",
      "outputs": [
        {
          "components": [
            {
              "internalType": "uint256",
              "name": "X",
              "type": "uint256"
            },
            {
              "internalType": "uint256",
              "name": "Y",
              "type": "uint256"
            }
          ],
          "internalType": "struct alt_bn128.G1Point[]",
          "name": "",
          "type": "tuple[]"
        }
      ],
      "stateMutability": "view",
      "type": "function"
    },
    {
      "inputs": [],
      "name": "get_pp",
      "outputs": [
        {
          "internalType": "contract PubParam",
          "name": "",
          "type": "address"
        }
      ],
      "stateMutability": "view",
      "type": "function"
    },
    {
      "inputs": [
        {
          "components": [
            {
              "internalType": "uint256",
              "name": "X",
              "type": "uint256"
            },
            {
              "internalType": "uint256",
              "name": "Y",
              "type": "uint256"
            }
          ],
          "internalType": "struct alt_bn128.G1Point[]",
          "name": "R",
          "type": "tuple[]"
        }
      ],
      "name": "isValid",
      "outputs": [
        {
          "internalType": "bool",
          "name": "",
          "type": "bool"
        }
      ],
      "stateMutability": "view",
      "type": "function"
    },
    {
      "inputs": [
        {
          "components": [
            {
              "internalType": "uint256",
              "name": "X",
              "type": "uint256"
            },
            {
              "internalType": "uint256",
              "name": "Y",
              "type": "uint256"
            }
          ],
          "internalType": "struct alt_bn128.G1Point",
          "name": "g",
          "type": "tuple"
        }
      ],
      "name": "inAcc",
      "outputs": [
        {
          "internalType": "bool",
          "name": "",
          "type": "bool"
        }
      ],
      "stateMutability": "view",
      "type": "function"
    },
    {
      "inputs": [
        {
          "components": [
            {
              "internalType": "uint256",
              "name": "X",
              "type": "uint256"
            },
            {
              "internalType": "uint256",
              "name": "Y",
              "type": "uint256"
            }
          ],
          "internalType": "struct alt_bn128.G1Point",
          "name": "g",
          "type": "tuple"
        }
      ],
      "name": "inTag",
      "outputs": [
        {
          "internalType": "bool",
          "name": "",
          "type": "bool"
        }
      ],
      "stateMutability": "view",
      "type": "function"
    }
  ],
  "bytecode": "0x60806040523480156200001157600080fd5b506040516200375f3803806200375f83398101604081905262000034916200033f565b600380546001600160a01b03199081166001600160a01b038881169190911790925560048054821687841617905560058054821686841617905560068054821685841617905560078054909116918316919091179055620000946200009f565b505050505062000471565b60005b60108110156200016d5760405163b863bd3760e01b815260048101829052600090620001319073__alt_bn128_____________________________9063b863bd3790602401602060405180830381865af415801562000105573d6000803e3d6000fd5b505050506040513d601f19601f820116820180604052508101906200012b9190620003af565b62000170565b815460018181018455600093845260209384902083516002909302019182559290910151910155806200016481620003df565b915050620000a2565b50565b60408051808201909152600080825260208201526000620001a16000805160206200373f8339815191528462000411565b90506000620001b260018362000428565b91506000805b816200027157620001cb60018562000444565b93506000805160206200373f83398151915284850990506000805160206200373f83398151915284820990506000805160206200373f83398151915260038208905062000252816004620002306000805160206200373f833981519152600162000444565b6200023c91906200045a565b6000805160206200373f8339815191526200028b565b9250806000805160206200373f833981519152848509149150620001b8565b505060408051808201909152918252602082015292915050565b600062000297620002e6565b620002a162000304565b602080835282810181905260408301819052606083018790526080830186905260a083018590528160c0846005600019fa620002dc57600080fd5b5195945050505050565b6040518060c001604052806006906020820280368337509192915050565b60405180602001604052806001906020820280368337509192915050565b80516001600160a01b03811681146200033a57600080fd5b919050565b600080600080600060a086880312156200035857600080fd5b620003638662000322565b9450620003736020870162000322565b9350620003836040870162000322565b9250620003936060870162000322565b9150620003a36080870162000322565b90509295509295909350565b600060208284031215620003c257600080fd5b5051919050565b634e487b7160e01b600052601160045260246000fd5b600060018201620003f457620003f4620003c9565b5060010190565b634e487b7160e01b600052601260045260246000fd5b600082620004235762000423620003fb565b500690565b818103818111156200043e576200043e620003c9565b92915050565b808201808211156200043e576200043e620003c9565b6000826200046c576200046c620003fb565b500490565b6132be80620004816000396000f3fe608060405234801561001057600080fd5b50600436106100a45760003560e01c80631a1dbfd3146100a9578063222d2abe146100d1578063307df283146100ec578063360fa0d5146100ff578063549a2fad1461011f5780637b4d9a7014610134578063b39a528714610154578063b7d6044914610167578063b9222acd1461017a578063e1c7392a1461018d578063fb965dc114610197578063fd2beb6d146101b7575b600080fd5b6100bc6100b73660046119ab565b6101ca565b60405190151581526020015b60405180910390f35b6004546040516001600160a01b0390911681526020016100c8565b6100bc6100fa366004611cff565b610247565b61011261010d366004611e3c565b610690565b6040516100c89190612044565b610127610716565b6040516100c89190612057565b6101476101423660046121c0565b610789565b6040516100c89190612407565b6100bc6101623660046119ab565b610808565b6100bc610175366004612499565b610874565b6100bc61018836600461252c565b610c8e565b610195610d51565b005b6101aa6101a5366004612560565b610e19565b6040516100c891906125a5565b6100bc6101c53660046126be565b611033565b60006102416000805480602002602001604051908101604052809291908181526020016000905b82821015610237578382906000526020600020906002020160405180604001604052908160008201548152602001600182015481525050815260200190600101906101f1565b5050505083611497565b92915050565b60006102568360000151610c8e565b61029d5760405162461bcd60e51b81526020600482015260136024820152722bb4ba34323930bb9d1024b73b30b634b2102960691b60448201526064015b60405180910390fd5b600083606001516002815181106102b6576102b66127f3565b6020026020010151905060008185606001516002815181106102da576102da6127f3565b60200260200101511115801561030d57508460600151600381518110610302576103026127f3565b602002602001015182105b9050806103675760405162461bcd60e51b815260206004820152602260248201527f57697468647261773a20696e76616c6964207472616e73616374696f6e2074696044820152616d6560f01b6064820152608401610294565b60065460405163336113b360e11b81526000916001600160a01b0316906366c227669061039a9089908990600401612886565b602060405180830381865afa1580156103b7573d6000803e3d6000fd5b505050506040513d601f19601f820116820180604052508101906103db91906128ab565b9050806104235760405162461bcd60e51b815260206004820152601660248201527515da5d1a191c985dce8814dbd2ddd90819985a5b195960521b6044820152606401610294565b600061049e6002805480602002602001604051908101604052809291908181526020016000905b828210156104905783829060005260206000209060020201604051806040016040529081600082015481526020016001820154815250508152602001906001019061044a565b505050508860400151611497565b159050806104eb5760405162461bcd60e51b815260206004820152601a60248201527915da5d1a191c985dce881d1859c8185b1c9958591e481d5cd95960321b6044820152606401610294565b8280156104f55750815b80156104fe5750805b156106835760408701516002805460018101825560008281528351919092026000805160206131a98339815191528101919091556020909201516000805160206131c983398151915290920191909155600354606089015180516001600160a01b039092169163e4b50cb891908490610579576105796127f3565b60200260200101516040518263ffffffff1660e01b815260040161059f91815260200190565b602060405180830381865afa1580156105bc573d6000803e3d6000fd5b505050506040513d601f19601f820116820180604052508101906105e091906128cd565b9050806001600160a01b031663beabacc8308a608001518b6060015160018151811061060e5761060e6127f3565b60200260200101516040518463ffffffff1660e01b8152600401610634939291906128ea565b6020604051808303816000875af1158015610653573d6000803e3d6000fd5b505050506040513d601f19601f8201168201806040525081019061067791906128ab565b95505050505050610241565b5060009695505050505050565b6106986116ab565b600654604051637a29a98560e11b81526001600160a01b039091169063f453530a906106ca9086908690600401612937565b600060405180830381865afa1580156106e7573d6000803e3d6000fd5b505050506040513d6000823e601f3d908101601f1916820160405261070f9190810190612b9b565b9392505050565b60606000805480602002602001604051908101604052809291908181526020016000905b828210156107805783829060005260206000209060020201604051806040016040529081600082015481526020016001820154815250508152602001906001019061073a565b50505050905090565b6107916116ea565b60075460405163024f0e7160e21b81526001600160a01b039091169063093c39c4906107c39086908690600401612d23565b600060405180830381865afa1580156107e0573d6000803e3d6000fd5b505050506040513d6000823e601f3d908101601f1916820160405261070f9190810190612eb6565b600061024160028054806020026020016040519081016040528092919081815260200160009082821015610237578382906000526020600020906002020160405180604001604052908160008201548152602001600182015481525050815260200190600101906101f1565b600080600090506000818560200151600281518110610895576108956127f3565b6020026020010151111580156108c8575084602001516003815181106108bd576108bd6127f3565b602002602001015182105b9050806109215760405162461bcd60e51b815260206004820152602160248201527f4465706f7369743a20696e76616c6964207472616e73616374696f6e2074696d6044820152606560f81b6064820152608401610294565b600061099c6001805480602002602001604051908101604052809291908181526020016000905b8282101561098e57838290600052602060002090600202016040518060400160405290816000820154815260200160018201548152505081526020019060010190610948565b505089515191506114979050565b159050806109e75760405162461bcd60e51b815260206004820152601860248201527711195c1bdcda5d0e881c1ac8185b1c9958591e481d5cd95960421b6044820152606401610294565b600554604051631a3cfdbd60e11b81526000916001600160a01b031690633479fb7a90610a1a908a908a90600401613011565b602060405180830381865afa158015610a37573d6000803e3d6000fd5b505050506040513d601f19601f82011682018060405250810190610a5b91906128ab565b905080610aa25760405162461bcd60e51b815260206004820152601560248201527411195c1bdcda5d0e8814dbd2d91c0819985a5b1959605a1b6044820152606401610294565b828015610aac5750815b8015610ab55750805b156106835786516040810151602090910151600091610ad491906114f2565b600080546001818101835582805283516002928302600080516020613209833981519152810191909155602080860151600080516020613229833981519152909201919091558c5151825480840184559285528051929093026000805160206132498339815191528101929092559182015160008051602061326983398151915290910155600354908b0151805193945091926001600160a01b039091169163e4b50cb8918490610b8757610b876127f3565b60200260200101516040518263ffffffff1660e01b8152600401610bad91815260200190565b602060405180830381865afa158015610bca573d6000803e3d6000fd5b505050506040513d601f19601f82011682018060405250810190610bee91906128cd565b9050806001600160a01b031663beabacc833308c60200151600181518110610c1857610c186127f3565b60200260200101516040518463ffffffff1660e01b8152600401610c3e939291906128ea565b6020604051808303816000875af1158015610c5d573d6000803e3d6000fd5b505050506040513d601f19601f82011682018060405250810190610c8191906128ab565b9650505050505050610241565b6000805b8251811015610d4857610d296000805480602002602001604051908101604052809291908181526020016000905b82821015610d0657838290600052602060002090600202016040518060400160405290816000820154815260200160018201548152505081526020019060010190610cc0565b50505050848381518110610d1c57610d1c6127f3565b6020026020010151611497565b610d365750600092915050565b80610d408161305f565b915050610c92565b50600192915050565b60005b6010811015610e165760405163b863bd3760e01b815260048101829052600090610ddd9073__alt_bn128_____________________________9063b863bd3790602401602060405180830381865af4158015610db4573d6000803e3d6000fd5b505050506040513d601f19601f82011682018060405250810190610dd89190613078565b61153e565b81546001818101845560009384526020938490208351600290930201918255929091015191015580610e0e8161305f565b915050610d54565b50565b610e21611738565b600354602084015180516000926001600160a01b03169163e4b50cb8918490610e4c57610e4c6127f3565b60200260200101516040518263ffffffff1660e01b8152600401610e7291815260200190565b602060405180830381865afa158015610e8f573d6000803e3d6000fd5b505050506040513d601f19601f82011682018060405250810190610eb391906128cd565b9050806001600160a01b0316632a16cca4308660200151600181518110610edc57610edc6127f3565b60200260200101516040518363ffffffff1660e01b8152600401610f159291906001600160a01b03929092168252602082015260400190565b6020604051808303816000875af1158015610f34573d6000803e3d6000fd5b505050506040513d601f19601f82011682018060405250810190610f5891906128ab565b610fb45760405162461bcd60e51b815260206004820152602760248201527f4465706f7369743a20556e7375636365737366756c20617070726f7665206f7060448201526632b930ba34b7b760c91b6064820152608401610294565b6005546040516314e46cbb60e31b81526001600160a01b039091169063a72365d890610fe69087908790600401613091565b600060405180830381865afa158015611003573d6000803e3d6000fd5b505050506040513d6000823e601f3d908101601f1916820160405261102b91908101906130b3565b949350505050565b60006110428360000151610c8e565b6110815760405162461bcd60e51b815260206004820152601060248201526f29b832b7321d1024b73b30b634b2102960811b6044820152606401610294565b606083015160208101516040909101518110806110e05760405162461bcd60e51b815260206004820152601f60248201527f5370656e643a20696e76616c6964207472616e73616374696f6e2074696d65006044820152606401610294565b600061115b6001805480602002602001604051908101604052809291908181526020016000905b8282101561114d57838290600052602060002090600202016040518060400160405290816000820154815260200160018201548152505081526020019060010190611107565b505050508760800151611497565b159050806111a55760405162461bcd60e51b815260206004820152601760248201527614dc195b990e881c1ad508185b1c9958591e481d5cd959604a1b6044820152606401610294565b6000611211600280548060200260200160405190810160405280929190818152602001600090828210156104905783829060005260206000209060020201604051806040016040529081600082015481526020016001820154815250508152602001906001019061044a565b1590508061125c5760405162461bcd60e51b815260206004820152601860248201527714dc195b990e881d1859d4c8185b1c9958591e481d5cd95960421b6044820152606401610294565b60075460405163de2692ad60e01b81526000916001600160a01b03169063de2692ad9061128f908b908b9060040161311f565b602060405180830381865afa1580156112ac573d6000803e3d6000fd5b505050506040513d601f19601f820116820180604052508101906112d091906128ab565b9050806113155760405162461bcd60e51b815260206004820152601360248201527214dc195b990e8814dbd2dcdc0819985a5b1959606a1b6044820152606401610294565b83801561131f5750825b80156113285750815b80156113315750805b156114895760408801516002805460018181018355600083815284519284026000805160206131a98339815191528101939093556020948501516000805160206131c98339815191529093019290925560808c015181548083018355919092528151920260008051602061324983398151915281019290925590910151600080516020613269833981519152909101556113c961174b565b60005b8960c0015151811015611479576114268a60c0015182815181106113f2576113f26127f3565b60200260200101518b60a001518381518110611410576114106127f3565b60200260200101516114f290919063ffffffff16565b6000805460018101825590805281516000805160206132098339815191526002909202918201556020820151600080516020613229833981519152909101559150806114718161305f565b9150506113cc565b5060019650505050505050610241565b506000979650505050505050565b6000805b83518110156114e8576114c78482815181106114b9576114b96127f3565b602002602001015184611638565b156114d6576001915050610241565b806114e08161305f565b91505061149b565b5060009392505050565b6114fa61174b565b611502611765565b83518152602080850151818301528351604080840191909152908401516060830152826080836006600019fa61153757600080fd5b5092915050565b61154661174b565b60006115606000805160206131e98339815191528461315a565b9050600061156f60018361316e565b91506000805b8161161e57611585600185613181565b93506000805160206131e983398151915284850990506000805160206131e983398151915284820990506000805160206131e98339815191526003820890506116018160046115e36000805160206131e98339815191526001613181565b6115ed9190613194565b6000805160206131e9833981519152611655565b9250806000805160206131e9833981519152848509149150611575565b505060408051808201909152918252602082015292915050565b8051825160009114801561070f5750506020908101519101511490565b600061165f611783565b6116676117a1565b602080835282810181905260408301819052606083018790526080830186905260a083018590528160c0846005600019fa6116a157600080fd5b5195945050505050565b60405180608001604052806116be61174b565b81526020016116cb6117bf565b81526020016116d8611801565b81526020016116e561182e565b905290565b6040518060c001604052806116fd61174b565b815260200161170a6117bf565b8152602001611717611801565b815260200161172461182e565b815260200160608152602001606081525090565b60405180602001604052806116e561182e565b604051806040016040528060008152602001600081525090565b60405180608001604052806004906020820280368337509192915050565b6040518060c001604052806006906020820280368337509192915050565b60405180602001604052806001906020820280368337509192915050565b6040518060c001604052806117d261174b565b81526020016117df61174b565b8152602001606081526020016060815260200160008152602001600081525090565b604051806060016040528061181461174b565b815260200161182161174b565b8152602001606081525090565b604051806040016040528061182161174b565b634e487b7160e01b600052604160045260246000fd5b604080519081016001600160401b038111828210171561187957611879611841565b60405290565b60405160a081016001600160401b038111828210171561187957611879611841565b60405160c081016001600160401b038111828210171561187957611879611841565b604051606081016001600160401b038111828210171561187957611879611841565b604051608081016001600160401b038111828210171561187957611879611841565b60405160e081016001600160401b038111828210171561187957611879611841565b604051602081016001600160401b038111828210171561187957611879611841565b604051601f8201601f191681016001600160401b038111828210171561197357611973611841565b604052919050565b60006040828403121561198d57600080fd5b611995611857565b9050813581526020820135602082015292915050565b6000604082840312156119bd57600080fd5b61070f838361197b565b60006001600160401b038211156119e0576119e0611841565b5060051b60200190565b600082601f8301126119fb57600080fd5b81356020611a10611a0b836119c7565b61194b565b82815260069290921b84018101918181019086841115611a2f57600080fd5b8286015b84811015611a5357611a45888261197b565b835291830191604001611a33565b509695505050505050565b600082601f830112611a6f57600080fd5b81356020611a7f611a0b836119c7565b82815260059290921b84018101918181019086841115611a9e57600080fd5b8286015b84811015611a535780358352918301918301611aa2565b6001600160a01b0381168114610e1657600080fd5b8035611ad981611ab9565b919050565b600060c08284031215611af057600080fd5b611af861187f565b905081356001600160401b0380821115611b1157600080fd5b611b1d858386016119ea565b83526020840135915080821115611b3357600080fd5b611b3f858386016119ea565b6020840152611b51856040860161197b565b60408401526080840135915080821115611b6a57600080fd5b50611b7784828501611a5e565b606083015250611b8960a08301611ace565b608082015292915050565b60006101008284031215611ba757600080fd5b611baf6118a1565b9050611bbb838361197b565b8152611bca836040840161197b565b602082015260808201356001600160401b0380821115611be957600080fd5b611bf5858386016119ea565b604084015260a0840135915080821115611c0e57600080fd5b50611c1b84828501611a5e565b60608301525060c0820135608082015260e082013560a082015292915050565b600060a08284031215611c4d57600080fd5b611c556118c3565b9050611c61838361197b565b8152611c70836040840161197b565b602082015260808201356001600160401b03811115611c8e57600080fd5b611c9a84828501611a5e565b60408301525092915050565b600060608284031215611cb857600080fd5b611cc0611857565b9050611ccc838361197b565b815260408201356001600160401b03811115611ce757600080fd5b611cf384828501611a5e565b60208301525092915050565b60008060408385031215611d1257600080fd5b82356001600160401b0380821115611d2957600080fd5b611d3586838701611ade565b93506020850135915080821115611d4b57600080fd5b9084019060a08287031215611d5f57600080fd5b611d676118e5565b611d71878461197b565b8152604083013582811115611d8557600080fd5b611d9188828601611b94565b602083015250606083013582811115611da957600080fd5b611db588828601611c3b565b604083015250608083013582811115611dcd57600080fd5b611dd988828601611ca6565b6060830152508093505050509250929050565b600082601f830112611dfd57600080fd5b611e056118e5565b806080840185811115611e1757600080fd5b845b81811015611e31578035845260209384019301611e19565b509095945050505050565b60008060a08385031215611e4f57600080fd5b82356001600160401b03811115611e6557600080fd5b611e7185828601611ade565b925050611e818460208501611dec565b90509250929050565b80518252602090810151910152565b600081518084526020808501945080840160005b83811015611ed357611ec0878351611e8a565b6040969096019590820190600101611ead565b509495945050505050565b600081518084526020808501945080840160005b83811015611ed357815187529582019590820190600101611ef2565b6000610100611f1e848451611e8a565b6020830151611f306040860182611e8a565b506040830151816080860152611f4882860182611e99565b915050606083015184820360a0860152611f628282611ede565b915050608083015160c085015260a083015160e08501528091505092915050565b611f8e828251611e8a565b60006020820151611fa26040850182611e8a565b50604082015160a0608085015261102b60a0850182611ede565b611fc7828251611e8a565b600060208201516060604085015261102b6060850182611ede565b611fed828251611e8a565b6000602082015160a0604085015261200860a0850182611f0e565b9050604083015184820360608601526120218282611f83565b9150506060830151848203608086015261203b8282611fbc565b95945050505050565b60208152600061070f6020830184611fe2565b602080825282518282018190526000919060409081850190868401855b8281101561209757612087848351611e8a565b9284019290850190600101612074565b5091979650505050505050565b600082601f8301126120b557600080fd5b6120bd6118c3565b806060840185811115611e1757600080fd5b600061016082840312156120e257600080fd5b6120ea611907565b905081356001600160401b038082111561210357600080fd5b61210f858386016119ea565b8352602084013591508082111561212557600080fd5b612131858386016119ea565b6020840152612143856040860161197b565b604084015261215585608086016120a4565b60608401526121678560e0860161197b565b608084015261012084013591508082111561218157600080fd5b61218d858386016119ea565b60a08401526101408401359150808211156121a757600080fd5b506121b4848285016119ea565b60c08301525092915050565b600080604083850312156121d357600080fd5b82356001600160401b03808211156121ea57600080fd5b6121f6868387016120cf565b935060209150818501358181111561220d57600080fd5b8501608081880381131561222057600080fd5b6122286118e5565b82358152848301358481111561223d57600080fd5b6122498a828601611a5e565b86830152506040830135604082015260608301358481111561226a57600080fd5b83019350601f8401891361227d57600080fd5b8335925061228d611a0b846119c7565b83815260079390931b8401850192858101908a8511156122ac57600080fd5b948601945b848610156122d2576122c38b87611dec565b825294830194908601906122b1565b60608301525095989597509495505050505050565b600081518084526020808501808196508360051b8101915082860160005b8581101561209757828403895261231d848351611f83565b98850198935090840190600101612305565b61233a828251611e8a565b600060208083015160e0604086015261235660e0860182611f0e565b90506040840151858203606087015261236f8282611f83565b915050606084015185820360808701526123898282611fbc565b608086015187820360a089015280518083529193508401915083830190600581901b8401850160005b828110156123e057601f198683030184526123ce828651611fbc565b948701949387019391506001016123b2565b5060a0880151955088810360c08a01526123fa81876122e7565b9998505050505050505050565b60208152600061070f602083018461232f565b600081830360e081121561242d57600080fd5b612435611857565b915060c081121561244557600080fd5b5061244e6118c3565b612458848461197b565b8152612467846040850161197b565b6020820152612479846080850161197b565b6040820152815260c08201356001600160401b03811115611ce757600080fd5b600080604083850312156124ac57600080fd5b82356001600160401b03808211156124c357600080fd5b6124cf8683870161241a565b935060208501359150808211156124e557600080fd5b90840190602082870312156124f957600080fd5b612501611929565b82358281111561251057600080fd5b61251c88828601611ca6565b8252508093505050509250929050565b60006020828403121561253e57600080fd5b81356001600160401b0381111561255457600080fd5b61102b848285016119ea565b6000806080838503121561257357600080fd5b82356001600160401b0381111561258957600080fd5b6125958582860161241a565b925050611e8184602085016120a4565b602081526000825160208084015261102b6040840182611fbc565b600082601f8301126125d157600080fd5b813560206125e1611a0b836119c7565b82815260059290921b8401810191818101908684111561260057600080fd5b8286015b84811015611a535780356001600160401b038111156126235760008081fd5b6126318986838b0101611ca6565b845250918301918301612604565b600082601f83011261265057600080fd5b81356020612660611a0b836119c7565b82815260059290921b8401810191818101908684111561267f57600080fd5b8286015b84811015611a535780356001600160401b038111156126a25760008081fd5b6126b08986838b0101611c3b565b845250918301918301612683565b600080604083850312156126d157600080fd5b82356001600160401b03808211156126e857600080fd5b6126f4868387016120cf565b9350602085013591508082111561270a57600080fd5b9084019060e0828703121561271e57600080fd5b6127266118a1565b612730878461197b565b815260408301358281111561274457600080fd5b61275088828601611b94565b60208301525060608301358281111561276857600080fd5b61277488828601611c3b565b60408301525060808301358281111561278c57600080fd5b61279888828601611ca6565b60608301525060a0830135828111156127b057600080fd5b6127bc888286016125c0565b60808301525060c0830135828111156127d457600080fd5b6127e08882860161263f565b60a0830152508093505050509250929050565b634e487b7160e01b600052603260045260246000fd5b6000815160c0845261281e60c0850182611e99565b9050602083015184820360208601526128378282611e99565b915050604083015161284c6040860182611e8a565b50606083015184820360808601526128648282611ede565b608094909401516001600160a01b031660a09590950194909452509092915050565b6040815260006128996040830185612809565b828103602084015261203b8185611fe2565b6000602082840312156128bd57600080fd5b8151801515811461070f57600080fd5b6000602082840312156128df57600080fd5b815161070f81611ab9565b6001600160a01b039384168152919092166020820152604081019190915260600190565b8060005b6004811015612931578151845260209384019390910190600101612912565b50505050565b60a08152600061294a60a0830185612809565b905061070f602083018461290e565b60006040828403121561296b57600080fd5b612973611857565b9050815181526020820151602082015292915050565b600082601f83011261299a57600080fd5b815160206129aa611a0b836119c7565b82815260069290921b840181019181810190868411156129c957600080fd5b8286015b84811015611a53576129df8882612959565b8352918301916040016129cd565b600082601f8301126129fe57600080fd5b81516020612a0e611a0b836119c7565b82815260059290921b84018101918181019086841115612a2d57600080fd5b8286015b84811015611a535780518352918301918301612a31565b60006101008284031215612a5b57600080fd5b612a636118a1565b9050612a6f8383612959565b8152612a7e8360408401612959565b602082015260808201516001600160401b0380821115612a9d57600080fd5b612aa985838601612989565b604084015260a0840151915080821115612ac257600080fd5b50612acf848285016129ed565b60608301525060c0820151608082015260e082015160a082015292915050565b600060a08284031215612b0157600080fd5b612b096118c3565b9050612b158383612959565b8152612b248360408401612959565b602082015260808201516001600160401b03811115612b4257600080fd5b611c9a848285016129ed565b600060608284031215612b6057600080fd5b612b68611857565b9050612b748383612959565b815260408201516001600160401b03811115612b8f57600080fd5b611cf3848285016129ed565b600060208284031215612bad57600080fd5b81516001600160401b0380821115612bc457600080fd5b9083019060a08286031215612bd857600080fd5b612be06118e5565b612bea8684612959565b8152604083015182811115612bfe57600080fd5b612c0a87828601612a48565b602083015250606083015182811115612c2257600080fd5b612c2e87828601612aef565b604083015250608083015182811115612c4657600080fd5b612c5287828601612b4e565b60608301525095945050505050565b8060005b6003811015612931578151845260209384019390910190600101612c65565b60006101608251818552612c9a82860182611e99565b91505060208301518482036020860152612cb48282611e99565b9150506040830151612cc96040860182611e8a565b506060830151612cdc6080860182612c61565b506080830151612cef60e0860182611e8a565b5060a0830151848203610120860152612d088282611e99565b91505060c083015184820361014086015261203b8282611e99565b604081526000612d366040830185612c84565b602083820381850152608085518352818601518183850152612d5a82850182611ede565b604088810151908601526060808901518683039190960152845180825290840194840191506000905b80821015612daa57612d9686845161290e565b948301949184019160019190910190612d83565b509398975050505050505050565b600082601f830112612dc957600080fd5b81516020612dd9611a0b836119c7565b82815260059290921b84018101918181019086841115612df857600080fd5b8286015b84811015611a535780516001600160401b03811115612e1b5760008081fd5b612e298986838b0101612b4e565b845250918301918301612dfc565b600082601f830112612e4857600080fd5b81516020612e58611a0b836119c7565b82815260059290921b84018101918181019086841115612e7757600080fd5b8286015b84811015611a535780516001600160401b03811115612e9a5760008081fd5b612ea88986838b0101612aef565b845250918301918301612e7b565b600060208284031215612ec857600080fd5b81516001600160401b0380821115612edf57600080fd5b9083019060e08286031215612ef357600080fd5b612efb6118a1565b612f058684612959565b8152604083015182811115612f1957600080fd5b612f2587828601612a48565b602083015250606083015182811115612f3d57600080fd5b612f4987828601612aef565b604083015250608083015182811115612f6157600080fd5b612f6d87828601612b4e565b60608301525060a083015182811115612f8557600080fd5b612f9187828601612db8565b60808301525060c083015182811115612fa957600080fd5b612fb587828601612e37565b60a08301525095945050505050565b60008151612fd3848251611e8a565b6020810151612fe56040860182611e8a565b5060400151612ff76080850182611e8a565b50602082015160e060c085015261102b60e0850182611ede565b6040815260006130246040830185612fc4565b828103602084015283516020825261303f6020830182611fbc565b9695505050505050565b634e487b7160e01b600052601160045260246000fd5b60006001820161307157613071613049565b5060010190565b60006020828403121561308a57600080fd5b5051919050565b6080815260006130a46080830185612fc4565b905061070f6020830184612c61565b6000602082840312156130c557600080fd5b81516001600160401b03808211156130dc57600080fd5b90830190602082860312156130f057600080fd5b6130f8611929565b82518281111561310757600080fd5b61311387828601612b4e565b82525095945050505050565b6040815260006131326040830185612c84565b828103602084015261203b818561232f565b634e487b7160e01b600052601260045260246000fd5b60008261316957613169613144565b500690565b8181038181111561024157610241613049565b8082018082111561024157610241613049565b6000826131a3576131a3613144565b50049056fe405787fa12a823e0f2b7631cc41b3ba8828b3321ca811111fa75cd3aa3bb5ace405787fa12a823e0f2b7631cc41b3ba8828b3321ca811111fa75cd3aa3bb5acf30644e72e131a029b85045b68181585d97816a916871ca8d3c208c16d87cfd47290decd9548b62a8d60345a988386fc84ba6bc95484008f6362f93160ef3e563290decd9548b62a8d60345a988386fc84ba6bc95484008f6362f93160ef3e564b10e2d527612073b26eecdfd717e6a320cf44b4afac2b0732d9fcbe2b7fa0cf6b10e2d527612073b26eecdfd717e6a320cf44b4afac2b0732d9fcbe2b7fa0cf7a2646970667358221220c33e4521e926cd18125b7026e43e3ee209d779ef7a1119ed57ba5fa54e9d4b3864736f6c6343000813003330644e72e131a029b85045b68181585d97816a916871ca8d3c208c16d87cfd47",
  "immutableReferences": {},
  "source": "// SPDX-License-Identifier: GPL-3.0\npragma solidity >=0.4.0 <0.9.0;\n\nimport \"./lib/alt_bn128.sol\";\nimport \"./Token/Token.sol\";\nimport \"./Token/TokenRegistrar.sol\";\nimport \"./PubParam.sol\";\nimport \"./TX/SoKdp.sol\";\nimport \"./TX/SoKwd.sol\";\nimport \"./TX/SoKsp.sol\";\n\nuint constant R_size = 16;\n\ncontract Mixer {\n  \n  using alt_bn128 for uint256;\n  using alt_bn128 for alt_bn128.G1Point;\n\n  alt_bn128.G1Point[] _accs;\n  alt_bn128.G1Point[] _pks;\n  alt_bn128.G1Point[] _tags;\n\n  TokenRegistrar r;\n  PubParam pp;\n  SoKdp dp;\n  SoKwd wd;\n  SoKsp sp;\n\n  constructor (\n    address r_addr, \n    address pp_addr, \n    address dp_addr,\n    address wd_addr,\n    address sp_addr\n  ) {\n    r = TokenRegistrar(r_addr);\n    pp = PubParam(pp_addr);\n    dp = SoKdp(dp_addr);\n    wd = SoKwd(wd_addr);\n    sp = SoKsp(sp_addr);\n\n    init();\n  }\n\n  function init() public {\n    for (uint i = 0; i < R_size; i++){\n      _accs.push(alt_bn128.random(i).uintToCurvePoint());\n    }\n  }\n\n  ///////// deposit /////////\n\n  /// @dev user deposit token into mixer\n  /// @param tx_dp deposit transaction statement\n  /// @param wit witness (sk, opn, ok)\n  /// @return sig deposit signature\n  function deposit(SoKdp.TX memory tx_dp, uint256[3] memory wit) public returns (SoKdp.Sig memory sig){\n\n    Token t = Token(r.getToken(tx_dp.attrS[0]));\n\n    if (!t.isApproved(address(this), tx_dp.attrS[1])) \n      revert (\"Deposit: Unsuccessful approve operation\");\n\n    sig = dp.sign(tx_dp, wit);\n  }\n\n  /// @dev mixer process deposit request\n  /// @param tx_dp deposit transaction statement\n  /// @param sig deposit signature\n  function process_dp(SoKdp.TX memory tx_dp, SoKdp.Sig memory sig) public returns (bool) {\n    /// @dev b0  T_now  [T_begS ,T_endS)\n    // uint256 time = block.timestamp;\n    uint256 time = 0; // for testing\n    bool b0 = tx_dp.attrS[2] <= time && time < tx_dp.attrS[3]; \n    require(b0, \"Deposit: invalid transaction time\");\n\n    /// @dev b1  pk  pk\n    bool b1 = !_in(_pks, tx_dp.s.pk);\n    require(b1, \"Deposit: pk already used\");\n\n    /// @dev b2  SoKverify(L_dp)\n    bool b2 = dp.verify(tx_dp, sig);\n    require(b2, \"Deposit: SoKdp failed\");\n\n    if (b0 && b1 && b2){\n      alt_bn128.G1Point memory Cx = tx_dp.s.tcom.add(tx_dp.s.ocom);\n      _accs.push(Cx);\n      _pks.push(tx_dp.s.pk);\n      Token t = Token(r.getToken(tx_dp.attrS[0]));\n\n      /// @dev ty.transfer[owner, mixer]\n      return t.transfer(msg.sender, address(this), tx_dp.attrS[1]);\n    }\n    return false;\n  }\n\n  //////// withdraw //////////\n\n  /// @dev withdraw token from mixer\n  /// @param tx_wd withdraw transaction statement\n  /// @param wit (theta, sk, opn, ok)\n  function withdraw(SoKwd.TX memory tx_wd, uint256[4] memory wit) public view returns (SoKwd.Sig memory){\n    return wd.sign(tx_wd, wit);\n  }\n  \n  function process_wd(SoKwd.TX memory tx_wd, SoKwd.Sig memory sig) public returns (bool) {\n    if (!isValid(tx_wd.R)) revert(\"Withdraw: Invalid R\");\n\n    /// @dev b0  T_now  [T_begS ,T_endS)\n    // uint256 time = block.timestamp;\n    uint256 time = tx_wd.attrS[2]; // for testing\n    bool b0 = tx_wd.attrS[2] <= time && time < tx_wd.attrS[3];\n    require(b0, \"Withdraw: invalid transaction time\");\n\n    /// @dev b1 = verify signature\n    bool b1 = wd.verify(tx_wd, sig);\n    require (b1, \"Withdraw: SoKwd failed\");\n\n    /// @dev b2  tagS  tag\n    bool b2 = !_in(_tags, tx_wd.tag);\n    require(b2, \"Withdraw: tag already used\");\n\n    if (b0 && b1 && b2) {\n      _tags.push(tx_wd.tag);\n\n      Token t = Token(r.getToken(tx_wd.attrS[0]));\n      /// @dev ty.transfer[mixer, rcpt]\n      return t.transfer(address(this), tx_wd.u_rcpt, tx_wd.attrS[1]);\n    }\n    return false;\n  }\n\n  function spend(SoKsp.TX memory tx_sp, SoKsp.Wit memory wit) public view returns (SoKsp.Sig memory){\n    return sp.sign(tx_sp, wit);\n  }\n\n  function process_sp(SoKsp.TX memory tx_sp, SoKsp.Sig memory sig) public returns (bool) {\n    if (!isValid(tx_sp.R)) revert(\"Spend: Invalid R\");\n\n    // uint256 time = 5; // for testing\n    /// @dev b0  T_now  [T_begS ,T_endS)\n    // uint256 time = block.timestamp;\n    uint256 time = tx_sp.attrS[1]; // for testing\n    bool b0 = tx_sp.attrS[1] <= time && time < tx_sp.attrS[2]; \n    require (b0, \"Spend: invalid transaction time\");\n\n    // b1  pkT  pk\n    bool b1 = !_in(_pks, tx_sp.pk_T);\n    require(b1, \"Spend: pkT already used\");\n\n    // b2  tagS  tag\n    bool b2 = !_in(_tags, tx_sp.tagS);\n    require(b2, \"Spend: tagS already used\");\n\n    bool b3 = sp.verify(tx_sp, sig);\n    require (b3, \"Spend: SoKsp failed\");\n\n    if (b0 && b1 && b2 && b3){\n      _tags.push(tx_sp.tagS);\n      _pks.push(tx_sp.pk_T);\n\n      alt_bn128.G1Point memory acc;\n      for (uint i = 0; i < tx_sp.ocom_T.length; i++) {\n        acc = tx_sp.tcom_T[i].add(tx_sp.ocom_T[i]);\n        _accs.push(acc);\n      }\n      return true;\n    }\n    return false;\n  }\n\n  function get_accs() public view returns (alt_bn128.G1Point[] memory){\n    return _accs;\n  }\n\n  function get_pp() public view returns (PubParam){\n    return pp;\n  }\n\n  function isValid(alt_bn128.G1Point[] memory R) public view returns (bool) {\n    for (uint i = 0; i < R.length; i++) {\n      if (!_in(_accs, R[i])) return false;\n    }\n    return true;\n  }\n\n  function inAcc(alt_bn128.G1Point memory g) public view returns (bool) {\n    return _in(_accs, g);\n  }\n\n  function inTag(alt_bn128.G1Point memory g) public view returns (bool) {\n    return _in(_tags, g);\n  }\n\n  function _in(\n    alt_bn128.G1Point[] memory ls,\n    alt_bn128.G1Point memory g\n  ) private pure returns (bool) {\n    for (uint i = 0 ; i < ls.length; i++) {\n      if (alt_bn128.eq(ls[i], g)) return true;\n    }\n    return false;\n  }\n\n}\n\ncontract MixerFactory {\n  address[] _mixers;\n\n  function addMixer(address _mixer) public {\n    _mixers.push(_mixer);\n  }\n\n  function getMixers() public view returns (address[] memory) {\n    return _mixers;\n  }\n  \n}",
  "sourcePath": "/Users/qian/Desktop/Y4/COMP4550/project/XCSwap/contracts/Mixer.sol",
  "compiler": {
    "name": "solc",
    "version": "0.8.19+commit.7dd6d404.Emscripten.clang"
  },
  "schemaVersion": "3.4.13",
  "updatedAt": "2023-09-22T13:12:19.712Z",
  "devdoc": {
    "kind": "dev",
    "methods": {
      "deposit((((uint256,uint256),(uint256,uint256),(uint256,uint256)),uint256[]),uint256[3])": {
        "details": "user deposit token into mixer",
        "params": {
          "tx_dp": "deposit transaction statement",
          "wit": "witness (sk, opn, ok)"
        },
        "returns": {
          "sig": "deposit signature"
        }
      },
      "process_dp((((uint256,uint256),(uint256,uint256),(uint256,uint256)),uint256[]),(((uint256,uint256),uint256[])))": {
        "details": "mixer process deposit request",
        "params": {
          "sig": "deposit signature",
          "tx_dp": "deposit transaction statement"
        }
      },
      "withdraw(((uint256,uint256)[],(uint256,uint256)[],(uint256,uint256),uint256[],address),uint256[4])": {
        "details": "withdraw token from mixer",
        "params": {
          "tx_wd": "withdraw transaction statement",
          "wit": "(theta, sk, opn, ok)"
        }
      }
    },
    "version": 1
  },
  "userdoc": {
    "kind": "user",
    "methods": {},
    "version": 1
  }
}