{
  "contractName": "MixerFactory",
  "abi": [
    {
      "inputs": [
        {
          "internalType": "address",
          "name": "_mixer",
          "type": "address"
        }
      ],
      "name": "addMixer",
      "outputs": [],
      "stateMutability": "nonpayable",
      "type": "function"
    },
    {
      "inputs": [],
      "name": "getMixers",
      "outputs": [
        {
          "internalType": "address[]",
          "name": "",
          "type": "address[]"
        }
      ],
      "stateMutability": "view",
      "type": "function"
    }
  ],
  "bytecode": "0x608060405234801561001057600080fd5b506101cd806100206000396000f3fe608060405234801561001057600080fd5b50600436106100365760003560e01c80630fe928fe1461003b578063344152c31461009a575b600080fd5b61009861004936600461011a565b600080546001810182559080527f290decd9548b62a8d60345a988386fc84ba6bc95484008f6362f93160ef3e5630180546001600160a01b0319166001600160a01b0392909216919091179055565b005b6100a26100b8565b6040516100af919061014a565b60405180910390f35b6060600080548060200260200160405190810160405280929190818152602001828054801561011057602002820191906000526020600020905b81546001600160a01b031681526001909101906020018083116100f2575b5050505050905090565b60006020828403121561012c57600080fd5b81356001600160a01b038116811461014357600080fd5b9392505050565b6020808252825182820181905260009190848201906040850190845b8181101561018b5783516001600160a01b031683529284019291840191600101610166565b5090969550505050505056fea26469706673582212205e832d797075bacde8baff2486203655ebead45bdb0885f0d733951c337964d364736f6c63430008130033",
  "immutableReferences": {},
  "source": "// SPDX-License-Identifier: GPL-3.0\npragma solidity >=0.4.0 <0.9.0;\n\nimport \"./lib/alt_bn128.sol\";\nimport \"./Token/Token.sol\";\nimport \"./Token/TokenRegistrar.sol\";\nimport \"./PubParam.sol\";\nimport \"./TX/SoKdp.sol\";\nimport \"./TX/SoKwd.sol\";\nimport \"./TX/SoKsp.sol\";\n\nuint constant R_size = 64;\n\ncontract Mixer {\n  \n  using alt_bn128 for uint256;\n  using alt_bn128 for alt_bn128.G1Point;\n\n  // mapping(bytes32 => bool) _isValidAccs;\n  // mapping(uint256 => mapping(uint256 => bool)) _isValidAccs;\n  // mapping(uint256 => mapping(uint256 => bool)) _isValidpks;\n  // mapping(uint256 => mapping(uint256 => bool)) _isValidTags;\n  // mapping(bytes32 => bool) _isValidpks;\n  // mapping(bytes32 => bool) _isValidTags;\n  alt_bn128.G1Point[] _accs;\n  alt_bn128.G1Point[] _pks;\n  alt_bn128.G1Point[] _tags;\n\n  TokenRegistrar r;\n  PubParam pp;\n  SoKdp dp;\n  SoKwd wd;\n  SoKsp sp;\n\n  constructor (\n    address r_addr, \n    address pp_addr, \n    address dp_addr,\n    address wd_addr,\n    address sp_addr\n  ) {\n    r = TokenRegistrar(r_addr);\n    pp = PubParam(pp_addr);\n    dp = SoKdp(dp_addr);\n    wd = SoKwd(wd_addr);\n    sp = SoKsp(sp_addr);\n\n    init();\n  }\n\n  function init() public {\n    alt_bn128.G1Point memory g;\n    for (uint i = 0; i < R_size; i++){\n      g = alt_bn128.random(i).uintToCurvePoint();\n      _accs.push(g);\n      // _isValidAccs[g.X][g.Y] = true; \n      // _isValidAccs[_hash(g)] = true;\n    }\n  }\n\n  ///////// deposit /////////\n\n  /// @dev user deposit token into mixer\n  /// @param tx_dp deposit transaction statement\n  /// @param wit witness (sk, opn, ok)\n  /// @return sig deposit signature\n  function deposit(SoKdp.TX memory tx_dp, uint256[3] memory wit) public returns (SoKdp.Sig memory sig){\n\n    Token t = Token(r.getToken(tx_dp.attrS[0]));\n\n    if (!t.isApproved(address(this), tx_dp.attrS[1])) \n      revert (\"Deposit: Unsuccessful approve operation\");\n\n    sig = dp.sign(tx_dp, wit);\n  }\n\n  /// @dev mixer process deposit request\n  /// @param tx_dp deposit transaction statement\n  /// @param sig deposit signature\n  function process_dp(SoKdp.TX memory tx_dp, SoKdp.Sig memory sig) public returns (bool) {\n    /// @dev b0 ≜ T_now ∈ [T_begS ,T_endS)\n    // uint256 time = block.timestamp;\n    uint256 time = 0; // for testing\n    bool b0 = tx_dp.attrS[2] <= time && time < tx_dp.attrS[3]; \n    require(b0, \"Deposit: invalid transaction time\");\n\n    /// @dev b1 ≜ pk ∉ Σpk\n    bool b1 = !_in(_pks, tx_dp.s.pk);\n    // bool b1 = !_isValidpks[_hash(tx_dp.s.pk)];\n    require(b1, \"Deposit: pk already used\");\n\n    /// @dev b2 ≜ SoKverify(L_dp)\n    bool b2 = dp.verify(tx_dp, sig);\n    require(b2, \"Deposit: SoKdp failed\");\n\n    if (b0 && b1 && b2){\n      alt_bn128.G1Point memory Cx = tx_dp.s.tcom.add(tx_dp.s.ocom);\n      _accs.push(Cx);\n      // _isValidAccs[_hash(Cx)] = true;\n      _pks.push(tx_dp.s.pk);\n      // _isValidpks[_hash(tx_dp.s.pk)] = true;\n      Token t = Token(r.getToken(tx_dp.attrS[0]));\n\n      /// @dev ty.transfer[owner, mixer]\n      return t.transfer(msg.sender, address(this), tx_dp.attrS[1]);\n    }\n    return false;\n  }\n\n  //////// withdraw //////////\n\n  /// @dev withdraw token from mixer\n  /// @param tx_wd withdraw transaction statement\n  /// @param wit (theta, sk, opn, ok)\n  function withdraw(SoKwd.TX memory tx_wd, uint256[4] memory wit) public view returns (SoKwd.Sig memory){\n    return wd.sign(tx_wd, wit);\n  }\n  \n  function process_wd(SoKwd.TX memory tx_wd, SoKwd.Sig memory sig) public returns (bool) {\n    if (!isValid(tx_wd.R)) revert(\"Withdraw: Invalid R\");\n\n    /// @dev b0 ≜ T_now ∈ [T_begS ,T_endS)\n    // uint256 time = block.timestamp;\n    uint256 time = tx_wd.attrS[2]; // for testing\n    bool b0 = tx_wd.attrS[2] <= time && time < tx_wd.attrS[3];\n    require(b0, \"Withdraw: invalid transaction time\");\n\n    /// @dev b1 = verify signature\n    bool b1 = wd.verify(tx_wd, sig);\n    require (b1, \"Withdraw: SoKwd failed\");\n\n    /// @dev b2 ≜ tagS ∉ Σtag\n    bool b2 = !_in(_tags, tx_wd.tag);\n    // bool b2 = !_isValidTags[_hash(tx_wd.tag)];\n    require(b2, \"Withdraw: tag already used\");\n\n    if (b0 && b1 && b2) {\n      _tags.push(tx_wd.tag);\n      // _isValidTags[_hash(tx_wd.tag)] = true;\n\n      Token t = Token(r.getToken(tx_wd.attrS[0]));\n      /// @dev ty.transfer[mixer, rcpt]\n      return t.transfer(address(this), tx_wd.u_rcpt, tx_wd.attrS[1]);\n    }\n    return false;\n  }\n\n  function spend(SoKsp.TX memory tx_sp, SoKsp.Wit memory wit) public view returns (SoKsp.Sig memory){\n    return sp.sign(tx_sp, wit);\n  }\n\n  function process_sp(SoKsp.TX memory tx_sp, SoKsp.Sig memory sig) public returns (bool) {\n    if (!isValid(tx_sp.R)) revert(\"Spend: Invalid R\");\n\n    // uint256 time = 5; // for testing\n    /// @dev b0 ≜ T_now ∈ [T_begS ,T_endS)\n    // uint256 time = block.timestamp;\n    uint256 time = tx_sp.attrS[1]; // for testing\n    bool b0 = tx_sp.attrS[1] <= time && time < tx_sp.attrS[2]; \n    require (b0, \"Spend: invalid transaction time\");\n\n    // b1 ≜ pkT ∉ Σpk\n    bool b1 = !_in(_pks, tx_sp.pk_T);\n    // bool b1 = !_isValidpks[_hash(tx_sp.pk_T)];\n    require(b1, \"Spend: pkT already used\");\n\n    // b2 ≜ tagS ∉ Σtag\n    bool b2 = !_in(_tags, tx_sp.tagS);\n    // bool b2 = !_isValidTags[_hash(tx_sp.tagS)];\n    require(b2, \"Spend: tagS already used\");\n\n    bool b3 = sp.verify(tx_sp, sig);\n    require (b3, \"Spend: SoKsp failed\");\n\n    if (b0 && b1 && b2 && b3){\n      _tags.push(tx_sp.tagS);\n      _pks.push(tx_sp.pk_T);\n\n      // _isValidTags[_hash(tx_sp.tagS)] = true;\n      // _isValidpks[_hash(tx_sp.pk_T)] = true;\n\n      alt_bn128.G1Point memory acc;\n      for (uint i = 0; i < tx_sp.ocom_T.length; i++) {\n        acc = tx_sp.tcom_T[i].add(tx_sp.ocom_T[i]);\n        _accs.push(acc);\n        // _isValidAccs[_hash(acc)] = true;\n      }\n      return true;\n    }\n    return false;\n  }\n\n  function get_accs() public view returns (alt_bn128.G1Point[] memory){\n    return _accs;\n  }\n\n  function isValid(alt_bn128.G1Point[] memory R) public view returns (bool) {\n    for (uint i = 0; i < R.length; i++) {\n      if (!_in(_accs, R[i])) return false;\n      // if (!_isValidAccs[_hash(R[i])]) return false;\n    }\n    return true;\n  }\n\n  function inAcc(alt_bn128.G1Point memory g) public view returns (bool) {\n    return _in(_accs, g);\n    // return _isValidAccs[_hash(g)];\n  }\n\n  function inTag(alt_bn128.G1Point memory g) public view returns (bool) {\n    return _in(_tags, g);\n    // return _isValidTags[_hash(g)];\n  }\n\n  function _hash(alt_bn128.G1Point memory g) private pure returns (bytes32) {\n    return keccak256(abi.encodePacked(g.X, g.Y));\n  }\n\n  function _in(\n    alt_bn128.G1Point[] memory ls,\n    alt_bn128.G1Point memory g\n  ) private pure returns (bool) {\n    for (uint i = 0 ; i < ls.length; i++) {\n      if (alt_bn128.eq(ls[i], g)) return true;\n    }\n    return false;\n  }\n\n}\n\ncontract MixerFactory {\n  address[] _mixers;\n\n  function addMixer(address _mixer) public {\n    _mixers.push(_mixer);\n  }\n\n  function getMixers() public view returns (address[] memory) {\n    return _mixers;\n  }\n  \n}",
  "sourcePath": "/Users/qian/Desktop/Y4/COMP4550/project/XCSwap/contracts/Mixer.sol",
  "compiler": {
    "name": "solc",
    "version": "0.8.19+commit.7dd6d404.Emscripten.clang"
  },
  "schemaVersion": "3.4.13",
  "updatedAt": "2023-10-15T17:44:25.641Z",
  "networkType": "ethereum",
  "devdoc": {
    "kind": "dev",
    "methods": {},
    "version": 1
  },
  "userdoc": {
    "kind": "user",
    "methods": {},
    "version": 1
  }
}