{
  "contractName": "Mixer",
  "abi": [
    {
      "inputs": [
        {
          "internalType": "address",
          "name": "r_addr",
          "type": "address"
        },
        {
          "internalType": "address",
          "name": "pp_addr",
          "type": "address"
        },
        {
          "internalType": "address",
          "name": "dp_addr",
          "type": "address"
        },
        {
          "internalType": "address",
          "name": "wd_addr",
          "type": "address"
        },
        {
          "internalType": "address",
          "name": "sp_addr",
          "type": "address"
        }
      ],
      "stateMutability": "nonpayable",
      "type": "constructor"
    },
    {
      "inputs": [
        {
          "components": [
            {
              "components": [
                {
                  "components": [
                    {
                      "internalType": "uint256",
                      "name": "X",
                      "type": "uint256"
                    },
                    {
                      "internalType": "uint256",
                      "name": "Y",
                      "type": "uint256"
                    }
                  ],
                  "internalType": "struct alt_bn128.G1Point",
                  "name": "pk",
                  "type": "tuple"
                },
                {
                  "components": [
                    {
                      "internalType": "uint256",
                      "name": "X",
                      "type": "uint256"
                    },
                    {
                      "internalType": "uint256",
                      "name": "Y",
                      "type": "uint256"
                    }
                  ],
                  "internalType": "struct alt_bn128.G1Point",
                  "name": "tcom",
                  "type": "tuple"
                },
                {
                  "components": [
                    {
                      "internalType": "uint256",
                      "name": "X",
                      "type": "uint256"
                    },
                    {
                      "internalType": "uint256",
                      "name": "Y",
                      "type": "uint256"
                    }
                  ],
                  "internalType": "struct alt_bn128.G1Point",
                  "name": "ocom",
                  "type": "tuple"
                }
              ],
              "internalType": "struct PubParam.Acc",
              "name": "s",
              "type": "tuple"
            },
            {
              "internalType": "uint256[]",
              "name": "attrS",
              "type": "uint256[]"
            }
          ],
          "internalType": "struct SoKdp.TX",
          "name": "tx_dp",
          "type": "tuple"
        },
        {
          "internalType": "uint256[3]",
          "name": "wit",
          "type": "uint256[3]"
        }
      ],
      "name": "deposit",
      "outputs": [
        {
          "components": [
            {
              "components": [
                {
                  "components": [
                    {
                      "internalType": "uint256",
                      "name": "X",
                      "type": "uint256"
                    },
                    {
                      "internalType": "uint256",
                      "name": "Y",
                      "type": "uint256"
                    }
                  ],
                  "internalType": "struct alt_bn128.G1Point",
                  "name": "c",
                  "type": "tuple"
                },
                {
                  "internalType": "uint256[]",
                  "name": "zs",
                  "type": "uint256[]"
                }
              ],
              "internalType": "struct PartialEquality.Sig",
              "name": "pe_sig",
              "type": "tuple"
            }
          ],
          "internalType": "struct SoKdp.Sig",
          "name": "sig",
          "type": "tuple"
        }
      ],
      "stateMutability": "nonpayable",
      "type": "function"
    },
    {
      "inputs": [
        {
          "components": [
            {
              "components": [
                {
                  "components": [
                    {
                      "internalType": "uint256",
                      "name": "X",
                      "type": "uint256"
                    },
                    {
                      "internalType": "uint256",
                      "name": "Y",
                      "type": "uint256"
                    }
                  ],
                  "internalType": "struct alt_bn128.G1Point",
                  "name": "pk",
                  "type": "tuple"
                },
                {
                  "components": [
                    {
                      "internalType": "uint256",
                      "name": "X",
                      "type": "uint256"
                    },
                    {
                      "internalType": "uint256",
                      "name": "Y",
                      "type": "uint256"
                    }
                  ],
                  "internalType": "struct alt_bn128.G1Point",
                  "name": "tcom",
                  "type": "tuple"
                },
                {
                  "components": [
                    {
                      "internalType": "uint256",
                      "name": "X",
                      "type": "uint256"
                    },
                    {
                      "internalType": "uint256",
                      "name": "Y",
                      "type": "uint256"
                    }
                  ],
                  "internalType": "struct alt_bn128.G1Point",
                  "name": "ocom",
                  "type": "tuple"
                }
              ],
              "internalType": "struct PubParam.Acc",
              "name": "s",
              "type": "tuple"
            },
            {
              "internalType": "uint256[]",
              "name": "attrS",
              "type": "uint256[]"
            }
          ],
          "internalType": "struct SoKdp.TX",
          "name": "tx_dp",
          "type": "tuple"
        },
        {
          "components": [
            {
              "components": [
                {
                  "components": [
                    {
                      "internalType": "uint256",
                      "name": "X",
                      "type": "uint256"
                    },
                    {
                      "internalType": "uint256",
                      "name": "Y",
                      "type": "uint256"
                    }
                  ],
                  "internalType": "struct alt_bn128.G1Point",
                  "name": "c",
                  "type": "tuple"
                },
                {
                  "internalType": "uint256[]",
                  "name": "zs",
                  "type": "uint256[]"
                }
              ],
              "internalType": "struct PartialEquality.Sig",
              "name": "pe_sig",
              "type": "tuple"
            }
          ],
          "internalType": "struct SoKdp.Sig",
          "name": "sig",
          "type": "tuple"
        }
      ],
      "name": "process_dp",
      "outputs": [
        {
          "internalType": "bool",
          "name": "",
          "type": "bool"
        }
      ],
      "stateMutability": "nonpayable",
      "type": "function"
    },
    {
      "inputs": [
        {
          "components": [
            {
              "components": [
                {
                  "internalType": "uint256",
                  "name": "X",
                  "type": "uint256"
                },
                {
                  "internalType": "uint256",
                  "name": "Y",
                  "type": "uint256"
                }
              ],
              "internalType": "struct alt_bn128.G1Point[]",
              "name": "R",
              "type": "tuple[]"
            },
            {
              "components": [
                {
                  "internalType": "uint256",
                  "name": "X",
                  "type": "uint256"
                },
                {
                  "internalType": "uint256",
                  "name": "Y",
                  "type": "uint256"
                }
              ],
              "internalType": "struct alt_bn128.G1Point",
              "name": "tag",
              "type": "tuple"
            },
            {
              "internalType": "uint256[]",
              "name": "attrS",
              "type": "uint256[]"
            },
            {
              "internalType": "address",
              "name": "u_rcpt",
              "type": "address"
            }
          ],
          "internalType": "struct SoKwd.TX",
          "name": "tx_wd",
          "type": "tuple"
        },
        {
          "internalType": "uint256[4]",
          "name": "wit",
          "type": "uint256[4]"
        }
      ],
      "name": "withdraw",
      "outputs": [
        {
          "components": [
            {
              "components": [
                {
                  "internalType": "uint256",
                  "name": "X",
                  "type": "uint256"
                },
                {
                  "internalType": "uint256",
                  "name": "Y",
                  "type": "uint256"
                }
              ],
              "internalType": "struct alt_bn128.G1Point",
              "name": "acc_d",
              "type": "tuple"
            },
            {
              "components": [
                {
                  "internalType": "uint256",
                  "name": "z",
                  "type": "uint256"
                },
                {
                  "components": [
                    {
                      "internalType": "uint256",
                      "name": "X",
                      "type": "uint256"
                    },
                    {
                      "internalType": "uint256",
                      "name": "Y",
                      "type": "uint256"
                    }
                  ],
                  "internalType": "struct alt_bn128.G1Point",
                  "name": "R",
                  "type": "tuple"
                },
                {
                  "components": [
                    {
                      "components": [
                        {
                          "internalType": "uint256",
                          "name": "X",
                          "type": "uint256"
                        },
                        {
                          "internalType": "uint256",
                          "name": "Y",
                          "type": "uint256"
                        }
                      ],
                      "internalType": "struct alt_bn128.G1Point[]",
                      "name": "Ls",
                      "type": "tuple[]"
                    },
                    {
                      "components": [
                        {
                          "internalType": "uint256",
                          "name": "X",
                          "type": "uint256"
                        },
                        {
                          "internalType": "uint256",
                          "name": "Y",
                          "type": "uint256"
                        }
                      ],
                      "internalType": "struct alt_bn128.G1Point[]",
                      "name": "Rs",
                      "type": "tuple[]"
                    },
                    {
                      "internalType": "uint256",
                      "name": "a",
                      "type": "uint256"
                    },
                    {
                      "internalType": "uint256",
                      "name": "b",
                      "type": "uint256"
                    }
                  ],
                  "internalType": "struct NISA.Sig",
                  "name": "nisa_sig",
                  "type": "tuple"
                }
              ],
              "internalType": "struct DualRingEC.SigEC",
              "name": "dr_sig",
              "type": "tuple"
            },
            {
              "components": [
                {
                  "components": [
                    {
                      "internalType": "uint256",
                      "name": "X",
                      "type": "uint256"
                    },
                    {
                      "internalType": "uint256",
                      "name": "Y",
                      "type": "uint256"
                    }
                  ],
                  "internalType": "struct alt_bn128.G1Point",
                  "name": "cx",
                  "type": "tuple"
                },
                {
                  "components": [
                    {
                      "internalType": "uint256",
                      "name": "X",
                      "type": "uint256"
                    },
                    {
                      "internalType": "uint256",
                      "name": "Y",
                      "type": "uint256"
                    }
                  ],
                  "internalType": "struct alt_bn128.G1Point",
                  "name": "cy",
                  "type": "tuple"
                },
                {
                  "internalType": "uint256[]",
                  "name": "zs",
                  "type": "uint256[]"
                }
              ],
              "internalType": "struct DiffGenEqual.Sig",
              "name": "dg_sig",
              "type": "tuple"
            },
            {
              "components": [
                {
                  "components": [
                    {
                      "internalType": "uint256",
                      "name": "X",
                      "type": "uint256"
                    },
                    {
                      "internalType": "uint256",
                      "name": "Y",
                      "type": "uint256"
                    }
                  ],
                  "internalType": "struct alt_bn128.G1Point",
                  "name": "c",
                  "type": "tuple"
                },
                {
                  "internalType": "uint256[]",
                  "name": "zs",
                  "type": "uint256[]"
                }
              ],
              "internalType": "struct PartialEquality.Sig",
              "name": "pe_sig",
              "type": "tuple"
            }
          ],
          "internalType": "struct SoKwd.Sig",
          "name": "",
          "type": "tuple"
        }
      ],
      "stateMutability": "view",
      "type": "function"
    },
    {
      "inputs": [
        {
          "components": [
            {
              "components": [
                {
                  "internalType": "uint256",
                  "name": "X",
                  "type": "uint256"
                },
                {
                  "internalType": "uint256",
                  "name": "Y",
                  "type": "uint256"
                }
              ],
              "internalType": "struct alt_bn128.G1Point[]",
              "name": "R",
              "type": "tuple[]"
            },
            {
              "components": [
                {
                  "internalType": "uint256",
                  "name": "X",
                  "type": "uint256"
                },
                {
                  "internalType": "uint256",
                  "name": "Y",
                  "type": "uint256"
                }
              ],
              "internalType": "struct alt_bn128.G1Point",
              "name": "tag",
              "type": "tuple"
            },
            {
              "internalType": "uint256[]",
              "name": "attrS",
              "type": "uint256[]"
            },
            {
              "internalType": "address",
              "name": "u_rcpt",
              "type": "address"
            }
          ],
          "internalType": "struct SoKwd.TX",
          "name": "tx_wd",
          "type": "tuple"
        },
        {
          "components": [
            {
              "components": [
                {
                  "internalType": "uint256",
                  "name": "X",
                  "type": "uint256"
                },
                {
                  "internalType": "uint256",
                  "name": "Y",
                  "type": "uint256"
                }
              ],
              "internalType": "struct alt_bn128.G1Point",
              "name": "acc_d",
              "type": "tuple"
            },
            {
              "components": [
                {
                  "internalType": "uint256",
                  "name": "z",
                  "type": "uint256"
                },
                {
                  "components": [
                    {
                      "internalType": "uint256",
                      "name": "X",
                      "type": "uint256"
                    },
                    {
                      "internalType": "uint256",
                      "name": "Y",
                      "type": "uint256"
                    }
                  ],
                  "internalType": "struct alt_bn128.G1Point",
                  "name": "R",
                  "type": "tuple"
                },
                {
                  "components": [
                    {
                      "components": [
                        {
                          "internalType": "uint256",
                          "name": "X",
                          "type": "uint256"
                        },
                        {
                          "internalType": "uint256",
                          "name": "Y",
                          "type": "uint256"
                        }
                      ],
                      "internalType": "struct alt_bn128.G1Point[]",
                      "name": "Ls",
                      "type": "tuple[]"
                    },
                    {
                      "components": [
                        {
                          "internalType": "uint256",
                          "name": "X",
                          "type": "uint256"
                        },
                        {
                          "internalType": "uint256",
                          "name": "Y",
                          "type": "uint256"
                        }
                      ],
                      "internalType": "struct alt_bn128.G1Point[]",
                      "name": "Rs",
                      "type": "tuple[]"
                    },
                    {
                      "internalType": "uint256",
                      "name": "a",
                      "type": "uint256"
                    },
                    {
                      "internalType": "uint256",
                      "name": "b",
                      "type": "uint256"
                    }
                  ],
                  "internalType": "struct NISA.Sig",
                  "name": "nisa_sig",
                  "type": "tuple"
                }
              ],
              "internalType": "struct DualRingEC.SigEC",
              "name": "dr_sig",
              "type": "tuple"
            },
            {
              "components": [
                {
                  "components": [
                    {
                      "internalType": "uint256",
                      "name": "X",
                      "type": "uint256"
                    },
                    {
                      "internalType": "uint256",
                      "name": "Y",
                      "type": "uint256"
                    }
                  ],
                  "internalType": "struct alt_bn128.G1Point",
                  "name": "cx",
                  "type": "tuple"
                },
                {
                  "components": [
                    {
                      "internalType": "uint256",
                      "name": "X",
                      "type": "uint256"
                    },
                    {
                      "internalType": "uint256",
                      "name": "Y",
                      "type": "uint256"
                    }
                  ],
                  "internalType": "struct alt_bn128.G1Point",
                  "name": "cy",
                  "type": "tuple"
                },
                {
                  "internalType": "uint256[]",
                  "name": "zs",
                  "type": "uint256[]"
                }
              ],
              "internalType": "struct DiffGenEqual.Sig",
              "name": "dg_sig",
              "type": "tuple"
            },
            {
              "components": [
                {
                  "components": [
                    {
                      "internalType": "uint256",
                      "name": "X",
                      "type": "uint256"
                    },
                    {
                      "internalType": "uint256",
                      "name": "Y",
                      "type": "uint256"
                    }
                  ],
                  "internalType": "struct alt_bn128.G1Point",
                  "name": "c",
                  "type": "tuple"
                },
                {
                  "internalType": "uint256[]",
                  "name": "zs",
                  "type": "uint256[]"
                }
              ],
              "internalType": "struct PartialEquality.Sig",
              "name": "pe_sig",
              "type": "tuple"
            }
          ],
          "internalType": "struct SoKwd.Sig",
          "name": "sig",
          "type": "tuple"
        }
      ],
      "name": "process_wd",
      "outputs": [
        {
          "internalType": "bool",
          "name": "",
          "type": "bool"
        }
      ],
      "stateMutability": "nonpayable",
      "type": "function"
    },
    {
      "inputs": [
        {
          "components": [
            {
              "components": [
                {
                  "internalType": "uint256",
                  "name": "X",
                  "type": "uint256"
                },
                {
                  "internalType": "uint256",
                  "name": "Y",
                  "type": "uint256"
                }
              ],
              "internalType": "struct alt_bn128.G1Point[]",
              "name": "R",
              "type": "tuple[]"
            },
            {
              "components": [
                {
                  "internalType": "uint256",
                  "name": "X",
                  "type": "uint256"
                },
                {
                  "internalType": "uint256",
                  "name": "Y",
                  "type": "uint256"
                }
              ],
              "internalType": "struct alt_bn128.G1Point",
              "name": "tagS",
              "type": "tuple"
            },
            {
              "internalType": "uint256[3]",
              "name": "attrS",
              "type": "uint256[3]"
            },
            {
              "components": [
                {
                  "internalType": "uint256",
                  "name": "X",
                  "type": "uint256"
                },
                {
                  "internalType": "uint256",
                  "name": "Y",
                  "type": "uint256"
                }
              ],
              "internalType": "struct alt_bn128.G1Point",
              "name": "pk_T",
              "type": "tuple"
            },
            {
              "components": [
                {
                  "internalType": "uint256",
                  "name": "X",
                  "type": "uint256"
                },
                {
                  "internalType": "uint256",
                  "name": "Y",
                  "type": "uint256"
                }
              ],
              "internalType": "struct alt_bn128.G1Point[]",
              "name": "tcom_T",
              "type": "tuple[]"
            },
            {
              "components": [
                {
                  "internalType": "uint256",
                  "name": "X",
                  "type": "uint256"
                },
                {
                  "internalType": "uint256",
                  "name": "Y",
                  "type": "uint256"
                }
              ],
              "internalType": "struct alt_bn128.G1Point[]",
              "name": "ocom_T",
              "type": "tuple[]"
            }
          ],
          "internalType": "struct SoKsp.TX",
          "name": "tx_sp",
          "type": "tuple"
        },
        {
          "components": [
            {
              "internalType": "uint256",
              "name": "theta",
              "type": "uint256"
            },
            {
              "internalType": "uint256[]",
              "name": "attrS",
              "type": "uint256[]"
            },
            {
              "internalType": "uint256",
              "name": "sk_T",
              "type": "uint256"
            },
            {
              "internalType": "uint256[4][]",
              "name": "attrTs",
              "type": "uint256[4][]"
            }
          ],
          "internalType": "struct SoKsp.Wit",
          "name": "wit",
          "type": "tuple"
        }
      ],
      "name": "spend",
      "outputs": [
        {
          "components": [
            {
              "components": [
                {
                  "internalType": "uint256",
                  "name": "X",
                  "type": "uint256"
                },
                {
                  "internalType": "uint256",
                  "name": "Y",
                  "type": "uint256"
                }
              ],
              "internalType": "struct alt_bn128.G1Point",
              "name": "acc_d",
              "type": "tuple"
            },
            {
              "components": [
                {
                  "internalType": "uint256",
                  "name": "z",
                  "type": "uint256"
                },
                {
                  "components": [
                    {
                      "internalType": "uint256",
                      "name": "X",
                      "type": "uint256"
                    },
                    {
                      "internalType": "uint256",
                      "name": "Y",
                      "type": "uint256"
                    }
                  ],
                  "internalType": "struct alt_bn128.G1Point",
                  "name": "R",
                  "type": "tuple"
                },
                {
                  "components": [
                    {
                      "components": [
                        {
                          "internalType": "uint256",
                          "name": "X",
                          "type": "uint256"
                        },
                        {
                          "internalType": "uint256",
                          "name": "Y",
                          "type": "uint256"
                        }
                      ],
                      "internalType": "struct alt_bn128.G1Point[]",
                      "name": "Ls",
                      "type": "tuple[]"
                    },
                    {
                      "components": [
                        {
                          "internalType": "uint256",
                          "name": "X",
                          "type": "uint256"
                        },
                        {
                          "internalType": "uint256",
                          "name": "Y",
                          "type": "uint256"
                        }
                      ],
                      "internalType": "struct alt_bn128.G1Point[]",
                      "name": "Rs",
                      "type": "tuple[]"
                    },
                    {
                      "internalType": "uint256",
                      "name": "a",
                      "type": "uint256"
                    },
                    {
                      "internalType": "uint256",
                      "name": "b",
                      "type": "uint256"
                    }
                  ],
                  "internalType": "struct NISA.Sig",
                  "name": "nisa_sig",
                  "type": "tuple"
                }
              ],
              "internalType": "struct DualRingEC.SigEC",
              "name": "dr_sig",
              "type": "tuple"
            },
            {
              "components": [
                {
                  "components": [
                    {
                      "internalType": "uint256",
                      "name": "X",
                      "type": "uint256"
                    },
                    {
                      "internalType": "uint256",
                      "name": "Y",
                      "type": "uint256"
                    }
                  ],
                  "internalType": "struct alt_bn128.G1Point",
                  "name": "cx",
                  "type": "tuple"
                },
                {
                  "components": [
                    {
                      "internalType": "uint256",
                      "name": "X",
                      "type": "uint256"
                    },
                    {
                      "internalType": "uint256",
                      "name": "Y",
                      "type": "uint256"
                    }
                  ],
                  "internalType": "struct alt_bn128.G1Point",
                  "name": "cy",
                  "type": "tuple"
                },
                {
                  "internalType": "uint256[]",
                  "name": "zs",
                  "type": "uint256[]"
                }
              ],
              "internalType": "struct DiffGenEqual.Sig",
              "name": "dg_tag_sig",
              "type": "tuple"
            },
            {
              "components": [
                {
                  "components": [
                    {
                      "internalType": "uint256",
                      "name": "X",
                      "type": "uint256"
                    },
                    {
                      "internalType": "uint256",
                      "name": "Y",
                      "type": "uint256"
                    }
                  ],
                  "internalType": "struct alt_bn128.G1Point",
                  "name": "c",
                  "type": "tuple"
                },
                {
                  "internalType": "uint256[]",
                  "name": "zs",
                  "type": "uint256[]"
                }
              ],
              "internalType": "struct PartialEquality.Sig",
              "name": "pe_opn_sig",
              "type": "tuple"
            },
            {
              "components": [
                {
                  "components": [
                    {
                      "internalType": "uint256",
                      "name": "X",
                      "type": "uint256"
                    },
                    {
                      "internalType": "uint256",
                      "name": "Y",
                      "type": "uint256"
                    }
                  ],
                  "internalType": "struct alt_bn128.G1Point",
                  "name": "c",
                  "type": "tuple"
                },
                {
                  "internalType": "uint256[]",
                  "name": "zs",
                  "type": "uint256[]"
                }
              ],
              "internalType": "struct PartialEquality.Sig[]",
              "name": "pe_ty_sig",
              "type": "tuple[]"
            },
            {
              "components": [
                {
                  "components": [
                    {
                      "internalType": "uint256",
                      "name": "X",
                      "type": "uint256"
                    },
                    {
                      "internalType": "uint256",
                      "name": "Y",
                      "type": "uint256"
                    }
                  ],
                  "internalType": "struct alt_bn128.G1Point",
                  "name": "cx",
                  "type": "tuple"
                },
                {
                  "components": [
                    {
                      "internalType": "uint256",
                      "name": "X",
                      "type": "uint256"
                    },
                    {
                      "internalType": "uint256",
                      "name": "Y",
                      "type": "uint256"
                    }
                  ],
                  "internalType": "struct alt_bn128.G1Point",
                  "name": "cy",
                  "type": "tuple"
                },
                {
                  "internalType": "uint256[]",
                  "name": "zs",
                  "type": "uint256[]"
                }
              ],
              "internalType": "struct DiffGenEqual.Sig[]",
              "name": "dg_sk_sig",
              "type": "tuple[]"
            }
          ],
          "internalType": "struct SoKsp.Sig",
          "name": "",
          "type": "tuple"
        }
      ],
      "stateMutability": "view",
      "type": "function"
    },
    {
      "inputs": [
        {
          "components": [
            {
              "components": [
                {
                  "internalType": "uint256",
                  "name": "X",
                  "type": "uint256"
                },
                {
                  "internalType": "uint256",
                  "name": "Y",
                  "type": "uint256"
                }
              ],
              "internalType": "struct alt_bn128.G1Point[]",
              "name": "R",
              "type": "tuple[]"
            },
            {
              "components": [
                {
                  "internalType": "uint256",
                  "name": "X",
                  "type": "uint256"
                },
                {
                  "internalType": "uint256",
                  "name": "Y",
                  "type": "uint256"
                }
              ],
              "internalType": "struct alt_bn128.G1Point",
              "name": "tagS",
              "type": "tuple"
            },
            {
              "internalType": "uint256[3]",
              "name": "attrS",
              "type": "uint256[3]"
            },
            {
              "components": [
                {
                  "internalType": "uint256",
                  "name": "X",
                  "type": "uint256"
                },
                {
                  "internalType": "uint256",
                  "name": "Y",
                  "type": "uint256"
                }
              ],
              "internalType": "struct alt_bn128.G1Point",
              "name": "pk_T",
              "type": "tuple"
            },
            {
              "components": [
                {
                  "internalType": "uint256",
                  "name": "X",
                  "type": "uint256"
                },
                {
                  "internalType": "uint256",
                  "name": "Y",
                  "type": "uint256"
                }
              ],
              "internalType": "struct alt_bn128.G1Point[]",
              "name": "tcom_T",
              "type": "tuple[]"
            },
            {
              "components": [
                {
                  "internalType": "uint256",
                  "name": "X",
                  "type": "uint256"
                },
                {
                  "internalType": "uint256",
                  "name": "Y",
                  "type": "uint256"
                }
              ],
              "internalType": "struct alt_bn128.G1Point[]",
              "name": "ocom_T",
              "type": "tuple[]"
            }
          ],
          "internalType": "struct SoKsp.TX",
          "name": "tx_sp",
          "type": "tuple"
        },
        {
          "components": [
            {
              "components": [
                {
                  "internalType": "uint256",
                  "name": "X",
                  "type": "uint256"
                },
                {
                  "internalType": "uint256",
                  "name": "Y",
                  "type": "uint256"
                }
              ],
              "internalType": "struct alt_bn128.G1Point",
              "name": "acc_d",
              "type": "tuple"
            },
            {
              "components": [
                {
                  "internalType": "uint256",
                  "name": "z",
                  "type": "uint256"
                },
                {
                  "components": [
                    {
                      "internalType": "uint256",
                      "name": "X",
                      "type": "uint256"
                    },
                    {
                      "internalType": "uint256",
                      "name": "Y",
                      "type": "uint256"
                    }
                  ],
                  "internalType": "struct alt_bn128.G1Point",
                  "name": "R",
                  "type": "tuple"
                },
                {
                  "components": [
                    {
                      "components": [
                        {
                          "internalType": "uint256",
                          "name": "X",
                          "type": "uint256"
                        },
                        {
                          "internalType": "uint256",
                          "name": "Y",
                          "type": "uint256"
                        }
                      ],
                      "internalType": "struct alt_bn128.G1Point[]",
                      "name": "Ls",
                      "type": "tuple[]"
                    },
                    {
                      "components": [
                        {
                          "internalType": "uint256",
                          "name": "X",
                          "type": "uint256"
                        },
                        {
                          "internalType": "uint256",
                          "name": "Y",
                          "type": "uint256"
                        }
                      ],
                      "internalType": "struct alt_bn128.G1Point[]",
                      "name": "Rs",
                      "type": "tuple[]"
                    },
                    {
                      "internalType": "uint256",
                      "name": "a",
                      "type": "uint256"
                    },
                    {
                      "internalType": "uint256",
                      "name": "b",
                      "type": "uint256"
                    }
                  ],
                  "internalType": "struct NISA.Sig",
                  "name": "nisa_sig",
                  "type": "tuple"
                }
              ],
              "internalType": "struct DualRingEC.SigEC",
              "name": "dr_sig",
              "type": "tuple"
            },
            {
              "components": [
                {
                  "components": [
                    {
                      "internalType": "uint256",
                      "name": "X",
                      "type": "uint256"
                    },
                    {
                      "internalType": "uint256",
                      "name": "Y",
                      "type": "uint256"
                    }
                  ],
                  "internalType": "struct alt_bn128.G1Point",
                  "name": "cx",
                  "type": "tuple"
                },
                {
                  "components": [
                    {
                      "internalType": "uint256",
                      "name": "X",
                      "type": "uint256"
                    },
                    {
                      "internalType": "uint256",
                      "name": "Y",
                      "type": "uint256"
                    }
                  ],
                  "internalType": "struct alt_bn128.G1Point",
                  "name": "cy",
                  "type": "tuple"
                },
                {
                  "internalType": "uint256[]",
                  "name": "zs",
                  "type": "uint256[]"
                }
              ],
              "internalType": "struct DiffGenEqual.Sig",
              "name": "dg_tag_sig",
              "type": "tuple"
            },
            {
              "components": [
                {
                  "components": [
                    {
                      "internalType": "uint256",
                      "name": "X",
                      "type": "uint256"
                    },
                    {
                      "internalType": "uint256",
                      "name": "Y",
                      "type": "uint256"
                    }
                  ],
                  "internalType": "struct alt_bn128.G1Point",
                  "name": "c",
                  "type": "tuple"
                },
                {
                  "internalType": "uint256[]",
                  "name": "zs",
                  "type": "uint256[]"
                }
              ],
              "internalType": "struct PartialEquality.Sig",
              "name": "pe_opn_sig",
              "type": "tuple"
            },
            {
              "components": [
                {
                  "components": [
                    {
                      "internalType": "uint256",
                      "name": "X",
                      "type": "uint256"
                    },
                    {
                      "internalType": "uint256",
                      "name": "Y",
                      "type": "uint256"
                    }
                  ],
                  "internalType": "struct alt_bn128.G1Point",
                  "name": "c",
                  "type": "tuple"
                },
                {
                  "internalType": "uint256[]",
                  "name": "zs",
                  "type": "uint256[]"
                }
              ],
              "internalType": "struct PartialEquality.Sig[]",
              "name": "pe_ty_sig",
              "type": "tuple[]"
            },
            {
              "components": [
                {
                  "components": [
                    {
                      "internalType": "uint256",
                      "name": "X",
                      "type": "uint256"
                    },
                    {
                      "internalType": "uint256",
                      "name": "Y",
                      "type": "uint256"
                    }
                  ],
                  "internalType": "struct alt_bn128.G1Point",
                  "name": "cx",
                  "type": "tuple"
                },
                {
                  "components": [
                    {
                      "internalType": "uint256",
                      "name": "X",
                      "type": "uint256"
                    },
                    {
                      "internalType": "uint256",
                      "name": "Y",
                      "type": "uint256"
                    }
                  ],
                  "internalType": "struct alt_bn128.G1Point",
                  "name": "cy",
                  "type": "tuple"
                },
                {
                  "internalType": "uint256[]",
                  "name": "zs",
                  "type": "uint256[]"
                }
              ],
              "internalType": "struct DiffGenEqual.Sig[]",
              "name": "dg_sk_sig",
              "type": "tuple[]"
            }
          ],
          "internalType": "struct SoKsp.Sig",
          "name": "sig",
          "type": "tuple"
        }
      ],
      "name": "process_sp",
      "outputs": [
        {
          "internalType": "bool",
          "name": "",
          "type": "bool"
        }
      ],
      "stateMutability": "nonpayable",
      "type": "function"
    }
  ],
  "bytecode": "0x60806040523480156200001157600080fd5b5060405162002a7f38038062002a7f8339810160408190526200003491620000b4565b600380546001600160a01b03199081166001600160a01b0397881617909155600480548216958716959095179094556005805485169386169390931790925560068054841691851691909117905560078054909216921691909117905562000124565b80516001600160a01b0381168114620000af57600080fd5b919050565b600080600080600060a08688031215620000cd57600080fd5b620000d88662000097565b9450620000e86020870162000097565b9350620000f86040870162000097565b9250620001086060870162000097565b9150620001186080870162000097565b90509295509295909350565b61294b80620001346000396000f3fe608060405234801561001057600080fd5b50600436106100625760003560e01c806345afe86c14610067578063a767730a1461008f578063b7d60449146100af578063dc519658146100c2578063e7824692146100d5578063fb965dc1146100f5575b600080fd5b61007a610075366004611643565b610115565b60405190151581526020015b60405180910390f35b6100a261009d36600461184e565b6104bc565b6040516100869190611a5a565b61007a6100bd366004611aec565b610542565b61007a6100d0366004611b7f565b6108c3565b6100e86100e3366004611c6c565b610bd1565b6040516100869190611ec0565b610108610103366004611ed3565b610c50565b6040516100869190611f18565b60408201516020015160009042908290821080159061013a5750604085810151015182105b9050806101895760405162461bcd60e51b8152602060048201526018602482015277696e76616c6964207472616e73616374696f6e2074696d6560401b60448201526064015b60405180910390fd5b60006102046001805480602002602001604051908101604052809291908181526020016000905b828210156101f6578382906000526020600020906002020160405180604001604052908160008201548152602001600182015481525050815260200190600101906101b0565b505050508760600151610e5a565b15905060006102826002805480602002602001604051908101604052809291908181526020016000905b828210156102745783829060005260206000209060020201604051806040016040529081600082015481526020016001820154815250508152602001906001019061022e565b505050508860200151610e5a565b60075460405163812e462360e01b8152911592506000916001600160a01b039091169063812e4623906102bb908b908b90600401611ff7565b602060405180830381865afa1580156102d8573d6000803e3d6000fd5b505050506040513d601f19601f820116820180604052508101906102fc919061201c565b90508061033a5760405162461bcd60e51b815260206004820152600c60248201526b14dbd2dcdc0819985a5b195960a21b6044820152606401610180565b8380156103445750825b801561034d5750815b80156103565750805b156104ac57602080890151600280546001818101835560008381528451928402600080516020612856833981519152810193909355938501516000805160206128768339815191529092019190915560608c01518154808301835591909352825191026000805160206128d68339815191528101919091559101516000805160206128f6833981519152909101556103ec610f1e565b60005b8960a001515181101561049c576104498a60a00151828151811061041557610415611f33565b60200260200101518b60800151838151811061043357610433611f33565b6020026020010151610eb590919063ffffffff16565b60008054600181018255908052815160008051602061289683398151915260029092029182015560208201516000805160206128b6833981519152909101559150806104948161203e565b9150506103ef565b50600196505050505050506104b6565b6000955050505050505b92915050565b6104c4610f38565b60065460405163a2b4c3a560e01b81526001600160a01b039091169063a2b4c3a5906104f690869086906004016120eb565b600060405180830381865afa158015610513573d6000803e3d6000fd5b505050506040513d6000823e601f3d908101601f1916820160405261053b9190810190612375565b9392505050565b600080429050600081856020015160028151811061056257610562611f33565b6020026020010151111580156105955750846020015160038151811061058a5761058a611f33565b602002602001015182105b905060006106126001805480602002602001604051908101604052809291908181526020016000905b82821015610604578382906000526020600020906002020160405180604001604052908160008201548152602001600182015481525050815260200190600101906105be565b50508951519150610e5a9050565b600554604051631a3cfdbd60e11b8152911592506000916001600160a01b0390911690633479fb7a9061064b908a908a90600401612488565b602060405180830381865afa158015610668573d6000803e3d6000fd5b505050506040513d601f19601f8201168201806040525081019061068c919061201c565b9050806106ca5760405162461bcd60e51b815260206004820152600c60248201526b14dbd2d91c0819985a5b195960a21b6044820152606401610180565b8280156106d45750815b80156106dd5750805b156108b657865160408101516020909101516000916106fc9190610eb5565b6000805460018181018355828052835160029283026000805160206128968339815191528101919091556020808601516000805160206128b6833981519152909201919091558c5151825480840184559285528051929093026000805160206128d6833981519152810192909255918201516000805160206128f683398151915290910155600354908b0151805193945091926001600160a01b039091169163e4b50cb89184906107af576107af611f33565b60200260200101516040518263ffffffff1660e01b81526004016107d591815260200190565b602060405180830381865afa1580156107f2573d6000803e3d6000fd5b505050506040513d601f19601f8201168201806040525081019061081691906124c0565b9050806001600160a01b031663beabacc833308c6020015160018151811061084057610840611f33565b60200260200101516040518463ffffffff1660e01b8152600401610866939291906124dd565b6020604051808303816000875af1158015610885573d6000803e3d6000fd5b505050506040513d601f19601f820116820180604052508101906108a9919061201c565b96505050505050506104b6565b5060009695505050505050565b60008042905060008185604001516002815181106108e3576108e3611f33565b6020026020010151111580156109165750846040015160038151811061090b5761090b611f33565b602002602001015182105b6006546040516315b520b760e01b81529192506000916001600160a01b03909116906315b520b79061094e9089908990600401612501565b602060405180830381865afa15801561096b573d6000803e3d6000fd5b505050506040513d601f19601f8201168201806040525081019061098f919061201c565b9050806109cd5760405162461bcd60e51b815260206004820152600c60248201526b14dbd2ddd90819985a5b195960a21b6044820152606401610180565b6000610a39600280548060200260200160405190810160405280929190818152602001600090828210156102745783829060005260206000209060020201604051806040016040529081600082015481526020016001820154815250508152602001906001019061022e565b159050828015610a465750815b8015610a4f5750805b156108b657602080880151600280546001810182556000828152835191909202600080516020612856833981519152810191909155919092015160008051602061287683398151915290910155600354604089015180516001600160a01b039092169163e4b50cb891908490610ac757610ac7611f33565b60200260200101516040518263ffffffff1660e01b8152600401610aed91815260200190565b602060405180830381865afa158015610b0a573d6000803e3d6000fd5b505050506040513d601f19601f82011682018060405250810190610b2e91906124c0565b9050806001600160a01b031663beabacc8308a606001518b60400151600181518110610b5c57610b5c611f33565b60200260200101516040518463ffffffff1660e01b8152600401610b82939291906124dd565b6020604051808303816000875af1158015610ba1573d6000803e3d6000fd5b505050506040513d601f19601f82011682018060405250810190610bc5919061201c565b955050505050506104b6565b610bd9610f77565b600754604051630c87db6960e21b81526001600160a01b039091169063321f6da490610c0b9086908690600401612526565b600060405180830381865afa158015610c28573d6000803e3d6000fd5b505050506040513d6000823e601f3d908101601f1916820160405261053b91908101906126b9565b610c58610fc5565b600354602084015180516000926001600160a01b03169163e4b50cb8918490610c8357610c83611f33565b60200260200101516040518263ffffffff1660e01b8152600401610ca991815260200190565b602060405180830381865afa158015610cc6573d6000803e3d6000fd5b505050506040513d601f19601f82011682018060405250810190610cea91906124c0565b9050806001600160a01b031663095ea7b3308660200151600181518110610d1357610d13611f33565b60200260200101516040518363ffffffff1660e01b8152600401610d4c9291906001600160a01b03929092168252602082015260400190565b6020604051808303816000875af1158015610d6b573d6000803e3d6000fd5b505050506040513d601f19601f82011682018060405250810190610d8f919061201c565b610ddb5760405162461bcd60e51b815260206004820152601e60248201527f556e7375636365737366756c20617070726f7665206f7065726174696f6e00006044820152606401610180565b6005546040516314e46cbb60e31b81526001600160a01b039091169063a72365d890610e0d90879087906004016127c7565b600060405180830381865afa158015610e2a573d6000803e3d6000fd5b505050506040513d6000823e601f3d908101601f19168201604052610e5291908101906127e9565b949350505050565b6000805b8351811015610eab57610e8a848281518110610e7c57610e7c611f33565b602002602001015184610f01565b15610e995760019150506104b6565b80610ea38161203e565b915050610e5e565b5060009392505050565b610ebd610f1e565b610ec5610fd8565b83518152602080850151818301528351604080840191909152908401516060830152826080836006600019fa610efa57600080fd5b5092915050565b8051825160009114801561053b5750506020908101519101511490565b604051806040016040528060008152602001600081525090565b6040518060800160405280610f4b610f1e565b8152602001610f58610ff6565b8152602001610f65611040565b8152602001610f7261106d565b905290565b6040518060c00160405280610f8a610f1e565b8152602001610f97610ff6565b8152602001610fa4611040565b8152602001610fb161106d565b815260200160608152602001606081525090565b6040518060200160405280610f7261106d565b60405180608001604052806004906020820280368337509192915050565b604051806060016040528060008152602001611010610f1e565b8152602001610f726040518060800160405280606081526020016060815260200160008152602001600081525090565b6040518060600160405280611053610f1e565b8152602001611060610f1e565b8152602001606081525090565b6040518060400160405280611060610f1e565b634e487b7160e01b600052604160045260246000fd5b604080519081016001600160401b03811182821017156110b8576110b8611080565b60405290565b60405160c081016001600160401b03811182821017156110b8576110b8611080565b604051606081016001600160401b03811182821017156110b8576110b8611080565b604051608081016001600160401b03811182821017156110b8576110b8611080565b604051602081016001600160401b03811182821017156110b8576110b8611080565b604051601f8201601f191681016001600160401b038111828210171561116e5761116e611080565b604052919050565b60006001600160401b0382111561118f5761118f611080565b5060051b60200190565b6000604082840312156111ab57600080fd5b6111b3611096565b9050813581526020820135602082015292915050565b600082601f8301126111da57600080fd5b813560206111ef6111ea83611176565b611146565b82815260069290921b8401810191818101908684111561120e57600080fd5b8286015b84811015611232576112248882611199565b835291830191604001611212565b509695505050505050565b600082601f83011261124e57600080fd5b6112566110e0565b80606084018581111561126857600080fd5b845b8181101561128257803584526020938401930161126a565b509095945050505050565b600061014082840312156112a057600080fd5b6112a86110be565b905081356001600160401b03808211156112c157600080fd5b6112cd858386016111c9565b83526112dc8560208601611199565b60208401526112ee856060860161123d565b60408401526113008560c08601611199565b606084015261010084013591508082111561131a57600080fd5b611326858386016111c9565b608084015261012084013591508082111561134057600080fd5b5061134d848285016111c9565b60a08301525092915050565b60006080828403121561136b57600080fd5b6113736110e0565b9050813581526113868360208401611199565b602082015260608201356001600160401b03808211156113a557600080fd5b90830190608082860312156113b957600080fd5b6113c1611102565b8235828111156113d057600080fd5b6113dc878286016111c9565b8252506020830135828111156113f157600080fd5b6113fd878286016111c9565b602083015250604083013560408201526060830135606082015280604085015250505092915050565b600082601f83011261143757600080fd5b813560206114476111ea83611176565b82815260059290921b8401810191818101908684111561146657600080fd5b8286015b84811015611232578035835291830191830161146a565b600060a0828403121561149357600080fd5b61149b6110e0565b90506114a78383611199565b81526114b68360408401611199565b602082015260808201356001600160401b038111156114d457600080fd5b6114e084828501611426565b60408301525092915050565b6000606082840312156114fe57600080fd5b611506611096565b90506115128383611199565b815260408201356001600160401b0381111561152d57600080fd5b61153984828501611426565b60208301525092915050565b600082601f83011261155657600080fd5b813560206115666111ea83611176565b82815260059290921b8401810191818101908684111561158557600080fd5b8286015b848110156112325780356001600160401b038111156115a85760008081fd5b6115b68986838b01016114ec565b845250918301918301611589565b600082601f8301126115d557600080fd5b813560206115e56111ea83611176565b82815260059290921b8401810191818101908684111561160457600080fd5b8286015b848110156112325780356001600160401b038111156116275760008081fd5b6116358986838b0101611481565b845250918301918301611608565b6000806040838503121561165657600080fd5b82356001600160401b038082111561166d57600080fd5b6116798683870161128d565b9350602085013591508082111561168f57600080fd5b9084019060e082870312156116a357600080fd5b6116ab6110be565b6116b58784611199565b81526040830135828111156116c957600080fd5b6116d588828601611359565b6020830152506060830135828111156116ed57600080fd5b6116f988828601611481565b60408301525060808301358281111561171157600080fd5b61171d888286016114ec565b60608301525060a08301358281111561173557600080fd5b61174188828601611545565b60808301525060c08301358281111561175957600080fd5b611765888286016115c4565b60a0830152508093505050509250929050565b6001600160a01b038116811461178d57600080fd5b50565b600060a082840312156117a257600080fd5b6117aa611102565b905081356001600160401b03808211156117c357600080fd5b6117cf858386016111c9565b83526117de8560208601611199565b602084015260608401359150808211156117f757600080fd5b5061180484828501611426565b604083015250608082013561181881611778565b606082015292915050565b600082601f83011261183457600080fd5b61183c611102565b80608084018581111561126857600080fd5b60008060a0838503121561186157600080fd5b82356001600160401b0381111561187757600080fd5b61188385828601611790565b9250506118938460208501611823565b90509250929050565b80518252602090810151910152565b600081518084526020808501945080840160005b838110156118e5576118d287835161189c565b60409690960195908201906001016118bf565b509495945050505050565b8051825260006020820151611908602085018261189c565b50604082015160806060850152805160808086015261192b6101008601826118ab565b90506020820151607f198683030160a087015261194882826118ab565b604084015160c088015260609093015160e090960195909552509392505050565b600081518084526020808501945080840160005b838110156118e55781518752958201959082019060010161197d565b6119a482825161189c565b600060208201516119b8604085018261189c565b50604082015160a06080850152610e5260a0850182611969565b6119dd82825161189c565b6000602082015160606040850152610e526060850182611969565b611a0382825161189c565b6000602082015160a06040850152611a1e60a08501826118f0565b905060408301518482036060860152611a378282611999565b91505060608301518482036080860152611a5182826119d2565b95945050505050565b60208152600061053b60208301846119f8565b600081830360e0811215611a8057600080fd5b611a88611096565b915060c0811215611a9857600080fd5b50611aa16110e0565b611aab8484611199565b8152611aba8460408501611199565b6020820152611acc8460808501611199565b6040820152815260c08201356001600160401b0381111561152d57600080fd5b60008060408385031215611aff57600080fd5b82356001600160401b0380821115611b1657600080fd5b611b2286838701611a6d565b93506020850135915080821115611b3857600080fd5b9084019060208287031215611b4c57600080fd5b611b54611124565b823582811115611b6357600080fd5b611b6f888286016114ec565b8252508093505050509250929050565b60008060408385031215611b9257600080fd5b82356001600160401b0380821115611ba957600080fd5b611bb586838701611790565b93506020850135915080821115611bcb57600080fd5b9084019060a08287031215611bdf57600080fd5b611be7611102565b611bf18784611199565b8152604083013582811115611c0557600080fd5b611c1188828601611359565b602083015250606083013582811115611c2957600080fd5b611c3588828601611481565b604083015250608083013582811115611c4d57600080fd5b611c59888286016114ec565b6060830152508093505050509250929050565b60008060408385031215611c7f57600080fd5b82356001600160401b0380821115611c9657600080fd5b611ca28683870161128d565b9350602091508185013581811115611cb957600080fd5b85016080818803811315611ccc57600080fd5b611cd4611102565b823581528483013584811115611ce957600080fd5b611cf58a828601611426565b868301525060408301356040820152606083013584811115611d1657600080fd5b83019350601f84018913611d2957600080fd5b83359250611d396111ea84611176565b83815260079390931b8401850192858101908a851115611d5857600080fd5b948601945b84861015611d7e57611d6f8b87611823565b82529483019490860190611d5d565b60608301525095989597509495505050505050565b600081518084526020808501808196508360051b8101915082860160005b85811015611ddb578284038952611dc9848351611999565b98850198935090840190600101611db1565b5091979650505050505050565b611df382825161189c565b600060208083015160e06040860152611e0f60e08601826118f0565b905060408401518582036060870152611e288282611999565b91505060608401518582036080870152611e4282826119d2565b608086015187820360a089015280518083529193508401915083830190600581901b8401850160005b82811015611e9957601f19868303018452611e878286516119d2565b94870194938701939150600101611e6b565b5060a0880151955088810360c08a0152611eb38187611d93565b9998505050505050505050565b60208152600061053b6020830184611de8565b60008060808385031215611ee657600080fd5b82356001600160401b03811115611efc57600080fd5b611f0885828601611a6d565b925050611893846020850161123d565b6020815260008251602080840152610e5260408401826119d2565b634e487b7160e01b600052603260045260246000fd5b8060005b6003811015611f6c578151845260209384019390910190600101611f4d565b50505050565b60006101408251818552611f88828601826118ab565b9150506020830151611f9d602086018261189c565b506040830151611fb06060860182611f49565b506060830151611fc360c086018261189c565b506080830151848203610100860152611fdc82826118ab565b91505060a0830151848203610120860152611a5182826118ab565b60408152600061200a6040830185611f72565b8281036020840152611a518185611de8565b60006020828403121561202e57600080fd5b8151801515811461053b57600080fd5b60006001820161205e57634e487b7160e01b600052601160045260246000fd5b5060010190565b6000815160a0845261207a60a08501826118ab565b9050602083015161208e602086018261189c565b50604083015184820360608601526120a68282611969565b606094909401516001600160a01b031660809590950194909452509092915050565b8060005b6004811015611f6c5781518452602093840193909101906001016120cc565b60a0815260006120fe60a0830185612065565b905061053b60208301846120c8565b60006040828403121561211f57600080fd5b612127611096565b9050815181526020820151602082015292915050565b600082601f83011261214e57600080fd5b8151602061215e6111ea83611176565b82815260069290921b8401810191818101908684111561217d57600080fd5b8286015b8481101561123257612193888261210d565b835291830191604001612181565b6000608082840312156121b357600080fd5b6121bb6110e0565b9050815181526121ce836020840161210d565b602082015260608201516001600160401b03808211156121ed57600080fd5b908301906080828603121561220157600080fd5b612209611102565b82518281111561221857600080fd5b6122248782860161213d565b82525060208301518281111561223957600080fd5b6122458782860161213d565b602083015250604083015160408201526060830151606082015280604085015250505092915050565b600082601f83011261227f57600080fd5b8151602061228f6111ea83611176565b82815260059290921b840181019181810190868411156122ae57600080fd5b8286015b8481101561123257805183529183019183016122b2565b600060a082840312156122db57600080fd5b6122e36110e0565b90506122ef838361210d565b81526122fe836040840161210d565b602082015260808201516001600160401b0381111561231c57600080fd5b6114e08482850161226e565b60006060828403121561233a57600080fd5b612342611096565b905061234e838361210d565b815260408201516001600160401b0381111561236957600080fd5b6115398482850161226e565b60006020828403121561238757600080fd5b81516001600160401b038082111561239e57600080fd5b9083019060a082860312156123b257600080fd5b6123ba611102565b6123c4868461210d565b81526040830151828111156123d857600080fd5b6123e4878286016121a1565b6020830152506060830151828111156123fc57600080fd5b612408878286016122c9565b60408301525060808301518281111561242057600080fd5b61242c87828601612328565b60608301525095945050505050565b6000815161244a84825161189c565b602081015161245c604086018261189c565b506040015161246e608085018261189c565b50602082015160e060c0850152610e5260e0850182611969565b60408152600061249b604083018561243b565b82810360208401528351602082526124b660208301826119d2565b9695505050505050565b6000602082840312156124d257600080fd5b815161053b81611778565b6001600160a01b039384168152919092166020820152604081019190915260600190565b6040815260006125146040830185612065565b8281036020840152611a5181856119f8565b6040815260006125396040830185611f72565b60208382038185015260808551835281860151818385015261255d82850182611969565b604088810151908601526060808901518683039190960152845180825290840194840191506000905b808210156125ad576125998684516120c8565b948301949184019160019190910190612586565b509398975050505050505050565b600082601f8301126125cc57600080fd5b815160206125dc6111ea83611176565b82815260059290921b840181019181810190868411156125fb57600080fd5b8286015b848110156112325780516001600160401b0381111561261e5760008081fd5b61262c8986838b0101612328565b8452509183019183016125ff565b600082601f83011261264b57600080fd5b8151602061265b6111ea83611176565b82815260059290921b8401810191818101908684111561267a57600080fd5b8286015b848110156112325780516001600160401b0381111561269d5760008081fd5b6126ab8986838b01016122c9565b84525091830191830161267e565b6000602082840312156126cb57600080fd5b81516001600160401b03808211156126e257600080fd5b9083019060e082860312156126f657600080fd5b6126fe6110be565b612708868461210d565b815260408301518281111561271c57600080fd5b612728878286016121a1565b60208301525060608301518281111561274057600080fd5b61274c878286016122c9565b60408301525060808301518281111561276457600080fd5b61277087828601612328565b60608301525060a08301518281111561278857600080fd5b612794878286016125bb565b60808301525060c0830151828111156127ac57600080fd5b6127b88782860161263a565b60a08301525095945050505050565b6080815260006127da608083018561243b565b905061053b6020830184611f49565b6000602082840312156127fb57600080fd5b81516001600160401b038082111561281257600080fd5b908301906020828603121561282657600080fd5b61282e611124565b82518281111561283d57600080fd5b61284987828601612328565b8252509594505050505056fe405787fa12a823e0f2b7631cc41b3ba8828b3321ca811111fa75cd3aa3bb5ace405787fa12a823e0f2b7631cc41b3ba8828b3321ca811111fa75cd3aa3bb5acf290decd9548b62a8d60345a988386fc84ba6bc95484008f6362f93160ef3e563290decd9548b62a8d60345a988386fc84ba6bc95484008f6362f93160ef3e564b10e2d527612073b26eecdfd717e6a320cf44b4afac2b0732d9fcbe2b7fa0cf6b10e2d527612073b26eecdfd717e6a320cf44b4afac2b0732d9fcbe2b7fa0cf7a264697066735822122026d14910d17858842c9c2bbfa438dc52bf6953f8b7a0c7cfab615c367513f8b464736f6c63430008130033",
  "immutableReferences": {},
  "source": "// SPDX-License-Identifier: GPL-3.0\npragma solidity >=0.4.0 <0.9.0;\n\nimport \"./lib/alt_bn128.sol\";\nimport \"./Token/Token.sol\";\nimport \"./Token/TokenRegistrar.sol\";\nimport \"./PubParam.sol\";\n// import {PartialEquality as PE} from \"./ZKP/PartialEquality.sol\";\n// import {DualRingEC as DR} from \"./ZKP/DualRingEC.sol\";\n// import {DiffGenEqual as DG} from \"./ZKP/DiffGenEqual.sol\";\nimport \"./TX/SoKdp.sol\";\nimport \"./TX/SoKwd.sol\";\nimport \"./TX/SoKsp.sol\";\n\ncontract Mixer {\n  \n  using alt_bn128 for uint256;\n  using alt_bn128 for alt_bn128.G1Point;\n\n  alt_bn128.G1Point[] _accs;\n  alt_bn128.G1Point[] _pks;\n  alt_bn128.G1Point[] _tags;\n\n  TokenRegistrar r;\n  PubParam pp;\n  // PE pe;\n  // DR dr;\n  // DG dg;\n  SoKdp dp;\n  SoKwd wd;\n  SoKsp sp;\n\n  // constructor (\n  //   address r_addr, \n  //   address pp_addr, \n  //   address pe_addr, \n  //   address dr_addr,\n  //   address dg_addr,\n  //   address wd_addr,\n  //   address sp_addr\n  // ) {\n  //   r = TokenRegistrar(r_addr);\n  //   pp = PubParam(pp_addr);\n  //   pe = PE(pe_addr);\n  //   dr = DR(dr_addr);\n  //   dg = DG(dg_addr);\n  //   wd = SoKwd(wd_addr);\n  //   sp = SoKsp(sp_addr);\n  // }\n\n  constructor (\n    address r_addr, \n    address pp_addr, \n    address dp_addr,\n    address wd_addr,\n    address sp_addr\n  ) {\n    r = TokenRegistrar(r_addr);\n    pp = PubParam(pp_addr);\n    dp = SoKdp(dp_addr);\n    wd = SoKwd(wd_addr);\n    sp = SoKsp(sp_addr);\n  }\n\n  ///////// deposit /////////\n\n  /// @dev user deposit token into mixer\n  /// @param tx_dp deposit transaction statement\n  /// @param wit witness (sk, opn, ok)\n  /// @return sig deposit signature\n  function deposit(SoKdp.TX memory tx_dp, uint256[3] memory wit) public returns (SoKdp.Sig memory sig){\n\n    Token t = Token(r.getToken(tx_dp.attrS[0]));\n\n    if (!t.approve(address(this), tx_dp.attrS[1])) \n      revert (\"Unsuccessful approve operation\");\n\n    sig = dp.sign(tx_dp, wit);\n  }\n\n  /// @dev mixer process deposit request\n  /// @param tx_dp deposit transaction statement\n  /// @param sig deposit signature\n  function process_dp(SoKdp.TX memory tx_dp, SoKdp.Sig memory sig) public returns (bool) {\n    /// @dev b0  T_now  [T_begS ,T_endS)\n    uint256 time = block.timestamp;\n    bool b0 = tx_dp.attrS[2] <= time && time < tx_dp.attrS[3]; \n\n    /// @dev b1  pk  pk\n    bool b1 = !_in(_pks, tx_dp.s.pk);\n\n    /// @dev b2  SoKverify(L_dp)\n    bool b2 = dp.verify(tx_dp, sig);\n    require (b2, \"SoKdp failed\");\n\n    if (b0 && b1 && b2){\n      alt_bn128.G1Point memory Cx = tx_dp.s.tcom.add(tx_dp.s.ocom);\n      _accs.push(Cx);\n      _pks.push(tx_dp.s.pk);\n      Token t = Token(r.getToken(tx_dp.attrS[0]));\n      return t.transfer(msg.sender, address(this), tx_dp.attrS[1]);\n    }\n    return false;\n  }\n\n  //////// withdraw //////////\n\n  /// @dev withdraw token from mixer\n  /// @param tx_wd withdraw transaction statement\n  /// @param wit (theta, sk, opn, ok)\n  function withdraw(SoKwd.TX memory tx_wd, uint256[4] memory wit) public view returns (SoKwd.Sig memory){\n    return wd.sign(tx_wd, wit);\n  }\n  \n  function process_wd(SoKwd.TX memory tx_wd, SoKwd.Sig memory sig) public returns (bool) {\n    /// @dev b0  T_now  [T_begS ,T_endS)\n    uint256 time = block.timestamp;\n    bool b0 = tx_wd.attrS[2] <= time && time < tx_wd.attrS[3];\n\n    /// @dev b1 = verify signature\n    bool b1 = wd.verify(tx_wd, sig);\n    require (b1, \"SoKwd failed\");\n\n    /// @dev b2  tagS  tag\n    bool b2 = !_in(_tags, tx_wd.tag);\n\n    if (b0 && b1 && b2) {\n      _tags.push(tx_wd.tag);\n\n      Token t = Token(r.getToken(tx_wd.attrS[0]));\n      /// @dev ty.transfer[mixer, rcpt]\n      return t.transfer(address(this), tx_wd.u_rcpt, tx_wd.attrS[1]);\n    }\n    return false;\n  }\n\n  function spend(SoKsp.TX memory tx_sp, SoKsp.Wit memory wit) public view returns (SoKsp.Sig memory){\n    return sp.sign(tx_sp, wit);\n  }\n\n  function process_sp(SoKsp.TX memory tx_sp, SoKsp.Sig memory sig) public returns (bool) {\n    // uint256 time = 5; // for testing\n    /// @dev b0  T_now  [T_begS ,T_endS)\n    uint256 time = block.timestamp;\n    bool b0 = tx_sp.attrS[1] <= time && time < tx_sp.attrS[2]; \n    require (b0, \"invalid transaction time\");\n\n    // b1  pkT  pk\n    bool b1 = !_in(_pks, tx_sp.pk_T);\n\n    // b2  tagS  tag\n    bool b2 = !_in(_tags, tx_sp.tagS);\n\n    bool b3 = sp.verify(tx_sp, sig);\n    require (b3, \"SoKsp failed\");\n\n    if (b0 && b1 && b2 && b3){\n      _tags.push(tx_sp.tagS);\n      _pks.push(tx_sp.pk_T);\n\n      alt_bn128.G1Point memory acc;\n      for (uint i = 0; i < tx_sp.ocom_T.length; i++) {\n        acc = tx_sp.tcom_T[i].add(tx_sp.ocom_T[i]);\n        _accs.push(acc);\n      }\n      return true;\n    }\n    return false;\n  }\n\n  function _in(\n    alt_bn128.G1Point[] memory ls, \n    alt_bn128.G1Point memory pk\n  ) internal pure returns (bool) {\n    for (uint i = 0 ; i < ls.length; i++) {\n      if (alt_bn128.eq(ls[i], pk)) return true;\n    }\n    return false;\n  }\n\n\n\n}",
  "sourcePath": "/Users/qian/Desktop/Y4/COMP4550/project/XCSwap/contracts/Mixer.sol",
  "compiler": {
    "name": "solc",
    "version": "0.8.19+commit.7dd6d404.Emscripten.clang"
  },
  "schemaVersion": "3.4.13",
  "updatedAt": "2023-08-05T06:56:56.322Z",
  "devdoc": {
    "kind": "dev",
    "methods": {
      "deposit((((uint256,uint256),(uint256,uint256),(uint256,uint256)),uint256[]),uint256[3])": {
        "details": "user deposit token into mixer",
        "params": {
          "tx_dp": "deposit transaction statement",
          "wit": "witness (sk, opn, ok)"
        },
        "returns": {
          "sig": "deposit signature"
        }
      },
      "process_dp((((uint256,uint256),(uint256,uint256),(uint256,uint256)),uint256[]),(((uint256,uint256),uint256[])))": {
        "details": "mixer process deposit request",
        "params": {
          "sig": "deposit signature",
          "tx_dp": "deposit transaction statement"
        }
      },
      "withdraw(((uint256,uint256)[],(uint256,uint256),uint256[],address),uint256[4])": {
        "details": "withdraw token from mixer",
        "params": {
          "tx_wd": "withdraw transaction statement",
          "wit": "(theta, sk, opn, ok)"
        }
      }
    },
    "version": 1
  },
  "userdoc": {
    "kind": "user",
    "methods": {},
    "version": 1
  }
}