{
  "contractName": "Mixer",
  "abi": [
    {
      "inputs": [
        {
          "internalType": "address",
          "name": "r_addr",
          "type": "address"
        },
        {
          "internalType": "address",
          "name": "pp_addr",
          "type": "address"
        },
        {
          "internalType": "address",
          "name": "dp_addr",
          "type": "address"
        },
        {
          "internalType": "address",
          "name": "wd_addr",
          "type": "address"
        },
        {
          "internalType": "address",
          "name": "sp_addr",
          "type": "address"
        }
      ],
      "stateMutability": "nonpayable",
      "type": "constructor"
    },
    {
      "inputs": [],
      "name": "init",
      "outputs": [],
      "stateMutability": "nonpayable",
      "type": "function"
    },
    {
      "inputs": [
        {
          "components": [
            {
              "components": [
                {
                  "components": [
                    {
                      "internalType": "uint256",
                      "name": "X",
                      "type": "uint256"
                    },
                    {
                      "internalType": "uint256",
                      "name": "Y",
                      "type": "uint256"
                    }
                  ],
                  "internalType": "struct alt_bn128.G1Point",
                  "name": "pk",
                  "type": "tuple"
                },
                {
                  "components": [
                    {
                      "internalType": "uint256",
                      "name": "X",
                      "type": "uint256"
                    },
                    {
                      "internalType": "uint256",
                      "name": "Y",
                      "type": "uint256"
                    }
                  ],
                  "internalType": "struct alt_bn128.G1Point",
                  "name": "tcom",
                  "type": "tuple"
                },
                {
                  "components": [
                    {
                      "internalType": "uint256",
                      "name": "X",
                      "type": "uint256"
                    },
                    {
                      "internalType": "uint256",
                      "name": "Y",
                      "type": "uint256"
                    }
                  ],
                  "internalType": "struct alt_bn128.G1Point",
                  "name": "ocom",
                  "type": "tuple"
                }
              ],
              "internalType": "struct PubParam.Acc",
              "name": "s",
              "type": "tuple"
            },
            {
              "internalType": "uint256[]",
              "name": "attrS",
              "type": "uint256[]"
            }
          ],
          "internalType": "struct SoKdp.TX",
          "name": "tx_dp",
          "type": "tuple"
        },
        {
          "internalType": "uint256[3]",
          "name": "wit",
          "type": "uint256[3]"
        }
      ],
      "name": "deposit",
      "outputs": [
        {
          "components": [
            {
              "components": [
                {
                  "components": [
                    {
                      "internalType": "uint256",
                      "name": "X",
                      "type": "uint256"
                    },
                    {
                      "internalType": "uint256",
                      "name": "Y",
                      "type": "uint256"
                    }
                  ],
                  "internalType": "struct alt_bn128.G1Point",
                  "name": "c",
                  "type": "tuple"
                },
                {
                  "internalType": "uint256[]",
                  "name": "zs",
                  "type": "uint256[]"
                }
              ],
              "internalType": "struct PartialEquality.Sig",
              "name": "pe_sig",
              "type": "tuple"
            }
          ],
          "internalType": "struct SoKdp.Sig",
          "name": "sig",
          "type": "tuple"
        }
      ],
      "stateMutability": "nonpayable",
      "type": "function"
    },
    {
      "inputs": [
        {
          "components": [
            {
              "components": [
                {
                  "components": [
                    {
                      "internalType": "uint256",
                      "name": "X",
                      "type": "uint256"
                    },
                    {
                      "internalType": "uint256",
                      "name": "Y",
                      "type": "uint256"
                    }
                  ],
                  "internalType": "struct alt_bn128.G1Point",
                  "name": "pk",
                  "type": "tuple"
                },
                {
                  "components": [
                    {
                      "internalType": "uint256",
                      "name": "X",
                      "type": "uint256"
                    },
                    {
                      "internalType": "uint256",
                      "name": "Y",
                      "type": "uint256"
                    }
                  ],
                  "internalType": "struct alt_bn128.G1Point",
                  "name": "tcom",
                  "type": "tuple"
                },
                {
                  "components": [
                    {
                      "internalType": "uint256",
                      "name": "X",
                      "type": "uint256"
                    },
                    {
                      "internalType": "uint256",
                      "name": "Y",
                      "type": "uint256"
                    }
                  ],
                  "internalType": "struct alt_bn128.G1Point",
                  "name": "ocom",
                  "type": "tuple"
                }
              ],
              "internalType": "struct PubParam.Acc",
              "name": "s",
              "type": "tuple"
            },
            {
              "internalType": "uint256[]",
              "name": "attrS",
              "type": "uint256[]"
            }
          ],
          "internalType": "struct SoKdp.TX",
          "name": "tx_dp",
          "type": "tuple"
        },
        {
          "components": [
            {
              "components": [
                {
                  "components": [
                    {
                      "internalType": "uint256",
                      "name": "X",
                      "type": "uint256"
                    },
                    {
                      "internalType": "uint256",
                      "name": "Y",
                      "type": "uint256"
                    }
                  ],
                  "internalType": "struct alt_bn128.G1Point",
                  "name": "c",
                  "type": "tuple"
                },
                {
                  "internalType": "uint256[]",
                  "name": "zs",
                  "type": "uint256[]"
                }
              ],
              "internalType": "struct PartialEquality.Sig",
              "name": "pe_sig",
              "type": "tuple"
            }
          ],
          "internalType": "struct SoKdp.Sig",
          "name": "sig",
          "type": "tuple"
        }
      ],
      "name": "process_dp",
      "outputs": [
        {
          "internalType": "bool",
          "name": "",
          "type": "bool"
        }
      ],
      "stateMutability": "nonpayable",
      "type": "function"
    },
    {
      "inputs": [
        {
          "components": [
            {
              "components": [
                {
                  "internalType": "uint256",
                  "name": "X",
                  "type": "uint256"
                },
                {
                  "internalType": "uint256",
                  "name": "Y",
                  "type": "uint256"
                }
              ],
              "internalType": "struct alt_bn128.G1Point[]",
              "name": "R",
              "type": "tuple[]"
            },
            {
              "components": [
                {
                  "internalType": "uint256",
                  "name": "X",
                  "type": "uint256"
                },
                {
                  "internalType": "uint256",
                  "name": "Y",
                  "type": "uint256"
                }
              ],
              "internalType": "struct alt_bn128.G1Point[]",
              "name": "gs",
              "type": "tuple[]"
            },
            {
              "components": [
                {
                  "internalType": "uint256",
                  "name": "X",
                  "type": "uint256"
                },
                {
                  "internalType": "uint256",
                  "name": "Y",
                  "type": "uint256"
                }
              ],
              "internalType": "struct alt_bn128.G1Point",
              "name": "tag",
              "type": "tuple"
            },
            {
              "internalType": "uint256[]",
              "name": "attrS",
              "type": "uint256[]"
            },
            {
              "internalType": "address",
              "name": "u_rcpt",
              "type": "address"
            }
          ],
          "internalType": "struct SoKwd.TX",
          "name": "tx_wd",
          "type": "tuple"
        },
        {
          "internalType": "uint256[4]",
          "name": "wit",
          "type": "uint256[4]"
        }
      ],
      "name": "withdraw",
      "outputs": [
        {
          "components": [
            {
              "components": [
                {
                  "internalType": "uint256",
                  "name": "X",
                  "type": "uint256"
                },
                {
                  "internalType": "uint256",
                  "name": "Y",
                  "type": "uint256"
                }
              ],
              "internalType": "struct alt_bn128.G1Point",
              "name": "acc_d",
              "type": "tuple"
            },
            {
              "components": [
                {
                  "components": [
                    {
                      "internalType": "uint256",
                      "name": "X",
                      "type": "uint256"
                    },
                    {
                      "internalType": "uint256",
                      "name": "Y",
                      "type": "uint256"
                    }
                  ],
                  "internalType": "struct alt_bn128.G1Point",
                  "name": "cv",
                  "type": "tuple"
                },
                {
                  "components": [
                    {
                      "internalType": "uint256",
                      "name": "X",
                      "type": "uint256"
                    },
                    {
                      "internalType": "uint256",
                      "name": "Y",
                      "type": "uint256"
                    }
                  ],
                  "internalType": "struct alt_bn128.G1Point",
                  "name": "ct",
                  "type": "tuple"
                },
                {
                  "components": [
                    {
                      "internalType": "uint256",
                      "name": "X",
                      "type": "uint256"
                    },
                    {
                      "internalType": "uint256",
                      "name": "Y",
                      "type": "uint256"
                    }
                  ],
                  "internalType": "struct alt_bn128.G1Point[]",
                  "name": "cds",
                  "type": "tuple[]"
                },
                {
                  "internalType": "uint256[]",
                  "name": "fs",
                  "type": "uint256[]"
                },
                {
                  "internalType": "uint256",
                  "name": "u",
                  "type": "uint256"
                },
                {
                  "internalType": "uint256",
                  "name": "s",
                  "type": "uint256"
                }
              ],
              "internalType": "struct OneofMany.Sig",
              "name": "om_sig",
              "type": "tuple"
            },
            {
              "components": [
                {
                  "components": [
                    {
                      "internalType": "uint256",
                      "name": "X",
                      "type": "uint256"
                    },
                    {
                      "internalType": "uint256",
                      "name": "Y",
                      "type": "uint256"
                    }
                  ],
                  "internalType": "struct alt_bn128.G1Point",
                  "name": "cx",
                  "type": "tuple"
                },
                {
                  "components": [
                    {
                      "internalType": "uint256",
                      "name": "X",
                      "type": "uint256"
                    },
                    {
                      "internalType": "uint256",
                      "name": "Y",
                      "type": "uint256"
                    }
                  ],
                  "internalType": "struct alt_bn128.G1Point",
                  "name": "cy",
                  "type": "tuple"
                },
                {
                  "internalType": "uint256[]",
                  "name": "zs",
                  "type": "uint256[]"
                }
              ],
              "internalType": "struct DiffGenEqual.Sig",
              "name": "dg_sig",
              "type": "tuple"
            },
            {
              "components": [
                {
                  "components": [
                    {
                      "internalType": "uint256",
                      "name": "X",
                      "type": "uint256"
                    },
                    {
                      "internalType": "uint256",
                      "name": "Y",
                      "type": "uint256"
                    }
                  ],
                  "internalType": "struct alt_bn128.G1Point",
                  "name": "c",
                  "type": "tuple"
                },
                {
                  "internalType": "uint256[]",
                  "name": "zs",
                  "type": "uint256[]"
                }
              ],
              "internalType": "struct PartialEquality.Sig",
              "name": "pe_sig",
              "type": "tuple"
            }
          ],
          "internalType": "struct SoKwd.Sig",
          "name": "",
          "type": "tuple"
        }
      ],
      "stateMutability": "view",
      "type": "function",
      "constant": true
    },
    {
      "inputs": [
        {
          "components": [
            {
              "components": [
                {
                  "internalType": "uint256",
                  "name": "X",
                  "type": "uint256"
                },
                {
                  "internalType": "uint256",
                  "name": "Y",
                  "type": "uint256"
                }
              ],
              "internalType": "struct alt_bn128.G1Point[]",
              "name": "R",
              "type": "tuple[]"
            },
            {
              "components": [
                {
                  "internalType": "uint256",
                  "name": "X",
                  "type": "uint256"
                },
                {
                  "internalType": "uint256",
                  "name": "Y",
                  "type": "uint256"
                }
              ],
              "internalType": "struct alt_bn128.G1Point[]",
              "name": "gs",
              "type": "tuple[]"
            },
            {
              "components": [
                {
                  "internalType": "uint256",
                  "name": "X",
                  "type": "uint256"
                },
                {
                  "internalType": "uint256",
                  "name": "Y",
                  "type": "uint256"
                }
              ],
              "internalType": "struct alt_bn128.G1Point",
              "name": "tag",
              "type": "tuple"
            },
            {
              "internalType": "uint256[]",
              "name": "attrS",
              "type": "uint256[]"
            },
            {
              "internalType": "address",
              "name": "u_rcpt",
              "type": "address"
            }
          ],
          "internalType": "struct SoKwd.TX",
          "name": "tx_wd",
          "type": "tuple"
        },
        {
          "components": [
            {
              "components": [
                {
                  "internalType": "uint256",
                  "name": "X",
                  "type": "uint256"
                },
                {
                  "internalType": "uint256",
                  "name": "Y",
                  "type": "uint256"
                }
              ],
              "internalType": "struct alt_bn128.G1Point",
              "name": "acc_d",
              "type": "tuple"
            },
            {
              "components": [
                {
                  "components": [
                    {
                      "internalType": "uint256",
                      "name": "X",
                      "type": "uint256"
                    },
                    {
                      "internalType": "uint256",
                      "name": "Y",
                      "type": "uint256"
                    }
                  ],
                  "internalType": "struct alt_bn128.G1Point",
                  "name": "cv",
                  "type": "tuple"
                },
                {
                  "components": [
                    {
                      "internalType": "uint256",
                      "name": "X",
                      "type": "uint256"
                    },
                    {
                      "internalType": "uint256",
                      "name": "Y",
                      "type": "uint256"
                    }
                  ],
                  "internalType": "struct alt_bn128.G1Point",
                  "name": "ct",
                  "type": "tuple"
                },
                {
                  "components": [
                    {
                      "internalType": "uint256",
                      "name": "X",
                      "type": "uint256"
                    },
                    {
                      "internalType": "uint256",
                      "name": "Y",
                      "type": "uint256"
                    }
                  ],
                  "internalType": "struct alt_bn128.G1Point[]",
                  "name": "cds",
                  "type": "tuple[]"
                },
                {
                  "internalType": "uint256[]",
                  "name": "fs",
                  "type": "uint256[]"
                },
                {
                  "internalType": "uint256",
                  "name": "u",
                  "type": "uint256"
                },
                {
                  "internalType": "uint256",
                  "name": "s",
                  "type": "uint256"
                }
              ],
              "internalType": "struct OneofMany.Sig",
              "name": "om_sig",
              "type": "tuple"
            },
            {
              "components": [
                {
                  "components": [
                    {
                      "internalType": "uint256",
                      "name": "X",
                      "type": "uint256"
                    },
                    {
                      "internalType": "uint256",
                      "name": "Y",
                      "type": "uint256"
                    }
                  ],
                  "internalType": "struct alt_bn128.G1Point",
                  "name": "cx",
                  "type": "tuple"
                },
                {
                  "components": [
                    {
                      "internalType": "uint256",
                      "name": "X",
                      "type": "uint256"
                    },
                    {
                      "internalType": "uint256",
                      "name": "Y",
                      "type": "uint256"
                    }
                  ],
                  "internalType": "struct alt_bn128.G1Point",
                  "name": "cy",
                  "type": "tuple"
                },
                {
                  "internalType": "uint256[]",
                  "name": "zs",
                  "type": "uint256[]"
                }
              ],
              "internalType": "struct DiffGenEqual.Sig",
              "name": "dg_sig",
              "type": "tuple"
            },
            {
              "components": [
                {
                  "components": [
                    {
                      "internalType": "uint256",
                      "name": "X",
                      "type": "uint256"
                    },
                    {
                      "internalType": "uint256",
                      "name": "Y",
                      "type": "uint256"
                    }
                  ],
                  "internalType": "struct alt_bn128.G1Point",
                  "name": "c",
                  "type": "tuple"
                },
                {
                  "internalType": "uint256[]",
                  "name": "zs",
                  "type": "uint256[]"
                }
              ],
              "internalType": "struct PartialEquality.Sig",
              "name": "pe_sig",
              "type": "tuple"
            }
          ],
          "internalType": "struct SoKwd.Sig",
          "name": "sig",
          "type": "tuple"
        }
      ],
      "name": "process_wd",
      "outputs": [
        {
          "internalType": "bool",
          "name": "",
          "type": "bool"
        }
      ],
      "stateMutability": "nonpayable",
      "type": "function"
    },
    {
      "inputs": [
        {
          "components": [
            {
              "components": [
                {
                  "internalType": "uint256",
                  "name": "X",
                  "type": "uint256"
                },
                {
                  "internalType": "uint256",
                  "name": "Y",
                  "type": "uint256"
                }
              ],
              "internalType": "struct alt_bn128.G1Point[]",
              "name": "R",
              "type": "tuple[]"
            },
            {
              "components": [
                {
                  "internalType": "uint256",
                  "name": "X",
                  "type": "uint256"
                },
                {
                  "internalType": "uint256",
                  "name": "Y",
                  "type": "uint256"
                }
              ],
              "internalType": "struct alt_bn128.G1Point[]",
              "name": "gs",
              "type": "tuple[]"
            },
            {
              "components": [
                {
                  "internalType": "uint256",
                  "name": "X",
                  "type": "uint256"
                },
                {
                  "internalType": "uint256",
                  "name": "Y",
                  "type": "uint256"
                }
              ],
              "internalType": "struct alt_bn128.G1Point",
              "name": "tagS",
              "type": "tuple"
            },
            {
              "internalType": "uint256[3]",
              "name": "attrS",
              "type": "uint256[3]"
            },
            {
              "components": [
                {
                  "internalType": "uint256",
                  "name": "X",
                  "type": "uint256"
                },
                {
                  "internalType": "uint256",
                  "name": "Y",
                  "type": "uint256"
                }
              ],
              "internalType": "struct alt_bn128.G1Point",
              "name": "pk_T",
              "type": "tuple"
            },
            {
              "components": [
                {
                  "internalType": "uint256",
                  "name": "X",
                  "type": "uint256"
                },
                {
                  "internalType": "uint256",
                  "name": "Y",
                  "type": "uint256"
                }
              ],
              "internalType": "struct alt_bn128.G1Point[]",
              "name": "tcom_T",
              "type": "tuple[]"
            },
            {
              "components": [
                {
                  "internalType": "uint256",
                  "name": "X",
                  "type": "uint256"
                },
                {
                  "internalType": "uint256",
                  "name": "Y",
                  "type": "uint256"
                }
              ],
              "internalType": "struct alt_bn128.G1Point[]",
              "name": "ocom_T",
              "type": "tuple[]"
            }
          ],
          "internalType": "struct SoKsp.TX",
          "name": "tx_sp",
          "type": "tuple"
        },
        {
          "components": [
            {
              "internalType": "uint256",
              "name": "theta",
              "type": "uint256"
            },
            {
              "internalType": "uint256[]",
              "name": "attrS",
              "type": "uint256[]"
            },
            {
              "internalType": "uint256",
              "name": "sk_T",
              "type": "uint256"
            },
            {
              "internalType": "uint256[4][]",
              "name": "attrTs",
              "type": "uint256[4][]"
            }
          ],
          "internalType": "struct SoKsp.Wit",
          "name": "wit",
          "type": "tuple"
        }
      ],
      "name": "spend",
      "outputs": [
        {
          "components": [
            {
              "components": [
                {
                  "internalType": "uint256",
                  "name": "X",
                  "type": "uint256"
                },
                {
                  "internalType": "uint256",
                  "name": "Y",
                  "type": "uint256"
                }
              ],
              "internalType": "struct alt_bn128.G1Point",
              "name": "acc_d",
              "type": "tuple"
            },
            {
              "components": [
                {
                  "components": [
                    {
                      "internalType": "uint256",
                      "name": "X",
                      "type": "uint256"
                    },
                    {
                      "internalType": "uint256",
                      "name": "Y",
                      "type": "uint256"
                    }
                  ],
                  "internalType": "struct alt_bn128.G1Point",
                  "name": "cv",
                  "type": "tuple"
                },
                {
                  "components": [
                    {
                      "internalType": "uint256",
                      "name": "X",
                      "type": "uint256"
                    },
                    {
                      "internalType": "uint256",
                      "name": "Y",
                      "type": "uint256"
                    }
                  ],
                  "internalType": "struct alt_bn128.G1Point",
                  "name": "ct",
                  "type": "tuple"
                },
                {
                  "components": [
                    {
                      "internalType": "uint256",
                      "name": "X",
                      "type": "uint256"
                    },
                    {
                      "internalType": "uint256",
                      "name": "Y",
                      "type": "uint256"
                    }
                  ],
                  "internalType": "struct alt_bn128.G1Point[]",
                  "name": "cds",
                  "type": "tuple[]"
                },
                {
                  "internalType": "uint256[]",
                  "name": "fs",
                  "type": "uint256[]"
                },
                {
                  "internalType": "uint256",
                  "name": "u",
                  "type": "uint256"
                },
                {
                  "internalType": "uint256",
                  "name": "s",
                  "type": "uint256"
                }
              ],
              "internalType": "struct OneofMany.Sig",
              "name": "om_sig",
              "type": "tuple"
            },
            {
              "components": [
                {
                  "components": [
                    {
                      "internalType": "uint256",
                      "name": "X",
                      "type": "uint256"
                    },
                    {
                      "internalType": "uint256",
                      "name": "Y",
                      "type": "uint256"
                    }
                  ],
                  "internalType": "struct alt_bn128.G1Point",
                  "name": "cx",
                  "type": "tuple"
                },
                {
                  "components": [
                    {
                      "internalType": "uint256",
                      "name": "X",
                      "type": "uint256"
                    },
                    {
                      "internalType": "uint256",
                      "name": "Y",
                      "type": "uint256"
                    }
                  ],
                  "internalType": "struct alt_bn128.G1Point",
                  "name": "cy",
                  "type": "tuple"
                },
                {
                  "internalType": "uint256[]",
                  "name": "zs",
                  "type": "uint256[]"
                }
              ],
              "internalType": "struct DiffGenEqual.Sig",
              "name": "dg_tag_sig",
              "type": "tuple"
            },
            {
              "components": [
                {
                  "components": [
                    {
                      "internalType": "uint256",
                      "name": "X",
                      "type": "uint256"
                    },
                    {
                      "internalType": "uint256",
                      "name": "Y",
                      "type": "uint256"
                    }
                  ],
                  "internalType": "struct alt_bn128.G1Point",
                  "name": "c",
                  "type": "tuple"
                },
                {
                  "internalType": "uint256[]",
                  "name": "zs",
                  "type": "uint256[]"
                }
              ],
              "internalType": "struct PartialEquality.Sig",
              "name": "pe_opn_sig",
              "type": "tuple"
            },
            {
              "components": [
                {
                  "components": [
                    {
                      "internalType": "uint256",
                      "name": "X",
                      "type": "uint256"
                    },
                    {
                      "internalType": "uint256",
                      "name": "Y",
                      "type": "uint256"
                    }
                  ],
                  "internalType": "struct alt_bn128.G1Point",
                  "name": "c",
                  "type": "tuple"
                },
                {
                  "internalType": "uint256[]",
                  "name": "zs",
                  "type": "uint256[]"
                }
              ],
              "internalType": "struct PartialEquality.Sig[]",
              "name": "pe_ty_sig",
              "type": "tuple[]"
            },
            {
              "components": [
                {
                  "components": [
                    {
                      "internalType": "uint256",
                      "name": "X",
                      "type": "uint256"
                    },
                    {
                      "internalType": "uint256",
                      "name": "Y",
                      "type": "uint256"
                    }
                  ],
                  "internalType": "struct alt_bn128.G1Point",
                  "name": "cx",
                  "type": "tuple"
                },
                {
                  "components": [
                    {
                      "internalType": "uint256",
                      "name": "X",
                      "type": "uint256"
                    },
                    {
                      "internalType": "uint256",
                      "name": "Y",
                      "type": "uint256"
                    }
                  ],
                  "internalType": "struct alt_bn128.G1Point",
                  "name": "cy",
                  "type": "tuple"
                },
                {
                  "internalType": "uint256[]",
                  "name": "zs",
                  "type": "uint256[]"
                }
              ],
              "internalType": "struct DiffGenEqual.Sig[]",
              "name": "dg_sk_sig",
              "type": "tuple[]"
            }
          ],
          "internalType": "struct SoKsp.Sig",
          "name": "",
          "type": "tuple"
        }
      ],
      "stateMutability": "view",
      "type": "function",
      "constant": true
    },
    {
      "inputs": [
        {
          "components": [
            {
              "components": [
                {
                  "internalType": "uint256",
                  "name": "X",
                  "type": "uint256"
                },
                {
                  "internalType": "uint256",
                  "name": "Y",
                  "type": "uint256"
                }
              ],
              "internalType": "struct alt_bn128.G1Point[]",
              "name": "R",
              "type": "tuple[]"
            },
            {
              "components": [
                {
                  "internalType": "uint256",
                  "name": "X",
                  "type": "uint256"
                },
                {
                  "internalType": "uint256",
                  "name": "Y",
                  "type": "uint256"
                }
              ],
              "internalType": "struct alt_bn128.G1Point[]",
              "name": "gs",
              "type": "tuple[]"
            },
            {
              "components": [
                {
                  "internalType": "uint256",
                  "name": "X",
                  "type": "uint256"
                },
                {
                  "internalType": "uint256",
                  "name": "Y",
                  "type": "uint256"
                }
              ],
              "internalType": "struct alt_bn128.G1Point",
              "name": "tagS",
              "type": "tuple"
            },
            {
              "internalType": "uint256[3]",
              "name": "attrS",
              "type": "uint256[3]"
            },
            {
              "components": [
                {
                  "internalType": "uint256",
                  "name": "X",
                  "type": "uint256"
                },
                {
                  "internalType": "uint256",
                  "name": "Y",
                  "type": "uint256"
                }
              ],
              "internalType": "struct alt_bn128.G1Point",
              "name": "pk_T",
              "type": "tuple"
            },
            {
              "components": [
                {
                  "internalType": "uint256",
                  "name": "X",
                  "type": "uint256"
                },
                {
                  "internalType": "uint256",
                  "name": "Y",
                  "type": "uint256"
                }
              ],
              "internalType": "struct alt_bn128.G1Point[]",
              "name": "tcom_T",
              "type": "tuple[]"
            },
            {
              "components": [
                {
                  "internalType": "uint256",
                  "name": "X",
                  "type": "uint256"
                },
                {
                  "internalType": "uint256",
                  "name": "Y",
                  "type": "uint256"
                }
              ],
              "internalType": "struct alt_bn128.G1Point[]",
              "name": "ocom_T",
              "type": "tuple[]"
            }
          ],
          "internalType": "struct SoKsp.TX",
          "name": "tx_sp",
          "type": "tuple"
        },
        {
          "components": [
            {
              "components": [
                {
                  "internalType": "uint256",
                  "name": "X",
                  "type": "uint256"
                },
                {
                  "internalType": "uint256",
                  "name": "Y",
                  "type": "uint256"
                }
              ],
              "internalType": "struct alt_bn128.G1Point",
              "name": "acc_d",
              "type": "tuple"
            },
            {
              "components": [
                {
                  "components": [
                    {
                      "internalType": "uint256",
                      "name": "X",
                      "type": "uint256"
                    },
                    {
                      "internalType": "uint256",
                      "name": "Y",
                      "type": "uint256"
                    }
                  ],
                  "internalType": "struct alt_bn128.G1Point",
                  "name": "cv",
                  "type": "tuple"
                },
                {
                  "components": [
                    {
                      "internalType": "uint256",
                      "name": "X",
                      "type": "uint256"
                    },
                    {
                      "internalType": "uint256",
                      "name": "Y",
                      "type": "uint256"
                    }
                  ],
                  "internalType": "struct alt_bn128.G1Point",
                  "name": "ct",
                  "type": "tuple"
                },
                {
                  "components": [
                    {
                      "internalType": "uint256",
                      "name": "X",
                      "type": "uint256"
                    },
                    {
                      "internalType": "uint256",
                      "name": "Y",
                      "type": "uint256"
                    }
                  ],
                  "internalType": "struct alt_bn128.G1Point[]",
                  "name": "cds",
                  "type": "tuple[]"
                },
                {
                  "internalType": "uint256[]",
                  "name": "fs",
                  "type": "uint256[]"
                },
                {
                  "internalType": "uint256",
                  "name": "u",
                  "type": "uint256"
                },
                {
                  "internalType": "uint256",
                  "name": "s",
                  "type": "uint256"
                }
              ],
              "internalType": "struct OneofMany.Sig",
              "name": "om_sig",
              "type": "tuple"
            },
            {
              "components": [
                {
                  "components": [
                    {
                      "internalType": "uint256",
                      "name": "X",
                      "type": "uint256"
                    },
                    {
                      "internalType": "uint256",
                      "name": "Y",
                      "type": "uint256"
                    }
                  ],
                  "internalType": "struct alt_bn128.G1Point",
                  "name": "cx",
                  "type": "tuple"
                },
                {
                  "components": [
                    {
                      "internalType": "uint256",
                      "name": "X",
                      "type": "uint256"
                    },
                    {
                      "internalType": "uint256",
                      "name": "Y",
                      "type": "uint256"
                    }
                  ],
                  "internalType": "struct alt_bn128.G1Point",
                  "name": "cy",
                  "type": "tuple"
                },
                {
                  "internalType": "uint256[]",
                  "name": "zs",
                  "type": "uint256[]"
                }
              ],
              "internalType": "struct DiffGenEqual.Sig",
              "name": "dg_tag_sig",
              "type": "tuple"
            },
            {
              "components": [
                {
                  "components": [
                    {
                      "internalType": "uint256",
                      "name": "X",
                      "type": "uint256"
                    },
                    {
                      "internalType": "uint256",
                      "name": "Y",
                      "type": "uint256"
                    }
                  ],
                  "internalType": "struct alt_bn128.G1Point",
                  "name": "c",
                  "type": "tuple"
                },
                {
                  "internalType": "uint256[]",
                  "name": "zs",
                  "type": "uint256[]"
                }
              ],
              "internalType": "struct PartialEquality.Sig",
              "name": "pe_opn_sig",
              "type": "tuple"
            },
            {
              "components": [
                {
                  "components": [
                    {
                      "internalType": "uint256",
                      "name": "X",
                      "type": "uint256"
                    },
                    {
                      "internalType": "uint256",
                      "name": "Y",
                      "type": "uint256"
                    }
                  ],
                  "internalType": "struct alt_bn128.G1Point",
                  "name": "c",
                  "type": "tuple"
                },
                {
                  "internalType": "uint256[]",
                  "name": "zs",
                  "type": "uint256[]"
                }
              ],
              "internalType": "struct PartialEquality.Sig[]",
              "name": "pe_ty_sig",
              "type": "tuple[]"
            },
            {
              "components": [
                {
                  "components": [
                    {
                      "internalType": "uint256",
                      "name": "X",
                      "type": "uint256"
                    },
                    {
                      "internalType": "uint256",
                      "name": "Y",
                      "type": "uint256"
                    }
                  ],
                  "internalType": "struct alt_bn128.G1Point",
                  "name": "cx",
                  "type": "tuple"
                },
                {
                  "components": [
                    {
                      "internalType": "uint256",
                      "name": "X",
                      "type": "uint256"
                    },
                    {
                      "internalType": "uint256",
                      "name": "Y",
                      "type": "uint256"
                    }
                  ],
                  "internalType": "struct alt_bn128.G1Point",
                  "name": "cy",
                  "type": "tuple"
                },
                {
                  "internalType": "uint256[]",
                  "name": "zs",
                  "type": "uint256[]"
                }
              ],
              "internalType": "struct DiffGenEqual.Sig[]",
              "name": "dg_sk_sig",
              "type": "tuple[]"
            }
          ],
          "internalType": "struct SoKsp.Sig",
          "name": "sig",
          "type": "tuple"
        }
      ],
      "name": "process_sp",
      "outputs": [
        {
          "internalType": "bool",
          "name": "",
          "type": "bool"
        }
      ],
      "stateMutability": "nonpayable",
      "type": "function"
    },
    {
      "inputs": [],
      "name": "get_accs",
      "outputs": [
        {
          "components": [
            {
              "internalType": "uint256",
              "name": "X",
              "type": "uint256"
            },
            {
              "internalType": "uint256",
              "name": "Y",
              "type": "uint256"
            }
          ],
          "internalType": "struct alt_bn128.G1Point[]",
          "name": "",
          "type": "tuple[]"
        }
      ],
      "stateMutability": "view",
      "type": "function",
      "constant": true
    },
    {
      "inputs": [
        {
          "components": [
            {
              "internalType": "uint256",
              "name": "X",
              "type": "uint256"
            },
            {
              "internalType": "uint256",
              "name": "Y",
              "type": "uint256"
            }
          ],
          "internalType": "struct alt_bn128.G1Point[]",
          "name": "R",
          "type": "tuple[]"
        }
      ],
      "name": "isValid",
      "outputs": [
        {
          "internalType": "bool",
          "name": "",
          "type": "bool"
        }
      ],
      "stateMutability": "view",
      "type": "function",
      "constant": true
    },
    {
      "inputs": [
        {
          "components": [
            {
              "internalType": "uint256",
              "name": "X",
              "type": "uint256"
            },
            {
              "internalType": "uint256",
              "name": "Y",
              "type": "uint256"
            }
          ],
          "internalType": "struct alt_bn128.G1Point",
          "name": "g",
          "type": "tuple"
        }
      ],
      "name": "inAcc",
      "outputs": [
        {
          "internalType": "bool",
          "name": "",
          "type": "bool"
        }
      ],
      "stateMutability": "view",
      "type": "function",
      "constant": true
    },
    {
      "inputs": [
        {
          "components": [
            {
              "internalType": "uint256",
              "name": "X",
              "type": "uint256"
            },
            {
              "internalType": "uint256",
              "name": "Y",
              "type": "uint256"
            }
          ],
          "internalType": "struct alt_bn128.G1Point",
          "name": "g",
          "type": "tuple"
        }
      ],
      "name": "inTag",
      "outputs": [
        {
          "internalType": "bool",
          "name": "",
          "type": "bool"
        }
      ],
      "stateMutability": "view",
      "type": "function",
      "constant": true
    }
  ],
  "bytecode": "0x60806040523480156200001157600080fd5b50604051620037393803806200373983398101604081905262000034916200033f565b600380546001600160a01b03199081166001600160a01b038881169190911790925560048054821687841617905560058054821686841617905560068054821685841617905560078054909116918316919091179055620000946200009f565b505050505062000471565b60005b60108110156200016d5760405163b863bd3760e01b815260048101829052600090620001319073__alt_bn128_____________________________9063b863bd3790602401602060405180830381865af415801562000105573d6000803e3d6000fd5b505050506040513d601f19601f820116820180604052508101906200012b9190620003af565b62000170565b815460018181018455600093845260209384902083516002909302019182559290910151910155806200016481620003df565b915050620000a2565b50565b60408051808201909152600080825260208201526000620001a1600080516020620037198339815191528462000411565b90506000620001b260018362000428565b91506000805b816200027157620001cb60018562000444565b935060008051602062003719833981519152848509905060008051602062003719833981519152848209905060008051602062003719833981519152600382089050620002528160046200023060008051602062003719833981519152600162000444565b6200023c91906200045a565b600080516020620037198339815191526200028b565b92508060008051602062003719833981519152848509149150620001b8565b505060408051808201909152918252602082015292915050565b600062000297620002e6565b620002a162000304565b602080835282810181905260408301819052606083018790526080830186905260a083018590528160c0846005600019fa620002dc57600080fd5b5195945050505050565b6040518060c001604052806006906020820280368337509192915050565b60405180602001604052806001906020820280368337509192915050565b80516001600160a01b03811681146200033a57600080fd5b919050565b600080600080600060a086880312156200035857600080fd5b620003638662000322565b9450620003736020870162000322565b9350620003836040870162000322565b9250620003936060870162000322565b9150620003a36080870162000322565b90509295509295909350565b600060208284031215620003c257600080fd5b5051919050565b634e487b7160e01b600052601160045260246000fd5b600060018201620003f457620003f4620003c9565b5060010190565b634e487b7160e01b600052601260045260246000fd5b600082620004235762000423620003fb565b500690565b818103818111156200043e576200043e620003c9565b92915050565b808201808211156200043e576200043e620003c9565b6000826200046c576200046c620003fb565b500490565b61329880620004816000396000f3fe608060405234801561001057600080fd5b50600436106100995760003560e01c80631a1dbfd31461009e578063307df283146100c6578063360fa0d5146100d9578063549a2fad146100f95780637b4d9a701461010e578063b39a52871461012e578063b7d6044914610141578063b9222acd14610154578063e1c7392a14610167578063fb965dc114610171578063fd2beb6d14610191575b600080fd5b6100b16100ac366004611985565b6101a4565b60405190151581526020015b60405180910390f35b6100b16100d4366004611cd9565b610221565b6100ec6100e7366004611e16565b61066a565b6040516100bd919061201e565b6101016106f0565b6040516100bd9190612031565b61012161011c36600461219a565b610763565b6040516100bd91906123e1565b6100b161013c366004611985565b6107e2565b6100b161014f366004612473565b61084e565b6100b1610162366004612506565b610c68565b61016f610d2b565b005b61018461017f36600461253a565b610df3565b6040516100bd919061257f565b6100b161019f366004612698565b61100d565b600061021b6000805480602002602001604051908101604052809291908181526020016000905b82821015610211578382906000526020600020906002020160405180604001604052908160008201548152602001600182015481525050815260200190600101906101cb565b5050505083611471565b92915050565b60006102308360000151610c68565b6102775760405162461bcd60e51b81526020600482015260136024820152722bb4ba34323930bb9d1024b73b30b634b2102960691b60448201526064015b60405180910390fd5b60008360600151600281518110610290576102906127cd565b6020026020010151905060008185606001516002815181106102b4576102b46127cd565b6020026020010151111580156102e7575084606001516003815181106102dc576102dc6127cd565b602002602001015182105b9050806103415760405162461bcd60e51b815260206004820152602260248201527f57697468647261773a20696e76616c6964207472616e73616374696f6e2074696044820152616d6560f01b606482015260840161026e565b60065460405163336113b360e11b81526000916001600160a01b0316906366c22766906103749089908990600401612860565b602060405180830381865afa158015610391573d6000803e3d6000fd5b505050506040513d601f19601f820116820180604052508101906103b59190612885565b9050806103fd5760405162461bcd60e51b815260206004820152601660248201527515da5d1a191c985dce8814dbd2ddd90819985a5b195960521b604482015260640161026e565b60006104786002805480602002602001604051908101604052809291908181526020016000905b8282101561046a57838290600052602060002090600202016040518060400160405290816000820154815260200160018201548152505081526020019060010190610424565b505050508860400151611471565b159050806104c55760405162461bcd60e51b815260206004820152601a60248201527915da5d1a191c985dce881d1859c8185b1c9958591e481d5cd95960321b604482015260640161026e565b8280156104cf5750815b80156104d85750805b1561065d5760408701516002805460018101825560008281528351919092026000805160206131838339815191528101919091556020909201516000805160206131a383398151915290920191909155600354606089015180516001600160a01b039092169163e4b50cb891908490610553576105536127cd565b60200260200101516040518263ffffffff1660e01b815260040161057991815260200190565b602060405180830381865afa158015610596573d6000803e3d6000fd5b505050506040513d601f19601f820116820180604052508101906105ba91906128a7565b9050806001600160a01b031663beabacc8308a608001518b606001516001815181106105e8576105e86127cd565b60200260200101516040518463ffffffff1660e01b815260040161060e939291906128c4565b6020604051808303816000875af115801561062d573d6000803e3d6000fd5b505050506040513d601f19601f820116820180604052508101906106519190612885565b9550505050505061021b565b5060009695505050505050565b610672611685565b600654604051637a29a98560e11b81526001600160a01b039091169063f453530a906106a49086908690600401612911565b600060405180830381865afa1580156106c1573d6000803e3d6000fd5b505050506040513d6000823e601f3d908101601f191682016040526106e99190810190612b75565b9392505050565b60606000805480602002602001604051908101604052809291908181526020016000905b8282101561075a57838290600052602060002090600202016040518060400160405290816000820154815260200160018201548152505081526020019060010190610714565b50505050905090565b61076b6116c4565b60075460405163024f0e7160e21b81526001600160a01b039091169063093c39c49061079d9086908690600401612cfd565b600060405180830381865afa1580156107ba573d6000803e3d6000fd5b505050506040513d6000823e601f3d908101601f191682016040526106e99190810190612e90565b600061021b60028054806020026020016040519081016040528092919081815260200160009082821015610211578382906000526020600020906002020160405180604001604052908160008201548152602001600182015481525050815260200190600101906101cb565b60008060009050600081856020015160028151811061086f5761086f6127cd565b6020026020010151111580156108a257508460200151600381518110610897576108976127cd565b602002602001015182105b9050806108fb5760405162461bcd60e51b815260206004820152602160248201527f4465706f7369743a20696e76616c6964207472616e73616374696f6e2074696d6044820152606560f81b606482015260840161026e565b60006109766001805480602002602001604051908101604052809291908181526020016000905b8282101561096857838290600052602060002090600202016040518060400160405290816000820154815260200160018201548152505081526020019060010190610922565b505089515191506114719050565b159050806109c15760405162461bcd60e51b815260206004820152601860248201527711195c1bdcda5d0e881c1ac8185b1c9958591e481d5cd95960421b604482015260640161026e565b600554604051631a3cfdbd60e11b81526000916001600160a01b031690633479fb7a906109f4908a908a90600401612feb565b602060405180830381865afa158015610a11573d6000803e3d6000fd5b505050506040513d601f19601f82011682018060405250810190610a359190612885565b905080610a7c5760405162461bcd60e51b815260206004820152601560248201527411195c1bdcda5d0e8814dbd2d91c0819985a5b1959605a1b604482015260640161026e565b828015610a865750815b8015610a8f5750805b1561065d5786516040810151602090910151600091610aae91906114cc565b6000805460018181018355828052835160029283026000805160206131e3833981519152810191909155602080860151600080516020613203833981519152909201919091558c5151825480840184559285528051929093026000805160206132238339815191528101929092559182015160008051602061324383398151915290910155600354908b0151805193945091926001600160a01b039091169163e4b50cb8918490610b6157610b616127cd565b60200260200101516040518263ffffffff1660e01b8152600401610b8791815260200190565b602060405180830381865afa158015610ba4573d6000803e3d6000fd5b505050506040513d601f19601f82011682018060405250810190610bc891906128a7565b9050806001600160a01b031663beabacc833308c60200151600181518110610bf257610bf26127cd565b60200260200101516040518463ffffffff1660e01b8152600401610c18939291906128c4565b6020604051808303816000875af1158015610c37573d6000803e3d6000fd5b505050506040513d601f19601f82011682018060405250810190610c5b9190612885565b965050505050505061021b565b6000805b8251811015610d2257610d036000805480602002602001604051908101604052809291908181526020016000905b82821015610ce057838290600052602060002090600202016040518060400160405290816000820154815260200160018201548152505081526020019060010190610c9a565b50505050848381518110610cf657610cf66127cd565b6020026020010151611471565b610d105750600092915050565b80610d1a81613039565b915050610c6c565b50600192915050565b60005b6010811015610df05760405163b863bd3760e01b815260048101829052600090610db79073__alt_bn128_____________________________9063b863bd3790602401602060405180830381865af4158015610d8e573d6000803e3d6000fd5b505050506040513d601f19601f82011682018060405250810190610db29190613052565b611518565b81546001818101845560009384526020938490208351600290930201918255929091015191015580610de881613039565b915050610d2e565b50565b610dfb611712565b600354602084015180516000926001600160a01b03169163e4b50cb8918490610e2657610e266127cd565b60200260200101516040518263ffffffff1660e01b8152600401610e4c91815260200190565b602060405180830381865afa158015610e69573d6000803e3d6000fd5b505050506040513d601f19601f82011682018060405250810190610e8d91906128a7565b9050806001600160a01b0316632a16cca4308660200151600181518110610eb657610eb66127cd565b60200260200101516040518363ffffffff1660e01b8152600401610eef9291906001600160a01b03929092168252602082015260400190565b6020604051808303816000875af1158015610f0e573d6000803e3d6000fd5b505050506040513d601f19601f82011682018060405250810190610f329190612885565b610f8e5760405162461bcd60e51b815260206004820152602760248201527f4465706f7369743a20556e7375636365737366756c20617070726f7665206f7060448201526632b930ba34b7b760c91b606482015260840161026e565b6005546040516314e46cbb60e31b81526001600160a01b039091169063a72365d890610fc0908790879060040161306b565b600060405180830381865afa158015610fdd573d6000803e3d6000fd5b505050506040513d6000823e601f3d908101601f19168201604052611005919081019061308d565b949350505050565b600061101c8360000151610c68565b61105b5760405162461bcd60e51b815260206004820152601060248201526f29b832b7321d1024b73b30b634b2102960811b604482015260640161026e565b606083015160208101516040909101518110806110ba5760405162461bcd60e51b815260206004820152601f60248201527f5370656e643a20696e76616c6964207472616e73616374696f6e2074696d6500604482015260640161026e565b60006111356001805480602002602001604051908101604052809291908181526020016000905b82821015611127578382906000526020600020906002020160405180604001604052908160008201548152602001600182015481525050815260200190600101906110e1565b505050508760800151611471565b1590508061117f5760405162461bcd60e51b815260206004820152601760248201527614dc195b990e881c1ad508185b1c9958591e481d5cd959604a1b604482015260640161026e565b60006111eb6002805480602002602001604051908101604052809291908181526020016000908282101561046a57838290600052602060002090600202016040518060400160405290816000820154815260200160018201548152505081526020019060010190610424565b159050806112365760405162461bcd60e51b815260206004820152601860248201527714dc195b990e881d1859d4c8185b1c9958591e481d5cd95960421b604482015260640161026e565b60075460405163de2692ad60e01b81526000916001600160a01b03169063de2692ad90611269908b908b906004016130f9565b602060405180830381865afa158015611286573d6000803e3d6000fd5b505050506040513d601f19601f820116820180604052508101906112aa9190612885565b9050806112ef5760405162461bcd60e51b815260206004820152601360248201527214dc195b990e8814dbd2dcdc0819985a5b1959606a1b604482015260640161026e565b8380156112f95750825b80156113025750815b801561130b5750805b156114635760408801516002805460018181018355600083815284519284026000805160206131838339815191528101939093556020948501516000805160206131a38339815191529093019290925560808c015181548083018355919092528151920260008051602061322383398151915281019290925590910151600080516020613243833981519152909101556113a3611725565b60005b8960c0015151811015611453576114008a60c0015182815181106113cc576113cc6127cd565b60200260200101518b60a0015183815181106113ea576113ea6127cd565b60200260200101516114cc90919063ffffffff16565b6000805460018101825590805281516000805160206131e383398151915260029092029182015560208201516000805160206132038339815191529091015591508061144b81613039565b9150506113a6565b506001965050505050505061021b565b506000979650505050505050565b6000805b83518110156114c2576114a1848281518110611493576114936127cd565b602002602001015184611612565b156114b057600191505061021b565b806114ba81613039565b915050611475565b5060009392505050565b6114d4611725565b6114dc61173f565b83518152602080850151818301528351604080840191909152908401516060830152826080836006600019fa61151157600080fd5b5092915050565b611520611725565b600061153a6000805160206131c383398151915284613134565b90506000611549600183613148565b91506000805b816115f85761155f60018561315b565b93506000805160206131c383398151915284850990506000805160206131c383398151915284820990506000805160206131c38339815191526003820890506115db8160046115bd6000805160206131c3833981519152600161315b565b6115c7919061316e565b6000805160206131c383398151915261162f565b9250806000805160206131c383398151915284850914915061154f565b505060408051808201909152918252602082015292915050565b805182516000911480156106e95750506020908101519101511490565b600061163961175d565b61164161177b565b602080835282810181905260408301819052606083018790526080830186905260a083018590528160c0846005600019fa61167b57600080fd5b5195945050505050565b6040518060800160405280611698611725565b81526020016116a5611799565b81526020016116b26117db565b81526020016116bf611808565b905290565b6040518060c001604052806116d7611725565b81526020016116e4611799565b81526020016116f16117db565b81526020016116fe611808565b815260200160608152602001606081525090565b60405180602001604052806116bf611808565b604051806040016040528060008152602001600081525090565b60405180608001604052806004906020820280368337509192915050565b6040518060c001604052806006906020820280368337509192915050565b60405180602001604052806001906020820280368337509192915050565b6040518060c001604052806117ac611725565b81526020016117b9611725565b8152602001606081526020016060815260200160008152602001600081525090565b60405180606001604052806117ee611725565b81526020016117fb611725565b8152602001606081525090565b60405180604001604052806117fb611725565b634e487b7160e01b600052604160045260246000fd5b604080519081016001600160401b03811182821017156118535761185361181b565b60405290565b60405160a081016001600160401b03811182821017156118535761185361181b565b60405160c081016001600160401b03811182821017156118535761185361181b565b604051606081016001600160401b03811182821017156118535761185361181b565b604051608081016001600160401b03811182821017156118535761185361181b565b60405160e081016001600160401b03811182821017156118535761185361181b565b604051602081016001600160401b03811182821017156118535761185361181b565b604051601f8201601f191681016001600160401b038111828210171561194d5761194d61181b565b604052919050565b60006040828403121561196757600080fd5b61196f611831565b9050813581526020820135602082015292915050565b60006040828403121561199757600080fd5b6106e98383611955565b60006001600160401b038211156119ba576119ba61181b565b5060051b60200190565b600082601f8301126119d557600080fd5b813560206119ea6119e5836119a1565b611925565b82815260069290921b84018101918181019086841115611a0957600080fd5b8286015b84811015611a2d57611a1f8882611955565b835291830191604001611a0d565b509695505050505050565b600082601f830112611a4957600080fd5b81356020611a596119e5836119a1565b82815260059290921b84018101918181019086841115611a7857600080fd5b8286015b84811015611a2d5780358352918301918301611a7c565b6001600160a01b0381168114610df057600080fd5b8035611ab381611a93565b919050565b600060c08284031215611aca57600080fd5b611ad2611859565b905081356001600160401b0380821115611aeb57600080fd5b611af7858386016119c4565b83526020840135915080821115611b0d57600080fd5b611b19858386016119c4565b6020840152611b2b8560408601611955565b60408401526080840135915080821115611b4457600080fd5b50611b5184828501611a38565b606083015250611b6360a08301611aa8565b608082015292915050565b60006101008284031215611b8157600080fd5b611b8961187b565b9050611b958383611955565b8152611ba48360408401611955565b602082015260808201356001600160401b0380821115611bc357600080fd5b611bcf858386016119c4565b604084015260a0840135915080821115611be857600080fd5b50611bf584828501611a38565b60608301525060c0820135608082015260e082013560a082015292915050565b600060a08284031215611c2757600080fd5b611c2f61189d565b9050611c3b8383611955565b8152611c4a8360408401611955565b602082015260808201356001600160401b03811115611c6857600080fd5b611c7484828501611a38565b60408301525092915050565b600060608284031215611c9257600080fd5b611c9a611831565b9050611ca68383611955565b815260408201356001600160401b03811115611cc157600080fd5b611ccd84828501611a38565b60208301525092915050565b60008060408385031215611cec57600080fd5b82356001600160401b0380821115611d0357600080fd5b611d0f86838701611ab8565b93506020850135915080821115611d2557600080fd5b9084019060a08287031215611d3957600080fd5b611d416118bf565b611d4b8784611955565b8152604083013582811115611d5f57600080fd5b611d6b88828601611b6e565b602083015250606083013582811115611d8357600080fd5b611d8f88828601611c15565b604083015250608083013582811115611da757600080fd5b611db388828601611c80565b6060830152508093505050509250929050565b600082601f830112611dd757600080fd5b611ddf6118bf565b806080840185811115611df157600080fd5b845b81811015611e0b578035845260209384019301611df3565b509095945050505050565b60008060a08385031215611e2957600080fd5b82356001600160401b03811115611e3f57600080fd5b611e4b85828601611ab8565b925050611e5b8460208501611dc6565b90509250929050565b80518252602090810151910152565b600081518084526020808501945080840160005b83811015611ead57611e9a878351611e64565b6040969096019590820190600101611e87565b509495945050505050565b600081518084526020808501945080840160005b83811015611ead57815187529582019590820190600101611ecc565b6000610100611ef8848451611e64565b6020830151611f0a6040860182611e64565b506040830151816080860152611f2282860182611e73565b915050606083015184820360a0860152611f3c8282611eb8565b915050608083015160c085015260a083015160e08501528091505092915050565b611f68828251611e64565b60006020820151611f7c6040850182611e64565b50604082015160a0608085015261100560a0850182611eb8565b611fa1828251611e64565b60006020820151606060408501526110056060850182611eb8565b611fc7828251611e64565b6000602082015160a06040850152611fe260a0850182611ee8565b905060408301518482036060860152611ffb8282611f5d565b915050606083015184820360808601526120158282611f96565b95945050505050565b6020815260006106e96020830184611fbc565b602080825282518282018190526000919060409081850190868401855b8281101561207157612061848351611e64565b928401929085019060010161204e565b5091979650505050505050565b600082601f83011261208f57600080fd5b61209761189d565b806060840185811115611df157600080fd5b600061016082840312156120bc57600080fd5b6120c46118e1565b905081356001600160401b03808211156120dd57600080fd5b6120e9858386016119c4565b835260208401359150808211156120ff57600080fd5b61210b858386016119c4565b602084015261211d8560408601611955565b604084015261212f856080860161207e565b60608401526121418560e08601611955565b608084015261012084013591508082111561215b57600080fd5b612167858386016119c4565b60a084015261014084013591508082111561218157600080fd5b5061218e848285016119c4565b60c08301525092915050565b600080604083850312156121ad57600080fd5b82356001600160401b03808211156121c457600080fd5b6121d0868387016120a9565b93506020915081850135818111156121e757600080fd5b850160808188038113156121fa57600080fd5b6122026118bf565b82358152848301358481111561221757600080fd5b6122238a828601611a38565b86830152506040830135604082015260608301358481111561224457600080fd5b83019350601f8401891361225757600080fd5b833592506122676119e5846119a1565b83815260079390931b8401850192858101908a85111561228657600080fd5b948601945b848610156122ac5761229d8b87611dc6565b8252948301949086019061228b565b60608301525095989597509495505050505050565b600081518084526020808501808196508360051b8101915082860160005b858110156120715782840389526122f7848351611f5d565b988501989350908401906001016122df565b612314828251611e64565b600060208083015160e0604086015261233060e0860182611ee8565b9050604084015185820360608701526123498282611f5d565b915050606084015185820360808701526123638282611f96565b608086015187820360a089015280518083529193508401915083830190600581901b8401850160005b828110156123ba57601f198683030184526123a8828651611f96565b9487019493870193915060010161238c565b5060a0880151955088810360c08a01526123d481876122c1565b9998505050505050505050565b6020815260006106e96020830184612309565b600081830360e081121561240757600080fd5b61240f611831565b915060c081121561241f57600080fd5b5061242861189d565b6124328484611955565b81526124418460408501611955565b60208201526124538460808501611955565b6040820152815260c08201356001600160401b03811115611cc157600080fd5b6000806040838503121561248657600080fd5b82356001600160401b038082111561249d57600080fd5b6124a9868387016123f4565b935060208501359150808211156124bf57600080fd5b90840190602082870312156124d357600080fd5b6124db611903565b8235828111156124ea57600080fd5b6124f688828601611c80565b8252508093505050509250929050565b60006020828403121561251857600080fd5b81356001600160401b0381111561252e57600080fd5b611005848285016119c4565b6000806080838503121561254d57600080fd5b82356001600160401b0381111561256357600080fd5b61256f858286016123f4565b925050611e5b846020850161207e565b60208152600082516020808401526110056040840182611f96565b600082601f8301126125ab57600080fd5b813560206125bb6119e5836119a1565b82815260059290921b840181019181810190868411156125da57600080fd5b8286015b84811015611a2d5780356001600160401b038111156125fd5760008081fd5b61260b8986838b0101611c80565b8452509183019183016125de565b600082601f83011261262a57600080fd5b8135602061263a6119e5836119a1565b82815260059290921b8401810191818101908684111561265957600080fd5b8286015b84811015611a2d5780356001600160401b0381111561267c5760008081fd5b61268a8986838b0101611c15565b84525091830191830161265d565b600080604083850312156126ab57600080fd5b82356001600160401b03808211156126c257600080fd5b6126ce868387016120a9565b935060208501359150808211156126e457600080fd5b9084019060e082870312156126f857600080fd5b61270061187b565b61270a8784611955565b815260408301358281111561271e57600080fd5b61272a88828601611b6e565b60208301525060608301358281111561274257600080fd5b61274e88828601611c15565b60408301525060808301358281111561276657600080fd5b61277288828601611c80565b60608301525060a08301358281111561278a57600080fd5b6127968882860161259a565b60808301525060c0830135828111156127ae57600080fd5b6127ba88828601612619565b60a0830152508093505050509250929050565b634e487b7160e01b600052603260045260246000fd5b6000815160c084526127f860c0850182611e73565b9050602083015184820360208601526128118282611e73565b91505060408301516128266040860182611e64565b506060830151848203608086015261283e8282611eb8565b608094909401516001600160a01b031660a09590950194909452509092915050565b60408152600061287360408301856127e3565b82810360208401526120158185611fbc565b60006020828403121561289757600080fd5b815180151581146106e957600080fd5b6000602082840312156128b957600080fd5b81516106e981611a93565b6001600160a01b039384168152919092166020820152604081019190915260600190565b8060005b600481101561290b5781518452602093840193909101906001016128ec565b50505050565b60a08152600061292460a08301856127e3565b90506106e960208301846128e8565b60006040828403121561294557600080fd5b61294d611831565b9050815181526020820151602082015292915050565b600082601f83011261297457600080fd5b815160206129846119e5836119a1565b82815260069290921b840181019181810190868411156129a357600080fd5b8286015b84811015611a2d576129b98882612933565b8352918301916040016129a7565b600082601f8301126129d857600080fd5b815160206129e86119e5836119a1565b82815260059290921b84018101918181019086841115612a0757600080fd5b8286015b84811015611a2d5780518352918301918301612a0b565b60006101008284031215612a3557600080fd5b612a3d61187b565b9050612a498383612933565b8152612a588360408401612933565b602082015260808201516001600160401b0380821115612a7757600080fd5b612a8385838601612963565b604084015260a0840151915080821115612a9c57600080fd5b50612aa9848285016129c7565b60608301525060c0820151608082015260e082015160a082015292915050565b600060a08284031215612adb57600080fd5b612ae361189d565b9050612aef8383612933565b8152612afe8360408401612933565b602082015260808201516001600160401b03811115612b1c57600080fd5b611c74848285016129c7565b600060608284031215612b3a57600080fd5b612b42611831565b9050612b4e8383612933565b815260408201516001600160401b03811115612b6957600080fd5b611ccd848285016129c7565b600060208284031215612b8757600080fd5b81516001600160401b0380821115612b9e57600080fd5b9083019060a08286031215612bb257600080fd5b612bba6118bf565b612bc48684612933565b8152604083015182811115612bd857600080fd5b612be487828601612a22565b602083015250606083015182811115612bfc57600080fd5b612c0887828601612ac9565b604083015250608083015182811115612c2057600080fd5b612c2c87828601612b28565b60608301525095945050505050565b8060005b600381101561290b578151845260209384019390910190600101612c3f565b60006101608251818552612c7482860182611e73565b91505060208301518482036020860152612c8e8282611e73565b9150506040830151612ca36040860182611e64565b506060830151612cb66080860182612c3b565b506080830151612cc960e0860182611e64565b5060a0830151848203610120860152612ce28282611e73565b91505060c08301518482036101408601526120158282611e73565b604081526000612d106040830185612c5e565b602083820381850152608085518352818601518183850152612d3482850182611eb8565b604088810151908601526060808901518683039190960152845180825290840194840191506000905b80821015612d8457612d708684516128e8565b948301949184019160019190910190612d5d565b509398975050505050505050565b600082601f830112612da357600080fd5b81516020612db36119e5836119a1565b82815260059290921b84018101918181019086841115612dd257600080fd5b8286015b84811015611a2d5780516001600160401b03811115612df55760008081fd5b612e038986838b0101612b28565b845250918301918301612dd6565b600082601f830112612e2257600080fd5b81516020612e326119e5836119a1565b82815260059290921b84018101918181019086841115612e5157600080fd5b8286015b84811015611a2d5780516001600160401b03811115612e745760008081fd5b612e828986838b0101612ac9565b845250918301918301612e55565b600060208284031215612ea257600080fd5b81516001600160401b0380821115612eb957600080fd5b9083019060e08286031215612ecd57600080fd5b612ed561187b565b612edf8684612933565b8152604083015182811115612ef357600080fd5b612eff87828601612a22565b602083015250606083015182811115612f1757600080fd5b612f2387828601612ac9565b604083015250608083015182811115612f3b57600080fd5b612f4787828601612b28565b60608301525060a083015182811115612f5f57600080fd5b612f6b87828601612d92565b60808301525060c083015182811115612f8357600080fd5b612f8f87828601612e11565b60a08301525095945050505050565b60008151612fad848251611e64565b6020810151612fbf6040860182611e64565b5060400151612fd16080850182611e64565b50602082015160e060c085015261100560e0850182611eb8565b604081526000612ffe6040830185612f9e565b82810360208401528351602082526130196020830182611f96565b9695505050505050565b634e487b7160e01b600052601160045260246000fd5b60006001820161304b5761304b613023565b5060010190565b60006020828403121561306457600080fd5b5051919050565b60808152600061307e6080830185612f9e565b90506106e96020830184612c3b565b60006020828403121561309f57600080fd5b81516001600160401b03808211156130b657600080fd5b90830190602082860312156130ca57600080fd5b6130d2611903565b8251828111156130e157600080fd5b6130ed87828601612b28565b82525095945050505050565b60408152600061310c6040830185612c5e565b82810360208401526120158185612309565b634e487b7160e01b600052601260045260246000fd5b6000826131435761314361311e565b500690565b8181038181111561021b5761021b613023565b8082018082111561021b5761021b613023565b60008261317d5761317d61311e565b50049056fe405787fa12a823e0f2b7631cc41b3ba8828b3321ca811111fa75cd3aa3bb5ace405787fa12a823e0f2b7631cc41b3ba8828b3321ca811111fa75cd3aa3bb5acf30644e72e131a029b85045b68181585d97816a916871ca8d3c208c16d87cfd47290decd9548b62a8d60345a988386fc84ba6bc95484008f6362f93160ef3e563290decd9548b62a8d60345a988386fc84ba6bc95484008f6362f93160ef3e564b10e2d527612073b26eecdfd717e6a320cf44b4afac2b0732d9fcbe2b7fa0cf6b10e2d527612073b26eecdfd717e6a320cf44b4afac2b0732d9fcbe2b7fa0cf7a26469706673582212208f98a5f90fea3f2f38fddb932d979a96078fcfd9aa4576c53938382228f85e2d64736f6c6343000813003330644e72e131a029b85045b68181585d97816a916871ca8d3c208c16d87cfd47",
  "immutableReferences": {},
  "source": "// SPDX-License-Identifier: GPL-3.0\npragma solidity >=0.4.0 <0.9.0;\n\nimport \"./lib/alt_bn128.sol\";\nimport \"./Token/Token.sol\";\nimport \"./Token/TokenRegistrar.sol\";\nimport \"./PubParam.sol\";\nimport \"./TX/SoKdp.sol\";\nimport \"./TX/SoKwd.sol\";\nimport \"./TX/SoKsp.sol\";\n\nuint constant R_size = 16;\n\ncontract Mixer {\n  \n  using alt_bn128 for uint256;\n  using alt_bn128 for alt_bn128.G1Point;\n\n  alt_bn128.G1Point[] _accs;\n  alt_bn128.G1Point[] _pks;\n  alt_bn128.G1Point[] _tags;\n\n  TokenRegistrar r;\n  PubParam pp;\n  SoKdp dp;\n  SoKwd wd;\n  SoKsp sp;\n\n  constructor (\n    address r_addr, \n    address pp_addr, \n    address dp_addr,\n    address wd_addr,\n    address sp_addr\n  ) {\n    r = TokenRegistrar(r_addr);\n    pp = PubParam(pp_addr);\n    dp = SoKdp(dp_addr);\n    wd = SoKwd(wd_addr);\n    sp = SoKsp(sp_addr);\n\n    init();\n  }\n\n  function init() public {\n    for (uint i = 0; i < R_size; i++){\n      _accs.push(alt_bn128.random(i).uintToCurvePoint());\n    }\n  }\n\n  ///////// deposit /////////\n\n  /// @dev user deposit token into mixer\n  /// @param tx_dp deposit transaction statement\n  /// @param wit witness (sk, opn, ok)\n  /// @return sig deposit signature\n  function deposit(SoKdp.TX memory tx_dp, uint256[3] memory wit) public returns (SoKdp.Sig memory sig){\n\n    Token t = Token(r.getToken(tx_dp.attrS[0]));\n\n    if (!t.isApproved(address(this), tx_dp.attrS[1])) \n      revert (\"Deposit: Unsuccessful approve operation\");\n\n    sig = dp.sign(tx_dp, wit);\n  }\n\n  /// @dev mixer process deposit request\n  /// @param tx_dp deposit transaction statement\n  /// @param sig deposit signature\n  function process_dp(SoKdp.TX memory tx_dp, SoKdp.Sig memory sig) public returns (bool) {\n    /// @dev b0  T_now  [T_begS ,T_endS)\n    // uint256 time = block.timestamp;\n    uint256 time = 0; // for testing\n    bool b0 = tx_dp.attrS[2] <= time && time < tx_dp.attrS[3]; \n    require(b0, \"Deposit: invalid transaction time\");\n\n    /// @dev b1  pk  pk\n    bool b1 = !_in(_pks, tx_dp.s.pk);\n    require(b1, \"Deposit: pk already used\");\n\n    /// @dev b2  SoKverify(L_dp)\n    bool b2 = dp.verify(tx_dp, sig);\n    require(b2, \"Deposit: SoKdp failed\");\n\n    if (b0 && b1 && b2){\n      alt_bn128.G1Point memory Cx = tx_dp.s.tcom.add(tx_dp.s.ocom);\n      _accs.push(Cx);\n      _pks.push(tx_dp.s.pk);\n      Token t = Token(r.getToken(tx_dp.attrS[0]));\n\n      /// @dev ty.transfer[owner, mixer]\n      return t.transfer(msg.sender, address(this), tx_dp.attrS[1]);\n    }\n    return false;\n  }\n\n  //////// withdraw //////////\n\n  /// @dev withdraw token from mixer\n  /// @param tx_wd withdraw transaction statement\n  /// @param wit (theta, sk, opn, ok)\n  function withdraw(SoKwd.TX memory tx_wd, uint256[4] memory wit) public view returns (SoKwd.Sig memory){\n    return wd.sign(tx_wd, wit);\n  }\n  \n  function process_wd(SoKwd.TX memory tx_wd, SoKwd.Sig memory sig) public returns (bool) {\n    if (!isValid(tx_wd.R)) revert(\"Withdraw: Invalid R\");\n\n    /// @dev b0  T_now  [T_begS ,T_endS)\n    // uint256 time = block.timestamp;\n    uint256 time = tx_wd.attrS[2]; // for testing\n    bool b0 = tx_wd.attrS[2] <= time && time < tx_wd.attrS[3];\n    require(b0, \"Withdraw: invalid transaction time\");\n\n    /// @dev b1 = verify signature\n    bool b1 = wd.verify(tx_wd, sig);\n    require (b1, \"Withdraw: SoKwd failed\");\n\n    /// @dev b2  tagS  tag\n    bool b2 = !_in(_tags, tx_wd.tag);\n    require(b2, \"Withdraw: tag already used\");\n\n    if (b0 && b1 && b2) {\n      _tags.push(tx_wd.tag);\n\n      Token t = Token(r.getToken(tx_wd.attrS[0]));\n      /// @dev ty.transfer[mixer, rcpt]\n      return t.transfer(address(this), tx_wd.u_rcpt, tx_wd.attrS[1]);\n    }\n    return false;\n  }\n\n  function spend(SoKsp.TX memory tx_sp, SoKsp.Wit memory wit) public view returns (SoKsp.Sig memory){\n    return sp.sign(tx_sp, wit);\n  }\n\n  function process_sp(SoKsp.TX memory tx_sp, SoKsp.Sig memory sig) public returns (bool) {\n    if (!isValid(tx_sp.R)) revert(\"Spend: Invalid R\");\n\n    // uint256 time = 5; // for testing\n    /// @dev b0  T_now  [T_begS ,T_endS)\n    // uint256 time = block.timestamp;\n    uint256 time = tx_sp.attrS[1]; // for testing\n    bool b0 = tx_sp.attrS[1] <= time && time < tx_sp.attrS[2]; \n    require (b0, \"Spend: invalid transaction time\");\n\n    // b1  pkT  pk\n    bool b1 = !_in(_pks, tx_sp.pk_T);\n    require(b1, \"Spend: pkT already used\");\n\n    // b2  tagS  tag\n    bool b2 = !_in(_tags, tx_sp.tagS);\n    require(b2, \"Spend: tagS already used\");\n\n    bool b3 = sp.verify(tx_sp, sig);\n    require (b3, \"Spend: SoKsp failed\");\n\n    if (b0 && b1 && b2 && b3){\n      _tags.push(tx_sp.tagS);\n      _pks.push(tx_sp.pk_T);\n\n      alt_bn128.G1Point memory acc;\n      for (uint i = 0; i < tx_sp.ocom_T.length; i++) {\n        acc = tx_sp.tcom_T[i].add(tx_sp.ocom_T[i]);\n        _accs.push(acc);\n      }\n      return true;\n    }\n    return false;\n  }\n\n  function get_accs() public view returns (alt_bn128.G1Point[] memory){\n    return _accs;\n  }\n\n  function isValid(alt_bn128.G1Point[] memory R) public view returns (bool) {\n    for (uint i = 0; i < R.length; i++) {\n      if (!_in(_accs, R[i])) return false;\n    }\n    return true;\n  }\n\n  function inAcc(alt_bn128.G1Point memory g) public view returns (bool) {\n    return _in(_accs, g);\n  }\n\n  function inTag(alt_bn128.G1Point memory g) public view returns (bool) {\n    return _in(_tags, g);\n  }\n\n  function _in(\n    alt_bn128.G1Point[] memory ls,\n    alt_bn128.G1Point memory g\n  ) private pure returns (bool) {\n    for (uint i = 0 ; i < ls.length; i++) {\n      if (alt_bn128.eq(ls[i], g)) return true;\n    }\n    return false;\n  }\n\n}\n\ncontract MixerFactory {\n  address[] _mixers;\n\n  function addMixer(address _mixer) public {\n    _mixers.push(_mixer);\n  }\n\n  function getMixers() public view returns (address[] memory) {\n    return _mixers;\n  }\n  \n}",
  "sourcePath": "/Users/qian/Desktop/Y4/COMP4550/project/XCSwap/contracts/Mixer.sol",
  "compiler": {
    "name": "solc",
    "version": "0.8.19+commit.7dd6d404.Emscripten.clang"
  },
  "schemaVersion": "3.4.13",
  "updatedAt": "2023-09-01T16:17:15.883Z",
  "networkType": "ethereum",
  "devdoc": {
    "kind": "dev",
    "methods": {
      "deposit((((uint256,uint256),(uint256,uint256),(uint256,uint256)),uint256[]),uint256[3])": {
        "details": "user deposit token into mixer",
        "params": {
          "tx_dp": "deposit transaction statement",
          "wit": "witness (sk, opn, ok)"
        },
        "returns": {
          "sig": "deposit signature"
        }
      },
      "process_dp((((uint256,uint256),(uint256,uint256),(uint256,uint256)),uint256[]),(((uint256,uint256),uint256[])))": {
        "details": "mixer process deposit request",
        "params": {
          "sig": "deposit signature",
          "tx_dp": "deposit transaction statement"
        }
      },
      "withdraw(((uint256,uint256)[],(uint256,uint256)[],(uint256,uint256),uint256[],address),uint256[4])": {
        "details": "withdraw token from mixer",
        "params": {
          "tx_wd": "withdraw transaction statement",
          "wit": "(theta, sk, opn, ok)"
        }
      }
    },
    "version": 1
  },
  "userdoc": {
    "kind": "user",
    "methods": {},
    "version": 1
  }
}