{
  "contractName": "Mixer",
  "abi": [
    {
      "inputs": [
        {
          "internalType": "address",
          "name": "r_addr",
          "type": "address"
        },
        {
          "internalType": "address",
          "name": "pp_addr",
          "type": "address"
        },
        {
          "internalType": "address",
          "name": "pe_addr",
          "type": "address"
        },
        {
          "internalType": "address",
          "name": "dr_addr",
          "type": "address"
        },
        {
          "internalType": "address",
          "name": "dg_addr",
          "type": "address"
        },
        {
          "internalType": "address",
          "name": "wd_addr",
          "type": "address"
        },
        {
          "internalType": "address",
          "name": "sp_addr",
          "type": "address"
        }
      ],
      "stateMutability": "nonpayable",
      "type": "constructor"
    },
    {
      "inputs": [
        {
          "components": [
            {
              "components": [
                {
                  "components": [
                    {
                      "internalType": "uint256",
                      "name": "X",
                      "type": "uint256"
                    },
                    {
                      "internalType": "uint256",
                      "name": "Y",
                      "type": "uint256"
                    }
                  ],
                  "internalType": "struct alt_bn128.G1Point",
                  "name": "pk",
                  "type": "tuple"
                },
                {
                  "components": [
                    {
                      "internalType": "uint256",
                      "name": "X",
                      "type": "uint256"
                    },
                    {
                      "internalType": "uint256",
                      "name": "Y",
                      "type": "uint256"
                    }
                  ],
                  "internalType": "struct alt_bn128.G1Point",
                  "name": "tcom",
                  "type": "tuple"
                },
                {
                  "components": [
                    {
                      "internalType": "uint256",
                      "name": "X",
                      "type": "uint256"
                    },
                    {
                      "internalType": "uint256",
                      "name": "Y",
                      "type": "uint256"
                    }
                  ],
                  "internalType": "struct alt_bn128.G1Point",
                  "name": "ocom",
                  "type": "tuple"
                }
              ],
              "internalType": "struct PubParam.Acc",
              "name": "s",
              "type": "tuple"
            },
            {
              "internalType": "uint256[]",
              "name": "attrS",
              "type": "uint256[]"
            }
          ],
          "internalType": "struct Mixer.TX_dp",
          "name": "tx_dp",
          "type": "tuple"
        },
        {
          "internalType": "uint256[3]",
          "name": "wit",
          "type": "uint256[3]"
        }
      ],
      "name": "deposit",
      "outputs": [
        {
          "components": [
            {
              "components": [
                {
                  "components": [
                    {
                      "internalType": "uint256",
                      "name": "X",
                      "type": "uint256"
                    },
                    {
                      "internalType": "uint256",
                      "name": "Y",
                      "type": "uint256"
                    }
                  ],
                  "internalType": "struct alt_bn128.G1Point",
                  "name": "c",
                  "type": "tuple"
                },
                {
                  "internalType": "uint256[]",
                  "name": "zs",
                  "type": "uint256[]"
                }
              ],
              "internalType": "struct PartialEquality.Sig",
              "name": "pe_sig",
              "type": "tuple"
            }
          ],
          "internalType": "struct Mixer.Sig_dp",
          "name": "sig",
          "type": "tuple"
        }
      ],
      "stateMutability": "nonpayable",
      "type": "function"
    },
    {
      "inputs": [
        {
          "components": [
            {
              "components": [
                {
                  "components": [
                    {
                      "internalType": "uint256",
                      "name": "X",
                      "type": "uint256"
                    },
                    {
                      "internalType": "uint256",
                      "name": "Y",
                      "type": "uint256"
                    }
                  ],
                  "internalType": "struct alt_bn128.G1Point",
                  "name": "pk",
                  "type": "tuple"
                },
                {
                  "components": [
                    {
                      "internalType": "uint256",
                      "name": "X",
                      "type": "uint256"
                    },
                    {
                      "internalType": "uint256",
                      "name": "Y",
                      "type": "uint256"
                    }
                  ],
                  "internalType": "struct alt_bn128.G1Point",
                  "name": "tcom",
                  "type": "tuple"
                },
                {
                  "components": [
                    {
                      "internalType": "uint256",
                      "name": "X",
                      "type": "uint256"
                    },
                    {
                      "internalType": "uint256",
                      "name": "Y",
                      "type": "uint256"
                    }
                  ],
                  "internalType": "struct alt_bn128.G1Point",
                  "name": "ocom",
                  "type": "tuple"
                }
              ],
              "internalType": "struct PubParam.Acc",
              "name": "s",
              "type": "tuple"
            },
            {
              "internalType": "uint256[]",
              "name": "attrS",
              "type": "uint256[]"
            }
          ],
          "internalType": "struct Mixer.TX_dp",
          "name": "tx_dp",
          "type": "tuple"
        },
        {
          "components": [
            {
              "components": [
                {
                  "components": [
                    {
                      "internalType": "uint256",
                      "name": "X",
                      "type": "uint256"
                    },
                    {
                      "internalType": "uint256",
                      "name": "Y",
                      "type": "uint256"
                    }
                  ],
                  "internalType": "struct alt_bn128.G1Point",
                  "name": "c",
                  "type": "tuple"
                },
                {
                  "internalType": "uint256[]",
                  "name": "zs",
                  "type": "uint256[]"
                }
              ],
              "internalType": "struct PartialEquality.Sig",
              "name": "pe_sig",
              "type": "tuple"
            }
          ],
          "internalType": "struct Mixer.Sig_dp",
          "name": "sig",
          "type": "tuple"
        }
      ],
      "name": "process_dp",
      "outputs": [
        {
          "internalType": "bool",
          "name": "",
          "type": "bool"
        }
      ],
      "stateMutability": "nonpayable",
      "type": "function"
    },
    {
      "inputs": [
        {
          "components": [
            {
              "components": [
                {
                  "internalType": "uint256",
                  "name": "X",
                  "type": "uint256"
                },
                {
                  "internalType": "uint256",
                  "name": "Y",
                  "type": "uint256"
                }
              ],
              "internalType": "struct alt_bn128.G1Point[]",
              "name": "R",
              "type": "tuple[]"
            },
            {
              "components": [
                {
                  "internalType": "uint256",
                  "name": "X",
                  "type": "uint256"
                },
                {
                  "internalType": "uint256",
                  "name": "Y",
                  "type": "uint256"
                }
              ],
              "internalType": "struct alt_bn128.G1Point",
              "name": "tag",
              "type": "tuple"
            },
            {
              "internalType": "uint256[]",
              "name": "attrS",
              "type": "uint256[]"
            },
            {
              "internalType": "address",
              "name": "u_rcpt",
              "type": "address"
            }
          ],
          "internalType": "struct Mixer.TX_wd",
          "name": "tx_wd",
          "type": "tuple"
        },
        {
          "internalType": "uint256[4]",
          "name": "wit",
          "type": "uint256[4]"
        }
      ],
      "name": "withdraw",
      "outputs": [
        {
          "components": [
            {
              "components": [
                {
                  "internalType": "uint256",
                  "name": "X",
                  "type": "uint256"
                },
                {
                  "internalType": "uint256",
                  "name": "Y",
                  "type": "uint256"
                }
              ],
              "internalType": "struct alt_bn128.G1Point",
              "name": "acc_d",
              "type": "tuple"
            },
            {
              "components": [
                {
                  "internalType": "uint256",
                  "name": "z",
                  "type": "uint256"
                },
                {
                  "components": [
                    {
                      "internalType": "uint256",
                      "name": "X",
                      "type": "uint256"
                    },
                    {
                      "internalType": "uint256",
                      "name": "Y",
                      "type": "uint256"
                    }
                  ],
                  "internalType": "struct alt_bn128.G1Point",
                  "name": "R",
                  "type": "tuple"
                },
                {
                  "components": [
                    {
                      "components": [
                        {
                          "internalType": "uint256",
                          "name": "X",
                          "type": "uint256"
                        },
                        {
                          "internalType": "uint256",
                          "name": "Y",
                          "type": "uint256"
                        }
                      ],
                      "internalType": "struct alt_bn128.G1Point[]",
                      "name": "Ls",
                      "type": "tuple[]"
                    },
                    {
                      "components": [
                        {
                          "internalType": "uint256",
                          "name": "X",
                          "type": "uint256"
                        },
                        {
                          "internalType": "uint256",
                          "name": "Y",
                          "type": "uint256"
                        }
                      ],
                      "internalType": "struct alt_bn128.G1Point[]",
                      "name": "Rs",
                      "type": "tuple[]"
                    },
                    {
                      "internalType": "uint256",
                      "name": "a",
                      "type": "uint256"
                    },
                    {
                      "internalType": "uint256",
                      "name": "b",
                      "type": "uint256"
                    }
                  ],
                  "internalType": "struct NISA.Sig",
                  "name": "nisa_sig",
                  "type": "tuple"
                }
              ],
              "internalType": "struct DualRingEC.SigEC",
              "name": "dr_sig",
              "type": "tuple"
            },
            {
              "components": [
                {
                  "components": [
                    {
                      "internalType": "uint256",
                      "name": "X",
                      "type": "uint256"
                    },
                    {
                      "internalType": "uint256",
                      "name": "Y",
                      "type": "uint256"
                    }
                  ],
                  "internalType": "struct alt_bn128.G1Point",
                  "name": "cx",
                  "type": "tuple"
                },
                {
                  "components": [
                    {
                      "internalType": "uint256",
                      "name": "X",
                      "type": "uint256"
                    },
                    {
                      "internalType": "uint256",
                      "name": "Y",
                      "type": "uint256"
                    }
                  ],
                  "internalType": "struct alt_bn128.G1Point",
                  "name": "cy",
                  "type": "tuple"
                },
                {
                  "internalType": "uint256[]",
                  "name": "zs",
                  "type": "uint256[]"
                }
              ],
              "internalType": "struct DiffGenEqual.Sig",
              "name": "dg_sig",
              "type": "tuple"
            },
            {
              "components": [
                {
                  "components": [
                    {
                      "internalType": "uint256",
                      "name": "X",
                      "type": "uint256"
                    },
                    {
                      "internalType": "uint256",
                      "name": "Y",
                      "type": "uint256"
                    }
                  ],
                  "internalType": "struct alt_bn128.G1Point",
                  "name": "c",
                  "type": "tuple"
                },
                {
                  "internalType": "uint256[]",
                  "name": "zs",
                  "type": "uint256[]"
                }
              ],
              "internalType": "struct PartialEquality.Sig",
              "name": "pe_sig",
              "type": "tuple"
            }
          ],
          "internalType": "struct Mixer.Sig_wd",
          "name": "sig",
          "type": "tuple"
        }
      ],
      "stateMutability": "view",
      "type": "function"
    },
    {
      "inputs": [
        {
          "components": [
            {
              "components": [
                {
                  "internalType": "uint256",
                  "name": "X",
                  "type": "uint256"
                },
                {
                  "internalType": "uint256",
                  "name": "Y",
                  "type": "uint256"
                }
              ],
              "internalType": "struct alt_bn128.G1Point[]",
              "name": "R",
              "type": "tuple[]"
            },
            {
              "components": [
                {
                  "internalType": "uint256",
                  "name": "X",
                  "type": "uint256"
                },
                {
                  "internalType": "uint256",
                  "name": "Y",
                  "type": "uint256"
                }
              ],
              "internalType": "struct alt_bn128.G1Point",
              "name": "tag",
              "type": "tuple"
            },
            {
              "internalType": "uint256[]",
              "name": "attrS",
              "type": "uint256[]"
            },
            {
              "internalType": "address",
              "name": "u_rcpt",
              "type": "address"
            }
          ],
          "internalType": "struct Mixer.TX_wd",
          "name": "tx_wd",
          "type": "tuple"
        },
        {
          "components": [
            {
              "components": [
                {
                  "internalType": "uint256",
                  "name": "X",
                  "type": "uint256"
                },
                {
                  "internalType": "uint256",
                  "name": "Y",
                  "type": "uint256"
                }
              ],
              "internalType": "struct alt_bn128.G1Point",
              "name": "acc_d",
              "type": "tuple"
            },
            {
              "components": [
                {
                  "internalType": "uint256",
                  "name": "z",
                  "type": "uint256"
                },
                {
                  "components": [
                    {
                      "internalType": "uint256",
                      "name": "X",
                      "type": "uint256"
                    },
                    {
                      "internalType": "uint256",
                      "name": "Y",
                      "type": "uint256"
                    }
                  ],
                  "internalType": "struct alt_bn128.G1Point",
                  "name": "R",
                  "type": "tuple"
                },
                {
                  "components": [
                    {
                      "components": [
                        {
                          "internalType": "uint256",
                          "name": "X",
                          "type": "uint256"
                        },
                        {
                          "internalType": "uint256",
                          "name": "Y",
                          "type": "uint256"
                        }
                      ],
                      "internalType": "struct alt_bn128.G1Point[]",
                      "name": "Ls",
                      "type": "tuple[]"
                    },
                    {
                      "components": [
                        {
                          "internalType": "uint256",
                          "name": "X",
                          "type": "uint256"
                        },
                        {
                          "internalType": "uint256",
                          "name": "Y",
                          "type": "uint256"
                        }
                      ],
                      "internalType": "struct alt_bn128.G1Point[]",
                      "name": "Rs",
                      "type": "tuple[]"
                    },
                    {
                      "internalType": "uint256",
                      "name": "a",
                      "type": "uint256"
                    },
                    {
                      "internalType": "uint256",
                      "name": "b",
                      "type": "uint256"
                    }
                  ],
                  "internalType": "struct NISA.Sig",
                  "name": "nisa_sig",
                  "type": "tuple"
                }
              ],
              "internalType": "struct DualRingEC.SigEC",
              "name": "dr_sig",
              "type": "tuple"
            },
            {
              "components": [
                {
                  "components": [
                    {
                      "internalType": "uint256",
                      "name": "X",
                      "type": "uint256"
                    },
                    {
                      "internalType": "uint256",
                      "name": "Y",
                      "type": "uint256"
                    }
                  ],
                  "internalType": "struct alt_bn128.G1Point",
                  "name": "cx",
                  "type": "tuple"
                },
                {
                  "components": [
                    {
                      "internalType": "uint256",
                      "name": "X",
                      "type": "uint256"
                    },
                    {
                      "internalType": "uint256",
                      "name": "Y",
                      "type": "uint256"
                    }
                  ],
                  "internalType": "struct alt_bn128.G1Point",
                  "name": "cy",
                  "type": "tuple"
                },
                {
                  "internalType": "uint256[]",
                  "name": "zs",
                  "type": "uint256[]"
                }
              ],
              "internalType": "struct DiffGenEqual.Sig",
              "name": "dg_sig",
              "type": "tuple"
            },
            {
              "components": [
                {
                  "components": [
                    {
                      "internalType": "uint256",
                      "name": "X",
                      "type": "uint256"
                    },
                    {
                      "internalType": "uint256",
                      "name": "Y",
                      "type": "uint256"
                    }
                  ],
                  "internalType": "struct alt_bn128.G1Point",
                  "name": "c",
                  "type": "tuple"
                },
                {
                  "internalType": "uint256[]",
                  "name": "zs",
                  "type": "uint256[]"
                }
              ],
              "internalType": "struct PartialEquality.Sig",
              "name": "pe_sig",
              "type": "tuple"
            }
          ],
          "internalType": "struct Mixer.Sig_wd",
          "name": "sig",
          "type": "tuple"
        }
      ],
      "name": "process_wd",
      "outputs": [
        {
          "internalType": "bool",
          "name": "",
          "type": "bool"
        }
      ],
      "stateMutability": "nonpayable",
      "type": "function"
    },
    {
      "inputs": [],
      "name": "spend",
      "outputs": [
        {
          "internalType": "bool",
          "name": "",
          "type": "bool"
        }
      ],
      "stateMutability": "nonpayable",
      "type": "function"
    }
  ],
  "bytecode": "0x60806040523480156200001157600080fd5b50604051620036ab380380620036ab8339810160408190526200003491620000d3565b600380546001600160a01b03199081166001600160a01b03998a161790915560048054821697891697909717909655600580548716958816959095179094556006805486169387169390931790925560078054851691861691909117905560088054841691851691909117905560098054909216921691909117905562000168565b80516001600160a01b0381168114620000ce57600080fd5b919050565b600080600080600080600060e0888a031215620000ef57600080fd5b620000fa88620000b6565b96506200010a60208901620000b6565b95506200011a60408901620000b6565b94506200012a60608901620000b6565b93506200013a60808901620000b6565b92506200014a60a08901620000b6565b91506200015a60c08901620000b6565b905092959891949750929550565b61353380620001786000396000f3fe608060405234801561001057600080fd5b50600436106100575760003560e01c806345615bcc1461005c578063a767730a14610074578063b7d6044914610094578063dc519658146100a7578063fb965dc1146100ba575b600080fd5b60005b60405190151581526020015b60405180910390f35b6100876100823660046126a7565b6100da565b60405161006b9190612897565b61005f6100a23660046129e1565b610aa0565b61005f6100b5366004612af5565b611148565b6100cd6100c8366004612c8a565b611493565b60405161006b9190612ced565b6100e2612314565b600480546020840151604051639766247160e01b815292830152610160916001600160a01b03909116906397662471906024016040805180830381865afa158015610131573d6000803e3d6000fd5b505050506040513d601f19601f820116820180604052508101906101559190612d4e565b602085015190611973565b61019f5760405162461bcd60e51b815260206004820152600b60248201526a546167206d61746368657360a81b60448201526064015b60405180910390fd5b6000600460009054906101000a90046001600160a01b03166001600160a01b0316632e52d6066040518163ffffffff1660e01b8152600401602060405180830381865afa1580156101f4573d6000803e3d6000fd5b505050506040513d601f19601f820116820180604052508101906102189190612d6a565b604085015151909150600061022d8284612d99565b90506000836001600160401b0381111561024957610249612428565b604051908082528060200260200182016040528015610272578160200160208202803683370190505b5090506000846001600160401b0381111561028f5761028f612428565b6040519080825280602002602001820160405280156102b8578160200160208202803683370190505b5090506000836001600160401b038111156102d5576102d5612428565b6040519080825280602002602001820160405280156102fe578160200160208202803683370190505b50905060005b85811015610395578960400151818151811061032257610322612d08565b602002602001015184828151811061033c5761033c612d08565b6020026020010181815250508960400151818151811061035e5761035e612d08565b602002602001015183828151811061037857610378612d08565b60209081029190910101528061038d81612dac565b915050610304565b5060005b8481101561042157886103ad826001612dc5565b600481106103bd576103bd612d08565b6020020151846103cd8389612dc5565b815181106103dd576103dd612d08565b60209081029190910101526103f28187612dc5565b82828151811061040457610404612d08565b60209081029190910101528061041981612dac565b915050610399565b5073__alt_bn128_____________________________635ec01e4d6040518163ffffffff1660e01b8152600401602060405180830381865af415801561046b573d6000803e3d6000fd5b505050506040513d601f19601f8201168201806040525081019061048f9190612d6a565b8361049b600189612d99565b815181106104ab576104ab612d08565b6020908102919091010152600480546040516338e0cdcb60e11b81526000926001600160a01b03909216916371c19b96916104e891889101612dd8565b6040805180830381865afa158015610504573d6000803e3d6000fd5b505050506040513d601f19601f820116820180604052508101906105289190612d4e565b808952905060005b8a51518110156105a25761057061054683611995565b8c5180518490811061055a5761055a612d08565b6020026020010151611a1990919063ffffffff16565b8b5180518390811061058457610584612d08565b6020026020010181905250808061059a90612dac565b915050610530565b50600654600480546040805163eef6a68160e01b815281516000956001600160a01b039081169563504af2ae959091169363eef6a68193808301939192908290030181865afa1580156105f9573d6000803e3d6000fd5b505050506040513d601f19601f8201168201806040525081019061061d9190612d4e565b8d51600480546040805163b8c9d36560e01b815281516001600160a01b039093169363b8c9d3659382820193929091908290030181865afa158015610666573d6000803e3d6000fd5b505050506040513d601f19601f8201168201806040525081019061068a9190612d4e565b6040518463ffffffff1660e01b81526004016106a893929190612e25565b600060405180830381865afa1580156106c5573d6000803e3d6000fd5b505050506040513d6000823e601f3d908101601f191682016040526106ed9190810190612eb8565b905060008b606001516040516020016107069190612f76565b60408051601f198184030181528282019091529150600090806107648961072e60018f612d99565b8151811061073e5761073e612d08565b60200260200101518f60036004811061075957610759612d08565b602002015190611a65565b81528d51602090910152600654604051634f30e73160e11b81529192506001600160a01b031690639e61ce62906107a39086908690869060040161301a565b600060405180830381865afa1580156107c0573d6000803e3d6000fd5b505050506040513d6000823e601f3d908101601f191682016040526107e89190810190613075565b60208c01526007546004805460408051632d74e53160e01b815281516001600160a01b039586169563ff9cfea995941693632d74e5319383820193909291908290030181865afa158015610840573d6000803e3d6000fd5b505050506040513d601f19601f820116820180604052508101906108649190612d4e565b600480546040805162e71aaf60e01b815290516001600160a01b039092169262e71aaf9282820192600092908290030181865afa1580156108a9573d6000803e3d6000fd5b505050506040513d6000823e601f3d908101601f191682016040526108d19190810190613168565b600480546040805163babe4fe560e01b815290516001600160a01b039092169263babe4fe59282820192602092908290030181865afa158015610918573d6000803e3d6000fd5b505050506040513d601f19601f8201168201806040525081019061093c9190612d6a565b8b6040518563ffffffff1660e01b815260040161095c949392919061319c565b600060405180830381865afa158015610979573d6000803e3d6000fd5b505050506040513d6000823e601f3d908101601f191682016040526109a1919081019061323a565b60408c81019190915260055460048054835162e71aaf60e01b815293516001600160a01b03938416946319d54992949092169262e71aaf928082019260009290918290030181865afa1580156109fb573d6000803e3d6000fd5b505050506040513d6000823e601f3d908101601f19168201604052610a239190810190613168565b8989896040518563ffffffff1660e01b8152600401610a4594939291906132ca565b600060405180830381865afa158015610a62573d6000803e3d6000fd5b505050506040513d6000823e601f3d908101601f19168201604052610a8a9190810190613317565b60608c015250989b9a5050505050505050505050565b6000804290506000818560200151600281518110610ac057610ac0612d08565b602002602001015111158015610af357508460200151600381518110610ae857610ae8612d08565b602002602001015182105b90506000610b706001805480602002602001604051908101604052809291908181526020016000905b82821015610b6257838290600052602060002090600202016040518060400160405290816000820154815260200160018201548152505081526020019060010190610b1c565b50508951519150611ab39050565b8651604081015160209091015191159250600091610b8d91611a19565b90506000600460009054906101000a90046001600160a01b03166001600160a01b0316632e52d6066040518163ffffffff1660e01b8152600401602060405180830381865afa158015610be4573d6000803e3d6000fd5b505050506040513d601f19601f82011682018060405250810190610c089190612d6a565b6001600160401b03811115610c1f57610c1f612428565b604051908082528060200260200182016040528015610c48578160200160208202803683370190505b50905060005b886020015151811015610ca85788602001518181518110610c7157610c71612d08565b6020026020010151828281518110610c8b57610c8b612d08565b602090810291909101015280610ca081612dac565b915050610c4e565b50600480546040516338e0cdcb60e11b81526000926001600160a01b03909216916371c19b9691610cdb91869101612dd8565b6040805180830381865afa158015610cf7573d6000803e3d6000fd5b505050506040513d601f19601f82011682018060405250810190610d1b9190612d4e565b90506000896020015151600460009054906101000a90046001600160a01b03166001600160a01b0316632e52d6066040518163ffffffff1660e01b8152600401602060405180830381865afa158015610d78573d6000803e3d6000fd5b505050506040513d601f19601f82011682018060405250810190610d9c9190612d6a565b610da69190612d99565b6001600160401b03811115610dbd57610dbd612428565b604051908082528060200260200182016040528015610de6578160200160208202803683370190505b50905060005b8151811015610e345760208b015151610e059082612dc5565b828281518110610e1757610e17612d08565b602090810291909101015280610e2c81612dac565b915050610dec565b50600554600480546040805162e71aaf60e01b815290516000946001600160a01b0390811694633ef87f26949091169262e71aaf928183019288928290030181865afa158015610e88573d6000803e3d6000fd5b505050506040513d6000823e601f3d908101601f19168201604052610eb09190810190613168565b8c516040516001600160e01b031960e085901b168152610ed9929187918b918a91600401613395565b602060405180830381865afa158015610ef6573d6000803e3d6000fd5b505050506040513d601f19601f82011682018060405250810190610f1a91906133f4565b9050868015610f265750855b8015610f2f5750805b15611135576000805460018181018355828052875160029283027f290decd9548b62a8d60345a988386fc84ba6bc95484008f6362f93160ef3e5638101919091556020808a01517f290decd9548b62a8d60345a988386fc84ba6bc95484008f6362f93160ef3e564909201919091558e5151825480840184559285528051929093027fb10e2d527612073b26eecdfd717e6a320cf44b4afac2b0732d9fcbe2b7fa0cf6810192909255918201517fb10e2d527612073b26eecdfd717e6a320cf44b4afac2b0732d9fcbe2b7fa0cf790910155600354908d015180516001600160a01b039092169163e4b50cb89190849061102b5761102b612d08565b60200260200101516040518263ffffffff1660e01b815260040161105191815260200190565b602060405180830381865afa15801561106e573d6000803e3d6000fd5b505050506040513d601f19601f820116820180604052508101906110929190613416565b9050806001600160a01b031663beabacc833308f602001516001815181106110bc576110bc612d08565b60200260200101516040518463ffffffff1660e01b81526004016110e293929190613433565b6020604051808303816000875af1158015611101573d6000803e3d6000fd5b505050506040513d601f19601f8201168201806040525081019061112591906133f4565b9950505050505050505050611142565b6000985050505050505050505b92915050565b600080429050600081856040015160028151811061116857611168612d08565b60200260200101511115801561119b5750846040015160038151811061119057611190612d08565b602002602001015182105b905060005b855151811015611200576111ce6111ba8660000151611995565b875180518490811061055a5761055a612d08565b86518051839081106111e2576111e2612d08565b602002602001018190525080806111f890612dac565b9150506111a0565b50600061120d8686611b0e565b90508061124f5760405162461bcd60e51b815260206004820152601060248201526f1cda59db985d1d5c994819985a5b195960821b6044820152606401610196565b60006112ca6002805480602002602001604051908101604052809291908181526020016000905b828210156112bc57838290600052602060002090600202016040518060400160405290816000820154815260200160018201548152505081526020019060010190611276565b505050508860200151611ab3565b1590508280156112d75750815b80156112e05750805b15611486576020808801516002805460018101825560008281528351919092027f405787fa12a823e0f2b7631cc41b3ba8828b3321ca811111fa75cd3aa3bb5ace81019190915591909201517f405787fa12a823e0f2b7631cc41b3ba8828b3321ca811111fa75cd3aa3bb5acf90910155600354604089015180516001600160a01b039092169163e4b50cb89190849061137c5761137c612d08565b60200260200101516040518263ffffffff1660e01b81526004016113a291815260200190565b602060405180830381865afa1580156113bf573d6000803e3d6000fd5b505050506040513d601f19601f820116820180604052508101906113e39190613416565b9050806001600160a01b031663beabacc8308a606001518b6040015160018151811061141157611411612d08565b60200260200101516040518463ffffffff1660e01b815260040161143793929190613433565b6020604051808303816000875af1158015611456573d6000803e3d6000fd5b505050506040513d601f19601f8201168201806040525081019061147a91906133f4565b95505050505050611142565b5060009695505050505050565b61149b612353565b600354602084015180516000926001600160a01b03169163e4b50cb89184906114c6576114c6612d08565b60200260200101516040518263ffffffff1660e01b81526004016114ec91815260200190565b602060405180830381865afa158015611509573d6000803e3d6000fd5b505050506040513d601f19601f8201168201806040525081019061152d9190613416565b9050806001600160a01b031663095ea7b330866020015160018151811061155657611556612d08565b60200260200101516040518363ffffffff1660e01b815260040161158f9291906001600160a01b03929092168252602082015260400190565b6020604051808303816000875af11580156115ae573d6000803e3d6000fd5b505050506040513d601f19601f820116820180604052508101906115d291906133f4565b61161e5760405162461bcd60e51b815260206004820152601e60248201527f556e7375636365737366756c20617070726f7665206f7065726174696f6e00006044820152606401610196565b6000600460009054906101000a90046001600160a01b03166001600160a01b0316632e52d6066040518163ffffffff1660e01b8152600401602060405180830381865afa158015611673573d6000803e3d6000fd5b505050506040513d601f19601f820116820180604052508101906116979190612d6a565b90506000816001600160401b038111156116b3576116b3612428565b6040519080825280602002602001820160405280156116dc578160200160208202803683370190505b5090506000826001600160401b038111156116f9576116f9612428565b604051908082528060200260200182016040528015611722578160200160208202803683370190505b5060408051600380825260808201909252919250600091906020820160608036833701905050905060005b8860200151518110156117e3578860200151818151811061177057611770612d08565b602002602001015184828151811061178a5761178a612d08565b602002602001018181525050886020015181815181106117ac576117ac612d08565b60200260200101518382815181106117c6576117c6612d08565b6020908102919091010152806117db81612dac565b91505061174d565b5060005b60038110156118755787816003811061180257611802612d08565b6020020151848a6020015151836118199190612dc5565b8151811061182957611829612d08565b602002602001018181525050886020015151816118469190612dc5565b82828151811061185857611858612d08565b60209081029190910101528061186d81612dac565b9150506117e7565b50600554600480546040805162e71aaf60e01b815290516000946001600160a01b03908116946319d54992949091169262e71aaf928183019288928290030181865afa1580156118c9573d6000803e3d6000fd5b505050506040513d6000823e601f3d908101601f191682016040526118f19190810190613168565b8686866040518563ffffffff1660e01b815260040161191394939291906132ca565b600060405180830381865afa158015611930573d6000803e3d6000fd5b505050506040513d6000823e601f3d908101601f191682016040526119589190810190613317565b60408051602081019091529081529998505050505050505050565b8051825160009114801561198e575081602001518360200151145b9392505050565b61199d612366565b81511580156119ae57506020820151155b156119cc575050604080518082019091526000808252602082015290565b60405180604001604052808360000151815260200183602001517f30644e72e131a029b85045b68181585d97816a916871ca8d3c208c16d87cfd47611a119190612d99565b905292915050565b611a21612366565b611a29612380565b83518152602080850151818301528351604080840191909152908401516060830152826080836006600019fa611a5e57600080fd5b5092915050565b600081831015611aa95782611a9a837f30644e72e131a029b85045b68181585d2833e84879b9709143e1f593f0000001612d99565b611aa49190612dc5565b61198e565b61198e8284612d99565b6000805b8351811015611b0457611ae3848281518110611ad557611ad5612d08565b602002602001015184611973565b15611af2576001915050611142565b80611afc81612dac565b915050611ab7565b5060009392505050565b600654600480546040805163eef6a68160e01b8152815160009586956001600160a01b039182169563504af2ae9592169363eef6a68193818301939290918290030181865afa158015611b65573d6000803e3d6000fd5b505050506040513d601f19601f82011682018060405250810190611b899190612d4e565b8651600480546040805163b8c9d36560e01b815281516001600160a01b039093169363b8c9d3659382820193929091908290030181865afa158015611bd2573d6000803e3d6000fd5b505050506040513d601f19601f82011682018060405250810190611bf69190612d4e565b6040518463ffffffff1660e01b8152600401611c1493929190612e25565b600060405180830381865afa158015611c31573d6000803e3d6000fd5b505050506040513d6000823e601f3d908101601f19168201604052611c599190810190612eb8565b905060008460600151604051602001611c729190612f76565b60408051601f1981840301815290829052600654602087015162ea484b60e71b84529193506000926001600160a01b0390911691637524258091611cbd918791879190600401613457565b602060405180830381865afa158015611cda573d6000803e3d6000fd5b505050506040513d601f19601f82011682018060405250810190611cfe91906133f4565b905080611d4c5760405162461bcd60e51b815260206004820152601c60248201527b52696e67207369676e617475726520646f6573206e6f74207061737360201b6044820152606401610196565b6007546004805460408051632d74e53160e01b815281516000956001600160a01b039081169563d9502f759590911693632d74e53193808301939192908290030181865afa158015611da2573d6000803e3d6000fd5b505050506040513d601f19601f82011682018060405250810190611dc69190612d4e565b600480546040805162e71aaf60e01b815290516001600160a01b039092169262e71aaf9282820192600092908290030181865afa158015611e0b573d6000803e3d6000fd5b505050506040513d6000823e601f3d908101601f19168201604052611e339190810190613168565b60048b602001518b600001518c604001516040518763ffffffff1660e01b8152600401611e659695949392919061349a565b602060405180830381865afa158015611e82573d6000803e3d6000fd5b505050506040513d601f19601f82011682018060405250810190611ea691906133f4565b905080611f045760405162461bcd60e51b815260206004820152602660248201527f446966662047656e20457175616c207369676e617475726520646f6573206e6f60448201526574207061737360d01b6064820152608401610196565b6000600460009054906101000a90046001600160a01b03166001600160a01b0316632e52d6066040518163ffffffff1660e01b8152600401602060405180830381865afa158015611f59573d6000803e3d6000fd5b505050506040513d601f19601f82011682018060405250810190611f7d9190612d6a565b6001600160401b03811115611f9457611f94612428565b604051908082528060200260200182016040528015611fbd578160200160208202803683370190505b50905060005b88604001515181101561201d5788604001518181518110611fe657611fe6612d08565b602002602001015182828151811061200057612000612d08565b60209081029190910101528061201581612dac565b915050611fc3565b50600480546040516338e0cdcb60e11b81526000926001600160a01b03909216916371c19b969161205091869101612dd8565b6040805180830381865afa15801561206c573d6000803e3d6000fd5b505050506040513d601f19601f820116820180604052508101906120909190612d4e565b90506000896040015151600460009054906101000a90046001600160a01b03166001600160a01b0316632e52d6066040518163ffffffff1660e01b8152600401602060405180830381865afa1580156120ed573d6000803e3d6000fd5b505050506040513d601f19601f820116820180604052508101906121119190612d6a565b61211b9190612d99565b6001600160401b0381111561213257612132612428565b60405190808252806020026020018201604052801561215b578160200160208202803683370190505b50905060005b81518110156121a95760408b01515161217a9082612dc5565b82828151811061218c5761218c612d08565b6020908102919091010152806121a181612dac565b915050612161565b50600554600480546040805162e71aaf60e01b815290516000946001600160a01b0390811694633ef87f26949091169262e71aaf928183019288928290030181865afa1580156121fd573d6000803e3d6000fd5b505050506040513d6000823e601f3d908101601f191682016040526122259190810190613168565b848d60000151878f606001516040518663ffffffff1660e01b8152600401612251959493929190613395565b602060405180830381865afa15801561226e573d6000803e3d6000fd5b505050506040513d601f19601f8201168201806040525081019061229291906133f4565b9050806122f25760405162461bcd60e51b815260206004820152602860248201527f5061727469616c20457175616c697479207369676e617475726520646f6573206044820152676e6f74207061737360c01b6064820152608401610196565b8580156122fc5750845b80156123055750805b9b9a5050505050505050505050565b6040518060800160405280612327612366565b815260200161233461239e565b81526020016123416123e8565b815260200161234e612415565b905290565b604051806020016040528061234e612415565b604051806040016040528060008152602001600081525090565b60405180608001604052806004906020820280368337509192915050565b6040518060600160405280600081526020016123b8612366565b815260200161234e6040518060800160405280606081526020016060815260200160008152602001600081525090565b60405180606001604052806123fb612366565b8152602001612408612366565b8152602001606081525090565b6040518060400160405280612408612366565b634e487b7160e01b600052604160045260246000fd5b604080519081016001600160401b038111828210171561246057612460612428565b60405290565b604051608081016001600160401b038111828210171561246057612460612428565b604051606081016001600160401b038111828210171561246057612460612428565b604051601f8201601f191681016001600160401b03811182821017156124d2576124d2612428565b604052919050565b60006001600160401b038211156124f3576124f3612428565b5060051b60200190565b60006040828403121561250f57600080fd5b61251761243e565b9050813581526020820135602082015292915050565b600082601f83011261253e57600080fd5b8135602061255361254e836124da565b6124aa565b82815260069290921b8401810191818101908684111561257257600080fd5b8286015b848110156125965761258888826124fd565b835291830191604001612576565b509695505050505050565b600082601f8301126125b257600080fd5b813560206125c261254e836124da565b82815260059290921b840181019181810190868411156125e157600080fd5b8286015b8481101561259657803583529183019183016125e5565b6001600160a01b038116811461261157600080fd5b50565b600060a0828403121561262657600080fd5b61262e612466565b905081356001600160401b038082111561264757600080fd5b6126538583860161252d565b835261266285602086016124fd565b6020840152606084013591508082111561267b57600080fd5b50612688848285016125a1565b604083015250608082013561269c816125fc565b606082015292915050565b60008060a083850312156126ba57600080fd5b82356001600160401b038111156126d057600080fd5b6126dc85828601612614565b925050602084603f8501126126f057600080fd5b6126f8612466565b8060a086018781111561270a57600080fd5b8387015b81811015612725578035845292840192840161270e565b509497909650945050505050565b80518252602090810151910152565b600081518084526020808501945080840160005b8381101561277c57612769878351612733565b6040969096019590820190600101612756565b509495945050505050565b805182526000602082015161279f6020850182612733565b5060408201516080606085015280516080808601526127c2610100860182612742565b90506020820151607f198683030160a08701526127df8282612742565b604084015160c088015260609093015160e090960195909552509392505050565b600081518084526020808501945080840160005b8381101561277c57815187529582019590820190600101612814565b61283b828251612733565b6000602082015161284f6040850182612733565b50604082015160a0608085015261286960a0850182612800565b949350505050565b61287c828251612733565b60006020820151606060408501526128696060850182612800565b602081526128a9602082018351612733565b6000602083015160a060608401526128c460c0840182612787565b90506040840151601f19808584030160808601526128e28383612830565b925060608601519150808584030160a0860152506129008282612871565b95945050505050565b600081830360e081121561291c57600080fd5b61292461243e565b915060c081121561293457600080fd5b5061293d612488565b61294784846124fd565b815261295684604085016124fd565b602082015261296884608085016124fd565b6040820152815260c08201356001600160401b0381111561298857600080fd5b612994848285016125a1565b60208301525092915050565b6000606082840312156129b257600080fd5b6129ba61243e565b90506129c683836124fd565b815260408201356001600160401b0381111561298857600080fd5b600080604083850312156129f457600080fd5b82356001600160401b0380821115612a0b57600080fd5b612a1786838701612909565b93506020850135915080821115612a2d57600080fd5b9084019060208287031215612a4157600080fd5b604051602081018181108382111715612a5c57612a5c612428565b604052823582811115612a6e57600080fd5b612a7a888286016129a0565b8252508093505050509250929050565b600060a08284031215612a9c57600080fd5b612aa4612488565b9050612ab083836124fd565b8152612abf83604084016124fd565b602082015260808201356001600160401b03811115612add57600080fd5b612ae9848285016125a1565b60408301525092915050565b6000806040808486031215612b0957600080fd5b83356001600160401b0380821115612b2057600080fd5b612b2c87838801612614565b9450602091508186013581811115612b4357600080fd5b860160a08189031215612b5557600080fd5b612b5d612466565b612b6789836124fd565b81528482013583811115612b7a57600080fd5b82016080818b031215612b8c57600080fd5b612b94612488565b81358152612ba48b8784016124fd565b86820152606082013585811115612bba57600080fd5b91909101906080828c031215612bcf57600080fd5b612bd7612466565b823586811115612be657600080fd5b612bf28d82860161252d565b8252508683013586811115612c0657600080fd5b612c128d82860161252d565b82890152508288013588820152606092830135838201528188015294820194909452928101359282841115612c4657600080fd5b612c5289858401612a8a565b858201526080820135945082851115612c6a57600080fd5b612c76898684016129a0565b606082015280955050505050509250929050565b60008060808385031215612c9d57600080fd5b82356001600160401b03811115612cb357600080fd5b612cbf85828601612909565b925050602084603f850112612cd357600080fd5b612cdb612488565b80608086018781111561270a57600080fd5b60208152600082516020808401526128696040840182612871565b634e487b7160e01b600052603260045260246000fd5b600060408284031215612d3057600080fd5b612d3861243e565b9050815181526020820151602082015292915050565b600060408284031215612d6057600080fd5b61198e8383612d1e565b600060208284031215612d7c57600080fd5b5051919050565b634e487b7160e01b600052601160045260246000fd5b8181038181111561114257611142612d83565b600060018201612dbe57612dbe612d83565b5060010190565b8082018082111561114257611142612d83565b60208152600061198e6020830184612800565b600081518084526020808501945080840160005b8381101561277c57612e12878351612733565b6040969096019590820190600101612dff565b612e2f8185612733565b60a060408201526000612e4560a0830185612deb565b90506128696060830184612733565b600082601f830112612e6557600080fd5b81516020612e7561254e836124da565b82815260069290921b84018101918181019086841115612e9457600080fd5b8286015b8481101561259657612eaa8882612d1e565b835291830191604001612e98565b600060208284031215612eca57600080fd5b81516001600160401b0380821115612ee157600080fd5b9083019060608286031215612ef557600080fd5b612efd61243e565b825182811115612f0c57600080fd5b830160608188031215612f1e57600080fd5b612f2661243e565b612f308883612d1e565b8152604082015184811115612f4457600080fd5b612f5089828501612e54565b6020830152508083525050612f688660208501612d1e565b602082015295945050505050565b6001600160a01b0391909116815260200190565b6000815160608452612fa0606085018251612733565b60200151606060a0850152612fb860c0850182612742565b90506020830151612fcc6020860182612733565b509392505050565b6000815180845260005b81811015612ffa57602081850181015186830182015201612fde565b506000602082860101526020601f19601f83011685010191505092915050565b60808152600061302d6080830186612f8a565b6020838203818501526130408287612fd4565b92506040840191508460005b60028110156130695781518452928201929082019060010161304c565b50505050949350505050565b60006020828403121561308757600080fd5b81516001600160401b038082111561309e57600080fd5b90830190608082860312156130b257600080fd5b6130ba612488565b825181526130cb8660208501612d1e565b60208201526060830151828111156130e257600080fd5b9290920191608083870312156130f757600080fd5b6130ff612466565b83518381111561310e57600080fd5b61311a88828701612e54565b82525060208401518381111561312f57600080fd5b61313b88828701612e54565b60208301525060408401516040820152606084015160608201528060408301525080935050505092915050565b60006020828403121561317a57600080fd5b81516001600160401b0381111561319057600080fd5b61286984828501612e54565b6131a68186612733565b60a0604082015260006131bc60a0830186612deb565b84606084015282810360808401526131d48185612800565b979650505050505050565b600082601f8301126131f057600080fd5b8151602061320061254e836124da565b82815260059290921b8401810191818101908684111561321f57600080fd5b8286015b848110156125965780518352918301918301613223565b60006020828403121561324c57600080fd5b81516001600160401b038082111561326357600080fd5b9083019060a0828603121561327757600080fd5b61327f612488565b6132898684612d1e565b81526132988660408501612d1e565b60208201526080830151828111156132af57600080fd5b6132bb878286016131df565b60408301525095945050505050565b6080815260006132dd6080830187612deb565b82810360208401526132ef8187612800565b905082810360408401526133038186612800565b905082810360608401526131d48185612800565b60006020828403121561332957600080fd5b81516001600160401b038082111561334057600080fd5b908301906060828603121561335457600080fd5b61335c61243e565b6133668684612d1e565b815260408301518281111561337a57600080fd5b613386878286016131df565b60208301525095945050505050565b60e0815260006133a860e0830188612deb565b82810360208401526133ba8188612800565b90506133c96040840187612733565b6133d66080840186612733565b82810360c08401526133e88185612871565b98975050505050505050565b60006020828403121561340657600080fd5b8151801515811461198e57600080fd5b60006020828403121561342857600080fd5b815161198e816125fc565b6001600160a01b039384168152919092166020820152604081019190915260600190565b60608152600061346a6060830186612f8a565b828103602084015261347c8186612fd4565b905082810360408401526134908185612787565b9695505050505050565b60006101206134a9838a612733565b8060408401526134bb81840189612deb565b90508660608401526134d06080840187612733565b6134dd60c0840186612733565b8281036101008401526134f08185612830565b999850505050505050505056fea2646970667358221220d61557a6bd58db075d0c65890f426371c37099f317d4d52748848d844ec9eb3064736f6c63430008130033",
  "immutableReferences": {},
  "source": "// SPDX-License-Identifier: GPL-3.0\npragma solidity >=0.4.0 <0.9.0;\n\nimport \"./lib/alt_bn128.sol\";\nimport \"./Token/Token.sol\";\nimport \"./Token/TokenRegistrar.sol\";\nimport \"./PubParam.sol\";\nimport {PartialEquality as PE} from \"./ZKP/PartialEquality.sol\";\nimport {DualRingEC as DR} from \"./ZKP/DualRingEC.sol\";\nimport {DiffGenEqual as DG} from \"./ZKP/DiffGenEqual.sol\";\nimport \"./TX/SoKwd.sol\";\nimport \"./TX/SoKsp.sol\";\n\ncontract Mixer {\n  \n  using alt_bn128 for uint256;\n  using alt_bn128 for alt_bn128.G1Point;\n\n  alt_bn128.G1Point[] _accs;\n  alt_bn128.G1Point[] _pks;\n  alt_bn128.G1Point[] _tags;\n\n  TokenRegistrar r;\n  PubParam pp;\n  PE pe;\n  DR dr;\n  DG dg;\n  SoKwd wd;\n  SoKsp sp;\n\n\n  constructor (\n    address r_addr, \n    address pp_addr, \n    address pe_addr, \n    address dr_addr,\n    address dg_addr,\n    address wd_addr,\n    address sp_addr\n  ) {\n    r = TokenRegistrar(r_addr);\n    pp = PubParam(pp_addr);\n    pe = PE(pe_addr);\n    dr = DR(dr_addr);\n    dg = DG(dg_addr);\n    // wd = new SoKwd(pp_addr, pe_addr, dr_addr, dg_addr);\n    wd = SoKwd(wd_addr);\n    sp = SoKsp(sp_addr);\n  }\n\n\n  ///////// deposit /////////\n\n  struct TX_dp {\n    PubParam.Acc s; /// @dev (pk, tcom, ocom)\n    uint256[] attrS; /// @dev (ty, val, t_beg, t_end)\n  }\n\n  struct Sig_dp {\n    PE.Sig pe_sig;\n  }\n\n  \n  /// @dev user deposit token into mixer\n  /// @param tx_dp deposit transaction statement\n  /// @param wit witness (sk, opn, ok)\n  /// @return sig deposit signature\n  function deposit(TX_dp memory tx_dp, uint256[3] memory wit) public returns (Sig_dp memory sig){\n\n    Token t = Token(r.getToken(tx_dp.attrS[0]));\n\n    if (!t.approve(address(this), tx_dp.attrS[1])) revert (\"Unsuccessful approve operation\");\n\n    uint n = pp.n();\n\n    uint256[] memory x = new uint256[](n);\n    uint256[] memory y = new uint256[](n);\n    uint256[] memory ine = new uint256[](wit.length); // [4,5,6]\n\n    for (uint i = 0; i < tx_dp.attrS.length; i++){\n      x[i] = tx_dp.attrS[i];\n      y[i] = tx_dp.attrS[i];\n    }\n\n    for (uint i = 0; i < wit.length; i++) {\n      x[i+tx_dp.attrS.length] = wit[i];\n      ine[i] = i + tx_dp.attrS.length;\n    }\n\n    // PE pe = new PE();\n\n    PE.Sig memory pe_sig = pe.sign(pp.gs(), x, y, ine);\n\n    sig = Sig_dp({\n      pe_sig : pe_sig\n    });\n    \n  }\n\n  /// @dev mixer process deposit request\n  /// @param tx_dp deposit transaction statement\n  /// @param sig deposit signature\n  function process_dp(TX_dp memory tx_dp, Sig_dp memory sig) public returns (bool) {\n    uint256 time = block.timestamp;\n    /// @dev T_now /in [T_beg, T_end)\n    bool b0 = tx_dp.attrS[2] <= time && time < tx_dp.attrS[3]; \n    /// @dev pk /notin pks\n    bool b1 = !_contains(_pks, tx_dp.s.pk);\n\n    alt_bn128.G1Point memory Cx = tx_dp.s.tcom.add(tx_dp.s.ocom);\n\n    uint256[] memory y = new uint256[](pp.n());\n    for (uint i = 0; i < tx_dp.attrS.length; i++) {\n      y[i] = tx_dp.attrS[i];\n    }\n    alt_bn128.G1Point memory Cy = pp.Com(y);\n\n    uint256[] memory ine = new uint256[](pp.n() - tx_dp.attrS.length);\n    for (uint i = 0; i < ine.length; i++) {\n      ine[i] = i+tx_dp.attrS.length; // [4,5,6]\n    }\n\n    bool b2 = pe.verify(pp.gs(), ine, Cx, Cy, sig.pe_sig);\n\n    if (b0 && b1 && b2){\n      _accs.push(Cx);\n      _pks.push(tx_dp.s.pk);\n      Token t = Token(r.getToken(tx_dp.attrS[0]));\n      return t.transfer(msg.sender, address(this), tx_dp.attrS[1]);\n    }\n    return false;\n  }\n\n  ///////// withdraw //////////\n\n/*\n  /// @param R ring accounts\n  /// @param tag tag = g_tag^sk\n  /// @param attrS (ty, val, t_beg, t_end)\n  /// @param u_rcpt receipt address\n  */\n  struct TX_wd {\n    alt_bn128.G1Point[] R; \n    alt_bn128.G1Point tag;\n    uint256[] attrS;\n    address u_rcpt;\n  }\n\n  struct Sig_wd {\n    alt_bn128.G1Point acc_d;\n    DR.SigEC dr_sig;\n    DG.Sig dg_sig;\n    PE.Sig pe_sig;\n  }\n\n  /// @dev withdraw token from mixer\n  /// @param tx_wd withdraw transaction statement\n  /// @param wit (theta, sk, opn, ok)\n  // function withdraw(SoKwd.TX memory tx_wd, uint256[4] memory wit) public view returns (SoKwd.Sig memory sig){\n  //   return wd.sign(tx_wd, wit);\n  // }\n\n  function withdraw(TX_wd memory tx_wd, uint256[4] memory wit) public view returns (Sig_wd memory sig){\n    require (tx_wd.tag.eq(pp.TagEval(wit[1])), \"Tag matches\");\n\n    uint n = pp.n();\n    uint pub_l = tx_wd.attrS.length;\n    uint ne_l = n-tx_wd.attrS.length;\n\n    uint256[] memory acc_d_attr = new uint256[](n);\n    uint256[] memory y = new uint256[](n);\n    uint256[] memory i_ne = new uint256[](ne_l);\n\n    for (uint i = 0; i < pub_l; i++) {\n      acc_d_attr[i] = tx_wd.attrS[i];\n      y[i] = tx_wd.attrS[i];\n    }\n\n    for (uint i = 0; i < ne_l; i++) {\n      acc_d_attr[pub_l+i] = wit[1+i]; // (sk, opn, ok)\n      i_ne[i] = pub_l + i; // [4,5,6]\n    }\n\n    acc_d_attr[n-1] = alt_bn128.random(); // acc_d ok'\n\n    alt_bn128.G1Point memory acc_d = pp.Com(acc_d_attr); // acc_d\n    sig.acc_d = acc_d;\n\n    // alt_bn128.G1Point[] memory new_R = new alt_bn128.G1Point[](tx_wd.R.length); // ring pks\n\n    for (uint i = 0; i < tx_wd.R.length; i++) {\n      tx_wd.R[i] = tx_wd.R[i].add(acc_d.neg()); // ring pks := {acc/acc_d}\n    }\n\n    DR.ParamEC memory dr_pp = dr.param(pp.g_ok(), tx_wd.R, pp.h());\n    bytes memory m = abi.encode(tx_wd.u_rcpt);\n    uint256[2] memory skj = [wit[3].sub(acc_d_attr[n-1]), wit[0]]; // (ok-ok', theta)\n\n    /// @dev Ring signature {acc/acc_d}\n    sig.dr_sig = dr.signEC(dr_pp, m, skj);\n\n    /// @dev Diff Gen Equal signature (tag vs acc_d)\n    sig.dg_sig = dg.sign(pp.g_tag(), pp.gs(), pp.sk_pos(), acc_d_attr);\n\n    /// @dev Partial Equality signature (acc_d vs pub)\n    sig.pe_sig = pe.sign(pp.gs(), acc_d_attr, y, i_ne);\n  }\n\n  function process_wd(TX_wd memory tx_wd, Sig_wd memory sig) public returns (bool) {\n    uint256 time = block.timestamp;\n    bool b0 = tx_wd.attrS[2] <= time && time < tx_wd.attrS[3]; // T_now /in [T_beg, T_end)\n\n    for (uint i = 0; i < tx_wd.R.length; i++) {\n      tx_wd.R[i] = tx_wd.R[i].add(sig.acc_d.neg()); // ring pks := {acc/acc_d}\n    }\n\n    bool b1 = verify_wd_sigs(tx_wd, sig);\n    require (b1, \"signature failed\");\n\n    /// @dev tag /notin _tags\n    bool b2 = !_contains(_tags, tx_wd.tag);\n\n    if (b0 && b1 && b2) {\n      _tags.push(tx_wd.tag);\n\n      Token t = Token(r.getToken(tx_wd.attrS[0]));\n      /// @dev ty.transfer[mixer, rcpt]\n      return t.transfer(address(this), tx_wd.u_rcpt, tx_wd.attrS[1]);\n\n    }\n\n    return false;\n  }\n\n  function verify_wd_sigs(TX_wd memory tx_wd, Sig_wd memory sig) private view returns (bool) {\n    DR.ParamEC memory dr_pp = dr.param(pp.g_ok(), tx_wd.R, pp.h());\n    bytes memory m = abi.encode(tx_wd.u_rcpt);\n\n    /// @dev verify Ring signature\n    bool b_dr = dr.verifyEC(dr_pp, m, sig.dr_sig);\n    require (b_dr, \"Ring signature does not pass\");\n\n    /// @dev verify Diff Gen Equal signature\n    bool b_dg = dg.verify(pp.g_tag(), pp.gs(), 4, tx_wd.tag, sig.acc_d, sig.dg_sig);\n    require (b_dg, \"Diff Gen Equal signature does not pass\");\n\n    uint256[] memory y = new uint256[](pp.n());\n    for (uint i = 0; i < tx_wd.attrS.length; i++) {\n      y[i] = tx_wd.attrS[i];\n    }\n    alt_bn128.G1Point memory Cy = pp.Com(y);\n\n    uint256[] memory ine = new uint256[](pp.n() - tx_wd.attrS.length);\n    for (uint i = 0; i < ine.length; i++) {\n      ine[i] = i+tx_wd.attrS.length; // [4,5,6]\n    }\n\n    /// @dev verify Partial Equality signature\n    bool b_pe = pe.verify(pp.gs(), ine, sig.acc_d, Cy, sig.pe_sig);\n    require (b_pe, \"Partial Equality signature does not pass\");\n\n    return b_dr && b_dg && b_pe;\n  }\n\n  struct TX_sp {\n    alt_bn128.G1Point[] R;\n    alt_bn128.G1Point tag;\n    uint256[3] attr; // (opnS, T_beg, T_end)\n    alt_bn128.G1Point pk_T;\n    alt_bn128.G1Point[] tcom_T;\n    alt_bn128.G1Point[] ocom_T;\n  }\n\n  struct sp_wit {\n    uint256[5] attrS; // (theta, ty, val, sk, ok)\n    uint256 sk_T;\n    uint256[4][] attrTs; // (T_beg, T_end, opn, ok)\n  }\n\n  function spend() public returns (bool){\n\n  }\n\n  function _contains(alt_bn128.G1Point[] memory ls, alt_bn128.G1Point memory pk) internal pure returns (bool) {\n    for (uint i = 0 ; i < ls.length; i++) {\n      if (alt_bn128.eq(ls[i], pk)) return true;\n    }\n    return false;\n  }\n\n\n\n}",
  "sourcePath": "/Users/qian/Desktop/Y4/COMP4550/project/XCSwap/contracts/Mixer.sol",
  "compiler": {
    "name": "solc",
    "version": "0.8.19+commit.7dd6d404.Emscripten.clang"
  },
  "schemaVersion": "3.4.13",
  "updatedAt": "2023-07-29T13:11:03.690Z",
  "devdoc": {
    "kind": "dev",
    "methods": {
      "deposit((((uint256,uint256),(uint256,uint256),(uint256,uint256)),uint256[]),uint256[3])": {
        "details": "user deposit token into mixer",
        "params": {
          "tx_dp": "deposit transaction statement",
          "wit": "witness (sk, opn, ok)"
        },
        "returns": {
          "sig": "deposit signature"
        }
      },
      "process_dp((((uint256,uint256),(uint256,uint256),(uint256,uint256)),uint256[]),(((uint256,uint256),uint256[])))": {
        "details": "mixer process deposit request",
        "params": {
          "sig": "deposit signature",
          "tx_dp": "deposit transaction statement"
        }
      },
      "withdraw(((uint256,uint256)[],(uint256,uint256),uint256[],address),uint256[4])": {
        "details": "withdraw token from mixer",
        "params": {
          "tx_wd": "withdraw transaction statement",
          "wit": "(theta, sk, opn, ok)"
        }
      }
    },
    "version": 1
  },
  "userdoc": {
    "kind": "user",
    "methods": {},
    "version": 1
  }
}