{
  "contractName": "Mixer",
  "abi": [
    {
      "inputs": [
        {
          "internalType": "address",
          "name": "r_addr",
          "type": "address"
        },
        {
          "internalType": "address",
          "name": "pp_addr",
          "type": "address"
        },
        {
          "internalType": "address",
          "name": "dp_addr",
          "type": "address"
        },
        {
          "internalType": "address",
          "name": "wd_addr",
          "type": "address"
        },
        {
          "internalType": "address",
          "name": "sp_addr",
          "type": "address"
        }
      ],
      "stateMutability": "nonpayable",
      "type": "constructor"
    },
    {
      "inputs": [
        {
          "components": [
            {
              "components": [
                {
                  "components": [
                    {
                      "internalType": "uint256",
                      "name": "X",
                      "type": "uint256"
                    },
                    {
                      "internalType": "uint256",
                      "name": "Y",
                      "type": "uint256"
                    }
                  ],
                  "internalType": "struct alt_bn128.G1Point",
                  "name": "pk",
                  "type": "tuple"
                },
                {
                  "components": [
                    {
                      "internalType": "uint256",
                      "name": "X",
                      "type": "uint256"
                    },
                    {
                      "internalType": "uint256",
                      "name": "Y",
                      "type": "uint256"
                    }
                  ],
                  "internalType": "struct alt_bn128.G1Point",
                  "name": "tcom",
                  "type": "tuple"
                },
                {
                  "components": [
                    {
                      "internalType": "uint256",
                      "name": "X",
                      "type": "uint256"
                    },
                    {
                      "internalType": "uint256",
                      "name": "Y",
                      "type": "uint256"
                    }
                  ],
                  "internalType": "struct alt_bn128.G1Point",
                  "name": "ocom",
                  "type": "tuple"
                }
              ],
              "internalType": "struct PubParam.Acc",
              "name": "s",
              "type": "tuple"
            },
            {
              "internalType": "uint256[]",
              "name": "attrS",
              "type": "uint256[]"
            }
          ],
          "internalType": "struct SoKdp.TX",
          "name": "tx_dp",
          "type": "tuple"
        },
        {
          "internalType": "uint256[3]",
          "name": "wit",
          "type": "uint256[3]"
        }
      ],
      "name": "deposit",
      "outputs": [
        {
          "components": [
            {
              "components": [
                {
                  "components": [
                    {
                      "internalType": "uint256",
                      "name": "X",
                      "type": "uint256"
                    },
                    {
                      "internalType": "uint256",
                      "name": "Y",
                      "type": "uint256"
                    }
                  ],
                  "internalType": "struct alt_bn128.G1Point",
                  "name": "c",
                  "type": "tuple"
                },
                {
                  "internalType": "uint256[]",
                  "name": "zs",
                  "type": "uint256[]"
                }
              ],
              "internalType": "struct PartialEquality.Sig",
              "name": "pe_sig",
              "type": "tuple"
            }
          ],
          "internalType": "struct SoKdp.Sig",
          "name": "sig",
          "type": "tuple"
        }
      ],
      "stateMutability": "nonpayable",
      "type": "function"
    },
    {
      "inputs": [
        {
          "components": [
            {
              "components": [
                {
                  "components": [
                    {
                      "internalType": "uint256",
                      "name": "X",
                      "type": "uint256"
                    },
                    {
                      "internalType": "uint256",
                      "name": "Y",
                      "type": "uint256"
                    }
                  ],
                  "internalType": "struct alt_bn128.G1Point",
                  "name": "pk",
                  "type": "tuple"
                },
                {
                  "components": [
                    {
                      "internalType": "uint256",
                      "name": "X",
                      "type": "uint256"
                    },
                    {
                      "internalType": "uint256",
                      "name": "Y",
                      "type": "uint256"
                    }
                  ],
                  "internalType": "struct alt_bn128.G1Point",
                  "name": "tcom",
                  "type": "tuple"
                },
                {
                  "components": [
                    {
                      "internalType": "uint256",
                      "name": "X",
                      "type": "uint256"
                    },
                    {
                      "internalType": "uint256",
                      "name": "Y",
                      "type": "uint256"
                    }
                  ],
                  "internalType": "struct alt_bn128.G1Point",
                  "name": "ocom",
                  "type": "tuple"
                }
              ],
              "internalType": "struct PubParam.Acc",
              "name": "s",
              "type": "tuple"
            },
            {
              "internalType": "uint256[]",
              "name": "attrS",
              "type": "uint256[]"
            }
          ],
          "internalType": "struct SoKdp.TX",
          "name": "tx_dp",
          "type": "tuple"
        },
        {
          "components": [
            {
              "components": [
                {
                  "components": [
                    {
                      "internalType": "uint256",
                      "name": "X",
                      "type": "uint256"
                    },
                    {
                      "internalType": "uint256",
                      "name": "Y",
                      "type": "uint256"
                    }
                  ],
                  "internalType": "struct alt_bn128.G1Point",
                  "name": "c",
                  "type": "tuple"
                },
                {
                  "internalType": "uint256[]",
                  "name": "zs",
                  "type": "uint256[]"
                }
              ],
              "internalType": "struct PartialEquality.Sig",
              "name": "pe_sig",
              "type": "tuple"
            }
          ],
          "internalType": "struct SoKdp.Sig",
          "name": "sig",
          "type": "tuple"
        }
      ],
      "name": "process_dp",
      "outputs": [
        {
          "internalType": "bool",
          "name": "",
          "type": "bool"
        }
      ],
      "stateMutability": "nonpayable",
      "type": "function"
    },
    {
      "inputs": [
        {
          "components": [
            {
              "components": [
                {
                  "internalType": "uint256",
                  "name": "X",
                  "type": "uint256"
                },
                {
                  "internalType": "uint256",
                  "name": "Y",
                  "type": "uint256"
                }
              ],
              "internalType": "struct alt_bn128.G1Point[]",
              "name": "R",
              "type": "tuple[]"
            },
            {
              "components": [
                {
                  "internalType": "uint256",
                  "name": "X",
                  "type": "uint256"
                },
                {
                  "internalType": "uint256",
                  "name": "Y",
                  "type": "uint256"
                }
              ],
              "internalType": "struct alt_bn128.G1Point[]",
              "name": "gs",
              "type": "tuple[]"
            },
            {
              "components": [
                {
                  "internalType": "uint256",
                  "name": "X",
                  "type": "uint256"
                },
                {
                  "internalType": "uint256",
                  "name": "Y",
                  "type": "uint256"
                }
              ],
              "internalType": "struct alt_bn128.G1Point",
              "name": "tag",
              "type": "tuple"
            },
            {
              "internalType": "uint256[]",
              "name": "attrS",
              "type": "uint256[]"
            },
            {
              "internalType": "address",
              "name": "u_rcpt",
              "type": "address"
            }
          ],
          "internalType": "struct SoKwd.TX",
          "name": "tx_wd",
          "type": "tuple"
        },
        {
          "internalType": "uint256[4]",
          "name": "wit",
          "type": "uint256[4]"
        }
      ],
      "name": "withdraw",
      "outputs": [
        {
          "components": [
            {
              "components": [
                {
                  "internalType": "uint256",
                  "name": "X",
                  "type": "uint256"
                },
                {
                  "internalType": "uint256",
                  "name": "Y",
                  "type": "uint256"
                }
              ],
              "internalType": "struct alt_bn128.G1Point",
              "name": "acc_d",
              "type": "tuple"
            },
            {
              "components": [
                {
                  "components": [
                    {
                      "internalType": "uint256",
                      "name": "X",
                      "type": "uint256"
                    },
                    {
                      "internalType": "uint256",
                      "name": "Y",
                      "type": "uint256"
                    }
                  ],
                  "internalType": "struct alt_bn128.G1Point",
                  "name": "cv",
                  "type": "tuple"
                },
                {
                  "components": [
                    {
                      "internalType": "uint256",
                      "name": "X",
                      "type": "uint256"
                    },
                    {
                      "internalType": "uint256",
                      "name": "Y",
                      "type": "uint256"
                    }
                  ],
                  "internalType": "struct alt_bn128.G1Point",
                  "name": "ct",
                  "type": "tuple"
                },
                {
                  "components": [
                    {
                      "internalType": "uint256",
                      "name": "X",
                      "type": "uint256"
                    },
                    {
                      "internalType": "uint256",
                      "name": "Y",
                      "type": "uint256"
                    }
                  ],
                  "internalType": "struct alt_bn128.G1Point[]",
                  "name": "cds",
                  "type": "tuple[]"
                },
                {
                  "internalType": "uint256[]",
                  "name": "fs",
                  "type": "uint256[]"
                },
                {
                  "internalType": "uint256",
                  "name": "u",
                  "type": "uint256"
                },
                {
                  "internalType": "uint256",
                  "name": "s",
                  "type": "uint256"
                }
              ],
              "internalType": "struct OneofMany.Sig",
              "name": "om_sig",
              "type": "tuple"
            },
            {
              "components": [
                {
                  "components": [
                    {
                      "internalType": "uint256",
                      "name": "X",
                      "type": "uint256"
                    },
                    {
                      "internalType": "uint256",
                      "name": "Y",
                      "type": "uint256"
                    }
                  ],
                  "internalType": "struct alt_bn128.G1Point",
                  "name": "cx",
                  "type": "tuple"
                },
                {
                  "components": [
                    {
                      "internalType": "uint256",
                      "name": "X",
                      "type": "uint256"
                    },
                    {
                      "internalType": "uint256",
                      "name": "Y",
                      "type": "uint256"
                    }
                  ],
                  "internalType": "struct alt_bn128.G1Point",
                  "name": "cy",
                  "type": "tuple"
                },
                {
                  "internalType": "uint256[]",
                  "name": "zs",
                  "type": "uint256[]"
                }
              ],
              "internalType": "struct DiffGenEqual.Sig",
              "name": "dg_sig",
              "type": "tuple"
            },
            {
              "components": [
                {
                  "components": [
                    {
                      "internalType": "uint256",
                      "name": "X",
                      "type": "uint256"
                    },
                    {
                      "internalType": "uint256",
                      "name": "Y",
                      "type": "uint256"
                    }
                  ],
                  "internalType": "struct alt_bn128.G1Point",
                  "name": "c",
                  "type": "tuple"
                },
                {
                  "internalType": "uint256[]",
                  "name": "zs",
                  "type": "uint256[]"
                }
              ],
              "internalType": "struct PartialEquality.Sig",
              "name": "pe_sig",
              "type": "tuple"
            }
          ],
          "internalType": "struct SoKwd.Sig",
          "name": "",
          "type": "tuple"
        }
      ],
      "stateMutability": "view",
      "type": "function",
      "constant": true
    },
    {
      "inputs": [
        {
          "components": [
            {
              "components": [
                {
                  "internalType": "uint256",
                  "name": "X",
                  "type": "uint256"
                },
                {
                  "internalType": "uint256",
                  "name": "Y",
                  "type": "uint256"
                }
              ],
              "internalType": "struct alt_bn128.G1Point[]",
              "name": "R",
              "type": "tuple[]"
            },
            {
              "components": [
                {
                  "internalType": "uint256",
                  "name": "X",
                  "type": "uint256"
                },
                {
                  "internalType": "uint256",
                  "name": "Y",
                  "type": "uint256"
                }
              ],
              "internalType": "struct alt_bn128.G1Point[]",
              "name": "gs",
              "type": "tuple[]"
            },
            {
              "components": [
                {
                  "internalType": "uint256",
                  "name": "X",
                  "type": "uint256"
                },
                {
                  "internalType": "uint256",
                  "name": "Y",
                  "type": "uint256"
                }
              ],
              "internalType": "struct alt_bn128.G1Point",
              "name": "tag",
              "type": "tuple"
            },
            {
              "internalType": "uint256[]",
              "name": "attrS",
              "type": "uint256[]"
            },
            {
              "internalType": "address",
              "name": "u_rcpt",
              "type": "address"
            }
          ],
          "internalType": "struct SoKwd.TX",
          "name": "tx_wd",
          "type": "tuple"
        },
        {
          "components": [
            {
              "components": [
                {
                  "internalType": "uint256",
                  "name": "X",
                  "type": "uint256"
                },
                {
                  "internalType": "uint256",
                  "name": "Y",
                  "type": "uint256"
                }
              ],
              "internalType": "struct alt_bn128.G1Point",
              "name": "acc_d",
              "type": "tuple"
            },
            {
              "components": [
                {
                  "components": [
                    {
                      "internalType": "uint256",
                      "name": "X",
                      "type": "uint256"
                    },
                    {
                      "internalType": "uint256",
                      "name": "Y",
                      "type": "uint256"
                    }
                  ],
                  "internalType": "struct alt_bn128.G1Point",
                  "name": "cv",
                  "type": "tuple"
                },
                {
                  "components": [
                    {
                      "internalType": "uint256",
                      "name": "X",
                      "type": "uint256"
                    },
                    {
                      "internalType": "uint256",
                      "name": "Y",
                      "type": "uint256"
                    }
                  ],
                  "internalType": "struct alt_bn128.G1Point",
                  "name": "ct",
                  "type": "tuple"
                },
                {
                  "components": [
                    {
                      "internalType": "uint256",
                      "name": "X",
                      "type": "uint256"
                    },
                    {
                      "internalType": "uint256",
                      "name": "Y",
                      "type": "uint256"
                    }
                  ],
                  "internalType": "struct alt_bn128.G1Point[]",
                  "name": "cds",
                  "type": "tuple[]"
                },
                {
                  "internalType": "uint256[]",
                  "name": "fs",
                  "type": "uint256[]"
                },
                {
                  "internalType": "uint256",
                  "name": "u",
                  "type": "uint256"
                },
                {
                  "internalType": "uint256",
                  "name": "s",
                  "type": "uint256"
                }
              ],
              "internalType": "struct OneofMany.Sig",
              "name": "om_sig",
              "type": "tuple"
            },
            {
              "components": [
                {
                  "components": [
                    {
                      "internalType": "uint256",
                      "name": "X",
                      "type": "uint256"
                    },
                    {
                      "internalType": "uint256",
                      "name": "Y",
                      "type": "uint256"
                    }
                  ],
                  "internalType": "struct alt_bn128.G1Point",
                  "name": "cx",
                  "type": "tuple"
                },
                {
                  "components": [
                    {
                      "internalType": "uint256",
                      "name": "X",
                      "type": "uint256"
                    },
                    {
                      "internalType": "uint256",
                      "name": "Y",
                      "type": "uint256"
                    }
                  ],
                  "internalType": "struct alt_bn128.G1Point",
                  "name": "cy",
                  "type": "tuple"
                },
                {
                  "internalType": "uint256[]",
                  "name": "zs",
                  "type": "uint256[]"
                }
              ],
              "internalType": "struct DiffGenEqual.Sig",
              "name": "dg_sig",
              "type": "tuple"
            },
            {
              "components": [
                {
                  "components": [
                    {
                      "internalType": "uint256",
                      "name": "X",
                      "type": "uint256"
                    },
                    {
                      "internalType": "uint256",
                      "name": "Y",
                      "type": "uint256"
                    }
                  ],
                  "internalType": "struct alt_bn128.G1Point",
                  "name": "c",
                  "type": "tuple"
                },
                {
                  "internalType": "uint256[]",
                  "name": "zs",
                  "type": "uint256[]"
                }
              ],
              "internalType": "struct PartialEquality.Sig",
              "name": "pe_sig",
              "type": "tuple"
            }
          ],
          "internalType": "struct SoKwd.Sig",
          "name": "sig",
          "type": "tuple"
        }
      ],
      "name": "process_wd",
      "outputs": [
        {
          "internalType": "bool",
          "name": "",
          "type": "bool"
        }
      ],
      "stateMutability": "nonpayable",
      "type": "function"
    },
    {
      "inputs": [
        {
          "components": [
            {
              "components": [
                {
                  "internalType": "uint256",
                  "name": "X",
                  "type": "uint256"
                },
                {
                  "internalType": "uint256",
                  "name": "Y",
                  "type": "uint256"
                }
              ],
              "internalType": "struct alt_bn128.G1Point[]",
              "name": "R",
              "type": "tuple[]"
            },
            {
              "components": [
                {
                  "internalType": "uint256",
                  "name": "X",
                  "type": "uint256"
                },
                {
                  "internalType": "uint256",
                  "name": "Y",
                  "type": "uint256"
                }
              ],
              "internalType": "struct alt_bn128.G1Point[]",
              "name": "gs",
              "type": "tuple[]"
            },
            {
              "components": [
                {
                  "internalType": "uint256",
                  "name": "X",
                  "type": "uint256"
                },
                {
                  "internalType": "uint256",
                  "name": "Y",
                  "type": "uint256"
                }
              ],
              "internalType": "struct alt_bn128.G1Point",
              "name": "tagS",
              "type": "tuple"
            },
            {
              "internalType": "uint256[3]",
              "name": "attrS",
              "type": "uint256[3]"
            },
            {
              "components": [
                {
                  "internalType": "uint256",
                  "name": "X",
                  "type": "uint256"
                },
                {
                  "internalType": "uint256",
                  "name": "Y",
                  "type": "uint256"
                }
              ],
              "internalType": "struct alt_bn128.G1Point",
              "name": "pk_T",
              "type": "tuple"
            },
            {
              "components": [
                {
                  "internalType": "uint256",
                  "name": "X",
                  "type": "uint256"
                },
                {
                  "internalType": "uint256",
                  "name": "Y",
                  "type": "uint256"
                }
              ],
              "internalType": "struct alt_bn128.G1Point[]",
              "name": "tcom_T",
              "type": "tuple[]"
            },
            {
              "components": [
                {
                  "internalType": "uint256",
                  "name": "X",
                  "type": "uint256"
                },
                {
                  "internalType": "uint256",
                  "name": "Y",
                  "type": "uint256"
                }
              ],
              "internalType": "struct alt_bn128.G1Point[]",
              "name": "ocom_T",
              "type": "tuple[]"
            }
          ],
          "internalType": "struct SoKsp.TX",
          "name": "tx_sp",
          "type": "tuple"
        },
        {
          "components": [
            {
              "internalType": "uint256",
              "name": "theta",
              "type": "uint256"
            },
            {
              "internalType": "uint256[]",
              "name": "attrS",
              "type": "uint256[]"
            },
            {
              "internalType": "uint256",
              "name": "sk_T",
              "type": "uint256"
            },
            {
              "internalType": "uint256[4][]",
              "name": "attrTs",
              "type": "uint256[4][]"
            }
          ],
          "internalType": "struct SoKsp.Wit",
          "name": "wit",
          "type": "tuple"
        }
      ],
      "name": "spend",
      "outputs": [
        {
          "components": [
            {
              "components": [
                {
                  "internalType": "uint256",
                  "name": "X",
                  "type": "uint256"
                },
                {
                  "internalType": "uint256",
                  "name": "Y",
                  "type": "uint256"
                }
              ],
              "internalType": "struct alt_bn128.G1Point",
              "name": "acc_d",
              "type": "tuple"
            },
            {
              "components": [
                {
                  "components": [
                    {
                      "internalType": "uint256",
                      "name": "X",
                      "type": "uint256"
                    },
                    {
                      "internalType": "uint256",
                      "name": "Y",
                      "type": "uint256"
                    }
                  ],
                  "internalType": "struct alt_bn128.G1Point",
                  "name": "cv",
                  "type": "tuple"
                },
                {
                  "components": [
                    {
                      "internalType": "uint256",
                      "name": "X",
                      "type": "uint256"
                    },
                    {
                      "internalType": "uint256",
                      "name": "Y",
                      "type": "uint256"
                    }
                  ],
                  "internalType": "struct alt_bn128.G1Point",
                  "name": "ct",
                  "type": "tuple"
                },
                {
                  "components": [
                    {
                      "internalType": "uint256",
                      "name": "X",
                      "type": "uint256"
                    },
                    {
                      "internalType": "uint256",
                      "name": "Y",
                      "type": "uint256"
                    }
                  ],
                  "internalType": "struct alt_bn128.G1Point[]",
                  "name": "cds",
                  "type": "tuple[]"
                },
                {
                  "internalType": "uint256[]",
                  "name": "fs",
                  "type": "uint256[]"
                },
                {
                  "internalType": "uint256",
                  "name": "u",
                  "type": "uint256"
                },
                {
                  "internalType": "uint256",
                  "name": "s",
                  "type": "uint256"
                }
              ],
              "internalType": "struct OneofMany.Sig",
              "name": "om_sig",
              "type": "tuple"
            },
            {
              "components": [
                {
                  "components": [
                    {
                      "internalType": "uint256",
                      "name": "X",
                      "type": "uint256"
                    },
                    {
                      "internalType": "uint256",
                      "name": "Y",
                      "type": "uint256"
                    }
                  ],
                  "internalType": "struct alt_bn128.G1Point",
                  "name": "cx",
                  "type": "tuple"
                },
                {
                  "components": [
                    {
                      "internalType": "uint256",
                      "name": "X",
                      "type": "uint256"
                    },
                    {
                      "internalType": "uint256",
                      "name": "Y",
                      "type": "uint256"
                    }
                  ],
                  "internalType": "struct alt_bn128.G1Point",
                  "name": "cy",
                  "type": "tuple"
                },
                {
                  "internalType": "uint256[]",
                  "name": "zs",
                  "type": "uint256[]"
                }
              ],
              "internalType": "struct DiffGenEqual.Sig",
              "name": "dg_tag_sig",
              "type": "tuple"
            },
            {
              "components": [
                {
                  "components": [
                    {
                      "internalType": "uint256",
                      "name": "X",
                      "type": "uint256"
                    },
                    {
                      "internalType": "uint256",
                      "name": "Y",
                      "type": "uint256"
                    }
                  ],
                  "internalType": "struct alt_bn128.G1Point",
                  "name": "c",
                  "type": "tuple"
                },
                {
                  "internalType": "uint256[]",
                  "name": "zs",
                  "type": "uint256[]"
                }
              ],
              "internalType": "struct PartialEquality.Sig",
              "name": "pe_opn_sig",
              "type": "tuple"
            },
            {
              "components": [
                {
                  "components": [
                    {
                      "internalType": "uint256",
                      "name": "X",
                      "type": "uint256"
                    },
                    {
                      "internalType": "uint256",
                      "name": "Y",
                      "type": "uint256"
                    }
                  ],
                  "internalType": "struct alt_bn128.G1Point",
                  "name": "c",
                  "type": "tuple"
                },
                {
                  "internalType": "uint256[]",
                  "name": "zs",
                  "type": "uint256[]"
                }
              ],
              "internalType": "struct PartialEquality.Sig[]",
              "name": "pe_ty_sig",
              "type": "tuple[]"
            },
            {
              "components": [
                {
                  "components": [
                    {
                      "internalType": "uint256",
                      "name": "X",
                      "type": "uint256"
                    },
                    {
                      "internalType": "uint256",
                      "name": "Y",
                      "type": "uint256"
                    }
                  ],
                  "internalType": "struct alt_bn128.G1Point",
                  "name": "cx",
                  "type": "tuple"
                },
                {
                  "components": [
                    {
                      "internalType": "uint256",
                      "name": "X",
                      "type": "uint256"
                    },
                    {
                      "internalType": "uint256",
                      "name": "Y",
                      "type": "uint256"
                    }
                  ],
                  "internalType": "struct alt_bn128.G1Point",
                  "name": "cy",
                  "type": "tuple"
                },
                {
                  "internalType": "uint256[]",
                  "name": "zs",
                  "type": "uint256[]"
                }
              ],
              "internalType": "struct DiffGenEqual.Sig[]",
              "name": "dg_sk_sig",
              "type": "tuple[]"
            }
          ],
          "internalType": "struct SoKsp.Sig",
          "name": "",
          "type": "tuple"
        }
      ],
      "stateMutability": "view",
      "type": "function",
      "constant": true
    },
    {
      "inputs": [
        {
          "components": [
            {
              "components": [
                {
                  "internalType": "uint256",
                  "name": "X",
                  "type": "uint256"
                },
                {
                  "internalType": "uint256",
                  "name": "Y",
                  "type": "uint256"
                }
              ],
              "internalType": "struct alt_bn128.G1Point[]",
              "name": "R",
              "type": "tuple[]"
            },
            {
              "components": [
                {
                  "internalType": "uint256",
                  "name": "X",
                  "type": "uint256"
                },
                {
                  "internalType": "uint256",
                  "name": "Y",
                  "type": "uint256"
                }
              ],
              "internalType": "struct alt_bn128.G1Point[]",
              "name": "gs",
              "type": "tuple[]"
            },
            {
              "components": [
                {
                  "internalType": "uint256",
                  "name": "X",
                  "type": "uint256"
                },
                {
                  "internalType": "uint256",
                  "name": "Y",
                  "type": "uint256"
                }
              ],
              "internalType": "struct alt_bn128.G1Point",
              "name": "tagS",
              "type": "tuple"
            },
            {
              "internalType": "uint256[3]",
              "name": "attrS",
              "type": "uint256[3]"
            },
            {
              "components": [
                {
                  "internalType": "uint256",
                  "name": "X",
                  "type": "uint256"
                },
                {
                  "internalType": "uint256",
                  "name": "Y",
                  "type": "uint256"
                }
              ],
              "internalType": "struct alt_bn128.G1Point",
              "name": "pk_T",
              "type": "tuple"
            },
            {
              "components": [
                {
                  "internalType": "uint256",
                  "name": "X",
                  "type": "uint256"
                },
                {
                  "internalType": "uint256",
                  "name": "Y",
                  "type": "uint256"
                }
              ],
              "internalType": "struct alt_bn128.G1Point[]",
              "name": "tcom_T",
              "type": "tuple[]"
            },
            {
              "components": [
                {
                  "internalType": "uint256",
                  "name": "X",
                  "type": "uint256"
                },
                {
                  "internalType": "uint256",
                  "name": "Y",
                  "type": "uint256"
                }
              ],
              "internalType": "struct alt_bn128.G1Point[]",
              "name": "ocom_T",
              "type": "tuple[]"
            }
          ],
          "internalType": "struct SoKsp.TX",
          "name": "tx_sp",
          "type": "tuple"
        },
        {
          "components": [
            {
              "components": [
                {
                  "internalType": "uint256",
                  "name": "X",
                  "type": "uint256"
                },
                {
                  "internalType": "uint256",
                  "name": "Y",
                  "type": "uint256"
                }
              ],
              "internalType": "struct alt_bn128.G1Point",
              "name": "acc_d",
              "type": "tuple"
            },
            {
              "components": [
                {
                  "components": [
                    {
                      "internalType": "uint256",
                      "name": "X",
                      "type": "uint256"
                    },
                    {
                      "internalType": "uint256",
                      "name": "Y",
                      "type": "uint256"
                    }
                  ],
                  "internalType": "struct alt_bn128.G1Point",
                  "name": "cv",
                  "type": "tuple"
                },
                {
                  "components": [
                    {
                      "internalType": "uint256",
                      "name": "X",
                      "type": "uint256"
                    },
                    {
                      "internalType": "uint256",
                      "name": "Y",
                      "type": "uint256"
                    }
                  ],
                  "internalType": "struct alt_bn128.G1Point",
                  "name": "ct",
                  "type": "tuple"
                },
                {
                  "components": [
                    {
                      "internalType": "uint256",
                      "name": "X",
                      "type": "uint256"
                    },
                    {
                      "internalType": "uint256",
                      "name": "Y",
                      "type": "uint256"
                    }
                  ],
                  "internalType": "struct alt_bn128.G1Point[]",
                  "name": "cds",
                  "type": "tuple[]"
                },
                {
                  "internalType": "uint256[]",
                  "name": "fs",
                  "type": "uint256[]"
                },
                {
                  "internalType": "uint256",
                  "name": "u",
                  "type": "uint256"
                },
                {
                  "internalType": "uint256",
                  "name": "s",
                  "type": "uint256"
                }
              ],
              "internalType": "struct OneofMany.Sig",
              "name": "om_sig",
              "type": "tuple"
            },
            {
              "components": [
                {
                  "components": [
                    {
                      "internalType": "uint256",
                      "name": "X",
                      "type": "uint256"
                    },
                    {
                      "internalType": "uint256",
                      "name": "Y",
                      "type": "uint256"
                    }
                  ],
                  "internalType": "struct alt_bn128.G1Point",
                  "name": "cx",
                  "type": "tuple"
                },
                {
                  "components": [
                    {
                      "internalType": "uint256",
                      "name": "X",
                      "type": "uint256"
                    },
                    {
                      "internalType": "uint256",
                      "name": "Y",
                      "type": "uint256"
                    }
                  ],
                  "internalType": "struct alt_bn128.G1Point",
                  "name": "cy",
                  "type": "tuple"
                },
                {
                  "internalType": "uint256[]",
                  "name": "zs",
                  "type": "uint256[]"
                }
              ],
              "internalType": "struct DiffGenEqual.Sig",
              "name": "dg_tag_sig",
              "type": "tuple"
            },
            {
              "components": [
                {
                  "components": [
                    {
                      "internalType": "uint256",
                      "name": "X",
                      "type": "uint256"
                    },
                    {
                      "internalType": "uint256",
                      "name": "Y",
                      "type": "uint256"
                    }
                  ],
                  "internalType": "struct alt_bn128.G1Point",
                  "name": "c",
                  "type": "tuple"
                },
                {
                  "internalType": "uint256[]",
                  "name": "zs",
                  "type": "uint256[]"
                }
              ],
              "internalType": "struct PartialEquality.Sig",
              "name": "pe_opn_sig",
              "type": "tuple"
            },
            {
              "components": [
                {
                  "components": [
                    {
                      "internalType": "uint256",
                      "name": "X",
                      "type": "uint256"
                    },
                    {
                      "internalType": "uint256",
                      "name": "Y",
                      "type": "uint256"
                    }
                  ],
                  "internalType": "struct alt_bn128.G1Point",
                  "name": "c",
                  "type": "tuple"
                },
                {
                  "internalType": "uint256[]",
                  "name": "zs",
                  "type": "uint256[]"
                }
              ],
              "internalType": "struct PartialEquality.Sig[]",
              "name": "pe_ty_sig",
              "type": "tuple[]"
            },
            {
              "components": [
                {
                  "components": [
                    {
                      "internalType": "uint256",
                      "name": "X",
                      "type": "uint256"
                    },
                    {
                      "internalType": "uint256",
                      "name": "Y",
                      "type": "uint256"
                    }
                  ],
                  "internalType": "struct alt_bn128.G1Point",
                  "name": "cx",
                  "type": "tuple"
                },
                {
                  "components": [
                    {
                      "internalType": "uint256",
                      "name": "X",
                      "type": "uint256"
                    },
                    {
                      "internalType": "uint256",
                      "name": "Y",
                      "type": "uint256"
                    }
                  ],
                  "internalType": "struct alt_bn128.G1Point",
                  "name": "cy",
                  "type": "tuple"
                },
                {
                  "internalType": "uint256[]",
                  "name": "zs",
                  "type": "uint256[]"
                }
              ],
              "internalType": "struct DiffGenEqual.Sig[]",
              "name": "dg_sk_sig",
              "type": "tuple[]"
            }
          ],
          "internalType": "struct SoKsp.Sig",
          "name": "sig",
          "type": "tuple"
        }
      ],
      "name": "process_sp",
      "outputs": [
        {
          "internalType": "bool",
          "name": "",
          "type": "bool"
        }
      ],
      "stateMutability": "nonpayable",
      "type": "function"
    },
    {
      "inputs": [],
      "name": "get_accs",
      "outputs": [
        {
          "components": [
            {
              "internalType": "uint256",
              "name": "X",
              "type": "uint256"
            },
            {
              "internalType": "uint256",
              "name": "Y",
              "type": "uint256"
            }
          ],
          "internalType": "struct alt_bn128.G1Point[]",
          "name": "",
          "type": "tuple[]"
        }
      ],
      "stateMutability": "view",
      "type": "function",
      "constant": true
    },
    {
      "inputs": [
        {
          "components": [
            {
              "internalType": "uint256",
              "name": "X",
              "type": "uint256"
            },
            {
              "internalType": "uint256",
              "name": "Y",
              "type": "uint256"
            }
          ],
          "internalType": "struct alt_bn128.G1Point[]",
          "name": "R",
          "type": "tuple[]"
        }
      ],
      "name": "isValid",
      "outputs": [
        {
          "internalType": "bool",
          "name": "",
          "type": "bool"
        }
      ],
      "stateMutability": "view",
      "type": "function",
      "constant": true
    },
    {
      "inputs": [
        {
          "components": [
            {
              "internalType": "uint256",
              "name": "X",
              "type": "uint256"
            },
            {
              "internalType": "uint256",
              "name": "Y",
              "type": "uint256"
            }
          ],
          "internalType": "struct alt_bn128.G1Point",
          "name": "g",
          "type": "tuple"
        }
      ],
      "name": "inAcc",
      "outputs": [
        {
          "internalType": "bool",
          "name": "",
          "type": "bool"
        }
      ],
      "stateMutability": "view",
      "type": "function",
      "constant": true
    },
    {
      "inputs": [
        {
          "components": [
            {
              "internalType": "uint256",
              "name": "X",
              "type": "uint256"
            },
            {
              "internalType": "uint256",
              "name": "Y",
              "type": "uint256"
            }
          ],
          "internalType": "struct alt_bn128.G1Point",
          "name": "g",
          "type": "tuple"
        }
      ],
      "name": "inTag",
      "outputs": [
        {
          "internalType": "bool",
          "name": "",
          "type": "bool"
        }
      ],
      "stateMutability": "view",
      "type": "function",
      "constant": true
    }
  ],
  "bytecode": "0x60806040523480156200001157600080fd5b506040516200349c3803806200349c83398101604081905262000034916200033f565b600380546001600160a01b03199081166001600160a01b038881169190911790925560048054821687841617905560058054821686841617905560068054821685841617905560078054909116918316919091179055620000946200009f565b505050505062000471565b60005b60108110156200016d5760405163b863bd3760e01b815260048101829052600090620001319073__alt_bn128_____________________________9063b863bd3790602401602060405180830381865af415801562000105573d6000803e3d6000fd5b505050506040513d601f19601f820116820180604052508101906200012b9190620003af565b62000170565b815460018181018455600093845260209384902083516002909302019182559290910151910155806200016481620003df565b915050620000a2565b50565b60408051808201909152600080825260208201526000620001a16000805160206200347c8339815191528462000411565b90506000620001b260018362000428565b91506000805b816200027157620001cb60018562000444565b93506000805160206200347c83398151915284850990506000805160206200347c83398151915284820990506000805160206200347c83398151915260038208905062000252816004620002306000805160206200347c833981519152600162000444565b6200023c91906200045a565b6000805160206200347c8339815191526200028b565b9250806000805160206200347c833981519152848509149150620001b8565b505060408051808201909152918252602082015292915050565b600062000297620002e6565b620002a162000304565b602080835282810181905260408301819052606083018790526080830186905260a083018590528160c0846005600019fa620002dc57600080fd5b5195945050505050565b6040518060c001604052806006906020820280368337509192915050565b60405180602001604052806001906020820280368337509192915050565b80516001600160a01b03811681146200033a57600080fd5b919050565b600080600080600060a086880312156200035857600080fd5b620003638662000322565b9450620003736020870162000322565b9350620003836040870162000322565b9250620003936060870162000322565b9150620003a36080870162000322565b90509295509295909350565b600060208284031215620003c257600080fd5b5051919050565b634e487b7160e01b600052601160045260246000fd5b600060018201620003f457620003f4620003c9565b5060010190565b634e487b7160e01b600052601260045260246000fd5b600082620004235762000423620003fb565b500690565b818103818111156200043e576200043e620003c9565b92915050565b808201808211156200043e576200043e620003c9565b6000826200046c576200046c620003fb565b500490565b612ffb80620004816000396000f3fe608060405234801561001057600080fd5b506004361061008e5760003560e01c80631a1dbfd314610093578063307df283146100bb578063360fa0d5146100ce578063549a2fad146100ee5780637b4d9a7014610103578063b39a528714610123578063b7d6044914610136578063b9222acd14610149578063fb965dc11461015c578063fd2beb6d1461017c575b600080fd5b6100a66100a1366004611765565b61018f565b60405190151581526020015b60405180910390f35b6100a66100c9366004611abc565b61020c565b6100e16100dc366004611bf9565b610661565b6040516100b29190611e01565b6100f66106e7565b6040516100b29190611e14565b610116610111366004611f7d565b61075a565b6040516100b291906121ce565b6100a6610131366004611765565b6107d9565b6100a6610144366004612260565b610845565b6100a66101573660046122f3565b610c5f565b61016f61016a366004612327565b610d22565b6040516100b2919061236c565b6100a661018a366004612485565b610f3c565b60006102066000805480602002602001604051908101604052809291908181526020016000905b828210156101fc578382906000526020600020906002020160405180604001604052908160008201548152602001600182015481525050815260200190600101906101b6565b50505050836113dd565b92915050565b600061021b8360000151610c5f565b6102625760405162461bcd60e51b81526020600482015260136024820152722bb4ba34323930bb9d1024b73b30b634b2102960691b60448201526064015b60405180910390fd5b6000836060015160028151811061027b5761027b6125ba565b6020026020010151600161028f91906125e6565b905060008185606001516002815181106102ab576102ab6125ba565b6020026020010151111580156102de575084606001516003815181106102d3576102d36125ba565b602002602001015182105b9050806103385760405162461bcd60e51b815260206004820152602260248201527f57697468647261773a20696e76616c6964207472616e73616374696f6e2074696044820152616d6560f01b6064820152608401610259565b60065460405163336113b360e11b81526000916001600160a01b0316906366c227669061036b9089908990600401612676565b602060405180830381865afa158015610388573d6000803e3d6000fd5b505050506040513d601f19601f820116820180604052508101906103ac919061269b565b9050806103f45760405162461bcd60e51b815260206004820152601660248201527515da5d1a191c985dce8814dbd2ddd90819985a5b195960521b6044820152606401610259565b600061046f6002805480602002602001604051908101604052809291908181526020016000905b828210156104615783829060005260206000209060020201604051806040016040529081600082015481526020016001820154815250508152602001906001019061041b565b5050505088604001516113dd565b159050806104bc5760405162461bcd60e51b815260206004820152601a60248201527915da5d1a191c985dce881d1859c8185b1c9958591e481d5cd95960321b6044820152606401610259565b8280156104c65750815b80156104cf5750805b15610654576040870151600280546001810182556000828152835191909202600080516020612f06833981519152810191909155602090920151600080516020612f2683398151915290920191909155600354606089015180516001600160a01b039092169163e4b50cb89190849061054a5761054a6125ba565b60200260200101516040518263ffffffff1660e01b815260040161057091815260200190565b602060405180830381865afa15801561058d573d6000803e3d6000fd5b505050506040513d601f19601f820116820180604052508101906105b191906126bd565b9050806001600160a01b031663beabacc8308a608001518b606001516001815181106105df576105df6125ba565b60200260200101516040518463ffffffff1660e01b8152600401610605939291906126da565b6020604051808303816000875af1158015610624573d6000803e3d6000fd5b505050506040513d601f19601f82011682018060405250810190610648919061269b565b95505050505050610206565b5060009695505050505050565b6106696114a1565b600654604051637a29a98560e11b81526001600160a01b039091169063f453530a9061069b9086908690600401612727565b600060405180830381865afa1580156106b8573d6000803e3d6000fd5b505050506040513d6000823e601f3d908101601f191682016040526106e0919081019061298b565b9392505050565b60606000805480602002602001604051908101604052809291908181526020016000905b828210156107515783829060005260206000209060020201604051806040016040529081600082015481526020016001820154815250508152602001906001019061070b565b50505050905090565b6107626114e0565b60075460405163024f0e7160e21b81526001600160a01b039091169063093c39c4906107949086908690600401612b13565b600060405180830381865afa1580156107b1573d6000803e3d6000fd5b505050506040513d6000823e601f3d908101601f191682016040526106e09190810190612ca6565b6000610206600280548060200260200160405190810160405280929190818152602001600090828210156101fc578382906000526020600020906002020160405180604001604052908160008201548152602001600182015481525050815260200190600101906101b6565b600080600090506000818560200151600281518110610866576108666125ba565b6020026020010151111580156108995750846020015160038151811061088e5761088e6125ba565b602002602001015182105b9050806108f25760405162461bcd60e51b815260206004820152602160248201527f4465706f7369743a20696e76616c6964207472616e73616374696f6e2074696d6044820152606560f81b6064820152608401610259565b600061096d6001805480602002602001604051908101604052809291908181526020016000905b8282101561095f57838290600052602060002090600202016040518060400160405290816000820154815260200160018201548152505081526020019060010190610919565b505089515191506113dd9050565b159050806109b85760405162461bcd60e51b815260206004820152601860248201527711195c1bdcda5d0e881c1ac8185b1c9958591e481d5cd95960421b6044820152606401610259565b600554604051631a3cfdbd60e11b81526000916001600160a01b031690633479fb7a906109eb908a908a90600401612e01565b602060405180830381865afa158015610a08573d6000803e3d6000fd5b505050506040513d601f19601f82011682018060405250810190610a2c919061269b565b905080610a735760405162461bcd60e51b815260206004820152601560248201527411195c1bdcda5d0e8814dbd2d91c0819985a5b1959605a1b6044820152606401610259565b828015610a7d5750815b8015610a865750805b156106545786516040810151602090910151600091610aa59190611438565b600080546001818101835582805283516002928302600080516020612f46833981519152810191909155602080860151600080516020612f66833981519152909201919091558c515182548084018455928552805192909302600080516020612f8683398151915281019290925591820151600080516020612fa683398151915290910155600354908b0151805193945091926001600160a01b039091169163e4b50cb8918490610b5857610b586125ba565b60200260200101516040518263ffffffff1660e01b8152600401610b7e91815260200190565b602060405180830381865afa158015610b9b573d6000803e3d6000fd5b505050506040513d601f19601f82011682018060405250810190610bbf91906126bd565b9050806001600160a01b031663beabacc833308c60200151600181518110610be957610be96125ba565b60200260200101516040518463ffffffff1660e01b8152600401610c0f939291906126da565b6020604051808303816000875af1158015610c2e573d6000803e3d6000fd5b505050506040513d601f19601f82011682018060405250810190610c52919061269b565b9650505050505050610206565b6000805b8251811015610d1957610cfa6000805480602002602001604051908101604052809291908181526020016000905b82821015610cd757838290600052602060002090600202016040518060400160405290816000820154815260200160018201548152505081526020019060010190610c91565b50505050848381518110610ced57610ced6125ba565b60200260200101516113dd565b610d075750600092915050565b80610d1181612e39565b915050610c63565b50600192915050565b610d2a61152e565b600354602084015180516000926001600160a01b03169163e4b50cb8918490610d5557610d556125ba565b60200260200101516040518263ffffffff1660e01b8152600401610d7b91815260200190565b602060405180830381865afa158015610d98573d6000803e3d6000fd5b505050506040513d601f19601f82011682018060405250810190610dbc91906126bd565b9050806001600160a01b031663095ea7b3308660200151600181518110610de557610de56125ba565b60200260200101516040518363ffffffff1660e01b8152600401610e1e9291906001600160a01b03929092168252602082015260400190565b6020604051808303816000875af1158015610e3d573d6000803e3d6000fd5b505050506040513d601f19601f82011682018060405250810190610e61919061269b565b610ebd5760405162461bcd60e51b815260206004820152602760248201527f4465706f7369743a20556e7375636365737366756c20617070726f7665206f7060448201526632b930ba34b7b760c91b6064820152608401610259565b6005546040516314e46cbb60e31b81526001600160a01b039091169063a72365d890610eef9087908790600401612e52565b600060405180830381865afa158015610f0c573d6000803e3d6000fd5b505050506040513d6000823e601f3d908101601f19168201604052610f349190810190612e74565b949350505050565b6000610f4b8360000151610c5f565b610f8a5760405162461bcd60e51b815260206004820152601060248201526f29b832b7321d1024b73b30b634b2102960811b6044820152606401610259565b606083015160200151600090610fa19060016125e6565b90506000818560600151600160038110610fbd57610fbd6125ba565b602002015111158015610fd7575060608501516040015182105b9050806110265760405162461bcd60e51b815260206004820152601f60248201527f5370656e643a20696e76616c6964207472616e73616374696f6e2074696d65006044820152606401610259565b60006110a16001805480602002602001604051908101604052809291908181526020016000905b828210156110935783829060005260206000209060020201604051806040016040529081600082015481526020016001820154815250508152602001906001019061104d565b5050505087608001516113dd565b159050806110eb5760405162461bcd60e51b815260206004820152601760248201527614dc195b990e881c1ad508185b1c9958591e481d5cd959604a1b6044820152606401610259565b6000611157600280548060200260200160405190810160405280929190818152602001600090828210156104615783829060005260206000209060020201604051806040016040529081600082015481526020016001820154815250508152602001906001019061041b565b159050806111a25760405162461bcd60e51b815260206004820152601860248201527714dc195b990e881d1859d4c8185b1c9958591e481d5cd95960421b6044820152606401610259565b60075460405163de2692ad60e01b81526000916001600160a01b03169063de2692ad906111d5908b908b90600401612ee0565b602060405180830381865afa1580156111f2573d6000803e3d6000fd5b505050506040513d601f19601f82011682018060405250810190611216919061269b565b90508061125b5760405162461bcd60e51b815260206004820152601360248201527214dc195b990e8814dbd2dcdc0819985a5b1959606a1b6044820152606401610259565b8380156112655750825b801561126e5750815b80156112775750805b156113cf576040880151600280546001818101835560008381528451928402600080516020612f06833981519152810193909355602094850151600080516020612f268339815191529093019290925560808c0151815480830183559190925281519202600080516020612f8683398151915281019290925590910151600080516020612fa68339815191529091015561130f611541565b60005b8960c00151518110156113bf5761136c8a60c001518281518110611338576113386125ba565b60200260200101518b60a001518381518110611356576113566125ba565b602002602001015161143890919063ffffffff16565b600080546001810182559080528151600080516020612f468339815191526002909202918201556020820151600080516020612f66833981519152909101559150806113b781612e39565b915050611312565b5060019650505050505050610206565b506000979650505050505050565b6000805b835181101561142e5761140d8482815181106113ff576113ff6125ba565b602002602001015184611484565b1561141c576001915050610206565b8061142681612e39565b9150506113e1565b5060009392505050565b611440611541565b61144861155b565b83518152602080850151818301528351604080840191909152908401516060830152826080836006600019fa61147d57600080fd5b5092915050565b805182516000911480156106e05750506020908101519101511490565b60405180608001604052806114b4611541565b81526020016114c1611579565b81526020016114ce6115bb565b81526020016114db6115e8565b905290565b6040518060c001604052806114f3611541565b8152602001611500611579565b815260200161150d6115bb565b815260200161151a6115e8565b815260200160608152602001606081525090565b60405180602001604052806114db6115e8565b604051806040016040528060008152602001600081525090565b60405180608001604052806004906020820280368337509192915050565b6040518060c0016040528061158c611541565b8152602001611599611541565b8152602001606081526020016060815260200160008152602001600081525090565b60405180606001604052806115ce611541565b81526020016115db611541565b8152602001606081525090565b60405180604001604052806115db611541565b634e487b7160e01b600052604160045260246000fd5b604080519081016001600160401b0381118282101715611633576116336115fb565b60405290565b60405160a081016001600160401b0381118282101715611633576116336115fb565b60405160c081016001600160401b0381118282101715611633576116336115fb565b604051606081016001600160401b0381118282101715611633576116336115fb565b604051608081016001600160401b0381118282101715611633576116336115fb565b60405160e081016001600160401b0381118282101715611633576116336115fb565b604051602081016001600160401b0381118282101715611633576116336115fb565b604051601f8201601f191681016001600160401b038111828210171561172d5761172d6115fb565b604052919050565b60006040828403121561174757600080fd5b61174f611611565b9050813581526020820135602082015292915050565b60006040828403121561177757600080fd5b6106e08383611735565b60006001600160401b0382111561179a5761179a6115fb565b5060051b60200190565b600082601f8301126117b557600080fd5b813560206117ca6117c583611781565b611705565b82815260069290921b840181019181810190868411156117e957600080fd5b8286015b8481101561180d576117ff8882611735565b8352918301916040016117ed565b509695505050505050565b600082601f83011261182957600080fd5b813560206118396117c583611781565b82815260059290921b8401810191818101908684111561185857600080fd5b8286015b8481101561180d578035835291830191830161185c565b6001600160a01b038116811461188857600080fd5b50565b803561189681611873565b919050565b600060c082840312156118ad57600080fd5b6118b5611639565b905081356001600160401b03808211156118ce57600080fd5b6118da858386016117a4565b835260208401359150808211156118f057600080fd5b6118fc858386016117a4565b602084015261190e8560408601611735565b6040840152608084013591508082111561192757600080fd5b5061193484828501611818565b60608301525061194660a0830161188b565b608082015292915050565b6000610100828403121561196457600080fd5b61196c61165b565b90506119788383611735565b81526119878360408401611735565b602082015260808201356001600160401b03808211156119a657600080fd5b6119b2858386016117a4565b604084015260a08401359150808211156119cb57600080fd5b506119d884828501611818565b60608301525060c0820135608082015260e082013560a082015292915050565b600060a08284031215611a0a57600080fd5b611a1261167d565b9050611a1e8383611735565b8152611a2d8360408401611735565b602082015260808201356001600160401b03811115611a4b57600080fd5b611a5784828501611818565b60408301525092915050565b600060608284031215611a7557600080fd5b611a7d611611565b9050611a898383611735565b815260408201356001600160401b03811115611aa457600080fd5b611ab084828501611818565b60208301525092915050565b60008060408385031215611acf57600080fd5b82356001600160401b0380821115611ae657600080fd5b611af28683870161189b565b93506020850135915080821115611b0857600080fd5b9084019060a08287031215611b1c57600080fd5b611b2461169f565b611b2e8784611735565b8152604083013582811115611b4257600080fd5b611b4e88828601611951565b602083015250606083013582811115611b6657600080fd5b611b72888286016119f8565b604083015250608083013582811115611b8a57600080fd5b611b9688828601611a63565b6060830152508093505050509250929050565b600082601f830112611bba57600080fd5b611bc261169f565b806080840185811115611bd457600080fd5b845b81811015611bee578035845260209384019301611bd6565b509095945050505050565b60008060a08385031215611c0c57600080fd5b82356001600160401b03811115611c2257600080fd5b611c2e8582860161189b565b925050611c3e8460208501611ba9565b90509250929050565b80518252602090810151910152565b600081518084526020808501945080840160005b83811015611c9057611c7d878351611c47565b6040969096019590820190600101611c6a565b509495945050505050565b600081518084526020808501945080840160005b83811015611c9057815187529582019590820190600101611caf565b6000610100611cdb848451611c47565b6020830151611ced6040860182611c47565b506040830151816080860152611d0582860182611c56565b915050606083015184820360a0860152611d1f8282611c9b565b915050608083015160c085015260a083015160e08501528091505092915050565b611d4b828251611c47565b60006020820151611d5f6040850182611c47565b50604082015160a06080850152610f3460a0850182611c9b565b611d84828251611c47565b6000602082015160606040850152610f346060850182611c9b565b611daa828251611c47565b6000602082015160a06040850152611dc560a0850182611ccb565b905060408301518482036060860152611dde8282611d40565b91505060608301518482036080860152611df88282611d79565b95945050505050565b6020815260006106e06020830184611d9f565b602080825282518282018190526000919060409081850190868401855b82811015611e5457611e44848351611c47565b9284019290850190600101611e31565b5091979650505050505050565b600082601f830112611e7257600080fd5b611e7a61167d565b806060840185811115611bd457600080fd5b60006101608284031215611e9f57600080fd5b611ea76116c1565b905081356001600160401b0380821115611ec057600080fd5b611ecc858386016117a4565b83526020840135915080821115611ee257600080fd5b611eee858386016117a4565b6020840152611f008560408601611735565b6040840152611f128560808601611e61565b6060840152611f248560e08601611735565b6080840152610120840135915080821115611f3e57600080fd5b611f4a858386016117a4565b60a0840152610140840135915080821115611f6457600080fd5b50611f71848285016117a4565b60c08301525092915050565b60008060408385031215611f9057600080fd5b82356001600160401b0380821115611fa757600080fd5b611fb386838701611e8c565b9350602091508185013581811115611fca57600080fd5b85016080818803811315611fdd57600080fd5b611fe561169f565b823581528483013584811115611ffa57600080fd5b6120068a828601611818565b86830152506040830135604082015260608301358481111561202757600080fd5b83019350601f8401891361203a57600080fd5b8335925061204a6117c584611781565b83815260079390931b8401850192858101908a85111561206957600080fd5b948601945b8486101561208f576120808b87611ba9565b8252948301949086019061206e565b60608301525095989597509495505050505050565b6000815180845260208085019450848260051b860182860160005b858110156120e95783830389526120d7838351611d40565b988501989250908401906001016120bf565b5090979650505050505050565b612101828251611c47565b600060208083015160e0604086015261211d60e0860182611ccb565b9050604084015185820360608701526121368282611d40565b915050606084015185820360808701526121508282611d79565b608086015187820360a089015280518083529193508401915083830190600581901b8401850160005b828110156121a757601f19868303018452612195828651611d79565b94870194938701939150600101612179565b5060a0880151955088810360c08a01526121c181876120a4565b9998505050505050505050565b6020815260006106e060208301846120f6565b600081830360e08112156121f457600080fd5b6121fc611611565b915060c081121561220c57600080fd5b5061221561167d565b61221f8484611735565b815261222e8460408501611735565b60208201526122408460808501611735565b6040820152815260c08201356001600160401b03811115611aa457600080fd5b6000806040838503121561227357600080fd5b82356001600160401b038082111561228a57600080fd5b612296868387016121e1565b935060208501359150808211156122ac57600080fd5b90840190602082870312156122c057600080fd5b6122c86116e3565b8235828111156122d757600080fd5b6122e388828601611a63565b8252508093505050509250929050565b60006020828403121561230557600080fd5b81356001600160401b0381111561231b57600080fd5b610f34848285016117a4565b6000806080838503121561233a57600080fd5b82356001600160401b0381111561235057600080fd5b61235c858286016121e1565b925050611c3e8460208501611e61565b6020815260008251602080840152610f346040840182611d79565b600082601f83011261239857600080fd5b813560206123a86117c583611781565b82815260059290921b840181019181810190868411156123c757600080fd5b8286015b8481101561180d5780356001600160401b038111156123ea5760008081fd5b6123f88986838b0101611a63565b8452509183019183016123cb565b600082601f83011261241757600080fd5b813560206124276117c583611781565b82815260059290921b8401810191818101908684111561244657600080fd5b8286015b8481101561180d5780356001600160401b038111156124695760008081fd5b6124778986838b01016119f8565b84525091830191830161244a565b6000806040838503121561249857600080fd5b82356001600160401b03808211156124af57600080fd5b6124bb86838701611e8c565b935060208501359150808211156124d157600080fd5b9084019060e082870312156124e557600080fd5b6124ed61165b565b6124f78784611735565b815260408301358281111561250b57600080fd5b61251788828601611951565b60208301525060608301358281111561252f57600080fd5b61253b888286016119f8565b60408301525060808301358281111561255357600080fd5b61255f88828601611a63565b60608301525060a08301358281111561257757600080fd5b61258388828601612387565b60808301525060c08301358281111561259b57600080fd5b6125a788828601612406565b60a0830152508093505050509250929050565b634e487b7160e01b600052603260045260246000fd5b634e487b7160e01b600052601160045260246000fd5b80820180821115610206576102066125d0565b6000815160c0845261260e60c0850182611c56565b9050602083015184820360208601526126278282611c56565b915050604083015161263c6040860182611c47565b50606083015184820360808601526126548282611c9b565b608094909401516001600160a01b031660a09590950194909452509092915050565b60408152600061268960408301856125f9565b8281036020840152611df88185611d9f565b6000602082840312156126ad57600080fd5b815180151581146106e057600080fd5b6000602082840312156126cf57600080fd5b81516106e081611873565b6001600160a01b039384168152919092166020820152604081019190915260600190565b8060005b6004811015612721578151845260209384019390910190600101612702565b50505050565b60a08152600061273a60a08301856125f9565b90506106e060208301846126fe565b60006040828403121561275b57600080fd5b612763611611565b9050815181526020820151602082015292915050565b600082601f83011261278a57600080fd5b8151602061279a6117c583611781565b82815260069290921b840181019181810190868411156127b957600080fd5b8286015b8481101561180d576127cf8882612749565b8352918301916040016127bd565b600082601f8301126127ee57600080fd5b815160206127fe6117c583611781565b82815260059290921b8401810191818101908684111561281d57600080fd5b8286015b8481101561180d5780518352918301918301612821565b6000610100828403121561284b57600080fd5b61285361165b565b905061285f8383612749565b815261286e8360408401612749565b602082015260808201516001600160401b038082111561288d57600080fd5b61289985838601612779565b604084015260a08401519150808211156128b257600080fd5b506128bf848285016127dd565b60608301525060c0820151608082015260e082015160a082015292915050565b600060a082840312156128f157600080fd5b6128f961167d565b90506129058383612749565b81526129148360408401612749565b602082015260808201516001600160401b0381111561293257600080fd5b611a57848285016127dd565b60006060828403121561295057600080fd5b612958611611565b90506129648383612749565b815260408201516001600160401b0381111561297f57600080fd5b611ab0848285016127dd565b60006020828403121561299d57600080fd5b81516001600160401b03808211156129b457600080fd5b9083019060a082860312156129c857600080fd5b6129d061169f565b6129da8684612749565b81526040830151828111156129ee57600080fd5b6129fa87828601612838565b602083015250606083015182811115612a1257600080fd5b612a1e878286016128df565b604083015250608083015182811115612a3657600080fd5b612a428782860161293e565b60608301525095945050505050565b8060005b6003811015612721578151845260209384019390910190600101612a55565b60006101608251818552612a8a82860182611c56565b91505060208301518482036020860152612aa48282611c56565b9150506040830151612ab96040860182611c47565b506060830151612acc6080860182612a51565b506080830151612adf60e0860182611c47565b5060a0830151848203610120860152612af88282611c56565b91505060c0830151848203610140860152611df88282611c56565b604081526000612b266040830185612a74565b602083820381850152608085518352818601518183850152612b4a82850182611c9b565b604088810151908601526060808901518683039190960152845180825290840194840191506000905b80821015612b9a57612b868684516126fe565b948301949184019160019190910190612b73565b509398975050505050505050565b600082601f830112612bb957600080fd5b81516020612bc96117c583611781565b82815260059290921b84018101918181019086841115612be857600080fd5b8286015b8481101561180d5780516001600160401b03811115612c0b5760008081fd5b612c198986838b010161293e565b845250918301918301612bec565b600082601f830112612c3857600080fd5b81516020612c486117c583611781565b82815260059290921b84018101918181019086841115612c6757600080fd5b8286015b8481101561180d5780516001600160401b03811115612c8a5760008081fd5b612c988986838b01016128df565b845250918301918301612c6b565b600060208284031215612cb857600080fd5b81516001600160401b0380821115612ccf57600080fd5b9083019060e08286031215612ce357600080fd5b612ceb61165b565b612cf58684612749565b8152604083015182811115612d0957600080fd5b612d1587828601612838565b602083015250606083015182811115612d2d57600080fd5b612d39878286016128df565b604083015250608083015182811115612d5157600080fd5b612d5d8782860161293e565b60608301525060a083015182811115612d7557600080fd5b612d8187828601612ba8565b60808301525060c083015182811115612d9957600080fd5b612da587828601612c27565b60a08301525095945050505050565b60008151612dc3848251611c47565b6020810151612dd56040860182611c47565b5060400151612de76080850182611c47565b50602082015160e060c0850152610f3460e0850182611c9b565b604081526000612e146040830185612db4565b8281036020840152835160208252612e2f6020830182611d79565b9695505050505050565b600060018201612e4b57612e4b6125d0565b5060010190565b608081526000612e656080830185612db4565b90506106e06020830184612a51565b600060208284031215612e8657600080fd5b81516001600160401b0380821115612e9d57600080fd5b9083019060208286031215612eb157600080fd5b612eb96116e3565b825182811115612ec857600080fd5b612ed48782860161293e565b82525095945050505050565b604081526000612ef36040830185612a74565b8281036020840152611df881856120f656fe405787fa12a823e0f2b7631cc41b3ba8828b3321ca811111fa75cd3aa3bb5ace405787fa12a823e0f2b7631cc41b3ba8828b3321ca811111fa75cd3aa3bb5acf290decd9548b62a8d60345a988386fc84ba6bc95484008f6362f93160ef3e563290decd9548b62a8d60345a988386fc84ba6bc95484008f6362f93160ef3e564b10e2d527612073b26eecdfd717e6a320cf44b4afac2b0732d9fcbe2b7fa0cf6b10e2d527612073b26eecdfd717e6a320cf44b4afac2b0732d9fcbe2b7fa0cf7a2646970667358221220baf4965a5a360b89a8a7a89d5a8a40c396cc0bb1c6e4beb1559493eb5e0fae1564736f6c6343000813003330644e72e131a029b85045b68181585d97816a916871ca8d3c208c16d87cfd47",
  "immutableReferences": {},
  "source": "// SPDX-License-Identifier: GPL-3.0\npragma solidity >=0.4.0 <0.9.0;\n\nimport \"./lib/alt_bn128.sol\";\nimport \"./Token/Token.sol\";\nimport \"./Token/TokenRegistrar.sol\";\nimport \"./PubParam.sol\";\nimport \"./TX/SoKdp.sol\";\nimport \"./TX/SoKwd.sol\";\nimport \"./TX/SoKsp.sol\";\n\nuint constant R_size = 16;\n\ncontract Mixer {\n  \n  using alt_bn128 for uint256;\n  using alt_bn128 for alt_bn128.G1Point;\n\n  alt_bn128.G1Point[] _accs;\n  alt_bn128.G1Point[] _pks;\n  alt_bn128.G1Point[] _tags;\n\n  TokenRegistrar r;\n  PubParam pp;\n  SoKdp dp;\n  SoKwd wd;\n  SoKsp sp;\n\n  constructor (\n    address r_addr, \n    address pp_addr, \n    address dp_addr,\n    address wd_addr,\n    address sp_addr\n  ) {\n    r = TokenRegistrar(r_addr);\n    pp = PubParam(pp_addr);\n    dp = SoKdp(dp_addr);\n    wd = SoKwd(wd_addr);\n    sp = SoKsp(sp_addr);\n\n    init();\n  }\n\n  function init() private {\n    for (uint i = 0; i < R_size; i++){\n      _accs.push(alt_bn128.random(i).uintToCurvePoint());\n    }\n  }\n\n  ///////// deposit /////////\n\n  /// @dev user deposit token into mixer\n  /// @param tx_dp deposit transaction statement\n  /// @param wit witness (sk, opn, ok)\n  /// @return sig deposit signature\n  function deposit(SoKdp.TX memory tx_dp, uint256[3] memory wit) public returns (SoKdp.Sig memory sig){\n\n    Token t = Token(r.getToken(tx_dp.attrS[0]));\n\n    if (!t.approve(address(this), tx_dp.attrS[1])) \n      revert (\"Deposit: Unsuccessful approve operation\");\n\n    sig = dp.sign(tx_dp, wit);\n  }\n\n  /// @dev mixer process deposit request\n  /// @param tx_dp deposit transaction statement\n  /// @param sig deposit signature\n  function process_dp(SoKdp.TX memory tx_dp, SoKdp.Sig memory sig) public returns (bool) {\n    /// @dev b0  T_now  [T_begS ,T_endS)\n    // uint256 time = block.timestamp;\n    uint256 time = 0; // for testing\n    bool b0 = tx_dp.attrS[2] <= time && time < tx_dp.attrS[3]; \n    require(b0, \"Deposit: invalid transaction time\");\n\n    /// @dev b1  pk  pk\n    bool b1 = !_in(_pks, tx_dp.s.pk);\n    require(b1, \"Deposit: pk already used\");\n\n    /// @dev b2  SoKverify(L_dp)\n    bool b2 = dp.verify(tx_dp, sig);\n    require(b2, \"Deposit: SoKdp failed\");\n\n    if (b0 && b1 && b2){\n      alt_bn128.G1Point memory Cx = tx_dp.s.tcom.add(tx_dp.s.ocom);\n      _accs.push(Cx);\n      _pks.push(tx_dp.s.pk);\n      Token t = Token(r.getToken(tx_dp.attrS[0]));\n\n      /// @dev ty.transfer[owner, mixer]\n      return t.transfer(msg.sender, address(this), tx_dp.attrS[1]);\n    }\n    return false;\n  }\n\n  //////// withdraw //////////\n\n  /// @dev withdraw token from mixer\n  /// @param tx_wd withdraw transaction statement\n  /// @param wit (theta, sk, opn, ok)\n  function withdraw(SoKwd.TX memory tx_wd, uint256[4] memory wit) public view returns (SoKwd.Sig memory){\n    return wd.sign(tx_wd, wit);\n  }\n  \n  function process_wd(SoKwd.TX memory tx_wd, SoKwd.Sig memory sig) public returns (bool) {\n    if (!isValid(tx_wd.R)) revert(\"Withdraw: Invalid R\");\n\n    /// @dev b0  T_now  [T_begS ,T_endS)\n    // uint256 time = block.timestamp;\n    uint256 time = tx_wd.attrS[2]+1; // for testing\n    bool b0 = tx_wd.attrS[2] <= time && time < tx_wd.attrS[3];\n    require(b0, \"Withdraw: invalid transaction time\");\n\n    /// @dev b1 = verify signature\n    bool b1 = wd.verify(tx_wd, sig);\n    require (b1, \"Withdraw: SoKwd failed\");\n\n    /// @dev b2  tagS  tag\n    bool b2 = !_in(_tags, tx_wd.tag);\n    require(b2, \"Withdraw: tag already used\");\n\n    if (b0 && b1 && b2) {\n      _tags.push(tx_wd.tag);\n\n      Token t = Token(r.getToken(tx_wd.attrS[0]));\n      /// @dev ty.transfer[mixer, rcpt]\n      return t.transfer(address(this), tx_wd.u_rcpt, tx_wd.attrS[1]);\n    }\n    return false;\n  }\n\n  function spend(SoKsp.TX memory tx_sp, SoKsp.Wit memory wit) public view returns (SoKsp.Sig memory){\n    return sp.sign(tx_sp, wit);\n  }\n\n  function process_sp(SoKsp.TX memory tx_sp, SoKsp.Sig memory sig) public returns (bool) {\n    if (!isValid(tx_sp.R)) revert(\"Spend: Invalid R\");\n\n    // uint256 time = 5; // for testing\n    /// @dev b0  T_now  [T_begS ,T_endS)\n    // uint256 time = block.timestamp;\n    uint256 time = tx_sp.attrS[1] + 1; // for testing\n    bool b0 = tx_sp.attrS[1] <= time && time < tx_sp.attrS[2]; \n    require (b0, \"Spend: invalid transaction time\");\n\n    // b1  pkT  pk\n    bool b1 = !_in(_pks, tx_sp.pk_T);\n    require(b1, \"Spend: pkT already used\");\n\n    // b2  tagS  tag\n    bool b2 = !_in(_tags, tx_sp.tagS);\n    require(b2, \"Spend: tagS already used\");\n\n    bool b3 = sp.verify(tx_sp, sig);\n    require (b3, \"Spend: SoKsp failed\");\n\n    if (b0 && b1 && b2 && b3){\n      _tags.push(tx_sp.tagS);\n      _pks.push(tx_sp.pk_T);\n\n      alt_bn128.G1Point memory acc;\n      for (uint i = 0; i < tx_sp.ocom_T.length; i++) {\n        acc = tx_sp.tcom_T[i].add(tx_sp.ocom_T[i]);\n        _accs.push(acc);\n      }\n      return true;\n    }\n    return false;\n  }\n\n  function get_accs() public view returns (alt_bn128.G1Point[] memory){\n    return _accs;\n  }\n\n  function isValid(alt_bn128.G1Point[] memory R) public view returns (bool) {\n    for (uint i = 0; i < R.length; i++) {\n      if (!_in(_accs, R[i])) return false;\n    }\n    return true;\n  }\n\n  function inAcc(alt_bn128.G1Point memory g) public view returns (bool) {\n    return _in(_accs, g);\n  }\n\n  function inTag(alt_bn128.G1Point memory g) public view returns (bool) {\n    return _in(_tags, g);\n  }\n\n  function _in(\n    alt_bn128.G1Point[] memory ls,\n    alt_bn128.G1Point memory g\n  ) private pure returns (bool) {\n    for (uint i = 0 ; i < ls.length; i++) {\n      if (alt_bn128.eq(ls[i], g)) return true;\n    }\n    return false;\n  }\n\n}",
  "sourcePath": "/Users/qian/Desktop/Y4/COMP4550/project/XCSwap/contracts/Mixer.sol",
  "compiler": {
    "name": "solc",
    "version": "0.8.19+commit.7dd6d404.Emscripten.clang"
  },
  "schemaVersion": "3.4.13",
  "updatedAt": "2023-08-19T19:16:54.538Z",
  "networkType": "ethereum",
  "devdoc": {
    "kind": "dev",
    "methods": {
      "deposit((((uint256,uint256),(uint256,uint256),(uint256,uint256)),uint256[]),uint256[3])": {
        "details": "user deposit token into mixer",
        "params": {
          "tx_dp": "deposit transaction statement",
          "wit": "witness (sk, opn, ok)"
        },
        "returns": {
          "sig": "deposit signature"
        }
      },
      "process_dp((((uint256,uint256),(uint256,uint256),(uint256,uint256)),uint256[]),(((uint256,uint256),uint256[])))": {
        "details": "mixer process deposit request",
        "params": {
          "sig": "deposit signature",
          "tx_dp": "deposit transaction statement"
        }
      },
      "withdraw(((uint256,uint256)[],(uint256,uint256)[],(uint256,uint256),uint256[],address),uint256[4])": {
        "details": "withdraw token from mixer",
        "params": {
          "tx_wd": "withdraw transaction statement",
          "wit": "(theta, sk, opn, ok)"
        }
      }
    },
    "version": 1
  },
  "userdoc": {
    "kind": "user",
    "methods": {},
    "version": 1
  }
}