{
  "contractName": "Mixer",
  "abi": [
    {
      "inputs": [
        {
          "internalType": "address",
          "name": "r_addr",
          "type": "address"
        },
        {
          "internalType": "address",
          "name": "pp_addr",
          "type": "address"
        },
        {
          "internalType": "address",
          "name": "dp_addr",
          "type": "address"
        },
        {
          "internalType": "address",
          "name": "wd_addr",
          "type": "address"
        },
        {
          "internalType": "address",
          "name": "sp_addr",
          "type": "address"
        }
      ],
      "stateMutability": "nonpayable",
      "type": "constructor"
    },
    {
      "inputs": [
        {
          "components": [
            {
              "components": [
                {
                  "components": [
                    {
                      "internalType": "uint256",
                      "name": "X",
                      "type": "uint256"
                    },
                    {
                      "internalType": "uint256",
                      "name": "Y",
                      "type": "uint256"
                    }
                  ],
                  "internalType": "struct alt_bn128.G1Point",
                  "name": "pk",
                  "type": "tuple"
                },
                {
                  "components": [
                    {
                      "internalType": "uint256",
                      "name": "X",
                      "type": "uint256"
                    },
                    {
                      "internalType": "uint256",
                      "name": "Y",
                      "type": "uint256"
                    }
                  ],
                  "internalType": "struct alt_bn128.G1Point",
                  "name": "tcom",
                  "type": "tuple"
                },
                {
                  "components": [
                    {
                      "internalType": "uint256",
                      "name": "X",
                      "type": "uint256"
                    },
                    {
                      "internalType": "uint256",
                      "name": "Y",
                      "type": "uint256"
                    }
                  ],
                  "internalType": "struct alt_bn128.G1Point",
                  "name": "ocom",
                  "type": "tuple"
                }
              ],
              "internalType": "struct PubParam.Acc",
              "name": "s",
              "type": "tuple"
            },
            {
              "internalType": "uint256[]",
              "name": "attrS",
              "type": "uint256[]"
            }
          ],
          "internalType": "struct SoKdp.TX",
          "name": "tx_dp",
          "type": "tuple"
        },
        {
          "internalType": "uint256[3]",
          "name": "wit",
          "type": "uint256[3]"
        }
      ],
      "name": "deposit",
      "outputs": [
        {
          "components": [
            {
              "components": [
                {
                  "components": [
                    {
                      "internalType": "uint256",
                      "name": "X",
                      "type": "uint256"
                    },
                    {
                      "internalType": "uint256",
                      "name": "Y",
                      "type": "uint256"
                    }
                  ],
                  "internalType": "struct alt_bn128.G1Point",
                  "name": "c",
                  "type": "tuple"
                },
                {
                  "internalType": "uint256[]",
                  "name": "zs",
                  "type": "uint256[]"
                }
              ],
              "internalType": "struct PartialEquality.Sig",
              "name": "pe_sig",
              "type": "tuple"
            }
          ],
          "internalType": "struct SoKdp.Sig",
          "name": "sig",
          "type": "tuple"
        }
      ],
      "stateMutability": "nonpayable",
      "type": "function"
    },
    {
      "inputs": [
        {
          "components": [
            {
              "components": [
                {
                  "components": [
                    {
                      "internalType": "uint256",
                      "name": "X",
                      "type": "uint256"
                    },
                    {
                      "internalType": "uint256",
                      "name": "Y",
                      "type": "uint256"
                    }
                  ],
                  "internalType": "struct alt_bn128.G1Point",
                  "name": "pk",
                  "type": "tuple"
                },
                {
                  "components": [
                    {
                      "internalType": "uint256",
                      "name": "X",
                      "type": "uint256"
                    },
                    {
                      "internalType": "uint256",
                      "name": "Y",
                      "type": "uint256"
                    }
                  ],
                  "internalType": "struct alt_bn128.G1Point",
                  "name": "tcom",
                  "type": "tuple"
                },
                {
                  "components": [
                    {
                      "internalType": "uint256",
                      "name": "X",
                      "type": "uint256"
                    },
                    {
                      "internalType": "uint256",
                      "name": "Y",
                      "type": "uint256"
                    }
                  ],
                  "internalType": "struct alt_bn128.G1Point",
                  "name": "ocom",
                  "type": "tuple"
                }
              ],
              "internalType": "struct PubParam.Acc",
              "name": "s",
              "type": "tuple"
            },
            {
              "internalType": "uint256[]",
              "name": "attrS",
              "type": "uint256[]"
            }
          ],
          "internalType": "struct SoKdp.TX",
          "name": "tx_dp",
          "type": "tuple"
        },
        {
          "components": [
            {
              "components": [
                {
                  "components": [
                    {
                      "internalType": "uint256",
                      "name": "X",
                      "type": "uint256"
                    },
                    {
                      "internalType": "uint256",
                      "name": "Y",
                      "type": "uint256"
                    }
                  ],
                  "internalType": "struct alt_bn128.G1Point",
                  "name": "c",
                  "type": "tuple"
                },
                {
                  "internalType": "uint256[]",
                  "name": "zs",
                  "type": "uint256[]"
                }
              ],
              "internalType": "struct PartialEquality.Sig",
              "name": "pe_sig",
              "type": "tuple"
            }
          ],
          "internalType": "struct SoKdp.Sig",
          "name": "sig",
          "type": "tuple"
        }
      ],
      "name": "process_dp",
      "outputs": [
        {
          "internalType": "bool",
          "name": "",
          "type": "bool"
        }
      ],
      "stateMutability": "nonpayable",
      "type": "function"
    },
    {
      "inputs": [
        {
          "components": [
            {
              "components": [
                {
                  "internalType": "uint256",
                  "name": "X",
                  "type": "uint256"
                },
                {
                  "internalType": "uint256",
                  "name": "Y",
                  "type": "uint256"
                }
              ],
              "internalType": "struct alt_bn128.G1Point[]",
              "name": "R",
              "type": "tuple[]"
            },
            {
              "components": [
                {
                  "internalType": "uint256",
                  "name": "X",
                  "type": "uint256"
                },
                {
                  "internalType": "uint256",
                  "name": "Y",
                  "type": "uint256"
                }
              ],
              "internalType": "struct alt_bn128.G1Point",
              "name": "tag",
              "type": "tuple"
            },
            {
              "internalType": "uint256[]",
              "name": "attrS",
              "type": "uint256[]"
            },
            {
              "internalType": "address",
              "name": "u_rcpt",
              "type": "address"
            }
          ],
          "internalType": "struct SoKwd.TX",
          "name": "tx_wd",
          "type": "tuple"
        },
        {
          "internalType": "uint256[4]",
          "name": "wit",
          "type": "uint256[4]"
        }
      ],
      "name": "withdraw",
      "outputs": [
        {
          "components": [
            {
              "components": [
                {
                  "internalType": "uint256",
                  "name": "X",
                  "type": "uint256"
                },
                {
                  "internalType": "uint256",
                  "name": "Y",
                  "type": "uint256"
                }
              ],
              "internalType": "struct alt_bn128.G1Point",
              "name": "acc_d",
              "type": "tuple"
            },
            {
              "components": [
                {
                  "internalType": "uint256",
                  "name": "z",
                  "type": "uint256"
                },
                {
                  "components": [
                    {
                      "internalType": "uint256",
                      "name": "X",
                      "type": "uint256"
                    },
                    {
                      "internalType": "uint256",
                      "name": "Y",
                      "type": "uint256"
                    }
                  ],
                  "internalType": "struct alt_bn128.G1Point",
                  "name": "R",
                  "type": "tuple"
                },
                {
                  "components": [
                    {
                      "components": [
                        {
                          "internalType": "uint256",
                          "name": "X",
                          "type": "uint256"
                        },
                        {
                          "internalType": "uint256",
                          "name": "Y",
                          "type": "uint256"
                        }
                      ],
                      "internalType": "struct alt_bn128.G1Point[]",
                      "name": "Ls",
                      "type": "tuple[]"
                    },
                    {
                      "components": [
                        {
                          "internalType": "uint256",
                          "name": "X",
                          "type": "uint256"
                        },
                        {
                          "internalType": "uint256",
                          "name": "Y",
                          "type": "uint256"
                        }
                      ],
                      "internalType": "struct alt_bn128.G1Point[]",
                      "name": "Rs",
                      "type": "tuple[]"
                    },
                    {
                      "internalType": "uint256",
                      "name": "a",
                      "type": "uint256"
                    },
                    {
                      "internalType": "uint256",
                      "name": "b",
                      "type": "uint256"
                    }
                  ],
                  "internalType": "struct NISA.Sig",
                  "name": "nisa_sig",
                  "type": "tuple"
                }
              ],
              "internalType": "struct DualRingEC.SigEC",
              "name": "dr_sig",
              "type": "tuple"
            },
            {
              "components": [
                {
                  "components": [
                    {
                      "internalType": "uint256",
                      "name": "X",
                      "type": "uint256"
                    },
                    {
                      "internalType": "uint256",
                      "name": "Y",
                      "type": "uint256"
                    }
                  ],
                  "internalType": "struct alt_bn128.G1Point",
                  "name": "cx",
                  "type": "tuple"
                },
                {
                  "components": [
                    {
                      "internalType": "uint256",
                      "name": "X",
                      "type": "uint256"
                    },
                    {
                      "internalType": "uint256",
                      "name": "Y",
                      "type": "uint256"
                    }
                  ],
                  "internalType": "struct alt_bn128.G1Point",
                  "name": "cy",
                  "type": "tuple"
                },
                {
                  "internalType": "uint256[]",
                  "name": "zs",
                  "type": "uint256[]"
                }
              ],
              "internalType": "struct DiffGenEqual.Sig",
              "name": "dg_sig",
              "type": "tuple"
            },
            {
              "components": [
                {
                  "components": [
                    {
                      "internalType": "uint256",
                      "name": "X",
                      "type": "uint256"
                    },
                    {
                      "internalType": "uint256",
                      "name": "Y",
                      "type": "uint256"
                    }
                  ],
                  "internalType": "struct alt_bn128.G1Point",
                  "name": "c",
                  "type": "tuple"
                },
                {
                  "internalType": "uint256[]",
                  "name": "zs",
                  "type": "uint256[]"
                }
              ],
              "internalType": "struct PartialEquality.Sig",
              "name": "pe_sig",
              "type": "tuple"
            }
          ],
          "internalType": "struct SoKwd.Sig",
          "name": "",
          "type": "tuple"
        }
      ],
      "stateMutability": "view",
      "type": "function"
    },
    {
      "inputs": [
        {
          "components": [
            {
              "components": [
                {
                  "internalType": "uint256",
                  "name": "X",
                  "type": "uint256"
                },
                {
                  "internalType": "uint256",
                  "name": "Y",
                  "type": "uint256"
                }
              ],
              "internalType": "struct alt_bn128.G1Point[]",
              "name": "R",
              "type": "tuple[]"
            },
            {
              "components": [
                {
                  "internalType": "uint256",
                  "name": "X",
                  "type": "uint256"
                },
                {
                  "internalType": "uint256",
                  "name": "Y",
                  "type": "uint256"
                }
              ],
              "internalType": "struct alt_bn128.G1Point",
              "name": "tag",
              "type": "tuple"
            },
            {
              "internalType": "uint256[]",
              "name": "attrS",
              "type": "uint256[]"
            },
            {
              "internalType": "address",
              "name": "u_rcpt",
              "type": "address"
            }
          ],
          "internalType": "struct SoKwd.TX",
          "name": "tx_wd",
          "type": "tuple"
        },
        {
          "components": [
            {
              "components": [
                {
                  "internalType": "uint256",
                  "name": "X",
                  "type": "uint256"
                },
                {
                  "internalType": "uint256",
                  "name": "Y",
                  "type": "uint256"
                }
              ],
              "internalType": "struct alt_bn128.G1Point",
              "name": "acc_d",
              "type": "tuple"
            },
            {
              "components": [
                {
                  "internalType": "uint256",
                  "name": "z",
                  "type": "uint256"
                },
                {
                  "components": [
                    {
                      "internalType": "uint256",
                      "name": "X",
                      "type": "uint256"
                    },
                    {
                      "internalType": "uint256",
                      "name": "Y",
                      "type": "uint256"
                    }
                  ],
                  "internalType": "struct alt_bn128.G1Point",
                  "name": "R",
                  "type": "tuple"
                },
                {
                  "components": [
                    {
                      "components": [
                        {
                          "internalType": "uint256",
                          "name": "X",
                          "type": "uint256"
                        },
                        {
                          "internalType": "uint256",
                          "name": "Y",
                          "type": "uint256"
                        }
                      ],
                      "internalType": "struct alt_bn128.G1Point[]",
                      "name": "Ls",
                      "type": "tuple[]"
                    },
                    {
                      "components": [
                        {
                          "internalType": "uint256",
                          "name": "X",
                          "type": "uint256"
                        },
                        {
                          "internalType": "uint256",
                          "name": "Y",
                          "type": "uint256"
                        }
                      ],
                      "internalType": "struct alt_bn128.G1Point[]",
                      "name": "Rs",
                      "type": "tuple[]"
                    },
                    {
                      "internalType": "uint256",
                      "name": "a",
                      "type": "uint256"
                    },
                    {
                      "internalType": "uint256",
                      "name": "b",
                      "type": "uint256"
                    }
                  ],
                  "internalType": "struct NISA.Sig",
                  "name": "nisa_sig",
                  "type": "tuple"
                }
              ],
              "internalType": "struct DualRingEC.SigEC",
              "name": "dr_sig",
              "type": "tuple"
            },
            {
              "components": [
                {
                  "components": [
                    {
                      "internalType": "uint256",
                      "name": "X",
                      "type": "uint256"
                    },
                    {
                      "internalType": "uint256",
                      "name": "Y",
                      "type": "uint256"
                    }
                  ],
                  "internalType": "struct alt_bn128.G1Point",
                  "name": "cx",
                  "type": "tuple"
                },
                {
                  "components": [
                    {
                      "internalType": "uint256",
                      "name": "X",
                      "type": "uint256"
                    },
                    {
                      "internalType": "uint256",
                      "name": "Y",
                      "type": "uint256"
                    }
                  ],
                  "internalType": "struct alt_bn128.G1Point",
                  "name": "cy",
                  "type": "tuple"
                },
                {
                  "internalType": "uint256[]",
                  "name": "zs",
                  "type": "uint256[]"
                }
              ],
              "internalType": "struct DiffGenEqual.Sig",
              "name": "dg_sig",
              "type": "tuple"
            },
            {
              "components": [
                {
                  "components": [
                    {
                      "internalType": "uint256",
                      "name": "X",
                      "type": "uint256"
                    },
                    {
                      "internalType": "uint256",
                      "name": "Y",
                      "type": "uint256"
                    }
                  ],
                  "internalType": "struct alt_bn128.G1Point",
                  "name": "c",
                  "type": "tuple"
                },
                {
                  "internalType": "uint256[]",
                  "name": "zs",
                  "type": "uint256[]"
                }
              ],
              "internalType": "struct PartialEquality.Sig",
              "name": "pe_sig",
              "type": "tuple"
            }
          ],
          "internalType": "struct SoKwd.Sig",
          "name": "sig",
          "type": "tuple"
        }
      ],
      "name": "process_wd",
      "outputs": [
        {
          "internalType": "bool",
          "name": "",
          "type": "bool"
        }
      ],
      "stateMutability": "nonpayable",
      "type": "function"
    },
    {
      "inputs": [
        {
          "components": [
            {
              "components": [
                {
                  "internalType": "uint256",
                  "name": "X",
                  "type": "uint256"
                },
                {
                  "internalType": "uint256",
                  "name": "Y",
                  "type": "uint256"
                }
              ],
              "internalType": "struct alt_bn128.G1Point[]",
              "name": "R",
              "type": "tuple[]"
            },
            {
              "components": [
                {
                  "internalType": "uint256",
                  "name": "X",
                  "type": "uint256"
                },
                {
                  "internalType": "uint256",
                  "name": "Y",
                  "type": "uint256"
                }
              ],
              "internalType": "struct alt_bn128.G1Point",
              "name": "tagS",
              "type": "tuple"
            },
            {
              "internalType": "uint256[3]",
              "name": "attrS",
              "type": "uint256[3]"
            },
            {
              "components": [
                {
                  "internalType": "uint256",
                  "name": "X",
                  "type": "uint256"
                },
                {
                  "internalType": "uint256",
                  "name": "Y",
                  "type": "uint256"
                }
              ],
              "internalType": "struct alt_bn128.G1Point",
              "name": "pk_T",
              "type": "tuple"
            },
            {
              "components": [
                {
                  "internalType": "uint256",
                  "name": "X",
                  "type": "uint256"
                },
                {
                  "internalType": "uint256",
                  "name": "Y",
                  "type": "uint256"
                }
              ],
              "internalType": "struct alt_bn128.G1Point[]",
              "name": "tcom_T",
              "type": "tuple[]"
            },
            {
              "components": [
                {
                  "internalType": "uint256",
                  "name": "X",
                  "type": "uint256"
                },
                {
                  "internalType": "uint256",
                  "name": "Y",
                  "type": "uint256"
                }
              ],
              "internalType": "struct alt_bn128.G1Point[]",
              "name": "ocom_T",
              "type": "tuple[]"
            }
          ],
          "internalType": "struct SoKsp.TX",
          "name": "tx_sp",
          "type": "tuple"
        },
        {
          "components": [
            {
              "internalType": "uint256",
              "name": "theta",
              "type": "uint256"
            },
            {
              "internalType": "uint256[]",
              "name": "attrS",
              "type": "uint256[]"
            },
            {
              "internalType": "uint256",
              "name": "sk_T",
              "type": "uint256"
            },
            {
              "internalType": "uint256[4][]",
              "name": "attrTs",
              "type": "uint256[4][]"
            }
          ],
          "internalType": "struct SoKsp.Wit",
          "name": "wit",
          "type": "tuple"
        }
      ],
      "name": "spend",
      "outputs": [
        {
          "components": [
            {
              "components": [
                {
                  "internalType": "uint256",
                  "name": "X",
                  "type": "uint256"
                },
                {
                  "internalType": "uint256",
                  "name": "Y",
                  "type": "uint256"
                }
              ],
              "internalType": "struct alt_bn128.G1Point",
              "name": "acc_d",
              "type": "tuple"
            },
            {
              "components": [
                {
                  "internalType": "uint256",
                  "name": "z",
                  "type": "uint256"
                },
                {
                  "components": [
                    {
                      "internalType": "uint256",
                      "name": "X",
                      "type": "uint256"
                    },
                    {
                      "internalType": "uint256",
                      "name": "Y",
                      "type": "uint256"
                    }
                  ],
                  "internalType": "struct alt_bn128.G1Point",
                  "name": "R",
                  "type": "tuple"
                },
                {
                  "components": [
                    {
                      "components": [
                        {
                          "internalType": "uint256",
                          "name": "X",
                          "type": "uint256"
                        },
                        {
                          "internalType": "uint256",
                          "name": "Y",
                          "type": "uint256"
                        }
                      ],
                      "internalType": "struct alt_bn128.G1Point[]",
                      "name": "Ls",
                      "type": "tuple[]"
                    },
                    {
                      "components": [
                        {
                          "internalType": "uint256",
                          "name": "X",
                          "type": "uint256"
                        },
                        {
                          "internalType": "uint256",
                          "name": "Y",
                          "type": "uint256"
                        }
                      ],
                      "internalType": "struct alt_bn128.G1Point[]",
                      "name": "Rs",
                      "type": "tuple[]"
                    },
                    {
                      "internalType": "uint256",
                      "name": "a",
                      "type": "uint256"
                    },
                    {
                      "internalType": "uint256",
                      "name": "b",
                      "type": "uint256"
                    }
                  ],
                  "internalType": "struct NISA.Sig",
                  "name": "nisa_sig",
                  "type": "tuple"
                }
              ],
              "internalType": "struct DualRingEC.SigEC",
              "name": "dr_sig",
              "type": "tuple"
            },
            {
              "components": [
                {
                  "components": [
                    {
                      "internalType": "uint256",
                      "name": "X",
                      "type": "uint256"
                    },
                    {
                      "internalType": "uint256",
                      "name": "Y",
                      "type": "uint256"
                    }
                  ],
                  "internalType": "struct alt_bn128.G1Point",
                  "name": "cx",
                  "type": "tuple"
                },
                {
                  "components": [
                    {
                      "internalType": "uint256",
                      "name": "X",
                      "type": "uint256"
                    },
                    {
                      "internalType": "uint256",
                      "name": "Y",
                      "type": "uint256"
                    }
                  ],
                  "internalType": "struct alt_bn128.G1Point",
                  "name": "cy",
                  "type": "tuple"
                },
                {
                  "internalType": "uint256[]",
                  "name": "zs",
                  "type": "uint256[]"
                }
              ],
              "internalType": "struct DiffGenEqual.Sig",
              "name": "dg_tag_sig",
              "type": "tuple"
            },
            {
              "components": [
                {
                  "components": [
                    {
                      "internalType": "uint256",
                      "name": "X",
                      "type": "uint256"
                    },
                    {
                      "internalType": "uint256",
                      "name": "Y",
                      "type": "uint256"
                    }
                  ],
                  "internalType": "struct alt_bn128.G1Point",
                  "name": "c",
                  "type": "tuple"
                },
                {
                  "internalType": "uint256[]",
                  "name": "zs",
                  "type": "uint256[]"
                }
              ],
              "internalType": "struct PartialEquality.Sig",
              "name": "pe_opn_sig",
              "type": "tuple"
            },
            {
              "components": [
                {
                  "components": [
                    {
                      "internalType": "uint256",
                      "name": "X",
                      "type": "uint256"
                    },
                    {
                      "internalType": "uint256",
                      "name": "Y",
                      "type": "uint256"
                    }
                  ],
                  "internalType": "struct alt_bn128.G1Point",
                  "name": "c",
                  "type": "tuple"
                },
                {
                  "internalType": "uint256[]",
                  "name": "zs",
                  "type": "uint256[]"
                }
              ],
              "internalType": "struct PartialEquality.Sig[]",
              "name": "pe_ty_sig",
              "type": "tuple[]"
            },
            {
              "components": [
                {
                  "components": [
                    {
                      "internalType": "uint256",
                      "name": "X",
                      "type": "uint256"
                    },
                    {
                      "internalType": "uint256",
                      "name": "Y",
                      "type": "uint256"
                    }
                  ],
                  "internalType": "struct alt_bn128.G1Point",
                  "name": "cx",
                  "type": "tuple"
                },
                {
                  "components": [
                    {
                      "internalType": "uint256",
                      "name": "X",
                      "type": "uint256"
                    },
                    {
                      "internalType": "uint256",
                      "name": "Y",
                      "type": "uint256"
                    }
                  ],
                  "internalType": "struct alt_bn128.G1Point",
                  "name": "cy",
                  "type": "tuple"
                },
                {
                  "internalType": "uint256[]",
                  "name": "zs",
                  "type": "uint256[]"
                }
              ],
              "internalType": "struct DiffGenEqual.Sig[]",
              "name": "dg_sk_sig",
              "type": "tuple[]"
            }
          ],
          "internalType": "struct SoKsp.Sig",
          "name": "",
          "type": "tuple"
        }
      ],
      "stateMutability": "view",
      "type": "function"
    },
    {
      "inputs": [
        {
          "components": [
            {
              "components": [
                {
                  "internalType": "uint256",
                  "name": "X",
                  "type": "uint256"
                },
                {
                  "internalType": "uint256",
                  "name": "Y",
                  "type": "uint256"
                }
              ],
              "internalType": "struct alt_bn128.G1Point[]",
              "name": "R",
              "type": "tuple[]"
            },
            {
              "components": [
                {
                  "internalType": "uint256",
                  "name": "X",
                  "type": "uint256"
                },
                {
                  "internalType": "uint256",
                  "name": "Y",
                  "type": "uint256"
                }
              ],
              "internalType": "struct alt_bn128.G1Point",
              "name": "tagS",
              "type": "tuple"
            },
            {
              "internalType": "uint256[3]",
              "name": "attrS",
              "type": "uint256[3]"
            },
            {
              "components": [
                {
                  "internalType": "uint256",
                  "name": "X",
                  "type": "uint256"
                },
                {
                  "internalType": "uint256",
                  "name": "Y",
                  "type": "uint256"
                }
              ],
              "internalType": "struct alt_bn128.G1Point",
              "name": "pk_T",
              "type": "tuple"
            },
            {
              "components": [
                {
                  "internalType": "uint256",
                  "name": "X",
                  "type": "uint256"
                },
                {
                  "internalType": "uint256",
                  "name": "Y",
                  "type": "uint256"
                }
              ],
              "internalType": "struct alt_bn128.G1Point[]",
              "name": "tcom_T",
              "type": "tuple[]"
            },
            {
              "components": [
                {
                  "internalType": "uint256",
                  "name": "X",
                  "type": "uint256"
                },
                {
                  "internalType": "uint256",
                  "name": "Y",
                  "type": "uint256"
                }
              ],
              "internalType": "struct alt_bn128.G1Point[]",
              "name": "ocom_T",
              "type": "tuple[]"
            }
          ],
          "internalType": "struct SoKsp.TX",
          "name": "tx_sp",
          "type": "tuple"
        },
        {
          "components": [
            {
              "components": [
                {
                  "internalType": "uint256",
                  "name": "X",
                  "type": "uint256"
                },
                {
                  "internalType": "uint256",
                  "name": "Y",
                  "type": "uint256"
                }
              ],
              "internalType": "struct alt_bn128.G1Point",
              "name": "acc_d",
              "type": "tuple"
            },
            {
              "components": [
                {
                  "internalType": "uint256",
                  "name": "z",
                  "type": "uint256"
                },
                {
                  "components": [
                    {
                      "internalType": "uint256",
                      "name": "X",
                      "type": "uint256"
                    },
                    {
                      "internalType": "uint256",
                      "name": "Y",
                      "type": "uint256"
                    }
                  ],
                  "internalType": "struct alt_bn128.G1Point",
                  "name": "R",
                  "type": "tuple"
                },
                {
                  "components": [
                    {
                      "components": [
                        {
                          "internalType": "uint256",
                          "name": "X",
                          "type": "uint256"
                        },
                        {
                          "internalType": "uint256",
                          "name": "Y",
                          "type": "uint256"
                        }
                      ],
                      "internalType": "struct alt_bn128.G1Point[]",
                      "name": "Ls",
                      "type": "tuple[]"
                    },
                    {
                      "components": [
                        {
                          "internalType": "uint256",
                          "name": "X",
                          "type": "uint256"
                        },
                        {
                          "internalType": "uint256",
                          "name": "Y",
                          "type": "uint256"
                        }
                      ],
                      "internalType": "struct alt_bn128.G1Point[]",
                      "name": "Rs",
                      "type": "tuple[]"
                    },
                    {
                      "internalType": "uint256",
                      "name": "a",
                      "type": "uint256"
                    },
                    {
                      "internalType": "uint256",
                      "name": "b",
                      "type": "uint256"
                    }
                  ],
                  "internalType": "struct NISA.Sig",
                  "name": "nisa_sig",
                  "type": "tuple"
                }
              ],
              "internalType": "struct DualRingEC.SigEC",
              "name": "dr_sig",
              "type": "tuple"
            },
            {
              "components": [
                {
                  "components": [
                    {
                      "internalType": "uint256",
                      "name": "X",
                      "type": "uint256"
                    },
                    {
                      "internalType": "uint256",
                      "name": "Y",
                      "type": "uint256"
                    }
                  ],
                  "internalType": "struct alt_bn128.G1Point",
                  "name": "cx",
                  "type": "tuple"
                },
                {
                  "components": [
                    {
                      "internalType": "uint256",
                      "name": "X",
                      "type": "uint256"
                    },
                    {
                      "internalType": "uint256",
                      "name": "Y",
                      "type": "uint256"
                    }
                  ],
                  "internalType": "struct alt_bn128.G1Point",
                  "name": "cy",
                  "type": "tuple"
                },
                {
                  "internalType": "uint256[]",
                  "name": "zs",
                  "type": "uint256[]"
                }
              ],
              "internalType": "struct DiffGenEqual.Sig",
              "name": "dg_tag_sig",
              "type": "tuple"
            },
            {
              "components": [
                {
                  "components": [
                    {
                      "internalType": "uint256",
                      "name": "X",
                      "type": "uint256"
                    },
                    {
                      "internalType": "uint256",
                      "name": "Y",
                      "type": "uint256"
                    }
                  ],
                  "internalType": "struct alt_bn128.G1Point",
                  "name": "c",
                  "type": "tuple"
                },
                {
                  "internalType": "uint256[]",
                  "name": "zs",
                  "type": "uint256[]"
                }
              ],
              "internalType": "struct PartialEquality.Sig",
              "name": "pe_opn_sig",
              "type": "tuple"
            },
            {
              "components": [
                {
                  "components": [
                    {
                      "internalType": "uint256",
                      "name": "X",
                      "type": "uint256"
                    },
                    {
                      "internalType": "uint256",
                      "name": "Y",
                      "type": "uint256"
                    }
                  ],
                  "internalType": "struct alt_bn128.G1Point",
                  "name": "c",
                  "type": "tuple"
                },
                {
                  "internalType": "uint256[]",
                  "name": "zs",
                  "type": "uint256[]"
                }
              ],
              "internalType": "struct PartialEquality.Sig[]",
              "name": "pe_ty_sig",
              "type": "tuple[]"
            },
            {
              "components": [
                {
                  "components": [
                    {
                      "internalType": "uint256",
                      "name": "X",
                      "type": "uint256"
                    },
                    {
                      "internalType": "uint256",
                      "name": "Y",
                      "type": "uint256"
                    }
                  ],
                  "internalType": "struct alt_bn128.G1Point",
                  "name": "cx",
                  "type": "tuple"
                },
                {
                  "components": [
                    {
                      "internalType": "uint256",
                      "name": "X",
                      "type": "uint256"
                    },
                    {
                      "internalType": "uint256",
                      "name": "Y",
                      "type": "uint256"
                    }
                  ],
                  "internalType": "struct alt_bn128.G1Point",
                  "name": "cy",
                  "type": "tuple"
                },
                {
                  "internalType": "uint256[]",
                  "name": "zs",
                  "type": "uint256[]"
                }
              ],
              "internalType": "struct DiffGenEqual.Sig[]",
              "name": "dg_sk_sig",
              "type": "tuple[]"
            }
          ],
          "internalType": "struct SoKsp.Sig",
          "name": "sig",
          "type": "tuple"
        }
      ],
      "name": "process_sp",
      "outputs": [
        {
          "internalType": "bool",
          "name": "",
          "type": "bool"
        }
      ],
      "stateMutability": "nonpayable",
      "type": "function"
    },
    {
      "inputs": [
        {
          "components": [
            {
              "internalType": "uint256",
              "name": "X",
              "type": "uint256"
            },
            {
              "internalType": "uint256",
              "name": "Y",
              "type": "uint256"
            }
          ],
          "internalType": "struct alt_bn128.G1Point[]",
          "name": "ls",
          "type": "tuple[]"
        },
        {
          "components": [
            {
              "internalType": "uint256",
              "name": "X",
              "type": "uint256"
            },
            {
              "internalType": "uint256",
              "name": "Y",
              "type": "uint256"
            }
          ],
          "internalType": "struct alt_bn128.G1Point",
          "name": "pk",
          "type": "tuple"
        }
      ],
      "name": "_in",
      "outputs": [
        {
          "internalType": "bool",
          "name": "",
          "type": "bool"
        }
      ],
      "stateMutability": "pure",
      "type": "function"
    }
  ],
  "bytecode": "0x60806040523480156200001157600080fd5b5060405162002ae238038062002ae28339810160408190526200003491620000b4565b600380546001600160a01b03199081166001600160a01b0397881617909155600480548216958716959095179094556005805485169386169390931790925560068054841691851691909117905560078054909216921691909117905562000124565b80516001600160a01b0381168114620000af57600080fd5b919050565b600080600080600060a08688031215620000cd57600080fd5b620000d88662000097565b9450620000e86020870162000097565b9350620000f86040870162000097565b9250620001086060870162000097565b9150620001186080870162000097565b90509295509295909350565b6129ae80620001346000396000f3fe608060405234801561001057600080fd5b506004361061006d5760003560e01c806345afe86c14610072578063a767730a1461009a578063b7d60449146100ba578063c72ba3be146100cd578063dc519658146100e0578063e7824692146100f3578063fb965dc114610113575b600080fd5b610085610080366004611661565b610133565b60405190151581526020015b60405180910390f35b6100ad6100a836600461186c565b6104da565b6040516100919190611a78565b6100856100c8366004611b0a565b610560565b6100856100db366004611b9d565b6108e1565b6100856100ee366004611be2565b61093c565b610106610101366004611ccf565b610c4a565b6040516100919190611f23565b610126610121366004611f36565b610cc9565b6040516100919190611f7b565b6040820151602001516000904290829082108015906101585750604085810151015182105b9050806101a75760405162461bcd60e51b8152602060048201526018602482015277696e76616c6964207472616e73616374696f6e2074696d6560401b60448201526064015b60405180910390fd5b60006102226001805480602002602001604051908101604052809291908181526020016000905b82821015610214578382906000526020600020906002020160405180604001604052908160008201548152602001600182015481525050815260200190600101906101ce565b5050505087606001516108e1565b15905060006102a06002805480602002602001604051908101604052809291908181526020016000905b828210156102925783829060005260206000209060020201604051806040016040529081600082015481526020016001820154815250508152602001906001019061024c565b5050505088602001516108e1565b60075460405163812e462360e01b8152911592506000916001600160a01b039091169063812e4623906102d9908b908b9060040161205a565b602060405180830381865afa1580156102f6573d6000803e3d6000fd5b505050506040513d601f19601f8201168201806040525081019061031a919061207f565b9050806103585760405162461bcd60e51b815260206004820152600c60248201526b14dbd2dcdc0819985a5b195960a21b604482015260640161019e565b8380156103625750825b801561036b5750815b80156103745750805b156104ca576020808901516002805460018181018355600083815284519284026000805160206128b9833981519152810193909355938501516000805160206128d98339815191529092019190915560608c01518154808301835591909352825191026000805160206129398339815191528101919091559101516000805160206129598339815191529091015561040a610f3c565b60005b8960a00151518110156104ba576104678a60a00151828151811061043357610433611f96565b60200260200101518b60800151838151811061045157610451611f96565b6020026020010151610ed390919063ffffffff16565b6000805460018101825590805281516000805160206128f98339815191526002909202918201556020820151600080516020612919833981519152909101559150806104b2816120a1565b91505061040d565b50600196505050505050506104d4565b6000955050505050505b92915050565b6104e2610f56565b60065460405163a2b4c3a560e01b81526001600160a01b039091169063a2b4c3a590610514908690869060040161214e565b600060405180830381865afa158015610531573d6000803e3d6000fd5b505050506040513d6000823e601f3d908101601f1916820160405261055991908101906123d8565b9392505050565b600080429050600081856020015160028151811061058057610580611f96565b6020026020010151111580156105b3575084602001516003815181106105a8576105a8611f96565b602002602001015182105b905060006106306001805480602002602001604051908101604052809291908181526020016000905b82821015610622578382906000526020600020906002020160405180604001604052908160008201548152602001600182015481525050815260200190600101906105dc565b505089515191506108e19050565b600554604051631a3cfdbd60e11b8152911592506000916001600160a01b0390911690633479fb7a90610669908a908a906004016124eb565b602060405180830381865afa158015610686573d6000803e3d6000fd5b505050506040513d601f19601f820116820180604052508101906106aa919061207f565b9050806106e85760405162461bcd60e51b815260206004820152600c60248201526b14dbd2d91c0819985a5b195960a21b604482015260640161019e565b8280156106f25750815b80156106fb5750805b156108d4578651604081015160209091015160009161071a9190610ed3565b6000805460018181018355828052835160029283026000805160206128f9833981519152810191909155602080860151600080516020612919833981519152909201919091558c5151825480840184559285528051929093026000805160206129398339815191528101929092559182015160008051602061295983398151915290910155600354908b0151805193945091926001600160a01b039091169163e4b50cb89184906107cd576107cd611f96565b60200260200101516040518263ffffffff1660e01b81526004016107f391815260200190565b602060405180830381865afa158015610810573d6000803e3d6000fd5b505050506040513d601f19601f820116820180604052508101906108349190612523565b9050806001600160a01b031663beabacc833308c6020015160018151811061085e5761085e611f96565b60200260200101516040518463ffffffff1660e01b815260040161088493929190612540565b6020604051808303816000875af11580156108a3573d6000803e3d6000fd5b505050506040513d601f19601f820116820180604052508101906108c7919061207f565b96505050505050506104d4565b5060009695505050505050565b6000805b83518110156109325761091184828151811061090357610903611f96565b602002602001015184610f1f565b156109205760019150506104d4565b8061092a816120a1565b9150506108e5565b5060009392505050565b600080429050600081856040015160028151811061095c5761095c611f96565b60200260200101511115801561098f5750846040015160038151811061098457610984611f96565b602002602001015182105b6006546040516315b520b760e01b81529192506000916001600160a01b03909116906315b520b7906109c79089908990600401612564565b602060405180830381865afa1580156109e4573d6000803e3d6000fd5b505050506040513d601f19601f82011682018060405250810190610a08919061207f565b905080610a465760405162461bcd60e51b815260206004820152600c60248201526b14dbd2ddd90819985a5b195960a21b604482015260640161019e565b6000610ab2600280548060200260200160405190810160405280929190818152602001600090828210156102925783829060005260206000209060020201604051806040016040529081600082015481526020016001820154815250508152602001906001019061024c565b159050828015610abf5750815b8015610ac85750805b156108d4576020808801516002805460018101825560008281528351919092026000805160206128b983398151915281019190915591909201516000805160206128d983398151915290910155600354604089015180516001600160a01b039092169163e4b50cb891908490610b4057610b40611f96565b60200260200101516040518263ffffffff1660e01b8152600401610b6691815260200190565b602060405180830381865afa158015610b83573d6000803e3d6000fd5b505050506040513d601f19601f82011682018060405250810190610ba79190612523565b9050806001600160a01b031663beabacc8308a606001518b60400151600181518110610bd557610bd5611f96565b60200260200101516040518463ffffffff1660e01b8152600401610bfb93929190612540565b6020604051808303816000875af1158015610c1a573d6000803e3d6000fd5b505050506040513d601f19601f82011682018060405250810190610c3e919061207f565b955050505050506104d4565b610c52610f95565b600754604051630c87db6960e21b81526001600160a01b039091169063321f6da490610c849086908690600401612589565b600060405180830381865afa158015610ca1573d6000803e3d6000fd5b505050506040513d6000823e601f3d908101601f19168201604052610559919081019061271c565b610cd1610fe3565b600354602084015180516000926001600160a01b03169163e4b50cb8918490610cfc57610cfc611f96565b60200260200101516040518263ffffffff1660e01b8152600401610d2291815260200190565b602060405180830381865afa158015610d3f573d6000803e3d6000fd5b505050506040513d601f19601f82011682018060405250810190610d639190612523565b9050806001600160a01b031663095ea7b3308660200151600181518110610d8c57610d8c611f96565b60200260200101516040518363ffffffff1660e01b8152600401610dc59291906001600160a01b03929092168252602082015260400190565b6020604051808303816000875af1158015610de4573d6000803e3d6000fd5b505050506040513d601f19601f82011682018060405250810190610e08919061207f565b610e545760405162461bcd60e51b815260206004820152601e60248201527f556e7375636365737366756c20617070726f7665206f7065726174696f6e0000604482015260640161019e565b6005546040516314e46cbb60e31b81526001600160a01b039091169063a72365d890610e86908790879060040161282a565b600060405180830381865afa158015610ea3573d6000803e3d6000fd5b505050506040513d6000823e601f3d908101601f19168201604052610ecb919081019061284c565b949350505050565b610edb610f3c565b610ee3610ff6565b83518152602080850151818301528351604080840191909152908401516060830152826080836006600019fa610f1857600080fd5b5092915050565b805182516000911480156105595750506020908101519101511490565b604051806040016040528060008152602001600081525090565b6040518060800160405280610f69610f3c565b8152602001610f76611014565b8152602001610f8361105e565b8152602001610f9061108b565b905290565b6040518060c00160405280610fa8610f3c565b8152602001610fb5611014565b8152602001610fc261105e565b8152602001610fcf61108b565b815260200160608152602001606081525090565b6040518060200160405280610f9061108b565b60405180608001604052806004906020820280368337509192915050565b60405180606001604052806000815260200161102e610f3c565b8152602001610f906040518060800160405280606081526020016060815260200160008152602001600081525090565b6040518060600160405280611071610f3c565b815260200161107e610f3c565b8152602001606081525090565b604051806040016040528061107e610f3c565b634e487b7160e01b600052604160045260246000fd5b604080519081016001600160401b03811182821017156110d6576110d661109e565b60405290565b60405160c081016001600160401b03811182821017156110d6576110d661109e565b604051606081016001600160401b03811182821017156110d6576110d661109e565b604051608081016001600160401b03811182821017156110d6576110d661109e565b604051602081016001600160401b03811182821017156110d6576110d661109e565b604051601f8201601f191681016001600160401b038111828210171561118c5761118c61109e565b604052919050565b60006001600160401b038211156111ad576111ad61109e565b5060051b60200190565b6000604082840312156111c957600080fd5b6111d16110b4565b9050813581526020820135602082015292915050565b600082601f8301126111f857600080fd5b8135602061120d61120883611194565b611164565b82815260069290921b8401810191818101908684111561122c57600080fd5b8286015b848110156112505761124288826111b7565b835291830191604001611230565b509695505050505050565b600082601f83011261126c57600080fd5b6112746110fe565b80606084018581111561128657600080fd5b845b818110156112a0578035845260209384019301611288565b509095945050505050565b600061014082840312156112be57600080fd5b6112c66110dc565b905081356001600160401b03808211156112df57600080fd5b6112eb858386016111e7565b83526112fa85602086016111b7565b602084015261130c856060860161125b565b604084015261131e8560c086016111b7565b606084015261010084013591508082111561133857600080fd5b611344858386016111e7565b608084015261012084013591508082111561135e57600080fd5b5061136b848285016111e7565b60a08301525092915050565b60006080828403121561138957600080fd5b6113916110fe565b9050813581526113a483602084016111b7565b602082015260608201356001600160401b03808211156113c357600080fd5b90830190608082860312156113d757600080fd5b6113df611120565b8235828111156113ee57600080fd5b6113fa878286016111e7565b82525060208301358281111561140f57600080fd5b61141b878286016111e7565b602083015250604083013560408201526060830135606082015280604085015250505092915050565b600082601f83011261145557600080fd5b8135602061146561120883611194565b82815260059290921b8401810191818101908684111561148457600080fd5b8286015b848110156112505780358352918301918301611488565b600060a082840312156114b157600080fd5b6114b96110fe565b90506114c583836111b7565b81526114d483604084016111b7565b602082015260808201356001600160401b038111156114f257600080fd5b6114fe84828501611444565b60408301525092915050565b60006060828403121561151c57600080fd5b6115246110b4565b905061153083836111b7565b815260408201356001600160401b0381111561154b57600080fd5b61155784828501611444565b60208301525092915050565b600082601f83011261157457600080fd5b8135602061158461120883611194565b82815260059290921b840181019181810190868411156115a357600080fd5b8286015b848110156112505780356001600160401b038111156115c65760008081fd5b6115d48986838b010161150a565b8452509183019183016115a7565b600082601f8301126115f357600080fd5b8135602061160361120883611194565b82815260059290921b8401810191818101908684111561162257600080fd5b8286015b848110156112505780356001600160401b038111156116455760008081fd5b6116538986838b010161149f565b845250918301918301611626565b6000806040838503121561167457600080fd5b82356001600160401b038082111561168b57600080fd5b611697868387016112ab565b935060208501359150808211156116ad57600080fd5b9084019060e082870312156116c157600080fd5b6116c96110dc565b6116d387846111b7565b81526040830135828111156116e757600080fd5b6116f388828601611377565b60208301525060608301358281111561170b57600080fd5b6117178882860161149f565b60408301525060808301358281111561172f57600080fd5b61173b8882860161150a565b60608301525060a08301358281111561175357600080fd5b61175f88828601611563565b60808301525060c08301358281111561177757600080fd5b611783888286016115e2565b60a0830152508093505050509250929050565b6001600160a01b03811681146117ab57600080fd5b50565b600060a082840312156117c057600080fd5b6117c8611120565b905081356001600160401b03808211156117e157600080fd5b6117ed858386016111e7565b83526117fc85602086016111b7565b6020840152606084013591508082111561181557600080fd5b5061182284828501611444565b604083015250608082013561183681611796565b606082015292915050565b600082601f83011261185257600080fd5b61185a611120565b80608084018581111561128657600080fd5b60008060a0838503121561187f57600080fd5b82356001600160401b0381111561189557600080fd5b6118a1858286016117ae565b9250506118b18460208501611841565b90509250929050565b80518252602090810151910152565b600081518084526020808501945080840160005b83811015611903576118f08783516118ba565b60409690960195908201906001016118dd565b509495945050505050565b805182526000602082015161192660208501826118ba565b5060408201516080606085015280516080808601526119496101008601826118c9565b90506020820151607f198683030160a087015261196682826118c9565b604084015160c088015260609093015160e090960195909552509392505050565b600081518084526020808501945080840160005b838110156119035781518752958201959082019060010161199b565b6119c28282516118ba565b600060208201516119d660408501826118ba565b50604082015160a06080850152610ecb60a0850182611987565b6119fb8282516118ba565b6000602082015160606040850152610ecb6060850182611987565b611a218282516118ba565b6000602082015160a06040850152611a3c60a085018261190e565b905060408301518482036060860152611a5582826119b7565b91505060608301518482036080860152611a6f82826119f0565b95945050505050565b6020815260006105596020830184611a16565b600081830360e0811215611a9e57600080fd5b611aa66110b4565b915060c0811215611ab657600080fd5b50611abf6110fe565b611ac984846111b7565b8152611ad884604085016111b7565b6020820152611aea84608085016111b7565b6040820152815260c08201356001600160401b0381111561154b57600080fd5b60008060408385031215611b1d57600080fd5b82356001600160401b0380821115611b3457600080fd5b611b4086838701611a8b565b93506020850135915080821115611b5657600080fd5b9084019060208287031215611b6a57600080fd5b611b72611142565b823582811115611b8157600080fd5b611b8d8882860161150a565b8252508093505050509250929050565b60008060608385031215611bb057600080fd5b82356001600160401b03811115611bc657600080fd5b611bd2858286016111e7565b9250506118b184602085016111b7565b60008060408385031215611bf557600080fd5b82356001600160401b0380821115611c0c57600080fd5b611c18868387016117ae565b93506020850135915080821115611c2e57600080fd5b9084019060a08287031215611c4257600080fd5b611c4a611120565b611c5487846111b7565b8152604083013582811115611c6857600080fd5b611c7488828601611377565b602083015250606083013582811115611c8c57600080fd5b611c988882860161149f565b604083015250608083013582811115611cb057600080fd5b611cbc8882860161150a565b6060830152508093505050509250929050565b60008060408385031215611ce257600080fd5b82356001600160401b0380821115611cf957600080fd5b611d05868387016112ab565b9350602091508185013581811115611d1c57600080fd5b85016080818803811315611d2f57600080fd5b611d37611120565b823581528483013584811115611d4c57600080fd5b611d588a828601611444565b868301525060408301356040820152606083013584811115611d7957600080fd5b83019350601f84018913611d8c57600080fd5b83359250611d9c61120884611194565b83815260079390931b8401850192858101908a851115611dbb57600080fd5b948601945b84861015611de157611dd28b87611841565b82529483019490860190611dc0565b60608301525095989597509495505050505050565b600081518084526020808501808196508360051b8101915082860160005b85811015611e3e578284038952611e2c8483516119b7565b98850198935090840190600101611e14565b5091979650505050505050565b611e568282516118ba565b600060208083015160e06040860152611e7260e086018261190e565b905060408401518582036060870152611e8b82826119b7565b91505060608401518582036080870152611ea582826119f0565b608086015187820360a089015280518083529193508401915083830190600581901b8401850160005b82811015611efc57601f19868303018452611eea8286516119f0565b94870194938701939150600101611ece565b5060a0880151955088810360c08a0152611f168187611df6565b9998505050505050505050565b6020815260006105596020830184611e4b565b60008060808385031215611f4957600080fd5b82356001600160401b03811115611f5f57600080fd5b611f6b85828601611a8b565b9250506118b1846020850161125b565b6020815260008251602080840152610ecb60408401826119f0565b634e487b7160e01b600052603260045260246000fd5b8060005b6003811015611fcf578151845260209384019390910190600101611fb0565b50505050565b60006101408251818552611feb828601826118c9565b915050602083015161200060208601826118ba565b5060408301516120136060860182611fac565b50606083015161202660c08601826118ba565b50608083015184820361010086015261203f82826118c9565b91505060a0830151848203610120860152611a6f82826118c9565b60408152600061206d6040830185611fd5565b8281036020840152611a6f8185611e4b565b60006020828403121561209157600080fd5b8151801515811461055957600080fd5b6000600182016120c157634e487b7160e01b600052601160045260246000fd5b5060010190565b6000815160a084526120dd60a08501826118c9565b905060208301516120f160208601826118ba565b50604083015184820360608601526121098282611987565b606094909401516001600160a01b031660809590950194909452509092915050565b8060005b6004811015611fcf57815184526020938401939091019060010161212f565b60a08152600061216160a08301856120c8565b9050610559602083018461212b565b60006040828403121561218257600080fd5b61218a6110b4565b9050815181526020820151602082015292915050565b600082601f8301126121b157600080fd5b815160206121c161120883611194565b82815260069290921b840181019181810190868411156121e057600080fd5b8286015b84811015611250576121f68882612170565b8352918301916040016121e4565b60006080828403121561221657600080fd5b61221e6110fe565b9050815181526122318360208401612170565b602082015260608201516001600160401b038082111561225057600080fd5b908301906080828603121561226457600080fd5b61226c611120565b82518281111561227b57600080fd5b612287878286016121a0565b82525060208301518281111561229c57600080fd5b6122a8878286016121a0565b602083015250604083015160408201526060830151606082015280604085015250505092915050565b600082601f8301126122e257600080fd5b815160206122f261120883611194565b82815260059290921b8401810191818101908684111561231157600080fd5b8286015b848110156112505780518352918301918301612315565b600060a0828403121561233e57600080fd5b6123466110fe565b90506123528383612170565b81526123618360408401612170565b602082015260808201516001600160401b0381111561237f57600080fd5b6114fe848285016122d1565b60006060828403121561239d57600080fd5b6123a56110b4565b90506123b18383612170565b815260408201516001600160401b038111156123cc57600080fd5b611557848285016122d1565b6000602082840312156123ea57600080fd5b81516001600160401b038082111561240157600080fd5b9083019060a0828603121561241557600080fd5b61241d611120565b6124278684612170565b815260408301518281111561243b57600080fd5b61244787828601612204565b60208301525060608301518281111561245f57600080fd5b61246b8782860161232c565b60408301525060808301518281111561248357600080fd5b61248f8782860161238b565b60608301525095945050505050565b600081516124ad8482516118ba565b60208101516124bf60408601826118ba565b50604001516124d160808501826118ba565b50602082015160e060c0850152610ecb60e0850182611987565b6040815260006124fe604083018561249e565b828103602084015283516020825261251960208301826119f0565b9695505050505050565b60006020828403121561253557600080fd5b815161055981611796565b6001600160a01b039384168152919092166020820152604081019190915260600190565b60408152600061257760408301856120c8565b8281036020840152611a6f8185611a16565b60408152600061259c6040830185611fd5565b6020838203818501526080855183528186015181838501526125c082850182611987565b604088810151908601526060808901518683039190960152845180825290840194840191506000905b80821015612610576125fc86845161212b565b9483019491840191600191909101906125e9565b509398975050505050505050565b600082601f83011261262f57600080fd5b8151602061263f61120883611194565b82815260059290921b8401810191818101908684111561265e57600080fd5b8286015b848110156112505780516001600160401b038111156126815760008081fd5b61268f8986838b010161238b565b845250918301918301612662565b600082601f8301126126ae57600080fd5b815160206126be61120883611194565b82815260059290921b840181019181810190868411156126dd57600080fd5b8286015b848110156112505780516001600160401b038111156127005760008081fd5b61270e8986838b010161232c565b8452509183019183016126e1565b60006020828403121561272e57600080fd5b81516001600160401b038082111561274557600080fd5b9083019060e0828603121561275957600080fd5b6127616110dc565b61276b8684612170565b815260408301518281111561277f57600080fd5b61278b87828601612204565b6020830152506060830151828111156127a357600080fd5b6127af8782860161232c565b6040830152506080830151828111156127c757600080fd5b6127d38782860161238b565b60608301525060a0830151828111156127eb57600080fd5b6127f78782860161261e565b60808301525060c08301518281111561280f57600080fd5b61281b8782860161269d565b60a08301525095945050505050565b60808152600061283d608083018561249e565b90506105596020830184611fac565b60006020828403121561285e57600080fd5b81516001600160401b038082111561287557600080fd5b908301906020828603121561288957600080fd5b612891611142565b8251828111156128a057600080fd5b6128ac8782860161238b565b8252509594505050505056fe405787fa12a823e0f2b7631cc41b3ba8828b3321ca811111fa75cd3aa3bb5ace405787fa12a823e0f2b7631cc41b3ba8828b3321ca811111fa75cd3aa3bb5acf290decd9548b62a8d60345a988386fc84ba6bc95484008f6362f93160ef3e563290decd9548b62a8d60345a988386fc84ba6bc95484008f6362f93160ef3e564b10e2d527612073b26eecdfd717e6a320cf44b4afac2b0732d9fcbe2b7fa0cf6b10e2d527612073b26eecdfd717e6a320cf44b4afac2b0732d9fcbe2b7fa0cf7a264697066735822122076a3e8eed140c1b4815aa6665aac8ce5e4abe6fe453678a68a9fd2f1290290e964736f6c63430008130033",
  "immutableReferences": {},
  "source": "// SPDX-License-Identifier: GPL-3.0\npragma solidity >=0.4.0 <0.9.0;\n\nimport \"./lib/alt_bn128.sol\";\nimport \"./Token/Token.sol\";\nimport \"./Token/TokenRegistrar.sol\";\nimport \"./PubParam.sol\";\nimport \"./TX/SoKdp.sol\";\nimport \"./TX/SoKwd.sol\";\nimport \"./TX/SoKsp.sol\";\n\ncontract Mixer {\n  \n  using alt_bn128 for uint256;\n  using alt_bn128 for alt_bn128.G1Point;\n\n  alt_bn128.G1Point[] _accs;\n  alt_bn128.G1Point[] _pks;\n  alt_bn128.G1Point[] _tags;\n\n  TokenRegistrar r;\n  PubParam pp;\n  SoKdp dp;\n  SoKwd wd;\n  SoKsp sp;\n\n  constructor (\n    address r_addr, \n    address pp_addr, \n    address dp_addr,\n    address wd_addr,\n    address sp_addr\n  ) {\n    r = TokenRegistrar(r_addr);\n    pp = PubParam(pp_addr);\n    dp = SoKdp(dp_addr);\n    wd = SoKwd(wd_addr);\n    sp = SoKsp(sp_addr);\n  }\n\n  ///////// deposit /////////\n\n  /// @dev user deposit token into mixer\n  /// @param tx_dp deposit transaction statement\n  /// @param wit witness (sk, opn, ok)\n  /// @return sig deposit signature\n  function deposit(SoKdp.TX memory tx_dp, uint256[3] memory wit) public returns (SoKdp.Sig memory sig){\n\n    Token t = Token(r.getToken(tx_dp.attrS[0]));\n\n    if (!t.approve(address(this), tx_dp.attrS[1])) \n      revert (\"Unsuccessful approve operation\");\n\n    sig = dp.sign(tx_dp, wit);\n  }\n\n  /// @dev mixer process deposit request\n  /// @param tx_dp deposit transaction statement\n  /// @param sig deposit signature\n  function process_dp(SoKdp.TX memory tx_dp, SoKdp.Sig memory sig) public returns (bool) {\n    /// @dev b0  T_now  [T_begS ,T_endS)\n    uint256 time = block.timestamp;\n    bool b0 = tx_dp.attrS[2] <= time && time < tx_dp.attrS[3]; \n\n    /// @dev b1  pk  pk\n    bool b1 = !_in(_pks, tx_dp.s.pk);\n\n    /// @dev b2  SoKverify(L_dp)\n    bool b2 = dp.verify(tx_dp, sig);\n    require (b2, \"SoKdp failed\");\n\n    if (b0 && b1 && b2){\n      alt_bn128.G1Point memory Cx = tx_dp.s.tcom.add(tx_dp.s.ocom);\n      _accs.push(Cx);\n      _pks.push(tx_dp.s.pk);\n      Token t = Token(r.getToken(tx_dp.attrS[0]));\n      return t.transfer(msg.sender, address(this), tx_dp.attrS[1]);\n    }\n    return false;\n  }\n\n  //////// withdraw //////////\n\n  /// @dev withdraw token from mixer\n  /// @param tx_wd withdraw transaction statement\n  /// @param wit (theta, sk, opn, ok)\n  function withdraw(SoKwd.TX memory tx_wd, uint256[4] memory wit) public view returns (SoKwd.Sig memory){\n    return wd.sign(tx_wd, wit);\n  }\n  \n  function process_wd(SoKwd.TX memory tx_wd, SoKwd.Sig memory sig) public returns (bool) {\n    /// @dev b0  T_now  [T_begS ,T_endS)\n    uint256 time = block.timestamp;\n    bool b0 = tx_wd.attrS[2] <= time && time < tx_wd.attrS[3];\n\n    /// @dev b1 = verify signature\n    bool b1 = wd.verify(tx_wd, sig);\n    require (b1, \"SoKwd failed\");\n\n    /// @dev b2  tagS  tag\n    bool b2 = !_in(_tags, tx_wd.tag);\n\n    if (b0 && b1 && b2) {\n      _tags.push(tx_wd.tag);\n\n      Token t = Token(r.getToken(tx_wd.attrS[0]));\n      /// @dev ty.transfer[mixer, rcpt]\n      return t.transfer(address(this), tx_wd.u_rcpt, tx_wd.attrS[1]);\n    }\n    return false;\n  }\n\n  function spend(SoKsp.TX memory tx_sp, SoKsp.Wit memory wit) public view returns (SoKsp.Sig memory){\n    return sp.sign(tx_sp, wit);\n  }\n\n  function process_sp(SoKsp.TX memory tx_sp, SoKsp.Sig memory sig) public returns (bool) {\n    // uint256 time = 5; // for testing\n    /// @dev b0  T_now  [T_begS ,T_endS)\n    uint256 time = block.timestamp;\n    bool b0 = tx_sp.attrS[1] <= time && time < tx_sp.attrS[2]; \n    require (b0, \"invalid transaction time\");\n\n    // b1  pkT  pk\n    bool b1 = !_in(_pks, tx_sp.pk_T);\n\n    // b2  tagS  tag\n    bool b2 = !_in(_tags, tx_sp.tagS);\n\n    bool b3 = sp.verify(tx_sp, sig);\n    require (b3, \"SoKsp failed\");\n\n    if (b0 && b1 && b2 && b3){\n      _tags.push(tx_sp.tagS);\n      _pks.push(tx_sp.pk_T);\n\n      alt_bn128.G1Point memory acc;\n      for (uint i = 0; i < tx_sp.ocom_T.length; i++) {\n        acc = tx_sp.tcom_T[i].add(tx_sp.ocom_T[i]);\n        _accs.push(acc);\n      }\n      return true;\n    }\n    return false;\n  }\n\n  function _in(\n    alt_bn128.G1Point[] memory ls,\n    alt_bn128.G1Point memory pk\n  ) public pure returns (bool) {\n    for (uint i = 0 ; i < ls.length; i++) {\n      if (alt_bn128.eq(ls[i], pk)) return true;\n    }\n    return false;\n  }\n\n}",
  "sourcePath": "/Users/qian/Desktop/Y4/COMP4550/project/XCSwap/contracts/Mixer.sol",
  "compiler": {
    "name": "solc",
    "version": "0.8.19+commit.7dd6d404.Emscripten.clang"
  },
  "schemaVersion": "3.4.13",
  "updatedAt": "2023-08-11T12:39:59.361Z",
  "devdoc": {
    "kind": "dev",
    "methods": {
      "deposit((((uint256,uint256),(uint256,uint256),(uint256,uint256)),uint256[]),uint256[3])": {
        "details": "user deposit token into mixer",
        "params": {
          "tx_dp": "deposit transaction statement",
          "wit": "witness (sk, opn, ok)"
        },
        "returns": {
          "sig": "deposit signature"
        }
      },
      "process_dp((((uint256,uint256),(uint256,uint256),(uint256,uint256)),uint256[]),(((uint256,uint256),uint256[])))": {
        "details": "mixer process deposit request",
        "params": {
          "sig": "deposit signature",
          "tx_dp": "deposit transaction statement"
        }
      },
      "withdraw(((uint256,uint256)[],(uint256,uint256),uint256[],address),uint256[4])": {
        "details": "withdraw token from mixer",
        "params": {
          "tx_wd": "withdraw transaction statement",
          "wit": "(theta, sk, opn, ok)"
        }
      }
    },
    "version": 1
  },
  "userdoc": {
    "kind": "user",
    "methods": {},
    "version": 1
  }
}