{
  "contractName": "Mixer",
  "abi": [
    {
      "inputs": [
        {
          "internalType": "address",
          "name": "r_addr",
          "type": "address"
        },
        {
          "internalType": "address",
          "name": "pp_addr",
          "type": "address"
        },
        {
          "internalType": "address",
          "name": "dp_addr",
          "type": "address"
        },
        {
          "internalType": "address",
          "name": "wd_addr",
          "type": "address"
        },
        {
          "internalType": "address",
          "name": "sp_addr",
          "type": "address"
        }
      ],
      "stateMutability": "nonpayable",
      "type": "constructor"
    },
    {
      "inputs": [],
      "name": "init",
      "outputs": [],
      "stateMutability": "nonpayable",
      "type": "function"
    },
    {
      "inputs": [
        {
          "components": [
            {
              "components": [
                {
                  "components": [
                    {
                      "internalType": "uint256",
                      "name": "X",
                      "type": "uint256"
                    },
                    {
                      "internalType": "uint256",
                      "name": "Y",
                      "type": "uint256"
                    }
                  ],
                  "internalType": "struct alt_bn128.G1Point",
                  "name": "pk",
                  "type": "tuple"
                },
                {
                  "components": [
                    {
                      "internalType": "uint256",
                      "name": "X",
                      "type": "uint256"
                    },
                    {
                      "internalType": "uint256",
                      "name": "Y",
                      "type": "uint256"
                    }
                  ],
                  "internalType": "struct alt_bn128.G1Point",
                  "name": "tcom",
                  "type": "tuple"
                },
                {
                  "components": [
                    {
                      "internalType": "uint256",
                      "name": "X",
                      "type": "uint256"
                    },
                    {
                      "internalType": "uint256",
                      "name": "Y",
                      "type": "uint256"
                    }
                  ],
                  "internalType": "struct alt_bn128.G1Point",
                  "name": "ocom",
                  "type": "tuple"
                }
              ],
              "internalType": "struct PubParam.Acc",
              "name": "s",
              "type": "tuple"
            },
            {
              "internalType": "uint256[]",
              "name": "attrS",
              "type": "uint256[]"
            }
          ],
          "internalType": "struct SoKdp.TX",
          "name": "tx_dp",
          "type": "tuple"
        },
        {
          "internalType": "uint256[3]",
          "name": "wit",
          "type": "uint256[3]"
        }
      ],
      "name": "deposit",
      "outputs": [
        {
          "components": [
            {
              "components": [
                {
                  "components": [
                    {
                      "internalType": "uint256",
                      "name": "X",
                      "type": "uint256"
                    },
                    {
                      "internalType": "uint256",
                      "name": "Y",
                      "type": "uint256"
                    }
                  ],
                  "internalType": "struct alt_bn128.G1Point",
                  "name": "c",
                  "type": "tuple"
                },
                {
                  "internalType": "uint256[]",
                  "name": "zs",
                  "type": "uint256[]"
                }
              ],
              "internalType": "struct PartialEquality.Sig",
              "name": "pe_sig",
              "type": "tuple"
            }
          ],
          "internalType": "struct SoKdp.Sig",
          "name": "sig",
          "type": "tuple"
        }
      ],
      "stateMutability": "nonpayable",
      "type": "function"
    },
    {
      "inputs": [
        {
          "components": [
            {
              "components": [
                {
                  "components": [
                    {
                      "internalType": "uint256",
                      "name": "X",
                      "type": "uint256"
                    },
                    {
                      "internalType": "uint256",
                      "name": "Y",
                      "type": "uint256"
                    }
                  ],
                  "internalType": "struct alt_bn128.G1Point",
                  "name": "pk",
                  "type": "tuple"
                },
                {
                  "components": [
                    {
                      "internalType": "uint256",
                      "name": "X",
                      "type": "uint256"
                    },
                    {
                      "internalType": "uint256",
                      "name": "Y",
                      "type": "uint256"
                    }
                  ],
                  "internalType": "struct alt_bn128.G1Point",
                  "name": "tcom",
                  "type": "tuple"
                },
                {
                  "components": [
                    {
                      "internalType": "uint256",
                      "name": "X",
                      "type": "uint256"
                    },
                    {
                      "internalType": "uint256",
                      "name": "Y",
                      "type": "uint256"
                    }
                  ],
                  "internalType": "struct alt_bn128.G1Point",
                  "name": "ocom",
                  "type": "tuple"
                }
              ],
              "internalType": "struct PubParam.Acc",
              "name": "s",
              "type": "tuple"
            },
            {
              "internalType": "uint256[]",
              "name": "attrS",
              "type": "uint256[]"
            }
          ],
          "internalType": "struct SoKdp.TX",
          "name": "tx_dp",
          "type": "tuple"
        },
        {
          "components": [
            {
              "components": [
                {
                  "components": [
                    {
                      "internalType": "uint256",
                      "name": "X",
                      "type": "uint256"
                    },
                    {
                      "internalType": "uint256",
                      "name": "Y",
                      "type": "uint256"
                    }
                  ],
                  "internalType": "struct alt_bn128.G1Point",
                  "name": "c",
                  "type": "tuple"
                },
                {
                  "internalType": "uint256[]",
                  "name": "zs",
                  "type": "uint256[]"
                }
              ],
              "internalType": "struct PartialEquality.Sig",
              "name": "pe_sig",
              "type": "tuple"
            }
          ],
          "internalType": "struct SoKdp.Sig",
          "name": "sig",
          "type": "tuple"
        }
      ],
      "name": "process_dp",
      "outputs": [
        {
          "internalType": "bool",
          "name": "",
          "type": "bool"
        }
      ],
      "stateMutability": "nonpayable",
      "type": "function"
    },
    {
      "inputs": [
        {
          "components": [
            {
              "components": [
                {
                  "internalType": "uint256",
                  "name": "X",
                  "type": "uint256"
                },
                {
                  "internalType": "uint256",
                  "name": "Y",
                  "type": "uint256"
                }
              ],
              "internalType": "struct alt_bn128.G1Point[]",
              "name": "R",
              "type": "tuple[]"
            },
            {
              "components": [
                {
                  "internalType": "uint256",
                  "name": "X",
                  "type": "uint256"
                },
                {
                  "internalType": "uint256",
                  "name": "Y",
                  "type": "uint256"
                }
              ],
              "internalType": "struct alt_bn128.G1Point[]",
              "name": "gs",
              "type": "tuple[]"
            },
            {
              "components": [
                {
                  "internalType": "uint256",
                  "name": "X",
                  "type": "uint256"
                },
                {
                  "internalType": "uint256",
                  "name": "Y",
                  "type": "uint256"
                }
              ],
              "internalType": "struct alt_bn128.G1Point",
              "name": "tag",
              "type": "tuple"
            },
            {
              "internalType": "uint256[]",
              "name": "attrS",
              "type": "uint256[]"
            },
            {
              "internalType": "address",
              "name": "u_rcpt",
              "type": "address"
            }
          ],
          "internalType": "struct SoKwd.TX",
          "name": "tx_wd",
          "type": "tuple"
        },
        {
          "internalType": "uint256[4]",
          "name": "wit",
          "type": "uint256[4]"
        }
      ],
      "name": "withdraw",
      "outputs": [
        {
          "components": [
            {
              "components": [
                {
                  "internalType": "uint256",
                  "name": "X",
                  "type": "uint256"
                },
                {
                  "internalType": "uint256",
                  "name": "Y",
                  "type": "uint256"
                }
              ],
              "internalType": "struct alt_bn128.G1Point",
              "name": "acc_d",
              "type": "tuple"
            },
            {
              "components": [
                {
                  "components": [
                    {
                      "internalType": "uint256",
                      "name": "X",
                      "type": "uint256"
                    },
                    {
                      "internalType": "uint256",
                      "name": "Y",
                      "type": "uint256"
                    }
                  ],
                  "internalType": "struct alt_bn128.G1Point",
                  "name": "cv",
                  "type": "tuple"
                },
                {
                  "components": [
                    {
                      "internalType": "uint256",
                      "name": "X",
                      "type": "uint256"
                    },
                    {
                      "internalType": "uint256",
                      "name": "Y",
                      "type": "uint256"
                    }
                  ],
                  "internalType": "struct alt_bn128.G1Point",
                  "name": "ct",
                  "type": "tuple"
                },
                {
                  "components": [
                    {
                      "internalType": "uint256",
                      "name": "X",
                      "type": "uint256"
                    },
                    {
                      "internalType": "uint256",
                      "name": "Y",
                      "type": "uint256"
                    }
                  ],
                  "internalType": "struct alt_bn128.G1Point[]",
                  "name": "cds",
                  "type": "tuple[]"
                },
                {
                  "internalType": "uint256[]",
                  "name": "fs",
                  "type": "uint256[]"
                },
                {
                  "internalType": "uint256",
                  "name": "u",
                  "type": "uint256"
                },
                {
                  "internalType": "uint256",
                  "name": "s",
                  "type": "uint256"
                }
              ],
              "internalType": "struct OneofMany.Sig",
              "name": "om_sig",
              "type": "tuple"
            },
            {
              "components": [
                {
                  "components": [
                    {
                      "internalType": "uint256",
                      "name": "X",
                      "type": "uint256"
                    },
                    {
                      "internalType": "uint256",
                      "name": "Y",
                      "type": "uint256"
                    }
                  ],
                  "internalType": "struct alt_bn128.G1Point",
                  "name": "cx",
                  "type": "tuple"
                },
                {
                  "components": [
                    {
                      "internalType": "uint256",
                      "name": "X",
                      "type": "uint256"
                    },
                    {
                      "internalType": "uint256",
                      "name": "Y",
                      "type": "uint256"
                    }
                  ],
                  "internalType": "struct alt_bn128.G1Point",
                  "name": "cy",
                  "type": "tuple"
                },
                {
                  "internalType": "uint256[]",
                  "name": "zs",
                  "type": "uint256[]"
                }
              ],
              "internalType": "struct DiffGenEqual.Sig",
              "name": "dg_sig",
              "type": "tuple"
            },
            {
              "components": [
                {
                  "components": [
                    {
                      "internalType": "uint256",
                      "name": "X",
                      "type": "uint256"
                    },
                    {
                      "internalType": "uint256",
                      "name": "Y",
                      "type": "uint256"
                    }
                  ],
                  "internalType": "struct alt_bn128.G1Point",
                  "name": "c",
                  "type": "tuple"
                },
                {
                  "internalType": "uint256[]",
                  "name": "zs",
                  "type": "uint256[]"
                }
              ],
              "internalType": "struct PartialEquality.Sig",
              "name": "pe_sig",
              "type": "tuple"
            }
          ],
          "internalType": "struct SoKwd.Sig",
          "name": "",
          "type": "tuple"
        }
      ],
      "stateMutability": "view",
      "type": "function",
      "constant": true
    },
    {
      "inputs": [
        {
          "components": [
            {
              "components": [
                {
                  "internalType": "uint256",
                  "name": "X",
                  "type": "uint256"
                },
                {
                  "internalType": "uint256",
                  "name": "Y",
                  "type": "uint256"
                }
              ],
              "internalType": "struct alt_bn128.G1Point[]",
              "name": "R",
              "type": "tuple[]"
            },
            {
              "components": [
                {
                  "internalType": "uint256",
                  "name": "X",
                  "type": "uint256"
                },
                {
                  "internalType": "uint256",
                  "name": "Y",
                  "type": "uint256"
                }
              ],
              "internalType": "struct alt_bn128.G1Point[]",
              "name": "gs",
              "type": "tuple[]"
            },
            {
              "components": [
                {
                  "internalType": "uint256",
                  "name": "X",
                  "type": "uint256"
                },
                {
                  "internalType": "uint256",
                  "name": "Y",
                  "type": "uint256"
                }
              ],
              "internalType": "struct alt_bn128.G1Point",
              "name": "tag",
              "type": "tuple"
            },
            {
              "internalType": "uint256[]",
              "name": "attrS",
              "type": "uint256[]"
            },
            {
              "internalType": "address",
              "name": "u_rcpt",
              "type": "address"
            }
          ],
          "internalType": "struct SoKwd.TX",
          "name": "tx_wd",
          "type": "tuple"
        },
        {
          "components": [
            {
              "components": [
                {
                  "internalType": "uint256",
                  "name": "X",
                  "type": "uint256"
                },
                {
                  "internalType": "uint256",
                  "name": "Y",
                  "type": "uint256"
                }
              ],
              "internalType": "struct alt_bn128.G1Point",
              "name": "acc_d",
              "type": "tuple"
            },
            {
              "components": [
                {
                  "components": [
                    {
                      "internalType": "uint256",
                      "name": "X",
                      "type": "uint256"
                    },
                    {
                      "internalType": "uint256",
                      "name": "Y",
                      "type": "uint256"
                    }
                  ],
                  "internalType": "struct alt_bn128.G1Point",
                  "name": "cv",
                  "type": "tuple"
                },
                {
                  "components": [
                    {
                      "internalType": "uint256",
                      "name": "X",
                      "type": "uint256"
                    },
                    {
                      "internalType": "uint256",
                      "name": "Y",
                      "type": "uint256"
                    }
                  ],
                  "internalType": "struct alt_bn128.G1Point",
                  "name": "ct",
                  "type": "tuple"
                },
                {
                  "components": [
                    {
                      "internalType": "uint256",
                      "name": "X",
                      "type": "uint256"
                    },
                    {
                      "internalType": "uint256",
                      "name": "Y",
                      "type": "uint256"
                    }
                  ],
                  "internalType": "struct alt_bn128.G1Point[]",
                  "name": "cds",
                  "type": "tuple[]"
                },
                {
                  "internalType": "uint256[]",
                  "name": "fs",
                  "type": "uint256[]"
                },
                {
                  "internalType": "uint256",
                  "name": "u",
                  "type": "uint256"
                },
                {
                  "internalType": "uint256",
                  "name": "s",
                  "type": "uint256"
                }
              ],
              "internalType": "struct OneofMany.Sig",
              "name": "om_sig",
              "type": "tuple"
            },
            {
              "components": [
                {
                  "components": [
                    {
                      "internalType": "uint256",
                      "name": "X",
                      "type": "uint256"
                    },
                    {
                      "internalType": "uint256",
                      "name": "Y",
                      "type": "uint256"
                    }
                  ],
                  "internalType": "struct alt_bn128.G1Point",
                  "name": "cx",
                  "type": "tuple"
                },
                {
                  "components": [
                    {
                      "internalType": "uint256",
                      "name": "X",
                      "type": "uint256"
                    },
                    {
                      "internalType": "uint256",
                      "name": "Y",
                      "type": "uint256"
                    }
                  ],
                  "internalType": "struct alt_bn128.G1Point",
                  "name": "cy",
                  "type": "tuple"
                },
                {
                  "internalType": "uint256[]",
                  "name": "zs",
                  "type": "uint256[]"
                }
              ],
              "internalType": "struct DiffGenEqual.Sig",
              "name": "dg_sig",
              "type": "tuple"
            },
            {
              "components": [
                {
                  "components": [
                    {
                      "internalType": "uint256",
                      "name": "X",
                      "type": "uint256"
                    },
                    {
                      "internalType": "uint256",
                      "name": "Y",
                      "type": "uint256"
                    }
                  ],
                  "internalType": "struct alt_bn128.G1Point",
                  "name": "c",
                  "type": "tuple"
                },
                {
                  "internalType": "uint256[]",
                  "name": "zs",
                  "type": "uint256[]"
                }
              ],
              "internalType": "struct PartialEquality.Sig",
              "name": "pe_sig",
              "type": "tuple"
            }
          ],
          "internalType": "struct SoKwd.Sig",
          "name": "sig",
          "type": "tuple"
        }
      ],
      "name": "process_wd",
      "outputs": [
        {
          "internalType": "bool",
          "name": "",
          "type": "bool"
        }
      ],
      "stateMutability": "nonpayable",
      "type": "function"
    },
    {
      "inputs": [
        {
          "components": [
            {
              "components": [
                {
                  "internalType": "uint256",
                  "name": "X",
                  "type": "uint256"
                },
                {
                  "internalType": "uint256",
                  "name": "Y",
                  "type": "uint256"
                }
              ],
              "internalType": "struct alt_bn128.G1Point[]",
              "name": "R",
              "type": "tuple[]"
            },
            {
              "components": [
                {
                  "internalType": "uint256",
                  "name": "X",
                  "type": "uint256"
                },
                {
                  "internalType": "uint256",
                  "name": "Y",
                  "type": "uint256"
                }
              ],
              "internalType": "struct alt_bn128.G1Point[]",
              "name": "gs",
              "type": "tuple[]"
            },
            {
              "components": [
                {
                  "internalType": "uint256",
                  "name": "X",
                  "type": "uint256"
                },
                {
                  "internalType": "uint256",
                  "name": "Y",
                  "type": "uint256"
                }
              ],
              "internalType": "struct alt_bn128.G1Point",
              "name": "tagS",
              "type": "tuple"
            },
            {
              "internalType": "uint256[3]",
              "name": "attrS",
              "type": "uint256[3]"
            },
            {
              "components": [
                {
                  "internalType": "uint256",
                  "name": "X",
                  "type": "uint256"
                },
                {
                  "internalType": "uint256",
                  "name": "Y",
                  "type": "uint256"
                }
              ],
              "internalType": "struct alt_bn128.G1Point",
              "name": "pk_T",
              "type": "tuple"
            },
            {
              "components": [
                {
                  "internalType": "uint256",
                  "name": "X",
                  "type": "uint256"
                },
                {
                  "internalType": "uint256",
                  "name": "Y",
                  "type": "uint256"
                }
              ],
              "internalType": "struct alt_bn128.G1Point[]",
              "name": "tcom_T",
              "type": "tuple[]"
            },
            {
              "components": [
                {
                  "internalType": "uint256",
                  "name": "X",
                  "type": "uint256"
                },
                {
                  "internalType": "uint256",
                  "name": "Y",
                  "type": "uint256"
                }
              ],
              "internalType": "struct alt_bn128.G1Point[]",
              "name": "ocom_T",
              "type": "tuple[]"
            }
          ],
          "internalType": "struct SoKsp.TX",
          "name": "tx_sp",
          "type": "tuple"
        },
        {
          "components": [
            {
              "internalType": "uint256",
              "name": "theta",
              "type": "uint256"
            },
            {
              "internalType": "uint256[]",
              "name": "attrS",
              "type": "uint256[]"
            },
            {
              "internalType": "uint256",
              "name": "sk_T",
              "type": "uint256"
            },
            {
              "internalType": "uint256[4][]",
              "name": "attrTs",
              "type": "uint256[4][]"
            }
          ],
          "internalType": "struct SoKsp.Wit",
          "name": "wit",
          "type": "tuple"
        }
      ],
      "name": "spend",
      "outputs": [
        {
          "components": [
            {
              "components": [
                {
                  "internalType": "uint256",
                  "name": "X",
                  "type": "uint256"
                },
                {
                  "internalType": "uint256",
                  "name": "Y",
                  "type": "uint256"
                }
              ],
              "internalType": "struct alt_bn128.G1Point",
              "name": "acc_d",
              "type": "tuple"
            },
            {
              "components": [
                {
                  "components": [
                    {
                      "internalType": "uint256",
                      "name": "X",
                      "type": "uint256"
                    },
                    {
                      "internalType": "uint256",
                      "name": "Y",
                      "type": "uint256"
                    }
                  ],
                  "internalType": "struct alt_bn128.G1Point",
                  "name": "cv",
                  "type": "tuple"
                },
                {
                  "components": [
                    {
                      "internalType": "uint256",
                      "name": "X",
                      "type": "uint256"
                    },
                    {
                      "internalType": "uint256",
                      "name": "Y",
                      "type": "uint256"
                    }
                  ],
                  "internalType": "struct alt_bn128.G1Point",
                  "name": "ct",
                  "type": "tuple"
                },
                {
                  "components": [
                    {
                      "internalType": "uint256",
                      "name": "X",
                      "type": "uint256"
                    },
                    {
                      "internalType": "uint256",
                      "name": "Y",
                      "type": "uint256"
                    }
                  ],
                  "internalType": "struct alt_bn128.G1Point[]",
                  "name": "cds",
                  "type": "tuple[]"
                },
                {
                  "internalType": "uint256[]",
                  "name": "fs",
                  "type": "uint256[]"
                },
                {
                  "internalType": "uint256",
                  "name": "u",
                  "type": "uint256"
                },
                {
                  "internalType": "uint256",
                  "name": "s",
                  "type": "uint256"
                }
              ],
              "internalType": "struct OneofMany.Sig",
              "name": "om_sig",
              "type": "tuple"
            },
            {
              "components": [
                {
                  "components": [
                    {
                      "internalType": "uint256",
                      "name": "X",
                      "type": "uint256"
                    },
                    {
                      "internalType": "uint256",
                      "name": "Y",
                      "type": "uint256"
                    }
                  ],
                  "internalType": "struct alt_bn128.G1Point",
                  "name": "cx",
                  "type": "tuple"
                },
                {
                  "components": [
                    {
                      "internalType": "uint256",
                      "name": "X",
                      "type": "uint256"
                    },
                    {
                      "internalType": "uint256",
                      "name": "Y",
                      "type": "uint256"
                    }
                  ],
                  "internalType": "struct alt_bn128.G1Point",
                  "name": "cy",
                  "type": "tuple"
                },
                {
                  "internalType": "uint256[]",
                  "name": "zs",
                  "type": "uint256[]"
                }
              ],
              "internalType": "struct DiffGenEqual.Sig",
              "name": "dg_tag_sig",
              "type": "tuple"
            },
            {
              "components": [
                {
                  "components": [
                    {
                      "internalType": "uint256",
                      "name": "X",
                      "type": "uint256"
                    },
                    {
                      "internalType": "uint256",
                      "name": "Y",
                      "type": "uint256"
                    }
                  ],
                  "internalType": "struct alt_bn128.G1Point",
                  "name": "c",
                  "type": "tuple"
                },
                {
                  "internalType": "uint256[]",
                  "name": "zs",
                  "type": "uint256[]"
                }
              ],
              "internalType": "struct PartialEquality.Sig",
              "name": "pe_opn_sig",
              "type": "tuple"
            },
            {
              "components": [
                {
                  "components": [
                    {
                      "internalType": "uint256",
                      "name": "X",
                      "type": "uint256"
                    },
                    {
                      "internalType": "uint256",
                      "name": "Y",
                      "type": "uint256"
                    }
                  ],
                  "internalType": "struct alt_bn128.G1Point",
                  "name": "c",
                  "type": "tuple"
                },
                {
                  "internalType": "uint256[]",
                  "name": "zs",
                  "type": "uint256[]"
                }
              ],
              "internalType": "struct PartialEquality.Sig[]",
              "name": "pe_ty_sig",
              "type": "tuple[]"
            },
            {
              "components": [
                {
                  "components": [
                    {
                      "internalType": "uint256",
                      "name": "X",
                      "type": "uint256"
                    },
                    {
                      "internalType": "uint256",
                      "name": "Y",
                      "type": "uint256"
                    }
                  ],
                  "internalType": "struct alt_bn128.G1Point",
                  "name": "cx",
                  "type": "tuple"
                },
                {
                  "components": [
                    {
                      "internalType": "uint256",
                      "name": "X",
                      "type": "uint256"
                    },
                    {
                      "internalType": "uint256",
                      "name": "Y",
                      "type": "uint256"
                    }
                  ],
                  "internalType": "struct alt_bn128.G1Point",
                  "name": "cy",
                  "type": "tuple"
                },
                {
                  "internalType": "uint256[]",
                  "name": "zs",
                  "type": "uint256[]"
                }
              ],
              "internalType": "struct DiffGenEqual.Sig[]",
              "name": "dg_sk_sig",
              "type": "tuple[]"
            }
          ],
          "internalType": "struct SoKsp.Sig",
          "name": "",
          "type": "tuple"
        }
      ],
      "stateMutability": "view",
      "type": "function",
      "constant": true
    },
    {
      "inputs": [
        {
          "components": [
            {
              "components": [
                {
                  "internalType": "uint256",
                  "name": "X",
                  "type": "uint256"
                },
                {
                  "internalType": "uint256",
                  "name": "Y",
                  "type": "uint256"
                }
              ],
              "internalType": "struct alt_bn128.G1Point[]",
              "name": "R",
              "type": "tuple[]"
            },
            {
              "components": [
                {
                  "internalType": "uint256",
                  "name": "X",
                  "type": "uint256"
                },
                {
                  "internalType": "uint256",
                  "name": "Y",
                  "type": "uint256"
                }
              ],
              "internalType": "struct alt_bn128.G1Point[]",
              "name": "gs",
              "type": "tuple[]"
            },
            {
              "components": [
                {
                  "internalType": "uint256",
                  "name": "X",
                  "type": "uint256"
                },
                {
                  "internalType": "uint256",
                  "name": "Y",
                  "type": "uint256"
                }
              ],
              "internalType": "struct alt_bn128.G1Point",
              "name": "tagS",
              "type": "tuple"
            },
            {
              "internalType": "uint256[3]",
              "name": "attrS",
              "type": "uint256[3]"
            },
            {
              "components": [
                {
                  "internalType": "uint256",
                  "name": "X",
                  "type": "uint256"
                },
                {
                  "internalType": "uint256",
                  "name": "Y",
                  "type": "uint256"
                }
              ],
              "internalType": "struct alt_bn128.G1Point",
              "name": "pk_T",
              "type": "tuple"
            },
            {
              "components": [
                {
                  "internalType": "uint256",
                  "name": "X",
                  "type": "uint256"
                },
                {
                  "internalType": "uint256",
                  "name": "Y",
                  "type": "uint256"
                }
              ],
              "internalType": "struct alt_bn128.G1Point[]",
              "name": "tcom_T",
              "type": "tuple[]"
            },
            {
              "components": [
                {
                  "internalType": "uint256",
                  "name": "X",
                  "type": "uint256"
                },
                {
                  "internalType": "uint256",
                  "name": "Y",
                  "type": "uint256"
                }
              ],
              "internalType": "struct alt_bn128.G1Point[]",
              "name": "ocom_T",
              "type": "tuple[]"
            }
          ],
          "internalType": "struct SoKsp.TX",
          "name": "tx_sp",
          "type": "tuple"
        },
        {
          "components": [
            {
              "components": [
                {
                  "internalType": "uint256",
                  "name": "X",
                  "type": "uint256"
                },
                {
                  "internalType": "uint256",
                  "name": "Y",
                  "type": "uint256"
                }
              ],
              "internalType": "struct alt_bn128.G1Point",
              "name": "acc_d",
              "type": "tuple"
            },
            {
              "components": [
                {
                  "components": [
                    {
                      "internalType": "uint256",
                      "name": "X",
                      "type": "uint256"
                    },
                    {
                      "internalType": "uint256",
                      "name": "Y",
                      "type": "uint256"
                    }
                  ],
                  "internalType": "struct alt_bn128.G1Point",
                  "name": "cv",
                  "type": "tuple"
                },
                {
                  "components": [
                    {
                      "internalType": "uint256",
                      "name": "X",
                      "type": "uint256"
                    },
                    {
                      "internalType": "uint256",
                      "name": "Y",
                      "type": "uint256"
                    }
                  ],
                  "internalType": "struct alt_bn128.G1Point",
                  "name": "ct",
                  "type": "tuple"
                },
                {
                  "components": [
                    {
                      "internalType": "uint256",
                      "name": "X",
                      "type": "uint256"
                    },
                    {
                      "internalType": "uint256",
                      "name": "Y",
                      "type": "uint256"
                    }
                  ],
                  "internalType": "struct alt_bn128.G1Point[]",
                  "name": "cds",
                  "type": "tuple[]"
                },
                {
                  "internalType": "uint256[]",
                  "name": "fs",
                  "type": "uint256[]"
                },
                {
                  "internalType": "uint256",
                  "name": "u",
                  "type": "uint256"
                },
                {
                  "internalType": "uint256",
                  "name": "s",
                  "type": "uint256"
                }
              ],
              "internalType": "struct OneofMany.Sig",
              "name": "om_sig",
              "type": "tuple"
            },
            {
              "components": [
                {
                  "components": [
                    {
                      "internalType": "uint256",
                      "name": "X",
                      "type": "uint256"
                    },
                    {
                      "internalType": "uint256",
                      "name": "Y",
                      "type": "uint256"
                    }
                  ],
                  "internalType": "struct alt_bn128.G1Point",
                  "name": "cx",
                  "type": "tuple"
                },
                {
                  "components": [
                    {
                      "internalType": "uint256",
                      "name": "X",
                      "type": "uint256"
                    },
                    {
                      "internalType": "uint256",
                      "name": "Y",
                      "type": "uint256"
                    }
                  ],
                  "internalType": "struct alt_bn128.G1Point",
                  "name": "cy",
                  "type": "tuple"
                },
                {
                  "internalType": "uint256[]",
                  "name": "zs",
                  "type": "uint256[]"
                }
              ],
              "internalType": "struct DiffGenEqual.Sig",
              "name": "dg_tag_sig",
              "type": "tuple"
            },
            {
              "components": [
                {
                  "components": [
                    {
                      "internalType": "uint256",
                      "name": "X",
                      "type": "uint256"
                    },
                    {
                      "internalType": "uint256",
                      "name": "Y",
                      "type": "uint256"
                    }
                  ],
                  "internalType": "struct alt_bn128.G1Point",
                  "name": "c",
                  "type": "tuple"
                },
                {
                  "internalType": "uint256[]",
                  "name": "zs",
                  "type": "uint256[]"
                }
              ],
              "internalType": "struct PartialEquality.Sig",
              "name": "pe_opn_sig",
              "type": "tuple"
            },
            {
              "components": [
                {
                  "components": [
                    {
                      "internalType": "uint256",
                      "name": "X",
                      "type": "uint256"
                    },
                    {
                      "internalType": "uint256",
                      "name": "Y",
                      "type": "uint256"
                    }
                  ],
                  "internalType": "struct alt_bn128.G1Point",
                  "name": "c",
                  "type": "tuple"
                },
                {
                  "internalType": "uint256[]",
                  "name": "zs",
                  "type": "uint256[]"
                }
              ],
              "internalType": "struct PartialEquality.Sig[]",
              "name": "pe_ty_sig",
              "type": "tuple[]"
            },
            {
              "components": [
                {
                  "components": [
                    {
                      "internalType": "uint256",
                      "name": "X",
                      "type": "uint256"
                    },
                    {
                      "internalType": "uint256",
                      "name": "Y",
                      "type": "uint256"
                    }
                  ],
                  "internalType": "struct alt_bn128.G1Point",
                  "name": "cx",
                  "type": "tuple"
                },
                {
                  "components": [
                    {
                      "internalType": "uint256",
                      "name": "X",
                      "type": "uint256"
                    },
                    {
                      "internalType": "uint256",
                      "name": "Y",
                      "type": "uint256"
                    }
                  ],
                  "internalType": "struct alt_bn128.G1Point",
                  "name": "cy",
                  "type": "tuple"
                },
                {
                  "internalType": "uint256[]",
                  "name": "zs",
                  "type": "uint256[]"
                }
              ],
              "internalType": "struct DiffGenEqual.Sig[]",
              "name": "dg_sk_sig",
              "type": "tuple[]"
            }
          ],
          "internalType": "struct SoKsp.Sig",
          "name": "sig",
          "type": "tuple"
        }
      ],
      "name": "process_sp",
      "outputs": [
        {
          "internalType": "bool",
          "name": "",
          "type": "bool"
        }
      ],
      "stateMutability": "nonpayable",
      "type": "function"
    },
    {
      "inputs": [],
      "name": "get_accs",
      "outputs": [
        {
          "components": [
            {
              "internalType": "uint256",
              "name": "X",
              "type": "uint256"
            },
            {
              "internalType": "uint256",
              "name": "Y",
              "type": "uint256"
            }
          ],
          "internalType": "struct alt_bn128.G1Point[]",
          "name": "",
          "type": "tuple[]"
        }
      ],
      "stateMutability": "view",
      "type": "function",
      "constant": true
    },
    {
      "inputs": [
        {
          "components": [
            {
              "internalType": "uint256",
              "name": "X",
              "type": "uint256"
            },
            {
              "internalType": "uint256",
              "name": "Y",
              "type": "uint256"
            }
          ],
          "internalType": "struct alt_bn128.G1Point[]",
          "name": "R",
          "type": "tuple[]"
        }
      ],
      "name": "isValid",
      "outputs": [
        {
          "internalType": "bool",
          "name": "",
          "type": "bool"
        }
      ],
      "stateMutability": "view",
      "type": "function",
      "constant": true
    },
    {
      "inputs": [
        {
          "components": [
            {
              "internalType": "uint256",
              "name": "X",
              "type": "uint256"
            },
            {
              "internalType": "uint256",
              "name": "Y",
              "type": "uint256"
            }
          ],
          "internalType": "struct alt_bn128.G1Point",
          "name": "g",
          "type": "tuple"
        }
      ],
      "name": "inAcc",
      "outputs": [
        {
          "internalType": "bool",
          "name": "",
          "type": "bool"
        }
      ],
      "stateMutability": "view",
      "type": "function",
      "constant": true
    },
    {
      "inputs": [
        {
          "components": [
            {
              "internalType": "uint256",
              "name": "X",
              "type": "uint256"
            },
            {
              "internalType": "uint256",
              "name": "Y",
              "type": "uint256"
            }
          ],
          "internalType": "struct alt_bn128.G1Point",
          "name": "g",
          "type": "tuple"
        }
      ],
      "name": "inTag",
      "outputs": [
        {
          "internalType": "bool",
          "name": "",
          "type": "bool"
        }
      ],
      "stateMutability": "view",
      "type": "function",
      "constant": true
    }
  ],
  "bytecode": "0x60806040523480156200001157600080fd5b50604051620037453803806200374583398101604081905262000034916200033f565b600380546001600160a01b03199081166001600160a01b038881169190911790925560048054821687841617905560058054821686841617905560068054821685841617905560078054909116918316919091179055620000946200009f565b505050505062000471565b60005b60108110156200016d5760405163b863bd3760e01b815260048101829052600090620001319073__alt_bn128_____________________________9063b863bd3790602401602060405180830381865af415801562000105573d6000803e3d6000fd5b505050506040513d601f19601f820116820180604052508101906200012b9190620003af565b62000170565b815460018181018455600093845260209384902083516002909302019182559290910151910155806200016481620003df565b915050620000a2565b50565b60408051808201909152600080825260208201526000620001a1600080516020620037258339815191528462000411565b90506000620001b260018362000428565b91506000805b816200027157620001cb60018562000444565b935060008051602062003725833981519152848509905060008051602062003725833981519152848209905060008051602062003725833981519152600382089050620002528160046200023060008051602062003725833981519152600162000444565b6200023c91906200045a565b600080516020620037258339815191526200028b565b92508060008051602062003725833981519152848509149150620001b8565b505060408051808201909152918252602082015292915050565b600062000297620002e6565b620002a162000304565b602080835282810181905260408301819052606083018790526080830186905260a083018590528160c0846005600019fa620002dc57600080fd5b5195945050505050565b6040518060c001604052806006906020820280368337509192915050565b60405180602001604052806001906020820280368337509192915050565b80516001600160a01b03811681146200033a57600080fd5b919050565b600080600080600060a086880312156200035857600080fd5b620003638662000322565b9450620003736020870162000322565b9350620003836040870162000322565b9250620003936060870162000322565b9150620003a36080870162000322565b90509295509295909350565b600060208284031215620003c257600080fd5b5051919050565b634e487b7160e01b600052601160045260246000fd5b600060018201620003f457620003f4620003c9565b5060010190565b634e487b7160e01b600052601260045260246000fd5b600082620004235762000423620003fb565b500690565b818103818111156200043e576200043e620003c9565b92915050565b808201808211156200043e576200043e620003c9565b6000826200046c576200046c620003fb565b500490565b6132a480620004816000396000f3fe608060405234801561001057600080fd5b50600436106100995760003560e01c80631a1dbfd31461009e578063307df283146100c6578063360fa0d5146100d9578063549a2fad146100f95780637b4d9a701461010e578063b39a52871461012e578063b7d6044914610141578063b9222acd14610154578063e1c7392a14610167578063fb965dc114610171578063fd2beb6d14610191575b600080fd5b6100b16100ac366004611991565b6101a4565b60405190151581526020015b60405180910390f35b6100b16100d4366004611ce5565b610221565b6100ec6100e7366004611e22565b610676565b6040516100bd919061202a565b6101016106fc565b6040516100bd919061203d565b61012161011c3660046121a6565b61076f565b6040516100bd91906123ed565b6100b161013c366004611991565b6107ee565b6100b161014f36600461247f565b61085a565b6100b1610162366004612512565b610c74565b61016f610d37565b005b61018461017f366004612546565b610dff565b6040516100bd919061258b565b6100b161019f3660046126a4565b611019565b600061021b6000805480602002602001604051908101604052809291908181526020016000905b82821015610211578382906000526020600020906002020160405180604001604052908160008201548152602001600182015481525050815260200190600101906101cb565b505050508361147d565b92915050565b60006102308360000151610c74565b6102775760405162461bcd60e51b81526020600482015260136024820152722bb4ba34323930bb9d1024b73b30b634b2102960691b60448201526064015b60405180910390fd5b60008360600151600281518110610290576102906127d9565b602002602001015160016102a49190612805565b905060008185606001516002815181106102c0576102c06127d9565b6020026020010151111580156102f3575084606001516003815181106102e8576102e86127d9565b602002602001015182105b90508061034d5760405162461bcd60e51b815260206004820152602260248201527f57697468647261773a20696e76616c6964207472616e73616374696f6e2074696044820152616d6560f01b606482015260840161026e565b60065460405163336113b360e11b81526000916001600160a01b0316906366c22766906103809089908990600401612895565b602060405180830381865afa15801561039d573d6000803e3d6000fd5b505050506040513d601f19601f820116820180604052508101906103c191906128ba565b9050806104095760405162461bcd60e51b815260206004820152601660248201527515da5d1a191c985dce8814dbd2ddd90819985a5b195960521b604482015260640161026e565b60006104846002805480602002602001604051908101604052809291908181526020016000905b8282101561047657838290600052602060002090600202016040518060400160405290816000820154815260200160018201548152505081526020019060010190610430565b50505050886040015161147d565b159050806104d15760405162461bcd60e51b815260206004820152601a60248201527915da5d1a191c985dce881d1859c8185b1c9958591e481d5cd95960321b604482015260640161026e565b8280156104db5750815b80156104e45750805b1561066957604087015160028054600181018255600082815283519190920260008051602061318f8339815191528101919091556020909201516000805160206131af83398151915290920191909155600354606089015180516001600160a01b039092169163e4b50cb89190849061055f5761055f6127d9565b60200260200101516040518263ffffffff1660e01b815260040161058591815260200190565b602060405180830381865afa1580156105a2573d6000803e3d6000fd5b505050506040513d601f19601f820116820180604052508101906105c691906128dc565b9050806001600160a01b031663beabacc8308a608001518b606001516001815181106105f4576105f46127d9565b60200260200101516040518463ffffffff1660e01b815260040161061a939291906128f9565b6020604051808303816000875af1158015610639573d6000803e3d6000fd5b505050506040513d601f19601f8201168201806040525081019061065d91906128ba565b9550505050505061021b565b5060009695505050505050565b61067e611691565b600654604051637a29a98560e11b81526001600160a01b039091169063f453530a906106b09086908690600401612946565b600060405180830381865afa1580156106cd573d6000803e3d6000fd5b505050506040513d6000823e601f3d908101601f191682016040526106f59190810190612baa565b9392505050565b60606000805480602002602001604051908101604052809291908181526020016000905b8282101561076657838290600052602060002090600202016040518060400160405290816000820154815260200160018201548152505081526020019060010190610720565b50505050905090565b6107776116d0565b60075460405163024f0e7160e21b81526001600160a01b039091169063093c39c4906107a99086908690600401612d32565b600060405180830381865afa1580156107c6573d6000803e3d6000fd5b505050506040513d6000823e601f3d908101601f191682016040526106f59190810190612ec5565b600061021b60028054806020026020016040519081016040528092919081815260200160009082821015610211578382906000526020600020906002020160405180604001604052908160008201548152602001600182015481525050815260200190600101906101cb565b60008060009050600081856020015160028151811061087b5761087b6127d9565b6020026020010151111580156108ae575084602001516003815181106108a3576108a36127d9565b602002602001015182105b9050806109075760405162461bcd60e51b815260206004820152602160248201527f4465706f7369743a20696e76616c6964207472616e73616374696f6e2074696d6044820152606560f81b606482015260840161026e565b60006109826001805480602002602001604051908101604052809291908181526020016000905b828210156109745783829060005260206000209060020201604051806040016040529081600082015481526020016001820154815250508152602001906001019061092e565b5050895151915061147d9050565b159050806109cd5760405162461bcd60e51b815260206004820152601860248201527711195c1bdcda5d0e881c1ac8185b1c9958591e481d5cd95960421b604482015260640161026e565b600554604051631a3cfdbd60e11b81526000916001600160a01b031690633479fb7a90610a00908a908a90600401613020565b602060405180830381865afa158015610a1d573d6000803e3d6000fd5b505050506040513d601f19601f82011682018060405250810190610a4191906128ba565b905080610a885760405162461bcd60e51b815260206004820152601560248201527411195c1bdcda5d0e8814dbd2d91c0819985a5b1959605a1b604482015260640161026e565b828015610a925750815b8015610a9b5750805b156106695786516040810151602090910151600091610aba91906114d8565b6000805460018181018355828052835160029283026000805160206131ef83398151915281019190915560208086015160008051602061320f833981519152909201919091558c51518254808401845592855280519290930260008051602061322f8339815191528101929092559182015160008051602061324f83398151915290910155600354908b0151805193945091926001600160a01b039091169163e4b50cb8918490610b6d57610b6d6127d9565b60200260200101516040518263ffffffff1660e01b8152600401610b9391815260200190565b602060405180830381865afa158015610bb0573d6000803e3d6000fd5b505050506040513d601f19601f82011682018060405250810190610bd491906128dc565b9050806001600160a01b031663beabacc833308c60200151600181518110610bfe57610bfe6127d9565b60200260200101516040518463ffffffff1660e01b8152600401610c24939291906128f9565b6020604051808303816000875af1158015610c43573d6000803e3d6000fd5b505050506040513d601f19601f82011682018060405250810190610c6791906128ba565b965050505050505061021b565b6000805b8251811015610d2e57610d0f6000805480602002602001604051908101604052809291908181526020016000905b82821015610cec57838290600052602060002090600202016040518060400160405290816000820154815260200160018201548152505081526020019060010190610ca6565b50505050848381518110610d0257610d026127d9565b602002602001015161147d565b610d1c5750600092915050565b80610d2681613058565b915050610c78565b50600192915050565b60005b6010811015610dfc5760405163b863bd3760e01b815260048101829052600090610dc39073__alt_bn128_____________________________9063b863bd3790602401602060405180830381865af4158015610d9a573d6000803e3d6000fd5b505050506040513d601f19601f82011682018060405250810190610dbe9190613071565b611524565b81546001818101845560009384526020938490208351600290930201918255929091015191015580610df481613058565b915050610d3a565b50565b610e0761171e565b600354602084015180516000926001600160a01b03169163e4b50cb8918490610e3257610e326127d9565b60200260200101516040518263ffffffff1660e01b8152600401610e5891815260200190565b602060405180830381865afa158015610e75573d6000803e3d6000fd5b505050506040513d601f19601f82011682018060405250810190610e9991906128dc565b9050806001600160a01b0316632a16cca4308660200151600181518110610ec257610ec26127d9565b60200260200101516040518363ffffffff1660e01b8152600401610efb9291906001600160a01b03929092168252602082015260400190565b6020604051808303816000875af1158015610f1a573d6000803e3d6000fd5b505050506040513d601f19601f82011682018060405250810190610f3e91906128ba565b610f9a5760405162461bcd60e51b815260206004820152602760248201527f4465706f7369743a20556e7375636365737366756c20617070726f7665206f7060448201526632b930ba34b7b760c91b606482015260840161026e565b6005546040516314e46cbb60e31b81526001600160a01b039091169063a72365d890610fcc908790879060040161308a565b600060405180830381865afa158015610fe9573d6000803e3d6000fd5b505050506040513d6000823e601f3d908101601f1916820160405261101191908101906130ac565b949350505050565b60006110288360000151610c74565b6110675760405162461bcd60e51b815260206004820152601060248201526f29b832b7321d1024b73b30b634b2102960811b604482015260640161026e565b606083015160208101516040909101518110806110c65760405162461bcd60e51b815260206004820152601f60248201527f5370656e643a20696e76616c6964207472616e73616374696f6e2074696d6500604482015260640161026e565b60006111416001805480602002602001604051908101604052809291908181526020016000905b82821015611133578382906000526020600020906002020160405180604001604052908160008201548152602001600182015481525050815260200190600101906110ed565b50505050876080015161147d565b1590508061118b5760405162461bcd60e51b815260206004820152601760248201527614dc195b990e881c1ad508185b1c9958591e481d5cd959604a1b604482015260640161026e565b60006111f76002805480602002602001604051908101604052809291908181526020016000908282101561047657838290600052602060002090600202016040518060400160405290816000820154815260200160018201548152505081526020019060010190610430565b159050806112425760405162461bcd60e51b815260206004820152601860248201527714dc195b990e881d1859d4c8185b1c9958591e481d5cd95960421b604482015260640161026e565b60075460405163de2692ad60e01b81526000916001600160a01b03169063de2692ad90611275908b908b90600401613118565b602060405180830381865afa158015611292573d6000803e3d6000fd5b505050506040513d601f19601f820116820180604052508101906112b691906128ba565b9050806112fb5760405162461bcd60e51b815260206004820152601360248201527214dc195b990e8814dbd2dcdc0819985a5b1959606a1b604482015260640161026e565b8380156113055750825b801561130e5750815b80156113175750805b1561146f57604088015160028054600181810183556000838152845192840260008051602061318f8339815191528101939093556020948501516000805160206131af8339815191529093019290925560808c015181548083018355919092528151920260008051602061322f8339815191528101929092559091015160008051602061324f833981519152909101556113af611731565b60005b8960c001515181101561145f5761140c8a60c0015182815181106113d8576113d86127d9565b60200260200101518b60a0015183815181106113f6576113f66127d9565b60200260200101516114d890919063ffffffff16565b6000805460018101825590805281516000805160206131ef833981519152600290920291820155602082015160008051602061320f8339815191529091015591508061145781613058565b9150506113b2565b506001965050505050505061021b565b506000979650505050505050565b6000805b83518110156114ce576114ad84828151811061149f5761149f6127d9565b60200260200101518461161e565b156114bc57600191505061021b565b806114c681613058565b915050611481565b5060009392505050565b6114e0611731565b6114e861174b565b83518152602080850151818301528351604080840191909152908401516060830152826080836006600019fa61151d57600080fd5b5092915050565b61152c611731565b60006115466000805160206131cf83398151915284613153565b90506000611555600183613167565b91506000805b816116045761156b600185612805565b93506000805160206131cf83398151915284850990506000805160206131cf83398151915284820990506000805160206131cf8339815191526003820890506115e78160046115c96000805160206131cf8339815191526001612805565b6115d3919061317a565b6000805160206131cf83398151915261163b565b9250806000805160206131cf83398151915284850914915061155b565b505060408051808201909152918252602082015292915050565b805182516000911480156106f55750506020908101519101511490565b6000611645611769565b61164d611787565b602080835282810181905260408301819052606083018790526080830186905260a083018590528160c0846005600019fa61168757600080fd5b5195945050505050565b60405180608001604052806116a4611731565b81526020016116b16117a5565b81526020016116be6117e7565b81526020016116cb611814565b905290565b6040518060c001604052806116e3611731565b81526020016116f06117a5565b81526020016116fd6117e7565b815260200161170a611814565b815260200160608152602001606081525090565b60405180602001604052806116cb611814565b604051806040016040528060008152602001600081525090565b60405180608001604052806004906020820280368337509192915050565b6040518060c001604052806006906020820280368337509192915050565b60405180602001604052806001906020820280368337509192915050565b6040518060c001604052806117b8611731565b81526020016117c5611731565b8152602001606081526020016060815260200160008152602001600081525090565b60405180606001604052806117fa611731565b8152602001611807611731565b8152602001606081525090565b6040518060400160405280611807611731565b634e487b7160e01b600052604160045260246000fd5b604080519081016001600160401b038111828210171561185f5761185f611827565b60405290565b60405160a081016001600160401b038111828210171561185f5761185f611827565b60405160c081016001600160401b038111828210171561185f5761185f611827565b604051606081016001600160401b038111828210171561185f5761185f611827565b604051608081016001600160401b038111828210171561185f5761185f611827565b60405160e081016001600160401b038111828210171561185f5761185f611827565b604051602081016001600160401b038111828210171561185f5761185f611827565b604051601f8201601f191681016001600160401b038111828210171561195957611959611827565b604052919050565b60006040828403121561197357600080fd5b61197b61183d565b9050813581526020820135602082015292915050565b6000604082840312156119a357600080fd5b6106f58383611961565b60006001600160401b038211156119c6576119c6611827565b5060051b60200190565b600082601f8301126119e157600080fd5b813560206119f66119f1836119ad565b611931565b82815260069290921b84018101918181019086841115611a1557600080fd5b8286015b84811015611a3957611a2b8882611961565b835291830191604001611a19565b509695505050505050565b600082601f830112611a5557600080fd5b81356020611a656119f1836119ad565b82815260059290921b84018101918181019086841115611a8457600080fd5b8286015b84811015611a395780358352918301918301611a88565b6001600160a01b0381168114610dfc57600080fd5b8035611abf81611a9f565b919050565b600060c08284031215611ad657600080fd5b611ade611865565b905081356001600160401b0380821115611af757600080fd5b611b03858386016119d0565b83526020840135915080821115611b1957600080fd5b611b25858386016119d0565b6020840152611b378560408601611961565b60408401526080840135915080821115611b5057600080fd5b50611b5d84828501611a44565b606083015250611b6f60a08301611ab4565b608082015292915050565b60006101008284031215611b8d57600080fd5b611b95611887565b9050611ba18383611961565b8152611bb08360408401611961565b602082015260808201356001600160401b0380821115611bcf57600080fd5b611bdb858386016119d0565b604084015260a0840135915080821115611bf457600080fd5b50611c0184828501611a44565b60608301525060c0820135608082015260e082013560a082015292915050565b600060a08284031215611c3357600080fd5b611c3b6118a9565b9050611c478383611961565b8152611c568360408401611961565b602082015260808201356001600160401b03811115611c7457600080fd5b611c8084828501611a44565b60408301525092915050565b600060608284031215611c9e57600080fd5b611ca661183d565b9050611cb28383611961565b815260408201356001600160401b03811115611ccd57600080fd5b611cd984828501611a44565b60208301525092915050565b60008060408385031215611cf857600080fd5b82356001600160401b0380821115611d0f57600080fd5b611d1b86838701611ac4565b93506020850135915080821115611d3157600080fd5b9084019060a08287031215611d4557600080fd5b611d4d6118cb565b611d578784611961565b8152604083013582811115611d6b57600080fd5b611d7788828601611b7a565b602083015250606083013582811115611d8f57600080fd5b611d9b88828601611c21565b604083015250608083013582811115611db357600080fd5b611dbf88828601611c8c565b6060830152508093505050509250929050565b600082601f830112611de357600080fd5b611deb6118cb565b806080840185811115611dfd57600080fd5b845b81811015611e17578035845260209384019301611dff565b509095945050505050565b60008060a08385031215611e3557600080fd5b82356001600160401b03811115611e4b57600080fd5b611e5785828601611ac4565b925050611e678460208501611dd2565b90509250929050565b80518252602090810151910152565b600081518084526020808501945080840160005b83811015611eb957611ea6878351611e70565b6040969096019590820190600101611e93565b509495945050505050565b600081518084526020808501945080840160005b83811015611eb957815187529582019590820190600101611ed8565b6000610100611f04848451611e70565b6020830151611f166040860182611e70565b506040830151816080860152611f2e82860182611e7f565b915050606083015184820360a0860152611f488282611ec4565b915050608083015160c085015260a083015160e08501528091505092915050565b611f74828251611e70565b60006020820151611f886040850182611e70565b50604082015160a0608085015261101160a0850182611ec4565b611fad828251611e70565b60006020820151606060408501526110116060850182611ec4565b611fd3828251611e70565b6000602082015160a06040850152611fee60a0850182611ef4565b9050604083015184820360608601526120078282611f69565b915050606083015184820360808601526120218282611fa2565b95945050505050565b6020815260006106f56020830184611fc8565b602080825282518282018190526000919060409081850190868401855b8281101561207d5761206d848351611e70565b928401929085019060010161205a565b5091979650505050505050565b600082601f83011261209b57600080fd5b6120a36118a9565b806060840185811115611dfd57600080fd5b600061016082840312156120c857600080fd5b6120d06118ed565b905081356001600160401b03808211156120e957600080fd5b6120f5858386016119d0565b8352602084013591508082111561210b57600080fd5b612117858386016119d0565b60208401526121298560408601611961565b604084015261213b856080860161208a565b606084015261214d8560e08601611961565b608084015261012084013591508082111561216757600080fd5b612173858386016119d0565b60a084015261014084013591508082111561218d57600080fd5b5061219a848285016119d0565b60c08301525092915050565b600080604083850312156121b957600080fd5b82356001600160401b03808211156121d057600080fd5b6121dc868387016120b5565b93506020915081850135818111156121f357600080fd5b8501608081880381131561220657600080fd5b61220e6118cb565b82358152848301358481111561222357600080fd5b61222f8a828601611a44565b86830152506040830135604082015260608301358481111561225057600080fd5b83019350601f8401891361226357600080fd5b833592506122736119f1846119ad565b83815260079390931b8401850192858101908a85111561229257600080fd5b948601945b848610156122b8576122a98b87611dd2565b82529483019490860190612297565b60608301525095989597509495505050505050565b600081518084526020808501808196508360051b8101915082860160005b8581101561207d578284038952612303848351611f69565b988501989350908401906001016122eb565b612320828251611e70565b600060208083015160e0604086015261233c60e0860182611ef4565b9050604084015185820360608701526123558282611f69565b9150506060840151858203608087015261236f8282611fa2565b608086015187820360a089015280518083529193508401915083830190600581901b8401850160005b828110156123c657601f198683030184526123b4828651611fa2565b94870194938701939150600101612398565b5060a0880151955088810360c08a01526123e081876122cd565b9998505050505050505050565b6020815260006106f56020830184612315565b600081830360e081121561241357600080fd5b61241b61183d565b915060c081121561242b57600080fd5b506124346118a9565b61243e8484611961565b815261244d8460408501611961565b602082015261245f8460808501611961565b6040820152815260c08201356001600160401b03811115611ccd57600080fd5b6000806040838503121561249257600080fd5b82356001600160401b03808211156124a957600080fd5b6124b586838701612400565b935060208501359150808211156124cb57600080fd5b90840190602082870312156124df57600080fd5b6124e761190f565b8235828111156124f657600080fd5b61250288828601611c8c565b8252508093505050509250929050565b60006020828403121561252457600080fd5b81356001600160401b0381111561253a57600080fd5b611011848285016119d0565b6000806080838503121561255957600080fd5b82356001600160401b0381111561256f57600080fd5b61257b85828601612400565b925050611e67846020850161208a565b60208152600082516020808401526110116040840182611fa2565b600082601f8301126125b757600080fd5b813560206125c76119f1836119ad565b82815260059290921b840181019181810190868411156125e657600080fd5b8286015b84811015611a395780356001600160401b038111156126095760008081fd5b6126178986838b0101611c8c565b8452509183019183016125ea565b600082601f83011261263657600080fd5b813560206126466119f1836119ad565b82815260059290921b8401810191818101908684111561266557600080fd5b8286015b84811015611a395780356001600160401b038111156126885760008081fd5b6126968986838b0101611c21565b845250918301918301612669565b600080604083850312156126b757600080fd5b82356001600160401b03808211156126ce57600080fd5b6126da868387016120b5565b935060208501359150808211156126f057600080fd5b9084019060e0828703121561270457600080fd5b61270c611887565b6127168784611961565b815260408301358281111561272a57600080fd5b61273688828601611b7a565b60208301525060608301358281111561274e57600080fd5b61275a88828601611c21565b60408301525060808301358281111561277257600080fd5b61277e88828601611c8c565b60608301525060a08301358281111561279657600080fd5b6127a2888286016125a6565b60808301525060c0830135828111156127ba57600080fd5b6127c688828601612625565b60a0830152508093505050509250929050565b634e487b7160e01b600052603260045260246000fd5b634e487b7160e01b600052601160045260246000fd5b8082018082111561021b5761021b6127ef565b6000815160c0845261282d60c0850182611e7f565b9050602083015184820360208601526128468282611e7f565b915050604083015161285b6040860182611e70565b50606083015184820360808601526128738282611ec4565b608094909401516001600160a01b031660a09590950194909452509092915050565b6040815260006128a86040830185612818565b82810360208401526120218185611fc8565b6000602082840312156128cc57600080fd5b815180151581146106f557600080fd5b6000602082840312156128ee57600080fd5b81516106f581611a9f565b6001600160a01b039384168152919092166020820152604081019190915260600190565b8060005b6004811015612940578151845260209384019390910190600101612921565b50505050565b60a08152600061295960a0830185612818565b90506106f5602083018461291d565b60006040828403121561297a57600080fd5b61298261183d565b9050815181526020820151602082015292915050565b600082601f8301126129a957600080fd5b815160206129b96119f1836119ad565b82815260069290921b840181019181810190868411156129d857600080fd5b8286015b84811015611a39576129ee8882612968565b8352918301916040016129dc565b600082601f830112612a0d57600080fd5b81516020612a1d6119f1836119ad565b82815260059290921b84018101918181019086841115612a3c57600080fd5b8286015b84811015611a395780518352918301918301612a40565b60006101008284031215612a6a57600080fd5b612a72611887565b9050612a7e8383612968565b8152612a8d8360408401612968565b602082015260808201516001600160401b0380821115612aac57600080fd5b612ab885838601612998565b604084015260a0840151915080821115612ad157600080fd5b50612ade848285016129fc565b60608301525060c0820151608082015260e082015160a082015292915050565b600060a08284031215612b1057600080fd5b612b186118a9565b9050612b248383612968565b8152612b338360408401612968565b602082015260808201516001600160401b03811115612b5157600080fd5b611c80848285016129fc565b600060608284031215612b6f57600080fd5b612b7761183d565b9050612b838383612968565b815260408201516001600160401b03811115612b9e57600080fd5b611cd9848285016129fc565b600060208284031215612bbc57600080fd5b81516001600160401b0380821115612bd357600080fd5b9083019060a08286031215612be757600080fd5b612bef6118cb565b612bf98684612968565b8152604083015182811115612c0d57600080fd5b612c1987828601612a57565b602083015250606083015182811115612c3157600080fd5b612c3d87828601612afe565b604083015250608083015182811115612c5557600080fd5b612c6187828601612b5d565b60608301525095945050505050565b8060005b6003811015612940578151845260209384019390910190600101612c74565b60006101608251818552612ca982860182611e7f565b91505060208301518482036020860152612cc38282611e7f565b9150506040830151612cd86040860182611e70565b506060830151612ceb6080860182612c70565b506080830151612cfe60e0860182611e70565b5060a0830151848203610120860152612d178282611e7f565b91505060c08301518482036101408601526120218282611e7f565b604081526000612d456040830185612c93565b602083820381850152608085518352818601518183850152612d6982850182611ec4565b604088810151908601526060808901518683039190960152845180825290840194840191506000905b80821015612db957612da586845161291d565b948301949184019160019190910190612d92565b509398975050505050505050565b600082601f830112612dd857600080fd5b81516020612de86119f1836119ad565b82815260059290921b84018101918181019086841115612e0757600080fd5b8286015b84811015611a395780516001600160401b03811115612e2a5760008081fd5b612e388986838b0101612b5d565b845250918301918301612e0b565b600082601f830112612e5757600080fd5b81516020612e676119f1836119ad565b82815260059290921b84018101918181019086841115612e8657600080fd5b8286015b84811015611a395780516001600160401b03811115612ea95760008081fd5b612eb78986838b0101612afe565b845250918301918301612e8a565b600060208284031215612ed757600080fd5b81516001600160401b0380821115612eee57600080fd5b9083019060e08286031215612f0257600080fd5b612f0a611887565b612f148684612968565b8152604083015182811115612f2857600080fd5b612f3487828601612a57565b602083015250606083015182811115612f4c57600080fd5b612f5887828601612afe565b604083015250608083015182811115612f7057600080fd5b612f7c87828601612b5d565b60608301525060a083015182811115612f9457600080fd5b612fa087828601612dc7565b60808301525060c083015182811115612fb857600080fd5b612fc487828601612e46565b60a08301525095945050505050565b60008151612fe2848251611e70565b6020810151612ff46040860182611e70565b50604001516130066080850182611e70565b50602082015160e060c085015261101160e0850182611ec4565b6040815260006130336040830185612fd3565b828103602084015283516020825261304e6020830182611fa2565b9695505050505050565b60006001820161306a5761306a6127ef565b5060010190565b60006020828403121561308357600080fd5b5051919050565b60808152600061309d6080830185612fd3565b90506106f56020830184612c70565b6000602082840312156130be57600080fd5b81516001600160401b03808211156130d557600080fd5b90830190602082860312156130e957600080fd5b6130f161190f565b82518281111561310057600080fd5b61310c87828601612b5d565b82525095945050505050565b60408152600061312b6040830185612c93565b82810360208401526120218185612315565b634e487b7160e01b600052601260045260246000fd5b6000826131625761316261313d565b500690565b8181038181111561021b5761021b6127ef565b6000826131895761318961313d565b50049056fe405787fa12a823e0f2b7631cc41b3ba8828b3321ca811111fa75cd3aa3bb5ace405787fa12a823e0f2b7631cc41b3ba8828b3321ca811111fa75cd3aa3bb5acf30644e72e131a029b85045b68181585d97816a916871ca8d3c208c16d87cfd47290decd9548b62a8d60345a988386fc84ba6bc95484008f6362f93160ef3e563290decd9548b62a8d60345a988386fc84ba6bc95484008f6362f93160ef3e564b10e2d527612073b26eecdfd717e6a320cf44b4afac2b0732d9fcbe2b7fa0cf6b10e2d527612073b26eecdfd717e6a320cf44b4afac2b0732d9fcbe2b7fa0cf7a26469706673582212202a9d6e7583a5f623bb158cea6decfda200929e3da17537a8b8543d9c913541a364736f6c6343000813003330644e72e131a029b85045b68181585d97816a916871ca8d3c208c16d87cfd47",
  "immutableReferences": {},
  "source": "// SPDX-License-Identifier: GPL-3.0\npragma solidity >=0.4.0 <0.9.0;\n\nimport \"./lib/alt_bn128.sol\";\nimport \"./Token/Token.sol\";\nimport \"./Token/TokenRegistrar.sol\";\nimport \"./PubParam.sol\";\nimport \"./TX/SoKdp.sol\";\nimport \"./TX/SoKwd.sol\";\nimport \"./TX/SoKsp.sol\";\n\nuint constant R_size = 16;\n\ncontract Mixer {\n  \n  using alt_bn128 for uint256;\n  using alt_bn128 for alt_bn128.G1Point;\n\n  alt_bn128.G1Point[] _accs;\n  alt_bn128.G1Point[] _pks;\n  alt_bn128.G1Point[] _tags;\n\n  TokenRegistrar r;\n  PubParam pp;\n  SoKdp dp;\n  SoKwd wd;\n  SoKsp sp;\n\n  constructor (\n    address r_addr, \n    address pp_addr, \n    address dp_addr,\n    address wd_addr,\n    address sp_addr\n  ) {\n    r = TokenRegistrar(r_addr);\n    pp = PubParam(pp_addr);\n    dp = SoKdp(dp_addr);\n    wd = SoKwd(wd_addr);\n    sp = SoKsp(sp_addr);\n\n    init();\n  }\n\n  function init() public {\n    for (uint i = 0; i < R_size; i++){\n      _accs.push(alt_bn128.random(i).uintToCurvePoint());\n    }\n  }\n\n  ///////// deposit /////////\n\n  /// @dev user deposit token into mixer\n  /// @param tx_dp deposit transaction statement\n  /// @param wit witness (sk, opn, ok)\n  /// @return sig deposit signature\n  function deposit(SoKdp.TX memory tx_dp, uint256[3] memory wit) public returns (SoKdp.Sig memory sig){\n\n    Token t = Token(r.getToken(tx_dp.attrS[0]));\n\n    if (!t.isApproved(address(this), tx_dp.attrS[1])) \n      revert (\"Deposit: Unsuccessful approve operation\");\n\n    sig = dp.sign(tx_dp, wit);\n  }\n  // function deposit(SoKdp.TX memory tx_dp, uint256[3] memory wit) public view returns (SoKdp.TX memory){\n  //   address t = r.getToken(tx_dp.attrS[0]);\n  //   // sig = dp.sign(tx_dp, wit);\n  //   // return true;\n  //   return tx_dp;\n  // }\n\n  /// @dev mixer process deposit request\n  /// @param tx_dp deposit transaction statement\n  /// @param sig deposit signature\n  function process_dp(SoKdp.TX memory tx_dp, SoKdp.Sig memory sig) public returns (bool) {\n    /// @dev b0  T_now  [T_begS ,T_endS)\n    // uint256 time = block.timestamp;\n    uint256 time = 0; // for testing\n    bool b0 = tx_dp.attrS[2] <= time && time < tx_dp.attrS[3]; \n    require(b0, \"Deposit: invalid transaction time\");\n\n    /// @dev b1  pk  pk\n    bool b1 = !_in(_pks, tx_dp.s.pk);\n    require(b1, \"Deposit: pk already used\");\n\n    /// @dev b2  SoKverify(L_dp)\n    bool b2 = dp.verify(tx_dp, sig);\n    require(b2, \"Deposit: SoKdp failed\");\n\n    if (b0 && b1 && b2){\n      alt_bn128.G1Point memory Cx = tx_dp.s.tcom.add(tx_dp.s.ocom);\n      _accs.push(Cx);\n      _pks.push(tx_dp.s.pk);\n      Token t = Token(r.getToken(tx_dp.attrS[0]));\n\n      /// @dev ty.transfer[owner, mixer]\n      return t.transfer(msg.sender, address(this), tx_dp.attrS[1]);\n    }\n    return false;\n  }\n\n  //////// withdraw //////////\n\n  /// @dev withdraw token from mixer\n  /// @param tx_wd withdraw transaction statement\n  /// @param wit (theta, sk, opn, ok)\n  function withdraw(SoKwd.TX memory tx_wd, uint256[4] memory wit) public view returns (SoKwd.Sig memory){\n    return wd.sign(tx_wd, wit);\n  }\n  \n  function process_wd(SoKwd.TX memory tx_wd, SoKwd.Sig memory sig) public returns (bool) {\n    if (!isValid(tx_wd.R)) revert(\"Withdraw: Invalid R\");\n\n    /// @dev b0  T_now  [T_begS ,T_endS)\n    // uint256 time = block.timestamp;\n    uint256 time = tx_wd.attrS[2]+1; // for testing\n    bool b0 = tx_wd.attrS[2] <= time && time < tx_wd.attrS[3];\n    require(b0, \"Withdraw: invalid transaction time\");\n\n    /// @dev b1 = verify signature\n    bool b1 = wd.verify(tx_wd, sig);\n    require (b1, \"Withdraw: SoKwd failed\");\n\n    /// @dev b2  tagS  tag\n    bool b2 = !_in(_tags, tx_wd.tag);\n    require(b2, \"Withdraw: tag already used\");\n\n    if (b0 && b1 && b2) {\n      _tags.push(tx_wd.tag);\n\n      Token t = Token(r.getToken(tx_wd.attrS[0]));\n      /// @dev ty.transfer[mixer, rcpt]\n      return t.transfer(address(this), tx_wd.u_rcpt, tx_wd.attrS[1]);\n    }\n    return false;\n  }\n\n  function spend(SoKsp.TX memory tx_sp, SoKsp.Wit memory wit) public view returns (SoKsp.Sig memory){\n    return sp.sign(tx_sp, wit);\n  }\n\n  function process_sp(SoKsp.TX memory tx_sp, SoKsp.Sig memory sig) public returns (bool) {\n    if (!isValid(tx_sp.R)) revert(\"Spend: Invalid R\");\n\n    // uint256 time = 5; // for testing\n    /// @dev b0  T_now  [T_begS ,T_endS)\n    // uint256 time = block.timestamp;\n    uint256 time = tx_sp.attrS[1]; // for testing\n    bool b0 = tx_sp.attrS[1] <= time && time < tx_sp.attrS[2]; \n    require (b0, \"Spend: invalid transaction time\");\n\n    // b1  pkT  pk\n    bool b1 = !_in(_pks, tx_sp.pk_T);\n    require(b1, \"Spend: pkT already used\");\n\n    // b2  tagS  tag\n    bool b2 = !_in(_tags, tx_sp.tagS);\n    require(b2, \"Spend: tagS already used\");\n\n    bool b3 = sp.verify(tx_sp, sig);\n    require (b3, \"Spend: SoKsp failed\");\n\n    if (b0 && b1 && b2 && b3){\n      _tags.push(tx_sp.tagS);\n      _pks.push(tx_sp.pk_T);\n\n      alt_bn128.G1Point memory acc;\n      for (uint i = 0; i < tx_sp.ocom_T.length; i++) {\n        acc = tx_sp.tcom_T[i].add(tx_sp.ocom_T[i]);\n        _accs.push(acc);\n      }\n      return true;\n    }\n    return false;\n  }\n\n  function get_accs() public view returns (alt_bn128.G1Point[] memory){\n    return _accs;\n  }\n\n  function isValid(alt_bn128.G1Point[] memory R) public view returns (bool) {\n    for (uint i = 0; i < R.length; i++) {\n      if (!_in(_accs, R[i])) return false;\n    }\n    return true;\n  }\n\n  function inAcc(alt_bn128.G1Point memory g) public view returns (bool) {\n    return _in(_accs, g);\n  }\n\n  function inTag(alt_bn128.G1Point memory g) public view returns (bool) {\n    return _in(_tags, g);\n  }\n\n  function _in(\n    alt_bn128.G1Point[] memory ls,\n    alt_bn128.G1Point memory g\n  ) private pure returns (bool) {\n    for (uint i = 0 ; i < ls.length; i++) {\n      if (alt_bn128.eq(ls[i], g)) return true;\n    }\n    return false;\n  }\n\n}\n\n// import \"@optionality.io/clone-factory/contracts/CloneFactory.sol\";\n\ncontract MixerFactory {\n  address[] _mixers;\n\n  function addMixer(address _mixer) public {\n    _mixers.push(_mixer);\n  }\n\n  function getMixers() public view returns (address[] memory) {\n    return _mixers;\n  }\n\n  \n}",
  "sourcePath": "/Users/qian/Desktop/Y4/COMP4550/project/XCSwap/contracts/Mixer.sol",
  "compiler": {
    "name": "solc",
    "version": "0.8.19+commit.7dd6d404.Emscripten.clang"
  },
  "schemaVersion": "3.4.13",
  "updatedAt": "2023-08-30T07:54:27.783Z",
  "networkType": "ethereum",
  "devdoc": {
    "kind": "dev",
    "methods": {
      "deposit((((uint256,uint256),(uint256,uint256),(uint256,uint256)),uint256[]),uint256[3])": {
        "details": "user deposit token into mixer",
        "params": {
          "tx_dp": "deposit transaction statement",
          "wit": "witness (sk, opn, ok)"
        },
        "returns": {
          "sig": "deposit signature"
        }
      },
      "process_dp((((uint256,uint256),(uint256,uint256),(uint256,uint256)),uint256[]),(((uint256,uint256),uint256[])))": {
        "details": "mixer process deposit request",
        "params": {
          "sig": "deposit signature",
          "tx_dp": "deposit transaction statement"
        }
      },
      "withdraw(((uint256,uint256)[],(uint256,uint256)[],(uint256,uint256),uint256[],address),uint256[4])": {
        "details": "withdraw token from mixer",
        "params": {
          "tx_wd": "withdraw transaction statement",
          "wit": "(theta, sk, opn, ok)"
        }
      }
    },
    "version": 1
  },
  "userdoc": {
    "kind": "user",
    "methods": {},
    "version": 1
  }
}