{
  "contractName": "NFTFactory",
  "abi": [
    {
      "inputs": [
        {
          "internalType": "uint256",
          "name": "",
          "type": "uint256"
        }
      ],
      "name": "tokens",
      "outputs": [
        {
          "internalType": "contract TokenNFT",
          "name": "",
          "type": "address"
        }
      ],
      "stateMutability": "view",
      "type": "function"
    },
    {
      "inputs": [
        {
          "internalType": "string",
          "name": "name",
          "type": "string"
        },
        {
          "internalType": "string",
          "name": "symbol",
          "type": "string"
        }
      ],
      "name": "createToken",
      "outputs": [
        {
          "internalType": "contract TokenNFT",
          "name": "",
          "type": "address"
        }
      ],
      "stateMutability": "nonpayable",
      "type": "function"
    }
  ],
  "bytecode": "0x608060405234801561001057600080fd5b506119dc806100206000396000f3fe608060405234801561001057600080fd5b50600436106100365760003560e01c80632f2f2d561461003b5780634f64b2be1461006a575b600080fd5b61004e6100493660046101df565b61007d565b6040516001600160a01b03909116815260200160405180910390f35b61004e610078366004610242565b610106565b600080838360405161008e90610130565b6100999291906102a1565b604051809103906000f0801580156100b5573d6000803e3d6000fd5b50600080546001810182559080527f290decd9548b62a8d60345a988386fc84ba6bc95484008f6362f93160ef3e5630180546001600160a01b0319166001600160a01b038316179055949350505050565b6000818154811061011657600080fd5b6000918252602090912001546001600160a01b0316905081565b6116d7806102d083390190565b634e487b7160e01b600052604160045260246000fd5b600082601f83011261016457600080fd5b81356001600160401b038082111561017e5761017e61013d565b604051601f8301601f19908116603f011681019082821181831017156101a6576101a661013d565b816040528381528660208588010111156101bf57600080fd5b836020870160208301376000602085830101528094505050505092915050565b600080604083850312156101f257600080fd5b82356001600160401b038082111561020957600080fd5b61021586838701610153565b9350602085013591508082111561022b57600080fd5b5061023885828601610153565b9150509250929050565b60006020828403121561025457600080fd5b5035919050565b6000815180845260005b8181101561028157602081850181015186830182015201610265565b506000602082860101526020601f19601f83011685010191505092915050565b6040815260006102b4604083018561025b565b82810360208401526102c6818561025b565b9594505050505056fe60806040523480156200001157600080fd5b50604051620016d7380380620016d7833981016040819052620000349162000147565b81818181600062000046838262000240565b50600162000055828262000240565b5060039150620000689050838262000240565b50600462000077828262000240565b50505050506200030c565b634e487b7160e01b600052604160045260246000fd5b600082601f830112620000aa57600080fd5b81516001600160401b0380821115620000c757620000c762000082565b604051601f8301601f19908116603f01168101908282118183101715620000f257620000f262000082565b816040528381526020925086838588010111156200010f57600080fd5b600091505b8382101562000133578582018301518183018401529082019062000114565b600093810190920192909252949350505050565b600080604083850312156200015b57600080fd5b82516001600160401b03808211156200017357600080fd5b620001818683870162000098565b935060208501519150808211156200019857600080fd5b50620001a78582860162000098565b9150509250929050565b600181811c90821680620001c657607f821691505b602082108103620001e757634e487b7160e01b600052602260045260246000fd5b50919050565b601f8211156200023b57600081815260208120601f850160051c81016020861015620002165750805b601f850160051c820191505b81811015620002375782815560010162000222565b5050505b505050565b81516001600160401b038111156200025c576200025c62000082565b62000274816200026d8454620001b1565b84620001ed565b602080601f831160018114620002ac5760008415620002935750858301515b600019600386901b1c1916600185901b17855562000237565b600085815260208120601f198616915b82811015620002dd57888601518255948401946001909101908401620002bc565b5085821015620002fc5787850151600019600388901b60f8161c191681555b5050505050600190811b01905550565b6113bb806200031c6000396000f3fe608060405234801561001057600080fd5b50600436106100e65760003560e01c806301ffc9a7146100eb57806306fdde0314610113578063081812fc14610128578063095ea7b31461015357806323b872dd146101685780632a16cca41461017b57806340c10f191461018e57806342842e0e146101a15780634a980a1a146101b45780634e0f33e3146101c75780636352211e146101d957806370a08231146101ec57806395d89b41146101ff578063a22cb46514610207578063b88d4fde1461021a578063beabacc81461022d578063c87b56dd14610240578063e985e9c514610253575b600080fd5b6100fe6100f9366004610ec0565b610266565b60405190151581526020015b60405180910390f35b61011b6102b8565b60405161010a9190610f2d565b61013b610136366004610f40565b6102c7565b6040516001600160a01b03909116815260200161010a565b610166610161366004610f75565b6102ee565b005b610166610176366004610f9f565b6102fc565b6100fe610189366004610f75565b61033b565b61016661019c366004610f75565b6103db565b6101666101af366004610f9f565b6103e5565b6101666101c2366004610f40565b610400565b6002545b60405190815260200161010a565b61013b6101e7366004610f40565b610443565b6101cb6101fa366004610fdb565b61044e565b61011b610459565b610166610215366004610ff6565b610463565b610166610228366004611048565b61046e565b6100fe61023b366004610f9f565b6104a6565b61011b61024e366004610f40565b6104bd565b6100fe610261366004611123565b610531565b60006001600160e01b031982166380ac58cd60e01b148061029757506001600160e01b03198216635b5e139f60e01b145b806102b257506301ffc9a760e01b6001600160e01b03198316145b92915050565b60606102c261055f565b905090565b60006102d2826105f1565b506000908152600760205260409020546001600160a01b031690565b6102f88282610619565b5050565b6103063382610729565b61032b5760405162461bcd60e51b815260040161032290611156565b60405180910390fd5b61033683838361077d565b505050565b60008061034783610443565b9050806001600160a01b0316846001600160a01b0316036103b65760405162461bcd60e51b815260206004820152602360248201527f546f6b656e4e46542e617070726f7665643a20496e76616c6964204f706572616044820152623a37b960e91b6064820152608401610322565b836001600160a01b03166103c9846102c7565b6001600160a01b031614949350505050565b6102f882826108cf565b6103368383836040518060200160405280600081525061046e565b6002541561043e5760405162461bcd60e51b815260206004820152600b60248201526a547970652065786973747360a81b6044820152606401610322565b600255565b60006102b2826109ca565b60006102b2826109fe565b60606102c2610a84565b6102f8338383610a93565b6104783383610729565b6104945760405162461bcd60e51b815260040161032290611156565b6104a084848484610b5d565b50505050565b60006104b38484846102fc565b5060019392505050565b60606104c8826105f1565b60006104df60408051602081019091526000815290565b905060008151116104ff576040518060200160405280600081525061052a565b8061050984610b90565b60405160200161051a9291906111a3565b6040516020818303038152906040525b9392505050565b6001600160a01b03918216600090815260086020908152604080832093909416825291909152205460ff1690565b60606003805461056e906111d2565b80601f016020809104026020016040519081016040528092919081815260200182805461059a906111d2565b80156105e75780601f106105bc576101008083540402835291602001916105e7565b820191906000526020600020905b8154815290600101906020018083116105ca57829003601f168201915b5050505050905090565b6105fa81610c22565b6106165760405162461bcd60e51b81526004016103229061120c565b50565b6000610624826109ca565b9050806001600160a01b0316836001600160a01b0316036106915760405162461bcd60e51b815260206004820152602160248201527f4552433732313a20617070726f76616c20746f2063757272656e74206f776e656044820152603960f91b6064820152608401610322565b336001600160a01b03821614806106ad57506106ad8133610531565b61071f5760405162461bcd60e51b815260206004820152603d60248201527f4552433732313a20617070726f76652063616c6c6572206973206e6f7420746f60448201527f6b656e206f776e6572206f7220617070726f76656420666f7220616c6c0000006064820152608401610322565b6103368383610c2d565b600080610735836109ca565b9050806001600160a01b0316846001600160a01b0316148061075c575061075c8185610531565b806107755750836001600160a01b03166103c9846102c7565b949350505050565b826001600160a01b0316610790826109ca565b6001600160a01b0316146107b65760405162461bcd60e51b81526004016103229061123e565b6001600160a01b0382166108185760405162461bcd60e51b8152602060048201526024808201527f4552433732313a207472616e7366657220746f20746865207a65726f206164646044820152637265737360e01b6064820152608401610322565b826001600160a01b031661082b826109ca565b6001600160a01b0316146108515760405162461bcd60e51b81526004016103229061123e565b600081815260076020908152604080832080546001600160a01b03199081169091556001600160a01b03878116808652600685528386208054600019019055908716808652838620805460010190558686526005909452828520805490921684179091559051849360008051602061136683398151915291a4505050565b6001600160a01b0382166109255760405162461bcd60e51b815260206004820181905260248201527f4552433732313a206d696e7420746f20746865207a65726f20616464726573736044820152606401610322565b61092e81610c22565b1561094b5760405162461bcd60e51b815260040161032290611283565b61095481610c22565b156109715760405162461bcd60e51b815260040161032290611283565b6001600160a01b038216600081815260066020908152604080832080546001019055848352600590915280822080546001600160a01b031916841790555183929190600080516020611366833981519152908290a45050565b6000806109d683610c9b565b90506001600160a01b0381166102b25760405162461bcd60e51b81526004016103229061120c565b60006001600160a01b038216610a685760405162461bcd60e51b815260206004820152602960248201527f4552433732313a2061646472657373207a65726f206973206e6f7420612076616044820152683634b21037bbb732b960b91b6064820152608401610322565b506001600160a01b031660009081526006602052604090205490565b60606004805461056e906111d2565b816001600160a01b0316836001600160a01b031603610af05760405162461bcd60e51b815260206004820152601960248201527822a9219b99189d1030b8383937bb32903a379031b0b63632b960391b6044820152606401610322565b6001600160a01b03838116600081815260086020908152604080832094871680845294825291829020805460ff191686151590811790915591519182527f17307eab39ab6107e8899845ad3d59bd9653f200f220920489ca2b5937696c31910160405180910390a3505050565b610b6884848461077d565b610b7484848484610cb6565b6104a05760405162461bcd60e51b8152600401610322906112b9565b60606000610b9d83610db7565b60010190506000816001600160401b03811115610bbc57610bbc611032565b6040519080825280601f01601f191660200182016040528015610be6576020820181803683370190505b5090508181016020015b600019016f181899199a1a9b1b9c1cb0b131b232b360811b600a86061a8153600a8504945084610bf057509392505050565b60006102b282610e8d565b600081815260076020526040902080546001600160a01b0319166001600160a01b0384169081179091558190610c62826109ca565b6001600160a01b03167f8c5be1e5ebec7d5bd14f71427d1e84f3dd0314c0f7b2291e5b200ac8c7c3b92560405160405180910390a45050565b6000908152600560205260409020546001600160a01b031690565b60006001600160a01b0384163b15610dac57604051630a85bd0160e11b81526001600160a01b0385169063150b7a0290610cfa90339089908890889060040161130b565b6020604051808303816000875af1925050508015610d35575060408051601f3d908101601f19168201909252610d3291810190611348565b60015b610d92573d808015610d63576040519150601f19603f3d011682016040523d82523d6000602084013e610d68565b606091505b508051600003610d8a5760405162461bcd60e51b8152600401610322906112b9565b805181602001fd5b6001600160e01b031916630a85bd0160e11b149050610775565b506001949350505050565b60008072184f03e93ff9f4daa797ed6e38ed64bf6a1f0160401b8310610df65772184f03e93ff9f4daa797ed6e38ed64bf6a1f0160401b830492506040015b6904ee2d6d415b85acef8160201b8310610e20576904ee2d6d415b85acef8160201b830492506020015b662386f26fc100008310610e3e57662386f26fc10000830492506010015b6305f5e1008310610e56576305f5e100830492506008015b6127108310610e6a57612710830492506004015b60648310610e7c576064830492506002015b600a83106102b25760010192915050565b600080610e9983610c9b565b6001600160a01b0316141592915050565b6001600160e01b03198116811461061657600080fd5b600060208284031215610ed257600080fd5b813561052a81610eaa565b60005b83811015610ef8578181015183820152602001610ee0565b50506000910152565b60008151808452610f19816020860160208601610edd565b601f01601f19169290920160200192915050565b60208152600061052a6020830184610f01565b600060208284031215610f5257600080fd5b5035919050565b80356001600160a01b0381168114610f7057600080fd5b919050565b60008060408385031215610f8857600080fd5b610f9183610f59565b946020939093013593505050565b600080600060608486031215610fb457600080fd5b610fbd84610f59565b9250610fcb60208501610f59565b9150604084013590509250925092565b600060208284031215610fed57600080fd5b61052a82610f59565b6000806040838503121561100957600080fd5b61101283610f59565b91506020830135801515811461102757600080fd5b809150509250929050565b634e487b7160e01b600052604160045260246000fd5b6000806000806080858703121561105e57600080fd5b61106785610f59565b935061107560208601610f59565b92506040850135915060608501356001600160401b038082111561109857600080fd5b818701915087601f8301126110ac57600080fd5b8135818111156110be576110be611032565b604051601f8201601f19908116603f011681019083821181831017156110e6576110e6611032565b816040528281528a60208487010111156110ff57600080fd5b82602086016020830137600060208483010152809550505050505092959194509250565b6000806040838503121561113657600080fd5b61113f83610f59565b915061114d60208401610f59565b90509250929050565b6020808252602d908201527f4552433732313a2063616c6c6572206973206e6f7420746f6b656e206f776e6560408201526c1c881bdc88185c1c1c9bdd9959609a1b606082015260800190565b600083516111b5818460208801610edd565b8351908301906111c9818360208801610edd565b01949350505050565b600181811c908216806111e657607f821691505b60208210810361120657634e487b7160e01b600052602260045260246000fd5b50919050565b602080825260189082015277115490cdcc8c4e881a5b9d985b1a59081d1bdad95b88125160421b604082015260600190565b60208082526025908201527f4552433732313a207472616e736665722066726f6d20696e636f72726563742060408201526437bbb732b960d91b606082015260800190565b6020808252601c908201527b115490cdcc8c4e881d1bdad95b88185b1c9958591e481b5a5b9d195960221b604082015260600190565b60208082526032908201527f4552433732313a207472616e7366657220746f206e6f6e20455243373231526560408201527131b2b4bb32b91034b6b83632b6b2b73a32b960711b606082015260800190565b6001600160a01b038581168252841660208201526040810183905260806060820181905260009061133e90830184610f01565b9695505050505050565b60006020828403121561135a57600080fd5b815161052a81610eaa56feddf252ad1be2c89b69c2b068fc378daa952ba7f163c4a11628f55a4df523b3efa2646970667358221220cb89de23ada0d82874decf3695a90972735485cce00c71d04e0ecf5a5e2b63af64736f6c63430008130033a2646970667358221220fb3f993cb2915dd8def5daabd9cf0e9680683f2e633d4bcec253663325b3c67364736f6c63430008130033",
  "immutableReferences": {},
  "source": "// SPDX-License-Identifier: GPL-3.0\npragma solidity >=0.4.0 <0.9.0;\n\nimport \"./Token.sol\";\nimport \"@openzeppelin/contracts/token/ERC721/ERC721.sol\";\n\n/**\n * @dev ERC721\n */\ncontract TokenNFT is Token, ERC721 {\n\n  // /// @dev token id => _owners\n  // mapping(uint256 => address) private _owners;\n  // /// @dev _owners => token count\n  // mapping(address => uint256) private _balances;\n  // /// @dev token id => approved address\n  // mapping(uint256 => address) private _tokenApproval;\n  // /// @dev _owners => (operator => approved?)\n  // mapping(address => mapping(address => bool)) private _operatorApproval;\n\n  constructor (string memory _name, string memory _symbol) Token(_name, _symbol) ERC721(_name, _symbol) {}\n\n  function name() public view override(ERC721, Token) returns (string memory) {\n    return super.name();\n  }\n\n  function symbol() public view override(ERC721, Token) returns (string memory) {\n    return super.symbol();\n  }\n\n  function approve(address to, uint256 tokenId) public override(ERC721, Token){\n    // address owner = ownerOf(tokenId);\n    // if (to == owner)  revert (\"TokenNFT.approve: Invalid Operator\");\n    // /// @dev call chain\n    // if (tx.origin != owner) revert(\"TokenNFT.approve: Invalid Approver\");\n\n    // _tokenApproval[tokenId] = to;\n    ERC721.approve(to, tokenId);\n  }\n\n  function isApproved(address to, uint256 tokenId) public view override returns (bool) {\n    address owner = ownerOf(tokenId);\n    if (to == owner) revert (\"TokenNFT.approved: Invalid Operator\");\n    return ERC721.getApproved(tokenId) == to;\n    // return _tokenApproval[tokenId] == to;\n  }\n\n  function transfer(address from, address to, uint256 tokenId) public override returns (bool) {\n    /*\n    address operator = msg.sender;\n    address owner = ownerOf(tokenId);\n    if (to == owner) revert(\"Problem\");\n    if (owner != from) revert (\"Incorrect From\");\n    // if (owner != from || operator != _tokenApproval[tokenId]) revert (\"Incorrect From Address\");\n    if (to == address(0)) revert (\"Invalid Receiver\");\n\n    /// @dev could extend to _operatorApproval\n    if (operator == owner || operator == _tokenApproval[tokenId]) {\n      /// @dev Clear approvals from the previous owner\n      delete _tokenApproval[tokenId];\n\n      /// @dev update balance\n      _balances[from] -= 1;\n      _balances[to] += 1;\n\n      /// @dev transfer\n      _owners[tokenId] = to;\n      return true;\n    }\n    return false;\n    */\n    ERC721.transferFrom(from, to, tokenId);\n    return true;\n  }\n\n  /// @dev create a token for address to\n  /// @param to account address\n  /// @param tokenId token ID\n  function mint(address to, uint256 tokenId) public override {\n    // if (_exists(tokenId)) revert(\"Mint: Token ID exists\");\n    // if (to == address(0)) revert(\"Mint: Invalid receiver address\");\n    // _balances[to] += 1;\n    // _owners[tokenId] = to;\n    ERC721._mint(to, tokenId);\n  }\n\n  function ownerOf(uint256 tokenId) public view override returns (address) {\n    // return _owners[tokenId];\n    return ERC721.ownerOf(tokenId);\n  }\n\n  function balanceOf(address owner) public view override returns (uint256) {\n  //   if (owner == address(0)) revert (\"Invalid Owner\");\n  //   return _balances[owner];\n    return ERC721.balanceOf(owner);\n  }\n\n  function _exists(uint256 tokenId) internal view override returns (bool) {\n    // return _owners[tokenId] != address(0);\n    return ERC721._exists(tokenId);\n  }\n}\n\ncontract NFTFactory {\n  TokenNFT[] public tokens;\n\n  function createToken(string memory name, string memory symbol) public returns (TokenNFT) {\n    TokenNFT token = new TokenNFT(name, symbol);\n    tokens.push(token);\n    return token;\n  }\n}",
  "sourcePath": "/Users/qian/Desktop/Y4/COMP4550/project/XCSwap/contracts/Token/TokenNFT.sol",
  "compiler": {
    "name": "solc",
    "version": "0.8.19+commit.7dd6d404.Emscripten.clang"
  },
  "schemaVersion": "3.4.13",
  "updatedAt": "2023-08-22T10:21:16.606Z",
  "devdoc": {
    "kind": "dev",
    "methods": {},
    "version": 1
  },
  "userdoc": {
    "kind": "user",
    "methods": {},
    "version": 1
  }
}