{
  "contractName": "NISA",
  "abi": [
    {
      "inputs": [],
      "stateMutability": "nonpayable",
      "type": "constructor"
    },
    {
      "inputs": [
        {
          "internalType": "uint256[]",
          "name": "a",
          "type": "uint256[]"
        }
      ],
      "name": "test",
      "outputs": [
        {
          "internalType": "bool",
          "name": "",
          "type": "bool"
        }
      ],
      "stateMutability": "view",
      "type": "function"
    },
    {
      "inputs": [
        {
          "internalType": "uint256[]",
          "name": "a",
          "type": "uint256[]"
        }
      ],
      "name": "generateParam",
      "outputs": [
        {
          "components": [
            {
              "components": [
                {
                  "internalType": "uint256",
                  "name": "X",
                  "type": "uint256"
                },
                {
                  "internalType": "uint256",
                  "name": "Y",
                  "type": "uint256"
                }
              ],
              "internalType": "struct alt_bn128.G1Point[]",
              "name": "Gs",
              "type": "tuple[]"
            },
            {
              "components": [
                {
                  "internalType": "uint256",
                  "name": "X",
                  "type": "uint256"
                },
                {
                  "internalType": "uint256",
                  "name": "Y",
                  "type": "uint256"
                }
              ],
              "internalType": "struct alt_bn128.G1Point",
              "name": "P",
              "type": "tuple"
            },
            {
              "internalType": "uint256",
              "name": "c",
              "type": "uint256"
            }
          ],
          "internalType": "struct NISA.Param",
          "name": "param",
          "type": "tuple"
        }
      ],
      "stateMutability": "view",
      "type": "function"
    },
    {
      "inputs": [
        {
          "components": [
            {
              "components": [
                {
                  "internalType": "uint256",
                  "name": "X",
                  "type": "uint256"
                },
                {
                  "internalType": "uint256",
                  "name": "Y",
                  "type": "uint256"
                }
              ],
              "internalType": "struct alt_bn128.G1Point[]",
              "name": "Gs",
              "type": "tuple[]"
            },
            {
              "components": [
                {
                  "internalType": "uint256",
                  "name": "X",
                  "type": "uint256"
                },
                {
                  "internalType": "uint256",
                  "name": "Y",
                  "type": "uint256"
                }
              ],
              "internalType": "struct alt_bn128.G1Point",
              "name": "P",
              "type": "tuple"
            },
            {
              "internalType": "uint256",
              "name": "c",
              "type": "uint256"
            }
          ],
          "internalType": "struct NISA.Param",
          "name": "param",
          "type": "tuple"
        },
        {
          "internalType": "uint256[]",
          "name": "a",
          "type": "uint256[]"
        }
      ],
      "name": "prove",
      "outputs": [
        {
          "components": [
            {
              "components": [
                {
                  "internalType": "uint256",
                  "name": "X",
                  "type": "uint256"
                },
                {
                  "internalType": "uint256",
                  "name": "Y",
                  "type": "uint256"
                }
              ],
              "internalType": "struct alt_bn128.G1Point[]",
              "name": "Ls",
              "type": "tuple[]"
            },
            {
              "components": [
                {
                  "internalType": "uint256",
                  "name": "X",
                  "type": "uint256"
                },
                {
                  "internalType": "uint256",
                  "name": "Y",
                  "type": "uint256"
                }
              ],
              "internalType": "struct alt_bn128.G1Point[]",
              "name": "Rs",
              "type": "tuple[]"
            },
            {
              "internalType": "uint256",
              "name": "a",
              "type": "uint256"
            },
            {
              "internalType": "uint256",
              "name": "b",
              "type": "uint256"
            }
          ],
          "internalType": "struct NISA.Proof",
          "name": "p",
          "type": "tuple"
        }
      ],
      "stateMutability": "view",
      "type": "function"
    },
    {
      "inputs": [
        {
          "components": [
            {
              "components": [
                {
                  "internalType": "uint256",
                  "name": "X",
                  "type": "uint256"
                },
                {
                  "internalType": "uint256",
                  "name": "Y",
                  "type": "uint256"
                }
              ],
              "internalType": "struct alt_bn128.G1Point[]",
              "name": "Gs",
              "type": "tuple[]"
            },
            {
              "components": [
                {
                  "internalType": "uint256",
                  "name": "X",
                  "type": "uint256"
                },
                {
                  "internalType": "uint256",
                  "name": "Y",
                  "type": "uint256"
                }
              ],
              "internalType": "struct alt_bn128.G1Point",
              "name": "P",
              "type": "tuple"
            },
            {
              "internalType": "uint256",
              "name": "c",
              "type": "uint256"
            }
          ],
          "internalType": "struct NISA.Param",
          "name": "param",
          "type": "tuple"
        },
        {
          "components": [
            {
              "components": [
                {
                  "internalType": "uint256",
                  "name": "X",
                  "type": "uint256"
                },
                {
                  "internalType": "uint256",
                  "name": "Y",
                  "type": "uint256"
                }
              ],
              "internalType": "struct alt_bn128.G1Point[]",
              "name": "Ls",
              "type": "tuple[]"
            },
            {
              "components": [
                {
                  "internalType": "uint256",
                  "name": "X",
                  "type": "uint256"
                },
                {
                  "internalType": "uint256",
                  "name": "Y",
                  "type": "uint256"
                }
              ],
              "internalType": "struct alt_bn128.G1Point[]",
              "name": "Rs",
              "type": "tuple[]"
            },
            {
              "internalType": "uint256",
              "name": "a",
              "type": "uint256"
            },
            {
              "internalType": "uint256",
              "name": "b",
              "type": "uint256"
            }
          ],
          "internalType": "struct NISA.Proof",
          "name": "p",
          "type": "tuple"
        }
      ],
      "name": "verify",
      "outputs": [
        {
          "internalType": "bool",
          "name": "",
          "type": "bool"
        }
      ],
      "stateMutability": "view",
      "type": "function"
    }
  ],
  "bytecode": "0x60806040523480156200001157600080fd5b506200002460016200004260201b60201c565b60008082015181600001556020820151816001015590505062000519565b6200004c6200033e565b60007f30644e72e131a029b85045b68181585d97816a916871ca8d3c208c16d87cfd47836200007c9190620003d5565b905060006001826200008f91906200043c565b91506000805b816200020257600184620000aa919062000477565b93507f30644e72e131a029b85045b68181585d97816a916871ca8d3c208c16d87cfd4780620000de57620000dd620003a6565b5b84850990507f30644e72e131a029b85045b68181585d97816a916871ca8d3c208c16d87cfd4780620001155762000114620003a6565b5b84820990507f30644e72e131a029b85045b68181585d97816a916871ca8d3c208c16d87cfd47806200014c576200014b620003a6565b5b600382089050620001c181600460017f30644e72e131a029b85045b68181585d97816a916871ca8d3c208c16d87cfd4762000188919062000477565b620001949190620004b2565b7f30644e72e131a029b85045b68181585d97816a916871ca8d3c208c16d87cfd476200022260201b60201c565b9250807f30644e72e131a029b85045b68181585d97816a916871ca8d3c208c16d87cfd4780620001f657620001f5620003a6565b5b84850914915062000095565b604051806040016040528085815260200184815250945050505050919050565b60006200022e62000358565b620002386200037a565b602082600060068110620002515762000250620004ea565b5b602002018181525050602082600160068110620002735762000272620004ea565b5b602002018181525050602082600260068110620002955762000294620004ea565b5b6020020181815250508582600360068110620002b657620002b5620004ea565b5b6020020181815250508482600460068110620002d757620002d6620004ea565b5b6020020181815250508382600560068110620002f857620002f7620004ea565b5b60200201818152505060208160c0846005600019fa6200031757600080fd5b806000600181106200032e576200032d620004ea565b5b6020020151925050509392505050565b604051806040016040528060008152602001600081525090565b6040518060c00160405280600690602082028036833780820191505090505090565b6040518060200160405280600190602082028036833780820191505090505090565b6000819050919050565b7f4e487b7100000000000000000000000000000000000000000000000000000000600052601260045260246000fd5b6000620003e2826200039c565b9150620003ef836200039c565b925082620004025762000401620003a6565b5b828206905092915050565b7f4e487b7100000000000000000000000000000000000000000000000000000000600052601160045260246000fd5b600062000449826200039c565b915062000456836200039c565b92508282039050818111156200047157620004706200040d565b5b92915050565b600062000484826200039c565b915062000491836200039c565b9250828201905080821115620004ac57620004ab6200040d565b5b92915050565b6000620004bf826200039c565b9150620004cc836200039c565b925082620004df57620004de620003a6565b5b828204905092915050565b7f4e487b7100000000000000000000000000000000000000000000000000000000600052603260045260246000fd5b6126f280620005296000396000f3fe608060405234801561001057600080fd5b506004361061004c5760003560e01c80636c468bb514610051578063b5c5d37a14610081578063ca160684146100b1578063f909cb5b146100e1575b600080fd5b61006b60048036038101906100669190611e63565b610111565b6040516100789190611ef6565b60405180910390f35b61009b60048036038101906100969190611fd4565b6107b5565b6040516100a8919061215a565b60405180910390f35b6100cb60048036038101906100c69190611fd4565b6109e6565b6040516100d89190611ef6565b60405180910390f35b6100fb60048036038101906100f6919061217c565b610a15565b604051610108919061225e565b60405180910390f35b600080610122846000015151610fcc565b905060008167ffffffffffffffff8111156101405761013f611b60565b5b60405190808252806020026020018201604052801561016e5781602001602082028036833780820191505090505b50905060008267ffffffffffffffff81111561018d5761018c611b60565b5b6040519080825280602002602001820160405280156101bb5781602001602082028036833780820191505090505b50905060008073__alt_bn128_____________________________63aba8f70689602001516040518263ffffffff1660e01b81526004016101fc91906122be565b602060405180830381865af4158015610219573d6000803e3d6000fd5b505050506040513d601f19601f8201168201806040525081019061023d919061230f565b73__alt_bn128_____________________________63aba8f70660006040518263ffffffff1660e01b815260040161027591906123b4565b602060405180830381865af4158015610292573d6000803e3d6000fd5b505050506040513d601f19601f820116820180604052508101906102b6919061230f565b89604001516040516020016102cd93929190612411565b6040516020818303038152906040528051906020012060001c9050600061032e89602001516103296000604051806040016040529081600082015481526020016001820154815250506103248d6040015187611000565b61103c565b6110f4565b90506001925060005b8681101561060f5773__alt_bn128_____________________________63aba8f7068a6000015183815181106103705761036f61244e565b5b60200260200101516040518263ffffffff1660e01b815260040161039491906122be565b602060405180830381865af41580156103b1573d6000803e3d6000fd5b505050506040513d601f19601f820116820180604052508101906103d5919061230f565b73__alt_bn128_____________________________63aba8f7068b6020015184815181106104065761040561244e565b5b60200260200101516040518263ffffffff1660e01b815260040161042a91906122be565b602060405180830381865af4158015610447573d6000803e3d6000fd5b505050506040513d601f19601f8201168201806040525081019061046b919061230f565b60405160200161047c92919061247d565b6040516020818303038152906040528051906020012060001c8682815181106104a8576104a761244e565b5b6020026020010181815250506104d78682815181106104ca576104c961244e565b5b60200260200101516111a8565b8582815181106104ea576104e961244e565b5b6020026020010181815250506105648261055f8b6000015184815181106105145761051361244e565b5b602002602001015161055a8a86815181106105325761053161244e565b5b60200260200101518b878151811061054d5761054c61244e565b5b6020026020010151611000565b61103c565b6110f4565b91506105d4826105cf8b6020015184815181106105845761058361244e565b5b60200260200101516105ca8986815181106105a2576105a161244e565b5b60200260200101518a87815181106105bd576105bc61244e565b5b6020026020010151611000565b61103c565b6110f4565b91506105fa848683815181106105ed576105ec61244e565b5b6020026020010151611000565b93508080610607906124d8565b915050610337565b50600061063b8a6000015160008151811061062d5761062c61244e565b5b60200260200101518561103c565b90506000600190505b8a6000015151811015610749576001945060005b888110156107025761066a8282611208565b156106b1576106aa86896001848d6106829190612520565b61068c9190612520565b8151811061069d5761069c61244e565b5b6020026020010151611000565b95506106ef565b6106ec86886001848d6106c49190612520565b6106ce9190612520565b815181106106df576106de61244e565b5b6020026020010151611000565b95505b80806106fa906124d8565b915050610658565b506107348261072f8d6000015184815181106107215761072061244e565b5b60200260200101518861103c565b6110f4565b91508080610741906124d8565b915050610644565b5061078a8161078561077b6000604051806040016040529081600082015481526020016001820154815250508761103c565b8c6060015161103c565b6110f4565b905061079a818a6040015161103c565b90506107a6828261121b565b97505050505050505092915050565b6107bd611a45565b6000600183516107cd9190612520565b83511614610810576040517f08c379a0000000000000000000000000000000000000000000000000000000008152600401610807906125d7565b60405180910390fd5b815167ffffffffffffffff81111561082b5761082a611b60565b5b60405190808252806020026020018201604052801561086457816020015b610851611a6c565b8152602001906001900390816108495790505b50816000018190525060005b82518110156108c35761088e60028261088991906125f7565b611243565b826000015182815181106108a5576108a461244e565b5b602002602001018190525080806108bb906124d8565b915050610870565b50816000815181106108d8576108d761244e565b5b602002602001015181604001818152505061092d81600001516000815181106109045761090361244e565b5b6020026020010151836000815181106109205761091f61244e565b5b602002602001015161103c565b81602001819052506000600190505b82518110156109e05761096d82604001518483815181106109605761095f61244e565b5b6020026020010151611401565b8260400181815250506109c582602001516109c0846000015184815181106109985761099761244e565b5b60200260200101518685815181106109b3576109b261244e565b5b602002602001015161103c565b6110f4565b826020018190525080806109d8906124d8565b91505061093c565b50919050565b6000806109f2836107b5565b90506000610a008285610a15565b9050610a0c8282610111565b92505050919050565b610a1d611a86565b600060018351610a2d9190612520565b83511614610a70576040517f08c379a0000000000000000000000000000000000000000000000000000000008152600401610a67906125d7565b60405180910390fd5b6000610a7c8351610fcc565b90508067ffffffffffffffff811115610a9857610a97611b60565b5b604051908082528060200260200182016040528015610ad157816020015b610abe611a6c565b815260200190600190039081610ab65790505b5082600001819052508067ffffffffffffffff811115610af457610af3611b60565b5b604051908082528060200260200182016040528015610b2d57816020015b610b1a611a6c565b815260200190600190039081610b125790505b508260200181905250600073__alt_bn128_____________________________63aba8f70686602001516040518263ffffffff1660e01b8152600401610b7391906122be565b602060405180830381865af4158015610b90573d6000803e3d6000fd5b505050506040513d601f19601f82011682018060405250810190610bb4919061230f565b73__alt_bn128_____________________________63aba8f70660006040518263ffffffff1660e01b8152600401610bec91906123b4565b602060405180830381865af4158015610c09573d6000803e3d6000fd5b505050506040513d601f19601f82011682018060405250810190610c2d919061230f565b8660400151604051602001610c4493929190612411565b6040516020818303038152906040528051906020012060001c90506000610c8b6000604051806040016040529081600082015481526020016001820154815250508361103c565b90506000855167ffffffffffffffff811115610caa57610ca9611b60565b5b604051908082528060200260200182016040528015610cd85781602001602082028036833780820191505090505b5090506000865167ffffffffffffffff811115610cf857610cf7611b60565b5b604051908082528060200260200182016040528015610d3157816020015b610d1e611a6c565b815260200190600190039081610d165790505b50905060005b8251811015610db1576001838281518110610d5557610d5461244e565b5b60200260200101818152505088600001518181518110610d7857610d7761244e565b5b6020026020010151828281518110610d9357610d9261244e565b5b60200260200101819052508080610da9906124d8565b915050610d37565b50610dba611a6c565b610dc2611a6c565b600080600090505b88811015610f7357610dde858c888a61143d565b8094508195505050838a600001518281518110610dfe57610dfd61244e565b5b6020026020010181905250828a602001518281518110610e2157610e2061244e565b5b602002602001018190525073__alt_bn128_____________________________63aba8f706856040518263ffffffff1660e01b8152600401610e6391906122be565b602060405180830381865af4158015610e80573d6000803e3d6000fd5b505050506040513d601f19601f82011682018060405250810190610ea4919061230f565b73__alt_bn128_____________________________63aba8f706856040518263ffffffff1660e01b8152600401610edb91906122be565b602060405180830381865af4158015610ef8573d6000803e3d6000fd5b505050506040513d601f19601f82011682018060405250810190610f1c919061230f565b604051602001610f2d92919061247d565b6040516020818303038152906040528051906020012060001c9150610f54858c888561169b565b809850819d508297505050508080610f6b906124d8565b915050610dca565b5089600081518110610f8857610f8761244e565b5b602002602001015189604001818152505084600081518110610fad57610fac61244e565b5b6020026020010151896060018181525050505050505050505092915050565b60005b6001821115610ffb57600181610fe591906125f7565b9050600282610ff4919061265a565b9150610fcf565b919050565b60007f30644e72e131a029b85045b68181585d2833e84879b9709143e1f593f0000001806110315761103061262b565b5b828409905092915050565b611044611a6c565b60018203611054578290506110ee565b6002820361106d5761106683846110f4565b90506110ee565b611075611aae565b83600001518160006003811061108e5761108d61244e565b5b6020020181815250508360200151816001600381106110b0576110af61244e565b5b60200201818152505082816002600381106110ce576110cd61244e565b5b6020020181815250506040826060836007600019fa6110ec57600080fd5b505b92915050565b6110fc611a6c565b611104611ad0565b83600001518160006004811061111d5761111c61244e565b5b60200201818152505083602001518160016004811061113f5761113e61244e565b5b6020020181815250508260000151816002600481106111615761116061244e565b5b6020020181815250508260200151816003600481106111835761118261244e565b5b6020020181815250506040826080836006600019fa6111a157600080fd5b5092915050565b60006112018260027f30644e72e131a029b85045b68181585d2833e84879b9709143e1f593f00000016111db9190612520565b7f30644e72e131a029b85045b68181585d2833e84879b9709143e1f593f0000001611943565b9050919050565b60006001808385901c1614905092915050565b60008160000151836000015114801561123b575081602001518360200151145b905092915050565b61124b611a6c565b60007f30644e72e131a029b85045b68181585d97816a916871ca8d3c208c16d87cfd4783611279919061268b565b9050600060018261128a9190612520565b91506000805b816113e1576001846112a291906125f7565b93507f30644e72e131a029b85045b68181585d97816a916871ca8d3c208c16d87cfd47806112d3576112d261262b565b5b84850990507f30644e72e131a029b85045b68181585d97816a916871ca8d3c208c16d87cfd47806113075761130661262b565b5b84820990507f30644e72e131a029b85045b68181585d97816a916871ca8d3c208c16d87cfd478061133b5761133a61262b565b5b6003820890506113a481600460017f30644e72e131a029b85045b68181585d97816a916871ca8d3c208c16d87cfd4761137491906125f7565b61137e919061265a565b7f30644e72e131a029b85045b68181585d97816a916871ca8d3c208c16d87cfd47611943565b9250807f30644e72e131a029b85045b68181585d97816a916871ca8d3c208c16d87cfd47806113d6576113d561262b565b5b848509149150611290565b604051806040016040528085815260200184815250945050505050919050565b60007f30644e72e131a029b85045b68181585d2833e84879b9709143e1f593f0000001806114325761143161262b565b5b828408905092915050565b611445611a6c565b61144d611a6c565b60006002865161145d919061265a565b905060006114a0876000815181106114785761147761244e565b5b60200260200101518784815181106114935761149261244e565b5b6020026020010151611000565b905060006114e38884815181106114ba576114b961244e565b5b6020026020010151886000815181106114d6576114d561244e565b5b6020026020010151611000565b90506000600190505b838110156115af57611546836115418b848151811061150e5761150d61244e565b5b60200260200101518b858961152391906125f7565b815181106115345761153361244e565b5b6020026020010151611000565b611401565b925061159a826115958b848861155c91906125f7565b8151811061156d5761156c61244e565b5b60200260200101518b85815181106115885761158761244e565b5b6020026020010151611000565b611401565b915080806115a7906124d8565b9150506114ec565b506115ba868361103c565b94506115c6868261103c565b935060005b8381101561168e57611625866116208c84886115e791906125f7565b815181106115f8576115f761244e565b5b60200260200101518c85815181106116135761161261244e565b5b602002602001015161103c565b6110f4565b9550611679856116748c84815181106116415761164061244e565b5b60200260200101518c858961165691906125f7565b815181106116675761166661244e565b5b602002602001015161103c565b6110f4565b94508080611686906124d8565b9150506115cb565b5050505094509492505050565b60608060606000600287516116b0919061265a565b905060006116bd866111a8565b90508167ffffffffffffffff8111156116d9576116d8611b60565b5b60405190808252806020026020018201604052801561171257816020015b6116ff611a6c565b8152602001906001900390816116f75790505b5094508167ffffffffffffffff81111561172f5761172e611b60565b5b60405190808252806020026020018201604052801561175d5781602001602082028036833780820191505090505b5093508167ffffffffffffffff81111561177a57611779611b60565b5b6040519080825280602002602001820160405280156117a85781602001602082028036833780820191505090505b50925060005b82811015611936576118116117dd8b83815181106117cf576117ce61244e565b5b60200260200101518461103c565b61180c8c84876117ed91906125f7565b815181106117fe576117fd61244e565b5b60200260200101518a61103c565b6110f4565b8682815181106118245761182361244e565b5b602002602001018190525061188a611856888b84815181106118495761184861244e565b5b6020026020010151611000565b611885848c858861186791906125f7565b815181106118785761187761244e565b5b6020026020010151611000565b611401565b85828151811061189d5761189c61244e565b5b6020026020010181815250506119046118d0838a84815181106118c3576118c261244e565b5b6020026020010151611000565b6118ff898b85886118e191906125f7565b815181106118f2576118f161244e565b5b6020026020010151611000565b611401565b8482815181106119175761191661244e565b5b602002602001018181525050808061192e906124d8565b9150506117ae565b5050509450945094915050565b600061194d611af2565b611955611b14565b60208260006006811061196b5761196a61244e565b5b60200201818152505060208260016006811061198a5761198961244e565b5b6020020181815250506020826002600681106119a9576119a861244e565b5b60200201818152505085826003600681106119c7576119c661244e565b5b60200201818152505084826004600681106119e5576119e461244e565b5b6020020181815250508382600560068110611a0357611a0261244e565b5b60200201818152505060208160c0846005600019fa611a2157600080fd5b80600060018110611a3557611a3461244e565b5b6020020151925050509392505050565b604051806060016040528060608152602001611a5f611a6c565b8152602001600081525090565b604051806040016040528060008152602001600081525090565b6040518060800160405280606081526020016060815260200160008152602001600081525090565b6040518060600160405280600390602082028036833780820191505090505090565b6040518060800160405280600490602082028036833780820191505090505090565b6040518060c00160405280600690602082028036833780820191505090505090565b6040518060200160405280600190602082028036833780820191505090505090565b6000604051905090565b600080fd5b600080fd5b600080fd5b6000601f19601f8301169050919050565b7f4e487b7100000000000000000000000000000000000000000000000000000000600052604160045260246000fd5b611b9882611b4f565b810181811067ffffffffffffffff82111715611bb757611bb6611b60565b5b80604052505050565b6000611bca611b36565b9050611bd68282611b8f565b919050565b600080fd5b600080fd5b600067ffffffffffffffff821115611c0057611bff611b60565b5b602082029050602081019050919050565b600080fd5b6000819050919050565b611c2981611c16565b8114611c3457600080fd5b50565b600081359050611c4681611c20565b92915050565b600060408284031215611c6257611c61611b4a565b5b611c6c6040611bc0565b90506000611c7c84828501611c37565b6000830152506020611c9084828501611c37565b60208301525092915050565b6000611caf611caa84611be5565b611bc0565b90508083825260208201905060408402830185811115611cd257611cd1611c11565b5b835b81811015611cfb5780611ce78882611c4c565b845260208401935050604081019050611cd4565b5050509392505050565b600082601f830112611d1a57611d19611be0565b5b8135611d2a848260208601611c9c565b91505092915050565b600060808284031215611d4957611d48611b4a565b5b611d536060611bc0565b9050600082013567ffffffffffffffff811115611d7357611d72611bdb565b5b611d7f84828501611d05565b6000830152506020611d9384828501611c4c565b6020830152506060611da784828501611c37565b60408301525092915050565b600060808284031215611dc957611dc8611b4a565b5b611dd36080611bc0565b9050600082013567ffffffffffffffff811115611df357611df2611bdb565b5b611dff84828501611d05565b600083015250602082013567ffffffffffffffff811115611e2357611e22611bdb565b5b611e2f84828501611d05565b6020830152506040611e4384828501611c37565b6040830152506060611e5784828501611c37565b60608301525092915050565b60008060408385031215611e7a57611e79611b40565b5b600083013567ffffffffffffffff811115611e9857611e97611b45565b5b611ea485828601611d33565b925050602083013567ffffffffffffffff811115611ec557611ec4611b45565b5b611ed185828601611db3565b9150509250929050565b60008115159050919050565b611ef081611edb565b82525050565b6000602082019050611f0b6000830184611ee7565b92915050565b600067ffffffffffffffff821115611f2c57611f2b611b60565b5b602082029050602081019050919050565b6000611f50611f4b84611f11565b611bc0565b90508083825260208201905060208402830185811115611f7357611f72611c11565b5b835b81811015611f9c5780611f888882611c37565b845260208401935050602081019050611f75565b5050509392505050565b600082601f830112611fbb57611fba611be0565b5b8135611fcb848260208601611f3d565b91505092915050565b600060208284031215611fea57611fe9611b40565b5b600082013567ffffffffffffffff81111561200857612007611b45565b5b61201484828501611fa6565b91505092915050565b600081519050919050565b600082825260208201905092915050565b6000819050602082019050919050565b61205281611c16565b82525050565b60408201600082015161206e6000850182612049565b5060208201516120816020850182612049565b50505050565b60006120938383612058565b60408301905092915050565b6000602082019050919050565b60006120b78261201d565b6120c18185612028565b93506120cc83612039565b8060005b838110156120fd5781516120e48882612087565b97506120ef8361209f565b9250506001810190506120d0565b5085935050505092915050565b6000608083016000830151848203600086015261212782826120ac565b915050602083015161213c6020860182612058565b50604083015161214f6060860182612049565b508091505092915050565b60006020820190508181036000830152612174818461210a565b905092915050565b6000806040838503121561219357612192611b40565b5b600083013567ffffffffffffffff8111156121b1576121b0611b45565b5b6121bd85828601611d33565b925050602083013567ffffffffffffffff8111156121de576121dd611b45565b5b6121ea85828601611fa6565b9150509250929050565b6000608083016000830151848203600086015261221182826120ac565b9150506020830151848203602086015261222b82826120ac565b91505060408301516122406040860182612049565b5060608301516122536060860182612049565b508091505092915050565b6000602082019050818103600083015261227881846121f4565b905092915050565b61228981611c16565b82525050565b6040820160008201516122a56000850182612280565b5060208201516122b86020850182612280565b50505050565b60006040820190506122d3600083018461228f565b92915050565b6000819050919050565b6122ec816122d9565b81146122f757600080fd5b50565b600081519050612309816122e3565b92915050565b60006020828403121561232557612324611b40565b5b6000612333848285016122fa565b91505092915050565b60008160001c9050919050565b6000819050919050565b60006123666123618361233c565b612349565b9050919050565b60408201600080830154905061238281612353565b61238f6000860182612280565b50600183015490506123a081612353565b6123ad6020860182612280565b5050505050565b60006040820190506123c9600083018461236d565b92915050565b6000819050919050565b6123ea6123e5826122d9565b6123cf565b82525050565b6000819050919050565b61240b61240682611c16565b6123f0565b82525050565b600061241d82866123d9565b60208201915061242d82856123d9565b60208201915061243d82846123fa565b602082019150819050949350505050565b7f4e487b7100000000000000000000000000000000000000000000000000000000600052603260045260246000fd5b600061248982856123d9565b60208201915061249982846123d9565b6020820191508190509392505050565b7f4e487b7100000000000000000000000000000000000000000000000000000000600052601160045260246000fd5b60006124e382611c16565b91507fffffffffffffffffffffffffffffffffffffffffffffffffffffffffffffffff8203612515576125146124a9565b5b600182019050919050565b600061252b82611c16565b915061253683611c16565b925082820390508181111561254e5761254d6124a9565b5b92915050565b600082825260208201905092915050565b7f766563746f72206c656e6774682073686f756c64206265206120706f7765722060008201527f6f66203200000000000000000000000000000000000000000000000000000000602082015250565b60006125c1602483612554565b91506125cc82612565565b604082019050919050565b600060208201905081810360008301526125f0816125b4565b9050919050565b600061260282611c16565b915061260d83611c16565b9250828201905080821115612625576126246124a9565b5b92915050565b7f4e487b7100000000000000000000000000000000000000000000000000000000600052601260045260246000fd5b600061266582611c16565b915061267083611c16565b9250826126805761267f61262b565b5b828204905092915050565b600061269682611c16565b91506126a183611c16565b9250826126b1576126b061262b565b5b82820690509291505056fea2646970667358221220d962ae74338dfefc705b9be147c85187aecf961dd6ee547674a8140c370674be64736f6c63430008130033",
  "immutableReferences": {},
  "source": "// SPDX-License-Identifier: GPL-3.0\npragma solidity >=0.4.0 <0.9.0;\n\nimport \"./alt_bn128.sol\";\n\n// proof using iteration\ncontract NISA {\n    using alt_bn128 for uint256;\n    using alt_bn128 for alt_bn128.G1Point;\n\n    alt_bn128.G1Point u; // random generator\n\n    struct Param {\n        alt_bn128.G1Point[] Gs;\n        alt_bn128.G1Point P;\n        uint256 c;\n    }\n\n    struct Proof {\n        alt_bn128.G1Point[] Ls;\n        alt_bn128.G1Point[] Rs;\n        uint256 a;\n        uint256 b;\n    }\n\n    constructor() {\n        // uint256 seed = uint256(keccak256(abi.encodePacked(block.timestamp, blockhash(block.number - 1))));\n        u = alt_bn128.uintToCurvePoint(1);\n    }\n\n    /** test correctness */\n    function test(uint256[] memory a) public view returns (bool) {\n        Param memory param = generateParam(a);\n        Proof memory p = prove(param, a);\n        return verify(param, p);\n    }\n\n    /** \n\t\tGs : public keys\n\t\tP : prod_i (g_i ^ a_i)\n\t\tc : sum_i a_i\n\t */\n    function generateParam(\n        uint256[] memory a\n    ) public view returns (Param memory param) {\n        require(\n            a.length & (a.length - 1) == 0,\n            \"vector length should be a power of 2\"\n        );\n        param.Gs = new alt_bn128.G1Point[](a.length);\n        for (uint256 i = 0; i < a.length; i++) {\n            param.Gs[i] = alt_bn128.uintToCurvePoint(i + 2);\n        }\n        param.c = a[0];\n        param.P = alt_bn128.mul(param.Gs[0], a[0]);\n        for (uint i = 1; i < a.length; i++) {\n            param.c = alt_bn128.add(param.c, a[i]);\n            param.P = alt_bn128.add(param.P, alt_bn128.mul(param.Gs[i], a[i]));\n        }\n    }\n\n    function prove(\n        Param memory param,\n        uint256[] memory a\n    ) public view returns (Proof memory p) {\n        require(\n            a.length & (a.length - 1) == 0,\n            \"vector length should be a power of 2\"\n        );\n\n        uint length = log2(a.length);\n        p.Ls = new alt_bn128.G1Point[](length);\n        p.Rs = new alt_bn128.G1Point[](length);\n\n        uint256 H_z = uint256(\n            keccak256(\n                abi.encodePacked(\n                    alt_bn128.serialize(param.P),\n                    alt_bn128.serialize(u),\n                    param.c\n                )\n            )\n        );\n\n        alt_bn128.G1Point memory u_prime = alt_bn128.mul(u, H_z);\n\n        uint256[] memory b = new uint256[](a.length);\n        alt_bn128.G1Point[] memory Gs = new alt_bn128.G1Point[](a.length);\n        for (uint i = 0; i < b.length; i++) {\n            b[i] = 1;\n            Gs[i] = param.Gs[i];\n        }\n        alt_bn128.G1Point memory L;\n        alt_bn128.G1Point memory R;\n        uint256 x;\n\n        // O(logn) loop\n        for (uint idx = 0; idx < length; idx++) {\n            // L && R\n            (L, R) = LR(Gs, a, b, u_prime);\n            p.Ls[idx] = L;\n            p.Rs[idx] = R;\n\n            x = uint256(\n                keccak256(\n                    abi.encodePacked(\n                        alt_bn128.serialize(L),\n                        alt_bn128.serialize(R)\n                    )\n                )\n            );\n\n            // half size\n            (Gs, a, b) = nextRound(Gs, a, b, x);\n        }\n\n        p.a = a[0];\n        p.b = b[0];\n    }\n\n    function LR(\n        alt_bn128.G1Point[] memory Gs,\n        uint256[] memory a,\n        uint256[] memory b,\n        alt_bn128.G1Point memory u_prime\n    )\n        internal\n        view\n        returns (alt_bn128.G1Point memory L, alt_bn128.G1Point memory R)\n    {\n        uint n = a.length / 2;\n        uint256 cL = alt_bn128.mul(a[0], b[n]);\n        uint256 cR = alt_bn128.mul(a[n], b[0]);\n        for (uint i = 1; i < n; i++) {\n            cL = alt_bn128.add(cL, alt_bn128.mul(a[i], b[n + i]));\n            cR = alt_bn128.add(cR, alt_bn128.mul(a[n + i], b[i]));\n        }\n\n        L = alt_bn128.mul(u_prime, cL);\n        R = alt_bn128.mul(u_prime, cR);\n\n        for (uint i = 0; i < n; i++) {\n            L = alt_bn128.add(L, alt_bn128.mul(Gs[n + i], a[i]));\n            R = alt_bn128.add(R, alt_bn128.mul(Gs[i], a[n + i]));\n        }\n    }\n\n    function nextRound(\n        alt_bn128.G1Point[] memory Gs,\n        uint256[] memory a,\n        uint256[] memory b,\n        uint256 x\n    )\n        internal\n        view\n        returns (\n            alt_bn128.G1Point[] memory Gs_new,\n            uint256[] memory a_new,\n            uint256[] memory b_new\n        )\n    {\n        uint n = a.length / 2;\n\n        uint256 x_inv = alt_bn128.inv(x);\n\n        Gs_new = new alt_bn128.G1Point[](n);\n        a_new = new uint256[](n);\n        b_new = new uint256[](n);\n\n        for (uint i = 0; i < n; i++) {\n            Gs_new[i] = alt_bn128.add(\n                alt_bn128.mul(Gs[i], x_inv),\n                alt_bn128.mul(Gs[n + i], x)\n            );\n            a_new[i] = alt_bn128.add(\n                alt_bn128.mul(x, a[i]),\n                alt_bn128.mul(x_inv, a[n + i])\n            );\n            b_new[i] = alt_bn128.add(\n                alt_bn128.mul(x_inv, b[i]),\n                alt_bn128.mul(x, b[n + i])\n            );\n        }\n    }\n\n    function verify(\n        Param memory param,\n        Proof memory p\n    ) public view returns (bool) {\n        uint length = log2(param.Gs.length);\n\n        uint256[] memory xs = new uint256[](length);\n        uint256[] memory xs_inv = new uint256[](length);\n        uint256 y;\n        // verify\n        uint256 H_z = uint256(\n            keccak256(\n                abi.encodePacked(\n                    alt_bn128.serialize(param.P),\n                    alt_bn128.serialize(u),\n                    param.c\n                )\n            )\n        );\n        alt_bn128.G1Point memory left_point = alt_bn128.add(\n            param.P,\n            alt_bn128.mul(u, alt_bn128.mul(param.c, H_z))\n        );\n\n        y = 1;\n        for (uint i = 0; i < length; i++) {\n            xs[i] = uint256(\n                keccak256(\n                    abi.encodePacked(\n                        alt_bn128.serialize(p.Ls[i]),\n                        alt_bn128.serialize(p.Rs[i])\n                    )\n                )\n            );\n            xs_inv[i] = alt_bn128.inv(xs[i]);\n\n            left_point = alt_bn128.add(\n                left_point,\n                alt_bn128.mul(p.Ls[i], alt_bn128.mul(xs[i], xs[i]))\n            );\n            left_point = alt_bn128.add(\n                left_point,\n                alt_bn128.mul(p.Rs[i], alt_bn128.mul(xs_inv[i], xs_inv[i]))\n            );\n            y = alt_bn128.mul(y, xs_inv[i]);\n        }\n        alt_bn128.G1Point memory right_point = alt_bn128.mul(param.Gs[0], y);\n\n        // uint k;\n        for (uint i = 1; i < param.Gs.length; i++) {\n            y = 1;\n            // k = length;\n            for (uint j = 0; j < length; j++) {\n                // k--;\n                if (check_bit(i, j)) {\n                    y = alt_bn128.mul(y, xs[length - j - 1]);\n                } else {\n                    y = alt_bn128.mul(y, xs_inv[length - j - 1]);\n                }\n            }\n            right_point = alt_bn128.add(\n                right_point,\n                alt_bn128.mul(param.Gs[i], y)\n            );\n        }\n        right_point = alt_bn128.add(\n            right_point,\n            alt_bn128.mul(alt_bn128.mul(u, H_z), p.b)\n        );\n        right_point = alt_bn128.mul(right_point, p.a);\n\n        return alt_bn128.eq(left_point, right_point);\n    }\n\n    function log2(uint n) internal pure returns (uint ndigits) {\n        ndigits = 0;\n        while (n > 1) {\n            ndigits += 1;\n            n = n / 2;\n        }\n    }\n\n    function check_bit(uint i, uint j) internal pure returns (bool) {\n        return ((i >> j) & 1) == 1;\n    }\n}\n",
  "sourcePath": "/Users/qian/Desktop/Y4/COMP4550/ZKP-Blockchain-new/contracts/nisa.sol",
  "compiler": {
    "name": "solc",
    "version": "0.8.19+commit.7dd6d404.Emscripten.clang"
  },
  "schemaVersion": "3.4.13",
  "updatedAt": "2023-06-25T14:23:18.378Z",
  "devdoc": {
    "kind": "dev",
    "methods": {},
    "version": 1
  },
  "userdoc": {
    "kind": "user",
    "methods": {
      "generateParam(uint256[])": {
        "notice": "Gs : public keys P : prod_i (g_i ^ a_i) c : sum_i a_i"
      },
      "test(uint256[])": {
        "notice": "test correctness "
      }
    },
    "version": 1
  }
}