{
  "contractName": "NISA",
  "abi": [
    {
      "inputs": [
        {
          "internalType": "uint256[]",
          "name": "a",
          "type": "uint256[]"
        }
      ],
      "name": "setup",
      "outputs": [
        {
          "components": [
            {
              "components": [
                {
                  "internalType": "uint256",
                  "name": "X",
                  "type": "uint256"
                },
                {
                  "internalType": "uint256",
                  "name": "Y",
                  "type": "uint256"
                }
              ],
              "internalType": "struct alt_bn128.G1Point[]",
              "name": "Gs",
              "type": "tuple[]"
            },
            {
              "components": [
                {
                  "internalType": "uint256",
                  "name": "X",
                  "type": "uint256"
                },
                {
                  "internalType": "uint256",
                  "name": "Y",
                  "type": "uint256"
                }
              ],
              "internalType": "struct alt_bn128.G1Point",
              "name": "u",
              "type": "tuple"
            },
            {
              "components": [
                {
                  "internalType": "uint256",
                  "name": "X",
                  "type": "uint256"
                },
                {
                  "internalType": "uint256",
                  "name": "Y",
                  "type": "uint256"
                }
              ],
              "internalType": "struct alt_bn128.G1Point",
              "name": "P",
              "type": "tuple"
            },
            {
              "internalType": "uint256",
              "name": "c",
              "type": "uint256"
            }
          ],
          "internalType": "struct NISA.Param",
          "name": "param",
          "type": "tuple"
        }
      ],
      "stateMutability": "view",
      "type": "function"
    },
    {
      "inputs": [
        {
          "components": [
            {
              "components": [
                {
                  "internalType": "uint256",
                  "name": "X",
                  "type": "uint256"
                },
                {
                  "internalType": "uint256",
                  "name": "Y",
                  "type": "uint256"
                }
              ],
              "internalType": "struct alt_bn128.G1Point[]",
              "name": "Gs",
              "type": "tuple[]"
            },
            {
              "components": [
                {
                  "internalType": "uint256",
                  "name": "X",
                  "type": "uint256"
                },
                {
                  "internalType": "uint256",
                  "name": "Y",
                  "type": "uint256"
                }
              ],
              "internalType": "struct alt_bn128.G1Point",
              "name": "u",
              "type": "tuple"
            },
            {
              "components": [
                {
                  "internalType": "uint256",
                  "name": "X",
                  "type": "uint256"
                },
                {
                  "internalType": "uint256",
                  "name": "Y",
                  "type": "uint256"
                }
              ],
              "internalType": "struct alt_bn128.G1Point",
              "name": "P",
              "type": "tuple"
            },
            {
              "internalType": "uint256",
              "name": "c",
              "type": "uint256"
            }
          ],
          "internalType": "struct NISA.Param",
          "name": "param",
          "type": "tuple"
        },
        {
          "internalType": "uint256[]",
          "name": "a",
          "type": "uint256[]"
        }
      ],
      "name": "prove",
      "outputs": [
        {
          "components": [
            {
              "components": [
                {
                  "internalType": "uint256",
                  "name": "X",
                  "type": "uint256"
                },
                {
                  "internalType": "uint256",
                  "name": "Y",
                  "type": "uint256"
                }
              ],
              "internalType": "struct alt_bn128.G1Point[]",
              "name": "Ls",
              "type": "tuple[]"
            },
            {
              "components": [
                {
                  "internalType": "uint256",
                  "name": "X",
                  "type": "uint256"
                },
                {
                  "internalType": "uint256",
                  "name": "Y",
                  "type": "uint256"
                }
              ],
              "internalType": "struct alt_bn128.G1Point[]",
              "name": "Rs",
              "type": "tuple[]"
            },
            {
              "internalType": "uint256",
              "name": "a",
              "type": "uint256"
            },
            {
              "internalType": "uint256",
              "name": "b",
              "type": "uint256"
            }
          ],
          "internalType": "struct NISA.Sig",
          "name": "p",
          "type": "tuple"
        }
      ],
      "stateMutability": "view",
      "type": "function"
    },
    {
      "inputs": [
        {
          "components": [
            {
              "components": [
                {
                  "internalType": "uint256",
                  "name": "X",
                  "type": "uint256"
                },
                {
                  "internalType": "uint256",
                  "name": "Y",
                  "type": "uint256"
                }
              ],
              "internalType": "struct alt_bn128.G1Point[]",
              "name": "Gs",
              "type": "tuple[]"
            },
            {
              "components": [
                {
                  "internalType": "uint256",
                  "name": "X",
                  "type": "uint256"
                },
                {
                  "internalType": "uint256",
                  "name": "Y",
                  "type": "uint256"
                }
              ],
              "internalType": "struct alt_bn128.G1Point",
              "name": "u",
              "type": "tuple"
            },
            {
              "components": [
                {
                  "internalType": "uint256",
                  "name": "X",
                  "type": "uint256"
                },
                {
                  "internalType": "uint256",
                  "name": "Y",
                  "type": "uint256"
                }
              ],
              "internalType": "struct alt_bn128.G1Point",
              "name": "P",
              "type": "tuple"
            },
            {
              "internalType": "uint256",
              "name": "c",
              "type": "uint256"
            }
          ],
          "internalType": "struct NISA.Param",
          "name": "param",
          "type": "tuple"
        },
        {
          "components": [
            {
              "components": [
                {
                  "internalType": "uint256",
                  "name": "X",
                  "type": "uint256"
                },
                {
                  "internalType": "uint256",
                  "name": "Y",
                  "type": "uint256"
                }
              ],
              "internalType": "struct alt_bn128.G1Point[]",
              "name": "Ls",
              "type": "tuple[]"
            },
            {
              "components": [
                {
                  "internalType": "uint256",
                  "name": "X",
                  "type": "uint256"
                },
                {
                  "internalType": "uint256",
                  "name": "Y",
                  "type": "uint256"
                }
              ],
              "internalType": "struct alt_bn128.G1Point[]",
              "name": "Rs",
              "type": "tuple[]"
            },
            {
              "internalType": "uint256",
              "name": "a",
              "type": "uint256"
            },
            {
              "internalType": "uint256",
              "name": "b",
              "type": "uint256"
            }
          ],
          "internalType": "struct NISA.Sig",
          "name": "p",
          "type": "tuple"
        }
      ],
      "name": "verify",
      "outputs": [
        {
          "internalType": "bool",
          "name": "",
          "type": "bool"
        }
      ],
      "stateMutability": "view",
      "type": "function"
    }
  ],
  "bytecode": "0x608060405234801561001057600080fd5b506126d9806100206000396000f3fe608060405234801561001057600080fd5b50600436106100415760003560e01c806324f35549146100465780632ba3ecec146100765780634293b77c146100a6575b600080fd5b610060600480360381019061005b9190611c60565b6100d6565b60405161006d9190611df9565b60405180910390f35b610090600480360381019061008b9190611fcc565b610319565b60405161009d91906120ae565b60405180910390f35b6100c060048036038101906100bb9190612180565b6108cb565b6040516100cd9190612213565b60405180910390f35b6100de6119bf565b6000600183516100ee919061225d565b83511614610131576040517f08c379a000000000000000000000000000000000000000000000000000000000815260040161012890612314565b60405180910390fd5b815167ffffffffffffffff81111561014c5761014b611ae7565b5b60405190808252806020026020018201604052801561018557816020015b6101726119f3565b81526020019060019003908161016a5790505b50816000018190525060005b82518110156101e4576101af6002826101aa9190612334565b610f4e565b826000015182815181106101c6576101c5612368565b5b602002602001018190525080806101dc90612397565b915050610191565b506101ef6001610f4e565b81602001819052508160008151811061020b5761020a612368565b5b6020026020010151816060018181525050610260816000015160008151811061023757610236612368565b5b60200260200101518360008151811061025357610252612368565b5b602002602001015161110c565b81604001819052506000600190505b8251811015610313576102a0826060015184838151811061029357610292612368565b5b60200260200101516111c4565b8260600181815250506102f882604001516102f3846000015184815181106102cb576102ca612368565b5b60200260200101518685815181106102e6576102e5612368565b5b602002602001015161110c565b611200565b8260400181905250808061030b90612397565b91505061026f565b50919050565b610321611a0d565b600060018351610331919061225d565b83511614610374576040517f08c379a000000000000000000000000000000000000000000000000000000000815260040161036b90612314565b60405180910390fd5b600061038083516112b4565b90508067ffffffffffffffff81111561039c5761039b611ae7565b5b6040519080825280602002602001820160405280156103d557816020015b6103c26119f3565b8152602001906001900390816103ba5790505b5082600001819052508067ffffffffffffffff8111156103f8576103f7611ae7565b5b60405190808252806020026020018201604052801561043157816020015b61041e6119f3565b8152602001906001900390816104165790505b508260200181905250600073__alt_bn128_____________________________632f2d020d86604001516040518263ffffffff1660e01b8152600401610477919061241d565b600060405180830381865af4158015610494573d6000803e3d6000fd5b505050506040513d6000823e3d601f19601f820116820180604052508101906104bd9190612508565b73__alt_bn128_____________________________632f2d020d87602001516040518263ffffffff1660e01b81526004016104f8919061241d565b600060405180830381865af4158015610515573d6000803e3d6000fd5b505050506040513d6000823e3d601f19601f8201168201806040525081019061053e9190612508565b8660600151604051602001610555939291906125b9565b6040516020818303038152906040528051906020012060001c9050600061058086602001518361110c565b90506000855167ffffffffffffffff81111561059f5761059e611ae7565b5b6040519080825280602002602001820160405280156105cd5781602001602082028036833780820191505090505b5090506000865167ffffffffffffffff8111156105ed576105ec611ae7565b5b60405190808252806020026020018201604052801561062657816020015b6106136119f3565b81526020019060019003908161060b5790505b50905060005b82518110156106a657600183828151811061064a57610649612368565b5b6020026020010181815250508860000151818151811061066d5761066c612368565b5b602002602001015182828151811061068857610687612368565b5b6020026020010181905250808061069e90612397565b91505061062c565b506106af6119f3565b6106b76119f3565b600080600090505b88811015610872576106d3858c888a6112e0565b8094508195505050838a6000015182815181106106f3576106f2612368565b5b6020026020010181905250828a60200151828151811061071657610715612368565b5b602002602001018190525073__alt_bn128_____________________________632f2d020d856040518263ffffffff1660e01b8152600401610758919061241d565b600060405180830381865af4158015610775573d6000803e3d6000fd5b505050506040513d6000823e3d601f19601f8201168201806040525081019061079e9190612508565b73__alt_bn128_____________________________632f2d020d856040518263ffffffff1660e01b81526004016107d5919061241d565b600060405180830381865af41580156107f2573d6000803e3d6000fd5b505050506040513d6000823e3d601f19601f8201168201806040525081019061081b9190612508565b60405160200161082c9291906125ee565b6040516020818303038152906040528051906020012060001c9150610853858c888561153e565b809850819d50829750505050808061086a90612397565b9150506106bf565b508960008151811061088757610886612368565b5b6020026020010151896040018181525050846000815181106108ac576108ab612368565b5b6020026020010151896060018181525050505050505050505092915050565b6000806108dc8460000151516112b4565b905060008167ffffffffffffffff8111156108fa576108f9611ae7565b5b6040519080825280602002602001820160405280156109285781602001602082028036833780820191505090505b50905060008267ffffffffffffffff81111561094757610946611ae7565b5b6040519080825280602002602001820160405280156109755781602001602082028036833780820191505090505b50905060008073__alt_bn128_____________________________632f2d020d89604001516040518263ffffffff1660e01b81526004016109b6919061241d565b600060405180830381865af41580156109d3573d6000803e3d6000fd5b505050506040513d6000823e3d601f19601f820116820180604052508101906109fc9190612508565b73__alt_bn128_____________________________632f2d020d8a602001516040518263ffffffff1660e01b8152600401610a37919061241d565b600060405180830381865af4158015610a54573d6000803e3d6000fd5b505050506040513d6000823e3d601f19601f82011682018060405250810190610a7d9190612508565b8960600151604051602001610a94939291906125b9565b6040516020818303038152906040528051906020012060001c90506000610ad98960400151610ad48b60200151610acf8d60600151876117e6565b61110c565b611200565b90506001925060005b86811015610dc45773__alt_bn128_____________________________632f2d020d8a600001518381518110610b1b57610b1a612368565b5b60200260200101516040518263ffffffff1660e01b8152600401610b3f919061241d565b600060405180830381865af4158015610b5c573d6000803e3d6000fd5b505050506040513d6000823e3d601f19601f82011682018060405250810190610b859190612508565b73__alt_bn128_____________________________632f2d020d8b602001518481518110610bb657610bb5612368565b5b60200260200101516040518263ffffffff1660e01b8152600401610bda919061241d565b600060405180830381865af4158015610bf7573d6000803e3d6000fd5b505050506040513d6000823e3d601f19601f82011682018060405250810190610c209190612508565b604051602001610c319291906125ee565b6040516020818303038152906040528051906020012060001c868281518110610c5d57610c5c612368565b5b602002602001018181525050610c8c868281518110610c7f57610c7e612368565b5b6020026020010151611822565b858281518110610c9f57610c9e612368565b5b602002602001018181525050610d1982610d148b600001518481518110610cc957610cc8612368565b5b6020026020010151610d0f8a8681518110610ce757610ce6612368565b5b60200260200101518b8781518110610d0257610d01612368565b5b60200260200101516117e6565b61110c565b611200565b9150610d8982610d848b602001518481518110610d3957610d38612368565b5b6020026020010151610d7f898681518110610d5757610d56612368565b5b60200260200101518a8781518110610d7257610d71612368565b5b60200260200101516117e6565b61110c565b611200565b9150610daf84868381518110610da257610da1612368565b5b60200260200101516117e6565b93508080610dbc90612397565b915050610ae2565b506000610df08a60000151600081518110610de257610de1612368565b5b60200260200101518561110c565b90506000600190505b8a6000015151811015610efe576001945060005b88811015610eb757610e1f8282611882565b15610e6657610e5f86896001848d610e37919061225d565b610e41919061225d565b81518110610e5257610e51612368565b5b60200260200101516117e6565b9550610ea4565b610ea186886001848d610e79919061225d565b610e83919061225d565b81518110610e9457610e93612368565b5b60200260200101516117e6565b95505b8080610eaf90612397565b915050610e0d565b50610ee982610ee48d600001518481518110610ed657610ed5612368565b5b60200260200101518861110c565b611200565b91508080610ef690612397565b915050610df9565b50610f2381610f1e610f148d602001518761110c565b8c6060015161110c565b611200565b9050610f33818a6040015161110c565b9050610f3f8282611895565b97505050505050505092915050565b610f566119f3565b60007f30644e72e131a029b85045b68181585d97816a916871ca8d3c208c16d87cfd4783610f849190612641565b90506000600182610f95919061225d565b91506000805b816110ec57600184610fad9190612334565b93507f30644e72e131a029b85045b68181585d97816a916871ca8d3c208c16d87cfd4780610fde57610fdd612612565b5b84850990507f30644e72e131a029b85045b68181585d97816a916871ca8d3c208c16d87cfd478061101257611011612612565b5b84820990507f30644e72e131a029b85045b68181585d97816a916871ca8d3c208c16d87cfd478061104657611045612612565b5b6003820890506110af81600460017f30644e72e131a029b85045b68181585d97816a916871ca8d3c208c16d87cfd4761107f9190612334565b6110899190612672565b7f30644e72e131a029b85045b68181585d97816a916871ca8d3c208c16d87cfd476118bd565b9250807f30644e72e131a029b85045b68181585d97816a916871ca8d3c208c16d87cfd47806110e1576110e0612612565b5b848509149150610f9b565b604051806040016040528085815260200184815250945050505050919050565b6111146119f3565b60018203611124578290506111be565b6002820361113d576111368384611200565b90506111be565b611145611a35565b83600001518160006003811061115e5761115d612368565b5b6020020181815250508360200151816001600381106111805761117f612368565b5b602002018181525050828160026003811061119e5761119d612368565b5b6020020181815250506040826060836007600019fa6111bc57600080fd5b505b92915050565b60007f30644e72e131a029b85045b68181585d2833e84879b9709143e1f593f0000001806111f5576111f4612612565b5b828408905092915050565b6112086119f3565b611210611a57565b83600001518160006004811061122957611228612368565b5b60200201818152505083602001518160016004811061124b5761124a612368565b5b60200201818152505082600001518160026004811061126d5761126c612368565b5b60200201818152505082602001518160036004811061128f5761128e612368565b5b6020020181815250506040826080836006600019fa6112ad57600080fd5b5092915050565b60005b60018211156112db576001816112cd9190612334565b9050600182901c91506112b7565b919050565b6112e86119f3565b6112f06119f3565b6000600286516113009190612672565b905060006113438760008151811061131b5761131a612368565b5b602002602001015187848151811061133657611335612368565b5b60200260200101516117e6565b9050600061138688848151811061135d5761135c612368565b5b60200260200101518860008151811061137957611378612368565b5b60200260200101516117e6565b90506000600190505b83811015611452576113e9836113e48b84815181106113b1576113b0612368565b5b60200260200101518b85896113c69190612334565b815181106113d7576113d6612368565b5b60200260200101516117e6565b6111c4565b925061143d826114388b84886113ff9190612334565b815181106114105761140f612368565b5b60200260200101518b858151811061142b5761142a612368565b5b60200260200101516117e6565b6111c4565b9150808061144a90612397565b91505061138f565b5061145d868361110c565b9450611469868261110c565b935060005b83811015611531576114c8866114c38c848861148a9190612334565b8151811061149b5761149a612368565b5b60200260200101518c85815181106114b6576114b5612368565b5b602002602001015161110c565b611200565b955061151c856115178c84815181106114e4576114e3612368565b5b60200260200101518c85896114f99190612334565b8151811061150a57611509612368565b5b602002602001015161110c565b611200565b9450808061152990612397565b91505061146e565b5050505094509492505050565b60608060606000600287516115539190612672565b9050600061156086611822565b90508167ffffffffffffffff81111561157c5761157b611ae7565b5b6040519080825280602002602001820160405280156115b557816020015b6115a26119f3565b81526020019060019003908161159a5790505b5094508167ffffffffffffffff8111156115d2576115d1611ae7565b5b6040519080825280602002602001820160405280156116005781602001602082028036833780820191505090505b5093508167ffffffffffffffff81111561161d5761161c611ae7565b5b60405190808252806020026020018201604052801561164b5781602001602082028036833780820191505090505b50925060005b828110156117d9576116b46116808b838151811061167257611671612368565b5b60200260200101518461110c565b6116af8c84876116909190612334565b815181106116a1576116a0612368565b5b60200260200101518a61110c565b611200565b8682815181106116c7576116c6612368565b5b602002602001018190525061172d6116f9888b84815181106116ec576116eb612368565b5b60200260200101516117e6565b611728848c858861170a9190612334565b8151811061171b5761171a612368565b5b60200260200101516117e6565b6111c4565b8582815181106117405761173f612368565b5b6020026020010181815250506117a7611773838a848151811061176657611765612368565b5b60200260200101516117e6565b6117a2898b85886117849190612334565b8151811061179557611794612368565b5b60200260200101516117e6565b6111c4565b8482815181106117ba576117b9612368565b5b60200260200101818152505080806117d190612397565b915050611651565b5050509450945094915050565b60007f30644e72e131a029b85045b68181585d2833e84879b9709143e1f593f00000018061181757611816612612565b5b828409905092915050565b600061187b8260027f30644e72e131a029b85045b68181585d2833e84879b9709143e1f593f0000001611855919061225d565b7f30644e72e131a029b85045b68181585d2833e84879b9709143e1f593f00000016118bd565b9050919050565b60006001808385901c1614905092915050565b6000816000015183600001511480156118b5575081602001518360200151145b905092915050565b60006118c7611a79565b6118cf611a9b565b6020826000600681106118e5576118e4612368565b5b60200201818152505060208260016006811061190457611903612368565b5b60200201818152505060208260026006811061192357611922612368565b5b602002018181525050858260036006811061194157611940612368565b5b602002018181525050848260046006811061195f5761195e612368565b5b602002018181525050838260056006811061197d5761197c612368565b5b60200201818152505060208160c0846005600019fa61199b57600080fd5b806000600181106119af576119ae612368565b5b6020020151925050509392505050565b6040518060800160405280606081526020016119d96119f3565b81526020016119e66119f3565b8152602001600081525090565b604051806040016040528060008152602001600081525090565b6040518060800160405280606081526020016060815260200160008152602001600081525090565b6040518060600160405280600390602082028036833780820191505090505090565b6040518060800160405280600490602082028036833780820191505090505090565b6040518060c00160405280600690602082028036833780820191505090505090565b6040518060200160405280600190602082028036833780820191505090505090565b6000604051905090565b600080fd5b600080fd5b600080fd5b6000601f19601f8301169050919050565b7f4e487b7100000000000000000000000000000000000000000000000000000000600052604160045260246000fd5b611b1f82611ad6565b810181811067ffffffffffffffff82111715611b3e57611b3d611ae7565b5b80604052505050565b6000611b51611abd565b9050611b5d8282611b16565b919050565b600067ffffffffffffffff821115611b7d57611b7c611ae7565b5b602082029050602081019050919050565b600080fd5b6000819050919050565b611ba681611b93565b8114611bb157600080fd5b50565b600081359050611bc381611b9d565b92915050565b6000611bdc611bd784611b62565b611b47565b90508083825260208201905060208402830185811115611bff57611bfe611b8e565b5b835b81811015611c285780611c148882611bb4565b845260208401935050602081019050611c01565b5050509392505050565b600082601f830112611c4757611c46611ad1565b5b8135611c57848260208601611bc9565b91505092915050565b600060208284031215611c7657611c75611ac7565b5b600082013567ffffffffffffffff811115611c9457611c93611acc565b5b611ca084828501611c32565b91505092915050565b600081519050919050565b600082825260208201905092915050565b6000819050602082019050919050565b611cde81611b93565b82525050565b604082016000820151611cfa6000850182611cd5565b506020820151611d0d6020850182611cd5565b50505050565b6000611d1f8383611ce4565b60408301905092915050565b6000602082019050919050565b6000611d4382611ca9565b611d4d8185611cb4565b9350611d5883611cc5565b8060005b83811015611d89578151611d708882611d13565b9750611d7b83611d2b565b925050600181019050611d5c565b5085935050505092915050565b600060c0830160008301518482036000860152611db38282611d38565b9150506020830151611dc86020860182611ce4565b506040830151611ddb6060860182611ce4565b506060830151611dee60a0860182611cd5565b508091505092915050565b60006020820190508181036000830152611e138184611d96565b905092915050565b600080fd5b600080fd5b600067ffffffffffffffff821115611e4057611e3f611ae7565b5b602082029050602081019050919050565b600060408284031215611e6757611e66611e1b565b5b611e716040611b47565b90506000611e8184828501611bb4565b6000830152506020611e9584828501611bb4565b60208301525092915050565b6000611eb4611eaf84611e25565b611b47565b90508083825260208201905060408402830185811115611ed757611ed6611b8e565b5b835b81811015611f005780611eec8882611e51565b845260208401935050604081019050611ed9565b5050509392505050565b600082601f830112611f1f57611f1e611ad1565b5b8135611f2f848260208601611ea1565b91505092915050565b600060c08284031215611f4e57611f4d611e1b565b5b611f586080611b47565b9050600082013567ffffffffffffffff811115611f7857611f77611e20565b5b611f8484828501611f0a565b6000830152506020611f9884828501611e51565b6020830152506060611fac84828501611e51565b60408301525060a0611fc084828501611bb4565b60608301525092915050565b60008060408385031215611fe357611fe2611ac7565b5b600083013567ffffffffffffffff81111561200157612000611acc565b5b61200d85828601611f38565b925050602083013567ffffffffffffffff81111561202e5761202d611acc565b5b61203a85828601611c32565b9150509250929050565b600060808301600083015184820360008601526120618282611d38565b9150506020830151848203602086015261207b8282611d38565b91505060408301516120906040860182611cd5565b5060608301516120a36060860182611cd5565b508091505092915050565b600060208201905081810360008301526120c88184612044565b905092915050565b6000608082840312156120e6576120e5611e1b565b5b6120f06080611b47565b9050600082013567ffffffffffffffff8111156121105761210f611e20565b5b61211c84828501611f0a565b600083015250602082013567ffffffffffffffff8111156121405761213f611e20565b5b61214c84828501611f0a565b602083015250604061216084828501611bb4565b604083015250606061217484828501611bb4565b60608301525092915050565b6000806040838503121561219757612196611ac7565b5b600083013567ffffffffffffffff8111156121b5576121b4611acc565b5b6121c185828601611f38565b925050602083013567ffffffffffffffff8111156121e2576121e1611acc565b5b6121ee858286016120d0565b9150509250929050565b60008115159050919050565b61220d816121f8565b82525050565b60006020820190506122286000830184612204565b92915050565b7f4e487b7100000000000000000000000000000000000000000000000000000000600052601160045260246000fd5b600061226882611b93565b915061227383611b93565b925082820390508181111561228b5761228a61222e565b5b92915050565b600082825260208201905092915050565b7f766563746f72206c656e6774682073686f756c64206265206120706f7765722060008201527f6f66203200000000000000000000000000000000000000000000000000000000602082015250565b60006122fe602483612291565b9150612309826122a2565b604082019050919050565b6000602082019050818103600083015261232d816122f1565b9050919050565b600061233f82611b93565b915061234a83611b93565b92508282019050808211156123625761236161222e565b5b92915050565b7f4e487b7100000000000000000000000000000000000000000000000000000000600052603260045260246000fd5b60006123a282611b93565b91507fffffffffffffffffffffffffffffffffffffffffffffffffffffffffffffffff82036123d4576123d361222e565b5b600182019050919050565b6123e881611b93565b82525050565b60408201600082015161240460008501826123df565b50602082015161241760208501826123df565b50505050565b600060408201905061243260008301846123ee565b92915050565b600080fd5b600067ffffffffffffffff82111561245857612457611ae7565b5b61246182611ad6565b9050602081019050919050565b60005b8381101561248c578082015181840152602081019050612471565b60008484015250505050565b60006124ab6124a68461243d565b611b47565b9050828152602081018484840111156124c7576124c6612438565b5b6124d284828561246e565b509392505050565b600082601f8301126124ef576124ee611ad1565b5b81516124ff848260208601612498565b91505092915050565b60006020828403121561251e5761251d611ac7565b5b600082015167ffffffffffffffff81111561253c5761253b611acc565b5b612548848285016124da565b91505092915050565b600081519050919050565b600081905092915050565b600061257282612551565b61257c818561255c565b935061258c81856020860161246e565b80840191505092915050565b6000819050919050565b6125b36125ae82611b93565b612598565b82525050565b60006125c58286612567565b91506125d18285612567565b91506125dd82846125a2565b602082019150819050949350505050565b60006125fa8285612567565b91506126068284612567565b91508190509392505050565b7f4e487b7100000000000000000000000000000000000000000000000000000000600052601260045260246000fd5b600061264c82611b93565b915061265783611b93565b92508261266757612666612612565b5b828206905092915050565b600061267d82611b93565b915061268883611b93565b92508261269857612697612612565b5b82820490509291505056fea264697066735822122027bf4ad910f5953b8561850f511bed16c5115d36992294ea7d0d908f6281efc864736f6c63430008130033",
  "immutableReferences": {},
  "source": "// SPDX-License-Identifier: GPL-3.0\npragma solidity >=0.4.0 <0.9.0;\n\nimport \"../lib/alt_bn128.sol\";\n\n// proof using iteration\ncontract NISA {\n    using alt_bn128 for uint256;\n    using alt_bn128 for alt_bn128.G1Point;\n\n\t/// @param Gs public keys\n    /// @param u random generator\n\t/// @param P prod_i (g_i ^ a_i)\n\t/// @param c sum_i a_i\n    struct Param {\n        alt_bn128.G1Point[] Gs;\n        alt_bn128.G1Point u;\n        alt_bn128.G1Point P;\n        uint256 c;\n    }\n\n    struct Sig {\n        alt_bn128.G1Point[] Ls;\n        alt_bn128.G1Point[] Rs;\n        uint256 a;\n        uint256 b;\n    }\n\n    /**\n     * @dev test correctness of NISA protocol\n     */\n    function test(uint256[] memory a) private view returns (bool) {\n        Param memory param = setup(a);\n        Sig memory p = prove(param, a);\n        return verify(param, p);\n    }\n\n    /** \n     * @dev setup public parameters\n\t */\n    function setup(uint256[] memory a) public view returns (Param memory param) {\n        require(\n            a.length & (a.length - 1) == 0,\n            \"vector length should be a power of 2\"\n        );\n        param.Gs = new alt_bn128.G1Point[](a.length);\n        for (uint256 i = 0; i < a.length; i++) {\n            param.Gs[i] = alt_bn128.uintToCurvePoint(i + 2);\n        }\n        param.u = alt_bn128.uintToCurvePoint(1);\n        param.c = a[0];\n        param.P = alt_bn128.mul(param.Gs[0], a[0]);\n        for (uint i = 1; i < a.length; i++) {\n            param.c = alt_bn128.add(param.c, a[i]);\n            param.P = alt_bn128.add(param.P, alt_bn128.mul(param.Gs[i], a[i]));\n        }\n    }\n\n    function prove(Param memory param, uint256[] memory a) public view returns (Sig memory p) {\n        require(\n            a.length & (a.length - 1) == 0,\n            \"vector length should be a power of 2\"\n        );\n\n        uint length = log2(a.length);\n        p.Ls = new alt_bn128.G1Point[](length);\n        p.Rs = new alt_bn128.G1Point[](length);\n\n        uint256 H_z = uint256(\n            keccak256(\n                abi.encodePacked(\n                    alt_bn128.pack(param.P),\n                    alt_bn128.pack(param.u),\n                    param.c\n                )\n            )\n        );\n\n        alt_bn128.G1Point memory u_prime = alt_bn128.mul(param.u, H_z);\n\n        uint256[] memory b = new uint256[](a.length);\n        alt_bn128.G1Point[] memory Gs = new alt_bn128.G1Point[](a.length);\n        for (uint i = 0; i < b.length; i++) {\n            b[i] = 1;\n            Gs[i] = param.Gs[i];\n        }\n        alt_bn128.G1Point memory L;\n        alt_bn128.G1Point memory R;\n        uint256 x;\n\n        // O(logn) loop\n        for (uint idx = 0; idx < length; idx++) {\n            // L && R\n            (L, R) = LR(Gs, a, b, u_prime);\n            p.Ls[idx] = L;\n            p.Rs[idx] = R;\n\n            x = uint256(\n                keccak256(\n                    abi.encodePacked(\n                        alt_bn128.pack(L),\n                        alt_bn128.pack(R)\n                    )\n                )\n            );\n\n            // half size\n            (Gs, a, b) = halve(Gs, a, b, x);\n        }\n        p.a = a[0];\n        p.b = b[0];\n    }\n\n    function LR(\n        alt_bn128.G1Point[] memory Gs,\n        uint256[] memory a,\n        uint256[] memory b,\n        alt_bn128.G1Point memory u_prime\n    ) private view returns (\n            alt_bn128.G1Point memory L, \n            alt_bn128.G1Point memory R\n        )\n    {\n        uint n = a.length / 2;\n        uint256 cL = alt_bn128.mul(a[0], b[n]);\n        uint256 cR = alt_bn128.mul(a[n], b[0]);\n        for (uint i = 1; i < n; i++) {\n            cL = alt_bn128.add(cL, alt_bn128.mul(a[i], b[n + i]));\n            cR = alt_bn128.add(cR, alt_bn128.mul(a[n + i], b[i]));\n        }\n\n        L = alt_bn128.mul(u_prime, cL);\n        R = alt_bn128.mul(u_prime, cR);\n\n        for (uint i = 0; i < n; i++) {\n            L = alt_bn128.add(L, alt_bn128.mul(Gs[n + i], a[i]));\n            R = alt_bn128.add(R, alt_bn128.mul(Gs[i], a[n + i]));\n        }\n    }\n\n    function halve(\n        alt_bn128.G1Point[] memory Gs,\n        uint256[] memory a,\n        uint256[] memory b,\n        uint256 x\n    ) private view returns (\n        alt_bn128.G1Point[] memory Gs_new,\n        uint256[] memory a_new,\n        uint256[] memory b_new\n    ){\n        uint n = a.length / 2;\n\n        uint256 x_inv = alt_bn128.inv(x);\n\n        Gs_new = new alt_bn128.G1Point[](n);\n        a_new = new uint256[](n);\n        b_new = new uint256[](n);\n\n        for (uint i = 0; i < n; i++) {\n            Gs_new[i] = alt_bn128.add(\n                alt_bn128.mul(Gs[i], x_inv),\n                alt_bn128.mul(Gs[n + i], x)\n            );\n            a_new[i] = alt_bn128.add(\n                alt_bn128.mul(x, a[i]),\n                alt_bn128.mul(x_inv, a[n + i])\n            );\n            b_new[i] = alt_bn128.add(\n                alt_bn128.mul(x_inv, b[i]),\n                alt_bn128.mul(x, b[n + i])\n            );\n        }\n    }\n\n    function verify(Param memory param, Sig memory p) public view returns (bool) {\n        uint length = log2(param.Gs.length);\n\n        uint256[] memory xs = new uint256[](length);\n        uint256[] memory xs_inv = new uint256[](length);\n        uint256 y;\n        // verify\n        uint256 H_z = uint256(\n            keccak256(\n                abi.encodePacked(\n                    alt_bn128.pack(param.P),\n                    alt_bn128.pack(param.u),\n                    param.c\n                )\n            )\n        );\n        alt_bn128.G1Point memory left_point = alt_bn128.add(\n            param.P,\n            alt_bn128.mul(param.u, alt_bn128.mul(param.c, H_z))\n        );\n\n        y = 1;\n        for (uint i = 0; i < length; i++) {\n            xs[i] = uint256(\n                keccak256(\n                    abi.encodePacked(\n                        alt_bn128.pack(p.Ls[i]),\n                        alt_bn128.pack(p.Rs[i])\n                    )\n                )\n            );\n            xs_inv[i] = alt_bn128.inv(xs[i]);\n\n            left_point = alt_bn128.add(\n                left_point,\n                alt_bn128.mul(p.Ls[i], alt_bn128.mul(xs[i], xs[i]))\n            );\n            left_point = alt_bn128.add(\n                left_point,\n                alt_bn128.mul(p.Rs[i], alt_bn128.mul(xs_inv[i], xs_inv[i]))\n            );\n            y = alt_bn128.mul(y, xs_inv[i]);\n        }\n        alt_bn128.G1Point memory right_point = alt_bn128.mul(param.Gs[0], y);\n\n        // uint k;\n        for (uint i = 1; i < param.Gs.length; i++) {\n            y = 1;\n            // k = length;\n            for (uint j = 0; j < length; j++) {\n                // k--;\n                if (check_bit(i, j)) {\n                    y = alt_bn128.mul(y, xs[length - j - 1]);\n                } else {\n                    y = alt_bn128.mul(y, xs_inv[length - j - 1]);\n                }\n            }\n            right_point = alt_bn128.add(\n                right_point,\n                alt_bn128.mul(param.Gs[i], y)\n            );\n        }\n        right_point = alt_bn128.add(\n            right_point,\n            alt_bn128.mul(alt_bn128.mul(param.u, H_z), p.b)\n        );\n        right_point = alt_bn128.mul(right_point, p.a);\n\n        return alt_bn128.eq(left_point, right_point);\n    }\n\n    function log2(uint x) private pure returns (uint n) {\n        for (n = 0; x > 1; x >>= 1) n += 1;\n    }\n\n    function check_bit(uint i, uint j) private pure returns (bool) {\n        return ((i >> j) & 1) == 1;\n    }\n}\n",
  "sourcePath": "/Users/qian/Desktop/Y4/COMP4550/project/XCSwap/contracts/ZKP/NISA.sol",
  "compiler": {
    "name": "solc",
    "version": "0.8.19+commit.7dd6d404.Emscripten.clang"
  },
  "schemaVersion": "3.4.13",
  "updatedAt": "2023-07-13T08:51:17.567Z",
  "devdoc": {
    "kind": "dev",
    "methods": {
      "setup(uint256[])": {
        "details": "setup public parameters"
      }
    },
    "version": 1
  },
  "userdoc": {
    "kind": "user",
    "methods": {},
    "version": 1
  }
}