{
  "contractName": "NISA",
  "abi": [
    {
      "inputs": [
        {
          "internalType": "uint256[]",
          "name": "a",
          "type": "uint256[]"
        }
      ],
      "name": "setup",
      "outputs": [
        {
          "components": [
            {
              "components": [
                {
                  "internalType": "uint256",
                  "name": "X",
                  "type": "uint256"
                },
                {
                  "internalType": "uint256",
                  "name": "Y",
                  "type": "uint256"
                }
              ],
              "internalType": "struct alt_bn128.G1Point[]",
              "name": "Gs",
              "type": "tuple[]"
            },
            {
              "components": [
                {
                  "internalType": "uint256",
                  "name": "X",
                  "type": "uint256"
                },
                {
                  "internalType": "uint256",
                  "name": "Y",
                  "type": "uint256"
                }
              ],
              "internalType": "struct alt_bn128.G1Point",
              "name": "u",
              "type": "tuple"
            },
            {
              "components": [
                {
                  "internalType": "uint256",
                  "name": "X",
                  "type": "uint256"
                },
                {
                  "internalType": "uint256",
                  "name": "Y",
                  "type": "uint256"
                }
              ],
              "internalType": "struct alt_bn128.G1Point",
              "name": "P",
              "type": "tuple"
            },
            {
              "internalType": "uint256",
              "name": "c",
              "type": "uint256"
            }
          ],
          "internalType": "struct NISA.Param",
          "name": "param",
          "type": "tuple"
        }
      ],
      "stateMutability": "view",
      "type": "function"
    },
    {
      "inputs": [
        {
          "components": [
            {
              "components": [
                {
                  "internalType": "uint256",
                  "name": "X",
                  "type": "uint256"
                },
                {
                  "internalType": "uint256",
                  "name": "Y",
                  "type": "uint256"
                }
              ],
              "internalType": "struct alt_bn128.G1Point[]",
              "name": "Gs",
              "type": "tuple[]"
            },
            {
              "components": [
                {
                  "internalType": "uint256",
                  "name": "X",
                  "type": "uint256"
                },
                {
                  "internalType": "uint256",
                  "name": "Y",
                  "type": "uint256"
                }
              ],
              "internalType": "struct alt_bn128.G1Point",
              "name": "u",
              "type": "tuple"
            },
            {
              "components": [
                {
                  "internalType": "uint256",
                  "name": "X",
                  "type": "uint256"
                },
                {
                  "internalType": "uint256",
                  "name": "Y",
                  "type": "uint256"
                }
              ],
              "internalType": "struct alt_bn128.G1Point",
              "name": "P",
              "type": "tuple"
            },
            {
              "internalType": "uint256",
              "name": "c",
              "type": "uint256"
            }
          ],
          "internalType": "struct NISA.Param",
          "name": "param",
          "type": "tuple"
        },
        {
          "internalType": "uint256[]",
          "name": "a",
          "type": "uint256[]"
        }
      ],
      "name": "prove",
      "outputs": [
        {
          "components": [
            {
              "components": [
                {
                  "internalType": "uint256",
                  "name": "X",
                  "type": "uint256"
                },
                {
                  "internalType": "uint256",
                  "name": "Y",
                  "type": "uint256"
                }
              ],
              "internalType": "struct alt_bn128.G1Point[]",
              "name": "Ls",
              "type": "tuple[]"
            },
            {
              "components": [
                {
                  "internalType": "uint256",
                  "name": "X",
                  "type": "uint256"
                },
                {
                  "internalType": "uint256",
                  "name": "Y",
                  "type": "uint256"
                }
              ],
              "internalType": "struct alt_bn128.G1Point[]",
              "name": "Rs",
              "type": "tuple[]"
            },
            {
              "internalType": "uint256",
              "name": "a",
              "type": "uint256"
            },
            {
              "internalType": "uint256",
              "name": "b",
              "type": "uint256"
            }
          ],
          "internalType": "struct NISA.Sig",
          "name": "p",
          "type": "tuple"
        }
      ],
      "stateMutability": "view",
      "type": "function"
    },
    {
      "inputs": [
        {
          "components": [
            {
              "components": [
                {
                  "internalType": "uint256",
                  "name": "X",
                  "type": "uint256"
                },
                {
                  "internalType": "uint256",
                  "name": "Y",
                  "type": "uint256"
                }
              ],
              "internalType": "struct alt_bn128.G1Point[]",
              "name": "Gs",
              "type": "tuple[]"
            },
            {
              "components": [
                {
                  "internalType": "uint256",
                  "name": "X",
                  "type": "uint256"
                },
                {
                  "internalType": "uint256",
                  "name": "Y",
                  "type": "uint256"
                }
              ],
              "internalType": "struct alt_bn128.G1Point",
              "name": "u",
              "type": "tuple"
            },
            {
              "components": [
                {
                  "internalType": "uint256",
                  "name": "X",
                  "type": "uint256"
                },
                {
                  "internalType": "uint256",
                  "name": "Y",
                  "type": "uint256"
                }
              ],
              "internalType": "struct alt_bn128.G1Point",
              "name": "P",
              "type": "tuple"
            },
            {
              "internalType": "uint256",
              "name": "c",
              "type": "uint256"
            }
          ],
          "internalType": "struct NISA.Param",
          "name": "param",
          "type": "tuple"
        },
        {
          "components": [
            {
              "components": [
                {
                  "internalType": "uint256",
                  "name": "X",
                  "type": "uint256"
                },
                {
                  "internalType": "uint256",
                  "name": "Y",
                  "type": "uint256"
                }
              ],
              "internalType": "struct alt_bn128.G1Point[]",
              "name": "Ls",
              "type": "tuple[]"
            },
            {
              "components": [
                {
                  "internalType": "uint256",
                  "name": "X",
                  "type": "uint256"
                },
                {
                  "internalType": "uint256",
                  "name": "Y",
                  "type": "uint256"
                }
              ],
              "internalType": "struct alt_bn128.G1Point[]",
              "name": "Rs",
              "type": "tuple[]"
            },
            {
              "internalType": "uint256",
              "name": "a",
              "type": "uint256"
            },
            {
              "internalType": "uint256",
              "name": "b",
              "type": "uint256"
            }
          ],
          "internalType": "struct NISA.Sig",
          "name": "p",
          "type": "tuple"
        }
      ],
      "name": "verify",
      "outputs": [
        {
          "internalType": "bool",
          "name": "",
          "type": "bool"
        }
      ],
      "stateMutability": "view",
      "type": "function"
    }
  ],
  "bytecode": "0x608060405234801561001057600080fd5b50611c9d806100206000396000f3fe608060405234801561001057600080fd5b50600436106100415760003560e01c806324f35549146100465780632ba3ecec1461006f5780634293b77c1461008f575b600080fd5b61005961005436600461167a565b6100b2565b604051610066919061170a565b60405180910390f35b61008261007d366004611889565b6102a8565b60405161006691906118ec565b6100a261009d366004611946565b610827565b6040519015158152602001610066565b6100ba6114b8565b600182516100c89190611a27565b825116156100f15760405162461bcd60e51b81526004016100e890611a3a565b60405180910390fd5b81516001600160401b0381111561010a5761010a61157e565b60405190808252806020026020018201604052801561014357816020015b6101306114ec565b8152602001906001900390816101285790505b50815260005b825181101561019757610165610160826002611a7e565b610e07565b825180518390811061017957610179611a91565b6020026020010181905250808061018f90611aa7565b915050610149565b506101a26001610e07565b6020820152815182906000906101ba576101ba611a91565b602002602001015181606001818152505061020d81600001516000815181106101e5576101e5611a91565b60200260200101518360008151811061020057610200611a91565b6020026020010151610f01565b604082015260015b82518110156102a257610245826060015184838151811061023857610238611a91565b6020026020010151610f69565b606083015260408201518251805161028b9291610286918590811061026c5761026c611a91565b602002602001015186858151811061020057610200611a91565b610f84565b60408301528061029a81611aa7565b915050610215565b50919050565b6102d36040518060800160405280606081526020016060815260200160008152602001600081525090565b600182516102e19190611a27565b825116156103015760405162461bcd60e51b81526004016100e890611a3a565b600061030d8351610fc9565b9050806001600160401b038111156103275761032761157e565b60405190808252806020026020018201604052801561036057816020015b61034d6114ec565b8152602001906001900390816103455790505b508252806001600160401b0381111561037b5761037b61157e565b6040519080825280602002602001820160405280156103b457816020015b6103a16114ec565b8152602001906001900390816103995790505b5060208301526040808501519051632f2d020d60e01b815260009173__alt_bn128_____________________________91632f2d020d916103f791600401611ac0565b600060405180830381865af4158015610414573d6000803e3d6000fd5b505050506040513d6000823e601f3d908101601f1916820160405261043c9190810190611af2565b6020860151604051632f2d020d60e01b815273__alt_bn128_____________________________91632f2d020d916104779190600401611ac0565b600060405180830381865af4158015610494573d6000803e3d6000fd5b505050506040513d6000823e601f3d908101601f191682016040526104bc9190810190611af2565b86606001516040516020016104d393929190611b85565b6040516020818303038152906040528051906020012060001c905060006104fe866020015183610f01565b9050600085516001600160401b0381111561051b5761051b61157e565b604051908082528060200260200182016040528015610544578160200160208202803683370190505b509050600086516001600160401b038111156105625761056261157e565b60405190808252806020026020018201604052801561059b57816020015b6105886114ec565b8152602001906001900390816105805790505b50905060005b82518110156106155760018382815181106105be576105be611a91565b602090810291909101015288518051829081106105dd576105dd611a91565b60200260200101518282815181106105f7576105f7611a91565b6020026020010181905250808061060d90611aa7565b9150506105a1565b5061061e6114ec565b6106266114ec565b6000805b888110156107d05761063e858c888a610ff3565b8b51805192965090945085918390811061065a5761065a611a91565b6020026020010181905250828a60200151828151811061067c5761067c611a91565b6020908102919091010152604051632f2d020d60e01b815273__alt_bn128_____________________________90632f2d020d906106be908790600401611ac0565b600060405180830381865af41580156106db573d6000803e3d6000fd5b505050506040513d6000823e601f3d908101601f191682016040526107039190810190611af2565b604051632f2d020d60e01b815273__alt_bn128_____________________________90632f2d020d9061073a908790600401611ac0565b600060405180830381865af4158015610757573d6000803e3d6000fd5b505050506040513d6000823e601f3d908101601f1916820160405261077f9190810190611af2565b604051602001610790929190611bba565b6040516020818303038152906040528051906020012060001c91506107b7858c88856111ce565b909c5096509450806107c881611aa7565b91505061062a565b50896000815181106107e4576107e4611a91565b60200260200101518960400181815250508460008151811061080857610808611a91565b6020026020010151896060018181525050505050505050505092915050565b600080610838846000015151610fc9565b90506000816001600160401b038111156108545761085461157e565b60405190808252806020026020018201604052801561087d578160200160208202803683370190505b5090506000826001600160401b0381111561089a5761089a61157e565b6040519080825280602002602001820160405280156108c3578160200160208202803683370190505b50905060008073__alt_bn128_____________________________632f2d020d89604001516040518263ffffffff1660e01b81526004016109049190611ac0565b600060405180830381865af4158015610921573d6000803e3d6000fd5b505050506040513d6000823e601f3d908101601f191682016040526109499190810190611af2565b6020890151604051632f2d020d60e01b815273__alt_bn128_____________________________91632f2d020d916109849190600401611ac0565b600060405180830381865af41580156109a1573d6000803e3d6000fd5b505050506040513d6000823e601f3d908101601f191682016040526109c99190810190611af2565b89606001516040516020016109e093929190611b85565b6040516020818303038152906040528051906020012060001c90506000610a2089604001516102868b60200151610a1b8d60600151876113f2565b610f01565b90506001925060005b86811015610cce5773__alt_bn128_____________________________632f2d020d8a600001518381518110610a6157610a61611a91565b60200260200101516040518263ffffffff1660e01b8152600401610a859190611ac0565b600060405180830381865af4158015610aa2573d6000803e3d6000fd5b505050506040513d6000823e601f3d908101601f19168201604052610aca9190810190611af2565b73__alt_bn128_____________________________632f2d020d8b602001518481518110610afa57610afa611a91565b60200260200101516040518263ffffffff1660e01b8152600401610b1e9190611ac0565b600060405180830381865af4158015610b3b573d6000803e3d6000fd5b505050506040513d6000823e601f3d908101601f19168201604052610b639190810190611af2565b604051602001610b74929190611bba565b6040516020818303038152906040528051906020012060001c868281518110610b9f57610b9f611a91565b602002602001018181525050610bcd868281518110610bc057610bc0611a91565b602002602001015161140d565b858281518110610bdf57610bdf611a91565b602002602001018181525050610c4c826102868b600001518481518110610c0857610c08611a91565b6020026020010151610a1b8a8681518110610c2557610c25611a91565b60200260200101518b8781518110610c3f57610c3f611a91565b60200260200101516113f2565b9150610ca2826102868b602001518481518110610c6b57610c6b611a91565b6020026020010151610a1b898681518110610c8857610c88611a91565b60200260200101518a8781518110610c3f57610c3f611a91565b9150610cba84868381518110610c3f57610c3f611a91565b935080610cc681611aa7565b915050610a29565b506000610cf98a60000151600081518110610ceb57610ceb611a91565b602002602001015185610f01565b905060015b8a5151811015610dbb576001945060005b88811015610d7b57600182821c811603610d5557610d4e86896001610d34858e611a27565b610d3e9190611a27565b81518110610c3f57610c3f611a91565b9550610d69565b610d6686886001610d34858e611a27565b95505b80610d7381611aa7565b915050610d0f565b50610da7826102868d600001518481518110610d9957610d99611a91565b602002602001015188610f01565b915080610db381611aa7565b915050610cfe565b50610ddb81610286610dd18d6020015187610f01565b8c60600151610f01565b9050610deb818a60400151610f01565b9050610df78282611440565b9750505050505050505b92915050565b610e0f6114ec565b6000610e29600080516020611c2883398151915284611bff565b90506000610e38600183611a27565b91506000805b81610ee757610e4e600185611a7e565b9350600080516020611c288339815191528485099050600080516020611c288339815191528482099050600080516020611c28833981519152600382089050610eca816004610eac600080516020611c288339815191526001611a7e565b610eb69190611c13565b600080516020611c28833981519152611462565b925080600080516020611c28833981519152848509149150610e3e565b505060408051808201909152918252602082015292915050565b610f096114ec565b81600103610f18575081610e01565b81600203610f3157610f2a8384610f84565b9050610e01565b610f39611506565b83518152602080850151908201526040808201849052826060836007600019fa610f6257600080fd5b5092915050565b6000600080516020611c488339815191528284089392505050565b610f8c6114ec565b610f94611524565b83518152602080850151818301528351604080840191909152908401516060830152826080836006600019fa610f6257600080fd5b60005b6001821115610fee57610fe0600182611a7e565b9050600182901c9150610fcc565b919050565b610ffb6114ec565b6110036114ec565b6000600286516110139190611c13565b905060006110478760008151811061102d5761102d611a91565b6020026020010151878481518110610c3f57610c3f611a91565b9050600061107b88848151811061106057611060611a91565b602002602001015188600081518110610c3f57610c3f611a91565b905060015b8381101561110d576110bb836110b68b84815181106110a1576110a1611a91565b60200260200101518b8589610d3e9190611a7e565b610f69565b92506110f9826110b68b6110cf8589611a7e565b815181106110df576110df611a91565b60200260200101518b8581518110610c3f57610c3f611a91565b91508061110581611aa7565b915050611080565b506111188683610f01565b94506111248682610f01565b935060005b838110156111c15761116d866102868c6111438589611a7e565b8151811061115357611153611a91565b60200260200101518c858151811061020057610200611a91565b95506111ad856102868c848151811061118857611188611a91565b60200260200101518c858961119d9190611a7e565b8151811061020057610200611a91565b9450806111b981611aa7565b915050611129565b5050505094509492505050565b60608060606000600287516111e39190611c13565b905060006111f08661140d565b9050816001600160401b0381111561120a5761120a61157e565b60405190808252806020026020018201604052801561124357816020015b6112306114ec565b8152602001906001900390816112285790505b509450816001600160401b0381111561125e5761125e61157e565b604051908082528060200260200182016040528015611287578160200160208202803683370190505b509350816001600160401b038111156112a2576112a261157e565b6040519080825280602002602001820160405280156112cb578160200160208202803683370190505b50925060005b828110156113e55761132b6112ff8b83815181106112f1576112f1611a91565b602002602001015184610f01565b6102868c61130d8588611a7e565b8151811061131d5761131d611a91565b60200260200101518a610f01565b86828151811061133d5761133d611a91565b6020026020010181905250611370611361888b8481518110610c3f57610c3f611a91565b6110b6848c610d3e8689611a7e565b85828151811061138257611382611a91565b6020026020010181815250506113b66113a7838a8481518110610c3f57610c3f611a91565b6110b6898b610d3e8689611a7e565b8482815181106113c8576113c8611a91565b6020908102919091010152806113dd81611aa7565b9150506112d1565b5050509450945094915050565b6000600080516020611c488339815191528284099392505050565b6000610e018261142c6002600080516020611c48833981519152611a27565b600080516020611c48833981519152611462565b8051825160009114801561145b575081602001518360200151145b9392505050565b600061146c611542565b611474611560565b602080835282810181905260408301819052606083018790526080830186905260a083018590528160c0846005600019fa6114ae57600080fd5b5195945050505050565b6040518060800160405280606081526020016114d26114ec565b81526020016114df6114ec565b8152602001600081525090565b604051806040016040528060008152602001600081525090565b60405180606001604052806003906020820280368337509192915050565b60405180608001604052806004906020820280368337509192915050565b6040518060c001604052806006906020820280368337509192915050565b60405180602001604052806001906020820280368337509192915050565b634e487b7160e01b600052604160045260246000fd5b604051608081016001600160401b03811182821017156115b6576115b661157e565b60405290565b604051601f8201601f191681016001600160401b03811182821017156115e4576115e461157e565b604052919050565b60006001600160401b038211156116055761160561157e565b5060051b60200190565b600082601f83011261162057600080fd5b81356020611635611630836115ec565b6115bc565b82815260059290921b8401810191818101908684111561165457600080fd5b8286015b8481101561166f5780358352918301918301611658565b509695505050505050565b60006020828403121561168c57600080fd5b81356001600160401b038111156116a257600080fd5b6116ae8482850161160f565b949350505050565b80518252602090810151910152565b600081518084526020808501945080840160005b838110156116ff576116ec8783516116b6565b60409690960195908201906001016116d9565b509495945050505050565b602081526000825160c0602084015261172660e08401826116c5565b9050602084015161173a60408501826116b6565b50604084015161174d60808501826116b6565b50606084015160c08401528091505092915050565b60006040828403121561177457600080fd5b604080519081016001600160401b03811182821017156117965761179661157e565b604052823581526020928301359281019290925250919050565b600082601f8301126117c157600080fd5b813560206117d1611630836115ec565b82815260069290921b840181019181810190868411156117f057600080fd5b8286015b8481101561166f576118068882611762565b8352918301916040016117f4565b600060c0828403121561182657600080fd5b61182e611594565b905081356001600160401b0381111561184657600080fd5b611852848285016117b0565b8252506118628360208401611762565b60208201526118748360608401611762565b604082015260a0820135606082015292915050565b6000806040838503121561189c57600080fd5b82356001600160401b03808211156118b357600080fd5b6118bf86838701611814565b935060208501359150808211156118d557600080fd5b506118e28582860161160f565b9150509250929050565b60208152600082516080602084015261190860a08401826116c5565b90506020840151601f1984830301604085015261192582826116c5565b91505060408401516060840152606084015160808401528091505092915050565b6000806040838503121561195957600080fd5b82356001600160401b038082111561197057600080fd5b61197c86838701611814565b9350602085013591508082111561199257600080fd5b90840190608082870312156119a657600080fd5b6119ae611594565b8235828111156119bd57600080fd5b6119c9888286016117b0565b8252506020830135828111156119de57600080fd5b6119ea888286016117b0565b60208301525060408301356040820152606083013560608201528093505050509250929050565b634e487b7160e01b600052601160045260246000fd5b81810381811115610e0157610e01611a11565b60208082526024908201527f766563746f72206c656e6774682073686f756c64206265206120706f7765722060408201526337b3101960e11b606082015260800190565b80820180821115610e0157610e01611a11565b634e487b7160e01b600052603260045260246000fd5b600060018201611ab957611ab9611a11565b5060010190565b60408101610e0182846116b6565b60005b83811015611ae9578181015183820152602001611ad1565b50506000910152565b600060208284031215611b0457600080fd5b81516001600160401b0380821115611b1b57600080fd5b818401915084601f830112611b2f57600080fd5b815181811115611b4157611b4161157e565b611b54601f8201601f19166020016115bc565b9150808252856020828501011115611b6b57600080fd5b611b7c816020840160208601611ace565b50949350505050565b60008451611b97818460208901611ace565b845190830190611bab818360208901611ace565b01928352505060200192915050565b60008351611bcc818460208801611ace565b835190830190611be0818360208801611ace565b01949350505050565b634e487b7160e01b600052601260045260246000fd5b600082611c0e57611c0e611be9565b500690565b600082611c2257611c22611be9565b50049056fe30644e72e131a029b85045b68181585d97816a916871ca8d3c208c16d87cfd4730644e72e131a029b85045b68181585d2833e84879b9709143e1f593f0000001a26469706673582212208edf92ab67f6259793d11cefeb0472e76654151e552474fdaeac5aa8058cc3d264736f6c63430008130033",
  "immutableReferences": {},
  "source": "// SPDX-License-Identifier: GPL-3.0\npragma solidity >=0.4.0 <0.9.0;\n\nimport \"../lib/alt_bn128.sol\";\n\ncontract NISA {\n    using alt_bn128 for uint256;\n    using alt_bn128 for alt_bn128.G1Point;\n\n\t/// @param Gs public keys\n    /// @param u random generator\n\t/// @param P prod_i (g_i ^ a_i)\n\t/// @param c sum_i a_i\n    struct Param {\n        alt_bn128.G1Point[] Gs;\n        alt_bn128.G1Point u;\n        alt_bn128.G1Point P;\n        uint256 c;\n    }\n\n    struct Sig {\n        alt_bn128.G1Point[] Ls;\n        alt_bn128.G1Point[] Rs;\n        uint256 a;\n        uint256 b;\n    }\n\n    /**\n     * @dev test correctness of NISA protocol\n     */\n    function test(uint256[] memory a) private view returns (bool) {\n        Param memory param = setup(a);\n        Sig memory p = prove(param, a);\n        return verify(param, p);\n    }\n\n     \n    /// @dev setup public parameters\n    /// @param a witness vector\n    function setup(uint256[] memory a) public view returns (Param memory param) {\n        require(\n            a.length & (a.length - 1) == 0,\n            \"vector length should be a power of 2\"\n        );\n        param.Gs = new alt_bn128.G1Point[](a.length);\n        for (uint256 i = 0; i < a.length; i++) {\n            param.Gs[i] = alt_bn128.uintToCurvePoint(i + 2);\n        }\n        param.u = alt_bn128.uintToCurvePoint(1);\n        param.c = a[0];\n        param.P = alt_bn128.mul(param.Gs[0], a[0]);\n        for (uint i = 1; i < a.length; i++) {\n            param.c = alt_bn128.add(param.c, a[i]);\n            param.P = alt_bn128.add(param.P, alt_bn128.mul(param.Gs[i], a[i]));\n        }\n    }\n\n    /// @param param pp (Gs, u, P, c)\n    /// @param a witness vector\n    function prove(Param memory param, uint256[] memory a) public view returns (Sig memory p) {\n        require(\n            a.length & (a.length - 1) == 0,\n            \"vector length should be a power of 2\"\n        );\n\n        uint length = log2(a.length);\n        p.Ls = new alt_bn128.G1Point[](length);\n        p.Rs = new alt_bn128.G1Point[](length);\n\n        uint256 H_z = uint256(\n            keccak256(\n                abi.encodePacked(\n                    alt_bn128.pack(param.P),\n                    alt_bn128.pack(param.u),\n                    param.c\n                )\n            )\n        );\n\n        alt_bn128.G1Point memory u_prime = alt_bn128.mul(param.u, H_z);\n\n        uint256[] memory b = new uint256[](a.length);\n        alt_bn128.G1Point[] memory Gs = new alt_bn128.G1Point[](a.length);\n        for (uint i = 0; i < b.length; i++) {\n            b[i] = 1;\n            Gs[i] = param.Gs[i];\n        }\n        alt_bn128.G1Point memory L;\n        alt_bn128.G1Point memory R;\n        uint256 x;\n\n        /// @dev O(logn) iteration\n        for (uint idx = 0; idx < length; idx++) {\n            // L && R\n            (L, R) = LR(Gs, a, b, u_prime);\n            p.Ls[idx] = L;\n            p.Rs[idx] = R;\n\n            x = uint256(\n                keccak256(\n                    abi.encodePacked(\n                        alt_bn128.pack(L),\n                        alt_bn128.pack(R)\n                    )\n                )\n            );\n\n            // halve size\n            (Gs, a, b) = halve(Gs, a, b, x);\n        }\n        p.a = a[0];\n        p.b = b[0];\n    }\n\n    /// @dev compute one round L, R commitments\n    function LR(\n        alt_bn128.G1Point[] memory Gs,\n        uint256[] memory a,\n        uint256[] memory b,\n        alt_bn128.G1Point memory u_prime\n    ) private view returns (\n            alt_bn128.G1Point memory L, \n            alt_bn128.G1Point memory R\n        )\n    {\n        uint n = a.length / 2;\n        uint256 cL = alt_bn128.mul(a[0], b[n]);\n        uint256 cR = alt_bn128.mul(a[n], b[0]);\n        for (uint i = 1; i < n; i++) {\n            cL = alt_bn128.add(cL, alt_bn128.mul(a[i], b[n + i]));\n            cR = alt_bn128.add(cR, alt_bn128.mul(a[n + i], b[i]));\n        }\n\n        L = alt_bn128.mul(u_prime, cL);\n        R = alt_bn128.mul(u_prime, cR);\n\n        for (uint i = 0; i < n; i++) {\n            L = alt_bn128.add(L, alt_bn128.mul(Gs[n + i], a[i]));\n            R = alt_bn128.add(R, alt_bn128.mul(Gs[i], a[n + i]));\n        }\n    }\n\n    /// @dev halve Gs, a, b sizes\n    function halve(\n        alt_bn128.G1Point[] memory Gs,\n        uint256[] memory a,\n        uint256[] memory b,\n        uint256 x\n    ) private view returns (\n        alt_bn128.G1Point[] memory Gs_new,\n        uint256[] memory a_new,\n        uint256[] memory b_new\n    ){\n        uint n = a.length / 2;\n\n        uint256 x_inv = alt_bn128.inv(x);\n\n        Gs_new = new alt_bn128.G1Point[](n);\n        a_new = new uint256[](n);\n        b_new = new uint256[](n);\n\n        for (uint i = 0; i < n; i++) {\n            Gs_new[i] = alt_bn128.add(\n                alt_bn128.mul(Gs[i], x_inv),\n                alt_bn128.mul(Gs[n + i], x)\n            );\n            a_new[i] = alt_bn128.add(\n                alt_bn128.mul(x, a[i]),\n                alt_bn128.mul(x_inv, a[n + i])\n            );\n            b_new[i] = alt_bn128.add(\n                alt_bn128.mul(x_inv, b[i]),\n                alt_bn128.mul(x, b[n + i])\n            );\n        }\n    }\n\n    function verify(Param memory param, Sig memory p) public view returns (bool) {\n        uint length = log2(param.Gs.length);\n\n        uint256[] memory xs = new uint256[](length);\n        uint256[] memory xs_inv = new uint256[](length);\n        uint256 y;\n        // verify\n        uint256 H_z = uint256(\n            keccak256(\n                abi.encodePacked(\n                    alt_bn128.pack(param.P),\n                    alt_bn128.pack(param.u),\n                    param.c\n                )\n            )\n        );\n        alt_bn128.G1Point memory left_point = alt_bn128.add(\n            param.P,\n            alt_bn128.mul(param.u, alt_bn128.mul(param.c, H_z))\n        );\n\n        y = 1;\n        for (uint i = 0; i < length; i++) {\n            xs[i] = uint256(\n                keccak256(\n                    abi.encodePacked(\n                        alt_bn128.pack(p.Ls[i]),\n                        alt_bn128.pack(p.Rs[i])\n                    )\n                )\n            );\n            xs_inv[i] = alt_bn128.inv(xs[i]);\n\n            left_point = alt_bn128.add(\n                left_point,\n                alt_bn128.mul(p.Ls[i], alt_bn128.mul(xs[i], xs[i]))\n            );\n            left_point = alt_bn128.add(\n                left_point,\n                alt_bn128.mul(p.Rs[i], alt_bn128.mul(xs_inv[i], xs_inv[i]))\n            );\n            y = alt_bn128.mul(y, xs_inv[i]);\n        }\n        alt_bn128.G1Point memory right_point = alt_bn128.mul(param.Gs[0], y);\n\n        // uint k;\n        for (uint i = 1; i < param.Gs.length; i++) {\n            y = 1;\n            // k = length;\n            for (uint j = 0; j < length; j++) {\n                // k--;\n                if (check_bit(i, j)) {\n                    y = alt_bn128.mul(y, xs[length - j - 1]);\n                } else {\n                    y = alt_bn128.mul(y, xs_inv[length - j - 1]);\n                }\n            }\n            right_point = alt_bn128.add(\n                right_point,\n                alt_bn128.mul(param.Gs[i], y)\n            );\n        }\n        right_point = alt_bn128.add(\n            right_point,\n            alt_bn128.mul(alt_bn128.mul(param.u, H_z), p.b)\n        );\n        right_point = alt_bn128.mul(right_point, p.a);\n\n        return alt_bn128.eq(left_point, right_point);\n    }\n\n    function log2(uint x) private pure returns (uint n) {\n        for (n = 0; x > 1; x >>= 1) n += 1;\n    }\n\n    function check_bit(uint i, uint j) private pure returns (bool) {\n        return ((i >> j) & 1) == 1;\n    }\n}\n",
  "sourcePath": "/Users/qian/Desktop/Y4/COMP4550/project/XCSwap/contracts/ZKP/NISA.sol",
  "compiler": {
    "name": "solc",
    "version": "0.8.19+commit.7dd6d404.Emscripten.clang"
  },
  "schemaVersion": "3.4.13",
  "updatedAt": "2023-08-08T16:41:00.890Z",
  "devdoc": {
    "kind": "dev",
    "methods": {
      "prove(((uint256,uint256)[],(uint256,uint256),(uint256,uint256),uint256),uint256[])": {
        "params": {
          "a": "witness vector",
          "param": "pp (Gs, u, P, c)"
        }
      },
      "setup(uint256[])": {
        "details": "setup public parameters",
        "params": {
          "a": "witness vector"
        }
      }
    },
    "version": 1
  },
  "userdoc": {
    "kind": "user",
    "methods": {},
    "version": 1
  }
}