{
  "contractName": "OneofMany",
  "abi": [
    {
      "inputs": [
        {
          "components": [
            {
              "internalType": "uint256",
              "name": "X",
              "type": "uint256"
            },
            {
              "internalType": "uint256",
              "name": "Y",
              "type": "uint256"
            }
          ],
          "internalType": "struct alt_bn128.G1Point[]",
          "name": "cs",
          "type": "tuple[]"
        },
        {
          "components": [
            {
              "internalType": "uint256",
              "name": "X",
              "type": "uint256"
            },
            {
              "internalType": "uint256",
              "name": "Y",
              "type": "uint256"
            }
          ],
          "internalType": "struct alt_bn128.G1Point",
          "name": "h",
          "type": "tuple"
        }
      ],
      "name": "param",
      "outputs": [
        {
          "components": [
            {
              "components": [
                {
                  "internalType": "uint256",
                  "name": "X",
                  "type": "uint256"
                },
                {
                  "internalType": "uint256",
                  "name": "Y",
                  "type": "uint256"
                }
              ],
              "internalType": "struct alt_bn128.G1Point[]",
              "name": "gs",
              "type": "tuple[]"
            },
            {
              "components": [
                {
                  "internalType": "uint256",
                  "name": "X",
                  "type": "uint256"
                },
                {
                  "internalType": "uint256",
                  "name": "Y",
                  "type": "uint256"
                }
              ],
              "internalType": "struct alt_bn128.G1Point[]",
              "name": "cs",
              "type": "tuple[]"
            },
            {
              "components": [
                {
                  "internalType": "uint256",
                  "name": "X",
                  "type": "uint256"
                },
                {
                  "internalType": "uint256",
                  "name": "Y",
                  "type": "uint256"
                }
              ],
              "internalType": "struct alt_bn128.G1Point",
              "name": "h",
              "type": "tuple"
            }
          ],
          "internalType": "struct OneofMany.Param",
          "name": "pp",
          "type": "tuple"
        }
      ],
      "stateMutability": "view",
      "type": "function"
    },
    {
      "inputs": [
        {
          "components": [
            {
              "components": [
                {
                  "internalType": "uint256",
                  "name": "X",
                  "type": "uint256"
                },
                {
                  "internalType": "uint256",
                  "name": "Y",
                  "type": "uint256"
                }
              ],
              "internalType": "struct alt_bn128.G1Point[]",
              "name": "gs",
              "type": "tuple[]"
            },
            {
              "components": [
                {
                  "internalType": "uint256",
                  "name": "X",
                  "type": "uint256"
                },
                {
                  "internalType": "uint256",
                  "name": "Y",
                  "type": "uint256"
                }
              ],
              "internalType": "struct alt_bn128.G1Point[]",
              "name": "cs",
              "type": "tuple[]"
            },
            {
              "components": [
                {
                  "internalType": "uint256",
                  "name": "X",
                  "type": "uint256"
                },
                {
                  "internalType": "uint256",
                  "name": "Y",
                  "type": "uint256"
                }
              ],
              "internalType": "struct alt_bn128.G1Point",
              "name": "h",
              "type": "tuple"
            }
          ],
          "internalType": "struct OneofMany.Param",
          "name": "pp",
          "type": "tuple"
        },
        {
          "internalType": "uint256",
          "name": "r_theta",
          "type": "uint256"
        },
        {
          "internalType": "uint256",
          "name": "theta",
          "type": "uint256"
        }
      ],
      "name": "sign",
      "outputs": [
        {
          "components": [
            {
              "components": [
                {
                  "internalType": "uint256",
                  "name": "X",
                  "type": "uint256"
                },
                {
                  "internalType": "uint256",
                  "name": "Y",
                  "type": "uint256"
                }
              ],
              "internalType": "struct alt_bn128.G1Point",
              "name": "cv",
              "type": "tuple"
            },
            {
              "components": [
                {
                  "internalType": "uint256",
                  "name": "X",
                  "type": "uint256"
                },
                {
                  "internalType": "uint256",
                  "name": "Y",
                  "type": "uint256"
                }
              ],
              "internalType": "struct alt_bn128.G1Point",
              "name": "ct",
              "type": "tuple"
            },
            {
              "components": [
                {
                  "internalType": "uint256",
                  "name": "X",
                  "type": "uint256"
                },
                {
                  "internalType": "uint256",
                  "name": "Y",
                  "type": "uint256"
                }
              ],
              "internalType": "struct alt_bn128.G1Point[]",
              "name": "cds",
              "type": "tuple[]"
            },
            {
              "internalType": "uint256[]",
              "name": "fs",
              "type": "uint256[]"
            },
            {
              "internalType": "uint256",
              "name": "u",
              "type": "uint256"
            },
            {
              "internalType": "uint256",
              "name": "s",
              "type": "uint256"
            }
          ],
          "internalType": "struct OneofMany.Sig",
          "name": "sig",
          "type": "tuple"
        }
      ],
      "stateMutability": "view",
      "type": "function"
    },
    {
      "inputs": [
        {
          "components": [
            {
              "components": [
                {
                  "internalType": "uint256",
                  "name": "X",
                  "type": "uint256"
                },
                {
                  "internalType": "uint256",
                  "name": "Y",
                  "type": "uint256"
                }
              ],
              "internalType": "struct alt_bn128.G1Point[]",
              "name": "gs",
              "type": "tuple[]"
            },
            {
              "components": [
                {
                  "internalType": "uint256",
                  "name": "X",
                  "type": "uint256"
                },
                {
                  "internalType": "uint256",
                  "name": "Y",
                  "type": "uint256"
                }
              ],
              "internalType": "struct alt_bn128.G1Point[]",
              "name": "cs",
              "type": "tuple[]"
            },
            {
              "components": [
                {
                  "internalType": "uint256",
                  "name": "X",
                  "type": "uint256"
                },
                {
                  "internalType": "uint256",
                  "name": "Y",
                  "type": "uint256"
                }
              ],
              "internalType": "struct alt_bn128.G1Point",
              "name": "h",
              "type": "tuple"
            }
          ],
          "internalType": "struct OneofMany.Param",
          "name": "pp",
          "type": "tuple"
        },
        {
          "components": [
            {
              "components": [
                {
                  "internalType": "uint256",
                  "name": "X",
                  "type": "uint256"
                },
                {
                  "internalType": "uint256",
                  "name": "Y",
                  "type": "uint256"
                }
              ],
              "internalType": "struct alt_bn128.G1Point",
              "name": "cv",
              "type": "tuple"
            },
            {
              "components": [
                {
                  "internalType": "uint256",
                  "name": "X",
                  "type": "uint256"
                },
                {
                  "internalType": "uint256",
                  "name": "Y",
                  "type": "uint256"
                }
              ],
              "internalType": "struct alt_bn128.G1Point",
              "name": "ct",
              "type": "tuple"
            },
            {
              "components": [
                {
                  "internalType": "uint256",
                  "name": "X",
                  "type": "uint256"
                },
                {
                  "internalType": "uint256",
                  "name": "Y",
                  "type": "uint256"
                }
              ],
              "internalType": "struct alt_bn128.G1Point[]",
              "name": "cds",
              "type": "tuple[]"
            },
            {
              "internalType": "uint256[]",
              "name": "fs",
              "type": "uint256[]"
            },
            {
              "internalType": "uint256",
              "name": "u",
              "type": "uint256"
            },
            {
              "internalType": "uint256",
              "name": "s",
              "type": "uint256"
            }
          ],
          "internalType": "struct OneofMany.Sig",
          "name": "sig",
          "type": "tuple"
        }
      ],
      "name": "verify",
      "outputs": [
        {
          "internalType": "bool",
          "name": "",
          "type": "bool"
        }
      ],
      "stateMutability": "view",
      "type": "function"
    }
  ],
  "bytecode": "0x608060405234801561001057600080fd5b50611af2806100206000396000f3fe608060405234801561001057600080fd5b50600436106100415760003560e01c80636ba55588146100465780637096c1751461006e5780638b3287991461008e575b600080fd5b61005961005436600461165e565b6100ae565b60405190151581526020015b60405180910390f35b61008161007c36600461174e565b61044a565b60405161006591906117ef565b6100a161009c366004611892565b610b05565b60405161006591906118e0565b602082015151600090816100c182610c33565b90506000600080516020611a9d83398151915285600001518660200151876040015189602001516040516020016100fb9493929190611970565b6040516020818303038152906040528051906020012060001c61011e91906119d0565b9050600061013d86608001518860400151610c5d90919063ffffffff16565b905060005b838110156101f4576101e06101d96101af6101838a60600151858151811061016c5761016c6119e4565b602002602001015187610cbe90919063ffffffff16565b8a606001518581518110610199576101996119e4565b6020026020010151610d0190919063ffffffff16565b8a518051859081106101c3576101c36119e4565b6020026020010151610c5d90919063ffffffff16565b8390610d1c565b9150806101ec81611a10565b915050610142565b508551600090610213906102089085610c5d565b602089015190610d1c565b905060006102218383610d61565b90508061026d5760405162461bcd60e51b815260206004820152601560248201527413db995bd993585b9e480e88188c4819985a5b1959605a1b60448201526064015b60405180910390fd5b600061028a8960a001518b60400151610c5d90919063ffffffff16565b905060006040518060400160405280600081526020016000815250905060005b8881101561038c57600160005b8981101561035157600183821c811603610302576102fb8d6060015182815181106102e4576102e46119e4565b602002602001015183610d0190919063ffffffff16565b915061033f565b61033c6103358e60600151838151811061031e5761031e6119e4565b60200260200101518b610cbe90919063ffffffff16565b8390610d01565b91505b8061034981611a10565b9150506102b7565b5061037661036f828f6020015185815181106101c3576101c36119e4565b8490610d1c565b925050808061038490611a10565b9150506102aa565b5060005b878110156103da576103c66101d96103c16103ab8a85610d7e565b8e6040015185815181106101c3576101c36119e4565b610d99565b9150806103d281611a10565b915050610390565b5060006103e78383610d61565b90508061042e5760405162461bcd60e51b815260206004820152601560248201527413db995bd993585b9e480e88188c8819985a5b1959605a1b6044820152606401610264565b8380156104385750805b99505050505050505050505b92915050565b61045261131b565b602084015151600061046382610c33565b9050600073__alt_bn128_____________________________635ec01e4d6040518163ffffffff1660e01b8152600401602060405180830381865af41580156104b0573d6000803e3d6000fd5b505050506040513d601f19601f820116820180604052508101906104d49190611a29565b9050600073__alt_bn128_____________________________635ec01e4d6040518163ffffffff1660e01b8152600401602060405180830381865af4158015610521573d6000803e3d6000fd5b505050506040513d601f19601f820116820180604052508101906105459190611a29565b90506000836001600160401b0381111561056157610561611415565b60405190808252806020026020018201604052801561058a578160200160208202803683370190505b509050836001600160401b038111156105a5576105a5611415565b6040519080825280602002602001820160405280156105ce578160200160208202803683370190505b50606087015260408901516105e39084610c5d565b865260408901516105f49083610c5d565b60208701526000846001600160401b0381111561061357610613611415565b60405190808252806020026020018201604052801561063c578160200160208202803683370190505b50905060005b8581101561086d5773__alt_bn128_____________________________635ec01e4d6040518163ffffffff1660e01b8152600401602060405180830381865af4158015610693573d6000803e3d6000fd5b505050506040513d601f19601f820116820180604052508101906106b79190611a29565b886060015182815181106106cd576106cd6119e4565b60200260200101818152505073__alt_bn128_____________________________635ec01e4d6040518163ffffffff1660e01b8152600401602060405180830381865af4158015610722573d6000803e3d6000fd5b505050506040513d601f19601f820116820180604052508101906107469190611a29565b838281518110610758576107586119e4565b6020908102919091010152600189821c811614610776576000610779565b60015b60ff1682828151811061078e5761078e6119e4565b6020026020010181815250506108046107fc6107e88a6060015184815181106107b9576107b96119e4565b60200260200101516107e260016107dd6002898981518110610199576101996119e4565b610cbe565b90610d01565b8d518051859081106101c3576101c36119e4565b895190610d1c565b886000018190525061085661084b6107e861084660028c606001518681518110610830576108306119e4565b6020026020010151610d7e90919063ffffffff16565b610e0b565b60208a015190610d1c565b60208901528061086581611a10565b915050610642565b50600061087f88606001518389610e25565b905060005b868110156109aa576108bc8482815181106108a1576108a16119e4565b60200260200101518d60400151610c5d90919063ffffffff16565b896040015182815181106108d2576108d26119e4565b602002602001018190525060005b8881101561099757610963610937848381518110610900576109006119e4565b60200260200101518481518110610919576109196119e4565b60200260200101518f6020015184815181106101c3576101c36119e4565b8b60400151848151811061094d5761094d6119e4565b6020026020010151610d1c90919063ffffffff16565b8a604001518381518110610979576109796119e4565b6020026020010181905250808061098f90611a10565b9150506108e0565b50806109a281611a10565b915050610884565b506000600080516020611a9d83398151915289600001518a602001518b604001518f602001516040516020016109e39493929190611970565b6040516020818303038152906040528051906020012060001c610a0691906119d0565b90506000805b88811015610ab757610a59610a2d84878481518110610199576101996119e4565b8c606001518381518110610a4357610a436119e4565b60200260200101516110a190919063ffffffff16565b8b606001518281518110610a6f57610a6f6119e4565b6020908102919091010152610aa3610a9c610a8a8584610d7e565b888481518110610199576101996119e4565b83906110a1565b915080610aaf81611a10565b915050610a0c565b50610acc610ac58884610d01565b87906110a1565b60808b0152610aef81610ae9610ae2858c610d7e565b8f90610d01565b90610cbe565b60a08b015250979b9a5050505050505050505050565b610b0d61135d565b610b178351610c33565b6001600160401b03811115610b2e57610b2e611415565b604051908082528060200260200182016040528015610b6757816020015b610b54611383565b815260200190600190039081610b4c5790505b508152602081018390526040810182905260005b815151811015610c2c57610bfa73__alt_bn128_____________________________635ec01e4d6040518163ffffffff1660e01b8152600401602060405180830381865af4158015610bd1573d6000803e3d6000fd5b505050506040513d601f19601f82011682018060405250810190610bf59190611a29565b6110bc565b8251805183908110610c0e57610c0e6119e4565b60200260200101819052508080610c2490611a10565b915050610b7b565b5092915050565b60005b6001821115610c5857610c4a600182611a42565b9050600182901c9150610c36565b919050565b610c65611383565b81600103610c74575081610444565b81600203610c8d57610c868384610d1c565b9050610444565b610c9561139d565b83518152602080850151908201526040808201849052826060836007600019fa610c2c57600080fd5b600081831015610cf05782610ce183600080516020611a9d833981519152611a55565b610ceb9190611a42565b610cfa565b610cfa8284611a55565b9392505050565b6000600080516020611a9d8339815191528284099392505050565b610d24611383565b610d2c6113bb565b83518152602080850151818301528351604080840191909152908401516060830152826080836006600019fa610c2c57600080fd5b80518251600091148015610cfa5750506020908101519101511490565b6000610cfa8383600080516020611a9d8339815191526111b6565b610da1611383565b8151158015610db257506020820151155b15610dd0575050604080518082019091526000808252602082015290565b6040518060400160405280836000015181526020018360200151600080516020611a7d833981519152610e039190611a55565b905292915050565b600061044482600080516020611a9d833981519152611a55565b60606000610e3283610c33565b9050826001600160401b03811115610e4c57610e4c611415565b604051908082528060200260200182016040528015610e7f57816020015b6060815260200190600190039081610e6a5790505b50915060608060005b8581101561109657836001600160401b03811115610ea857610ea8611415565b604051908082528060200260200182016040528015610ed1578160200160208202803683370190505b509250600183600081518110610ee957610ee96119e4565b60200260200101818152505060005b84811015611064576040805160028082526060820183529091602083019080368337019050509250600182821c811603610fb757888181518110610f3e57610f3e6119e4565b602002602001015183600081518110610f5957610f596119e4565b602002602001018181525050878181518110610f7757610f776119e4565b6020026020010151600114610f8d576000610f90565b60015b60ff1683600181518110610fa657610fa66119e4565b602002602001018181525050611046565b610fd9898281518110610fcc57610fcc6119e4565b6020026020010151610e0b565b83600081518110610fec57610fec6119e4565b60200260200101818152505087818151811061100a5761100a6119e4565b6020026020010151600014611020576000611023565b60015b60ff1683600181518110611039576110396119e4565b6020026020010181815250505b611050848461120c565b93508061105c81611a10565b915050610ef8565b5082858281518110611078576110786119e4565b6020026020010181905250808061108e90611a10565b915050610e88565b505050509392505050565b6000600080516020611a9d8339815191528284089392505050565b6110c4611383565b60006110de600080516020611a7d833981519152846119d0565b905060006110ed600183611a55565b91506000805b8161119c57611103600185611a42565b9350600080516020611a7d8339815191528485099050600080516020611a7d8339815191528482099050600080516020611a7d83398151915260038208905061117f816004611161600080516020611a7d8339815191526001611a42565b61116b9190611a68565b600080516020611a7d8339815191526111b6565b925080600080516020611a7d8339815191528485091491506110f3565b505060408051808201909152918252602082015292915050565b60006111c06113d9565b6111c86113f7565b602080835282810181905260408301819052606083018790526080830186905260a083018590528160c0846005600019fa61120257600080fd5b5195945050505050565b606060018251845161121e9190611a42565b6112289190611a55565b6001600160401b0381111561123f5761123f611415565b604051908082528060200260200182016040528015611268578160200160208202803683370190505b50905060005b8351811015610c2c5760005b8351811015611308576112d06112b585838151811061129b5761129b6119e4565b6020026020010151878581518110610199576101996119e4565b846112c08486611a42565b81518110610a4357610a436119e4565b836112db8385611a42565b815181106112eb576112eb6119e4565b60209081029190910101528061130081611a10565b91505061127a565b508061131381611a10565b91505061126e565b6040518060c0016040528061132e611383565b815260200161133b611383565b8152602001606081526020016060815260200160008152602001600081525090565b6040518060600160405280606081526020016060815260200161137e611383565b905290565b604051806040016040528060008152602001600081525090565b60405180606001604052806003906020820280368337509192915050565b60405180608001604052806004906020820280368337509192915050565b6040518060c001604052806006906020820280368337509192915050565b60405180602001604052806001906020820280368337509192915050565b634e487b7160e01b600052604160045260246000fd5b60405160c081016001600160401b038111828210171561144d5761144d611415565b60405290565b604051601f8201601f191681016001600160401b038111828210171561147b5761147b611415565b604052919050565b60006001600160401b0382111561149c5761149c611415565b5060051b60200190565b6000604082840312156114b857600080fd5b604080519081016001600160401b03811182821017156114da576114da611415565b604052823581526020928301359281019290925250919050565b600082601f83011261150557600080fd5b8135602061151a61151583611483565b611453565b82815260069290921b8401810191818101908684111561153957600080fd5b8286015b8481101561155d5761154f88826114a6565b83529183019160400161153d565b509695505050505050565b60006080828403121561157a57600080fd5b604051606081016001600160401b03808211838310171561159d5761159d611415565b8160405282935084359150808211156115b557600080fd5b6115c1868387016114f4565b835260208501359150808211156115d757600080fd5b506115e4858286016114f4565b6020830152506115f784604085016114a6565b60408201525092915050565b600082601f83011261161457600080fd5b8135602061162461151583611483565b82815260059290921b8401810191818101908684111561164357600080fd5b8286015b8481101561155d5780358352918301918301611647565b6000806040838503121561167157600080fd5b82356001600160401b038082111561168857600080fd5b61169486838701611568565b935060208501359150808211156116aa57600080fd5b9084019061010082870312156116bf57600080fd5b6116c761142b565b6116d187846114a6565b81526116e087604085016114a6565b60208201526080830135828111156116f757600080fd5b611703888286016114f4565b60408301525060a08301358281111561171b57600080fd5b61172788828601611603565b60608301525060c0830135608082015260e083013560a08201528093505050509250929050565b60008060006060848603121561176357600080fd5b83356001600160401b0381111561177957600080fd5b61178586828701611568565b9660208601359650604090950135949350505050565b80518252602090810151910152565b600081518084526020808501945080840160005b838110156117e4576117d187835161179b565b60409690960195908201906001016117be565b509495945050505050565b60006020808352611803818401855161179b565b80840151611814606085018261179b565b5060408401516101008060a08601526118316101208601836117aa565b6060870151868203601f190160c0880152805180835290850193506000918501905b808310156118735784518252938501936001929092019190850190611853565b50608088015160e088015260a090970151919095015250929392505050565b600080606083850312156118a557600080fd5b82356001600160401b038111156118bb57600080fd5b6118c7858286016114f4565b9250506118d784602085016114a6565b90509250929050565b6020815260008251608060208401526118fc60a08401826117aa565b90506020840151601f1984830301604085015261191982826117aa565b915050604084015161192e606085018261179b565b509392505050565b600081518084526020808501945080840160005b838110156117e45761195d87835161179b565b604096909601959082019060010161194a565b61197a818661179b565b611987604082018561179b565b60c06080820152600061199d60c0830185611936565b82810360a08401526119af8185611936565b979650505050505050565b634e487b7160e01b600052601260045260246000fd5b6000826119df576119df6119ba565b500690565b634e487b7160e01b600052603260045260246000fd5b634e487b7160e01b600052601160045260246000fd5b600060018201611a2257611a226119fa565b5060010190565b600060208284031215611a3b57600080fd5b5051919050565b80820180821115610444576104446119fa565b81810381811115610444576104446119fa565b600082611a7757611a776119ba565b50049056fe30644e72e131a029b85045b68181585d97816a916871ca8d3c208c16d87cfd4730644e72e131a029b85045b68181585d2833e84879b9709143e1f593f0000001a26469706673582212207e0e578a079e64f04324ea692a2b76f1329b71930ff1dfde981c39390b089feb64736f6c63430008130033",
  "immutableReferences": {},
  "source": "// SPDX-License-Identifier: GPL-3.0\npragma solidity >=0.4.0 <0.9.0;\n\nimport \"../lib/alt_bn128.sol\";\n\ncontract OneofMany {\n  using alt_bn128 for uint256;\n  using alt_bn128 for alt_bn128.G1Point;\n\n  struct Param {\n    alt_bn128.G1Point[] gs; // log(N) generators\n    alt_bn128.G1Point[] cs; // N commitments (one is zero)\n    alt_bn128.G1Point h; // g_ok\n  }\n\n  struct Sig {\n    alt_bn128.G1Point cv;\n    alt_bn128.G1Point ct;\n    alt_bn128.G1Point[] cds; // log(N) commitments\n    uint256[] fs; // log(N)\n    uint256 u;\n    uint256 s;\n  }\n\n  function param(\n    alt_bn128.G1Point[] memory cs, \n    alt_bn128.G1Point memory h\n  ) public view returns (Param memory pp) {\n    pp.gs = new alt_bn128.G1Point[](log2(cs.length));\n    pp.cs = cs;\n    pp.h = h;\n    for (uint i = 0; i < pp.gs.length; i++) {\n      pp.gs[i] = alt_bn128.random().uintToCurvePoint();\n    }\n  }\n\n  /// @param r_theta sk of c_theta\n  /// @param theta position in ring\n  function sign(\n    Param memory pp, \n    uint256 r_theta, \n    uint256 theta\n  ) public view returns (Sig memory sig) {\n    uint N = pp.cs.length;\n    uint log_n = log2(N);\n\n    uint256 rv = alt_bn128.random();\n    uint256 rt = alt_bn128.random();\n\n    uint256[] memory rds = new uint256[](log_n);\n\n    sig.fs = new uint256[](log_n); // ml\n    sig.cv = pp.h.mul(rv); // h^rv\n    sig.ct = pp.h.mul(rt); // h^rt\n\n    uint[] memory theta_bits = new uint[](log_n);\n    for (uint i = 0; i < log_n; i++) {\n      sig.fs[i] = alt_bn128.random();\n      rds[i] = alt_bn128.random();\n\n      theta_bits[i] = check_bit(theta, i) ? 1 : 0;\n      /// @dev cv = g_l^{(1-2\\theta_l)m_l}\n      sig.cv = sig.cv.add(pp.gs[i].mul(\n        alt_bn128.sub(1, theta_bits[i].mul(2)).mul(sig.fs[i])\n      )); \n      /// @dev ct = g_l^{-m_l^2}\n      sig.ct = sig.ct.add(pp.gs[i].mul(\n        sig.fs[i].modExp(2).neg()\n      )); \n    }\n\n    // uint256[][] memory ps = new uint256[][](N);\n    // uint256[] memory pis;\n    // uint256[] memory term;\n\n    // for (uint i = 0; i < N; i++) {\n    //   pis = new uint256[](log_n);\n    //   pis[0] = 1; // identity\n    //   for (uint j = 0; j < log_n; j++){\n    //     term = new uint256[](2);\n    //     if (check_bit(i, j)) { // i's jth bit = 1\n    //       // delta_{1 \\theta_j} x + a_j\n    //       term[0] = sig.fs[j];\n    //       term[1] = theta_bits[j] == 1 ? 1 : 0;\n    //     } else { // i's jth bit = 0\n    //       // delta_{0 \\theta_j} x - a_j\n    //       term[0] = sig.fs[j].neg();\n    //       term[1] = theta_bits[j] == 0 ? 1 : 0;\n    //     }\n    //     // multiply all f_{j, i_j} for index j \n    //     pis = poly_mul(pis, term); \n    //   }\n    //   ps[i] = pis;\n    // }\n\n    uint256[][] memory ps = compute_pis(sig.fs, theta_bits, N);\n\n    for (uint l = 0; l < log_n; l++) {\n      sig.cds[l] = pp.h.mul(rds[l]); // h^rd\n      for (uint i = 0; i < N; i++) {\n        sig.cds[l] = sig.cds[l].add(pp.cs[i].mul(ps[i][l])); // c_i^p_{i,l}\n      }\n    }\n\n    uint256 x = uint256(keccak256(abi.encode(sig.cv, sig.ct, sig.cds, pp.cs))) % alt_bn128.q;\n\n    uint256 s = 0;\n    for (uint l = 0; l < log_n; l++) {\n      sig.fs[l] = sig.fs[l].add(theta_bits[l].mul(x));\n      s = s.add(rds[l].mul(x.modExp(l)));\n    }\n    sig.u = rt.add(rv.mul(x));\n    sig.s = r_theta.mul(x.modExp(log_n)).sub(s);\n  }\n\n  function verify(Param memory pp, Sig memory sig) public view returns (bool) {\n    uint N = pp.cs.length;\n    uint log_n = log2(N);\n    uint256 x = uint256(keccak256(abi.encode(sig.cv, sig.ct, sig.cds, pp.cs))) % alt_bn128.q;\n\n    alt_bn128.G1Point memory L1 = pp.h.mul(sig.u);\n    for (uint l = 0; l < log_n; l++){\n      L1 = L1.add(pp.gs[l].mul(sig.fs[l].mul(x.sub(sig.fs[l]))));\n    }\n\n    alt_bn128.G1Point memory R1 = sig.ct.add(sig.cv.mul(x));\n\n    bool b1 = alt_bn128.eq(L1, R1);\n    require(b1, \"OneofMany : b1 failed\");\n\n    alt_bn128.G1Point memory L2 = pp.h.mul(sig.s);\n\n    alt_bn128.G1Point memory R2 = alt_bn128.G1Point(0, 0);\n\n    for (uint i = 0; i < N; i++) {\n      uint256 f = 1;\n      for (uint l = 0; l < log_n; l++) {\n        if (check_bit(i, l)) { // i's lth bit = 1\n          f = f.mul(sig.fs[l]);\n        } else { // i's lth bit = 0\n          f = f.mul(x.sub(sig.fs[l]));\n        }\n      }\n      R2 = R2.add(pp.cs[i].mul(f));\n    }\n\n    for (uint l = 0; l < log_n; l++) {\n      R2 = R2.add(sig.cds[l].mul(x.modExp(l)).neg());\n    }\n\n    bool b2 = alt_bn128.eq(L2, R2);\n    require(b2, \"OneofMany : b2 failed\");\n\n    return b1 && b2;\n  }\n\n  function compute_pis(\n    uint256[] memory fs,\n    uint256[] memory theta_bits,\n    uint256 N\n  ) private pure returns (uint256[][] memory ps) {\n    uint log_n = log2(N);\n    ps = new uint256[][](N);\n    uint256[] memory pis;\n    uint256[] memory term;\n\n    for (uint i = 0; i < N; i++) {\n      pis = new uint256[](log_n);\n      pis[0] = 1; // identity\n      for (uint j = 0; j < log_n; j++){\n        term = new uint256[](2);\n        if (check_bit(i, j)) { // i's jth bit = 1\n          // delta_{1 \\theta_j} x + a_j\n          term[0] = fs[j];\n          term[1] = theta_bits[j] == 1 ? 1 : 0;\n        } else { // i's jth bit = 0\n          // delta_{0 \\theta_j} x - a_j\n          term[0] = fs[j].neg();\n          term[1] = theta_bits[j] == 0 ? 1 : 0;\n        }\n        // multiply all f_{j, i_j} for index j \n        pis = poly_mul(pis, term); \n      }\n      ps[i] = pis;\n    }\n\n  }\n\n  function poly_mul(uint256[] memory p1, uint256[] memory p2) private pure returns (uint256[] memory p){\n    p = new uint256[](p1.length + p2.length - 1);\n    for (uint i = 0; i < p1.length; i++) {\n      for (uint j = 0; j < p2.length; j++) {\n        p[i+j] = p[i+j].add(p1[i].mul(p2[j]));\n      }\n    }\n    /// 1x^2, 2x, 3; length = 3\n    /// 4x^2, 5x, 6; length = 3\n    /// => length = 5\n  }\n\n  function log2(uint x) private pure returns (uint n) {\n    for (n = 0; x > 1; x >>= 1) n += 1;\n  }\n\n  /// @dev check if jth bit of i is 1\n  function check_bit(uint i, uint j) private pure returns (bool) {\n    return ((i >> j) & 1) == 1;\n    // (i & (1 << j)) != 0\n  } \n\n}",
  "sourcePath": "/Users/qian/Desktop/Y4/COMP4550/project/XCSwap/contracts/ZKP/OneofMany.sol",
  "compiler": {
    "name": "solc",
    "version": "0.8.19+commit.7dd6d404.Emscripten.clang"
  },
  "schemaVersion": "3.4.13",
  "updatedAt": "2023-08-11T13:10:46.835Z",
  "devdoc": {
    "kind": "dev",
    "methods": {
      "sign(((uint256,uint256)[],(uint256,uint256)[],(uint256,uint256)),uint256,uint256)": {
        "params": {
          "r_theta": "sk of c_theta",
          "theta": "position in ring"
        }
      }
    },
    "version": 1
  },
  "userdoc": {
    "kind": "user",
    "methods": {},
    "version": 1
  }
}