{
  "contractName": "OneofMany",
  "abi": [
    {
      "inputs": [
        {
          "internalType": "uint256",
          "name": "size",
          "type": "uint256"
        },
        {
          "internalType": "uint256[2]",
          "name": "skj",
          "type": "uint256[2]"
        }
      ],
      "name": "setup",
      "outputs": [
        {
          "components": [
            {
              "components": [
                {
                  "internalType": "uint256",
                  "name": "X",
                  "type": "uint256"
                },
                {
                  "internalType": "uint256",
                  "name": "Y",
                  "type": "uint256"
                }
              ],
              "internalType": "struct alt_bn128.G1Point[]",
              "name": "gs",
              "type": "tuple[]"
            },
            {
              "components": [
                {
                  "internalType": "uint256",
                  "name": "X",
                  "type": "uint256"
                },
                {
                  "internalType": "uint256",
                  "name": "Y",
                  "type": "uint256"
                }
              ],
              "internalType": "struct alt_bn128.G1Point[]",
              "name": "cs",
              "type": "tuple[]"
            },
            {
              "components": [
                {
                  "internalType": "uint256",
                  "name": "X",
                  "type": "uint256"
                },
                {
                  "internalType": "uint256",
                  "name": "Y",
                  "type": "uint256"
                }
              ],
              "internalType": "struct alt_bn128.G1Point",
              "name": "h",
              "type": "tuple"
            }
          ],
          "internalType": "struct OneofMany.Param",
          "name": "pp",
          "type": "tuple"
        }
      ],
      "stateMutability": "view",
      "type": "function",
      "constant": true
    },
    {
      "inputs": [
        {
          "components": [
            {
              "internalType": "uint256",
              "name": "X",
              "type": "uint256"
            },
            {
              "internalType": "uint256",
              "name": "Y",
              "type": "uint256"
            }
          ],
          "internalType": "struct alt_bn128.G1Point[]",
          "name": "gs",
          "type": "tuple[]"
        },
        {
          "components": [
            {
              "internalType": "uint256",
              "name": "X",
              "type": "uint256"
            },
            {
              "internalType": "uint256",
              "name": "Y",
              "type": "uint256"
            }
          ],
          "internalType": "struct alt_bn128.G1Point[]",
          "name": "cs",
          "type": "tuple[]"
        },
        {
          "components": [
            {
              "internalType": "uint256",
              "name": "X",
              "type": "uint256"
            },
            {
              "internalType": "uint256",
              "name": "Y",
              "type": "uint256"
            }
          ],
          "internalType": "struct alt_bn128.G1Point",
          "name": "h",
          "type": "tuple"
        }
      ],
      "name": "param",
      "outputs": [
        {
          "components": [
            {
              "components": [
                {
                  "internalType": "uint256",
                  "name": "X",
                  "type": "uint256"
                },
                {
                  "internalType": "uint256",
                  "name": "Y",
                  "type": "uint256"
                }
              ],
              "internalType": "struct alt_bn128.G1Point[]",
              "name": "gs",
              "type": "tuple[]"
            },
            {
              "components": [
                {
                  "internalType": "uint256",
                  "name": "X",
                  "type": "uint256"
                },
                {
                  "internalType": "uint256",
                  "name": "Y",
                  "type": "uint256"
                }
              ],
              "internalType": "struct alt_bn128.G1Point[]",
              "name": "cs",
              "type": "tuple[]"
            },
            {
              "components": [
                {
                  "internalType": "uint256",
                  "name": "X",
                  "type": "uint256"
                },
                {
                  "internalType": "uint256",
                  "name": "Y",
                  "type": "uint256"
                }
              ],
              "internalType": "struct alt_bn128.G1Point",
              "name": "h",
              "type": "tuple"
            }
          ],
          "internalType": "struct OneofMany.Param",
          "name": "pp",
          "type": "tuple"
        }
      ],
      "stateMutability": "pure",
      "type": "function",
      "constant": true
    },
    {
      "inputs": [
        {
          "components": [
            {
              "components": [
                {
                  "internalType": "uint256",
                  "name": "X",
                  "type": "uint256"
                },
                {
                  "internalType": "uint256",
                  "name": "Y",
                  "type": "uint256"
                }
              ],
              "internalType": "struct alt_bn128.G1Point[]",
              "name": "gs",
              "type": "tuple[]"
            },
            {
              "components": [
                {
                  "internalType": "uint256",
                  "name": "X",
                  "type": "uint256"
                },
                {
                  "internalType": "uint256",
                  "name": "Y",
                  "type": "uint256"
                }
              ],
              "internalType": "struct alt_bn128.G1Point[]",
              "name": "cs",
              "type": "tuple[]"
            },
            {
              "components": [
                {
                  "internalType": "uint256",
                  "name": "X",
                  "type": "uint256"
                },
                {
                  "internalType": "uint256",
                  "name": "Y",
                  "type": "uint256"
                }
              ],
              "internalType": "struct alt_bn128.G1Point",
              "name": "h",
              "type": "tuple"
            }
          ],
          "internalType": "struct OneofMany.Param",
          "name": "pp",
          "type": "tuple"
        },
        {
          "internalType": "uint256[2]",
          "name": "skj",
          "type": "uint256[2]"
        }
      ],
      "name": "sign",
      "outputs": [
        {
          "components": [
            {
              "components": [
                {
                  "internalType": "uint256",
                  "name": "X",
                  "type": "uint256"
                },
                {
                  "internalType": "uint256",
                  "name": "Y",
                  "type": "uint256"
                }
              ],
              "internalType": "struct alt_bn128.G1Point",
              "name": "cv",
              "type": "tuple"
            },
            {
              "components": [
                {
                  "internalType": "uint256",
                  "name": "X",
                  "type": "uint256"
                },
                {
                  "internalType": "uint256",
                  "name": "Y",
                  "type": "uint256"
                }
              ],
              "internalType": "struct alt_bn128.G1Point",
              "name": "ct",
              "type": "tuple"
            },
            {
              "components": [
                {
                  "internalType": "uint256",
                  "name": "X",
                  "type": "uint256"
                },
                {
                  "internalType": "uint256",
                  "name": "Y",
                  "type": "uint256"
                }
              ],
              "internalType": "struct alt_bn128.G1Point[]",
              "name": "cds",
              "type": "tuple[]"
            },
            {
              "internalType": "uint256[]",
              "name": "fs",
              "type": "uint256[]"
            },
            {
              "internalType": "uint256",
              "name": "u",
              "type": "uint256"
            },
            {
              "internalType": "uint256",
              "name": "s",
              "type": "uint256"
            }
          ],
          "internalType": "struct OneofMany.Sig",
          "name": "sig",
          "type": "tuple"
        }
      ],
      "stateMutability": "view",
      "type": "function",
      "constant": true
    },
    {
      "inputs": [
        {
          "components": [
            {
              "components": [
                {
                  "internalType": "uint256",
                  "name": "X",
                  "type": "uint256"
                },
                {
                  "internalType": "uint256",
                  "name": "Y",
                  "type": "uint256"
                }
              ],
              "internalType": "struct alt_bn128.G1Point[]",
              "name": "gs",
              "type": "tuple[]"
            },
            {
              "components": [
                {
                  "internalType": "uint256",
                  "name": "X",
                  "type": "uint256"
                },
                {
                  "internalType": "uint256",
                  "name": "Y",
                  "type": "uint256"
                }
              ],
              "internalType": "struct alt_bn128.G1Point[]",
              "name": "cs",
              "type": "tuple[]"
            },
            {
              "components": [
                {
                  "internalType": "uint256",
                  "name": "X",
                  "type": "uint256"
                },
                {
                  "internalType": "uint256",
                  "name": "Y",
                  "type": "uint256"
                }
              ],
              "internalType": "struct alt_bn128.G1Point",
              "name": "h",
              "type": "tuple"
            }
          ],
          "internalType": "struct OneofMany.Param",
          "name": "pp",
          "type": "tuple"
        },
        {
          "components": [
            {
              "components": [
                {
                  "internalType": "uint256",
                  "name": "X",
                  "type": "uint256"
                },
                {
                  "internalType": "uint256",
                  "name": "Y",
                  "type": "uint256"
                }
              ],
              "internalType": "struct alt_bn128.G1Point",
              "name": "cv",
              "type": "tuple"
            },
            {
              "components": [
                {
                  "internalType": "uint256",
                  "name": "X",
                  "type": "uint256"
                },
                {
                  "internalType": "uint256",
                  "name": "Y",
                  "type": "uint256"
                }
              ],
              "internalType": "struct alt_bn128.G1Point",
              "name": "ct",
              "type": "tuple"
            },
            {
              "components": [
                {
                  "internalType": "uint256",
                  "name": "X",
                  "type": "uint256"
                },
                {
                  "internalType": "uint256",
                  "name": "Y",
                  "type": "uint256"
                }
              ],
              "internalType": "struct alt_bn128.G1Point[]",
              "name": "cds",
              "type": "tuple[]"
            },
            {
              "internalType": "uint256[]",
              "name": "fs",
              "type": "uint256[]"
            },
            {
              "internalType": "uint256",
              "name": "u",
              "type": "uint256"
            },
            {
              "internalType": "uint256",
              "name": "s",
              "type": "uint256"
            }
          ],
          "internalType": "struct OneofMany.Sig",
          "name": "sig",
          "type": "tuple"
        }
      ],
      "name": "verify",
      "outputs": [
        {
          "internalType": "bool",
          "name": "",
          "type": "bool"
        }
      ],
      "stateMutability": "view",
      "type": "function",
      "constant": true
    }
  ],
  "bytecode": "0x608060405234801561001057600080fd5b50611e5d806100206000396000f3fe608060405234801561001057600080fd5b506004361061004c5760003560e01c806329db8191146100515780636ba555881461007a57806386a0a4a21461009d578063f4f4b609146100bd575b600080fd5b61006461005f366004611838565b6100d0565b6040516100719190611900565b60405180910390f35b61008d610088366004611a4c565b6100f5565b6040519015158152602001610071565b6100b06100ab366004611b8c565b610491565b6040516100719190611bda565b6100646100cb366004611c7d565b610bb1565b6100d86115e7565b506040805160608101825293845260208401929092529082015290565b6020820151516000908161010882610ef8565b90506000600080516020611e0883398151915285600001518660200151876040015189602001516040516020016101429493929190611cdb565b6040516020818303038152906040528051906020012060001c6101659190611d3b565b9050600061018486608001518860400151610f2290919063ffffffff16565b905060005b8381101561023b576102276102206101f66101ca8a6060015185815181106101b3576101b3611d4f565b602002602001015187610f8a90919063ffffffff16565b8a6060015185815181106101e0576101e0611d4f565b6020026020010151610fcd90919063ffffffff16565b8a5180518590811061020a5761020a611d4f565b6020026020010151610f2290919063ffffffff16565b8390610fe8565b91508061023381611d7b565b915050610189565b50855160009061025a9061024f9085610f22565b602089015190610fe8565b90506000610268838361102d565b9050806102b45760405162461bcd60e51b815260206004820152601560248201527413db995bd993585b9e480e88188c4819985a5b1959605a1b60448201526064015b60405180910390fd5b60006102d18960a001518b60400151610f2290919063ffffffff16565b905060006040518060400160405280600081526020016000815250905060005b888110156103d357600160005b8981101561039857600183821c811603610349576103428d60600151828151811061032b5761032b611d4f565b602002602001015183610fcd90919063ffffffff16565b9150610386565b61038361037c8e60600151838151811061036557610365611d4f565b60200260200101518b610f8a90919063ffffffff16565b8390610fcd565b91505b8061039081611d7b565b9150506102fe565b506103bd6103b6828f60200151858151811061020a5761020a611d4f565b8490610fe8565b92505080806103cb90611d7b565b9150506102f1565b5060005b878110156104215761040d6102206104086103f28a8561104a565b8e60400151858151811061020a5761020a611d4f565b611065565b91508061041981611d7b565b9150506103d7565b50600061042e838361102d565b9050806104755760405162461bcd60e51b815260206004820152601560248201527413db995bd993585b9e480e88188c8819985a5b1959605a1b60448201526064016102ab565b83801561047f5750805b99505050505050505050505b92915050565b61049961160d565b60208301515160006104aa82610ef8565b9050600073__alt_bn128_____________________________635ec01e4d6040518163ffffffff1660e01b8152600401602060405180830381865af41580156104f7573d6000803e3d6000fd5b505050506040513d601f19601f8201168201806040525081019061051b9190611d94565b9050600073__alt_bn128_____________________________635ec01e4d6040518163ffffffff1660e01b8152600401602060405180830381865af4158015610568573d6000803e3d6000fd5b505050506040513d601f19601f8201168201806040525081019061058c9190611d94565b90506000836001600160401b038111156105a8576105a86116e1565b6040519080825280602002602001820160405280156105d1578160200160208202803683370190505b509050836001600160401b038111156105ec576105ec6116e1565b604051908082528060200260200182016040528015610615578160200160208202803683370190505b506060870152604088015161062a9084610f22565b8652604088015161063b9083610f22565b60208701526000846001600160401b0381111561065a5761065a6116e1565b604051908082528060200260200182016040528015610683578160200160208202803683370190505b50905060005b858110156108c25773__alt_bn128_____________________________635ec01e4d6040518163ffffffff1660e01b8152600401602060405180830381865af41580156106da573d6000803e3d6000fd5b505050506040513d601f19601f820116820180604052508101906106fe9190611d94565b8860600151828151811061071457610714611d4f565b60200260200101818152505073__alt_bn128_____________________________635ec01e4d6040518163ffffffff1660e01b8152600401602060405180830381865af4158015610769573d6000803e3d6000fd5b505050506040513d601f19601f8201168201806040525081019061078d9190611d94565b83828151811061079f5761079f611d4f565b60209081029190910101526107c08960016020020151821c60019081161490565b6107cb5760006107ce565b60015b60ff168282815181106107e3576107e3611d4f565b60200260200101818152505061085961085161083d8a60600151848151811061080e5761080e611d4f565b6020026020010151610837600161083260028989815181106101e0576101e0611d4f565b610f8a565b90610fcd565b8c5180518590811061020a5761020a611d4f565b895190610fe8565b88600001819052506108ab6108a061083d61089b60028c60600151868151811061088557610885611d4f565b602002602001015161104a90919063ffffffff16565b6110d7565b60208a015190610fe8565b6020890152806108ba81611d7b565b915050610689565b5060006108d4886060015183896110f1565b9050856001600160401b038111156108ee576108ee6116e1565b60405190808252806020026020018201604052801561092757816020015b61091461164f565b81526020019060019003908161090c5790505b50604089015260005b86811015610a565761096884828151811061094d5761094d611d4f565b60200260200101518c60400151610f2290919063ffffffff16565b8960400151828151811061097e5761097e611d4f565b602002602001018190525060005b88811015610a4357610a0f6109e38483815181106109ac576109ac611d4f565b602002602001015184815181106109c5576109c5611d4f565b60200260200101518e60200151848151811061020a5761020a611d4f565b8b6040015184815181106109f9576109f9611d4f565b6020026020010151610fe890919063ffffffff16565b8a604001518381518110610a2557610a25611d4f565b60200260200101819052508080610a3b90611d7b565b91505061098c565b5080610a4e81611d7b565b915050610930565b506000600080516020611e0883398151915289600001518a602001518b604001518e60200151604051602001610a8f9493929190611cdb565b6040516020818303038152906040528051906020012060001c610ab29190611d3b565b90506000805b88811015610b6357610b05610ad9848784815181106101e0576101e0611d4f565b8c606001518381518110610aef57610aef611d4f565b602002602001015161136d90919063ffffffff16565b8b606001518281518110610b1b57610b1b611d4f565b6020908102919091010152610b4f610b48610b36858461104a565b8884815181106101e0576101e0611d4f565b839061136d565b915080610b5b81611d7b565b915050610ab8565b50610b78610b718884610fcd565b879061136d565b60808b0152610b9c81610b96610b8e858c61104a565b8e5190610fcd565b90610f8a565b60a08b015250979a9950505050505050505050565b610bb96115e7565b60208201518311610c0b5760405162461bcd60e51b815260206004820152601c60248201527b13db995bd993585b9e480e881cdada881bdd5d081bd988189bdd5b9960221b60448201526064016102ab565b610c16600184611dad565b831615610c755760405162461bcd60e51b815260206004820152602760248201527f4f6e656f664d616e79203a2073697a652073686f756c64206265206120706f7760448201526632b91037b3101960c91b60648201526084016102ab565b610c7e83610ef8565b6001600160401b03811115610c9557610c956116e1565b604051908082528060200260200182016040528015610cce57816020015b610cbb61164f565b815260200190600190039081610cb35790505b508152826001600160401b03811115610ce957610ce96116e1565b604051908082528060200260200182016040528015610d2257816020015b610d0f61164f565b815260200190600190039081610d075790505b508160200181905250610da073__alt_bn128_____________________________635ec01e4d6040518163ffffffff1660e01b8152600401602060405180830381865af4158015610d77573d6000803e3d6000fd5b505050506040513d601f19601f82011682018060405250810190610d9b9190611d94565b611388565b604082015260005b815151811015610e3057610dfe73__alt_bn128_____________________________635ec01e4d6040518163ffffffff1660e01b8152600401602060405180830381865af4158015610d77573d6000803e3d6000fd5b8251805183908110610e1257610e12611d4f565b60200260200101819052508080610e2890611d7b565b915050610da8565b5060005b83811015610ebc57610e8873__alt_bn128_____________________________635ec01e4d6040518163ffffffff1660e01b8152600401602060405180830381865af4158015610d77573d6000803e3d6000fd5b82602001518281518110610e9e57610e9e611d4f565b60200260200101819052508080610eb490611d7b565b915050610e34565b5081516040820151610ecd91610f22565b6020828101519084015181518110610ee757610ee7611d4f565b602002602001018190525092915050565b60005b6001821115610f1d57610f0f600182611dc0565b9050600182901c9150610efb565b919050565b610f2a61164f565b81600103610f3957508161048b565b81600203610f5257610f4b8384610fe8565b905061048b565b610f5a611669565b83518152602080850151908201526040808201849052826060836007600019fa610f8357600080fd5b5092915050565b600081831015610fbc5782610fad83600080516020611e08833981519152611dad565b610fb79190611dc0565b610fc6565b610fc68284611dad565b9392505050565b6000600080516020611e088339815191528284099392505050565b610ff061164f565b610ff8611687565b83518152602080850151818301528351604080840191909152908401516060830152826080836006600019fa610f8357600080fd5b80518251600091148015610fc65750506020908101519101511490565b6000610fc68383600080516020611e08833981519152611482565b61106d61164f565b815115801561107e57506020820151155b1561109c575050604080518082019091526000808252602082015290565b6040518060400160405280836000015181526020018360200151600080516020611de88339815191526110cf9190611dad565b905292915050565b600061048b82600080516020611e08833981519152611dad565b606060006110fe83610ef8565b9050826001600160401b03811115611118576111186116e1565b60405190808252806020026020018201604052801561114b57816020015b60608152602001906001900390816111365790505b50915060608060005b8581101561136257836001600160401b03811115611174576111746116e1565b60405190808252806020026020018201604052801561119d578160200160208202803683370190505b5092506001836000815181106111b5576111b5611d4f565b60200260200101818152505060005b84811015611330576040805160028082526060820183529091602083019080368337019050509250600182821c8116036112835788818151811061120a5761120a611d4f565b60200260200101518360008151811061122557611225611d4f565b60200260200101818152505087818151811061124357611243611d4f565b602002602001015160011461125957600061125c565b60015b60ff168360018151811061127257611272611d4f565b602002602001018181525050611312565b6112a589828151811061129857611298611d4f565b60200260200101516110d7565b836000815181106112b8576112b8611d4f565b6020026020010181815250508781815181106112d6576112d6611d4f565b60200260200101516000146112ec5760006112ef565b60015b60ff168360018151811061130557611305611d4f565b6020026020010181815250505b61131c84846114d8565b93508061132881611d7b565b9150506111c4565b508285828151811061134457611344611d4f565b6020026020010181905250808061135a90611d7b565b915050611154565b505050509392505050565b6000600080516020611e088339815191528284089392505050565b61139061164f565b60006113aa600080516020611de883398151915284611d3b565b905060006113b9600183611dad565b91506000805b81611468576113cf600185611dc0565b9350600080516020611de88339815191528485099050600080516020611de88339815191528482099050600080516020611de883398151915260038208905061144b81600461142d600080516020611de88339815191526001611dc0565b6114379190611dd3565b600080516020611de8833981519152611482565b925080600080516020611de88339815191528485091491506113bf565b505060408051808201909152918252602082015292915050565b600061148c6116a5565b6114946116c3565b602080835282810181905260408301819052606083018790526080830186905260a083018590528160c0846005600019fa6114ce57600080fd5b5195945050505050565b60606001825184516114ea9190611dc0565b6114f49190611dad565b6001600160401b0381111561150b5761150b6116e1565b604051908082528060200260200182016040528015611534578160200160208202803683370190505b50905060005b8351811015610f835760005b83518110156115d45761159c61158185838151811061156757611567611d4f565b60200260200101518785815181106101e0576101e0611d4f565b8461158c8486611dc0565b81518110610aef57610aef611d4f565b836115a78385611dc0565b815181106115b7576115b7611d4f565b6020908102919091010152806115cc81611d7b565b915050611546565b50806115df81611d7b565b91505061153a565b6040518060600160405280606081526020016060815260200161160861164f565b905290565b6040518060c0016040528061162061164f565b815260200161162d61164f565b8152602001606081526020016060815260200160008152602001600081525090565b604051806040016040528060008152602001600081525090565b60405180606001604052806003906020820280368337509192915050565b60405180608001604052806004906020820280368337509192915050565b6040518060c001604052806006906020820280368337509192915050565b60405180602001604052806001906020820280368337509192915050565b634e487b7160e01b600052604160045260246000fd5b604080519081016001600160401b0381118282101715611719576117196116e1565b60405290565b60405160c081016001600160401b0381118282101715611719576117196116e1565b604051601f8201601f191681016001600160401b0381118282101715611769576117696116e1565b604052919050565b60006001600160401b0382111561178a5761178a6116e1565b5060051b60200190565b6000604082840312156117a657600080fd5b6117ae6116f7565b9050813581526020820135602082015292915050565b600082601f8301126117d557600080fd5b813560206117ea6117e583611771565b611741565b82815260069290921b8401810191818101908684111561180957600080fd5b8286015b8481101561182d5761181f8882611794565b83529183019160400161180d565b509695505050505050565b60008060006080848603121561184d57600080fd5b83356001600160401b038082111561186457600080fd5b611870878388016117c4565b9450602086013591508082111561188657600080fd5b50611893868287016117c4565b9250506118a38560408601611794565b90509250925092565b80518252602090810151910152565b600081518084526020808501945080840160005b838110156118f5576118e28783516118ac565b60409690960195908201906001016118cf565b509495945050505050565b60208152600082516080602084015261191c60a08401826118bb565b90506020840151601f1984830301604085015261193982826118bb565b915050604084015161194e60608501826118ac565b509392505050565b60006080828403121561196857600080fd5b604051606081016001600160401b03808211838310171561198b5761198b6116e1565b8160405282935084359150808211156119a357600080fd5b6119af868387016117c4565b835260208501359150808211156119c557600080fd5b506119d2858286016117c4565b6020830152506119e58460408501611794565b60408201525092915050565b600082601f830112611a0257600080fd5b81356020611a126117e583611771565b82815260059290921b84018101918181019086841115611a3157600080fd5b8286015b8481101561182d5780358352918301918301611a35565b60008060408385031215611a5f57600080fd5b82356001600160401b0380821115611a7657600080fd5b611a8286838701611956565b93506020850135915080821115611a9857600080fd5b908401906101008287031215611aad57600080fd5b611ab561171f565b611abf8784611794565b8152611ace8760408501611794565b6020820152608083013582811115611ae557600080fd5b611af1888286016117c4565b60408301525060a083013582811115611b0957600080fd5b611b15888286016119f1565b60608301525060c0830135608082015260e083013560a08201528093505050509250929050565b600082601f830112611b4d57600080fd5b611b556116f7565b806040840185811115611b6757600080fd5b845b81811015611b81578035845260209384019301611b69565b509095945050505050565b60008060608385031215611b9f57600080fd5b82356001600160401b03811115611bb557600080fd5b611bc185828601611956565b925050611bd18460208501611b3c565b90509250929050565b60006020808352611bee81840185516118ac565b80840151611bff60608501826118ac565b5060408401516101008060a0860152611c1c6101208601836118bb565b6060870151868203601f190160c0880152805180835290850193506000918501905b80831015611c5e5784518252938501936001929092019190850190611c3e565b50608088015160e088015260a090970151919095015250929392505050565b60008060608385031215611c9057600080fd5b82359150611bd18460208501611b3c565b600081518084526020808501945080840160005b838110156118f557611cc88783516118ac565b6040969096019590820190600101611cb5565b611ce581866118ac565b611cf260408201856118ac565b60c060808201526000611d0860c0830185611ca1565b82810360a0840152611d1a8185611ca1565b979650505050505050565b634e487b7160e01b600052601260045260246000fd5b600082611d4a57611d4a611d25565b500690565b634e487b7160e01b600052603260045260246000fd5b634e487b7160e01b600052601160045260246000fd5b600060018201611d8d57611d8d611d65565b5060010190565b600060208284031215611da657600080fd5b5051919050565b8181038181111561048b5761048b611d65565b8082018082111561048b5761048b611d65565b600082611de257611de2611d25565b50049056fe30644e72e131a029b85045b68181585d97816a916871ca8d3c208c16d87cfd4730644e72e131a029b85045b68181585d2833e84879b9709143e1f593f0000001a264697066735822122097978e4fbf95365805e261937b755e56154ac910b16e88698b38287f9ac3eb1b64736f6c63430008130033",
  "immutableReferences": {},
  "source": "// SPDX-License-Identifier: GPL-3.0\npragma solidity >=0.4.0 <0.9.0;\n\nimport \"../lib/alt_bn128.sol\";\n\ncontract OneofMany {\n  using alt_bn128 for uint256;\n  using alt_bn128 for alt_bn128.G1Point;\n\n  struct Param {\n    alt_bn128.G1Point[] gs; // log(N) generators\n    alt_bn128.G1Point[] cs; // N commitments (one is zero)\n    alt_bn128.G1Point h; // g_ok\n  }\n\n  struct Sig {\n    alt_bn128.G1Point cv;\n    alt_bn128.G1Point ct;\n    alt_bn128.G1Point[] cds; // log(N) commitments\n    uint256[] fs; // log(N)\n    uint256 u;\n    uint256 s;\n  }\n\n  function setup(uint256 size, uint256[2] memory skj) public view returns (Param memory pp) {\n    require(skj[1] < size, \"OneofMany : skj out of bound\");\n    require(size & (size - 1) == 0,\n      \"OneofMany : size should be a power of 2\"\n    );\n    pp.gs = new alt_bn128.G1Point[](log2(size));\n    pp.cs = new alt_bn128.G1Point[](size);\n    pp.h = alt_bn128.random().uintToCurvePoint();\n    for (uint i = 0; i < pp.gs.length; i++) {\n      pp.gs[i] = alt_bn128.random().uintToCurvePoint();\n    }\n    for (uint i = 0; i < size; i++) {\n      pp.cs[i] = alt_bn128.random().uintToCurvePoint();\n    }\n    pp.cs[skj[1]] = pp.h.mul(skj[0]); // zero commitment\n  }\n\n  /// @dev setup one of many proof\n  /// @param cs Ring\n  /// @param h g_ok in XCSwap\n  function param(\n    alt_bn128.G1Point[] memory gs,\n    alt_bn128.G1Point[] memory cs, \n    alt_bn128.G1Point memory h\n  ) public pure returns (Param memory pp) {\n    pp = Param({\n      gs : gs,\n      cs : cs,\n      h : h\n    });\n  }\n\n  /// @param skj (sk, theta)\n  function sign(Param memory pp, uint256[2] memory skj) public view returns (Sig memory sig) {\n    uint N = pp.cs.length;\n    uint log_n = log2(N);\n\n    uint256 rv = alt_bn128.random();\n    uint256 rt = alt_bn128.random();\n\n    uint256[] memory rds = new uint256[](log_n);\n\n    sig.fs = new uint256[](log_n); // ml\n    sig.cv = pp.h.mul(rv); // h^rv\n    sig.ct = pp.h.mul(rt); // h^rt\n\n    uint[] memory theta_bits = new uint[](log_n);\n    for (uint i = 0; i < log_n; i++) {\n      sig.fs[i] = alt_bn128.random();\n      rds[i] = alt_bn128.random();\n\n      theta_bits[i] = check_bit(skj[1], i) ? 1 : 0;\n      \n      /// @dev cv = g_l^{(1-2\\theta_l)m_l}\n      sig.cv = sig.cv.add(pp.gs[i].mul(\n        alt_bn128.sub(1, theta_bits[i].mul(2)).mul(sig.fs[i])\n      )); \n      \n      /// @dev ct = g_l^{-m_l^2}\n      sig.ct = sig.ct.add(pp.gs[i].mul(\n        sig.fs[i].modExp(2).neg()\n      )); \n    }\n\n    uint256[][] memory ps = compute_pis(sig.fs, theta_bits, N);\n\n    sig.cds = new alt_bn128.G1Point[](log_n);\n    for (uint l = 0; l < log_n; l++) {\n      sig.cds[l] = pp.h.mul(rds[l]); // h^rd\n      for (uint i = 0; i < N; i++) {\n        sig.cds[l] = sig.cds[l].add(pp.cs[i].mul(ps[i][l])); // c_i^p_{i,l}\n      }\n    }\n\n    uint256 x = uint256(keccak256(abi.encode(sig.cv, sig.ct, sig.cds, pp.cs))) % alt_bn128.q;\n\n    uint256 s = 0;\n    for (uint l = 0; l < log_n; l++) {\n      sig.fs[l] = sig.fs[l].add(theta_bits[l].mul(x));\n      s = s.add(rds[l].mul(x.modExp(l)));\n    }\n    sig.u = rt.add(rv.mul(x));\n    sig.s = skj[0].mul(x.modExp(log_n)).sub(s);\n  }\n\n  function verify(Param memory pp, Sig memory sig) public view returns (bool) {\n    uint N = pp.cs.length;\n    uint log_n = log2(N);\n    uint256 x = uint256(keccak256(abi.encode(sig.cv, sig.ct, sig.cds, pp.cs))) % alt_bn128.q;\n\n    alt_bn128.G1Point memory L1 = pp.h.mul(sig.u);\n    for (uint l = 0; l < log_n; l++){\n      L1 = L1.add(pp.gs[l].mul(sig.fs[l].mul(x.sub(sig.fs[l]))));\n    }\n\n    alt_bn128.G1Point memory R1 = sig.ct.add(sig.cv.mul(x));\n\n    bool b1 = alt_bn128.eq(L1, R1);\n    require(b1, \"OneofMany : b1 failed\");\n\n    alt_bn128.G1Point memory L2 = pp.h.mul(sig.s);\n\n    alt_bn128.G1Point memory R2 = alt_bn128.G1Point(0, 0);\n\n    for (uint i = 0; i < N; i++) {\n      uint256 f = 1;\n      for (uint l = 0; l < log_n; l++) {\n        if (check_bit(i, l)) { // i's lth bit = 1\n          f = f.mul(sig.fs[l]);\n        } else { // i's lth bit = 0\n          f = f.mul(x.sub(sig.fs[l]));\n        }\n      }\n      R2 = R2.add(pp.cs[i].mul(f));\n    }\n\n    for (uint l = 0; l < log_n; l++) {\n      R2 = R2.add(sig.cds[l].mul(x.modExp(l)).neg());\n    }\n\n    bool b2 = alt_bn128.eq(L2, R2);\n    require(b2, \"OneofMany : b2 failed\");\n\n    return b1 && b2;\n  }\n\n  function compute_pis(\n    uint256[] memory fs,\n    uint256[] memory theta_bits,\n    uint256 N\n  ) private pure returns (uint256[][] memory ps) {\n    uint log_n = log2(N);\n    ps = new uint256[][](N);\n    uint256[] memory pis;\n    uint256[] memory term;\n\n    for (uint i = 0; i < N; i++) {\n      pis = new uint256[](log_n);\n      pis[0] = 1; // identity\n      for (uint j = 0; j < log_n; j++){\n        term = new uint256[](2);\n        if (check_bit(i, j)) { // i's jth bit = 1\n          // delta_{1 \\theta_j} x + a_j\n          term[0] = fs[j];\n          term[1] = theta_bits[j] == 1 ? 1 : 0;\n        } else { // i's jth bit = 0\n          // delta_{0 \\theta_j} x - a_j\n          term[0] = fs[j].neg();\n          term[1] = theta_bits[j] == 0 ? 1 : 0;\n        }\n        // multiply all f_{j, i_j} for index j \n        pis = poly_mul(pis, term); \n      }\n      ps[i] = pis;\n    }\n\n  }\n\n  function poly_mul(uint256[] memory p1, uint256[] memory p2) private pure returns (uint256[] memory p){\n    p = new uint256[](p1.length + p2.length - 1);\n    for (uint i = 0; i < p1.length; i++) {\n      for (uint j = 0; j < p2.length; j++) {\n        p[i+j] = p[i+j].add(p1[i].mul(p2[j]));\n      }\n    }\n  }\n\n  function log2(uint x) private pure returns (uint n) {\n    for (n = 0; x > 1; x >>= 1) n += 1;\n  }\n\n  /// @dev check if jth bit of i is 1\n  function check_bit(uint i, uint j) private pure returns (bool) {\n    return ((i >> j) & 1) == 1;\n    // (i & (1 << j)) != 0\n  } \n\n}",
  "sourcePath": "/Users/qian/Desktop/Y4/COMP4550/project/XCSwap/contracts/ZKP/OneofMany.sol",
  "compiler": {
    "name": "solc",
    "version": "0.8.19+commit.7dd6d404.Emscripten.clang"
  },
  "schemaVersion": "3.4.13",
  "updatedAt": "2023-08-19T10:00:12.011Z",
  "networkType": "ethereum",
  "devdoc": {
    "kind": "dev",
    "methods": {
      "param((uint256,uint256)[],(uint256,uint256)[],(uint256,uint256))": {
        "details": "setup one of many proof",
        "params": {
          "cs": "Ring",
          "h": "g_ok in XCSwap"
        }
      },
      "sign(((uint256,uint256)[],(uint256,uint256)[],(uint256,uint256)),uint256[2])": {
        "params": {
          "skj": "(sk, theta)"
        }
      }
    },
    "version": 1
  },
  "userdoc": {
    "kind": "user",
    "methods": {},
    "version": 1
  }
}