{
  "contractName": "PartialEquality",
  "abi": [
    {
      "inputs": [
        {
          "components": [
            {
              "internalType": "uint256",
              "name": "X",
              "type": "uint256"
            },
            {
              "internalType": "uint256",
              "name": "Y",
              "type": "uint256"
            }
          ],
          "internalType": "struct alt_bn128.G1Point[]",
          "name": "gs",
          "type": "tuple[]"
        },
        {
          "internalType": "uint256[]",
          "name": "x",
          "type": "uint256[]"
        },
        {
          "internalType": "uint256[]",
          "name": "y",
          "type": "uint256[]"
        },
        {
          "internalType": "uint256[]",
          "name": "idx_ne",
          "type": "uint256[]"
        }
      ],
      "name": "sign",
      "outputs": [
        {
          "components": [
            {
              "components": [
                {
                  "internalType": "uint256",
                  "name": "X",
                  "type": "uint256"
                },
                {
                  "internalType": "uint256",
                  "name": "Y",
                  "type": "uint256"
                }
              ],
              "internalType": "struct alt_bn128.G1Point",
              "name": "c",
              "type": "tuple"
            },
            {
              "internalType": "uint256[]",
              "name": "zs",
              "type": "uint256[]"
            }
          ],
          "internalType": "struct PartialEquality.Sig",
          "name": "sig",
          "type": "tuple"
        }
      ],
      "stateMutability": "view",
      "type": "function"
    },
    {
      "inputs": [
        {
          "components": [
            {
              "internalType": "uint256",
              "name": "X",
              "type": "uint256"
            },
            {
              "internalType": "uint256",
              "name": "Y",
              "type": "uint256"
            }
          ],
          "internalType": "struct alt_bn128.G1Point[]",
          "name": "gs",
          "type": "tuple[]"
        },
        {
          "internalType": "uint256[]",
          "name": "x",
          "type": "uint256[]"
        },
        {
          "internalType": "uint256[]",
          "name": "y",
          "type": "uint256[]"
        }
      ],
      "name": "sign",
      "outputs": [
        {
          "components": [
            {
              "components": [
                {
                  "internalType": "uint256",
                  "name": "X",
                  "type": "uint256"
                },
                {
                  "internalType": "uint256",
                  "name": "Y",
                  "type": "uint256"
                }
              ],
              "internalType": "struct alt_bn128.G1Point",
              "name": "c",
              "type": "tuple"
            },
            {
              "internalType": "uint256[]",
              "name": "zs",
              "type": "uint256[]"
            }
          ],
          "internalType": "struct PartialEquality.Sig",
          "name": "sig",
          "type": "tuple"
        }
      ],
      "stateMutability": "view",
      "type": "function"
    },
    {
      "inputs": [
        {
          "components": [
            {
              "internalType": "uint256",
              "name": "X",
              "type": "uint256"
            },
            {
              "internalType": "uint256",
              "name": "Y",
              "type": "uint256"
            }
          ],
          "internalType": "struct alt_bn128.G1Point[]",
          "name": "gs",
          "type": "tuple[]"
        },
        {
          "internalType": "uint256[]",
          "name": "idx_ne",
          "type": "uint256[]"
        },
        {
          "components": [
            {
              "internalType": "uint256",
              "name": "X",
              "type": "uint256"
            },
            {
              "internalType": "uint256",
              "name": "Y",
              "type": "uint256"
            }
          ],
          "internalType": "struct alt_bn128.G1Point",
          "name": "Cx",
          "type": "tuple"
        },
        {
          "components": [
            {
              "internalType": "uint256",
              "name": "X",
              "type": "uint256"
            },
            {
              "internalType": "uint256",
              "name": "Y",
              "type": "uint256"
            }
          ],
          "internalType": "struct alt_bn128.G1Point",
          "name": "Cy",
          "type": "tuple"
        },
        {
          "components": [
            {
              "components": [
                {
                  "internalType": "uint256",
                  "name": "X",
                  "type": "uint256"
                },
                {
                  "internalType": "uint256",
                  "name": "Y",
                  "type": "uint256"
                }
              ],
              "internalType": "struct alt_bn128.G1Point",
              "name": "c",
              "type": "tuple"
            },
            {
              "internalType": "uint256[]",
              "name": "zs",
              "type": "uint256[]"
            }
          ],
          "internalType": "struct PartialEquality.Sig",
          "name": "sig",
          "type": "tuple"
        }
      ],
      "name": "verify",
      "outputs": [
        {
          "internalType": "bool",
          "name": "",
          "type": "bool"
        }
      ],
      "stateMutability": "view",
      "type": "function"
    },
    {
      "inputs": [
        {
          "components": [
            {
              "internalType": "uint256",
              "name": "X",
              "type": "uint256"
            },
            {
              "internalType": "uint256",
              "name": "Y",
              "type": "uint256"
            }
          ],
          "internalType": "struct alt_bn128.G1Point[]",
          "name": "gs",
          "type": "tuple[]"
        },
        {
          "components": [
            {
              "internalType": "uint256",
              "name": "X",
              "type": "uint256"
            },
            {
              "internalType": "uint256",
              "name": "Y",
              "type": "uint256"
            }
          ],
          "internalType": "struct alt_bn128.G1Point",
          "name": "Cx",
          "type": "tuple"
        },
        {
          "components": [
            {
              "internalType": "uint256",
              "name": "X",
              "type": "uint256"
            },
            {
              "internalType": "uint256",
              "name": "Y",
              "type": "uint256"
            }
          ],
          "internalType": "struct alt_bn128.G1Point",
          "name": "Cy",
          "type": "tuple"
        },
        {
          "components": [
            {
              "components": [
                {
                  "internalType": "uint256",
                  "name": "X",
                  "type": "uint256"
                },
                {
                  "internalType": "uint256",
                  "name": "Y",
                  "type": "uint256"
                }
              ],
              "internalType": "struct alt_bn128.G1Point",
              "name": "c",
              "type": "tuple"
            },
            {
              "internalType": "uint256[]",
              "name": "zs",
              "type": "uint256[]"
            }
          ],
          "internalType": "struct PartialEquality.Sig",
          "name": "sig",
          "type": "tuple"
        }
      ],
      "name": "verify",
      "outputs": [
        {
          "internalType": "bool",
          "name": "",
          "type": "bool"
        }
      ],
      "stateMutability": "view",
      "type": "function"
    }
  ],
  "bytecode": "0x608060405234801561001057600080fd5b506110a6806100206000396000f3fe608060405234801561001057600080fd5b506004361061004c5760003560e01c806319d54992146100515780633ef87f261461007a5780639460eead1461009d578063f96ce23b146100b0575b600080fd5b61006461005f366004610c65565b6100c3565b6040516100719190610d11565b60405180910390f35b61008d610088366004610dc2565b610449565b6040519015158152602001610071565b6100646100ab366004610e6d565b610525565b61008d6100be366004610ef4565b610766565b6100cb610a5f565b82518451146100f55760405162461bcd60e51b81526004016100ec90610f6e565b60405180910390fd5b8151855181106101455760405162461bcd60e51b815260206004820152601b60248201527a1a591e17db99481b195b99dd1a08195e18d959591cc81b1a5b5a5d602a1b60448201526064016100ec565b6000816001600160401b0381111561015f5761015f610ad5565b604051908082528060200260200182016040528015610188578160200160208202803683370190505b50905060006040518060400160405280600081526020016000815250905060005b838110156103215773__alt_bn128_____________________________635ec01e4d6040518163ffffffff1660e01b8152600401602060405180830381865af41580156101fa573d6000803e3d6000fd5b505050506040513d601f19601f8201168201806040525081019061021e9190610fb5565b83828151811061023057610230610fce565b602002602001018181525050885186828151811061025057610250610fce565b6020026020010151106102a55760405162461bcd60e51b815260206004820152601f60248201527f5061727469616c457175616c7469793a20496e646578204f766572666c6f770060448201526064016100ec565b61030d6103068483815181106102bd576102bd610fce565b60200260200101518b8985815181106102d8576102d8610fce565b6020026020010151815181106102f0576102f0610fce565b602002602001015161087f90919063ffffffff16565b83906108e8565b91508061031981610ffa565b9150506101a9565b506000816040516020016103359190611013565b6040516020818303038152906040528051906020012060001c905060005b84811015610428576103f96103e7836103e16103a08c8c878151811061037b5761037b610fce565b60200260200101518151811061039357610393610fce565b602002602001015161092d565b8d8c87815181106103b3576103b3610fce565b6020026020010151815181106103cb576103cb610fce565b602002602001015161094790919063ffffffff16565b90610962565b8583815181106103cb576103cb610fce565b84828151811061040b5761040b610fce565b60209081029190910101528061042081610ffa565b915050610353565b50506040805180820190915290815260208101919091529695505050505050565b6040805180820190915260008082526020820181905290815b86518110156104b6576104a26103068560200151838151811061048757610487610fce565b60200260200101518a8a85815181106102d8576102d8610fce565b9150806104ae81610ffa565b915050610462565b5082516040516000916104cb91602001611013565b6040516020818303038152906040528051906020012060001c9050600061050c8560000151610501846105068b6105018c61097d565b6108e8565b9061087f565b90506105188382610a01565b9998505050505050505050565b61052d610a5f565b8151835114801561053f575082518451145b61055b5760405162461bcd60e51b81526004016100ec90610f6e565b600083516001600160401b0381111561057657610576610ad5565b60405190808252806020026020018201604052801561059f578160200160208202803683370190505b50905060006040518060400160405280600081526020016000815250905060005b825181101561069a5773__alt_bn128_____________________________635ec01e4d6040518163ffffffff1660e01b8152600401602060405180830381865af4158015610612573d6000803e3d6000fd5b505050506040513d601f19601f820116820180604052508101906106369190610fb5565b83828151811061064857610648610fce565b60200260200101818152505061068661030684838151811061066c5761066c610fce565b60200260200101518984815181106102f0576102f0610fce565b91508061069281610ffa565b9150506105c0565b506000816040516020016106ae9190611013565b6040516020818303038152906040528051906020012060001c905060005b8351811015610747576107186103e7836103e18a85815181106106f1576106f1610fce565b60200260200101518a868151811061070b5761070b610fce565b6020026020010151610a23565b84828151811061072a5761072a610fce565b60209081029190910101528061073f81610ffa565b9150506106cc565b5050604080518082019091529081526020810191909152949350505050565b60008160200151518551146107cc5760405162461bcd60e51b815260206004820152602660248201527f5061727469616c457175616c6974793a2076657269667920756e657175616c206044820152650d8cadccee8d60d31b60648201526084016100ec565b604080518082019091526000808252602082018190525b865181101561081c576108086103068560200151838151811061066c5761066c610fce565b91508061081481610ffa565b9150506107e3565b50825160405160009161083191602001611013565b6040516020818303038152906040528051906020012060001c905060006108678560000151610501846105068b6105018c61097d565b90506108738382610a01565b98975050505050505050565b610887610a7f565b816001036108965750816108e2565b816002036108af576108a883846108e8565b90506108e2565b6108b7610a99565b83518152602080850151908201526040808201849052826060836007600019fa6108e057600080fd5b505b92915050565b6108f0610a7f565b6108f8610ab7565b83518152602080850151818301528351604080840191909152908401516060830152826080836006600019fa6108e057600080fd5b60006108e28260008051602061105183398151915261102a565b60006000805160206110518339815191528284089392505050565b60006000805160206110518339815191528284099392505050565b610985610a7f565b815115801561099657506020820151155b156109b4575050604080518082019091526000808252602082015290565b60405180604001604052808360000151815260200183602001517f30644e72e131a029b85045b68181585d97816a916871ca8d3c208c16d87cfd476109f9919061102a565b905292915050565b80518251600091148015610a1c575081602001518360200151145b9392505050565b600081831015610a555782610a468360008051602061105183398151915261102a565b610a50919061103d565b610a1c565b610a1c828461102a565b6040518060400160405280610a72610a7f565b8152602001606081525090565b604051806040016040528060008152602001600081525090565b60405180606001604052806003906020820280368337509192915050565b60405180608001604052806004906020820280368337509192915050565b634e487b7160e01b600052604160045260246000fd5b604080519081016001600160401b0381118282101715610b0d57610b0d610ad5565b60405290565b604051601f8201601f191681016001600160401b0381118282101715610b3b57610b3b610ad5565b604052919050565b60006001600160401b03821115610b5c57610b5c610ad5565b5060051b60200190565b600060408284031215610b7857600080fd5b610b80610aeb565b9050813581526020820135602082015292915050565b600082601f830112610ba757600080fd5b81356020610bbc610bb783610b43565b610b13565b82815260069290921b84018101918181019086841115610bdb57600080fd5b8286015b84811015610bff57610bf18882610b66565b835291830191604001610bdf565b509695505050505050565b600082601f830112610c1b57600080fd5b81356020610c2b610bb783610b43565b82815260059290921b84018101918181019086841115610c4a57600080fd5b8286015b84811015610bff5780358352918301918301610c4e565b60008060008060808587031215610c7b57600080fd5b84356001600160401b0380821115610c9257600080fd5b610c9e88838901610b96565b95506020870135915080821115610cb457600080fd5b610cc088838901610c0a565b94506040870135915080821115610cd657600080fd5b610ce288838901610c0a565b93506060870135915080821115610cf857600080fd5b50610d0587828801610c0a565b91505092959194509250565b602080825282518051838301528101516040830152600090608083018482015160608581015280519182905282019060009060a08601905b80831015610bff5783518252928401926001929092019190840190610d49565b600060608284031215610d7b57600080fd5b610d83610aeb565b9050610d8f8383610b66565b815260408201356001600160401b03811115610daa57600080fd5b610db684828501610c0a565b60208301525092915050565b600080600080600060e08688031215610dda57600080fd5b85356001600160401b0380821115610df157600080fd5b610dfd89838a01610b96565b96506020880135915080821115610e1357600080fd5b610e1f89838a01610c0a565b9550610e2e8960408a01610b66565b9450610e3d8960808a01610b66565b935060c0880135915080821115610e5357600080fd5b50610e6088828901610d69565b9150509295509295909350565b600080600060608486031215610e8257600080fd5b83356001600160401b0380821115610e9957600080fd5b610ea587838801610b96565b94506020860135915080821115610ebb57600080fd5b610ec787838801610c0a565b93506040860135915080821115610edd57600080fd5b50610eea86828701610c0a565b9150509250925092565b60008060008060c08587031215610f0a57600080fd5b84356001600160401b0380821115610f2157600080fd5b610f2d88838901610b96565b9550610f3c8860208901610b66565b9450610f4b8860608901610b66565b935060a0870135915080821115610f6157600080fd5b50610d0587828801610d69565b60208082526027908201527f5061727469616c457175616c7469793a207769746e65737320756e657175616c604082015266040d8cadccee8d60cb1b606082015260800190565b600060208284031215610fc757600080fd5b5051919050565b634e487b7160e01b600052603260045260246000fd5b634e487b7160e01b600052601160045260246000fd5b60006001820161100c5761100c610fe4565b5060010190565b8151815260208083015190820152604081016108e2565b818103818111156108e2576108e2610fe4565b808201808211156108e2576108e2610fe456fe30644e72e131a029b85045b68181585d2833e84879b9709143e1f593f0000001a2646970667358221220c6e9e3e8020cb4ac33e4751d4d8edce84466a3a8397143eabf07f735f1f2ab3664736f6c63430008130033",
  "immutableReferences": {},
  "source": "// SPDX-License-Identifier: GPL-3.0\npragma solidity >=0.7.0 <0.9.0;\n\nimport \"../lib/alt_bn128.sol\";\n// import \"../PubParam.sol\";\n\ncontract PartialEquality {\n\n  using alt_bn128 for uint256;\n  using alt_bn128 for alt_bn128.G1Point;\n\n  struct Sig {\n    alt_bn128.G1Point c;\n    uint256[] zs;\n  }\n\n  /// @param gs unequal\n  /// @param x unequal witness\n  /// @param y uneuqal witness\n  function sign(\n    alt_bn128.G1Point[] memory gs, \n    uint256[] memory x, \n    uint256[] memory y\n  ) public view returns (Sig memory sig) {\n    require(x.length == y.length && gs.length == x.length, \"PartialEqualtiy: witness unequal length\");\n\n    uint256[] memory rs = new uint256[](x.length);\n    alt_bn128.G1Point memory c = alt_bn128.G1Point(0, 0);\n\n    for (uint i = 0; i < rs.length; i++) {\n      rs[i] = alt_bn128.random();\n      c = c.add(gs[i].mul(rs[i]));\n    }\n    /// @dev Fiat-Shamir \n    uint256 e = uint256(keccak256(abi.encode(c)));\n\n    for (uint i = 0; i < rs.length; i++) {\n      rs[i] = rs[i].add(alt_bn128.sub(x[i], y[i]).mul(e));\n    }\n\n    sig = Sig({\n      c : c,\n      zs : rs\n    });\n  }\n\n  /// @param gs unequal \n  /// @param Cx commitment of witness x\n  /// @param Cy commitment of witness y\n  function verify (\n    alt_bn128.G1Point[] memory gs, \n    alt_bn128.G1Point memory Cx,\n    alt_bn128.G1Point memory Cy,\n    Sig memory sig\n  ) public view returns (bool) {\n    require (gs.length == sig.zs.length, \"PartialEquality: verify unequal length\");\n\n    alt_bn128.G1Point memory L = alt_bn128.G1Point(0, 0);\n    for (uint i = 0; i < gs.length; i++) {\n      L = L.add(gs[i].mul(sig.zs[i]));\n    }\n\n    /// @dev Fiat-Shamir \n    uint256 e = uint256(keccak256(abi.encode(sig.c)));\n\n    alt_bn128.G1Point memory R = alt_bn128.add(sig.c, alt_bn128.add(Cx, Cy.neg()).mul(e));\n\n    return alt_bn128.eq(L, R);\n  }\n\n  /// @param gs full generator\n  /// @param x full witness\n  /// @param y full witness\n  /// @param idx_ne unequal indices\n  function sign(\n    alt_bn128.G1Point[] memory gs, \n    uint256[] memory x, \n    uint256[] memory y, \n    uint256[] memory idx_ne\n  ) public view returns (Sig memory sig) {\n    require(x.length == y.length, \"PartialEqualtiy: witness unequal length\");\n    uint l = idx_ne.length;\n    require (l < gs.length, \"idx_ne length exceeds limit\");\n\n    uint256[] memory rs = new uint256[](l);\n    alt_bn128.G1Point memory c = alt_bn128.G1Point(0, 0);\n\n    for (uint i = 0; i < l; i++) {\n      rs[i] = alt_bn128.random();\n      require (idx_ne[i] < gs.length, \"PartialEqualtiy: Index Overflow\");\n      c = c.add(gs[idx_ne[i]].mul(rs[i]));\n    }\n    /// @dev Fiat-Shamir \n    uint256 e = uint256(keccak256(abi.encode(c)));\n\n    for (uint i = 0; i < l; i++) {\n      rs[i] = rs[i].add(\n        x[idx_ne[i]].add(y[idx_ne[i]].neg()).mul(e)\n      );\n    }\n\n    sig = Sig({\n      c : c,\n      zs : rs\n    });\n  }\n\n  /// @param gs full generator\n  /// @param idx_ne unequal indices\n  /// @param Cx commitment of full witness x\n  /// @param Cy commitment of full witness y\n  /// @param sig partial equality signature\n  function verify (\n    alt_bn128.G1Point[] memory gs, \n    uint256[] memory idx_ne, \n    alt_bn128.G1Point memory Cx,\n    alt_bn128.G1Point memory Cy,\n    Sig memory sig\n  ) public view returns (bool) {\n\n    alt_bn128.G1Point memory L = alt_bn128.G1Point(0, 0);\n    for (uint i = 0; i < idx_ne.length; i++) {\n      L = L.add(gs[idx_ne[i]].mul(sig.zs[i]));\n    }\n\n    /// @dev Fiat-Shamir \n    uint256 e = uint256(keccak256(abi.encode(sig.c)));\n\n    alt_bn128.G1Point memory R = alt_bn128.add(sig.c, alt_bn128.add(Cx, Cy.neg()).mul(e));\n\n    return alt_bn128.eq(L, R);\n  }\n\n}",
  "sourcePath": "/Users/qian/Desktop/Y4/COMP4550/project/XCSwap/contracts/ZKP/PartialEquality.sol",
  "compiler": {
    "name": "solc",
    "version": "0.8.19+commit.7dd6d404.Emscripten.clang"
  },
  "schemaVersion": "3.4.13",
  "updatedAt": "2023-08-05T06:56:56.486Z",
  "devdoc": {
    "kind": "dev",
    "methods": {
      "sign((uint256,uint256)[],uint256[],uint256[])": {
        "params": {
          "gs": "unequal",
          "x": "unequal witness",
          "y": "uneuqal witness"
        }
      },
      "sign((uint256,uint256)[],uint256[],uint256[],uint256[])": {
        "params": {
          "gs": "full generator",
          "idx_ne": "unequal indices",
          "x": "full witness",
          "y": "full witness"
        }
      },
      "verify((uint256,uint256)[],(uint256,uint256),(uint256,uint256),((uint256,uint256),uint256[]))": {
        "params": {
          "Cx": "commitment of witness x",
          "Cy": "commitment of witness y",
          "gs": "unequal "
        }
      },
      "verify((uint256,uint256)[],uint256[],(uint256,uint256),(uint256,uint256),((uint256,uint256),uint256[]))": {
        "params": {
          "Cx": "commitment of full witness x",
          "Cy": "commitment of full witness y",
          "gs": "full generator",
          "idx_ne": "unequal indices",
          "sig": "partial equality signature"
        }
      }
    },
    "version": 1
  },
  "userdoc": {
    "kind": "user",
    "methods": {},
    "version": 1
  }
}