{
  "contractName": "PartialEqualtiy",
  "abi": [
    {
      "inputs": [
        {
          "components": [
            {
              "internalType": "uint256",
              "name": "X",
              "type": "uint256"
            },
            {
              "internalType": "uint256",
              "name": "Y",
              "type": "uint256"
            }
          ],
          "internalType": "struct alt_bn128.G1Point[]",
          "name": "gs",
          "type": "tuple[]"
        },
        {
          "internalType": "uint256[]",
          "name": "x",
          "type": "uint256[]"
        },
        {
          "internalType": "uint256[]",
          "name": "y",
          "type": "uint256[]"
        },
        {
          "internalType": "uint256[]",
          "name": "idx_ne",
          "type": "uint256[]"
        }
      ],
      "name": "sign",
      "outputs": [
        {
          "components": [
            {
              "components": [
                {
                  "internalType": "uint256",
                  "name": "X",
                  "type": "uint256"
                },
                {
                  "internalType": "uint256",
                  "name": "Y",
                  "type": "uint256"
                }
              ],
              "internalType": "struct alt_bn128.G1Point",
              "name": "c",
              "type": "tuple"
            },
            {
              "internalType": "uint256[]",
              "name": "zs",
              "type": "uint256[]"
            }
          ],
          "internalType": "struct PartialEqualtiy.Sig",
          "name": "sig",
          "type": "tuple"
        }
      ],
      "stateMutability": "view",
      "type": "function"
    },
    {
      "inputs": [
        {
          "components": [
            {
              "internalType": "uint256",
              "name": "X",
              "type": "uint256"
            },
            {
              "internalType": "uint256",
              "name": "Y",
              "type": "uint256"
            }
          ],
          "internalType": "struct alt_bn128.G1Point[]",
          "name": "gs",
          "type": "tuple[]"
        },
        {
          "internalType": "uint256[]",
          "name": "idx_ne",
          "type": "uint256[]"
        },
        {
          "components": [
            {
              "components": [
                {
                  "internalType": "uint256",
                  "name": "X",
                  "type": "uint256"
                },
                {
                  "internalType": "uint256",
                  "name": "Y",
                  "type": "uint256"
                }
              ],
              "internalType": "struct alt_bn128.G1Point",
              "name": "c",
              "type": "tuple"
            },
            {
              "internalType": "uint256[]",
              "name": "zs",
              "type": "uint256[]"
            }
          ],
          "internalType": "struct PartialEqualtiy.Sig",
          "name": "sig",
          "type": "tuple"
        }
      ],
      "name": "verify",
      "outputs": [],
      "stateMutability": "view",
      "type": "function"
    }
  ],
  "bytecode": "0x608060405234801561001057600080fd5b50610ed4806100206000396000f3fe608060405234801561001057600080fd5b50600436106100365760003560e01c806319d549921461003b57806364606b7d1461006b575b600080fd5b610055600480360381019061005091906108fc565b610087565b6040516100629190610afd565b60405180910390f35b61008560048036038101906100809190610b8b565b61037a565b005b61008f6105be565b82518451146100d3576040517f08c379a00000000000000000000000000000000000000000000000000000000081526004016100ca90610cb5565b60405180910390fd5b60008251905084518111156100e757600080fd5b60008167ffffffffffffffff81111561010357610102610666565b5b6040519080825280602002602001820160405280156101315781602001602082028036833780820191505090505b50905060006040518060400160405280600081526020016000815250905060005b8381101561026e5773__alt_bn128_____________________________635ec01e4d6040518163ffffffff1660e01b8152600401602060405180830381865af41580156101a3573d6000803e3d6000fd5b505050506040513d601f19601f820116820180604052508101906101c79190610cea565b8382815181106101da576101d9610d17565b5b60200260200101818152505061025961024a8483815181106101ff576101fe610d17565b5b60200260200101518b89858151811061021b5761021a610d17565b5b60200260200101518151811061023457610233610d17565b5b602002602001015161037f90919063ffffffff16565b8361043790919063ffffffff16565b9150808061026690610d75565b915050610152565b506000816040516020016102829190610dec565b6040516020818303038152906040528051906020012060001c905060005b84811015610356576103246102fb836102ed8c85815181106102c5576102c4610d17565b5b60200260200101518c86815181106102e0576102df610d17565b5b60200260200101516104eb565b61054690919063ffffffff16565b85838151811061030e5761030d610d17565b5b602002602001015161058290919063ffffffff16565b84828151811061033757610336610d17565b5b602002602001018181525050808061034e90610d75565b9150506102a0565b50604051806040016040528083815260200184815250945050505050949350505050565b505050565b6103876105de565b6001820361039757829050610431565b600282036103b0576103a98384610437565b9050610431565b6103b86105f8565b8360000151816000600381106103d1576103d0610d17565b5b6020020181815250508360200151816001600381106103f3576103f2610d17565b5b602002018181525050828160026003811061041157610410610d17565b5b6020020181815250506040826060836007600019fa61042f57600080fd5b505b92915050565b61043f6105de565b61044761061a565b8360000151816000600481106104605761045f610d17565b5b60200201818152505083602001518160016004811061048257610481610d17565b5b6020020181815250508260000151816002600481106104a4576104a3610d17565b5b6020020181815250508260200151816003600481106104c6576104c5610d17565b5b6020020181815250506040826080836006600019fa6104e457600080fd5b5092915050565b6000818310156105315782827f30644e72e131a029b85045b68181585d2833e84879b9709143e1f593f00000016105229190610e07565b61052c9190610e3b565b61053e565b818361053d9190610e07565b5b905092915050565b60007f30644e72e131a029b85045b68181585d2833e84879b9709143e1f593f00000018061057757610576610e6f565b5b828409905092915050565b60007f30644e72e131a029b85045b68181585d2833e84879b9709143e1f593f0000001806105b3576105b2610e6f565b5b828408905092915050565b60405180604001604052806105d16105de565b8152602001606081525090565b604051806040016040528060008152602001600081525090565b6040518060600160405280600390602082028036833780820191505090505090565b6040518060800160405280600490602082028036833780820191505090505090565b6000604051905090565b600080fd5b600080fd5b600080fd5b6000601f19601f8301169050919050565b7f4e487b7100000000000000000000000000000000000000000000000000000000600052604160045260246000fd5b61069e82610655565b810181811067ffffffffffffffff821117156106bd576106bc610666565b5b80604052505050565b60006106d061063c565b90506106dc8282610695565b919050565b600067ffffffffffffffff8211156106fc576106fb610666565b5b602082029050602081019050919050565b600080fd5b600080fd5b600080fd5b6000819050919050565b61072f8161071c565b811461073a57600080fd5b50565b60008135905061074c81610726565b92915050565b60006040828403121561076857610767610712565b5b61077260406106c6565b905060006107828482850161073d565b60008301525060206107968482850161073d565b60208301525092915050565b60006107b56107b0846106e1565b6106c6565b905080838252602082019050604084028301858111156107d8576107d761070d565b5b835b8181101561080157806107ed8882610752565b8452602084019350506040810190506107da565b5050509392505050565b600082601f8301126108205761081f610650565b5b81356108308482602086016107a2565b91505092915050565b600067ffffffffffffffff82111561085457610853610666565b5b602082029050602081019050919050565b600061087861087384610839565b6106c6565b9050808382526020820190506020840283018581111561089b5761089a61070d565b5b835b818110156108c457806108b0888261073d565b84526020840193505060208101905061089d565b5050509392505050565b600082601f8301126108e3576108e2610650565b5b81356108f3848260208601610865565b91505092915050565b6000806000806080858703121561091657610915610646565b5b600085013567ffffffffffffffff8111156109345761093361064b565b5b6109408782880161080b565b945050602085013567ffffffffffffffff8111156109615761096061064b565b5b61096d878288016108ce565b935050604085013567ffffffffffffffff81111561098e5761098d61064b565b5b61099a878288016108ce565b925050606085013567ffffffffffffffff8111156109bb576109ba61064b565b5b6109c7878288016108ce565b91505092959194509250565b6109dc8161071c565b82525050565b6040820160008201516109f860008501826109d3565b506020820151610a0b60208501826109d3565b50505050565b600081519050919050565b600082825260208201905092915050565b6000819050602082019050919050565b6000610a4983836109d3565b60208301905092915050565b6000602082019050919050565b6000610a6d82610a11565b610a778185610a1c565b9350610a8283610a2d565b8060005b83811015610ab3578151610a9a8882610a3d565b9750610aa583610a55565b925050600181019050610a86565b5085935050505092915050565b6000606083016000830151610ad860008601826109e2565b5060208301518482036040860152610af08282610a62565b9150508091505092915050565b60006020820190508181036000830152610b178184610ac0565b905092915050565b600060608284031215610b3557610b34610712565b5b610b3f60406106c6565b90506000610b4f84828501610752565b600083015250604082013567ffffffffffffffff811115610b7357610b72610717565b5b610b7f848285016108ce565b60208301525092915050565b600080600060608486031215610ba457610ba3610646565b5b600084013567ffffffffffffffff811115610bc257610bc161064b565b5b610bce8682870161080b565b935050602084013567ffffffffffffffff811115610bef57610bee61064b565b5b610bfb868287016108ce565b925050604084013567ffffffffffffffff811115610c1c57610c1b61064b565b5b610c2886828701610b1f565b9150509250925092565b600082825260208201905092915050565b7f5061727469616c457175616c7469793a207769746e65737320756e657175616c60008201527f206c656e67746800000000000000000000000000000000000000000000000000602082015250565b6000610c9f602783610c32565b9150610caa82610c43565b604082019050919050565b60006020820190508181036000830152610cce81610c92565b9050919050565b600081519050610ce481610726565b92915050565b600060208284031215610d0057610cff610646565b5b6000610d0e84828501610cd5565b91505092915050565b7f4e487b7100000000000000000000000000000000000000000000000000000000600052603260045260246000fd5b7f4e487b7100000000000000000000000000000000000000000000000000000000600052601160045260246000fd5b6000610d808261071c565b91507fffffffffffffffffffffffffffffffffffffffffffffffffffffffffffffffff8203610db257610db1610d46565b5b600182019050919050565b604082016000820151610dd360008501826109d3565b506020820151610de660208501826109d3565b50505050565b6000604082019050610e016000830184610dbd565b92915050565b6000610e128261071c565b9150610e1d8361071c565b9250828203905081811115610e3557610e34610d46565b5b92915050565b6000610e468261071c565b9150610e518361071c565b9250828201905080821115610e6957610e68610d46565b5b92915050565b7f4e487b7100000000000000000000000000000000000000000000000000000000600052601260045260246000fdfea264697066735822122068af6bed9a17218f90d536bd0a854d720ebd860bf1895cfc4ebfc0ed1b6937b764736f6c63430008130033",
  "immutableReferences": {},
  "source": "// SPDX-License-Identifier: GPL-3.0\npragma solidity >=0.7.0 <0.9.0;\n\nimport \"../lib/alt_bn128.sol\";\n// import \"../PubParam.sol\";\n\ncontract PartialEqualtiy {\n\n  using alt_bn128 for uint256;\n  using alt_bn128 for alt_bn128.G1Point;\n\n  // PubParam private pp;\n  // alt_bn128.G1Point[] gs;\n  \n  // constructor (address pp_addr) {\n  //   gs = PubParam(pp_addr).gs();\n  // }\n\n  // function setup(uint256[] x, uint256[] y, uint[] idx_unequal) public pure returns () {\n\n  // }\n\n  struct Sig {\n    alt_bn128.G1Point c;\n    uint256[] zs;\n  }\n\n  /// @param x witness\n  /// @param y witness\n  /// @param idx_ne unequal indices\n  function sign(alt_bn128.G1Point[] memory gs, uint256[] memory x, uint256[] memory y, uint256[] memory idx_ne) \n  public view returns (Sig memory sig) {\n    require(x.length == y.length, \"PartialEqualtiy: witness unequal length\");\n    uint l = idx_ne.length;\n    require (l <= x.length);\n\n    uint256[] memory rs = new uint256[](l);\n    alt_bn128.G1Point memory c = alt_bn128.G1Point(0, 0);\n\n    for (uint i = 0; i < l; i++) {\n      rs[i] = alt_bn128.random();\n      c = c.add(gs[idx_ne[i]].mul(rs[i]));\n    }\n    /// @dev Fiat-Shamir \n    uint256 e = uint256(keccak256(abi.encode(c)));\n\n    for (uint i = 0; i < l; i++) {\n      rs[i] = rs[i].add(alt_bn128.sub(x[i], y[i]).mul(e));\n    }\n\n    sig = Sig({\n      c : c,\n      zs : rs\n    });\n  }\n\n  function verify (alt_bn128.G1Point[] memory gs, uint256[] memory idx_ne, Sig memory sig) public view {\n\n  }\n\n}",
  "sourcePath": "/Users/qian/Desktop/Y4/COMP4550/project/XCSwap/contracts/ZKP/PartialEquality.sol",
  "compiler": {
    "name": "solc",
    "version": "0.8.19+commit.7dd6d404.Emscripten.clang"
  },
  "schemaVersion": "3.4.13",
  "updatedAt": "2023-07-13T08:51:17.579Z",
  "devdoc": {
    "kind": "dev",
    "methods": {
      "sign((uint256,uint256)[],uint256[],uint256[],uint256[])": {
        "params": {
          "idx_ne": "unequal indices",
          "x": "witness",
          "y": "witness"
        }
      }
    },
    "version": 1
  },
  "userdoc": {
    "kind": "user",
    "methods": {},
    "version": 1
  }
}