{
  "contractName": "PartialEquality",
  "abi": [
    {
      "inputs": [
        {
          "components": [
            {
              "internalType": "uint256",
              "name": "X",
              "type": "uint256"
            },
            {
              "internalType": "uint256",
              "name": "Y",
              "type": "uint256"
            }
          ],
          "internalType": "struct alt_bn128.G1Point[]",
          "name": "gs",
          "type": "tuple[]"
        },
        {
          "internalType": "uint256[]",
          "name": "x",
          "type": "uint256[]"
        },
        {
          "internalType": "uint256[]",
          "name": "y",
          "type": "uint256[]"
        },
        {
          "internalType": "uint256[]",
          "name": "idx_ne",
          "type": "uint256[]"
        }
      ],
      "name": "sign",
      "outputs": [
        {
          "components": [
            {
              "components": [
                {
                  "internalType": "uint256",
                  "name": "X",
                  "type": "uint256"
                },
                {
                  "internalType": "uint256",
                  "name": "Y",
                  "type": "uint256"
                }
              ],
              "internalType": "struct alt_bn128.G1Point",
              "name": "c",
              "type": "tuple"
            },
            {
              "internalType": "uint256[]",
              "name": "zs",
              "type": "uint256[]"
            }
          ],
          "internalType": "struct PartialEquality.Sig",
          "name": "sig",
          "type": "tuple"
        }
      ],
      "stateMutability": "view",
      "type": "function",
      "constant": true
    },
    {
      "inputs": [
        {
          "components": [
            {
              "internalType": "uint256",
              "name": "X",
              "type": "uint256"
            },
            {
              "internalType": "uint256",
              "name": "Y",
              "type": "uint256"
            }
          ],
          "internalType": "struct alt_bn128.G1Point[]",
          "name": "gs",
          "type": "tuple[]"
        },
        {
          "internalType": "uint256[]",
          "name": "x",
          "type": "uint256[]"
        },
        {
          "internalType": "uint256[]",
          "name": "y",
          "type": "uint256[]"
        }
      ],
      "name": "sign",
      "outputs": [
        {
          "components": [
            {
              "components": [
                {
                  "internalType": "uint256",
                  "name": "X",
                  "type": "uint256"
                },
                {
                  "internalType": "uint256",
                  "name": "Y",
                  "type": "uint256"
                }
              ],
              "internalType": "struct alt_bn128.G1Point",
              "name": "c",
              "type": "tuple"
            },
            {
              "internalType": "uint256[]",
              "name": "zs",
              "type": "uint256[]"
            }
          ],
          "internalType": "struct PartialEquality.Sig",
          "name": "sig",
          "type": "tuple"
        }
      ],
      "stateMutability": "view",
      "type": "function",
      "constant": true
    },
    {
      "inputs": [
        {
          "components": [
            {
              "internalType": "uint256",
              "name": "X",
              "type": "uint256"
            },
            {
              "internalType": "uint256",
              "name": "Y",
              "type": "uint256"
            }
          ],
          "internalType": "struct alt_bn128.G1Point[]",
          "name": "gs",
          "type": "tuple[]"
        },
        {
          "internalType": "uint256[]",
          "name": "idx_ne",
          "type": "uint256[]"
        },
        {
          "components": [
            {
              "internalType": "uint256",
              "name": "X",
              "type": "uint256"
            },
            {
              "internalType": "uint256",
              "name": "Y",
              "type": "uint256"
            }
          ],
          "internalType": "struct alt_bn128.G1Point",
          "name": "Cx",
          "type": "tuple"
        },
        {
          "components": [
            {
              "internalType": "uint256",
              "name": "X",
              "type": "uint256"
            },
            {
              "internalType": "uint256",
              "name": "Y",
              "type": "uint256"
            }
          ],
          "internalType": "struct alt_bn128.G1Point",
          "name": "Cy",
          "type": "tuple"
        },
        {
          "components": [
            {
              "components": [
                {
                  "internalType": "uint256",
                  "name": "X",
                  "type": "uint256"
                },
                {
                  "internalType": "uint256",
                  "name": "Y",
                  "type": "uint256"
                }
              ],
              "internalType": "struct alt_bn128.G1Point",
              "name": "c",
              "type": "tuple"
            },
            {
              "internalType": "uint256[]",
              "name": "zs",
              "type": "uint256[]"
            }
          ],
          "internalType": "struct PartialEquality.Sig",
          "name": "sig",
          "type": "tuple"
        }
      ],
      "name": "verify",
      "outputs": [
        {
          "internalType": "bool",
          "name": "",
          "type": "bool"
        }
      ],
      "stateMutability": "view",
      "type": "function",
      "constant": true
    },
    {
      "inputs": [
        {
          "components": [
            {
              "internalType": "uint256",
              "name": "X",
              "type": "uint256"
            },
            {
              "internalType": "uint256",
              "name": "Y",
              "type": "uint256"
            }
          ],
          "internalType": "struct alt_bn128.G1Point[]",
          "name": "gs",
          "type": "tuple[]"
        },
        {
          "components": [
            {
              "internalType": "uint256",
              "name": "X",
              "type": "uint256"
            },
            {
              "internalType": "uint256",
              "name": "Y",
              "type": "uint256"
            }
          ],
          "internalType": "struct alt_bn128.G1Point",
          "name": "Cx",
          "type": "tuple"
        },
        {
          "components": [
            {
              "internalType": "uint256",
              "name": "X",
              "type": "uint256"
            },
            {
              "internalType": "uint256",
              "name": "Y",
              "type": "uint256"
            }
          ],
          "internalType": "struct alt_bn128.G1Point",
          "name": "Cy",
          "type": "tuple"
        },
        {
          "components": [
            {
              "components": [
                {
                  "internalType": "uint256",
                  "name": "X",
                  "type": "uint256"
                },
                {
                  "internalType": "uint256",
                  "name": "Y",
                  "type": "uint256"
                }
              ],
              "internalType": "struct alt_bn128.G1Point",
              "name": "c",
              "type": "tuple"
            },
            {
              "internalType": "uint256[]",
              "name": "zs",
              "type": "uint256[]"
            }
          ],
          "internalType": "struct PartialEquality.Sig",
          "name": "sig",
          "type": "tuple"
        }
      ],
      "name": "verify",
      "outputs": [
        {
          "internalType": "bool",
          "name": "",
          "type": "bool"
        }
      ],
      "stateMutability": "view",
      "type": "function",
      "constant": true
    }
  ],
  "bytecode": "0x608060405234801561001057600080fd5b5061109c806100206000396000f3fe608060405234801561001057600080fd5b506004361061004c5760003560e01c806319d54992146100515780633ef87f261461007a5780639460eead1461009d578063f96ce23b146100b0575b600080fd5b61006461005f366004610c5b565b6100c3565b6040516100719190610d07565b60405180910390f35b61008d610088366004610db8565b610457565b6040519015158152602001610071565b6100646100ab366004610e63565b610533565b61008d6100be366004610eea565b610774565b6100cb610a55565b82518451146100f55760405162461bcd60e51b81526004016100ec90610f64565b60405180910390fd5b8151855181106101455760405162461bcd60e51b815260206004820152601b60248201527a1a591e17db99481b195b99dd1a08195e18d959591cc81b1a5b5a5d602a1b60448201526064016100ec565b6000816001600160401b0381111561015f5761015f610acb565b604051908082528060200260200182016040528015610188578160200160208202803683370190505b50905060006040518060400160405280600081526020016000815250905060005b838110156103215773__alt_bn128_____________________________635ec01e4d6040518163ffffffff1660e01b8152600401602060405180830381865af41580156101fa573d6000803e3d6000fd5b505050506040513d601f19601f8201168201806040525081019061021e9190610fab565b83828151811061023057610230610fc4565b602002602001018181525050885186828151811061025057610250610fc4565b6020026020010151106102a55760405162461bcd60e51b815260206004820152601f60248201527f5061727469616c457175616c7469793a20496e646578204f766572666c6f770060448201526064016100ec565b61030d6103068483815181106102bd576102bd610fc4565b60200260200101518b8985815181106102d8576102d8610fc4565b6020026020010151815181106102f0576102f0610fc4565b602002602001015161088d90919063ffffffff16565b83906108f6565b91508061031981610ff0565b9150506101a9565b506000816040516020016103359190611009565b6040516020818303038152906040528051906020012060001c905060005b84811015610436576104076103df836103d98b8b868151811061037857610378610fc4565b60200260200101518151811061039057610390610fc4565b60200260200101518d8c87815181106103ab576103ab610fc4565b6020026020010151815181106103c3576103c3610fc4565b602002602001015161093b90919063ffffffff16565b9061097e565b8583815181106103f1576103f1610fc4565b602002602001015161099990919063ffffffff16565b84828151811061041957610419610fc4565b60209081029190910101528061042e81610ff0565b915050610353565b50506040805180820190915290815260208101919091529695505050505050565b6040805180820190915260008082526020820181905290815b86518110156104c4576104b06103068560200151838151811061049557610495610fc4565b60200260200101518a8a85815181106102d8576102d8610fc4565b9150806104bc81610ff0565b915050610470565b5082516040516000916104d991602001611009565b6040516020818303038152906040528051906020012060001c9050600061051a856000015161050f846105148b61050f8c6109b4565b6108f6565b9061088d565b90506105268382610a38565b9998505050505050505050565b61053b610a55565b8151835114801561054d575082518451145b6105695760405162461bcd60e51b81526004016100ec90610f64565b600083516001600160401b0381111561058457610584610acb565b6040519080825280602002602001820160405280156105ad578160200160208202803683370190505b50905060006040518060400160405280600081526020016000815250905060005b82518110156106a85773__alt_bn128_____________________________635ec01e4d6040518163ffffffff1660e01b8152600401602060405180830381865af4158015610620573d6000803e3d6000fd5b505050506040513d601f19601f820116820180604052508101906106449190610fab565b83828151811061065657610656610fc4565b60200260200101818152505061069461030684838151811061067a5761067a610fc4565b60200260200101518984815181106102f0576102f0610fc4565b9150806106a081610ff0565b9150506105ce565b506000816040516020016106bc9190611009565b6040516020818303038152906040528051906020012060001c905060005b8351811015610755576107266103df836103d98a85815181106106ff576106ff610fc4565b60200260200101518a868151811061071957610719610fc4565b602002602001015161093b565b84828151811061073857610738610fc4565b60209081029190910101528061074d81610ff0565b9150506106da565b5050604080518082019091529081526020810191909152949350505050565b60008160200151518551146107da5760405162461bcd60e51b815260206004820152602660248201527f5061727469616c457175616c6974793a2076657269667920756e657175616c206044820152650d8cadccee8d60d31b60648201526084016100ec565b604080518082019091526000808252602082018190525b865181101561082a576108166103068560200151838151811061067a5761067a610fc4565b91508061082281610ff0565b9150506107f1565b50825160405160009161083f91602001611009565b6040516020818303038152906040528051906020012060001c90506000610875856000015161050f846105148b61050f8c6109b4565b90506108818382610a38565b98975050505050505050565b610895610a75565b816001036108a45750816108f0565b816002036108bd576108b683846108f6565b90506108f0565b6108c5610a8f565b83518152602080850151908201526040808201849052826060836007600019fa6108ee57600080fd5b505b92915050565b6108fe610a75565b610906610aad565b83518152602080850151818301528351604080840191909152908401516060830152826080836006600019fa6108ee57600080fd5b60008183101561096d578261095e83600080516020611047833981519152611020565b6109689190611033565b610977565b6109778284611020565b9392505050565b60006000805160206110478339815191528284099392505050565b60006000805160206110478339815191528284089392505050565b6109bc610a75565b81511580156109cd57506020820151155b156109eb575050604080518082019091526000808252602082015290565b60405180604001604052808360000151815260200183602001517f30644e72e131a029b85045b68181585d97816a916871ca8d3c208c16d87cfd47610a309190611020565b905292915050565b805182516000911480156109775750506020908101519101511490565b6040518060400160405280610a68610a75565b8152602001606081525090565b604051806040016040528060008152602001600081525090565b60405180606001604052806003906020820280368337509192915050565b60405180608001604052806004906020820280368337509192915050565b634e487b7160e01b600052604160045260246000fd5b604080519081016001600160401b0381118282101715610b0357610b03610acb565b60405290565b604051601f8201601f191681016001600160401b0381118282101715610b3157610b31610acb565b604052919050565b60006001600160401b03821115610b5257610b52610acb565b5060051b60200190565b600060408284031215610b6e57600080fd5b610b76610ae1565b9050813581526020820135602082015292915050565b600082601f830112610b9d57600080fd5b81356020610bb2610bad83610b39565b610b09565b82815260069290921b84018101918181019086841115610bd157600080fd5b8286015b84811015610bf557610be78882610b5c565b835291830191604001610bd5565b509695505050505050565b600082601f830112610c1157600080fd5b81356020610c21610bad83610b39565b82815260059290921b84018101918181019086841115610c4057600080fd5b8286015b84811015610bf55780358352918301918301610c44565b60008060008060808587031215610c7157600080fd5b84356001600160401b0380821115610c8857600080fd5b610c9488838901610b8c565b95506020870135915080821115610caa57600080fd5b610cb688838901610c00565b94506040870135915080821115610ccc57600080fd5b610cd888838901610c00565b93506060870135915080821115610cee57600080fd5b50610cfb87828801610c00565b91505092959194509250565b602080825282518051838301528101516040830152600090608083018482015160608581015280519182905282019060009060a08601905b80831015610bf55783518252928401926001929092019190840190610d3f565b600060608284031215610d7157600080fd5b610d79610ae1565b9050610d858383610b5c565b815260408201356001600160401b03811115610da057600080fd5b610dac84828501610c00565b60208301525092915050565b600080600080600060e08688031215610dd057600080fd5b85356001600160401b0380821115610de757600080fd5b610df389838a01610b8c565b96506020880135915080821115610e0957600080fd5b610e1589838a01610c00565b9550610e248960408a01610b5c565b9450610e338960808a01610b5c565b935060c0880135915080821115610e4957600080fd5b50610e5688828901610d5f565b9150509295509295909350565b600080600060608486031215610e7857600080fd5b83356001600160401b0380821115610e8f57600080fd5b610e9b87838801610b8c565b94506020860135915080821115610eb157600080fd5b610ebd87838801610c00565b93506040860135915080821115610ed357600080fd5b50610ee086828701610c00565b9150509250925092565b60008060008060c08587031215610f0057600080fd5b84356001600160401b0380821115610f1757600080fd5b610f2388838901610b8c565b9550610f328860208901610b5c565b9450610f418860608901610b5c565b935060a0870135915080821115610f5757600080fd5b50610cfb87828801610d5f565b60208082526027908201527f5061727469616c457175616c7469793a207769746e65737320756e657175616c604082015266040d8cadccee8d60cb1b606082015260800190565b600060208284031215610fbd57600080fd5b5051919050565b634e487b7160e01b600052603260045260246000fd5b634e487b7160e01b600052601160045260246000fd5b60006001820161100257611002610fda565b5060010190565b8151815260208083015190820152604081016108f0565b818103818111156108f0576108f0610fda565b808201808211156108f0576108f0610fda56fe30644e72e131a029b85045b68181585d2833e84879b9709143e1f593f0000001a2646970667358221220bd04b63e6b230463213f66aebcefb01b66aa6f8d5c55230eb39c03beb9ab73b864736f6c63430008130033",
  "immutableReferences": {},
  "source": "// SPDX-License-Identifier: GPL-3.0\npragma solidity >=0.7.0 <0.9.0;\n\nimport \"../lib/alt_bn128.sol\";\n\ncontract PartialEquality {\n\n  using alt_bn128 for uint256;\n  using alt_bn128 for alt_bn128.G1Point;\n\n  struct Sig {\n    alt_bn128.G1Point c;\n    uint256[] zs;\n  }\n\n  /// @param gs unequal\n  /// @param x unequal witness\n  /// @param y uneuqal witness\n  function sign(\n    alt_bn128.G1Point[] memory gs, \n    uint256[] memory x, \n    uint256[] memory y\n  ) public view returns (Sig memory sig) {\n    require(x.length == y.length && gs.length == x.length, \"PartialEqualtiy: witness unequal length\");\n\n    uint256[] memory rs = new uint256[](x.length);\n    alt_bn128.G1Point memory c = alt_bn128.G1Point(0, 0);\n\n    for (uint i = 0; i < rs.length; i++) {\n      rs[i] = alt_bn128.random();\n      c = c.add(gs[i].mul(rs[i]));\n    }\n    /// @dev Fiat-Shamir \n    uint256 e = uint256(keccak256(abi.encode(c)));\n\n    for (uint i = 0; i < rs.length; i++) {\n      rs[i] = rs[i].add(alt_bn128.sub(x[i], y[i]).mul(e));\n    }\n\n    sig = Sig({\n      c : c,\n      zs : rs\n    });\n  }\n\n  /// @param gs unequal \n  /// @param Cx commitment of witness x\n  /// @param Cy commitment of witness y\n  /// @param sig partial equality signature\n  function verify (\n    alt_bn128.G1Point[] memory gs, \n    alt_bn128.G1Point memory Cx,\n    alt_bn128.G1Point memory Cy,\n    Sig memory sig\n  ) public view returns (bool) {\n    require (gs.length == sig.zs.length, \"PartialEquality: verify unequal length\");\n\n    alt_bn128.G1Point memory L = alt_bn128.G1Point(0, 0);\n    for (uint i = 0; i < gs.length; i++) {\n      L = L.add(gs[i].mul(sig.zs[i]));\n    }\n\n    /// @dev Fiat-Shamir \n    uint256 e = uint256(keccak256(abi.encode(sig.c)));\n\n    alt_bn128.G1Point memory R = alt_bn128.add(sig.c, alt_bn128.add(Cx, Cy.neg()).mul(e));\n\n    return alt_bn128.eq(L, R);\n  }\n\n  /// @param gs full generator\n  /// @param x full witness\n  /// @param y full witness\n  /// @param idx_ne unequal indices\n  function sign(\n    alt_bn128.G1Point[] memory gs, \n    uint256[] memory x, \n    uint256[] memory y, \n    uint256[] memory idx_ne\n  ) public view returns (Sig memory sig) {\n    require(x.length == y.length, \"PartialEqualtiy: witness unequal length\");\n    uint l = idx_ne.length;\n    require (l < gs.length, \"idx_ne length exceeds limit\");\n\n    uint256[] memory rs = new uint256[](l);\n    alt_bn128.G1Point memory c = alt_bn128.G1Point(0, 0);\n\n    for (uint i = 0; i < l; i++) {\n      rs[i] = alt_bn128.random();\n      require (idx_ne[i] < gs.length, \"PartialEqualtiy: Index Overflow\");\n      c = c.add(gs[idx_ne[i]].mul(rs[i]));\n    }\n    /// @dev Fiat-Shamir \n    uint256 e = uint256(keccak256(abi.encode(c)));\n\n    for (uint i = 0; i < l; i++) {\n      rs[i] = rs[i].add(\n        x[idx_ne[i]].sub(y[idx_ne[i]]).mul(e)\n      );\n    }\n\n    sig = Sig({\n      c : c,\n      zs : rs\n    });\n  }\n\n  /// @param gs full generator\n  /// @param idx_ne unequal indices\n  /// @param Cx commitment of full witness x\n  /// @param Cy commitment of full witness y\n  /// @param sig partial equality signature\n  function verify (\n    alt_bn128.G1Point[] memory gs, \n    uint256[] memory idx_ne, \n    alt_bn128.G1Point memory Cx,\n    alt_bn128.G1Point memory Cy,\n    Sig memory sig\n  ) public view returns (bool) {\n\n    alt_bn128.G1Point memory L = alt_bn128.G1Point(0, 0);\n    for (uint i = 0; i < idx_ne.length; i++) {\n      L = L.add(gs[idx_ne[i]].mul(sig.zs[i]));\n    }\n\n    /// @dev Fiat-Shamir \n    uint256 e = uint256(keccak256(abi.encode(sig.c)));\n\n    alt_bn128.G1Point memory R = alt_bn128.add(sig.c, alt_bn128.add(Cx, Cy.neg()).mul(e));\n\n    return alt_bn128.eq(L, R);\n  }\n\n}",
  "sourcePath": "/Users/qian/Desktop/Y4/COMP4550/project/XCSwap/contracts/ZKP/PartialEquality.sol",
  "compiler": {
    "name": "solc",
    "version": "0.8.19+commit.7dd6d404.Emscripten.clang"
  },
  "schemaVersion": "3.4.13",
  "updatedAt": "2023-08-22T03:30:48.726Z",
  "networkType": "ethereum",
  "devdoc": {
    "kind": "dev",
    "methods": {
      "sign((uint256,uint256)[],uint256[],uint256[])": {
        "params": {
          "gs": "unequal",
          "x": "unequal witness",
          "y": "uneuqal witness"
        }
      },
      "sign((uint256,uint256)[],uint256[],uint256[],uint256[])": {
        "params": {
          "gs": "full generator",
          "idx_ne": "unequal indices",
          "x": "full witness",
          "y": "full witness"
        }
      },
      "verify((uint256,uint256)[],(uint256,uint256),(uint256,uint256),((uint256,uint256),uint256[]))": {
        "params": {
          "Cx": "commitment of witness x",
          "Cy": "commitment of witness y",
          "gs": "unequal ",
          "sig": "partial equality signature"
        }
      },
      "verify((uint256,uint256)[],uint256[],(uint256,uint256),(uint256,uint256),((uint256,uint256),uint256[]))": {
        "params": {
          "Cx": "commitment of full witness x",
          "Cy": "commitment of full witness y",
          "gs": "full generator",
          "idx_ne": "unequal indices",
          "sig": "partial equality signature"
        }
      }
    },
    "version": 1
  },
  "userdoc": {
    "kind": "user",
    "methods": {},
    "version": 1
  }
}