{
  "contractName": "PubParam",
  "abi": [
    {
      "inputs": [
        {
          "internalType": "uint256",
          "name": "max_ty",
          "type": "uint256"
        }
      ],
      "stateMutability": "nonpayable",
      "type": "constructor"
    },
    {
      "inputs": [
        {
          "internalType": "uint256",
          "name": "sk",
          "type": "uint256"
        }
      ],
      "name": "TagKGen",
      "outputs": [
        {
          "components": [
            {
              "internalType": "uint256",
              "name": "X",
              "type": "uint256"
            },
            {
              "internalType": "uint256",
              "name": "Y",
              "type": "uint256"
            }
          ],
          "internalType": "struct alt_bn128.G1Point",
          "name": "pk",
          "type": "tuple"
        }
      ],
      "stateMutability": "view",
      "type": "function",
      "constant": true
    },
    {
      "inputs": [
        {
          "internalType": "uint256",
          "name": "sk",
          "type": "uint256"
        }
      ],
      "name": "TagEval",
      "outputs": [
        {
          "components": [
            {
              "internalType": "uint256",
              "name": "X",
              "type": "uint256"
            },
            {
              "internalType": "uint256",
              "name": "Y",
              "type": "uint256"
            }
          ],
          "internalType": "struct alt_bn128.G1Point",
          "name": "tag",
          "type": "tuple"
        }
      ],
      "stateMutability": "view",
      "type": "function",
      "constant": true
    },
    {
      "inputs": [
        {
          "internalType": "uint256[]",
          "name": "attr",
          "type": "uint256[]"
        }
      ],
      "name": "Com",
      "outputs": [
        {
          "components": [
            {
              "internalType": "uint256",
              "name": "X",
              "type": "uint256"
            },
            {
              "internalType": "uint256",
              "name": "Y",
              "type": "uint256"
            }
          ],
          "internalType": "struct alt_bn128.G1Point",
          "name": "acc",
          "type": "tuple"
        }
      ],
      "stateMutability": "view",
      "type": "function",
      "constant": true
    },
    {
      "inputs": [
        {
          "internalType": "uint256[]",
          "name": "attr",
          "type": "uint256[]"
        }
      ],
      "name": "tCom",
      "outputs": [
        {
          "components": [
            {
              "internalType": "uint256",
              "name": "X",
              "type": "uint256"
            },
            {
              "internalType": "uint256",
              "name": "Y",
              "type": "uint256"
            }
          ],
          "internalType": "struct alt_bn128.G1Point",
          "name": "tcom",
          "type": "tuple"
        }
      ],
      "stateMutability": "view",
      "type": "function",
      "constant": true
    },
    {
      "inputs": [
        {
          "internalType": "uint256[]",
          "name": "attr",
          "type": "uint256[]"
        }
      ],
      "name": "oCom",
      "outputs": [
        {
          "components": [
            {
              "internalType": "uint256",
              "name": "X",
              "type": "uint256"
            },
            {
              "internalType": "uint256",
              "name": "Y",
              "type": "uint256"
            }
          ],
          "internalType": "struct alt_bn128.G1Point",
          "name": "ocom",
          "type": "tuple"
        }
      ],
      "stateMutability": "view",
      "type": "function",
      "constant": true
    },
    {
      "inputs": [
        {
          "internalType": "uint256[]",
          "name": "attr",
          "type": "uint256[]"
        }
      ],
      "name": "onetAcc",
      "outputs": [
        {
          "components": [
            {
              "components": [
                {
                  "internalType": "uint256",
                  "name": "X",
                  "type": "uint256"
                },
                {
                  "internalType": "uint256",
                  "name": "Y",
                  "type": "uint256"
                }
              ],
              "internalType": "struct alt_bn128.G1Point",
              "name": "pk",
              "type": "tuple"
            },
            {
              "components": [
                {
                  "internalType": "uint256",
                  "name": "X",
                  "type": "uint256"
                },
                {
                  "internalType": "uint256",
                  "name": "Y",
                  "type": "uint256"
                }
              ],
              "internalType": "struct alt_bn128.G1Point",
              "name": "tcom",
              "type": "tuple"
            },
            {
              "components": [
                {
                  "internalType": "uint256",
                  "name": "X",
                  "type": "uint256"
                },
                {
                  "internalType": "uint256",
                  "name": "Y",
                  "type": "uint256"
                }
              ],
              "internalType": "struct alt_bn128.G1Point",
              "name": "ocom",
              "type": "tuple"
            }
          ],
          "internalType": "struct PubParam.Acc",
          "name": "",
          "type": "tuple"
        }
      ],
      "stateMutability": "view",
      "type": "function",
      "constant": true
    },
    {
      "inputs": [],
      "name": "gs",
      "outputs": [
        {
          "components": [
            {
              "internalType": "uint256",
              "name": "X",
              "type": "uint256"
            },
            {
              "internalType": "uint256",
              "name": "Y",
              "type": "uint256"
            }
          ],
          "internalType": "struct alt_bn128.G1Point[]",
          "name": "",
          "type": "tuple[]"
        }
      ],
      "stateMutability": "view",
      "type": "function",
      "constant": true
    },
    {
      "inputs": [],
      "name": "g_tag",
      "outputs": [
        {
          "components": [
            {
              "internalType": "uint256",
              "name": "X",
              "type": "uint256"
            },
            {
              "internalType": "uint256",
              "name": "Y",
              "type": "uint256"
            }
          ],
          "internalType": "struct alt_bn128.G1Point",
          "name": "",
          "type": "tuple"
        }
      ],
      "stateMutability": "view",
      "type": "function",
      "constant": true
    },
    {
      "inputs": [],
      "name": "g_pk",
      "outputs": [
        {
          "components": [
            {
              "internalType": "uint256",
              "name": "X",
              "type": "uint256"
            },
            {
              "internalType": "uint256",
              "name": "Y",
              "type": "uint256"
            }
          ],
          "internalType": "struct alt_bn128.G1Point",
          "name": "",
          "type": "tuple"
        }
      ],
      "stateMutability": "view",
      "type": "function",
      "constant": true
    },
    {
      "inputs": [],
      "name": "g_ok",
      "outputs": [
        {
          "components": [
            {
              "internalType": "uint256",
              "name": "X",
              "type": "uint256"
            },
            {
              "internalType": "uint256",
              "name": "Y",
              "type": "uint256"
            }
          ],
          "internalType": "struct alt_bn128.G1Point",
          "name": "",
          "type": "tuple"
        }
      ],
      "stateMutability": "view",
      "type": "function",
      "constant": true
    },
    {
      "inputs": [],
      "name": "h",
      "outputs": [
        {
          "components": [
            {
              "internalType": "uint256",
              "name": "X",
              "type": "uint256"
            },
            {
              "internalType": "uint256",
              "name": "Y",
              "type": "uint256"
            }
          ],
          "internalType": "struct alt_bn128.G1Point",
          "name": "",
          "type": "tuple"
        }
      ],
      "stateMutability": "view",
      "type": "function",
      "constant": true
    },
    {
      "inputs": [],
      "name": "n",
      "outputs": [
        {
          "internalType": "uint256",
          "name": "",
          "type": "uint256"
        }
      ],
      "stateMutability": "view",
      "type": "function",
      "constant": true
    },
    {
      "inputs": [],
      "name": "sk_pos",
      "outputs": [
        {
          "internalType": "uint256",
          "name": "",
          "type": "uint256"
        }
      ],
      "stateMutability": "view",
      "type": "function",
      "constant": true
    },
    {
      "inputs": [],
      "name": "randomAcc",
      "outputs": [
        {
          "components": [
            {
              "internalType": "uint256",
              "name": "X",
              "type": "uint256"
            },
            {
              "internalType": "uint256",
              "name": "Y",
              "type": "uint256"
            }
          ],
          "internalType": "struct alt_bn128.G1Point",
          "name": "",
          "type": "tuple"
        }
      ],
      "stateMutability": "view",
      "type": "function",
      "constant": true
    },
    {
      "inputs": [
        {
          "components": [
            {
              "internalType": "uint256",
              "name": "X",
              "type": "uint256"
            },
            {
              "internalType": "uint256",
              "name": "Y",
              "type": "uint256"
            }
          ],
          "internalType": "struct alt_bn128.G1Point[2]",
          "name": "g",
          "type": "tuple[2]"
        }
      ],
      "name": "com",
      "outputs": [
        {
          "components": [
            {
              "internalType": "uint256",
              "name": "X",
              "type": "uint256"
            },
            {
              "internalType": "uint256",
              "name": "Y",
              "type": "uint256"
            }
          ],
          "internalType": "struct alt_bn128.G1Point",
          "name": "",
          "type": "tuple"
        }
      ],
      "stateMutability": "view",
      "type": "function",
      "constant": true
    }
  ],
  "bytecode": "0x60806040523480156200001157600080fd5b5060405162001204380380620012048339810160408190526200003491620003d5565b6200004181600262000405565b6200004e90600562000425565b6007556200005e81600262000405565b6200006b90600262000425565b6008556007546200007c9062000083565b50620004b1565b6200008f600162000223565b805160055560209081015160065560408051635ec01e4d60e01b815290516200011b9273__alt_bn128_____________________________92635ec01e4d92600480830193928290030181865af4158015620000ef573d6000803e3d6000fd5b505050506040513d601f19601f82011682018060405250810190620001159190620003d5565b62000223565b805160015560209081015160025560408051635ec01e4d60e01b815290516200017b9273__alt_bn128_____________________________92635ec01e4d92600480830193928290030181865af4158015620000ef573d6000803e3d6000fd5b80516003556020015160045560005b818110156200021f576000620001e373__alt_bn128_____________________________635ec01e4d6040518163ffffffff1660e01b8152600401602060405180830381865af4158015620000ef573d6000803e3d6000fd5b8154600181810184556000938452602093849020835160029093020191825592909101519101558062000216816200043b565b9150506200018a565b5050565b6040805180820190915260008082526020820152600062000254600080516020620011e4833981519152846200046d565b905060006200026560018362000484565b91506000805b8162000324576200027e60018562000425565b9350600080516020620011e48339815191528485099050600080516020620011e48339815191528482099050600080516020620011e483398151915260038208905062000305816004620002e3600080516020620011e4833981519152600162000425565b620002ef91906200049a565b600080516020620011e48339815191526200033e565b925080600080516020620011e48339815191528485091491506200026b565b505060408051808201909152918252602082015292915050565b60006200034a62000399565b62000354620003b7565b602080835282810181905260408301819052606083018790526080830186905260a083018590528160c0846005600019fa6200038f57600080fd5b5195945050505050565b6040518060c001604052806006906020820280368337509192915050565b60405180602001604052806001906020820280368337509192915050565b600060208284031215620003e857600080fd5b5051919050565b634e487b7160e01b600052601160045260246000fd5b80820281158282048414176200041f576200041f620003ef565b92915050565b808201808211156200041f576200041f620003ef565b600060018201620004505762000450620003ef565b5060010190565b634e487b7160e01b600052601260045260246000fd5b6000826200047f576200047f62000457565b500690565b818103818111156200041f576200041f620003ef565b600082620004ac57620004ac62000457565b500490565b610d2380620004c16000396000f3fe608060405234801561001057600080fd5b50600436106100c45760003560e01c8062e71aaf146100c95780632d74e531146100e75780632e52d606146100fc57806335e009f01461010e5780633789859c1461011657806371c19b961461013657806373b911821461014957806394da40d21461015c5780639766247114610164578063a4b33d6414610177578063b8c9d3651461018a578063babe4fe514610192578063bc52d55b1461019a578063c9158128146101ad578063eef6a681146101c0575b600080fd5b6100d16101c8565b6040516100de9190610977565b60405180910390f35b6100ef61023b565b6040516100de91906109c4565b6007545b6040519081526020016100de565b6100ef61025e565b610129610124366004610a40565b610281565b6040516100de9190610ae5565b6100ef610144366004610a40565b610313565b6100ef610157366004610b1d565b610415565b6100ef610444565b6100ef610172366004610b1d565b6104c6565b6100ef610185366004610a40565b6104ef565b6100ef610584565b600854610100565b6100ef6101a8366004610b36565b6105a7565b6100ef6101bb366004610a40565b6105bf565b6100ef61064c565b60606000805480602002602001604051908101604052809291908181526020016000905b82821015610232578382906000526020600020906002020160405180604001604052908160008201548152602001600182015481525050815260200190600101906101ec565b50505050905090565b6102436108a4565b50604080518082019091526003548152600454602082015290565b6102666108a4565b50604080518082019091526001548152600254602082015290565b6102896108be565b6007548251146102b45760405162461bcd60e51b81526004016102ab90610bbd565b60405180910390fd5b60405180606001604052806102ef8460036007546102d29190610c21565b815181106102e2576102e2610c34565b6020026020010151610415565b81526020016102fd846104ef565b815260200161030b846105bf565b905292915050565b61031b6108a4565b6007548251146103605760405162461bcd60e51b815260206004820152601060248201526f13195b99dd1a081d5b9b585d18da195960821b60448201526064016102ab565b6040518060400160405280600081526020016000815250905060005b60075481101561040f576103fb6103f484838151811061039e5761039e610c34565b6020026020010151600084815481106103b9576103b9610c34565b9060005260206000209060020201604051806040016040529081600082015481526020016001820154815250506106a790919063ffffffff16565b839061070f565b91508061040781610c4a565b91505061037c565b50919050565b61041d6108a4565b604080518082019091526001548152600254602082015261043e90836106a7565b92915050565b61044c6108a4565b6104c173__alt_bn128_____________________________635ec01e4d6040518163ffffffff1660e01b8152600401602060405180830381865af4158015610498573d6000803e3d6000fd5b505050506040513d601f19601f820116820180604052508101906104bc9190610c63565b610754565b905090565b6104ce6108a4565b604080518082019091526003548152600454602082015261043e90836106a7565b6104f76108a4565b60026007546105069190610c21565b825110156105265760405162461bcd60e51b81526004016102ab90610bbd565b6040518060400160405280600081526020016000815250905060005b60026007546105519190610c21565b81101561040f576105706103f484838151811061039e5761039e610c34565b91508061057c81610c4a565b915050610542565b61058c6108a4565b50604080518082019091526005548152600654602082015290565b6105af6108a4565b6020820151825161043e9161070f565b6105c76108a4565b6007548251146105e95760405162461bcd60e51b81526004016102ab90610bbd565b60405180604001604052806000815260200160008152509050600060026007546106139190610c21565b90505b60075481101561040f576106386103f484838151811061039e5761039e610c34565b91508061064481610c4a565b915050610616565b6106546108a4565b600060016007546106659190610c21565b8154811061067557610675610c34565b906000526020600020906002020160405180604001604052908160008201548152602001600182015481525050905090565b6106af6108a4565b816001036106be57508161043e565b816002036106d7576106d0838461070f565b905061043e565b6106df6108f0565b83518152602080850151908201526040808201849052826060836007600019fa61070857600080fd5b5092915050565b6107176108a4565b61071f61090e565b83518152602080850151818301528351604080840191909152908401516060830152826080836006600019fa61070857600080fd5b61075c6108a4565b6000610776600080516020610cce83398151915284610c92565b90506000610785600183610c21565b91506000805b816108345761079b600185610ca6565b9350600080516020610cce8339815191528485099050600080516020610cce8339815191528482099050600080516020610cce8339815191526003820890506108178160046107f9600080516020610cce8339815191526001610ca6565b6108039190610cb9565b600080516020610cce83398151915261084e565b925080600080516020610cce83398151915284850914915061078b565b505060408051808201909152918252602082015292915050565b600061085861092c565b61086061094a565b602080835282810181905260408301819052606083018790526080830186905260a083018590528160c0846005600019fa61089a57600080fd5b5195945050505050565b604051806040016040528060008152602001600081525090565b60405180606001604052806108d16108a4565b81526020016108de6108a4565b81526020016108eb6108a4565b905290565b60405180606001604052806003906020820280368337509192915050565b60405180608001604052806004906020820280368337509192915050565b6040518060c001604052806006906020820280368337509192915050565b60405180602001604052806001906020820280368337509192915050565b80518252602090810151910152565b602080825282518282018190526000919060409081850190868401855b828110156109b7576109a7848351610968565b9284019290850190600101610994565b5091979650505050505050565b6040810161043e8284610968565b634e487b7160e01b600052604160045260246000fd5b604080519081016001600160401b0381118282101715610a0a57610a0a6109d2565b60405290565b604051601f8201601f191681016001600160401b0381118282101715610a3857610a386109d2565b604052919050565b60006020808385031215610a5357600080fd5b82356001600160401b0380821115610a6a57600080fd5b818501915085601f830112610a7e57600080fd5b813581811115610a9057610a906109d2565b8060051b9150610aa1848301610a10565b8181529183018401918481019088841115610abb57600080fd5b938501935b83851015610ad957843582529385019390850190610ac0565b98975050505050505050565b600060c082019050610af8828451610968565b6020830151610b0a6040840182610968565b5060408301516107086080840182610968565b600060208284031215610b2f57600080fd5b5035919050565b600060808284031215610b4857600080fd5b82601f830112610b5757600080fd5b610b5f6109e8565b806080840185811115610b7157600080fd5b845b81811015610bb25760408188031215610b8c5760008081fd5b610b946109e8565b81358152602080830135818301529085529390930192604001610b73565b509095945050505050565b6020808252602e908201527f507562506172616d3a206174747269627574652063617264696e616c6974792060408201526d0c8decae640dcdee840dac2e8c6d60931b606082015260800190565b634e487b7160e01b600052601160045260246000fd5b8181038181111561043e5761043e610c0b565b634e487b7160e01b600052603260045260246000fd5b600060018201610c5c57610c5c610c0b565b5060010190565b600060208284031215610c7557600080fd5b5051919050565b634e487b7160e01b600052601260045260246000fd5b600082610ca157610ca1610c7c565b500690565b8082018082111561043e5761043e610c0b565b600082610cc857610cc8610c7c565b50049056fe30644e72e131a029b85045b68181585d97816a916871ca8d3c208c16d87cfd47a26469706673582212203c75cb3dd5b087d7cd96e7f3589997d86a8e6fcfef9f821637abf4b7bda98fdc64736f6c6343000813003330644e72e131a029b85045b68181585d97816a916871ca8d3c208c16d87cfd47",
  "immutableReferences": {},
  "source": "// SPDX-License-Identifier: GPL-3.0\npragma solidity >=0.4.0 <0.9.0;\n\nimport \"./lib/alt_bn128.sol\";\n\ncontract PubParam {\n  using alt_bn128 for uint256;\n  using alt_bn128 for alt_bn128.G1Point;\n\n  /// @dev [g_ty, g_val, ... , g_tbeg, g_tend, g_sk, g_opn, g_ok]\n  alt_bn128.G1Point[] _gs;\n\n  alt_bn128.G1Point _g_pk; /// @dev TagKGen\n  alt_bn128.G1Point _g_tag; /// @dev TagEval\n\n  alt_bn128.G1Point _h;\n\n  uint _n_attr;\n  uint _sk_pos;\n\n  /// @dev one-time account\n  struct Acc {\n    alt_bn128.G1Point pk;\n    alt_bn128.G1Point tcom;\n    alt_bn128.G1Point ocom;\n  }\n  \n  /// @dev extends to multi-token swap\n  /// @param max_ty maximum number of traded token\n  constructor (uint max_ty) {\n    _n_attr = 2 * max_ty + 5;\n    _sk_pos = 2 * max_ty + 2;\n    init(_n_attr);\n  }\n\n  function init(uint _n) private {\n    _h = uint256(1).uintToCurvePoint();\n    _g_pk = alt_bn128.random().uintToCurvePoint();\n    _g_tag = alt_bn128.random().uintToCurvePoint();\n\n    for (uint i = 0; i < _n; i++) {\n      _gs.push(alt_bn128.random().uintToCurvePoint());\n    }\n  }\n\n  /// @dev pk = g_pk^sk\n  function TagKGen(uint256 sk) public view returns (alt_bn128.G1Point memory pk) {\n    pk = _g_pk.mul(sk);\n  }\n\n  /// @dev tag = g_tag^sk\n  function TagEval(uint256 sk) public view returns (alt_bn128.G1Point memory tag) {\n    tag = _g_tag.mul(sk);\n  }\n\n  /// @dev one-time account in single commitment form\n  function Com(uint256[] memory attr) public view returns (alt_bn128.G1Point memory acc) {\n    require (attr.length == _n_attr, \"Length unmatched\");\n    acc = alt_bn128.G1Point(0, 0);\n    for (uint i = 0 ; i < _n_attr; i++) {\n      acc = acc.add(_gs[i].mul(attr[i]));\n    }\n  }\n\n  function tCom(uint256[] memory attr) public view returns (alt_bn128.G1Point memory tcom) {\n    require (attr.length >= _n_attr-2, \"PubParam: attribute cardinality does not match\");\n    tcom = alt_bn128.G1Point(0, 0);\n    for (uint i = 0; i < _n_attr-2; i++) {\n      tcom = tcom.add(_gs[i].mul(attr[i]));\n    }\n  }\n\n  function oCom(uint256[] memory attr) public view returns (alt_bn128.G1Point memory ocom) {\n    require(attr.length == _n_attr, \"PubParam: attribute cardinality does not match\");\n    ocom = alt_bn128.G1Point(0, 0);\n    for (uint i = _n_attr-2; i < _n_attr; i++) {\n      ocom = ocom.add(_gs[i].mul(attr[i]));\n    }\n  }\n\n  /// @dev one-time account in composite form\n  function onetAcc(uint256[] memory attr) public view returns (Acc memory) {\n    require (attr.length == _n_attr, \"PubParam: attribute cardinality does not match\");\n    return Acc({\n      pk : TagKGen(attr[_n_attr-3]),\n      tcom : tCom(attr),\n      ocom : oCom(attr)\n    });\n  }\n\n  function gs() public view returns (alt_bn128.G1Point[] memory) {\n    return _gs;\n  }\n  \n  function g_tag() public view returns (alt_bn128.G1Point memory) {\n    return _g_tag;\n  }\n\n  function g_pk() public view returns (alt_bn128.G1Point memory) {\n    return _g_pk;\n  }\n\n  function g_ok() public view returns (alt_bn128.G1Point memory) {\n    return _gs[_n_attr-1];\n  }\n\n  function h() public view returns (alt_bn128.G1Point memory) {\n    return _h;\n  }\n\n  function n() public view returns (uint) {\n    return _n_attr;\n  }\n  \n  function sk_pos() public view returns (uint) {\n    return _sk_pos;\n  }\n\n  function randomAcc() public view returns (alt_bn128.G1Point memory) {\n    return alt_bn128.random().uintToCurvePoint();\n  }\n\n  function com(alt_bn128.G1Point[2] memory g) public view returns (alt_bn128.G1Point memory) {\n    return g[0].add(g[1]);\n  }\n\n}",
  "sourcePath": "/Users/qian/Desktop/Y4/COMP4550/project/XCSwap/contracts/PubParam.sol",
  "compiler": {
    "name": "solc",
    "version": "0.8.19+commit.7dd6d404.Emscripten.clang"
  },
  "schemaVersion": "3.4.13",
  "updatedAt": "2023-08-19T10:00:12.150Z",
  "networkType": "ethereum",
  "devdoc": {
    "kind": "dev",
    "methods": {
      "Com(uint256[])": {
        "details": "one-time account in single commitment form"
      },
      "TagEval(uint256)": {
        "details": "tag = g_tag^sk"
      },
      "TagKGen(uint256)": {
        "details": "pk = g_pk^sk"
      },
      "constructor": {
        "details": "extends to multi-token swap",
        "params": {
          "max_ty": "maximum number of traded token"
        }
      },
      "onetAcc(uint256[])": {
        "details": "one-time account in composite form"
      }
    },
    "stateVariables": {
      "_g_tag": {
        "details": "TagKGen"
      },
      "_gs": {
        "details": "[g_ty, g_val, ... , g_tbeg, g_tend, g_sk, g_opn, g_ok]"
      },
      "_h": {
        "details": "TagEval"
      }
    },
    "version": 1
  },
  "userdoc": {
    "kind": "user",
    "methods": {},
    "version": 1
  }
}