{
  "contractName": "PubParam",
  "abi": [
    {
      "inputs": [
        {
          "internalType": "uint256",
          "name": "max_ty",
          "type": "uint256"
        }
      ],
      "stateMutability": "nonpayable",
      "type": "constructor"
    },
    {
      "inputs": [
        {
          "internalType": "uint256",
          "name": "sk",
          "type": "uint256"
        }
      ],
      "name": "TagKGen",
      "outputs": [
        {
          "components": [
            {
              "internalType": "uint256",
              "name": "X",
              "type": "uint256"
            },
            {
              "internalType": "uint256",
              "name": "Y",
              "type": "uint256"
            }
          ],
          "internalType": "struct alt_bn128.G1Point",
          "name": "pk",
          "type": "tuple"
        }
      ],
      "stateMutability": "view",
      "type": "function"
    },
    {
      "inputs": [
        {
          "internalType": "uint256",
          "name": "sk",
          "type": "uint256"
        }
      ],
      "name": "TagEval",
      "outputs": [
        {
          "components": [
            {
              "internalType": "uint256",
              "name": "X",
              "type": "uint256"
            },
            {
              "internalType": "uint256",
              "name": "Y",
              "type": "uint256"
            }
          ],
          "internalType": "struct alt_bn128.G1Point",
          "name": "tag",
          "type": "tuple"
        }
      ],
      "stateMutability": "view",
      "type": "function"
    },
    {
      "inputs": [
        {
          "internalType": "uint256[]",
          "name": "attr",
          "type": "uint256[]"
        }
      ],
      "name": "Com",
      "outputs": [
        {
          "components": [
            {
              "internalType": "uint256",
              "name": "X",
              "type": "uint256"
            },
            {
              "internalType": "uint256",
              "name": "Y",
              "type": "uint256"
            }
          ],
          "internalType": "struct alt_bn128.G1Point",
          "name": "acc",
          "type": "tuple"
        }
      ],
      "stateMutability": "view",
      "type": "function"
    },
    {
      "inputs": [
        {
          "internalType": "uint256[]",
          "name": "attr",
          "type": "uint256[]"
        }
      ],
      "name": "tCom",
      "outputs": [
        {
          "components": [
            {
              "internalType": "uint256",
              "name": "X",
              "type": "uint256"
            },
            {
              "internalType": "uint256",
              "name": "Y",
              "type": "uint256"
            }
          ],
          "internalType": "struct alt_bn128.G1Point",
          "name": "tcom",
          "type": "tuple"
        }
      ],
      "stateMutability": "view",
      "type": "function"
    },
    {
      "inputs": [
        {
          "internalType": "uint256[]",
          "name": "attr",
          "type": "uint256[]"
        }
      ],
      "name": "oCom",
      "outputs": [
        {
          "components": [
            {
              "internalType": "uint256",
              "name": "X",
              "type": "uint256"
            },
            {
              "internalType": "uint256",
              "name": "Y",
              "type": "uint256"
            }
          ],
          "internalType": "struct alt_bn128.G1Point",
          "name": "ocom",
          "type": "tuple"
        }
      ],
      "stateMutability": "view",
      "type": "function"
    },
    {
      "inputs": [
        {
          "internalType": "uint256[]",
          "name": "attr",
          "type": "uint256[]"
        }
      ],
      "name": "onetAcc",
      "outputs": [
        {
          "components": [
            {
              "components": [
                {
                  "internalType": "uint256",
                  "name": "X",
                  "type": "uint256"
                },
                {
                  "internalType": "uint256",
                  "name": "Y",
                  "type": "uint256"
                }
              ],
              "internalType": "struct alt_bn128.G1Point",
              "name": "pk",
              "type": "tuple"
            },
            {
              "components": [
                {
                  "internalType": "uint256",
                  "name": "X",
                  "type": "uint256"
                },
                {
                  "internalType": "uint256",
                  "name": "Y",
                  "type": "uint256"
                }
              ],
              "internalType": "struct alt_bn128.G1Point",
              "name": "tcom",
              "type": "tuple"
            },
            {
              "components": [
                {
                  "internalType": "uint256",
                  "name": "X",
                  "type": "uint256"
                },
                {
                  "internalType": "uint256",
                  "name": "Y",
                  "type": "uint256"
                }
              ],
              "internalType": "struct alt_bn128.G1Point",
              "name": "ocom",
              "type": "tuple"
            }
          ],
          "internalType": "struct PubParam.Acc",
          "name": "",
          "type": "tuple"
        }
      ],
      "stateMutability": "view",
      "type": "function"
    },
    {
      "inputs": [],
      "name": "gs",
      "outputs": [
        {
          "components": [
            {
              "internalType": "uint256",
              "name": "X",
              "type": "uint256"
            },
            {
              "internalType": "uint256",
              "name": "Y",
              "type": "uint256"
            }
          ],
          "internalType": "struct alt_bn128.G1Point[]",
          "name": "",
          "type": "tuple[]"
        }
      ],
      "stateMutability": "view",
      "type": "function"
    },
    {
      "inputs": [],
      "name": "g_tag",
      "outputs": [
        {
          "components": [
            {
              "internalType": "uint256",
              "name": "X",
              "type": "uint256"
            },
            {
              "internalType": "uint256",
              "name": "Y",
              "type": "uint256"
            }
          ],
          "internalType": "struct alt_bn128.G1Point",
          "name": "",
          "type": "tuple"
        }
      ],
      "stateMutability": "view",
      "type": "function"
    },
    {
      "inputs": [],
      "name": "g_pk",
      "outputs": [
        {
          "components": [
            {
              "internalType": "uint256",
              "name": "X",
              "type": "uint256"
            },
            {
              "internalType": "uint256",
              "name": "Y",
              "type": "uint256"
            }
          ],
          "internalType": "struct alt_bn128.G1Point",
          "name": "",
          "type": "tuple"
        }
      ],
      "stateMutability": "view",
      "type": "function"
    },
    {
      "inputs": [],
      "name": "g_ok",
      "outputs": [
        {
          "components": [
            {
              "internalType": "uint256",
              "name": "X",
              "type": "uint256"
            },
            {
              "internalType": "uint256",
              "name": "Y",
              "type": "uint256"
            }
          ],
          "internalType": "struct alt_bn128.G1Point",
          "name": "",
          "type": "tuple"
        }
      ],
      "stateMutability": "view",
      "type": "function"
    },
    {
      "inputs": [],
      "name": "h",
      "outputs": [
        {
          "components": [
            {
              "internalType": "uint256",
              "name": "X",
              "type": "uint256"
            },
            {
              "internalType": "uint256",
              "name": "Y",
              "type": "uint256"
            }
          ],
          "internalType": "struct alt_bn128.G1Point",
          "name": "",
          "type": "tuple"
        }
      ],
      "stateMutability": "view",
      "type": "function"
    },
    {
      "inputs": [],
      "name": "n",
      "outputs": [
        {
          "internalType": "uint256",
          "name": "",
          "type": "uint256"
        }
      ],
      "stateMutability": "view",
      "type": "function"
    },
    {
      "inputs": [],
      "name": "sk_pos",
      "outputs": [
        {
          "internalType": "uint256",
          "name": "",
          "type": "uint256"
        }
      ],
      "stateMutability": "view",
      "type": "function"
    },
    {
      "inputs": [],
      "name": "randomAcc",
      "outputs": [
        {
          "components": [
            {
              "internalType": "uint256",
              "name": "X",
              "type": "uint256"
            },
            {
              "internalType": "uint256",
              "name": "Y",
              "type": "uint256"
            }
          ],
          "internalType": "struct alt_bn128.G1Point",
          "name": "",
          "type": "tuple"
        }
      ],
      "stateMutability": "view",
      "type": "function"
    }
  ],
  "bytecode": "0x60806040523480156200001157600080fd5b50604051620010ab380380620010ab8339810160408190526200003491620003d5565b6200004181600262000405565b6200004e90600562000425565b6007556200005e81600262000405565b6200006b90600262000425565b6008556007546200007c9062000083565b50620004b1565b6200008f600162000223565b805160055560209081015160065560408051635ec01e4d60e01b815290516200011b9273__alt_bn128_____________________________92635ec01e4d92600480830193928290030181865af4158015620000ef573d6000803e3d6000fd5b505050506040513d601f19601f82011682018060405250810190620001159190620003d5565b62000223565b805160015560209081015160025560408051635ec01e4d60e01b815290516200017b9273__alt_bn128_____________________________92635ec01e4d92600480830193928290030181865af4158015620000ef573d6000803e3d6000fd5b80516003556020015160045560005b818110156200021f576000620001e373__alt_bn128_____________________________635ec01e4d6040518163ffffffff1660e01b8152600401602060405180830381865af4158015620000ef573d6000803e3d6000fd5b8154600181810184556000938452602093849020835160029093020191825592909101519101558062000216816200043b565b9150506200018a565b5050565b60408051808201909152600080825260208201526000620002546000805160206200108b833981519152846200046d565b905060006200026560018362000484565b91506000805b8162000324576200027e60018562000425565b93506000805160206200108b83398151915284850990506000805160206200108b83398151915284820990506000805160206200108b83398151915260038208905062000305816004620002e36000805160206200108b833981519152600162000425565b620002ef91906200049a565b6000805160206200108b8339815191526200033e565b9250806000805160206200108b8339815191528485091491506200026b565b505060408051808201909152918252602082015292915050565b60006200034a62000399565b62000354620003b7565b602080835282810181905260408301819052606083018790526080830186905260a083018590528160c0846005600019fa6200038f57600080fd5b5195945050505050565b6040518060c001604052806006906020820280368337509192915050565b60405180602001604052806001906020820280368337509192915050565b600060208284031215620003e857600080fd5b5051919050565b634e487b7160e01b600052601160045260246000fd5b80820281158282048414176200041f576200041f620003ef565b92915050565b808201808211156200041f576200041f620003ef565b600060018201620004505762000450620003ef565b5060010190565b634e487b7160e01b600052601260045260246000fd5b6000826200047f576200047f62000457565b500690565b818103818111156200041f576200041f620003ef565b600082620004ac57620004ac62000457565b500490565b610bca80620004c16000396000f3fe608060405234801561001057600080fd5b50600436106100b95760003560e01c8062e71aaf146100be5780632d74e531146100dc5780632e52d606146100f157806335e009f0146101035780633789859c1461010b57806371c19b961461012b57806373b911821461013e57806394da40d2146101515780639766247114610159578063a4b33d641461016c578063b8c9d3651461017f578063babe4fe514610187578063c91581281461018f578063eef6a681146101a2575b600080fd5b6100c66101aa565b6040516100d39190610933565b60405180910390f35b6100e461021d565b6040516100d39190610980565b6007545b6040519081526020016100d3565b6100e4610240565b61011e6101193660046109a4565b610263565b6040516100d39190610a61565b6100e46101393660046109a4565b610338565b6100e461014c366004610a99565b61043a565b6100e4610469565b6100e4610167366004610a99565b6104eb565b6100e461017a3660046109a4565b610514565b6100e461057a565b6008546100f5565b6100e461019d3660046109a4565b61059d565b6100e4610608565b60606000805480602002602001604051908101604052809291908181526020016000905b82821015610214578382906000526020600020906002020160405180604001604052908160008201548152602001600182015481525050815260200190600101906101ce565b50505050905090565b610225610860565b50604080518082019091526003548152600454602082015290565b610248610860565b50604080518082019091526001548152600254602082015290565b61026b61087a565b6007548251146102d95760405162461bcd60e51b815260206004820152602e60248201527f507562506172616d3a206174747269627574652063617264696e616c6974792060448201526d0c8decae640dcdee840dac2e8c6d60931b60648201526084015b60405180910390fd5b60405180606001604052806103148460036007546102f79190610ac8565b8151811061030757610307610adb565b602002602001015161043a565b815260200161032284610514565b81526020016103308461059d565b905292915050565b610340610860565b6007548251146103855760405162461bcd60e51b815260206004820152601060248201526f13195b99dd1a081d5b9b585d18da195960821b60448201526064016102d0565b6040518060400160405280600081526020016000815250905060005b600754811015610434576104206104198483815181106103c3576103c3610adb565b6020026020010151600084815481106103de576103de610adb565b90600052602060002090600202016040518060400160405290816000820154815260200160018201548152505061066390919063ffffffff16565b83906106cb565b91508061042c81610af1565b9150506103a1565b50919050565b610442610860565b60408051808201909152600154815260025460208201526104639083610663565b92915050565b610471610860565b6104e673__alt_bn128_____________________________635ec01e4d6040518163ffffffff1660e01b8152600401602060405180830381865af41580156104bd573d6000803e3d6000fd5b505050506040513d601f19601f820116820180604052508101906104e19190610b0a565b610710565b905090565b6104f3610860565b60408051808201909152600354815260045460208201526104639083610663565b61051c610860565b6040518060400160405280600081526020016000815250905060005b60026007546105479190610ac8565b811015610434576105666104198483815181106103c3576103c3610adb565b91508061057281610af1565b915050610538565b610582610860565b50604080518082019091526005548152600654602082015290565b6105a5610860565b60405180604001604052806000815260200160008152509050600060026007546105cf9190610ac8565b90505b600754811015610434576105f46104198483815181106103c3576103c3610adb565b91508061060081610af1565b9150506105d2565b610610610860565b600060016007546106219190610ac8565b8154811061063157610631610adb565b906000526020600020906002020160405180604001604052908160008201548152602001600182015481525050905090565b61066b610860565b8160010361067a575081610463565b816002036106935761068c83846106cb565b9050610463565b61069b6108ac565b83518152602080850151908201526040808201849052826060836007600019fa6106c457600080fd5b5092915050565b6106d3610860565b6106db6108ca565b83518152602080850151818301528351604080840191909152908401516060830152826080836006600019fa6106c457600080fd5b610718610860565b6000610732600080516020610b7583398151915284610b39565b90506000610741600183610ac8565b91506000805b816107f057610757600185610b4d565b9350600080516020610b758339815191528485099050600080516020610b758339815191528482099050600080516020610b758339815191526003820890506107d38160046107b5600080516020610b758339815191526001610b4d565b6107bf9190610b60565b600080516020610b7583398151915261080a565b925080600080516020610b75833981519152848509149150610747565b505060408051808201909152918252602082015292915050565b60006108146108e8565b61081c610906565b602080835282810181905260408301819052606083018790526080830186905260a083018590528160c0846005600019fa61085657600080fd5b5195945050505050565b604051806040016040528060008152602001600081525090565b604051806060016040528061088d610860565b815260200161089a610860565b81526020016108a7610860565b905290565b60405180606001604052806003906020820280368337509192915050565b60405180608001604052806004906020820280368337509192915050565b6040518060c001604052806006906020820280368337509192915050565b60405180602001604052806001906020820280368337509192915050565b80518252602090810151910152565b602080825282518282018190526000919060409081850190868401855b8281101561097357610963848351610924565b9284019290850190600101610950565b5091979650505050505050565b604081016104638284610924565b634e487b7160e01b600052604160045260246000fd5b600060208083850312156109b757600080fd5b82356001600160401b03808211156109ce57600080fd5b818501915085601f8301126109e257600080fd5b8135818111156109f4576109f461098e565b8060051b604051601f19603f83011681018181108582111715610a1957610a1961098e565b604052918252848201925083810185019188831115610a3757600080fd5b938501935b82851015610a5557843584529385019392850192610a3c565b98975050505050505050565b600060c082019050610a74828451610924565b6020830151610a866040840182610924565b5060408301516106c46080840182610924565b600060208284031215610aab57600080fd5b5035919050565b634e487b7160e01b600052601160045260246000fd5b8181038181111561046357610463610ab2565b634e487b7160e01b600052603260045260246000fd5b600060018201610b0357610b03610ab2565b5060010190565b600060208284031215610b1c57600080fd5b5051919050565b634e487b7160e01b600052601260045260246000fd5b600082610b4857610b48610b23565b500690565b8082018082111561046357610463610ab2565b600082610b6f57610b6f610b23565b50049056fe30644e72e131a029b85045b68181585d97816a916871ca8d3c208c16d87cfd47a2646970667358221220810dd3fc9d66fc481eef457084802937560c107c1569b05b6250231204b6ab4664736f6c6343000813003330644e72e131a029b85045b68181585d97816a916871ca8d3c208c16d87cfd47",
  "immutableReferences": {},
  "source": "// SPDX-License-Identifier: GPL-3.0\npragma solidity >=0.4.0 <0.9.0;\n\nimport \"./lib/alt_bn128.sol\";\n\ncontract PubParam {\n  using alt_bn128 for uint256;\n  using alt_bn128 for alt_bn128.G1Point;\n\n  /// @dev [g_ty, g_val, ... , g_tbeg, g_tend, g_sk, g_opn, g_ok]\n  alt_bn128.G1Point[] _gs;\n\n  alt_bn128.G1Point _g_pk; /// @dev TagKGen\n  alt_bn128.G1Point _g_tag; /// @dev TagEval\n\n  alt_bn128.G1Point _h;\n\n  uint _n_attr;\n  uint _sk_pos;\n\n  /// @dev one-time account\n  struct Acc {\n    alt_bn128.G1Point pk;\n    alt_bn128.G1Point tcom;\n    alt_bn128.G1Point ocom;\n  }\n  \n  /// @dev extends to multi-token swap\n  /// @param max_ty maximum number of traded token\n  constructor (uint max_ty) {\n    _n_attr = 2 * max_ty + 5;\n    _sk_pos = 2 * max_ty + 2;\n    init(_n_attr);\n  }\n\n  function init(uint _n) private {\n    _h = uint256(1).uintToCurvePoint();\n    _g_pk = alt_bn128.random().uintToCurvePoint();\n    _g_tag = alt_bn128.random().uintToCurvePoint();\n\n    for (uint i = 0; i < _n; i++) {\n      _gs.push(alt_bn128.random().uintToCurvePoint());\n    }\n  }\n\n  /// @dev pk = g_pk^sk\n  function TagKGen(uint256 sk) public view returns (alt_bn128.G1Point memory pk) {\n    pk = _g_pk.mul(sk);\n  }\n\n  /// @dev tag = g_tag^sk\n  function TagEval(uint256 sk) public view returns (alt_bn128.G1Point memory tag) {\n    tag = _g_tag.mul(sk);\n  }\n\n  /// @dev one-time account in single commitment form\n  function Com(uint256[] memory attr) public view returns (alt_bn128.G1Point memory acc) {\n    require (attr.length == _n_attr, \"Length unmatched\");\n    acc = alt_bn128.G1Point(0, 0);\n    for (uint i = 0 ; i < _n_attr; i++) {\n      acc = acc.add(_gs[i].mul(attr[i]));\n    }\n  }\n\n  function tCom(uint256[] memory attr) public view returns (alt_bn128.G1Point memory tcom) {\n    tcom = alt_bn128.G1Point(0, 0);\n    for (uint i = 0; i < _n_attr-2; i++) {\n      tcom = tcom.add(_gs[i].mul(attr[i]));\n    }\n  }\n\n  function oCom(uint256[] memory attr) public view returns (alt_bn128.G1Point memory ocom) {\n    ocom = alt_bn128.G1Point(0, 0);\n    for (uint i = _n_attr-2; i < _n_attr; i++) {\n      ocom = ocom.add(_gs[i].mul(attr[i]));\n    }\n  }\n\n  /// @dev one-time account in composite form\n  function onetAcc(uint256[] memory attr) public view returns (Acc memory) {\n    require (attr.length == _n_attr, \"PubParam: attribute cardinality does not match\");\n    return Acc({\n      pk : TagKGen(attr[_n_attr-3]),\n      tcom : tCom(attr),\n      ocom : oCom(attr)\n    });\n  }\n\n  function gs() public view returns (alt_bn128.G1Point[] memory) {\n    return _gs;\n  }\n  \n  function g_tag() public view returns (alt_bn128.G1Point memory) {\n    return _g_tag;\n  }\n\n  function g_pk() public view returns (alt_bn128.G1Point memory) {\n    return _g_pk;\n  }\n\n  function g_ok() public view returns (alt_bn128.G1Point memory) {\n    return _gs[_n_attr-1];\n  }\n\n  function h() public view returns (alt_bn128.G1Point memory) {\n    return _h;\n  }\n\n  function n() public view returns (uint) {\n    return _n_attr;\n  }\n  \n  function sk_pos() public view returns (uint) {\n    return _sk_pos;\n  }\n\n  function randomAcc() public view returns (alt_bn128.G1Point memory) {\n    return alt_bn128.random().uintToCurvePoint();\n  }\n\n}",
  "sourcePath": "/Users/qian/Desktop/Y4/COMP4550/project/XCSwap/contracts/PubParam.sol",
  "compiler": {
    "name": "solc",
    "version": "0.8.19+commit.7dd6d404.Emscripten.clang"
  },
  "schemaVersion": "3.4.13",
  "updatedAt": "2023-08-05T06:56:56.349Z",
  "devdoc": {
    "kind": "dev",
    "methods": {
      "Com(uint256[])": {
        "details": "one-time account in single commitment form"
      },
      "TagEval(uint256)": {
        "details": "tag = g_tag^sk"
      },
      "TagKGen(uint256)": {
        "details": "pk = g_pk^sk"
      },
      "constructor": {
        "details": "extends to multi-token swap",
        "params": {
          "max_ty": "maximum number of traded token"
        }
      },
      "onetAcc(uint256[])": {
        "details": "one-time account in composite form"
      }
    },
    "stateVariables": {
      "_g_tag": {
        "details": "TagKGen"
      },
      "_gs": {
        "details": "[g_ty, g_val, ... , g_tbeg, g_tend, g_sk, g_opn, g_ok]"
      },
      "_h": {
        "details": "TagEval"
      }
    },
    "version": 1
  },
  "userdoc": {
    "kind": "user",
    "methods": {},
    "version": 1
  }
}