{
  "contractName": "PubParam",
  "abi": [
    {
      "inputs": [
        {
          "internalType": "uint256",
          "name": "max_ty",
          "type": "uint256"
        }
      ],
      "stateMutability": "nonpayable",
      "type": "constructor"
    },
    {
      "inputs": [
        {
          "components": [
            {
              "internalType": "uint256",
              "name": "X",
              "type": "uint256"
            },
            {
              "internalType": "uint256",
              "name": "Y",
              "type": "uint256"
            }
          ],
          "internalType": "struct alt_bn128.G1Point[]",
          "name": "gs_",
          "type": "tuple[]"
        },
        {
          "components": [
            {
              "internalType": "uint256",
              "name": "X",
              "type": "uint256"
            },
            {
              "internalType": "uint256",
              "name": "Y",
              "type": "uint256"
            }
          ],
          "internalType": "struct alt_bn128.G1Point",
          "name": "g_pk_",
          "type": "tuple"
        },
        {
          "components": [
            {
              "internalType": "uint256",
              "name": "X",
              "type": "uint256"
            },
            {
              "internalType": "uint256",
              "name": "Y",
              "type": "uint256"
            }
          ],
          "internalType": "struct alt_bn128.G1Point",
          "name": "g_tag_",
          "type": "tuple"
        },
        {
          "components": [
            {
              "internalType": "uint256",
              "name": "X",
              "type": "uint256"
            },
            {
              "internalType": "uint256",
              "name": "Y",
              "type": "uint256"
            }
          ],
          "internalType": "struct alt_bn128.G1Point",
          "name": "h_",
          "type": "tuple"
        }
      ],
      "name": "set",
      "outputs": [],
      "stateMutability": "nonpayable",
      "type": "function"
    },
    {
      "inputs": [
        {
          "internalType": "uint256",
          "name": "sk",
          "type": "uint256"
        }
      ],
      "name": "TagKGen",
      "outputs": [
        {
          "components": [
            {
              "internalType": "uint256",
              "name": "X",
              "type": "uint256"
            },
            {
              "internalType": "uint256",
              "name": "Y",
              "type": "uint256"
            }
          ],
          "internalType": "struct alt_bn128.G1Point",
          "name": "pk",
          "type": "tuple"
        }
      ],
      "stateMutability": "view",
      "type": "function",
      "constant": true
    },
    {
      "inputs": [
        {
          "internalType": "uint256",
          "name": "sk",
          "type": "uint256"
        }
      ],
      "name": "TagEval",
      "outputs": [
        {
          "components": [
            {
              "internalType": "uint256",
              "name": "X",
              "type": "uint256"
            },
            {
              "internalType": "uint256",
              "name": "Y",
              "type": "uint256"
            }
          ],
          "internalType": "struct alt_bn128.G1Point",
          "name": "tag",
          "type": "tuple"
        }
      ],
      "stateMutability": "view",
      "type": "function",
      "constant": true
    },
    {
      "inputs": [
        {
          "internalType": "uint256[]",
          "name": "attr",
          "type": "uint256[]"
        }
      ],
      "name": "Com",
      "outputs": [
        {
          "components": [
            {
              "internalType": "uint256",
              "name": "X",
              "type": "uint256"
            },
            {
              "internalType": "uint256",
              "name": "Y",
              "type": "uint256"
            }
          ],
          "internalType": "struct alt_bn128.G1Point",
          "name": "acc",
          "type": "tuple"
        }
      ],
      "stateMutability": "view",
      "type": "function",
      "constant": true
    },
    {
      "inputs": [
        {
          "internalType": "uint256[]",
          "name": "attr",
          "type": "uint256[]"
        }
      ],
      "name": "tCom",
      "outputs": [
        {
          "components": [
            {
              "internalType": "uint256",
              "name": "X",
              "type": "uint256"
            },
            {
              "internalType": "uint256",
              "name": "Y",
              "type": "uint256"
            }
          ],
          "internalType": "struct alt_bn128.G1Point",
          "name": "tcom",
          "type": "tuple"
        }
      ],
      "stateMutability": "view",
      "type": "function",
      "constant": true
    },
    {
      "inputs": [
        {
          "internalType": "uint256[]",
          "name": "attr",
          "type": "uint256[]"
        }
      ],
      "name": "oCom",
      "outputs": [
        {
          "components": [
            {
              "internalType": "uint256",
              "name": "X",
              "type": "uint256"
            },
            {
              "internalType": "uint256",
              "name": "Y",
              "type": "uint256"
            }
          ],
          "internalType": "struct alt_bn128.G1Point",
          "name": "ocom",
          "type": "tuple"
        }
      ],
      "stateMutability": "view",
      "type": "function",
      "constant": true
    },
    {
      "inputs": [
        {
          "internalType": "uint256[]",
          "name": "attr",
          "type": "uint256[]"
        }
      ],
      "name": "onetAcc",
      "outputs": [
        {
          "components": [
            {
              "components": [
                {
                  "internalType": "uint256",
                  "name": "X",
                  "type": "uint256"
                },
                {
                  "internalType": "uint256",
                  "name": "Y",
                  "type": "uint256"
                }
              ],
              "internalType": "struct alt_bn128.G1Point",
              "name": "pk",
              "type": "tuple"
            },
            {
              "components": [
                {
                  "internalType": "uint256",
                  "name": "X",
                  "type": "uint256"
                },
                {
                  "internalType": "uint256",
                  "name": "Y",
                  "type": "uint256"
                }
              ],
              "internalType": "struct alt_bn128.G1Point",
              "name": "tcom",
              "type": "tuple"
            },
            {
              "components": [
                {
                  "internalType": "uint256",
                  "name": "X",
                  "type": "uint256"
                },
                {
                  "internalType": "uint256",
                  "name": "Y",
                  "type": "uint256"
                }
              ],
              "internalType": "struct alt_bn128.G1Point",
              "name": "ocom",
              "type": "tuple"
            }
          ],
          "internalType": "struct PubParam.Acc",
          "name": "",
          "type": "tuple"
        }
      ],
      "stateMutability": "view",
      "type": "function",
      "constant": true
    },
    {
      "inputs": [],
      "name": "gs",
      "outputs": [
        {
          "components": [
            {
              "internalType": "uint256",
              "name": "X",
              "type": "uint256"
            },
            {
              "internalType": "uint256",
              "name": "Y",
              "type": "uint256"
            }
          ],
          "internalType": "struct alt_bn128.G1Point[]",
          "name": "",
          "type": "tuple[]"
        }
      ],
      "stateMutability": "view",
      "type": "function",
      "constant": true
    },
    {
      "inputs": [],
      "name": "g_tag",
      "outputs": [
        {
          "components": [
            {
              "internalType": "uint256",
              "name": "X",
              "type": "uint256"
            },
            {
              "internalType": "uint256",
              "name": "Y",
              "type": "uint256"
            }
          ],
          "internalType": "struct alt_bn128.G1Point",
          "name": "",
          "type": "tuple"
        }
      ],
      "stateMutability": "view",
      "type": "function",
      "constant": true
    },
    {
      "inputs": [],
      "name": "g_pk",
      "outputs": [
        {
          "components": [
            {
              "internalType": "uint256",
              "name": "X",
              "type": "uint256"
            },
            {
              "internalType": "uint256",
              "name": "Y",
              "type": "uint256"
            }
          ],
          "internalType": "struct alt_bn128.G1Point",
          "name": "",
          "type": "tuple"
        }
      ],
      "stateMutability": "view",
      "type": "function",
      "constant": true
    },
    {
      "inputs": [],
      "name": "g_ok",
      "outputs": [
        {
          "components": [
            {
              "internalType": "uint256",
              "name": "X",
              "type": "uint256"
            },
            {
              "internalType": "uint256",
              "name": "Y",
              "type": "uint256"
            }
          ],
          "internalType": "struct alt_bn128.G1Point",
          "name": "",
          "type": "tuple"
        }
      ],
      "stateMutability": "view",
      "type": "function",
      "constant": true
    },
    {
      "inputs": [],
      "name": "h",
      "outputs": [
        {
          "components": [
            {
              "internalType": "uint256",
              "name": "X",
              "type": "uint256"
            },
            {
              "internalType": "uint256",
              "name": "Y",
              "type": "uint256"
            }
          ],
          "internalType": "struct alt_bn128.G1Point",
          "name": "",
          "type": "tuple"
        }
      ],
      "stateMutability": "view",
      "type": "function",
      "constant": true
    },
    {
      "inputs": [],
      "name": "n",
      "outputs": [
        {
          "internalType": "uint256",
          "name": "",
          "type": "uint256"
        }
      ],
      "stateMutability": "view",
      "type": "function",
      "constant": true
    },
    {
      "inputs": [],
      "name": "sk_pos",
      "outputs": [
        {
          "internalType": "uint256",
          "name": "",
          "type": "uint256"
        }
      ],
      "stateMutability": "view",
      "type": "function",
      "constant": true
    },
    {
      "inputs": [],
      "name": "randomAcc",
      "outputs": [
        {
          "components": [
            {
              "internalType": "uint256",
              "name": "X",
              "type": "uint256"
            },
            {
              "internalType": "uint256",
              "name": "Y",
              "type": "uint256"
            }
          ],
          "internalType": "struct alt_bn128.G1Point",
          "name": "",
          "type": "tuple"
        }
      ],
      "stateMutability": "view",
      "type": "function",
      "constant": true
    },
    {
      "inputs": [
        {
          "components": [
            {
              "internalType": "uint256",
              "name": "X",
              "type": "uint256"
            },
            {
              "internalType": "uint256",
              "name": "Y",
              "type": "uint256"
            }
          ],
          "internalType": "struct alt_bn128.G1Point[2]",
          "name": "g",
          "type": "tuple[2]"
        }
      ],
      "name": "com",
      "outputs": [
        {
          "components": [
            {
              "internalType": "uint256",
              "name": "X",
              "type": "uint256"
            },
            {
              "internalType": "uint256",
              "name": "Y",
              "type": "uint256"
            }
          ],
          "internalType": "struct alt_bn128.G1Point",
          "name": "",
          "type": "tuple"
        }
      ],
      "stateMutability": "view",
      "type": "function",
      "constant": true
    }
  ],
  "bytecode": "0x60806040523480156200001157600080fd5b5060405162001411380380620014118339810160408190526200003491620003dc565b620000418160026200040c565b6200004e9060056200042c565b6007556200005e8160026200040c565b6200006b9060026200042c565b6008556007546200007c9062000083565b50620004b8565b60405163b863bd3760e01b815260048101829052620001069073__alt_bn128_____________________________9063b863bd37906024015b602060405180830381865af4158015620000da573d6000803e3d6000fd5b505050506040513d601f19601f82011682018060405250810190620001009190620003dc565b6200022a565b8051600555602001516006556200015c73__alt_bn128_____________________________63b863bd376200013d8460016200042c565b6040518263ffffffff1660e01b8152600401620000bc91815260200190565b8051600155602001516002908155620001989073__alt_bn128_____________________________9063b863bd37906200013d9085906200042c565b80516003556020015160045560005b8181101562000226576000620001ea73__alt_bn128_____________________________63b863bd3784620001de8760036200042c565b6200013d91906200042c565b815460018181018455600093845260209384902083516002909302019182559290910151910155806200021d8162000442565b915050620001a7565b5050565b604080518082019091526000808252602082015260006200025b600080516020620013f18339815191528462000474565b905060006200026c6001836200048b565b91506000805b816200032b57620002856001856200042c565b9350600080516020620013f18339815191528485099050600080516020620013f18339815191528482099050600080516020620013f18339815191526003820890506200030c816004620002ea600080516020620013f183398151915260016200042c565b620002f69190620004a1565b600080516020620013f183398151915262000345565b925080600080516020620013f183398151915284850914915062000272565b505060408051808201909152918252602082015292915050565b600062000351620003a0565b6200035b620003be565b602080835282810181905260408301819052606083018790526080830186905260a083018590528160c0846005600019fa6200039657600080fd5b5195945050505050565b6040518060c001604052806006906020820280368337509192915050565b60405180602001604052806001906020820280368337509192915050565b600060208284031215620003ef57600080fd5b5051919050565b634e487b7160e01b600052601160045260246000fd5b8082028115828204841417620004265762000426620003f6565b92915050565b80820180821115620004265762000426620003f6565b600060018201620004575762000457620003f6565b5060010190565b634e487b7160e01b600052601260045260246000fd5b6000826200048657620004866200045e565b500690565b81810381811115620004265762000426620003f6565b600082620004b357620004b36200045e565b500490565b610f2980620004c86000396000f3fe608060405234801561001057600080fd5b50600436106100cf5760003560e01c8062e71aaf146100d45780632d74e531146100f25780632e52d6061461010757806335e009f0146101195780633789859c1461012157806371c19b961461014157806373b911821461015457806394da40d214610167578063976624711461016f578063a4b33d6414610182578063afbc83bd14610195578063b8c9d365146101aa578063babe4fe5146101b2578063bc52d55b146101ba578063c9158128146101cd578063eef6a681146101e0575b600080fd5b6100dc6101e8565b6040516100e99190610a70565b60405180910390f35b6100fa61025b565b6040516100e99190610abd565b6007545b6040519081526020016100e9565b6100fa61027e565b61013461012f366004610b5c565b6102a1565b6040516100e99190610bf1565b6100fa61014f366004610b5c565b610333565b6100fa610162366004610c29565b610435565b6100fa610464565b6100fa61017d366004610c29565b6104e6565b6100fa610190366004610b5c565b61050f565b6101a86101a3366004610c72565b6105a4565b005b6100fa61067d565b60085461010b565b6100fa6101c8366004610d43565b6106a0565b6100fa6101db366004610b5c565b6106b8565b6100fa610745565b60606000805480602002602001604051908101604052809291908181526020016000905b828210156102525783829060005260206000209060020201604051806040016040529081600082015481526020016001820154815250508152602001906001019061020c565b50505050905090565b61026361099d565b50604080518082019091526003548152600454602082015290565b61028661099d565b50604080518082019091526001548152600254602082015290565b6102a96109b7565b6007548251146102d45760405162461bcd60e51b81526004016102cb90610dad565b60405180910390fd5b604051806060016040528061030f8460036007546102f29190610e11565b8151811061030257610302610e24565b6020026020010151610435565b815260200161031d8461050f565b815260200161032b846106b8565b905292915050565b61033b61099d565b6007548251146103805760405162461bcd60e51b815260206004820152601060248201526f13195b99dd1a081d5b9b585d18da195960821b60448201526064016102cb565b6040518060400160405280600081526020016000815250905060005b60075481101561042f5761041b6104148483815181106103be576103be610e24565b6020026020010151600084815481106103d9576103d9610e24565b9060005260206000209060020201604051806040016040529081600082015481526020016001820154815250506107a090919063ffffffff16565b8390610808565b91508061042781610e3a565b91505061039c565b50919050565b61043d61099d565b604080518082019091526001548152600254602082015261045e90836107a0565b92915050565b61046c61099d565b6104e173__alt_bn128_____________________________635ec01e4d6040518163ffffffff1660e01b8152600401602060405180830381865af41580156104b8573d6000803e3d6000fd5b505050506040513d601f19601f820116820180604052508101906104dc9190610e53565b61084d565b905090565b6104ee61099d565b604080518082019091526003548152600454602082015261045e90836107a0565b61051761099d565b60026007546105269190610e11565b825110156105465760405162461bcd60e51b81526004016102cb90610dad565b6040518060400160405280600081526020016000815250905060005b60026007546105719190610e11565b81101561042f576105906104148483815181106103be576103be610e24565b91508061059c81610e3a565b915050610562565b835160005b818110156105f25760008054806105c2576105c2610e6c565b600082815260208120600260001990930192830201818155600101559055806105ea81610e3a565b9150506105a9565b5060005b855181101561065457600086828151811061061357610613610e24565b60209081029190910181015182546001818101855560009485529383902082516002909202019081559101519101558061064c81610e3a565b9150506105f6565b505082516001556020928301516002558151600355908201516004558051600555015160065550565b61068561099d565b50604080518082019091526005548152600654602082015290565b6106a861099d565b6020820151825161045e91610808565b6106c061099d565b6007548251146106e25760405162461bcd60e51b81526004016102cb90610dad565b604051806040016040528060008152602001600081525090506000600260075461070c9190610e11565b90505b60075481101561042f576107316104148483815181106103be576103be610e24565b91508061073d81610e3a565b91505061070f565b61074d61099d565b6000600160075461075e9190610e11565b8154811061076e5761076e610e24565b906000526020600020906002020160405180604001604052908160008201548152602001600182015481525050905090565b6107a861099d565b816001036107b757508161045e565b816002036107d0576107c98384610808565b905061045e565b6107d86109e9565b83518152602080850151908201526040808201849052826060836007600019fa61080157600080fd5b5092915050565b61081061099d565b610818610a07565b83518152602080850151818301528351604080840191909152908401516060830152826080836006600019fa61080157600080fd5b61085561099d565b600061086f600080516020610ed483398151915284610e98565b9050600061087e600183610e11565b91506000805b8161092d57610894600185610eac565b9350600080516020610ed48339815191528485099050600080516020610ed48339815191528482099050600080516020610ed48339815191526003820890506109108160046108f2600080516020610ed48339815191526001610eac565b6108fc9190610ebf565b600080516020610ed4833981519152610947565b925080600080516020610ed4833981519152848509149150610884565b505060408051808201909152918252602082015292915050565b6000610951610a25565b610959610a43565b602080835282810181905260408301819052606083018790526080830186905260a083018590528160c0846005600019fa61099357600080fd5b5195945050505050565b604051806040016040528060008152602001600081525090565b60405180606001604052806109ca61099d565b81526020016109d761099d565b81526020016109e461099d565b905290565b60405180606001604052806003906020820280368337509192915050565b60405180608001604052806004906020820280368337509192915050565b6040518060c001604052806006906020820280368337509192915050565b60405180602001604052806001906020820280368337509192915050565b80518252602090810151910152565b602080825282518282018190526000919060409081850190868401855b82811015610ab057610aa0848351610a61565b9284019290850190600101610a8d565b5091979650505050505050565b6040810161045e8284610a61565b634e487b7160e01b600052604160045260246000fd5b604080519081016001600160401b0381118282101715610b0357610b03610acb565b60405290565b604051601f8201601f191681016001600160401b0381118282101715610b3157610b31610acb565b604052919050565b60006001600160401b03821115610b5257610b52610acb565b5060051b60200190565b60006020808385031215610b6f57600080fd5b82356001600160401b03811115610b8557600080fd5b8301601f81018513610b9657600080fd5b8035610ba9610ba482610b39565b610b09565b81815260059190911b82018301908381019087831115610bc857600080fd5b928401925b82841015610be657833582529284019290840190610bcd565b979650505050505050565b600060c082019050610c04828451610a61565b6020830151610c166040840182610a61565b5060408301516108016080840182610a61565b600060208284031215610c3b57600080fd5b5035919050565b600060408284031215610c5457600080fd5b610c5c610ae1565b9050813581526020820135602082015292915050565b60008060008060e08587031215610c8857600080fd5b84356001600160401b03811115610c9e57600080fd5b8501601f81018713610caf57600080fd5b80356020610cbf610ba483610b39565b82815260069290921b8301810191818101908a841115610cde57600080fd5b938201935b83851015610d0757610cf58b86610c42565b82528282019150604085019450610ce3565b9750610d17905089898301610c42565b9550505050610d298660608701610c42565b9150610d388660a08701610c42565b905092959194509250565b600060808284031215610d5557600080fd5b82601f830112610d6457600080fd5b610d6c610ae1565b806080840185811115610d7e57600080fd5b845b81811015610da257610d928782610c42565b8452602090930192604001610d80565b509095945050505050565b6020808252602e908201527f507562506172616d3a206174747269627574652063617264696e616c6974792060408201526d0c8decae640dcdee840dac2e8c6d60931b606082015260800190565b634e487b7160e01b600052601160045260246000fd5b8181038181111561045e5761045e610dfb565b634e487b7160e01b600052603260045260246000fd5b600060018201610e4c57610e4c610dfb565b5060010190565b600060208284031215610e6557600080fd5b5051919050565b634e487b7160e01b600052603160045260246000fd5b634e487b7160e01b600052601260045260246000fd5b600082610ea757610ea7610e82565b500690565b8082018082111561045e5761045e610dfb565b600082610ece57610ece610e82565b50049056fe30644e72e131a029b85045b68181585d97816a916871ca8d3c208c16d87cfd47a26469706673582212204bfd1c41bf1190aaae5ac89a862201f0e149ed7a353872562becd28fabe6ed8764736f6c6343000813003330644e72e131a029b85045b68181585d97816a916871ca8d3c208c16d87cfd47",
  "immutableReferences": {},
  "source": "// SPDX-License-Identifier: GPL-3.0\npragma solidity >=0.4.0 <0.9.0;\n\nimport \"./lib/alt_bn128.sol\";\n\ncontract PubParam {\n  using alt_bn128 for uint256;\n  using alt_bn128 for alt_bn128.G1Point;\n\n  /// @dev [g_ty, g_val, ... , g_tbeg, g_tend, g_sk, g_opn, g_ok]\n  alt_bn128.G1Point[] _gs;\n\n  alt_bn128.G1Point _g_pk; /// @dev TagKGen\n  alt_bn128.G1Point _g_tag; /// @dev TagEval\n\n  alt_bn128.G1Point _h;\n\n  uint _n_attr;\n  uint _sk_pos;\n\n  /// @dev one-time account\n  struct Acc {\n    alt_bn128.G1Point pk;\n    alt_bn128.G1Point tcom;\n    alt_bn128.G1Point ocom;\n  }\n  \n  /// @dev extends to multi-token swap\n  /// @param max_ty maximum number of traded token\n  constructor (uint max_ty) {\n    _n_attr = 2 * max_ty + 5;\n    _sk_pos = 2 * max_ty + 2;\n    init(_n_attr);\n  }\n\n  function init(uint _n) private {\n    _h = alt_bn128.random(_n).uintToCurvePoint();\n    _g_pk = alt_bn128.random(_n+1).uintToCurvePoint();\n    _g_tag = alt_bn128.random(_n+2).uintToCurvePoint();\n\n    for (uint i = 0; i < _n; i++) {\n      _gs.push(alt_bn128.random(_n+3+i).uintToCurvePoint());\n    }\n  }\n\n  function set(\n    alt_bn128.G1Point[] memory gs_, \n    alt_bn128.G1Point memory g_pk_, \n    alt_bn128.G1Point memory g_tag_,\n    alt_bn128.G1Point memory h_\n    ) public {\n    uint length = gs_.length;\n    for (uint i = 0; i < length; i++) {\n      _gs.pop();\n    }\n\n    for (uint i = 0; i < gs_.length; i++) {\n      _gs.push(gs_[i]);\n    }\n    _g_pk = g_pk_;\n    _g_tag = g_tag_;\n    _h = h_;\n  }\n\n  /// @dev pk = g_pk^sk\n  function TagKGen(uint256 sk) public view returns (alt_bn128.G1Point memory pk) {\n    pk = _g_pk.mul(sk);\n  }\n\n  /// @dev tag = g_tag^sk\n  function TagEval(uint256 sk) public view returns (alt_bn128.G1Point memory tag) {\n    tag = _g_tag.mul(sk);\n  }\n\n  /// @dev one-time account in single commitment form\n  function Com(uint256[] memory attr) public view returns (alt_bn128.G1Point memory acc) {\n    require (attr.length == _n_attr, \"Length unmatched\");\n    acc = alt_bn128.G1Point(0, 0);\n    for (uint i = 0 ; i < _n_attr; i++) {\n      acc = acc.add(_gs[i].mul(attr[i]));\n    }\n  }\n\n  function tCom(uint256[] memory attr) public view returns (alt_bn128.G1Point memory tcom) {\n    require (attr.length >= _n_attr-2, \"PubParam: attribute cardinality does not match\");\n    tcom = alt_bn128.G1Point(0, 0);\n    for (uint i = 0; i < _n_attr-2; i++) {\n      tcom = tcom.add(_gs[i].mul(attr[i]));\n    }\n  }\n\n  function oCom(uint256[] memory attr) public view returns (alt_bn128.G1Point memory ocom) {\n    require(attr.length == _n_attr, \"PubParam: attribute cardinality does not match\");\n    ocom = alt_bn128.G1Point(0, 0);\n    for (uint i = _n_attr-2; i < _n_attr; i++) {\n      ocom = ocom.add(_gs[i].mul(attr[i]));\n    }\n  }\n\n  /// @dev one-time account in composite form\n  function onetAcc(uint256[] memory attr) public view returns (Acc memory) {\n    require (attr.length == _n_attr, \"PubParam: attribute cardinality does not match\");\n    return Acc({\n      pk : TagKGen(attr[_n_attr-3]),\n      tcom : tCom(attr),\n      ocom : oCom(attr)\n    });\n  }\n\n  function gs() public view returns (alt_bn128.G1Point[] memory) {\n    return _gs;\n  }\n  \n  function g_tag() public view returns (alt_bn128.G1Point memory) {\n    return _g_tag;\n  }\n\n  function g_pk() public view returns (alt_bn128.G1Point memory) {\n    return _g_pk;\n  }\n\n  function g_ok() public view returns (alt_bn128.G1Point memory) {\n    return _gs[_n_attr-1];\n  }\n\n  function h() public view returns (alt_bn128.G1Point memory) {\n    return _h;\n  }\n\n  function n() public view returns (uint) {\n    return _n_attr;\n  }\n  \n  function sk_pos() public view returns (uint) {\n    return _sk_pos;\n  }\n\n  function randomAcc() public view returns (alt_bn128.G1Point memory) {\n    return alt_bn128.random().uintToCurvePoint();\n  }\n\n  function com(alt_bn128.G1Point[2] memory g) public view returns (alt_bn128.G1Point memory) {\n    return g[0].add(g[1]);\n  }\n\n}",
  "sourcePath": "/Users/qian/Desktop/Y4/COMP4550/project/XCSwap/contracts/PubParam.sol",
  "compiler": {
    "name": "solc",
    "version": "0.8.19+commit.7dd6d404.Emscripten.clang"
  },
  "schemaVersion": "3.4.13",
  "updatedAt": "2023-10-15T17:48:15.665Z",
  "networkType": "ethereum",
  "devdoc": {
    "kind": "dev",
    "methods": {
      "Com(uint256[])": {
        "details": "one-time account in single commitment form"
      },
      "TagEval(uint256)": {
        "details": "tag = g_tag^sk"
      },
      "TagKGen(uint256)": {
        "details": "pk = g_pk^sk"
      },
      "constructor": {
        "details": "extends to multi-token swap",
        "params": {
          "max_ty": "maximum number of traded token"
        }
      },
      "onetAcc(uint256[])": {
        "details": "one-time account in composite form"
      }
    },
    "stateVariables": {
      "_g_tag": {
        "details": "TagKGen"
      },
      "_gs": {
        "details": "[g_ty, g_val, ... , g_tbeg, g_tend, g_sk, g_opn, g_ok]"
      },
      "_h": {
        "details": "TagEval"
      }
    },
    "version": 1
  },
  "userdoc": {
    "kind": "user",
    "methods": {},
    "version": 1
  }
}