{
  "contractName": "PubParam",
  "abi": [
    {
      "inputs": [
        {
          "internalType": "uint256",
          "name": "max_ty",
          "type": "uint256"
        }
      ],
      "stateMutability": "nonpayable",
      "type": "constructor"
    },
    {
      "inputs": [
        {
          "internalType": "uint256",
          "name": "sk",
          "type": "uint256"
        }
      ],
      "name": "TagKGen",
      "outputs": [
        {
          "components": [
            {
              "internalType": "uint256",
              "name": "X",
              "type": "uint256"
            },
            {
              "internalType": "uint256",
              "name": "Y",
              "type": "uint256"
            }
          ],
          "internalType": "struct alt_bn128.G1Point",
          "name": "pk",
          "type": "tuple"
        }
      ],
      "stateMutability": "view",
      "type": "function"
    },
    {
      "inputs": [
        {
          "internalType": "uint256",
          "name": "sk",
          "type": "uint256"
        }
      ],
      "name": "TagEval",
      "outputs": [
        {
          "components": [
            {
              "internalType": "uint256",
              "name": "X",
              "type": "uint256"
            },
            {
              "internalType": "uint256",
              "name": "Y",
              "type": "uint256"
            }
          ],
          "internalType": "struct alt_bn128.G1Point",
          "name": "tag",
          "type": "tuple"
        }
      ],
      "stateMutability": "view",
      "type": "function"
    },
    {
      "inputs": [],
      "name": "gs",
      "outputs": [
        {
          "components": [
            {
              "internalType": "uint256",
              "name": "X",
              "type": "uint256"
            },
            {
              "internalType": "uint256",
              "name": "Y",
              "type": "uint256"
            }
          ],
          "internalType": "struct alt_bn128.G1Point[]",
          "name": "",
          "type": "tuple[]"
        }
      ],
      "stateMutability": "view",
      "type": "function"
    },
    {
      "inputs": [],
      "name": "g_tag",
      "outputs": [
        {
          "components": [
            {
              "internalType": "uint256",
              "name": "X",
              "type": "uint256"
            },
            {
              "internalType": "uint256",
              "name": "Y",
              "type": "uint256"
            }
          ],
          "internalType": "struct alt_bn128.G1Point",
          "name": "",
          "type": "tuple"
        }
      ],
      "stateMutability": "view",
      "type": "function"
    },
    {
      "inputs": [],
      "name": "g_pk",
      "outputs": [
        {
          "components": [
            {
              "internalType": "uint256",
              "name": "X",
              "type": "uint256"
            },
            {
              "internalType": "uint256",
              "name": "Y",
              "type": "uint256"
            }
          ],
          "internalType": "struct alt_bn128.G1Point",
          "name": "",
          "type": "tuple"
        }
      ],
      "stateMutability": "view",
      "type": "function"
    }
  ],
  "bytecode": "0x60806040523480156200001157600080fd5b5060405162000eee38038062000eee833981810160405281019062000037919062000649565b62000048816200004f60201b60201c565b5062000886565b620000616001620002af60201b60201c565b60056000820151816000015560208201518160010155905050620000fa73__alt_bn128_____________________________635ec01e4d6040518163ffffffff1660e01b8152600401602060405180830381865af4158015620000c8573d6000803e3d6000fd5b505050506040513d601f19601f82011682018060405250810190620000ee919062000649565b620002af60201b60201c565b600160008201518160000155602082015181600101559050506200019373__alt_bn128_____________________________635ec01e4d6040518163ffffffff1660e01b8152600401602060405180830381865af415801562000161573d6000803e3d6000fd5b505050506040513d601f19601f8201168201806040525081019062000187919062000649565b620002af60201b60201c565b6003600082015181600001556020820151816001015590505060005b6005826002620001c09190620006aa565b620001cc9190620006f5565b811015620002ab5760006200025673__alt_bn128_____________________________635ec01e4d6040518163ffffffff1660e01b8152600401602060405180830381865af415801562000224573d6000803e3d6000fd5b505050506040513d601f19601f820116820180604052508101906200024a919062000649565b620002af60201b60201c565b9080600181540180825580915050600190039060005260206000209060020201600090919091909150600082015181600001556020820151816001015550508080620002a29062000730565b915050620001af565b5050565b620002b9620005ab565b60007f30644e72e131a029b85045b68181585d97816a916871ca8d3c208c16d87cfd4783620002e99190620007ac565b90506000600182620002fc9190620007e4565b91506000805b816200046f57600184620003179190620006f5565b93507f30644e72e131a029b85045b68181585d97816a916871ca8d3c208c16d87cfd47806200034b576200034a6200077d565b5b84850990507f30644e72e131a029b85045b68181585d97816a916871ca8d3c208c16d87cfd47806200038257620003816200077d565b5b84820990507f30644e72e131a029b85045b68181585d97816a916871ca8d3c208c16d87cfd4780620003b957620003b86200077d565b5b6003820890506200042e81600460017f30644e72e131a029b85045b68181585d97816a916871ca8d3c208c16d87cfd47620003f59190620006f5565b6200040191906200081f565b7f30644e72e131a029b85045b68181585d97816a916871ca8d3c208c16d87cfd476200048f60201b60201c565b9250807f30644e72e131a029b85045b68181585d97816a916871ca8d3c208c16d87cfd47806200046357620004626200077d565b5b84850914915062000302565b604051806040016040528085815260200184815250945050505050919050565b60006200049b620005c5565b620004a5620005e7565b602082600060068110620004be57620004bd62000857565b5b602002018181525050602082600160068110620004e057620004df62000857565b5b60200201818152505060208260026006811062000502576200050162000857565b5b602002018181525050858260036006811062000523576200052262000857565b5b602002018181525050848260046006811062000544576200054362000857565b5b602002018181525050838260056006811062000565576200056462000857565b5b60200201818152505060208160c0846005600019fa6200058457600080fd5b806000600181106200059b576200059a62000857565b5b6020020151925050509392505050565b604051806040016040528060008152602001600081525090565b6040518060c00160405280600690602082028036833780820191505090505090565b6040518060200160405280600190602082028036833780820191505090505090565b600080fd5b6000819050919050565b62000623816200060e565b81146200062f57600080fd5b50565b600081519050620006438162000618565b92915050565b60006020828403121562000662576200066162000609565b5b6000620006728482850162000632565b91505092915050565b7f4e487b7100000000000000000000000000000000000000000000000000000000600052601160045260246000fd5b6000620006b7826200060e565b9150620006c4836200060e565b9250828202620006d4816200060e565b91508282048414831517620006ee57620006ed6200067b565b5b5092915050565b600062000702826200060e565b91506200070f836200060e565b92508282019050808211156200072a57620007296200067b565b5b92915050565b60006200073d826200060e565b91507fffffffffffffffffffffffffffffffffffffffffffffffffffffffffffffffff82036200077257620007716200067b565b5b600182019050919050565b7f4e487b7100000000000000000000000000000000000000000000000000000000600052601260045260246000fd5b6000620007b9826200060e565b9150620007c6836200060e565b925082620007d957620007d86200077d565b5b828206905092915050565b6000620007f1826200060e565b9150620007fe836200060e565b92508282039050818111156200081957620008186200067b565b5b92915050565b60006200082c826200060e565b915062000839836200060e565b9250826200084c576200084b6200077d565b5b828204905092915050565b7f4e487b7100000000000000000000000000000000000000000000000000000000600052603260045260246000fd5b61065880620008966000396000f3fe608060405234801561001057600080fd5b50600436106100565760003560e01c8062e71aaf1461005b5780632d74e5311461007957806335e009f01461009757806373b91182146100b557806397662471146100e5575b600080fd5b610063610115565b6040516100709190610529565b60405180910390f35b610081610188565b60405161008e919061057a565b60405180910390f35b61009f6101b6565b6040516100ac919061057a565b60405180910390f35b6100cf60048036038101906100ca91906105c6565b6101e4565b6040516100dc919061057a565b60405180910390f35b6100ff60048036038101906100fa91906105c6565b610226565b60405161010c919061057a565b60405180910390f35b60606000805480602002602001604051908101604052809291908181526020016000905b8282101561017f57838290600052602060002090600202016040518060400160405290816000820154815260200160018201548152505081526020019060010190610139565b50505050905090565b6101906103d4565b600360405180604001604052908160008201548152602001600182015481525050905090565b6101be6103d4565b600160405180604001604052908160008201548152602001600182015481525050905090565b6101ec6103d4565b61021f8260016040518060400160405290816000820154815260200160018201548152505061026890919063ffffffff16565b9050919050565b61022e6103d4565b6102618260036040518060400160405290816000820154815260200160018201548152505061026890919063ffffffff16565b9050919050565b6102706103d4565b600182036102805782905061031a565b60028203610299576102928384610320565b905061031a565b6102a16103ee565b8360000151816000600381106102ba576102b96105f3565b5b6020020181815250508360200151816001600381106102dc576102db6105f3565b5b60200201818152505082816002600381106102fa576102f96105f3565b5b6020020181815250506040826060836007600019fa61031857600080fd5b505b92915050565b6103286103d4565b610330610410565b836000015181600060048110610349576103486105f3565b5b60200201818152505083602001518160016004811061036b5761036a6105f3565b5b60200201818152505082600001518160026004811061038d5761038c6105f3565b5b6020020181815250508260200151816003600481106103af576103ae6105f3565b5b6020020181815250506040826080836006600019fa6103cd57600080fd5b5092915050565b604051806040016040528060008152602001600081525090565b6040518060600160405280600390602082028036833780820191505090505090565b6040518060800160405280600490602082028036833780820191505090505090565b600081519050919050565b600082825260208201905092915050565b6000819050602082019050919050565b6000819050919050565b6104718161045e565b82525050565b60408201600082015161048d6000850182610468565b5060208201516104a06020850182610468565b50505050565b60006104b28383610477565b60408301905092915050565b6000602082019050919050565b60006104d682610432565b6104e0818561043d565b93506104eb8361044e565b8060005b8381101561051c57815161050388826104a6565b975061050e836104be565b9250506001810190506104ef565b5085935050505092915050565b6000602082019050818103600083015261054381846104cb565b905092915050565b6040820160008201516105616000850182610468565b5060208201516105746020850182610468565b50505050565b600060408201905061058f600083018461054b565b92915050565b600080fd5b6105a38161045e565b81146105ae57600080fd5b50565b6000813590506105c08161059a565b92915050565b6000602082840312156105dc576105db610595565b5b60006105ea848285016105b1565b91505092915050565b7f4e487b7100000000000000000000000000000000000000000000000000000000600052603260045260246000fdfea26469706673582212206cd0c3a58fc9e389db12692919581119b2531940c526f89502ee974bf3d3a6e664736f6c63430008130033",
  "immutableReferences": {},
  "source": "// SPDX-License-Identifier: GPL-3.0\npragma solidity >=0.4.0 <0.9.0;\n\nimport \"./lib/alt_bn128.sol\";\n\ncontract PubParam {\n  using alt_bn128 for uint256;\n  using alt_bn128 for alt_bn128.G1Point;\n\n  /// @dev g_ty, g_val, g_tbeg, g_tend, g_sk, g_opn, g_ok;\n  alt_bn128.G1Point[] _gs;\n\n  alt_bn128.G1Point _g_pk; /// @dev TagKGen\n  alt_bn128.G1Point _g_tag; /// @dev TagEval\n\n  alt_bn128.G1Point _h;\n  \n  constructor (uint max_ty) {\n    init(max_ty);\n  }\n\n  function init(uint max_ty) private {\n    _h = uint256(1).uintToCurvePoint();\n    _g_pk = alt_bn128.random().uintToCurvePoint();\n    _g_tag = alt_bn128.random().uintToCurvePoint();\n\n    for (uint i = 0; i < 2*max_ty + 5; i++) {\n      _gs.push(alt_bn128.random().uintToCurvePoint());\n    }\n  }\n\n  function TagKGen(uint256 sk) public view returns (alt_bn128.G1Point memory pk) {\n    pk = _g_pk.mul(sk);\n  }\n\n  function TagEval(uint256 sk) public view returns (alt_bn128.G1Point memory tag) {\n    tag = _g_tag.mul(sk);\n  }\n\n  function gs() public view returns (alt_bn128.G1Point[] memory) {\n    return _gs;\n  }\n  \n  function g_tag() public view returns (alt_bn128.G1Point memory) {\n    return _g_tag;\n  }\n\n  function g_pk() public view returns (alt_bn128.G1Point memory) {\n    return _g_pk;\n  }\n\n}",
  "sourcePath": "/Users/qian/Desktop/Y4/COMP4550/project/XCSwap/contracts/PubParam.sol",
  "compiler": {
    "name": "solc",
    "version": "0.8.19+commit.7dd6d404.Emscripten.clang"
  },
  "schemaVersion": "3.4.13",
  "updatedAt": "2023-07-13T08:51:17.503Z",
  "devdoc": {
    "kind": "dev",
    "methods": {},
    "stateVariables": {
      "_g_tag": {
        "details": "TagKGen"
      },
      "_gs": {
        "details": "g_ty, g_val, g_tbeg, g_tend, g_sk, g_opn, g_ok;"
      },
      "_h": {
        "details": "TagEval"
      }
    },
    "version": 1
  },
  "userdoc": {
    "kind": "user",
    "methods": {},
    "version": 1
  }
}