{
  "contractName": "RelayRegistry",
  "abi": [
    {
      "inputs": [],
      "stateMutability": "nonpayable",
      "type": "constructor"
    },
    {
      "inputs": [
        {
          "internalType": "uint256",
          "name": "i",
          "type": "uint256"
        }
      ],
      "name": "getRelay",
      "outputs": [
        {
          "internalType": "address",
          "name": "",
          "type": "address"
        }
      ],
      "stateMutability": "view",
      "type": "function",
      "constant": true
    }
  ],
  "bytecode": "0x608060405234801561001057600080fd5b5060005b60108110156100a557604080514260208083019190915281830184905282518083038401815260609092019092528051910120600080546001810182559080527f290decd9548b62a8d60345a988386fc84ba6bc95484008f6362f93160ef3e5630180546001600160a01b0319166001600160a01b039092169190911790558061009d816100ab565b915050610014565b506100d2565b6000600182016100cb57634e487b7160e01b600052601160045260246000fd5b5060010190565b610113806100e16000396000f3fe6080604052348015600f57600080fd5b506004361060285760003560e01c8063a9a641b414602d575b600080fd5b603c6038366004608e565b6058565b6040516001600160a01b03909116815260200160405180910390f35b6000805481906066908460a6565b81548110607357607360c7565b6000918252602090912001546001600160a01b031692915050565b600060208284031215609f57600080fd5b5035919050565b60008260c257634e487b7160e01b600052601260045260246000fd5b500690565b634e487b7160e01b600052603260045260246000fdfea264697066735822122085974e5ab5b09e68d1f19b760d77b578449f92777d26d3979ece318c2974bbb664736f6c63430008130033",
  "immutableReferences": {},
  "source": "// SPDX-License-Identifier: GPL-3.0\npragma solidity >=0.4.0 <0.9.0;\n\nuint constant num = 16;\n\ncontract RelayRegistry {\n\n  address[] _relays;\n\n  constructor () {\n    for (uint i = 0; i < num; i++){\n      _relays.push(_randomAddr(i));\n    }\n  }\n\n  function getRelay(uint i) public view returns (address){\n    return _relays[i % _relays.length];\n  }\n\n  function _randomAddr(uint i) private view returns(address){\n    return address(uint160(uint256(keccak256(abi.encodePacked(block.timestamp, i)))));\n  }\n\n}",
  "sourcePath": "/Users/qian/Desktop/Y4/COMP4550/project/XCSwap/contracts/Relay/RelayRegistry.sol",
  "compiler": {
    "name": "solc",
    "version": "0.8.19+commit.7dd6d404.Emscripten.clang"
  },
  "schemaVersion": "3.4.13",
  "updatedAt": "2023-08-30T07:54:27.991Z",
  "networkType": "ethereum",
  "devdoc": {
    "kind": "dev",
    "methods": {},
    "version": 1
  },
  "userdoc": {
    "kind": "user",
    "methods": {},
    "version": 1
  }
}