{
  "contractName": "Sigma",
  "abi": [
    {
      "inputs": [
        {
          "internalType": "uint256[]",
          "name": "wit",
          "type": "uint256[]"
        }
      ],
      "name": "setup",
      "outputs": [
        {
          "components": [
            {
              "components": [
                {
                  "internalType": "uint256",
                  "name": "X",
                  "type": "uint256"
                },
                {
                  "internalType": "uint256",
                  "name": "Y",
                  "type": "uint256"
                }
              ],
              "internalType": "struct alt_bn128.G1Point[]",
              "name": "gs",
              "type": "tuple[]"
            },
            {
              "components": [
                {
                  "internalType": "uint256",
                  "name": "X",
                  "type": "uint256"
                },
                {
                  "internalType": "uint256",
                  "name": "Y",
                  "type": "uint256"
                }
              ],
              "internalType": "struct alt_bn128.G1Point",
              "name": "C",
              "type": "tuple"
            }
          ],
          "internalType": "struct Sigma.Param",
          "name": "pp",
          "type": "tuple"
        }
      ],
      "stateMutability": "view",
      "type": "function",
      "constant": true
    },
    {
      "inputs": [
        {
          "components": [
            {
              "internalType": "uint256",
              "name": "X",
              "type": "uint256"
            },
            {
              "internalType": "uint256",
              "name": "Y",
              "type": "uint256"
            }
          ],
          "internalType": "struct alt_bn128.G1Point[]",
          "name": "gs",
          "type": "tuple[]"
        },
        {
          "internalType": "uint256[]",
          "name": "wit",
          "type": "uint256[]"
        }
      ],
      "name": "sign",
      "outputs": [
        {
          "components": [
            {
              "components": [
                {
                  "internalType": "uint256",
                  "name": "X",
                  "type": "uint256"
                },
                {
                  "internalType": "uint256",
                  "name": "Y",
                  "type": "uint256"
                }
              ],
              "internalType": "struct alt_bn128.G1Point",
              "name": "Cr",
              "type": "tuple"
            },
            {
              "internalType": "uint256[]",
              "name": "zs",
              "type": "uint256[]"
            }
          ],
          "internalType": "struct Sigma.Sig",
          "name": "sig",
          "type": "tuple"
        }
      ],
      "stateMutability": "view",
      "type": "function",
      "constant": true
    },
    {
      "inputs": [
        {
          "components": [
            {
              "internalType": "uint256",
              "name": "X",
              "type": "uint256"
            },
            {
              "internalType": "uint256",
              "name": "Y",
              "type": "uint256"
            }
          ],
          "internalType": "struct alt_bn128.G1Point[]",
          "name": "gs",
          "type": "tuple[]"
        },
        {
          "components": [
            {
              "internalType": "uint256",
              "name": "X",
              "type": "uint256"
            },
            {
              "internalType": "uint256",
              "name": "Y",
              "type": "uint256"
            }
          ],
          "internalType": "struct alt_bn128.G1Point",
          "name": "C",
          "type": "tuple"
        },
        {
          "components": [
            {
              "components": [
                {
                  "internalType": "uint256",
                  "name": "X",
                  "type": "uint256"
                },
                {
                  "internalType": "uint256",
                  "name": "Y",
                  "type": "uint256"
                }
              ],
              "internalType": "struct alt_bn128.G1Point",
              "name": "Cr",
              "type": "tuple"
            },
            {
              "internalType": "uint256[]",
              "name": "zs",
              "type": "uint256[]"
            }
          ],
          "internalType": "struct Sigma.Sig",
          "name": "sig",
          "type": "tuple"
        }
      ],
      "name": "verify",
      "outputs": [
        {
          "internalType": "bool",
          "name": "",
          "type": "bool"
        }
      ],
      "stateMutability": "view",
      "type": "function",
      "constant": true
    },
    {
      "inputs": [
        {
          "components": [
            {
              "internalType": "uint256",
              "name": "X",
              "type": "uint256"
            },
            {
              "internalType": "uint256",
              "name": "Y",
              "type": "uint256"
            }
          ],
          "internalType": "struct alt_bn128.G1Point[]",
          "name": "gs",
          "type": "tuple[]"
        },
        {
          "internalType": "uint256[]",
          "name": "wit",
          "type": "uint256[]"
        },
        {
          "internalType": "uint256[2]",
          "name": "sj",
          "type": "uint256[2]"
        }
      ],
      "name": "signSum",
      "outputs": [
        {
          "components": [
            {
              "components": [
                {
                  "internalType": "uint256",
                  "name": "X",
                  "type": "uint256"
                },
                {
                  "internalType": "uint256",
                  "name": "Y",
                  "type": "uint256"
                }
              ],
              "internalType": "struct alt_bn128.G1Point",
              "name": "Cr",
              "type": "tuple"
            },
            {
              "internalType": "uint256[]",
              "name": "zs",
              "type": "uint256[]"
            }
          ],
          "internalType": "struct Sigma.Sig",
          "name": "sig",
          "type": "tuple"
        }
      ],
      "stateMutability": "view",
      "type": "function",
      "constant": true
    },
    {
      "inputs": [
        {
          "components": [
            {
              "internalType": "uint256",
              "name": "X",
              "type": "uint256"
            },
            {
              "internalType": "uint256",
              "name": "Y",
              "type": "uint256"
            }
          ],
          "internalType": "struct alt_bn128.G1Point[]",
          "name": "gs",
          "type": "tuple[]"
        },
        {
          "components": [
            {
              "internalType": "uint256",
              "name": "X",
              "type": "uint256"
            },
            {
              "internalType": "uint256",
              "name": "Y",
              "type": "uint256"
            }
          ],
          "internalType": "struct alt_bn128.G1Point",
          "name": "C",
          "type": "tuple"
        },
        {
          "components": [
            {
              "components": [
                {
                  "internalType": "uint256",
                  "name": "X",
                  "type": "uint256"
                },
                {
                  "internalType": "uint256",
                  "name": "Y",
                  "type": "uint256"
                }
              ],
              "internalType": "struct alt_bn128.G1Point",
              "name": "Cr",
              "type": "tuple"
            },
            {
              "internalType": "uint256[]",
              "name": "zs",
              "type": "uint256[]"
            }
          ],
          "internalType": "struct Sigma.Sig",
          "name": "sig",
          "type": "tuple"
        },
        {
          "internalType": "uint256[2]",
          "name": "sj",
          "type": "uint256[2]"
        }
      ],
      "name": "verifySum",
      "outputs": [
        {
          "internalType": "bool",
          "name": "",
          "type": "bool"
        }
      ],
      "stateMutability": "view",
      "type": "function",
      "constant": true
    }
  ],
  "bytecode": "0x608060405234801561001057600080fd5b506113c0806100206000396000f3fe608060405234801561001057600080fd5b50600436106100575760003560e01c806324f355491461005c5780636a45d9ac14610085578063993a256c146100a5578063b954e0de146100c8578063beb51380146100db575b600080fd5b61006f61006a366004610e38565b6100ee565b60405161007c9190610e83565b60405180910390f35b610098610093366004610fd2565b61027a565b60405161007c9190611046565b6100b86100b33660046110f3565b61055d565b604051901515815260200161007c565b6100b86100d6366004611167565b61064f565b6100986100e93660046111ed565b6107bc565b6100f6610c6b565b81516001600160401b0381111561010f5761010f610d3c565b60405190808252806020026020018201604052801561014857816020015b610135610c8a565b81526020019060019003908161012d5790505b50815260408051808201909152600080825260208083018290528301919091525b8251811015610274576101e773__alt_bn128_____________________________635ec01e4d6040518163ffffffff1660e01b8152600401602060405180830381865af41580156101be573d6000803e3d6000fd5b505050506040513d601f19601f820116820180604052508101906101e29190611250565b6109d7565b82518051839081106101fb576101fb611269565b602002602001018190525061025d61025284838151811061021e5761021e611269565b60200260200101518460000151848151811061023c5761023c611269565b6020026020010151610ad190919063ffffffff16565b602084015190610b3a565b60208301528061026c81611295565b915050610169565b50919050565b610282610ca4565b82518451146102ac5760405162461bcd60e51b81526004016102a3906112ae565b60405180910390fd5b82516001600160401b038111156102c5576102c5610d3c565b6040519080825280602002602001820160405280156102ee578160200160208202803683370190505b5060208083019190915260408051808201909152600080825291810182905282525b83518110156103fa5773__alt_bn128_____________________________635ec01e4d6040518163ffffffff1660e01b8152600401602060405180830381865af4158015610362573d6000803e3d6000fd5b505050506040513d601f19601f820116820180604052508101906103869190611250565b8260200151828151811061039c5761039c611269565b6020026020010181815250506103e66103de836020015183815181106103c4576103c4611269565b602002602001015187848151811061023c5761023c611269565b835190610b3a565b8252806103f281611295565b915050610310565b50600060008051602061136b833981519152826000015160405160200161042191906112d8565b6040516020818303038152906040528051906020012060001c61044491906112fc565b905060005b845181101561055457602084015181036104f0576104c961049d83610497876000602002015189868151811061048157610481611269565b6020026020010151610b7f90919063ffffffff16565b90610bc2565b846020015183815181106104b3576104b3611269565b6020026020010151610bdd90919063ffffffff16565b836020015182815181106104df576104df611269565b602002602001018181525050610542565b61051f61049d8387848151811061050957610509611269565b6020026020010151610bc290919063ffffffff16565b8360200151828151811061053557610535611269565b6020026020010181815250505b8061054c81611295565b915050610449565b50509392505050565b60008060008051602061136b833981519152836000015160405160200161058491906112d8565b6040516020818303038152906040528051906020012060001c6105a791906112fc565b905060006105bf6105b88684610ad1565b8551610b3a565b905060006040518060400160405280600081526020016000815250905060005b87518110156106395761062561061e8760200151838151811061060457610604611269565b60200260200101518a848151811061023c5761023c611269565b8390610b3a565b91508061063181611295565b9150506105df565b506106448183610bf8565b979650505050505050565b835160208201516000911161069b5760405162461bcd60e51b8152602060048201526012602482015271125b99195e081bdd5d081bd988189bdd5b9960721b60448201526064016102a3565b600060008051602061136b83398151915284600001516040516020016106c191906112d8565b6040516020818303038152906040528051906020012060001c6106e491906112fc565b905060006106fc6106f58784610ad1565b8651610b3a565b905060006040518060400160405280600081526020016000815250905060005b885181101561076f5761075b61061e8860200151838151811061074157610741611269565b60200260200101518b848151811061023c5761023c611269565b91508061076781611295565b91505061071c565b5084516107a49061079d906107849086610bc2565b8a88600160200201518151811061023c5761023c611269565b8290610b3a565b90506107b08183610bf8565b98975050505050505050565b6107c4610ca4565b81518351146107e55760405162461bcd60e51b81526004016102a3906112ae565b81516001600160401b038111156107fe576107fe610d3c565b604051908082528060200260200182016040528015610827578160200160208202803683370190505b5060208083019190915260408051808201909152600080825291810182905282525b825181101561092b5773__alt_bn128_____________________________635ec01e4d6040518163ffffffff1660e01b8152600401602060405180830381865af415801561089b573d6000803e3d6000fd5b505050506040513d601f19601f820116820180604052508101906108bf9190611250565b826020015182815181106108d5576108d5611269565b6020026020010181815250506109176103de836020015183815181106108fd576108fd611269565b602002602001015186848151811061023c5761023c611269565b82528061092381611295565b915050610849565b50600060008051602061136b833981519152826000015160405160200161095291906112d8565b6040516020818303038152906040528051906020012060001c61097591906112fc565b905060005b83518110156109cf5761099c61049d8386848151811061050957610509611269565b836020015182815181106109b2576109b2611269565b6020908102919091010152806109c781611295565b91505061097a565b505092915050565b6109df610c8a565b60006109f960008051602061134b833981519152846112fc565b90506000610a08600183611310565b91506000805b81610ab757610a1e600185611323565b935060008051602061134b833981519152848509905060008051602061134b833981519152848209905060008051602061134b833981519152600382089050610a9a816004610a7c60008051602061134b8339815191526001611323565b610a869190611336565b60008051602061134b833981519152610c15565b92508060008051602061134b833981519152848509149150610a0e565b505060408051808201909152918252602082015292915050565b610ad9610c8a565b81600103610ae8575081610b34565b81600203610b0157610afa8384610b3a565b9050610b34565b610b09610cc4565b83518152602080850151908201526040808201849052826060836007600019fa610b3257600080fd5b505b92915050565b610b42610c8a565b610b4a610ce2565b83518152602080850151818301528351604080840191909152908401516060830152826080836006600019fa610b3257600080fd5b600081831015610bb15782610ba28360008051602061136b833981519152611310565b610bac9190611323565b610bbb565b610bbb8284611310565b9392505050565b600060008051602061136b8339815191528284099392505050565b600060008051602061136b8339815191528284089392505050565b80518251600091148015610bbb5750506020908101519101511490565b6000610c1f610d00565b610c27610d1e565b602080835282810181905260408301819052606083018790526080830186905260a083018590528160c0846005600019fa610c6157600080fd5b5195945050505050565b604051806040016040528060608152602001610c85610c8a565b905290565b604051806040016040528060008152602001600081525090565b6040518060400160405280610cb7610c8a565b8152602001606081525090565b60405180606001604052806003906020820280368337509192915050565b60405180608001604052806004906020820280368337509192915050565b6040518060c001604052806006906020820280368337509192915050565b60405180602001604052806001906020820280368337509192915050565b634e487b7160e01b600052604160045260246000fd5b604080519081016001600160401b0381118282101715610d7457610d74610d3c565b60405290565b604051601f8201601f191681016001600160401b0381118282101715610da257610da2610d3c565b604052919050565b60006001600160401b03821115610dc357610dc3610d3c565b5060051b60200190565b600082601f830112610dde57600080fd5b81356020610df3610dee83610daa565b610d7a565b82815260059290921b84018101918181019086841115610e1257600080fd5b8286015b84811015610e2d5780358352918301918301610e16565b509695505050505050565b600060208284031215610e4a57600080fd5b81356001600160401b03811115610e6057600080fd5b610e6c84828501610dcd565b949350505050565b80518252602090810151910152565b6020808252825160608383015280516080840181905260009291820190839060a08601905b80831015610ed157610ebb828551610e74565b6040820191508484019350600183019250610ea8565b509286015192610ee46040870185610e74565b9695505050505050565b600060408284031215610f0057600080fd5b610f08610d52565b9050813581526020820135602082015292915050565b600082601f830112610f2f57600080fd5b81356020610f3f610dee83610daa565b82815260069290921b84018101918181019086841115610f5e57600080fd5b8286015b84811015610e2d57610f748882610eee565b835291830191604001610f62565b600082601f830112610f9357600080fd5b610f9b610d52565b806040840185811115610fad57600080fd5b845b81811015610fc7578035845260209384019301610faf565b509095945050505050565b600080600060808486031215610fe757600080fd5b83356001600160401b0380821115610ffe57600080fd5b61100a87838801610f1e565b9450602086013591508082111561102057600080fd5b5061102d86828701610dcd565b92505061103d8560408601610f82565b90509250925092565b600060208083526080830161105e8285018651610e74565b8482015160608581015280519182905282019060009060a08601905b80831015610e2d578351825292840192600192909201919084019061107a565b6000606082840312156110ac57600080fd5b6110b4610d52565b90506110c08383610eee565b815260408201356001600160401b038111156110db57600080fd5b6110e784828501610dcd565b60208301525092915050565b60008060006080848603121561110857600080fd5b83356001600160401b038082111561111f57600080fd5b61112b87838801610f1e565b945061113a8760208801610eee565b9350606086013591508082111561115057600080fd5b5061115d8682870161109a565b9150509250925092565b60008060008060c0858703121561117d57600080fd5b84356001600160401b038082111561119457600080fd5b6111a088838901610f1e565b95506111af8860208901610eee565b945060608701359150808211156111c557600080fd5b506111d28782880161109a565b9250506111e28660808701610f82565b905092959194509250565b6000806040838503121561120057600080fd5b82356001600160401b038082111561121757600080fd5b61122386838701610f1e565b9350602085013591508082111561123957600080fd5b5061124685828601610dcd565b9150509250929050565b60006020828403121561126257600080fd5b5051919050565b634e487b7160e01b600052603260045260246000fd5b634e487b7160e01b600052601160045260246000fd5b6000600182016112a7576112a761127f565b5060010190565b60208082526010908201526f13195b99dd1a081d5b9b585d18da195960821b604082015260600190565b60408101610b348284610e74565b634e487b7160e01b600052601260045260246000fd5b60008261130b5761130b6112e6565b500690565b81810381811115610b3457610b3461127f565b80820180821115610b3457610b3461127f565b600082611345576113456112e6565b50049056fe30644e72e131a029b85045b68181585d97816a916871ca8d3c208c16d87cfd4730644e72e131a029b85045b68181585d2833e84879b9709143e1f593f0000001a26469706673582212207e4e39ad27978e0ec33af6da434a0b93aae99f41f639a48afcdc1ff55cc7fcfe64736f6c63430008130033",
  "immutableReferences": {},
  "source": "// SPDX-License-Identifier: GPL-3.0\npragma solidity >=0.4.0 <0.9.0;\n\nimport \"../lib/alt_bn128.sol\";\n\ncontract Sigma {\n  using alt_bn128 for uint256;\n  using alt_bn128 for alt_bn128.G1Point;\n\n  struct Sig {\n    alt_bn128.G1Point Cr;\n    uint256[] zs;\n  }\n\n  struct Param {\n    alt_bn128.G1Point[] gs;\n    alt_bn128.G1Point C;\n  }\n\n  function setup (uint256[] memory wit) public view returns (Param memory pp) {\n    pp.gs = new alt_bn128.G1Point[](wit.length);\n    pp.C = alt_bn128.G1Point(0, 0);\n    for (uint i = 0; i < wit.length; i++) {\n      pp.gs[i] = alt_bn128.random().uintToCurvePoint();\n      pp.C = pp.C.add(pp.gs[i].mul(wit[i]));\n    }\n  }\n\n  /// @dev plain sigma protocol\n  function sign (\n    alt_bn128.G1Point[] memory gs, \n    uint256[] memory wit\n  ) public view returns (Sig memory sig) {\n    require (gs.length == wit.length, \"Length unmatched\");\n\n    sig.zs = new uint256[](wit.length);\n    sig.Cr = alt_bn128.G1Point(0, 0);\n\n    for (uint i = 0; i < wit.length; i++) {\n      sig.zs[i] = alt_bn128.random();\n      sig.Cr = sig.Cr.add(gs[i].mul(sig.zs[i]));\n    }\n\n    /// @dev Fiat-Shamir \n    uint256 x = uint256(keccak256(abi.encode(sig.Cr))) % alt_bn128.q;\n\n    for (uint i = 0; i < wit.length; i++) {\n      sig.zs[i] = sig.zs[i].add(wit[i].mul(x));\n    }\n  }\n\n  /// @dev plain sigma protocol\n  function verify(\n    alt_bn128.G1Point[] memory gs, \n    alt_bn128.G1Point memory C,\n    Sig memory sig\n  ) public view returns (bool) {\n\n    uint256 x = uint256(keccak256(abi.encode(sig.Cr))) % alt_bn128.q;\n\n    alt_bn128.G1Point memory R = alt_bn128.add(C.mul(x), sig.Cr);\n\n    alt_bn128.G1Point memory L = alt_bn128.G1Point(0, 0);\n\n    for (uint i = 0; i < gs.length; i++) {\n      L = L.add(gs[i].mul(sig.zs[i]));\n    }\n    \n    return alt_bn128.eq(L, R);\n  }\n\n\n  /// @dev C has a witness at idx of the form m+s, where s is public\n  /// @param wit original entry, eg if witness is b1+s, enter b1\n  /// @param sj (s, idx)\n  function signSum(\n    alt_bn128.G1Point[] memory gs,\n    uint256[] memory wit,\n    uint256[2] memory sj\n  ) public view returns (Sig memory sig) {\n\n    require (gs.length == wit.length, \"Length unmatched\");\n\n    sig.zs = new uint256[](wit.length);\n    sig.Cr = alt_bn128.G1Point(0, 0);\n\n    for (uint i = 0; i < wit.length; i++) {\n      sig.zs[i] = alt_bn128.random();\n      sig.Cr = sig.Cr.add(gs[i].mul(sig.zs[i]));\n    }\n\n    uint256 x = uint256(keccak256(abi.encode(sig.Cr))) % alt_bn128.q;\n\n    for (uint i = 0; i < wit.length; i++) {\n      if (i == sj[1]) {\n        sig.zs[i] = sig.zs[i].add(wit[i].sub(sj[0]).mul(x));\n      } else {\n        sig.zs[i] = sig.zs[i].add(wit[i].mul(x));\n      }\n    }\n\n  }\n\n  /// @dev verify C has a wit at idx of the form m+s, where s is public\n  /// @param C original commitment\n  /// @param sj (s, idx)\n  function verifySum(\n    alt_bn128.G1Point[] memory gs,\n    alt_bn128.G1Point memory C,\n    Sig memory sig,\n    uint256[2] memory sj\n    ) public view returns (bool) {\n\n    require (sj[1] < gs.length, \"Index out of bound\");\n\n    uint256 x = uint256(keccak256(abi.encode(sig.Cr))) % alt_bn128.q;\n\n    alt_bn128.G1Point memory R = alt_bn128.add(C.mul(x), sig.Cr);\n\n    alt_bn128.G1Point memory L = alt_bn128.G1Point(0, 0);\n\n    for (uint i = 0; i < gs.length; i++) {\n      L = L.add(gs[i].mul(sig.zs[i]));\n    }\n\n    L = L.add(gs[sj[1]].mul(sj[0].mul(x)));\n\n    return alt_bn128.eq(L, R);\n  }\n\n\n}",
  "sourcePath": "/Users/qian/Desktop/Y4/COMP4550/project/XCSwap/contracts/ZKP/Sigma.sol",
  "compiler": {
    "name": "solc",
    "version": "0.8.19+commit.7dd6d404.Emscripten.clang"
  },
  "schemaVersion": "3.4.13",
  "updatedAt": "2023-08-19T10:00:12.036Z",
  "networkType": "ethereum",
  "devdoc": {
    "kind": "dev",
    "methods": {
      "sign((uint256,uint256)[],uint256[])": {
        "details": "plain sigma protocol"
      },
      "signSum((uint256,uint256)[],uint256[],uint256[2])": {
        "details": "C has a witness at idx of the form m+s, where s is public",
        "params": {
          "sj": "(s, idx)",
          "wit": "original entry, eg if witness is b1+s, enter b1"
        }
      },
      "verify((uint256,uint256)[],(uint256,uint256),((uint256,uint256),uint256[]))": {
        "details": "plain sigma protocol"
      },
      "verifySum((uint256,uint256)[],(uint256,uint256),((uint256,uint256),uint256[]),uint256[2])": {
        "details": "verify C has a wit at idx of the form m+s, where s is public",
        "params": {
          "C": "original commitment",
          "sj": "(s, idx)"
        }
      }
    },
    "version": 1
  },
  "userdoc": {
    "kind": "user",
    "methods": {},
    "version": 1
  }
}