{
  "contractName": "SoKab",
  "abi": [
    {
      "inputs": [
        {
          "internalType": "address",
          "name": "_pp",
          "type": "address"
        },
        {
          "internalType": "address",
          "name": "_pe",
          "type": "address"
        },
        {
          "internalType": "address",
          "name": "_dg",
          "type": "address"
        },
        {
          "internalType": "address",
          "name": "_sg",
          "type": "address"
        }
      ],
      "stateMutability": "nonpayable",
      "type": "constructor"
    },
    {
      "inputs": [
        {
          "components": [
            {
              "internalType": "uint256[5]",
              "name": "common",
              "type": "uint256[5]"
            },
            {
              "components": [
                {
                  "internalType": "uint256",
                  "name": "X",
                  "type": "uint256"
                },
                {
                  "internalType": "uint256",
                  "name": "Y",
                  "type": "uint256"
                }
              ],
              "internalType": "struct alt_bn128.G1Point",
              "name": "pkx",
              "type": "tuple"
            },
            {
              "components": [
                {
                  "internalType": "uint256",
                  "name": "X",
                  "type": "uint256"
                },
                {
                  "internalType": "uint256",
                  "name": "Y",
                  "type": "uint256"
                }
              ],
              "internalType": "struct alt_bn128.G1Point",
              "name": "tcomEx",
              "type": "tuple"
            },
            {
              "components": [
                {
                  "internalType": "uint256",
                  "name": "X",
                  "type": "uint256"
                },
                {
                  "internalType": "uint256",
                  "name": "Y",
                  "type": "uint256"
                }
              ],
              "internalType": "struct alt_bn128.G1Point",
              "name": "ocomEy",
              "type": "tuple"
            },
            {
              "components": [
                {
                  "internalType": "uint256",
                  "name": "X",
                  "type": "uint256"
                },
                {
                  "internalType": "uint256",
                  "name": "Y",
                  "type": "uint256"
                }
              ],
              "internalType": "struct alt_bn128.G1Point",
              "name": "rAx",
              "type": "tuple"
            }
          ],
          "internalType": "struct SoKab.Stm",
          "name": "stm",
          "type": "tuple"
        },
        {
          "internalType": "uint256[5]",
          "name": "wit",
          "type": "uint256[5]"
        }
      ],
      "name": "sign",
      "outputs": [
        {
          "components": [
            {
              "components": [
                {
                  "components": [
                    {
                      "internalType": "uint256",
                      "name": "X",
                      "type": "uint256"
                    },
                    {
                      "internalType": "uint256",
                      "name": "Y",
                      "type": "uint256"
                    }
                  ],
                  "internalType": "struct alt_bn128.G1Point",
                  "name": "c",
                  "type": "tuple"
                },
                {
                  "internalType": "uint256[]",
                  "name": "zs",
                  "type": "uint256[]"
                }
              ],
              "internalType": "struct PartialEquality.Sig",
              "name": "pe_tcom_sig",
              "type": "tuple"
            },
            {
              "components": [
                {
                  "components": [
                    {
                      "internalType": "uint256",
                      "name": "X",
                      "type": "uint256"
                    },
                    {
                      "internalType": "uint256",
                      "name": "Y",
                      "type": "uint256"
                    }
                  ],
                  "internalType": "struct alt_bn128.G1Point",
                  "name": "cx",
                  "type": "tuple"
                },
                {
                  "components": [
                    {
                      "internalType": "uint256",
                      "name": "X",
                      "type": "uint256"
                    },
                    {
                      "internalType": "uint256",
                      "name": "Y",
                      "type": "uint256"
                    }
                  ],
                  "internalType": "struct alt_bn128.G1Point",
                  "name": "cy",
                  "type": "tuple"
                },
                {
                  "internalType": "uint256[]",
                  "name": "zs",
                  "type": "uint256[]"
                }
              ],
              "internalType": "struct DiffGenEqual.Sig",
              "name": "dg_sig",
              "type": "tuple"
            },
            {
              "components": [
                {
                  "components": [
                    {
                      "internalType": "uint256",
                      "name": "X",
                      "type": "uint256"
                    },
                    {
                      "internalType": "uint256",
                      "name": "Y",
                      "type": "uint256"
                    }
                  ],
                  "internalType": "struct alt_bn128.G1Point",
                  "name": "Cr",
                  "type": "tuple"
                },
                {
                  "internalType": "uint256[]",
                  "name": "zs",
                  "type": "uint256[]"
                }
              ],
              "internalType": "struct Sigma.Sig",
              "name": "sg_sig",
              "type": "tuple"
            },
            {
              "components": [
                {
                  "components": [
                    {
                      "internalType": "uint256",
                      "name": "X",
                      "type": "uint256"
                    },
                    {
                      "internalType": "uint256",
                      "name": "Y",
                      "type": "uint256"
                    }
                  ],
                  "internalType": "struct alt_bn128.G1Point",
                  "name": "c",
                  "type": "tuple"
                },
                {
                  "internalType": "uint256[]",
                  "name": "zs",
                  "type": "uint256[]"
                }
              ],
              "internalType": "struct PartialEquality.Sig",
              "name": "pe_R_sig",
              "type": "tuple"
            },
            {
              "components": [
                {
                  "components": [
                    {
                      "internalType": "uint256",
                      "name": "X",
                      "type": "uint256"
                    },
                    {
                      "internalType": "uint256",
                      "name": "Y",
                      "type": "uint256"
                    }
                  ],
                  "internalType": "struct alt_bn128.G1Point",
                  "name": "cx",
                  "type": "tuple"
                },
                {
                  "components": [
                    {
                      "internalType": "uint256",
                      "name": "X",
                      "type": "uint256"
                    },
                    {
                      "internalType": "uint256",
                      "name": "Y",
                      "type": "uint256"
                    }
                  ],
                  "internalType": "struct alt_bn128.G1Point",
                  "name": "cy",
                  "type": "tuple"
                },
                {
                  "internalType": "uint256[]",
                  "name": "zs",
                  "type": "uint256[]"
                }
              ],
              "internalType": "struct DiffGenEqual.Sig",
              "name": "dg_R_sig",
              "type": "tuple"
            }
          ],
          "internalType": "struct SoKab.Sig",
          "name": "sig",
          "type": "tuple"
        }
      ],
      "stateMutability": "view",
      "type": "function",
      "constant": true
    },
    {
      "inputs": [
        {
          "components": [
            {
              "internalType": "uint256[5]",
              "name": "common",
              "type": "uint256[5]"
            },
            {
              "components": [
                {
                  "internalType": "uint256",
                  "name": "X",
                  "type": "uint256"
                },
                {
                  "internalType": "uint256",
                  "name": "Y",
                  "type": "uint256"
                }
              ],
              "internalType": "struct alt_bn128.G1Point",
              "name": "pkx",
              "type": "tuple"
            },
            {
              "components": [
                {
                  "internalType": "uint256",
                  "name": "X",
                  "type": "uint256"
                },
                {
                  "internalType": "uint256",
                  "name": "Y",
                  "type": "uint256"
                }
              ],
              "internalType": "struct alt_bn128.G1Point",
              "name": "tcomEx",
              "type": "tuple"
            },
            {
              "components": [
                {
                  "internalType": "uint256",
                  "name": "X",
                  "type": "uint256"
                },
                {
                  "internalType": "uint256",
                  "name": "Y",
                  "type": "uint256"
                }
              ],
              "internalType": "struct alt_bn128.G1Point",
              "name": "ocomEy",
              "type": "tuple"
            },
            {
              "components": [
                {
                  "internalType": "uint256",
                  "name": "X",
                  "type": "uint256"
                },
                {
                  "internalType": "uint256",
                  "name": "Y",
                  "type": "uint256"
                }
              ],
              "internalType": "struct alt_bn128.G1Point",
              "name": "rAx",
              "type": "tuple"
            }
          ],
          "internalType": "struct SoKab.Stm",
          "name": "stm",
          "type": "tuple"
        },
        {
          "components": [
            {
              "components": [
                {
                  "components": [
                    {
                      "internalType": "uint256",
                      "name": "X",
                      "type": "uint256"
                    },
                    {
                      "internalType": "uint256",
                      "name": "Y",
                      "type": "uint256"
                    }
                  ],
                  "internalType": "struct alt_bn128.G1Point",
                  "name": "c",
                  "type": "tuple"
                },
                {
                  "internalType": "uint256[]",
                  "name": "zs",
                  "type": "uint256[]"
                }
              ],
              "internalType": "struct PartialEquality.Sig",
              "name": "pe_tcom_sig",
              "type": "tuple"
            },
            {
              "components": [
                {
                  "components": [
                    {
                      "internalType": "uint256",
                      "name": "X",
                      "type": "uint256"
                    },
                    {
                      "internalType": "uint256",
                      "name": "Y",
                      "type": "uint256"
                    }
                  ],
                  "internalType": "struct alt_bn128.G1Point",
                  "name": "cx",
                  "type": "tuple"
                },
                {
                  "components": [
                    {
                      "internalType": "uint256",
                      "name": "X",
                      "type": "uint256"
                    },
                    {
                      "internalType": "uint256",
                      "name": "Y",
                      "type": "uint256"
                    }
                  ],
                  "internalType": "struct alt_bn128.G1Point",
                  "name": "cy",
                  "type": "tuple"
                },
                {
                  "internalType": "uint256[]",
                  "name": "zs",
                  "type": "uint256[]"
                }
              ],
              "internalType": "struct DiffGenEqual.Sig",
              "name": "dg_sig",
              "type": "tuple"
            },
            {
              "components": [
                {
                  "components": [
                    {
                      "internalType": "uint256",
                      "name": "X",
                      "type": "uint256"
                    },
                    {
                      "internalType": "uint256",
                      "name": "Y",
                      "type": "uint256"
                    }
                  ],
                  "internalType": "struct alt_bn128.G1Point",
                  "name": "Cr",
                  "type": "tuple"
                },
                {
                  "internalType": "uint256[]",
                  "name": "zs",
                  "type": "uint256[]"
                }
              ],
              "internalType": "struct Sigma.Sig",
              "name": "sg_sig",
              "type": "tuple"
            },
            {
              "components": [
                {
                  "components": [
                    {
                      "internalType": "uint256",
                      "name": "X",
                      "type": "uint256"
                    },
                    {
                      "internalType": "uint256",
                      "name": "Y",
                      "type": "uint256"
                    }
                  ],
                  "internalType": "struct alt_bn128.G1Point",
                  "name": "c",
                  "type": "tuple"
                },
                {
                  "internalType": "uint256[]",
                  "name": "zs",
                  "type": "uint256[]"
                }
              ],
              "internalType": "struct PartialEquality.Sig",
              "name": "pe_R_sig",
              "type": "tuple"
            },
            {
              "components": [
                {
                  "components": [
                    {
                      "internalType": "uint256",
                      "name": "X",
                      "type": "uint256"
                    },
                    {
                      "internalType": "uint256",
                      "name": "Y",
                      "type": "uint256"
                    }
                  ],
                  "internalType": "struct alt_bn128.G1Point",
                  "name": "cx",
                  "type": "tuple"
                },
                {
                  "components": [
                    {
                      "internalType": "uint256",
                      "name": "X",
                      "type": "uint256"
                    },
                    {
                      "internalType": "uint256",
                      "name": "Y",
                      "type": "uint256"
                    }
                  ],
                  "internalType": "struct alt_bn128.G1Point",
                  "name": "cy",
                  "type": "tuple"
                },
                {
                  "internalType": "uint256[]",
                  "name": "zs",
                  "type": "uint256[]"
                }
              ],
              "internalType": "struct DiffGenEqual.Sig",
              "name": "dg_R_sig",
              "type": "tuple"
            }
          ],
          "internalType": "struct SoKab.Sig",
          "name": "sig",
          "type": "tuple"
        }
      ],
      "name": "verify",
      "outputs": [
        {
          "internalType": "bool",
          "name": "",
          "type": "bool"
        }
      ],
      "stateMutability": "view",
      "type": "function",
      "constant": true
    }
  ],
  "bytecode": "0x60806040523480156200001157600080fd5b5060405162002342380380620023428339810160408190526200003491620000a5565b600080546001600160a01b039586166001600160a01b031991821617909155600180549486169482169490941790935560028054928516928416929092179091556003805491909316911617905562000102565b80516001600160a01b0381168114620000a057600080fd5b919050565b60008060008060808587031215620000bc57600080fd5b620000c78562000088565b9350620000d76020860162000088565b9250620000e76040860162000088565b9150620000f76060860162000088565b905092959194509250565b61223080620001126000396000f3fe608060405234801561001057600080fd5b50600436106100365760003560e01c806359bace241461003b578063eb093e3b14610064575b600080fd5b61004e61004936600461196d565b610087565b60405161005b9190611a4d565b60405180910390f35b610077610072366004611c3a565b610cb3565b604051901515815260200161005b565b61008f61171c565b60008060009054906101000a90046001600160a01b03166001600160a01b031662e71aaf6040518163ffffffff1660e01b8152600401600060405180830381865afa1580156100e2573d6000803e3d6000fd5b505050506040513d6000823e601f3d908101601f1916820160405261010a9190810190611d7c565b905060008060009054906101000a90046001600160a01b03166001600160a01b0316632e52d6066040518163ffffffff1660e01b8152600401602060405180830381865afa158015610160573d6000803e3d6000fd5b505050506040513d601f19601f820116820180604052508101906101849190611e17565b6040805160018082528183019092529192506000919060208083019080368337505086518251929350918391506000906101c0576101c0611e30565b6020908102919091010152604080516001808252818301909252600091816020015b6101ea611768565b8152602001906001900390816101e25790505090508360008054906101000a90046001600160a01b03166001600160a01b031663babe4fe56040518163ffffffff1660e01b8152600401602060405180830381865afa158015610251573d6000803e3d6000fd5b505050506040513d601f19601f820116820180604052508101906102759190611e17565b8151811061028557610285611e30565b6020026020010151816000815181106102a0576102a0611e30565b602090810291909101015260018054604080518381528082019091526001600160a01b0390911691639460eead918491869190816020016020820280368337019050506040518463ffffffff1660e01b815260040161030193929190611e80565b600060405180830381865afa15801561031e573d6000803e3d6000fd5b505050506040513d6000823e601f3d908101601f191682016040526103469190810190611f6b565b8552826001600160401b03811115610360576103606117c2565b604051908082528060200260200182016040528015610389578160200160208202803683370190505b50915060005b60048110156103df57875181600581106103ab576103ab611e30565b60200201518382815181106103c2576103c2611e30565b6020908102919091010152806103d781611fb5565b91505061038f565b5085518251839060049081106103f7576103f7611e30565b60209081029190910101526002546000546040805163035e009f60e41b815281516001600160a01b039485169463ff9cfea99416926335e009f092600480820193918290030181865afa158015610452573d6000803e3d6000fd5b505050506040513d601f19601f820116820180604052508101906104769190611fce565b6000546040805163babe4fe560e01b8152905189926001600160a01b03169163babe4fe59160048083019260209291908290030181865afa1580156104bf573d6000803e3d6000fd5b505050506040513d601f19601f820116820180604052508101906104e39190611e17565b866040518563ffffffff1660e01b81526004016105039493929190611ff1565b600060405180830381865afa158015610520573d6000803e3d6000fd5b505050506040513d6000823e601f3d908101601f191682016040526105489190810190612029565b6020860152604080516002808252606082019092529081602001602082028036833701905050915085600160200201518260008151811061058b5761058b611e30565b60209081029190910101528560026020020151826001815181106105b1576105b1611e30565b60209081029190910101526040805160028082526060820190925290816020015b6105da611768565b8152602001906001900390816105d25790505090508360008054906101000a90046001600160a01b03166001600160a01b031663babe4fe56040518163ffffffff1660e01b8152600401602060405180830381865afa158015610641573d6000803e3d6000fd5b505050506040513d601f19601f820116820180604052508101906106659190611e17565b6106709060016120b9565b8151811061068057610680611e30565b60200260200101518160008151811061069b5761069b611e30565b60200260200101819052508360008054906101000a90046001600160a01b03166001600160a01b031663babe4fe56040518163ffffffff1660e01b8152600401602060405180830381865afa1580156106f8573d6000803e3d6000fd5b505050506040513d601f19601f8201168201806040525081019061071c9190611e17565b6107279060026120b9565b8151811061073757610737611e30565b60200260200101518160018151811061075257610752611e30565b602090810291909101015260035460405163017d6a2760e71b81526001600160a01b039091169063beb513809061078f90849086906004016120cc565b600060405180830381865afa1580156107ac573d6000803e3d6000fd5b505050506040513d6000823e601f3d908101601f191682016040526107d49190810190611f6b565b604086810191909152805160038082526080820190925290816020015b6107f9611768565b8152602001906001900390816107f157905050905060005b60038110156108e357848160008054906101000a90046001600160a01b03166001600160a01b031663babe4fe56040518163ffffffff1660e01b8152600401602060405180830381865afa15801561086d573d6000803e3d6000fd5b505050506040513d601f19601f820116820180604052508101906108919190611e17565b61089b91906120b9565b815181106108ab576108ab611e30565b60200260200101518282815181106108c5576108c5611e30565b602002602001018190525080806108db90611fb5565b915050610811565b506040805160038082526080820190925290602082016060803683375050875182519294509184915060009061091b5761091b611e30565b602090810291909101015285600360200201518260018151811061094157610941611e30565b602090810291909101015285600460200201518260028151811061096757610967611e30565b6020908102919091010152600154604080516003808252608082019092526001600160a01b0390921691639460eead9184918691816020016020820280368337019050506040518463ffffffff1660e01b81526004016109c993929190611e80565b600060405180830381865afa1580156109e6573d6000803e3d6000fd5b505050506040513d6000823e601f3d908101601f19168201604052610a0e9190810190611f6b565b6060860152826001600160401b03811115610a2b57610a2b6117c2565b604051908082528060200260200182016040528015610a54578160200160208202803683370190505b508751518151919350908390600090610a6f57610a6f611e30565b602090810291909101015286516001602002015182600181518110610a9657610a96611e30565b602090810291909101015286516003602002015182600281518110610abd57610abd611e30565b602090810291909101015286516004602002015182600381518110610ae457610ae4611e30565b60209081029190910101528551825183906004908110610b0657610b06611e30565b6020908102919091010152856003602002015182600581518110610b2c57610b2c611e30565b6020908102919091010152856004602002015182600681518110610b5257610b52611e30565b60209081029190910101526002546000546040805163035e009f60e41b815281516001600160a01b039485169463ff9cfea99416926335e009f092600480820193918290030181865afa158015610bad573d6000803e3d6000fd5b505050506040513d601f19601f82011682018060405250810190610bd19190611fce565b6000546040805163babe4fe560e01b8152905189926001600160a01b03169163babe4fe59160048083019260209291908290030181865afa158015610c1a573d6000803e3d6000fd5b505050506040513d601f19601f82011682018060405250810190610c3e9190611e17565b866040518563ffffffff1660e01b8152600401610c5e9493929190611ff1565b600060405180830381865afa158015610c7b573d6000803e3d6000fd5b505050506040513d6000823e601f3d908101601f19168201604052610ca39190810190612029565b6080860152509295945050505050565b600080610cc08484610d03565b80519091508015610cd2575080602001515b8015610cdf575080604001515b8015610cec575080606001515b8015610cf9575080608001515b9150505b92915050565b6040805160a08101825260008082526020820181905291810182905260608101829052608081019190915260008060009054906101000a90046001600160a01b03166001600160a01b031662e71aaf6040518163ffffffff1660e01b8152600401600060405180830381865afa158015610d81573d6000803e3d6000fd5b505050506040513d6000823e601f3d908101601f19168201604052610da99190810190611d7c565b905060008060009054906101000a90046001600160a01b03166001600160a01b0316632e52d6066040518163ffffffff1660e01b8152600401602060405180830381865afa158015610dff573d6000803e3d6000fd5b505050506040513d601f19601f82011682018060405250810190610e239190611e17565b905060008060009054906101000a90046001600160a01b03166001600160a01b031663babe4fe56040518163ffffffff1660e01b8152600401602060405180830381865afa158015610e79573d6000803e3d6000fd5b505050506040513d601f19601f82011682018060405250810190610e9d9190611e17565b90506000826001600160401b03811115610eb957610eb96117c2565b604051908082528060200260200182016040528015610ee2578160200160208202803683370190505b50905060005b6004811015610f385787518160058110610f0457610f04611e30565b6020020151828281518110610f1b57610f1b611e30565b602090810291909101015280610f3081611fb5565b915050610ee8565b506000805460405163292ccf5960e21b81526001600160a01b039091169063a4b33d6490610f6a9085906004016120f1565b6040805180830381865afa158015610f86573d6000803e3d6000fd5b505050506040513d601f19601f82011682018060405250810190610faa9190611fce565b60408051600180825281830190925291925060009190816020015b610fcd611768565b815260200190600190039081610fc5579050509050858481518110610ff457610ff4611e30565b60200260200101518160008151811061100f5761100f611e30565b60209081029190910101526001546040808b01518a51915163f96ce23b60e01b81526001600160a01b039093169263f96ce23b9261105592869290918891600401612104565b602060405180830381865afa158015611072573d6000803e3d6000fd5b505050506040513d601f19601f820116820180604052508101906110969190612143565b15158088526110ec5760405162461bcd60e51b815260206004820152601d60248201527f536f4b61623a205061727420457175616c2074636f6d206661696c656400000060448201526064015b60405180910390fd5b6002546000546040805163035e009f60e41b815281516001600160a01b039485169463d9502f759416926335e009f092600480820193918290030181865afa15801561113c573d6000803e3d6000fd5b505050506040513d601f19601f820116820180604052508101906111609190611fce565b88878d602001518e604001518e602001516040518763ffffffff1660e01b815260040161119296959493929190612165565b602060405180830381865afa1580156111af573d6000803e3d6000fd5b505050506040513d601f19601f820116820180604052508101906111d39190612143565b1515602088018190526112325760405162461bcd60e51b815260206004820152602160248201527f536f4b61623a20446966662047656e20457175616c2074636f6d206661696c656044820152601960fa1b60648201526084016110e3565b6040805160028082526060820190925290816020015b611250611768565b815260200190600190039081611248579050509050856112718560016120b9565b8151811061128157611281611e30565b60200260200101518160008151811061129c5761129c611e30565b6020908102919091010152856112b38560026120b9565b815181106112c3576112c3611e30565b6020026020010151816001815181106112de576112de611e30565b602090810291909101015260035460608a01516040808b0151905163264e895b60e21b81526001600160a01b039093169263993a256c926113239286926004016121c8565b602060405180830381865afa158015611340573d6000803e3d6000fd5b505050506040513d601f19601f820116820180604052508101906113649190612143565b1515604088018190526113af5760405162461bcd60e51b815260206004820152601360248201527214dbd2d8588e8814da59db584819985a5b1959606a1b60448201526064016110e3565b6040805160038082526080820190925290816020015b6113cd611768565b8152602001906001900390816113c557905050905060005b600381101561144157866113f982876120b9565b8151811061140957611409611e30565b602002602001015182828151811061142357611423611e30565b6020026020010181905250808061143990611fb5565b9150506113e5565b508851600360200201518360028151811061145e5761145e611e30565b60209081029190910101528851600460200201518360038151811061148557611485611e30565b602090810291909101015260005460405163292ccf5960e21b81526001600160a01b039091169063a4b33d64906114c09086906004016120f1565b6040805180830381865afa1580156114dc573d6000803e3d6000fd5b505050506040513d601f19601f820116820180604052508101906115009190611fce565b60015460808b015160608b015160405163f96ce23b60e01b81529395506001600160a01b039092169263f96ce23b9261154192869290918891600401612104565b602060405180830381865afa15801561155e573d6000803e3d6000fd5b505050506040513d601f19601f820116820180604052508101906115829190612143565b1515606088018190526115d45760405162461bcd60e51b815260206004820152601a60248201527914dbd2d8588e8814185c9d08115c5d585b08148819985a5b195960321b60448201526064016110e3565b6002546000546040805163035e009f60e41b815281516001600160a01b039485169463d9502f759416926335e009f092600480820193918290030181865afa158015611624573d6000803e3d6000fd5b505050506040513d601f19601f820116820180604052508101906116489190611fce565b88878d602001518e608001518e608001516040518763ffffffff1660e01b815260040161167a96959493929190612165565b602060405180830381865afa158015611697573d6000803e3d6000fd5b505050506040513d601f19601f820116820180604052508101906116bb9190612143565b1515608088018190526117105760405162461bcd60e51b815260206004820152601e60248201527f536f4b61623a20446966662047656e20457175616c2052206661696c6564000060448201526064016110e3565b50505050505092915050565b6040518060a0016040528061172f611782565b815260200161173c6117a2565b8152602001611749611782565b8152602001611756611782565b81526020016117636117a2565b905290565b604051806040016040528060008152602001600081525090565b6040518060400160405280611795611768565b8152602001606081525090565b60405180606001604052806117b5611768565b8152602001611795611768565b634e487b7160e01b600052604160045260246000fd5b60405160a081016001600160401b03811182821017156117fa576117fa6117c2565b60405290565b604080519081016001600160401b03811182821017156117fa576117fa6117c2565b604051606081016001600160401b03811182821017156117fa576117fa6117c2565b604051601f8201601f191681016001600160401b038111828210171561186c5761186c6117c2565b604052919050565b600082601f83011261188557600080fd5b61188d6117d8565b8060a084018581111561189f57600080fd5b845b818110156118b95780358452602093840193016118a1565b509095945050505050565b6000604082840312156118d657600080fd5b6118de611800565b9050813581526020820135602082015292915050565b60006101a0828403121561190757600080fd5b61190f6117d8565b905061191b8383611874565b815261192a8360a084016118c4565b602082015261193c8360e084016118c4565b604082015261194f8361012084016118c4565b60608201526119628361016084016118c4565b608082015292915050565b600080610240838503121561198157600080fd5b61198b84846118f4565b915061199b846101a08501611874565b90509250929050565b80518252602090810151910152565b600081518084526020808501945080840160005b838110156119e3578151875295820195908201906001016119c7565b509495945050505050565b6119f98282516119a4565b6000602082015160606040850152610cf960608501826119b3565b611a1f8282516119a4565b60006020820151611a3360408501826119a4565b50604082015160a06080850152610cf960a08501826119b3565b602081526000825160a06020840152611a6960c08401826119ee565b90506020840151601f1980858403016040860152611a878383611a14565b92506040860151915080858403016060860152611aa483836119ee565b92506060860151915080858403016080860152611ac183836119ee565b925060808601519150808584030160a086015250611adf8282611a14565b95945050505050565b60006001600160401b03821115611b0157611b016117c2565b5060051b60200190565b600082601f830112611b1c57600080fd5b81356020611b31611b2c83611ae8565b611844565b82815260059290921b84018101918181019086841115611b5057600080fd5b8286015b84811015611b6b5780358352918301918301611b54565b509695505050505050565b600060608284031215611b8857600080fd5b611b90611800565b9050611b9c83836118c4565b815260408201356001600160401b03811115611bb757600080fd5b611bc384828501611b0b565b60208301525092915050565b600060a08284031215611be157600080fd5b611be9611822565b9050611bf583836118c4565b8152611c0483604084016118c4565b602082015260808201356001600160401b03811115611c2257600080fd5b611c2e84828501611b0b565b60408301525092915050565b6000806101c08385031215611c4e57600080fd5b611c5884846118f4565b91506101a08301356001600160401b0380821115611c7557600080fd5b9084019060a08287031215611c8957600080fd5b611c916117d8565b823582811115611ca057600080fd5b611cac88828601611b76565b825250602083013582811115611cc157600080fd5b611ccd88828601611bcf565b602083015250604083013582811115611ce557600080fd5b611cf188828601611b76565b604083015250606083013582811115611d0957600080fd5b611d1588828601611b76565b606083015250608083013582811115611d2d57600080fd5b611d3988828601611bcf565b6080830152508093505050509250929050565b600060408284031215611d5e57600080fd5b611d66611800565b9050815181526020820151602082015292915050565b60006020808385031215611d8f57600080fd5b82516001600160401b03811115611da557600080fd5b8301601f81018513611db657600080fd5b8051611dc4611b2c82611ae8565b81815260069190911b82018301908381019087831115611de357600080fd5b928401925b82841015611e0c57611dfa8885611d4c565b82528482019150604084019350611de8565b979650505050505050565b600060208284031215611e2957600080fd5b5051919050565b634e487b7160e01b600052603260045260246000fd5b600081518084526020808501945080840160005b838110156119e357611e6d8783516119a4565b6040969096019590820190600101611e5a565b606081526000611e936060830186611e46565b8281036020840152611ea581866119b3565b90508281036040840152611eb981856119b3565b9695505050505050565b600082601f830112611ed457600080fd5b81516020611ee4611b2c83611ae8565b82815260059290921b84018101918181019086841115611f0357600080fd5b8286015b84811015611b6b5780518352918301918301611f07565b600060608284031215611f3057600080fd5b611f38611800565b9050611f448383611d4c565b815260408201516001600160401b03811115611f5f57600080fd5b611bc384828501611ec3565b600060208284031215611f7d57600080fd5b81516001600160401b03811115611f9357600080fd5b610cf984828501611f1e565b634e487b7160e01b600052601160045260246000fd5b600060018201611fc757611fc7611f9f565b5060010190565b600060408284031215611fe057600080fd5b611fea8383611d4c565b9392505050565b611ffb81866119a4565b60a06040820152600061201160a0830186611e46565b8460608401528281036080840152611e0c81856119b3565b60006020828403121561203b57600080fd5b81516001600160401b038082111561205257600080fd5b9083019060a0828603121561206657600080fd5b61206e611822565b6120788684611d4c565b81526120878660408501611d4c565b602082015260808301518281111561209e57600080fd5b6120aa87828601611ec3565b60408301525095945050505050565b80820180821115610cfd57610cfd611f9f565b6040815260006120df6040830185611e46565b8281036020840152611adf81856119b3565b602081526000611fea60208301846119b3565b60c08152600061211760c0830187611e46565b61212460208401876119a4565b61213160608401866119a4565b82810360a0840152611e0c81856119ee565b60006020828403121561215557600080fd5b81518015158114611fea57600080fd5b6000610120612174838a6119a4565b80604084015261218681840189611e46565b905086606084015261219b60808401876119a4565b6121a860c08401866119a4565b8281036101008401526121bb8185611a14565b9998505050505050505050565b6080815260006121db6080830186611e46565b6121e860208401866119a4565b8281036060840152611eb981856119ee56fea2646970667358221220c9968db71b9697c0d2f7c25d911a2c0da1a3f3bbd4f4378fa36ec33cb1b5b82a64736f6c63430008130033",
  "immutableReferences": {},
  "source": "// SPDX-License-Identifier: GPL-3.0\npragma solidity >=0.4.0 <0.9.0;\n\nimport \"../lib/alt_bn128.sol\";\nimport \"../PubParam.sol\";\n\nimport {PartialEquality as PE} from \"../ZKP/PartialEquality.sol\";\nimport {DiffGenEqual as DG} from \"../ZKP/DiffGenEqual.sol\";\nimport {Sigma as SG} from \"../ZKP/Sigma.sol\";\n\ncontract SoKab {\n  using alt_bn128 for uint256;\n  using alt_bn128 for alt_bn128.G1Point;\n\n  PubParam pp;\n  PE pe;\n  DG dg;\n  SG sg;\n\n  constructor (address _pp, address _pe, address _dg, address _sg) {\n    pp = PubParam(_pp);\n    pe = PE(_pe);\n    dg = DG(_dg);\n    sg = SG(_sg);\n  }\n\n  /// @param common (x,valx,T1,T2,Tmax)\n  /// @param pkx pk of user A\n  /// @param tcomEx commitment of token info of E account of token x\n  /// @param ocomEy commitment of info to be opened at the time of spending the E account of token y\n  /// @param rAx commitment of R account of token x\n  struct Stm {\n    uint256[5] common;\n    alt_bn128.G1Point pkx;\n    alt_bn128.G1Point tcomEx;\n    alt_bn128.G1Point ocomEy;\n    alt_bn128.G1Point rAx;\n  }\n\n  struct Sig {\n    PE.Sig pe_tcom_sig;\n    DG.Sig dg_sig;\n    SG.Sig sg_sig;\n    PE.Sig pe_R_sig;\n    DG.Sig dg_R_sig;\n  }\n\n  /// @dev sok L_{ab} sign by user A\n  /// @param stm public statement of L_{ab}\n  /// @param wit (a1^, a2, a3, a4, a5)\n  function sign(Stm memory stm, uint256[5] memory wit) public view returns (Sig memory sig) {\n    alt_bn128.G1Point[] memory Gs = pp.gs();\n    uint n = pp.n();\n\n    uint256[] memory com_attr = new uint256[](1);\n    com_attr[0] = wit[0]; // a1^\n    alt_bn128.G1Point[] memory uneq_gs = new alt_bn128.G1Point[](1);\n    uneq_gs[0] = Gs[pp.sk_pos()];\n\n    /// @dev 1. Part Equal signature (same x, valx, T1, T2)\n    sig.pe_tcom_sig = pe.sign(uneq_gs, com_attr, new uint256[](1));\n\n    com_attr = new uint256[](n);\n    for (uint i=0; i<4; i++) {\n      com_attr[i] = stm.common[i];\n    }\n    com_attr[4] = wit[0]; // a1^\n    /// @dev 2. Diff Gen Equal (pkx vs tcomx)\n    sig.dg_sig = dg.sign(pp.g_pk(), Gs, pp.sk_pos(), com_attr);\n\n    com_attr = new uint256[](2);\n    com_attr[0] = wit[1]; // a2\n    com_attr[1] = wit[2]; // a3\n\n    uneq_gs = new alt_bn128.G1Point[](2);\n    uneq_gs[0] = Gs[pp.sk_pos()+1];\n    uneq_gs[1] = Gs[pp.sk_pos()+2];\n    /// @dev 3. plain Sigma (a2, a3)\n    sig.sg_sig = sg.sign(uneq_gs, com_attr);\n\n    uneq_gs = new alt_bn128.G1Point[](3);\n    for (uint i=0; i<3; i++) {\n      uneq_gs[i] = Gs[pp.sk_pos()+i];\n    }\n\n    // [a1^, a4, a5]\n    com_attr = new uint256[](3);\n    com_attr[0] = wit[0]; // a1^\n    com_attr[1] = wit[3]; // a4\n    com_attr[2] = wit[4]; // a5\n\n    /// @dev 4. Part Equal signature (same x, valx, T2, Tmax)\n    sig.pe_R_sig = pe.sign(uneq_gs, com_attr, new uint256[](3));\n\n    // [x, valx, T2, Tmax, a1^, a4, a5]\n    com_attr = new uint256[](n);\n    com_attr[0] = stm.common[0];\n    com_attr[1] = stm.common[1];\n    com_attr[2] = stm.common[3];\n    com_attr[3] = stm.common[4];\n    com_attr[4] = wit[0]; // a1^\n    com_attr[5] = wit[3]; // a4\n    com_attr[6] = wit[4]; // a5\n\n    /// @dev 5. Diff Gen Equal (pkx vs R)\n    sig.dg_R_sig = dg.sign(pp.g_pk(), Gs, pp.sk_pos(), com_attr);\n  }\n\n  struct RTN {\n    bool b_pe_tcom;\n    bool b_dg;\n    bool b_sg;\n    bool b_pe_R;\n    bool b_dg_R;\n  }\n\n  /// @dev sok L_{ba} verify by user A\n  function verify(Stm memory stm, Sig memory sig) public view returns (bool) {\n    RTN memory rtn = verify_(stm, sig);\n    return rtn.b_pe_tcom && rtn.b_dg && rtn.b_sg && rtn.b_pe_R && rtn.b_dg_R;\n  }\n\n  /// @dev sok L_{ab} verify by user A\n  /// @param stm public statement of L_{ab}\n  /// @param sig L_{ab} signature\n  function verify_(Stm memory stm, Sig memory sig) private view returns (RTN memory rtn) {\n    alt_bn128.G1Point[] memory Gs = pp.gs();\n    uint n = pp.n();\n    uint sk_pos = pp.sk_pos();\n\n    uint256[] memory pe_y = new uint256[](n);\n    for (uint i=0; i<4; i++) {\n      pe_y[i] = stm.common[i];\n    }\n    alt_bn128.G1Point memory Cy = pp.tCom(pe_y);\n\n    alt_bn128.G1Point[] memory uneq_gs = new alt_bn128.G1Point[](1);\n    uneq_gs[0] = Gs[sk_pos];\n\n    /// @dev 1. Part Equal signature (same x, valx, T1, T2)\n    rtn.b_pe_tcom = pe.verify(uneq_gs, stm.tcomEx, Cy, sig.pe_tcom_sig);\n    require(rtn.b_pe_tcom, \"SoKab: Part Equal tcom failed\");\n\n    /// @dev 2. Diff Gen Equal (pkx vs tcomx)\n    rtn.b_dg = dg.verify(pp.g_pk(), Gs, sk_pos, stm.pkx, stm.tcomEx, sig.dg_sig);\n    require(rtn.b_dg, \"SoKab: Diff Gen Equal tcom failed\");\n\n    uneq_gs = new alt_bn128.G1Point[](2);\n    uneq_gs[0] = Gs[sk_pos+1];\n    uneq_gs[1] = Gs[sk_pos+2];\n\n    /// @dev 3. plain Sigma (a2, a3)\n    rtn.b_sg = sg.verify(uneq_gs, stm.ocomEy, sig.sg_sig);\n    require(rtn.b_sg, \"SoKab: Sigma failed\");\n\n    uneq_gs = new alt_bn128.G1Point[](3);\n    for (uint i=0; i<3; i++) {\n      uneq_gs[i] = Gs[sk_pos+i];\n    }\n\n    pe_y[2] = stm.common[3]; // T2\n    pe_y[3] = stm.common[4]; // Tmax\n    Cy = pp.tCom(pe_y);\n    /// @dev 4. Part Equal signature (same x, valx, T2, Tmax)\n    rtn.b_pe_R = pe.verify(uneq_gs, stm.rAx, Cy, sig.pe_R_sig);\n    require(rtn.b_pe_R, \"SoKab: Part Equal R failed\");\n\n    /// @dev 5. Diff Gen Equal (pkx vs R)\n    rtn.b_dg_R = dg.verify(pp.g_pk(), Gs, sk_pos, stm.pkx, stm.rAx, sig.dg_R_sig);\n    require(rtn.b_dg_R, \"SoKab: Diff Gen Equal R failed\");\n  }\n\n}",
  "sourcePath": "/Users/qian/Desktop/Y4/COMP4550/project/XCSwap/contracts/TX/SoKab.sol",
  "compiler": {
    "name": "solc",
    "version": "0.8.19+commit.7dd6d404.Emscripten.clang"
  },
  "schemaVersion": "3.4.13",
  "updatedAt": "2023-10-15T17:45:47.171Z",
  "networkType": "ethereum",
  "devdoc": {
    "kind": "dev",
    "methods": {
      "sign((uint256[5],(uint256,uint256),(uint256,uint256),(uint256,uint256),(uint256,uint256)),uint256[5])": {
        "details": "sok L_{ab} sign by user A",
        "params": {
          "stm": "public statement of L_{ab}",
          "wit": "(a1^, a2, a3, a4, a5)"
        }
      },
      "verify((uint256[5],(uint256,uint256),(uint256,uint256),(uint256,uint256),(uint256,uint256)),(((uint256,uint256),uint256[]),((uint256,uint256),(uint256,uint256),uint256[]),((uint256,uint256),uint256[]),((uint256,uint256),uint256[]),((uint256,uint256),(uint256,uint256),uint256[])))": {
        "details": "sok L_{ba} verify by user A"
      }
    },
    "version": 1
  },
  "userdoc": {
    "kind": "user",
    "methods": {},
    "version": 1
  }
}