{
  "contractName": "SoKba",
  "abi": [
    {
      "inputs": [
        {
          "internalType": "address",
          "name": "_pp",
          "type": "address"
        },
        {
          "internalType": "address",
          "name": "_pe",
          "type": "address"
        },
        {
          "internalType": "address",
          "name": "_dg",
          "type": "address"
        },
        {
          "internalType": "address",
          "name": "_sg",
          "type": "address"
        }
      ],
      "stateMutability": "nonpayable",
      "type": "constructor"
    },
    {
      "inputs": [
        {
          "components": [
            {
              "internalType": "uint256[6]",
              "name": "common",
              "type": "uint256[6]"
            },
            {
              "components": [
                {
                  "internalType": "uint256",
                  "name": "X",
                  "type": "uint256"
                },
                {
                  "internalType": "uint256",
                  "name": "Y",
                  "type": "uint256"
                }
              ],
              "internalType": "struct alt_bn128.G1Point",
              "name": "pky",
              "type": "tuple"
            },
            {
              "components": [
                {
                  "internalType": "uint256",
                  "name": "X",
                  "type": "uint256"
                },
                {
                  "internalType": "uint256",
                  "name": "Y",
                  "type": "uint256"
                }
              ],
              "internalType": "struct alt_bn128.G1Point",
              "name": "tcomEy",
              "type": "tuple"
            },
            {
              "components": [
                {
                  "internalType": "uint256",
                  "name": "X",
                  "type": "uint256"
                },
                {
                  "internalType": "uint256",
                  "name": "Y",
                  "type": "uint256"
                }
              ],
              "internalType": "struct alt_bn128.G1Point",
              "name": "ocomEx",
              "type": "tuple"
            },
            {
              "components": [
                {
                  "internalType": "uint256",
                  "name": "X",
                  "type": "uint256"
                },
                {
                  "internalType": "uint256",
                  "name": "Y",
                  "type": "uint256"
                }
              ],
              "internalType": "struct alt_bn128.G1Point",
              "name": "rBy",
              "type": "tuple"
            }
          ],
          "internalType": "struct SoKba.Stm",
          "name": "stm",
          "type": "tuple"
        },
        {
          "internalType": "uint256[5]",
          "name": "wit",
          "type": "uint256[5]"
        }
      ],
      "name": "sign",
      "outputs": [
        {
          "components": [
            {
              "components": [
                {
                  "components": [
                    {
                      "internalType": "uint256",
                      "name": "X",
                      "type": "uint256"
                    },
                    {
                      "internalType": "uint256",
                      "name": "Y",
                      "type": "uint256"
                    }
                  ],
                  "internalType": "struct alt_bn128.G1Point",
                  "name": "c",
                  "type": "tuple"
                },
                {
                  "internalType": "uint256[]",
                  "name": "zs",
                  "type": "uint256[]"
                }
              ],
              "internalType": "struct PartialEquality.Sig",
              "name": "pe_tcom_sig",
              "type": "tuple"
            },
            {
              "components": [
                {
                  "components": [
                    {
                      "internalType": "uint256",
                      "name": "X",
                      "type": "uint256"
                    },
                    {
                      "internalType": "uint256",
                      "name": "Y",
                      "type": "uint256"
                    }
                  ],
                  "internalType": "struct alt_bn128.G1Point",
                  "name": "cx",
                  "type": "tuple"
                },
                {
                  "components": [
                    {
                      "internalType": "uint256",
                      "name": "X",
                      "type": "uint256"
                    },
                    {
                      "internalType": "uint256",
                      "name": "Y",
                      "type": "uint256"
                    }
                  ],
                  "internalType": "struct alt_bn128.G1Point",
                  "name": "cy",
                  "type": "tuple"
                },
                {
                  "internalType": "uint256[]",
                  "name": "zs",
                  "type": "uint256[]"
                }
              ],
              "internalType": "struct DiffGenEqual.Sig",
              "name": "dg_sig",
              "type": "tuple"
            },
            {
              "components": [
                {
                  "components": [
                    {
                      "internalType": "uint256",
                      "name": "X",
                      "type": "uint256"
                    },
                    {
                      "internalType": "uint256",
                      "name": "Y",
                      "type": "uint256"
                    }
                  ],
                  "internalType": "struct alt_bn128.G1Point",
                  "name": "Cr",
                  "type": "tuple"
                },
                {
                  "internalType": "uint256[]",
                  "name": "zs",
                  "type": "uint256[]"
                }
              ],
              "internalType": "struct Sigma.Sig",
              "name": "sg_sig",
              "type": "tuple"
            },
            {
              "components": [
                {
                  "components": [
                    {
                      "internalType": "uint256",
                      "name": "X",
                      "type": "uint256"
                    },
                    {
                      "internalType": "uint256",
                      "name": "Y",
                      "type": "uint256"
                    }
                  ],
                  "internalType": "struct alt_bn128.G1Point",
                  "name": "c",
                  "type": "tuple"
                },
                {
                  "internalType": "uint256[]",
                  "name": "zs",
                  "type": "uint256[]"
                }
              ],
              "internalType": "struct PartialEquality.Sig",
              "name": "pe_R_sig",
              "type": "tuple"
            },
            {
              "components": [
                {
                  "components": [
                    {
                      "internalType": "uint256",
                      "name": "X",
                      "type": "uint256"
                    },
                    {
                      "internalType": "uint256",
                      "name": "Y",
                      "type": "uint256"
                    }
                  ],
                  "internalType": "struct alt_bn128.G1Point",
                  "name": "cx",
                  "type": "tuple"
                },
                {
                  "components": [
                    {
                      "internalType": "uint256",
                      "name": "X",
                      "type": "uint256"
                    },
                    {
                      "internalType": "uint256",
                      "name": "Y",
                      "type": "uint256"
                    }
                  ],
                  "internalType": "struct alt_bn128.G1Point",
                  "name": "cy",
                  "type": "tuple"
                },
                {
                  "internalType": "uint256[]",
                  "name": "zs",
                  "type": "uint256[]"
                }
              ],
              "internalType": "struct DiffGenEqual.Sig",
              "name": "dg_R_sig",
              "type": "tuple"
            }
          ],
          "internalType": "struct SoKba.Sig",
          "name": "sig",
          "type": "tuple"
        }
      ],
      "stateMutability": "view",
      "type": "function"
    },
    {
      "inputs": [
        {
          "components": [
            {
              "internalType": "uint256[6]",
              "name": "common",
              "type": "uint256[6]"
            },
            {
              "components": [
                {
                  "internalType": "uint256",
                  "name": "X",
                  "type": "uint256"
                },
                {
                  "internalType": "uint256",
                  "name": "Y",
                  "type": "uint256"
                }
              ],
              "internalType": "struct alt_bn128.G1Point",
              "name": "pky",
              "type": "tuple"
            },
            {
              "components": [
                {
                  "internalType": "uint256",
                  "name": "X",
                  "type": "uint256"
                },
                {
                  "internalType": "uint256",
                  "name": "Y",
                  "type": "uint256"
                }
              ],
              "internalType": "struct alt_bn128.G1Point",
              "name": "tcomEy",
              "type": "tuple"
            },
            {
              "components": [
                {
                  "internalType": "uint256",
                  "name": "X",
                  "type": "uint256"
                },
                {
                  "internalType": "uint256",
                  "name": "Y",
                  "type": "uint256"
                }
              ],
              "internalType": "struct alt_bn128.G1Point",
              "name": "ocomEx",
              "type": "tuple"
            },
            {
              "components": [
                {
                  "internalType": "uint256",
                  "name": "X",
                  "type": "uint256"
                },
                {
                  "internalType": "uint256",
                  "name": "Y",
                  "type": "uint256"
                }
              ],
              "internalType": "struct alt_bn128.G1Point",
              "name": "rBy",
              "type": "tuple"
            }
          ],
          "internalType": "struct SoKba.Stm",
          "name": "stm",
          "type": "tuple"
        },
        {
          "components": [
            {
              "components": [
                {
                  "components": [
                    {
                      "internalType": "uint256",
                      "name": "X",
                      "type": "uint256"
                    },
                    {
                      "internalType": "uint256",
                      "name": "Y",
                      "type": "uint256"
                    }
                  ],
                  "internalType": "struct alt_bn128.G1Point",
                  "name": "c",
                  "type": "tuple"
                },
                {
                  "internalType": "uint256[]",
                  "name": "zs",
                  "type": "uint256[]"
                }
              ],
              "internalType": "struct PartialEquality.Sig",
              "name": "pe_tcom_sig",
              "type": "tuple"
            },
            {
              "components": [
                {
                  "components": [
                    {
                      "internalType": "uint256",
                      "name": "X",
                      "type": "uint256"
                    },
                    {
                      "internalType": "uint256",
                      "name": "Y",
                      "type": "uint256"
                    }
                  ],
                  "internalType": "struct alt_bn128.G1Point",
                  "name": "cx",
                  "type": "tuple"
                },
                {
                  "components": [
                    {
                      "internalType": "uint256",
                      "name": "X",
                      "type": "uint256"
                    },
                    {
                      "internalType": "uint256",
                      "name": "Y",
                      "type": "uint256"
                    }
                  ],
                  "internalType": "struct alt_bn128.G1Point",
                  "name": "cy",
                  "type": "tuple"
                },
                {
                  "internalType": "uint256[]",
                  "name": "zs",
                  "type": "uint256[]"
                }
              ],
              "internalType": "struct DiffGenEqual.Sig",
              "name": "dg_sig",
              "type": "tuple"
            },
            {
              "components": [
                {
                  "components": [
                    {
                      "internalType": "uint256",
                      "name": "X",
                      "type": "uint256"
                    },
                    {
                      "internalType": "uint256",
                      "name": "Y",
                      "type": "uint256"
                    }
                  ],
                  "internalType": "struct alt_bn128.G1Point",
                  "name": "Cr",
                  "type": "tuple"
                },
                {
                  "internalType": "uint256[]",
                  "name": "zs",
                  "type": "uint256[]"
                }
              ],
              "internalType": "struct Sigma.Sig",
              "name": "sg_sig",
              "type": "tuple"
            },
            {
              "components": [
                {
                  "components": [
                    {
                      "internalType": "uint256",
                      "name": "X",
                      "type": "uint256"
                    },
                    {
                      "internalType": "uint256",
                      "name": "Y",
                      "type": "uint256"
                    }
                  ],
                  "internalType": "struct alt_bn128.G1Point",
                  "name": "c",
                  "type": "tuple"
                },
                {
                  "internalType": "uint256[]",
                  "name": "zs",
                  "type": "uint256[]"
                }
              ],
              "internalType": "struct PartialEquality.Sig",
              "name": "pe_R_sig",
              "type": "tuple"
            },
            {
              "components": [
                {
                  "components": [
                    {
                      "internalType": "uint256",
                      "name": "X",
                      "type": "uint256"
                    },
                    {
                      "internalType": "uint256",
                      "name": "Y",
                      "type": "uint256"
                    }
                  ],
                  "internalType": "struct alt_bn128.G1Point",
                  "name": "cx",
                  "type": "tuple"
                },
                {
                  "components": [
                    {
                      "internalType": "uint256",
                      "name": "X",
                      "type": "uint256"
                    },
                    {
                      "internalType": "uint256",
                      "name": "Y",
                      "type": "uint256"
                    }
                  ],
                  "internalType": "struct alt_bn128.G1Point",
                  "name": "cy",
                  "type": "tuple"
                },
                {
                  "internalType": "uint256[]",
                  "name": "zs",
                  "type": "uint256[]"
                }
              ],
              "internalType": "struct DiffGenEqual.Sig",
              "name": "dg_R_sig",
              "type": "tuple"
            }
          ],
          "internalType": "struct SoKba.Sig",
          "name": "sig",
          "type": "tuple"
        }
      ],
      "name": "verify",
      "outputs": [
        {
          "internalType": "bool",
          "name": "",
          "type": "bool"
        }
      ],
      "stateMutability": "view",
      "type": "function"
    },
    {
      "inputs": [
        {
          "components": [
            {
              "internalType": "uint256[6]",
              "name": "common",
              "type": "uint256[6]"
            },
            {
              "components": [
                {
                  "internalType": "uint256",
                  "name": "X",
                  "type": "uint256"
                },
                {
                  "internalType": "uint256",
                  "name": "Y",
                  "type": "uint256"
                }
              ],
              "internalType": "struct alt_bn128.G1Point",
              "name": "pky",
              "type": "tuple"
            },
            {
              "components": [
                {
                  "internalType": "uint256",
                  "name": "X",
                  "type": "uint256"
                },
                {
                  "internalType": "uint256",
                  "name": "Y",
                  "type": "uint256"
                }
              ],
              "internalType": "struct alt_bn128.G1Point",
              "name": "tcomEy",
              "type": "tuple"
            },
            {
              "components": [
                {
                  "internalType": "uint256",
                  "name": "X",
                  "type": "uint256"
                },
                {
                  "internalType": "uint256",
                  "name": "Y",
                  "type": "uint256"
                }
              ],
              "internalType": "struct alt_bn128.G1Point",
              "name": "ocomEx",
              "type": "tuple"
            },
            {
              "components": [
                {
                  "internalType": "uint256",
                  "name": "X",
                  "type": "uint256"
                },
                {
                  "internalType": "uint256",
                  "name": "Y",
                  "type": "uint256"
                }
              ],
              "internalType": "struct alt_bn128.G1Point",
              "name": "rBy",
              "type": "tuple"
            }
          ],
          "internalType": "struct SoKba.Stm",
          "name": "stm",
          "type": "tuple"
        },
        {
          "components": [
            {
              "components": [
                {
                  "components": [
                    {
                      "internalType": "uint256",
                      "name": "X",
                      "type": "uint256"
                    },
                    {
                      "internalType": "uint256",
                      "name": "Y",
                      "type": "uint256"
                    }
                  ],
                  "internalType": "struct alt_bn128.G1Point",
                  "name": "c",
                  "type": "tuple"
                },
                {
                  "internalType": "uint256[]",
                  "name": "zs",
                  "type": "uint256[]"
                }
              ],
              "internalType": "struct PartialEquality.Sig",
              "name": "pe_tcom_sig",
              "type": "tuple"
            },
            {
              "components": [
                {
                  "components": [
                    {
                      "internalType": "uint256",
                      "name": "X",
                      "type": "uint256"
                    },
                    {
                      "internalType": "uint256",
                      "name": "Y",
                      "type": "uint256"
                    }
                  ],
                  "internalType": "struct alt_bn128.G1Point",
                  "name": "cx",
                  "type": "tuple"
                },
                {
                  "components": [
                    {
                      "internalType": "uint256",
                      "name": "X",
                      "type": "uint256"
                    },
                    {
                      "internalType": "uint256",
                      "name": "Y",
                      "type": "uint256"
                    }
                  ],
                  "internalType": "struct alt_bn128.G1Point",
                  "name": "cy",
                  "type": "tuple"
                },
                {
                  "internalType": "uint256[]",
                  "name": "zs",
                  "type": "uint256[]"
                }
              ],
              "internalType": "struct DiffGenEqual.Sig",
              "name": "dg_sig",
              "type": "tuple"
            },
            {
              "components": [
                {
                  "components": [
                    {
                      "internalType": "uint256",
                      "name": "X",
                      "type": "uint256"
                    },
                    {
                      "internalType": "uint256",
                      "name": "Y",
                      "type": "uint256"
                    }
                  ],
                  "internalType": "struct alt_bn128.G1Point",
                  "name": "Cr",
                  "type": "tuple"
                },
                {
                  "internalType": "uint256[]",
                  "name": "zs",
                  "type": "uint256[]"
                }
              ],
              "internalType": "struct Sigma.Sig",
              "name": "sg_sig",
              "type": "tuple"
            },
            {
              "components": [
                {
                  "components": [
                    {
                      "internalType": "uint256",
                      "name": "X",
                      "type": "uint256"
                    },
                    {
                      "internalType": "uint256",
                      "name": "Y",
                      "type": "uint256"
                    }
                  ],
                  "internalType": "struct alt_bn128.G1Point",
                  "name": "c",
                  "type": "tuple"
                },
                {
                  "internalType": "uint256[]",
                  "name": "zs",
                  "type": "uint256[]"
                }
              ],
              "internalType": "struct PartialEquality.Sig",
              "name": "pe_R_sig",
              "type": "tuple"
            },
            {
              "components": [
                {
                  "components": [
                    {
                      "internalType": "uint256",
                      "name": "X",
                      "type": "uint256"
                    },
                    {
                      "internalType": "uint256",
                      "name": "Y",
                      "type": "uint256"
                    }
                  ],
                  "internalType": "struct alt_bn128.G1Point",
                  "name": "cx",
                  "type": "tuple"
                },
                {
                  "components": [
                    {
                      "internalType": "uint256",
                      "name": "X",
                      "type": "uint256"
                    },
                    {
                      "internalType": "uint256",
                      "name": "Y",
                      "type": "uint256"
                    }
                  ],
                  "internalType": "struct alt_bn128.G1Point",
                  "name": "cy",
                  "type": "tuple"
                },
                {
                  "internalType": "uint256[]",
                  "name": "zs",
                  "type": "uint256[]"
                }
              ],
              "internalType": "struct DiffGenEqual.Sig",
              "name": "dg_R_sig",
              "type": "tuple"
            }
          ],
          "internalType": "struct SoKba.Sig",
          "name": "sig",
          "type": "tuple"
        }
      ],
      "name": "verify_",
      "outputs": [
        {
          "components": [
            {
              "internalType": "bool",
              "name": "b_pe_tcom",
              "type": "bool"
            },
            {
              "internalType": "bool",
              "name": "b_dg",
              "type": "bool"
            },
            {
              "internalType": "bool",
              "name": "b_sg",
              "type": "bool"
            },
            {
              "internalType": "bool",
              "name": "b_pe_R",
              "type": "bool"
            },
            {
              "internalType": "bool",
              "name": "b_dg_R",
              "type": "bool"
            }
          ],
          "internalType": "struct SoKba.RTN",
          "name": "rtn",
          "type": "tuple"
        }
      ],
      "stateMutability": "view",
      "type": "function"
    }
  ],
  "bytecode": "0x60806040523480156200001157600080fd5b5060405162002242380380620022428339810160408190526200003491620000a5565b600080546001600160a01b039586166001600160a01b031991821617909155600180549486169482169490941790935560028054928516928416929092179091556003805491909316911617905562000102565b80516001600160a01b0381168114620000a057600080fd5b919050565b60008060008060808587031215620000bc57600080fd5b620000c78562000088565b9350620000d76020860162000088565b9250620000e76040860162000088565b9150620000f76060860162000088565b905092959194509250565b61213080620001126000396000f3fe608060405234801561001057600080fd5b50600436106100415760003560e01c80639a2ee11a14610046578063d232c8c21461006e578063e185b513146100cd575b600080fd5b61005961005436600461192e565b6100ed565b60405190151581526020015b60405180910390f35b61008161007c36600461192e565b61013d565b6040516100659190600060a08201905082511515825260208301511515602083015260408301511515604083015260608301511515606083015260808301511515608083015292915050565b6100e06100db366004611a40565b610b6d565b6040516100659190611b60565b6000806100fa848461013d565b8051909150801561010c575080602001515b8015610119575080604001515b8015610126575080606001515b8015610133575080608001515b9150505b92915050565b6040805160a08101825260008082526020820181905291810182905260608101829052608081019190915260008060009054906101000a90046001600160a01b03166001600160a01b031662e71aaf6040518163ffffffff1660e01b8152600401600060405180830381865afa1580156101bb573d6000803e3d6000fd5b505050506040513d6000823e601f3d908101601f191682016040526101e39190810190611c2b565b905060008060009054906101000a90046001600160a01b03166001600160a01b0316632e52d6066040518163ffffffff1660e01b8152600401602060405180830381865afa158015610239573d6000803e3d6000fd5b505050506040513d601f19601f8201168201806040525081019061025d9190611cc6565b905060008060009054906101000a90046001600160a01b03166001600160a01b031663babe4fe56040518163ffffffff1660e01b8152600401602060405180830381865afa1580156102b3573d6000803e3d6000fd5b505050506040513d601f19601f820116820180604052508101906102d79190611cc6565b90506000826001600160401b038111156102f3576102f3611623565b60405190808252806020026020018201604052801561031c578160200160208202803683370190505b50905060005b6004811015610372578751816006811061033e5761033e611cdf565b602002015182828151811061035557610355611cdf565b60209081029190910101528061036a81611d0b565b915050610322565b506000805460405163292ccf5960e21b81526001600160a01b039091169063a4b33d64906103a4908590600401611d24565b6040805180830381865afa1580156103c0573d6000803e3d6000fd5b505050506040513d601f19601f820116820180604052508101906103e49190611d3e565b60408051600180825281830190925291925060009190816020015b61040761157d565b8152602001906001900390816103ff57905050905085848151811061042e5761042e611cdf565b60200260200101518160008151811061044957610449611cdf565b60209081029190910101526001546040808b01518a51915163f96ce23b60e01b81526001600160a01b039093169263f96ce23b9261048f92869290918891600401611d94565b602060405180830381865afa1580156104ac573d6000803e3d6000fd5b505050506040513d601f19601f820116820180604052508101906104d09190611dd3565b15158088526105265760405162461bcd60e51b815260206004820152601e60248201527f536f4b6261203a205061727420457175616c2074636f6d206661696c6564000060448201526064015b60405180910390fd5b6002546000546040805163035e009f60e41b815281516001600160a01b039485169463d9502f759416926335e009f092600480820193918290030181865afa158015610576573d6000803e3d6000fd5b505050506040513d601f19601f8201168201806040525081019061059a9190611d3e565b88878d602001518e604001518e602001516040518763ffffffff1660e01b81526004016105cc96959493929190611df5565b602060405180830381865afa1580156105e9573d6000803e3d6000fd5b505050506040513d601f19601f8201168201806040525081019061060d9190611dd3565b15156020880181905261065f5760405162461bcd60e51b815260206004820152601a602482015279111a59998811d95b88115c5d585b081d18dbdb4819985a5b195960321b604482015260640161051d565b6040805160028082526060820190925290816020015b61067d61157d565b8152602001906001900390816106755790505090508561069e856001611e58565b815181106106ae576106ae611cdf565b6020026020010151816000815181106106c9576106c9611cdf565b6020908102919091010152856106e0856002611e58565b815181106106f0576106f0611cdf565b60200260200101518160018151811061070b5761070b611cdf565b60209081029190910181019190915260035460608b015160408b810151815180830183528e5160a0015181526000958101959095529051635caa706f60e11b81526001600160a01b039093169363b954e0de9361077093879390929091600401611e94565b602060405180830381865afa15801561078d573d6000803e3d6000fd5b505050506040513d601f19601f820116820180604052508101906107b19190611dd3565b1515604088018190526107ff5760405162461bcd60e51b81526020600482015260166024820152755369676d6153756d20646f6573206e6f74207061737360501b604482015260640161051d565b6040805160038082526080820190925290816020015b61081d61157d565b81526020019060019003908161081557905050905060005b600381101561089157866108498287611e58565b8151811061085957610859611cdf565b602002602001015182828151811061087357610873611cdf565b6020026020010181905250808061088990611d0b565b915050610835565b50885160036020020151836002815181106108ae576108ae611cdf565b6020908102919091010152885160046020020151836003815181106108d5576108d5611cdf565b602090810291909101015260005460405163292ccf5960e21b81526001600160a01b039091169063a4b33d6490610910908690600401611d24565b6040805180830381865afa15801561092c573d6000803e3d6000fd5b505050506040513d601f19601f820116820180604052508101906109509190611d3e565b60015460808b015160608b015160405163f96ce23b60e01b81529395506001600160a01b039092169263f96ce23b9261099192869290918891600401611d94565b602060405180830381865afa1580156109ae573d6000803e3d6000fd5b505050506040513d601f19601f820116820180604052508101906109d29190611dd3565b151560608801819052610a255760405162461bcd60e51b815260206004820152601b60248201527a14dbd2d898480e8814185c9d08115c5d585b08148819985a5b1959602a1b604482015260640161051d565b6002546000546040805163035e009f60e41b815281516001600160a01b039485169463d9502f759416926335e009f092600480820193918290030181865afa158015610a75573d6000803e3d6000fd5b505050506040513d601f19601f82011682018060405250810190610a999190611d3e565b88878d602001518e608001518e608001516040518763ffffffff1660e01b8152600401610acb96959493929190611df5565b602060405180830381865afa158015610ae8573d6000803e3d6000fd5b505050506040513d601f19601f82011682018060405250810190610b0c9190611dd3565b151560808801819052610b615760405162461bcd60e51b815260206004820152601e60248201527f536f4b62613a20446966662047656e20457175616c2052206661696c65640000604482015260640161051d565b50505050505092915050565b610b75611597565b60008060009054906101000a90046001600160a01b03166001600160a01b031662e71aaf6040518163ffffffff1660e01b8152600401600060405180830381865afa158015610bc8573d6000803e3d6000fd5b505050506040513d6000823e601f3d908101601f19168201604052610bf09190810190611c2b565b905060008060009054906101000a90046001600160a01b03166001600160a01b0316632e52d6066040518163ffffffff1660e01b8152600401602060405180830381865afa158015610c46573d6000803e3d6000fd5b505050506040513d601f19601f82011682018060405250810190610c6a9190611cc6565b905060008060009054906101000a90046001600160a01b03166001600160a01b031663babe4fe56040518163ffffffff1660e01b8152600401602060405180830381865afa158015610cc0573d6000803e3d6000fd5b505050506040513d601f19601f82011682018060405250810190610ce49190611cc6565b6040805160018082528183019092529192506000919060208083019080368337019050509050856001602002015181600081518110610d2557610d25611cdf565b6020908102919091010152604080516001808252818301909252600091816020015b610d4f61157d565b815260200190600190039081610d47579050509050848381518110610d7657610d76611cdf565b602002602001015181600081518110610d9157610d91611cdf565b602090810291909101015260018054604080518381528082019091526001600160a01b0390911691639460eead918491869190816020016020820280368337019050506040518463ffffffff1660e01b8152600401610df293929190611ed6565b600060405180830381865afa158015610e0f573d6000803e3d6000fd5b505050506040513d6000823e601f3d908101601f19168201604052610e379190810190611fc1565b8652836001600160401b03811115610e5157610e51611623565b604051908082528060200260200182016040528015610e7a578160200160208202803683370190505b50915060005b6004811015610ed05788518160068110610e9c57610e9c611cdf565b6020020151838281518110610eb357610eb3611cdf565b602090810291909101015280610ec881611d0b565b915050610e80565b50866001602002015182600481518110610eec57610eec611cdf565b60209081029190910101526002546000546040805163035e009f60e41b815281516001600160a01b039485169463ff9cfea99416926335e009f092600480820193918290030181865afa158015610f47573d6000803e3d6000fd5b505050506040513d601f19601f82011682018060405250810190610f6b9190611d3e565b8786866040518563ffffffff1660e01b8152600401610f8d9493929190611ff5565b600060405180830381865afa158015610faa573d6000803e3d6000fd5b505050506040513d6000823e601f3d908101601f19168201604052610fd2919081019061202d565b60208701526040805160028082526060820190925290816020016020820280368337019050508751602089015191935061100b91611e58565b8260008151811061101e5761101e611cdf565b602090810291909101015286600460200201518260018151811061104457611044611cdf565b60209081029190910101526040805160028082526060820190925290816020015b61106d61157d565b8152602001906001900390816110655790505090508461108e846001611e58565b8151811061109e5761109e611cdf565b6020026020010151816000815181106110b9576110b9611cdf565b6020908102919091010152846110d0846002611e58565b815181106110e0576110e0611cdf565b6020026020010151816001815181106110fb576110fb611cdf565b6020908102919091018101919091526003546040805180820182528a51815260009381019390935251631a91766b60e21b81526001600160a01b0390911691636a45d9ac916111519185918791906004016120bd565b600060405180830381865afa15801561116e573d6000803e3d6000fd5b505050506040513d6000823e601f3d908101601f191682016040526111969190810190611fc1565b604087810191909152805160038082526080820190925290816020015b6111bb61157d565b8152602001906001900390816111b357905050905060005b600381101561122f57856111e78286611e58565b815181106111f7576111f7611cdf565b602002602001015182828151811061121157611211611cdf565b6020026020010181905250808061122790611d0b565b9150506111d3565b5060408051600380825260808201909252906020820160608036833701905050915060005b60038110156112ad5787611269826001611e58565b6005811061127957611279611cdf565b602002015183828151811061129057611290611cdf565b6020908102919091010152806112a581611d0b565b915050611254565b50600154604080516003808252608082019092526001600160a01b0390921691639460eead918491869160208201606080368337019050506040518463ffffffff1660e01b815260040161130393929190611ed6565b600060405180830381865afa158015611320573d6000803e3d6000fd5b505050506040513d6000823e601f3d908101601f191682016040526113489190810190611fc1565b6060870152836001600160401b0381111561136557611365611623565b60405190808252806020026020018201604052801561138e578160200160208202803683370190505b5088515181519193509083906000906113a9576113a9611cdf565b6020908102919091010152875160016020020151826001815181106113d0576113d0611cdf565b6020908102919091010152875160036020020151826002815181106113f7576113f7611cdf565b60209081029190910101528751600460200201518260038151811061141e5761141e611cdf565b60200260200101818152505060005b60038110156114905787611442826001611e58565b6005811061145257611452611cdf565b602002015183611463836004611e58565b8151811061147357611473611cdf565b60209081029190910101528061148881611d0b565b91505061142d565b506002546000546040805163035e009f60e41b815281516001600160a01b039485169463ff9cfea99416926335e009f092600480820193918290030181865afa1580156114e1573d6000803e3d6000fd5b505050506040513d601f19601f820116820180604052508101906115059190611d3e565b8786866040518563ffffffff1660e01b81526004016115279493929190611ff5565b600060405180830381865afa158015611544573d6000803e3d6000fd5b505050506040513d6000823e601f3d908101601f1916820160405261156c919081019061202d565b608087015250939695505050505050565b604051806040016040528060008152602001600081525090565b6040518060a001604052806115aa6115e3565b81526020016115b7611603565b81526020016115c46115e3565b81526020016115d16115e3565b81526020016115de611603565b905290565b60405180604001604052806115f661157d565b8152602001606081525090565b604051806060016040528061161661157d565b81526020016115f661157d565b634e487b7160e01b600052604160045260246000fd5b604080519081016001600160401b038111828210171561165b5761165b611623565b60405290565b60405160a081016001600160401b038111828210171561165b5761165b611623565b604051606081016001600160401b038111828210171561165b5761165b611623565b60405160c081016001600160401b038111828210171561165b5761165b611623565b604051601f8201601f191681016001600160401b03811182821017156116ef576116ef611623565b604052919050565b60006040828403121561170957600080fd5b611711611639565b9050813581526020820135602082015292915050565b60006101c0828403121561173a57600080fd5b611742611661565b905082601f83011261175357600080fd5b61175b6116a5565b8060c084018581111561176d57600080fd5b845b8181101561178757803584526020938401930161176f565b5081845261179586826116f7565b60208501525050506117ab8361010084016116f7565b60408201526117be8361014084016116f7565b60608201526117d18361018084016116f7565b608082015292915050565b60006001600160401b038211156117f5576117f5611623565b5060051b60200190565b600082601f83011261181057600080fd5b81356020611825611820836117dc565b6116c7565b82815260059290921b8401810191818101908684111561184457600080fd5b8286015b8481101561185f5780358352918301918301611848565b509695505050505050565b60006060828403121561187c57600080fd5b611884611639565b905061189083836116f7565b815260408201356001600160401b038111156118ab57600080fd5b6118b7848285016117ff565b60208301525092915050565b600060a082840312156118d557600080fd5b6118dd611683565b90506118e983836116f7565b81526118f883604084016116f7565b602082015260808201356001600160401b0381111561191657600080fd5b611922848285016117ff565b60408301525092915050565b6000806101e0838503121561194257600080fd5b61194c8484611727565b91506101c08301356001600160401b038082111561196957600080fd5b9084019060a0828703121561197d57600080fd5b611985611661565b82358281111561199457600080fd5b6119a08882860161186a565b8252506020830135828111156119b557600080fd5b6119c1888286016118c3565b6020830152506040830135828111156119d957600080fd5b6119e58882860161186a565b6040830152506060830135828111156119fd57600080fd5b611a098882860161186a565b606083015250608083013582811115611a2157600080fd5b611a2d888286016118c3565b6080830152508093505050509250929050565b600080610260808486031215611a5557600080fd5b611a5f8585611727565b9250846101df850112611a7157600080fd5b611a79611661565b908401908086831115611a8b57600080fd5b6101c086015b83811015611aa9578035835260209283019201611a91565b508093505050509250929050565b80518252602090810151910152565b600081518084526020808501945080840160005b83811015611af657815187529582019590820190600101611ada565b509495945050505050565b611b0c828251611ab7565b60006020820151606060408501526101336060850182611ac6565b611b32828251611ab7565b60006020820151611b466040850182611ab7565b50604082015160a0608085015261013360a0850182611ac6565b602081526000825160a06020840152611b7c60c0840182611b01565b90506020840151601f1980858403016040860152611b9a8383611b27565b92506040860151915080858403016060860152611bb78383611b01565b92506060860151915080858403016080860152611bd48383611b01565b925060808601519150808584030160a086015250611bf28282611b27565b95945050505050565b600060408284031215611c0d57600080fd5b611c15611639565b9050815181526020820151602082015292915050565b60006020808385031215611c3e57600080fd5b82516001600160401b03811115611c5457600080fd5b8301601f81018513611c6557600080fd5b8051611c73611820826117dc565b81815260069190911b82018301908381019087831115611c9257600080fd5b928401925b82841015611cbb57611ca98885611bfb565b82528482019150604084019350611c97565b979650505050505050565b600060208284031215611cd857600080fd5b5051919050565b634e487b7160e01b600052603260045260246000fd5b634e487b7160e01b600052601160045260246000fd5b600060018201611d1d57611d1d611cf5565b5060010190565b602081526000611d376020830184611ac6565b9392505050565b600060408284031215611d5057600080fd5b611d378383611bfb565b600081518084526020808501945080840160005b83811015611af657611d81878351611ab7565b6040969096019590820190600101611d6e565b60c081526000611da760c0830187611d5a565b611db46020840187611ab7565b611dc16060840186611ab7565b82810360a0840152611cbb8185611b01565b600060208284031215611de557600080fd5b81518015158114611d3757600080fd5b6000610120611e04838a611ab7565b806040840152611e1681840189611d5a565b9050866060840152611e2b6080840187611ab7565b611e3860c0840186611ab7565b828103610100840152611e4b8185611b27565b9998505050505050505050565b8082018082111561013757610137611cf5565b8060005b6002811015611e8e578151845260209384019390910190600101611e6f565b50505050565b60c081526000611ea760c0830187611d5a565b611eb46020840187611ab7565b8281036060840152611ec68186611b01565b915050611bf26080830184611e6b565b606081526000611ee96060830186611d5a565b8281036020840152611efb8186611ac6565b90508281036040840152611f0f8185611ac6565b9695505050505050565b600082601f830112611f2a57600080fd5b81516020611f3a611820836117dc565b82815260059290921b84018101918181019086841115611f5957600080fd5b8286015b8481101561185f5780518352918301918301611f5d565b600060608284031215611f8657600080fd5b611f8e611639565b9050611f9a8383611bfb565b815260408201516001600160401b03811115611fb557600080fd5b6118b784828501611f19565b600060208284031215611fd357600080fd5b81516001600160401b03811115611fe957600080fd5b61013384828501611f74565b611fff8186611ab7565b60a06040820152600061201560a0830186611d5a565b8460608401528281036080840152611cbb8185611ac6565b60006020828403121561203f57600080fd5b81516001600160401b038082111561205657600080fd5b9083019060a0828603121561206a57600080fd5b612072611683565b61207c8684611bfb565b815261208b8660408501611bfb565b60208201526080830151828111156120a257600080fd5b6120ae87828601611f19565b60408301525095945050505050565b6080815260006120d06080830186611d5a565b82810360208401526120e28186611ac6565b9150506120f26040830184611e6b565b94935050505056fea26469706673582212205a5b632da6797a3ef77843fa62e6a34d932b32a03d91de33ef912364c778baa264736f6c63430008130033",
  "immutableReferences": {},
  "source": "// SPDX-License-Identifier: GPL-3.0\npragma solidity >=0.4.0 <0.9.0;\n\nimport \"../lib/alt_bn128.sol\";\nimport \"../PubParam.sol\";\n\nimport {PartialEquality as PE} from \"../ZKP/PartialEquality.sol\";\nimport {DiffGenEqual as DG} from \"../ZKP/DiffGenEqual.sol\";\nimport {Sigma as SG} from \"../ZKP/Sigma.sol\";\n\ncontract SoKba {\n  using alt_bn128 for uint256;\n  using alt_bn128 for alt_bn128.G1Point;\n\n  PubParam pp;\n  PE pe;\n  DG dg;\n  SG sg;\n\n  constructor (address _pp, address _pe, address _dg, address _sg) {\n    pp = PubParam(_pp);\n    pe = PE(_pe);\n    dg = DG(_dg);\n    sg = SG(_sg);\n  }\n\n  /// @param common (y,valy,T2,T3,Tmax,s)\n  /// @param pky pk of user B\n  /// @param tcomEy commitment of token info of E account of token y\n  /// @param ocomEx commitment of info to be opened at the time of spending the E account of token x\n  /// @param rBy commitment of R account of token y\n  struct Stm {\n    uint256[6] common;\n    alt_bn128.G1Point pky;\n    alt_bn128.G1Point tcomEy;\n    alt_bn128.G1Point ocomEx;\n    alt_bn128.G1Point rBy;\n  }\n\n  struct Sig {\n    PE.Sig pe_tcom_sig;\n    DG.Sig dg_sig;\n    SG.Sig sg_sig;\n    PE.Sig pe_R_sig;\n    DG.Sig dg_R_sig;\n  }\n\n  /// @dev sok L_{ba} sign by user B\n  /// @param wit (s, b1^, b2, b3, b4)\n  function sign(Stm memory stm, uint256[5] memory wit) public view returns (Sig memory sig) {\n    alt_bn128.G1Point[] memory Gs = pp.gs();\n    uint n = pp.n();\n    uint sk_pos = pp.sk_pos();\n\n    uint256[] memory com_attr = new uint256[](1);\n    com_attr[0] = wit[1]; // b1^\n    alt_bn128.G1Point[] memory uneq_gs = new alt_bn128.G1Point[](1);\n    uneq_gs[0] = Gs[sk_pos];\n\n    /// @dev 1. Part Equal signature (same y, valy, T2, T3)\n    sig.pe_tcom_sig = pe.sign(uneq_gs, com_attr, new uint256[](1));\n\n    com_attr = new uint256[](n);\n    for (uint i=0; i<4; i++) {\n      com_attr[i] = stm.common[i];\n    }\n    com_attr[4] = wit[1]; // b1^\n    /// @dev 2. Diff Gen Equal (pky vs tcomy)\n    sig.dg_sig = dg.sign(pp.g_pk(), Gs, sk_pos, com_attr);\n\n    com_attr = new uint256[](2);\n    com_attr[0] = wit[1] + wit[0]; // b1^ + s\n    com_attr[1] = wit[4];\n\n    uneq_gs = new alt_bn128.G1Point[](2);\n    uneq_gs[0] = Gs[sk_pos+1];\n    uneq_gs[1] = Gs[sk_pos+2];\n    /// @dev 3. SigmaSum (b1^ + s)\n    sig.sg_sig = sg.signSum(uneq_gs, com_attr, [wit[0], 0]);\n\n    uneq_gs = new alt_bn128.G1Point[](3);\n    for (uint i=0; i<3; i++) {\n      uneq_gs[i] = Gs[sk_pos+i];\n    }\n\n    // [b1, b2, b3]\n    com_attr = new uint256[](3);\n    for (uint i=0; i<3; i++) {\n      com_attr[i] = wit[1+i];\n    }\n    /// @dev 4. Part Equal signature (same y, valy, T3, Tmax)\n    sig.pe_R_sig = pe.sign(uneq_gs, com_attr, new uint256[](3));\n\n    // [y,valy,T3,Tmax,b1,b2;b3]\n    com_attr = new uint256[](n);\n    com_attr[0] = stm.common[0];\n    com_attr[1] = stm.common[1];\n    com_attr[2] = stm.common[3];\n    com_attr[3] = stm.common[4];\n    for (uint i=0; i<3; i++) {\n      com_attr[4+i] = wit[1+i];\n    }\n    /// @dev 5. Diff Gen Equal (pky vs R)\n    sig.dg_R_sig = dg.sign(pp.g_pk(), Gs, sk_pos, com_attr);\n  }\n\n  struct RTN {\n    bool b_pe_tcom;\n    bool b_dg;\n    bool b_sg;\n    bool b_pe_R;\n    bool b_dg_R;\n  }\n  \n  /// @dev sok L_{ba} verify by user A\n  function verify(Stm memory stm, Sig memory sig) public view returns (bool) {\n    RTN memory rtn = verify_(stm, sig);\n    return rtn.b_pe_tcom && rtn.b_dg && rtn.b_sg && rtn.b_pe_R && rtn.b_dg_R;\n  }\n\n  function verify_(Stm memory stm, Sig memory sig) public view returns (RTN memory rtn) {\n    alt_bn128.G1Point[] memory Gs = pp.gs();\n    uint n = pp.n();\n    uint sk_pos = pp.sk_pos();\n\n    uint256[] memory pe_y = new uint256[](n);\n    for (uint i=0; i<4; i++) {\n      pe_y[i] = stm.common[i];\n    }\n    alt_bn128.G1Point memory Cy = pp.tCom(pe_y);\n\n    alt_bn128.G1Point[] memory uneq_gs = new alt_bn128.G1Point[](1);\n    uneq_gs[0] = Gs[sk_pos];\n\n    /// @dev 1. Part Equal signature (same y, valy, T2, T3)\n    rtn.b_pe_tcom = pe.verify(uneq_gs, stm.tcomEy, Cy, sig.pe_tcom_sig);\n    require(rtn.b_pe_tcom, \"SoKba : Part Equal tcom failed\");\n\n    /// @dev 2. Diff Gen Equal (pky vs tcomy)\n    rtn.b_dg = dg.verify(pp.g_pk(), Gs, sk_pos, stm.pky, stm.tcomEy, sig.dg_sig);\n    require(rtn.b_dg, \"Diff Gen Equal tcom failed\");\n\n    uneq_gs = new alt_bn128.G1Point[](2);\n    uneq_gs[0] = Gs[sk_pos+1];\n    uneq_gs[1] = Gs[sk_pos+2];\n    /// @dev 3. SigmaSum (b1^ + s)\n    rtn.b_sg = sg.verifySum(uneq_gs, stm.ocomEx, sig.sg_sig, [stm.common[5], 0]); // [s, 0]\n    require(rtn.b_sg, \"SigmaSum does not pass\");\n\n    uneq_gs = new alt_bn128.G1Point[](3);\n    for (uint i=0; i<3; i++) {\n      uneq_gs[i] = Gs[sk_pos+i];\n    }\n\n    pe_y[2] = stm.common[3]; // T3\n    pe_y[3] = stm.common[4]; // Tmax\n    Cy = pp.tCom(pe_y);\n    /// @dev 4. Part Equal signature (same y, valy, T3, Tmax)\n    rtn.b_pe_R = pe.verify(uneq_gs, stm.rBy, Cy, sig.pe_R_sig);\n    require(rtn.b_pe_R, \"SoKba : Part Equal R failed\");\n\n    /// @dev 5. Diff Gen Equal (pky vs R)\n    rtn.b_dg_R = dg.verify(pp.g_pk(), Gs, sk_pos, stm.pky, stm.rBy, sig.dg_R_sig);\n    require(rtn.b_dg_R, \"SoKba: Diff Gen Equal R failed\");\n  }\n\n}\n",
  "sourcePath": "/Users/qian/Desktop/Y4/COMP4550/project/XCSwap/contracts/TX/SoKba.sol",
  "compiler": {
    "name": "solc",
    "version": "0.8.19+commit.7dd6d404.Emscripten.clang"
  },
  "schemaVersion": "3.4.13",
  "updatedAt": "2023-08-10T14:22:56.069Z",
  "devdoc": {
    "kind": "dev",
    "methods": {
      "sign((uint256[6],(uint256,uint256),(uint256,uint256),(uint256,uint256),(uint256,uint256)),uint256[5])": {
        "details": "sok L_{ba} sign by user B",
        "params": {
          "wit": "(s, b1^, b2, b3, b4)"
        }
      },
      "verify((uint256[6],(uint256,uint256),(uint256,uint256),(uint256,uint256),(uint256,uint256)),(((uint256,uint256),uint256[]),((uint256,uint256),(uint256,uint256),uint256[]),((uint256,uint256),uint256[]),((uint256,uint256),uint256[]),((uint256,uint256),(uint256,uint256),uint256[])))": {
        "details": "sok L_{ba} verify by user A"
      }
    },
    "version": 1
  },
  "userdoc": {
    "kind": "user",
    "methods": {},
    "version": 1
  }
}