{
  "contractName": "SoKba",
  "abi": [
    {
      "inputs": [
        {
          "internalType": "address",
          "name": "_pp",
          "type": "address"
        },
        {
          "internalType": "address",
          "name": "_pe",
          "type": "address"
        },
        {
          "internalType": "address",
          "name": "_dg",
          "type": "address"
        },
        {
          "internalType": "address",
          "name": "_sg",
          "type": "address"
        }
      ],
      "stateMutability": "nonpayable",
      "type": "constructor"
    },
    {
      "inputs": [
        {
          "components": [
            {
              "internalType": "uint256[6]",
              "name": "common",
              "type": "uint256[6]"
            },
            {
              "components": [
                {
                  "internalType": "uint256",
                  "name": "X",
                  "type": "uint256"
                },
                {
                  "internalType": "uint256",
                  "name": "Y",
                  "type": "uint256"
                }
              ],
              "internalType": "struct alt_bn128.G1Point",
              "name": "pky",
              "type": "tuple"
            },
            {
              "components": [
                {
                  "internalType": "uint256",
                  "name": "X",
                  "type": "uint256"
                },
                {
                  "internalType": "uint256",
                  "name": "Y",
                  "type": "uint256"
                }
              ],
              "internalType": "struct alt_bn128.G1Point",
              "name": "tcomEy",
              "type": "tuple"
            },
            {
              "components": [
                {
                  "internalType": "uint256",
                  "name": "X",
                  "type": "uint256"
                },
                {
                  "internalType": "uint256",
                  "name": "Y",
                  "type": "uint256"
                }
              ],
              "internalType": "struct alt_bn128.G1Point",
              "name": "ocomEx",
              "type": "tuple"
            },
            {
              "components": [
                {
                  "internalType": "uint256",
                  "name": "X",
                  "type": "uint256"
                },
                {
                  "internalType": "uint256",
                  "name": "Y",
                  "type": "uint256"
                }
              ],
              "internalType": "struct alt_bn128.G1Point",
              "name": "rBy",
              "type": "tuple"
            }
          ],
          "internalType": "struct SoKba.Stm",
          "name": "stm",
          "type": "tuple"
        },
        {
          "internalType": "uint256[5]",
          "name": "wit",
          "type": "uint256[5]"
        }
      ],
      "name": "sign",
      "outputs": [
        {
          "components": [
            {
              "components": [
                {
                  "components": [
                    {
                      "internalType": "uint256",
                      "name": "X",
                      "type": "uint256"
                    },
                    {
                      "internalType": "uint256",
                      "name": "Y",
                      "type": "uint256"
                    }
                  ],
                  "internalType": "struct alt_bn128.G1Point",
                  "name": "c",
                  "type": "tuple"
                },
                {
                  "internalType": "uint256[]",
                  "name": "zs",
                  "type": "uint256[]"
                }
              ],
              "internalType": "struct PartialEquality.Sig",
              "name": "pe_tcom_sig",
              "type": "tuple"
            },
            {
              "components": [
                {
                  "components": [
                    {
                      "internalType": "uint256",
                      "name": "X",
                      "type": "uint256"
                    },
                    {
                      "internalType": "uint256",
                      "name": "Y",
                      "type": "uint256"
                    }
                  ],
                  "internalType": "struct alt_bn128.G1Point",
                  "name": "cx",
                  "type": "tuple"
                },
                {
                  "components": [
                    {
                      "internalType": "uint256",
                      "name": "X",
                      "type": "uint256"
                    },
                    {
                      "internalType": "uint256",
                      "name": "Y",
                      "type": "uint256"
                    }
                  ],
                  "internalType": "struct alt_bn128.G1Point",
                  "name": "cy",
                  "type": "tuple"
                },
                {
                  "internalType": "uint256[]",
                  "name": "zs",
                  "type": "uint256[]"
                }
              ],
              "internalType": "struct DiffGenEqual.Sig",
              "name": "dg_sig",
              "type": "tuple"
            },
            {
              "components": [
                {
                  "components": [
                    {
                      "internalType": "uint256",
                      "name": "X",
                      "type": "uint256"
                    },
                    {
                      "internalType": "uint256",
                      "name": "Y",
                      "type": "uint256"
                    }
                  ],
                  "internalType": "struct alt_bn128.G1Point",
                  "name": "Cr",
                  "type": "tuple"
                },
                {
                  "internalType": "uint256[]",
                  "name": "zs",
                  "type": "uint256[]"
                }
              ],
              "internalType": "struct Sigma.Sig",
              "name": "sg_sig",
              "type": "tuple"
            },
            {
              "components": [
                {
                  "components": [
                    {
                      "internalType": "uint256",
                      "name": "X",
                      "type": "uint256"
                    },
                    {
                      "internalType": "uint256",
                      "name": "Y",
                      "type": "uint256"
                    }
                  ],
                  "internalType": "struct alt_bn128.G1Point",
                  "name": "c",
                  "type": "tuple"
                },
                {
                  "internalType": "uint256[]",
                  "name": "zs",
                  "type": "uint256[]"
                }
              ],
              "internalType": "struct PartialEquality.Sig",
              "name": "pe_R_sig",
              "type": "tuple"
            },
            {
              "components": [
                {
                  "components": [
                    {
                      "internalType": "uint256",
                      "name": "X",
                      "type": "uint256"
                    },
                    {
                      "internalType": "uint256",
                      "name": "Y",
                      "type": "uint256"
                    }
                  ],
                  "internalType": "struct alt_bn128.G1Point",
                  "name": "cx",
                  "type": "tuple"
                },
                {
                  "components": [
                    {
                      "internalType": "uint256",
                      "name": "X",
                      "type": "uint256"
                    },
                    {
                      "internalType": "uint256",
                      "name": "Y",
                      "type": "uint256"
                    }
                  ],
                  "internalType": "struct alt_bn128.G1Point",
                  "name": "cy",
                  "type": "tuple"
                },
                {
                  "internalType": "uint256[]",
                  "name": "zs",
                  "type": "uint256[]"
                }
              ],
              "internalType": "struct DiffGenEqual.Sig",
              "name": "dg_R_sig",
              "type": "tuple"
            }
          ],
          "internalType": "struct SoKba.Sig",
          "name": "sig",
          "type": "tuple"
        }
      ],
      "stateMutability": "view",
      "type": "function"
    },
    {
      "inputs": [
        {
          "components": [
            {
              "internalType": "uint256[6]",
              "name": "common",
              "type": "uint256[6]"
            },
            {
              "components": [
                {
                  "internalType": "uint256",
                  "name": "X",
                  "type": "uint256"
                },
                {
                  "internalType": "uint256",
                  "name": "Y",
                  "type": "uint256"
                }
              ],
              "internalType": "struct alt_bn128.G1Point",
              "name": "pky",
              "type": "tuple"
            },
            {
              "components": [
                {
                  "internalType": "uint256",
                  "name": "X",
                  "type": "uint256"
                },
                {
                  "internalType": "uint256",
                  "name": "Y",
                  "type": "uint256"
                }
              ],
              "internalType": "struct alt_bn128.G1Point",
              "name": "tcomEy",
              "type": "tuple"
            },
            {
              "components": [
                {
                  "internalType": "uint256",
                  "name": "X",
                  "type": "uint256"
                },
                {
                  "internalType": "uint256",
                  "name": "Y",
                  "type": "uint256"
                }
              ],
              "internalType": "struct alt_bn128.G1Point",
              "name": "ocomEx",
              "type": "tuple"
            },
            {
              "components": [
                {
                  "internalType": "uint256",
                  "name": "X",
                  "type": "uint256"
                },
                {
                  "internalType": "uint256",
                  "name": "Y",
                  "type": "uint256"
                }
              ],
              "internalType": "struct alt_bn128.G1Point",
              "name": "rBy",
              "type": "tuple"
            }
          ],
          "internalType": "struct SoKba.Stm",
          "name": "stm",
          "type": "tuple"
        },
        {
          "components": [
            {
              "components": [
                {
                  "components": [
                    {
                      "internalType": "uint256",
                      "name": "X",
                      "type": "uint256"
                    },
                    {
                      "internalType": "uint256",
                      "name": "Y",
                      "type": "uint256"
                    }
                  ],
                  "internalType": "struct alt_bn128.G1Point",
                  "name": "c",
                  "type": "tuple"
                },
                {
                  "internalType": "uint256[]",
                  "name": "zs",
                  "type": "uint256[]"
                }
              ],
              "internalType": "struct PartialEquality.Sig",
              "name": "pe_tcom_sig",
              "type": "tuple"
            },
            {
              "components": [
                {
                  "components": [
                    {
                      "internalType": "uint256",
                      "name": "X",
                      "type": "uint256"
                    },
                    {
                      "internalType": "uint256",
                      "name": "Y",
                      "type": "uint256"
                    }
                  ],
                  "internalType": "struct alt_bn128.G1Point",
                  "name": "cx",
                  "type": "tuple"
                },
                {
                  "components": [
                    {
                      "internalType": "uint256",
                      "name": "X",
                      "type": "uint256"
                    },
                    {
                      "internalType": "uint256",
                      "name": "Y",
                      "type": "uint256"
                    }
                  ],
                  "internalType": "struct alt_bn128.G1Point",
                  "name": "cy",
                  "type": "tuple"
                },
                {
                  "internalType": "uint256[]",
                  "name": "zs",
                  "type": "uint256[]"
                }
              ],
              "internalType": "struct DiffGenEqual.Sig",
              "name": "dg_sig",
              "type": "tuple"
            },
            {
              "components": [
                {
                  "components": [
                    {
                      "internalType": "uint256",
                      "name": "X",
                      "type": "uint256"
                    },
                    {
                      "internalType": "uint256",
                      "name": "Y",
                      "type": "uint256"
                    }
                  ],
                  "internalType": "struct alt_bn128.G1Point",
                  "name": "Cr",
                  "type": "tuple"
                },
                {
                  "internalType": "uint256[]",
                  "name": "zs",
                  "type": "uint256[]"
                }
              ],
              "internalType": "struct Sigma.Sig",
              "name": "sg_sig",
              "type": "tuple"
            },
            {
              "components": [
                {
                  "components": [
                    {
                      "internalType": "uint256",
                      "name": "X",
                      "type": "uint256"
                    },
                    {
                      "internalType": "uint256",
                      "name": "Y",
                      "type": "uint256"
                    }
                  ],
                  "internalType": "struct alt_bn128.G1Point",
                  "name": "c",
                  "type": "tuple"
                },
                {
                  "internalType": "uint256[]",
                  "name": "zs",
                  "type": "uint256[]"
                }
              ],
              "internalType": "struct PartialEquality.Sig",
              "name": "pe_R_sig",
              "type": "tuple"
            },
            {
              "components": [
                {
                  "components": [
                    {
                      "internalType": "uint256",
                      "name": "X",
                      "type": "uint256"
                    },
                    {
                      "internalType": "uint256",
                      "name": "Y",
                      "type": "uint256"
                    }
                  ],
                  "internalType": "struct alt_bn128.G1Point",
                  "name": "cx",
                  "type": "tuple"
                },
                {
                  "components": [
                    {
                      "internalType": "uint256",
                      "name": "X",
                      "type": "uint256"
                    },
                    {
                      "internalType": "uint256",
                      "name": "Y",
                      "type": "uint256"
                    }
                  ],
                  "internalType": "struct alt_bn128.G1Point",
                  "name": "cy",
                  "type": "tuple"
                },
                {
                  "internalType": "uint256[]",
                  "name": "zs",
                  "type": "uint256[]"
                }
              ],
              "internalType": "struct DiffGenEqual.Sig",
              "name": "dg_R_sig",
              "type": "tuple"
            }
          ],
          "internalType": "struct SoKba.Sig",
          "name": "sig",
          "type": "tuple"
        }
      ],
      "name": "verify",
      "outputs": [
        {
          "internalType": "bool",
          "name": "",
          "type": "bool"
        }
      ],
      "stateMutability": "view",
      "type": "function"
    }
  ],
  "bytecode": "0x60806040523480156200001157600080fd5b50604051620021d8380380620021d88339810160408190526200003491620000a5565b600080546001600160a01b039586166001600160a01b031991821617909155600180549486169482169490941790935560028054928516928416929092179091556003805491909316911617905562000102565b80516001600160a01b0381168114620000a057600080fd5b919050565b60008060008060808587031215620000bc57600080fd5b620000c78562000088565b9350620000d76020860162000088565b9250620000e76040860162000088565b9150620000f76060860162000088565b905092959194509250565b6120c680620001126000396000f3fe608060405234801561001057600080fd5b50600436106100365760003560e01c80639a2ee11a1461003b578063e185b51314610063575b600080fd5b61004e6100493660046118c4565b610083565b60405190151581526020015b60405180910390f35b6100766100713660046119d6565b6100d3565b60405161005a9190611af6565b6000806100908484610ae3565b805190915080156100a2575080602001515b80156100af575080604001515b80156100bc575080606001515b80156100c9575080608001515b9150505b92915050565b6100db611513565b60008060009054906101000a90046001600160a01b03166001600160a01b031662e71aaf6040518163ffffffff1660e01b8152600401600060405180830381865afa15801561012e573d6000803e3d6000fd5b505050506040513d6000823e601f3d908101601f191682016040526101569190810190611bc1565b905060008060009054906101000a90046001600160a01b03166001600160a01b0316632e52d6066040518163ffffffff1660e01b8152600401602060405180830381865afa1580156101ac573d6000803e3d6000fd5b505050506040513d601f19601f820116820180604052508101906101d09190611c5c565b905060008060009054906101000a90046001600160a01b03166001600160a01b031663babe4fe56040518163ffffffff1660e01b8152600401602060405180830381865afa158015610226573d6000803e3d6000fd5b505050506040513d601f19601f8201168201806040525081019061024a9190611c5c565b604080516001808252818301909252919250600091906020808301908036833701905050905085600160200201518160008151811061028b5761028b611c75565b6020908102919091010152604080516001808252818301909252600091816020015b6102b561155f565b8152602001906001900390816102ad5790505090508483815181106102dc576102dc611c75565b6020026020010151816000815181106102f7576102f7611c75565b602090810291909101015260018054604080518381528082019091526001600160a01b0390911691639460eead918491869190816020016020820280368337019050506040518463ffffffff1660e01b815260040161035893929190611cc5565b600060405180830381865afa158015610375573d6000803e3d6000fd5b505050506040513d6000823e601f3d908101601f1916820160405261039d9190810190611db0565b8652836001600160401b038111156103b7576103b76115b9565b6040519080825280602002602001820160405280156103e0578160200160208202803683370190505b50915060005b6004811015610436578851816006811061040257610402611c75565b602002015183828151811061041957610419611c75565b60209081029190910101528061042e81611dfa565b9150506103e6565b5086600160200201518260048151811061045257610452611c75565b60209081029190910101526002546000546040805163035e009f60e41b815281516001600160a01b039485169463ff9cfea99416926335e009f092600480820193918290030181865afa1580156104ad573d6000803e3d6000fd5b505050506040513d601f19601f820116820180604052508101906104d19190611e13565b8786866040518563ffffffff1660e01b81526004016104f39493929190611e36565b600060405180830381865afa158015610510573d6000803e3d6000fd5b505050506040513d6000823e601f3d908101601f191682016040526105389190810190611e6e565b60208701526040805160028082526060820190925290816020016020820280368337019050508751602089015191935061057191611efe565b8260008151811061058457610584611c75565b60209081029190910101528660046020020151826001815181106105aa576105aa611c75565b60209081029190910101526040805160028082526060820190925290816020015b6105d361155f565b8152602001906001900390816105cb579050509050846105f4846001611efe565b8151811061060457610604611c75565b60200260200101518160008151811061061f5761061f611c75565b602090810291909101015284610636846002611efe565b8151811061064657610646611c75565b60200260200101518160018151811061066157610661611c75565b6020908102919091018101919091526003546040805180820182528a51815260009381019390935251631a91766b60e21b81526001600160a01b0390911691636a45d9ac916106b7918591879190600401611f3a565b600060405180830381865afa1580156106d4573d6000803e3d6000fd5b505050506040513d6000823e601f3d908101601f191682016040526106fc9190810190611db0565b604087810191909152805160038082526080820190925290816020015b61072161155f565b81526020019060019003908161071957905050905060005b6003811015610795578561074d8286611efe565b8151811061075d5761075d611c75565b602002602001015182828151811061077757610777611c75565b6020026020010181905250808061078d90611dfa565b915050610739565b5060408051600380825260808201909252906020820160608036833701905050915060005b600381101561081357876107cf826001611efe565b600581106107df576107df611c75565b60200201518382815181106107f6576107f6611c75565b60209081029190910101528061080b81611dfa565b9150506107ba565b50600154604080516003808252608082019092526001600160a01b0390921691639460eead918491869160208201606080368337019050506040518463ffffffff1660e01b815260040161086993929190611cc5565b600060405180830381865afa158015610886573d6000803e3d6000fd5b505050506040513d6000823e601f3d908101601f191682016040526108ae9190810190611db0565b6060870152836001600160401b038111156108cb576108cb6115b9565b6040519080825280602002602001820160405280156108f4578160200160208202803683370190505b50885151815191935090839060009061090f5761090f611c75565b60209081029190910101528751600160200201518260018151811061093657610936611c75565b60209081029190910101528751600360200201518260028151811061095d5761095d611c75565b60209081029190910101528751600460200201518260038151811061098457610984611c75565b60200260200101818152505060005b60038110156109f657876109a8826001611efe565b600581106109b8576109b8611c75565b6020020151836109c9836004611efe565b815181106109d9576109d9611c75565b6020908102919091010152806109ee81611dfa565b915050610993565b506002546000546040805163035e009f60e41b815281516001600160a01b039485169463ff9cfea99416926335e009f092600480820193918290030181865afa158015610a47573d6000803e3d6000fd5b505050506040513d601f19601f82011682018060405250810190610a6b9190611e13565b8786866040518563ffffffff1660e01b8152600401610a8d9493929190611e36565b600060405180830381865afa158015610aaa573d6000803e3d6000fd5b505050506040513d6000823e601f3d908101601f19168201604052610ad29190810190611e6e565b608087015250939695505050505050565b6040805160a08101825260008082526020820181905291810182905260608101829052608081019190915260008060009054906101000a90046001600160a01b03166001600160a01b031662e71aaf6040518163ffffffff1660e01b8152600401600060405180830381865afa158015610b61573d6000803e3d6000fd5b505050506040513d6000823e601f3d908101601f19168201604052610b899190810190611bc1565b905060008060009054906101000a90046001600160a01b03166001600160a01b0316632e52d6066040518163ffffffff1660e01b8152600401602060405180830381865afa158015610bdf573d6000803e3d6000fd5b505050506040513d601f19601f82011682018060405250810190610c039190611c5c565b905060008060009054906101000a90046001600160a01b03166001600160a01b031663babe4fe56040518163ffffffff1660e01b8152600401602060405180830381865afa158015610c59573d6000803e3d6000fd5b505050506040513d601f19601f82011682018060405250810190610c7d9190611c5c565b90506000826001600160401b03811115610c9957610c996115b9565b604051908082528060200260200182016040528015610cc2578160200160208202803683370190505b50905060005b6004811015610d185787518160068110610ce457610ce4611c75565b6020020151828281518110610cfb57610cfb611c75565b602090810291909101015280610d1081611dfa565b915050610cc8565b506000805460405163292ccf5960e21b81526001600160a01b039091169063a4b33d6490610d4a908590600401611f77565b6040805180830381865afa158015610d66573d6000803e3d6000fd5b505050506040513d601f19601f82011682018060405250810190610d8a9190611e13565b60408051600180825281830190925291925060009190816020015b610dad61155f565b815260200190600190039081610da5579050509050858481518110610dd457610dd4611c75565b602002602001015181600081518110610def57610def611c75565b60209081029190910101526001546040808b01518a51915163f96ce23b60e01b81526001600160a01b039093169263f96ce23b92610e3592869290918891600401611f8a565b602060405180830381865afa158015610e52573d6000803e3d6000fd5b505050506040513d601f19601f82011682018060405250810190610e769190611fc9565b1515808852610ecc5760405162461bcd60e51b815260206004820152601e60248201527f536f4b6261203a205061727420457175616c2074636f6d206661696c6564000060448201526064015b60405180910390fd5b6002546000546040805163035e009f60e41b815281516001600160a01b039485169463d9502f759416926335e009f092600480820193918290030181865afa158015610f1c573d6000803e3d6000fd5b505050506040513d601f19601f82011682018060405250810190610f409190611e13565b88878d602001518e604001518e602001516040518763ffffffff1660e01b8152600401610f7296959493929190611feb565b602060405180830381865afa158015610f8f573d6000803e3d6000fd5b505050506040513d601f19601f82011682018060405250810190610fb39190611fc9565b1515602088018190526110055760405162461bcd60e51b815260206004820152601a602482015279111a59998811d95b88115c5d585b081d18dbdb4819985a5b195960321b6044820152606401610ec3565b6040805160028082526060820190925290816020015b61102361155f565b81526020019060019003908161101b57905050905085611044856001611efe565b8151811061105457611054611c75565b60200260200101518160008151811061106f5761106f611c75565b602090810291909101015285611086856002611efe565b8151811061109657611096611c75565b6020026020010151816001815181106110b1576110b1611c75565b60209081029190910181019190915260035460608b015160408b810151815180830183528e5160a0015181526000958101959095529051635caa706f60e11b81526001600160a01b039093169363b954e0de936111169387939092909160040161204e565b602060405180830381865afa158015611133573d6000803e3d6000fd5b505050506040513d601f19601f820116820180604052508101906111579190611fc9565b1515604088018190526111a55760405162461bcd60e51b81526020600482015260166024820152755369676d6153756d20646f6573206e6f74207061737360501b6044820152606401610ec3565b6040805160038082526080820190925290816020015b6111c361155f565b8152602001906001900390816111bb57905050905060005b600381101561123757866111ef8287611efe565b815181106111ff576111ff611c75565b602002602001015182828151811061121957611219611c75565b6020026020010181905250808061122f90611dfa565b9150506111db565b508851600360200201518360028151811061125457611254611c75565b60209081029190910101528851600460200201518360038151811061127b5761127b611c75565b602090810291909101015260005460405163292ccf5960e21b81526001600160a01b039091169063a4b33d64906112b6908690600401611f77565b6040805180830381865afa1580156112d2573d6000803e3d6000fd5b505050506040513d601f19601f820116820180604052508101906112f69190611e13565b60015460808b015160608b015160405163f96ce23b60e01b81529395506001600160a01b039092169263f96ce23b9261133792869290918891600401611f8a565b602060405180830381865afa158015611354573d6000803e3d6000fd5b505050506040513d601f19601f820116820180604052508101906113789190611fc9565b1515606088018190526113cb5760405162461bcd60e51b815260206004820152601b60248201527a14dbd2d898480e8814185c9d08115c5d585b08148819985a5b1959602a1b6044820152606401610ec3565b6002546000546040805163035e009f60e41b815281516001600160a01b039485169463d9502f759416926335e009f092600480820193918290030181865afa15801561141b573d6000803e3d6000fd5b505050506040513d601f19601f8201168201806040525081019061143f9190611e13565b88878d602001518e608001518e608001516040518763ffffffff1660e01b815260040161147196959493929190611feb565b602060405180830381865afa15801561148e573d6000803e3d6000fd5b505050506040513d601f19601f820116820180604052508101906114b29190611fc9565b1515608088018190526115075760405162461bcd60e51b815260206004820152601e60248201527f536f4b62613a20446966662047656e20457175616c2052206661696c656400006044820152606401610ec3565b50505050505092915050565b6040518060a00160405280611526611579565b8152602001611533611599565b8152602001611540611579565b815260200161154d611579565b815260200161155a611599565b905290565b604051806040016040528060008152602001600081525090565b604051806040016040528061158c61155f565b8152602001606081525090565b60405180606001604052806115ac61155f565b815260200161158c61155f565b634e487b7160e01b600052604160045260246000fd5b604080519081016001600160401b03811182821017156115f1576115f16115b9565b60405290565b60405160a081016001600160401b03811182821017156115f1576115f16115b9565b604051606081016001600160401b03811182821017156115f1576115f16115b9565b60405160c081016001600160401b03811182821017156115f1576115f16115b9565b604051601f8201601f191681016001600160401b0381118282101715611685576116856115b9565b604052919050565b60006040828403121561169f57600080fd5b6116a76115cf565b9050813581526020820135602082015292915050565b60006101c082840312156116d057600080fd5b6116d86115f7565b905082601f8301126116e957600080fd5b6116f161163b565b8060c084018581111561170357600080fd5b845b8181101561171d578035845260209384019301611705565b5081845261172b868261168d565b602085015250505061174183610100840161168d565b604082015261175483610140840161168d565b606082015261176783610180840161168d565b608082015292915050565b60006001600160401b0382111561178b5761178b6115b9565b5060051b60200190565b600082601f8301126117a657600080fd5b813560206117bb6117b683611772565b61165d565b82815260059290921b840181019181810190868411156117da57600080fd5b8286015b848110156117f557803583529183019183016117de565b509695505050505050565b60006060828403121561181257600080fd5b61181a6115cf565b9050611826838361168d565b815260408201356001600160401b0381111561184157600080fd5b61184d84828501611795565b60208301525092915050565b600060a0828403121561186b57600080fd5b611873611619565b905061187f838361168d565b815261188e836040840161168d565b602082015260808201356001600160401b038111156118ac57600080fd5b6118b884828501611795565b60408301525092915050565b6000806101e083850312156118d857600080fd5b6118e284846116bd565b91506101c08301356001600160401b03808211156118ff57600080fd5b9084019060a0828703121561191357600080fd5b61191b6115f7565b82358281111561192a57600080fd5b61193688828601611800565b82525060208301358281111561194b57600080fd5b61195788828601611859565b60208301525060408301358281111561196f57600080fd5b61197b88828601611800565b60408301525060608301358281111561199357600080fd5b61199f88828601611800565b6060830152506080830135828111156119b757600080fd5b6119c388828601611859565b6080830152508093505050509250929050565b6000806102608084860312156119eb57600080fd5b6119f585856116bd565b9250846101df850112611a0757600080fd5b611a0f6115f7565b908401908086831115611a2157600080fd5b6101c086015b83811015611a3f578035835260209283019201611a27565b508093505050509250929050565b80518252602090810151910152565b600081518084526020808501945080840160005b83811015611a8c57815187529582019590820190600101611a70565b509495945050505050565b611aa2828251611a4d565b60006020820151606060408501526100c96060850182611a5c565b611ac8828251611a4d565b60006020820151611adc6040850182611a4d565b50604082015160a060808501526100c960a0850182611a5c565b602081526000825160a06020840152611b1260c0840182611a97565b90506020840151601f1980858403016040860152611b308383611abd565b92506040860151915080858403016060860152611b4d8383611a97565b92506060860151915080858403016080860152611b6a8383611a97565b925060808601519150808584030160a086015250611b888282611abd565b95945050505050565b600060408284031215611ba357600080fd5b611bab6115cf565b9050815181526020820151602082015292915050565b60006020808385031215611bd457600080fd5b82516001600160401b03811115611bea57600080fd5b8301601f81018513611bfb57600080fd5b8051611c096117b682611772565b81815260069190911b82018301908381019087831115611c2857600080fd5b928401925b82841015611c5157611c3f8885611b91565b82528482019150604084019350611c2d565b979650505050505050565b600060208284031215611c6e57600080fd5b5051919050565b634e487b7160e01b600052603260045260246000fd5b600081518084526020808501945080840160005b83811015611a8c57611cb2878351611a4d565b6040969096019590820190600101611c9f565b606081526000611cd86060830186611c8b565b8281036020840152611cea8186611a5c565b90508281036040840152611cfe8185611a5c565b9695505050505050565b600082601f830112611d1957600080fd5b81516020611d296117b683611772565b82815260059290921b84018101918181019086841115611d4857600080fd5b8286015b848110156117f55780518352918301918301611d4c565b600060608284031215611d7557600080fd5b611d7d6115cf565b9050611d898383611b91565b815260408201516001600160401b03811115611da457600080fd5b61184d84828501611d08565b600060208284031215611dc257600080fd5b81516001600160401b03811115611dd857600080fd5b6100c984828501611d63565b634e487b7160e01b600052601160045260246000fd5b600060018201611e0c57611e0c611de4565b5060010190565b600060408284031215611e2557600080fd5b611e2f8383611b91565b9392505050565b611e408186611a4d565b60a060408201526000611e5660a0830186611c8b565b8460608401528281036080840152611c518185611a5c565b600060208284031215611e8057600080fd5b81516001600160401b0380821115611e9757600080fd5b9083019060a08286031215611eab57600080fd5b611eb3611619565b611ebd8684611b91565b8152611ecc8660408501611b91565b6020820152608083015182811115611ee357600080fd5b611eef87828601611d08565b60408301525095945050505050565b808201808211156100cd576100cd611de4565b8060005b6002811015611f34578151845260209384019390910190600101611f15565b50505050565b608081526000611f4d6080830186611c8b565b8281036020840152611f5f8186611a5c565b915050611f6f6040830184611f11565b949350505050565b602081526000611e2f6020830184611a5c565b60c081526000611f9d60c0830187611c8b565b611faa6020840187611a4d565b611fb76060840186611a4d565b82810360a0840152611c518185611a97565b600060208284031215611fdb57600080fd5b81518015158114611e2f57600080fd5b6000610120611ffa838a611a4d565b80604084015261200c81840189611c8b565b90508660608401526120216080840187611a4d565b61202e60c0840186611a4d565b8281036101008401526120418185611abd565b9998505050505050505050565b60c08152600061206160c0830187611c8b565b61206e6020840187611a4d565b82810360608401526120808186611a97565b915050611b886080830184611f1156fea2646970667358221220b651b79b82b648bab73db4a47593ee7a707b3ccc5420431f87b34920ae2dedde64736f6c63430008130033",
  "immutableReferences": {},
  "source": "// SPDX-License-Identifier: GPL-3.0\npragma solidity >=0.4.0 <0.9.0;\n\nimport \"../lib/alt_bn128.sol\";\nimport \"../PubParam.sol\";\n\nimport {PartialEquality as PE} from \"../ZKP/PartialEquality.sol\";\nimport {DiffGenEqual as DG} from \"../ZKP/DiffGenEqual.sol\";\nimport {Sigma as SG} from \"../ZKP/Sigma.sol\";\n\ncontract SoKba {\n  using alt_bn128 for uint256;\n  using alt_bn128 for alt_bn128.G1Point;\n\n  PubParam pp;\n  PE pe;\n  DG dg;\n  SG sg;\n\n  constructor (address _pp, address _pe, address _dg, address _sg) {\n    pp = PubParam(_pp);\n    pe = PE(_pe);\n    dg = DG(_dg);\n    sg = SG(_sg);\n  }\n\n  /// @param common (y,valy,T2,T3,Tmax,s)\n  /// @param pky pk of user B\n  /// @param tcomEy commitment of token info of E account of token y\n  /// @param ocomEx commitment of info to be opened at the time of spending the E account of token x\n  /// @param rBy commitment of R account of token y\n  struct Stm {\n    uint256[6] common;\n    alt_bn128.G1Point pky;\n    alt_bn128.G1Point tcomEy;\n    alt_bn128.G1Point ocomEx;\n    alt_bn128.G1Point rBy;\n  }\n\n  struct Sig {\n    PE.Sig pe_tcom_sig;\n    DG.Sig dg_sig;\n    SG.Sig sg_sig;\n    PE.Sig pe_R_sig;\n    DG.Sig dg_R_sig;\n  }\n\n  /// @dev sok L_{ba} sign by user B\n  /// @param wit (s, b1^, b2, b3, b4)\n  function sign(Stm memory stm, uint256[5] memory wit) public view returns (Sig memory sig) {\n    alt_bn128.G1Point[] memory Gs = pp.gs();\n    uint n = pp.n();\n    uint sk_pos = pp.sk_pos();\n\n    uint256[] memory com_attr = new uint256[](1);\n    com_attr[0] = wit[1]; // b1^\n    alt_bn128.G1Point[] memory uneq_gs = new alt_bn128.G1Point[](1);\n    uneq_gs[0] = Gs[sk_pos];\n\n    /// @dev 1. Part Equal signature (same y, valy, T2, T3)\n    sig.pe_tcom_sig = pe.sign(uneq_gs, com_attr, new uint256[](1));\n\n    com_attr = new uint256[](n);\n    for (uint i=0; i<4; i++) {\n      com_attr[i] = stm.common[i];\n    }\n    com_attr[4] = wit[1]; // b1^\n    /// @dev 2. Diff Gen Equal (pky vs tcomy)\n    sig.dg_sig = dg.sign(pp.g_pk(), Gs, sk_pos, com_attr);\n\n    com_attr = new uint256[](2);\n    com_attr[0] = wit[1] + wit[0]; // b1^ + s\n    com_attr[1] = wit[4];\n\n    uneq_gs = new alt_bn128.G1Point[](2);\n    uneq_gs[0] = Gs[sk_pos+1];\n    uneq_gs[1] = Gs[sk_pos+2];\n    /// @dev 3. SigmaSum (b1^ + s)\n    sig.sg_sig = sg.signSum(uneq_gs, com_attr, [wit[0], 0]);\n\n    uneq_gs = new alt_bn128.G1Point[](3);\n    for (uint i=0; i<3; i++) {\n      uneq_gs[i] = Gs[sk_pos+i];\n    }\n\n    // [b1, b2, b3]\n    com_attr = new uint256[](3);\n    for (uint i=0; i<3; i++) {\n      com_attr[i] = wit[1+i];\n    }\n    /// @dev 4. Part Equal signature (same y, valy, T3, Tmax)\n    sig.pe_R_sig = pe.sign(uneq_gs, com_attr, new uint256[](3));\n\n    // [y,valy,T3,Tmax,b1,b2;b3]\n    com_attr = new uint256[](n);\n    com_attr[0] = stm.common[0];\n    com_attr[1] = stm.common[1];\n    com_attr[2] = stm.common[3];\n    com_attr[3] = stm.common[4];\n    for (uint i=0; i<3; i++) {\n      com_attr[4+i] = wit[1+i];\n    }\n    /// @dev 5. Diff Gen Equal (pky vs R)\n    sig.dg_R_sig = dg.sign(pp.g_pk(), Gs, sk_pos, com_attr);\n  }\n\n  struct RTN {\n    bool b_pe_tcom;\n    bool b_dg;\n    bool b_sg;\n    bool b_pe_R;\n    bool b_dg_R;\n  }\n  \n  /// @dev sok L_{ba} verify by user A\n  function verify(Stm memory stm, Sig memory sig) public view returns (bool) {\n    RTN memory rtn = verify_(stm, sig);\n    return rtn.b_pe_tcom && rtn.b_dg && rtn.b_sg && rtn.b_pe_R && rtn.b_dg_R;\n  }\n\n  function verify_(Stm memory stm, Sig memory sig) private view returns (RTN memory rtn) {\n    alt_bn128.G1Point[] memory Gs = pp.gs();\n    uint n = pp.n();\n    uint sk_pos = pp.sk_pos();\n\n    uint256[] memory pe_y = new uint256[](n);\n    for (uint i=0; i<4; i++) {\n      pe_y[i] = stm.common[i];\n    }\n    alt_bn128.G1Point memory Cy = pp.tCom(pe_y);\n\n    alt_bn128.G1Point[] memory uneq_gs = new alt_bn128.G1Point[](1);\n    uneq_gs[0] = Gs[sk_pos];\n\n    /// @dev 1. Part Equal signature (same y, valy, T2, T3)\n    rtn.b_pe_tcom = pe.verify(uneq_gs, stm.tcomEy, Cy, sig.pe_tcom_sig);\n    require(rtn.b_pe_tcom, \"SoKba : Part Equal tcom failed\");\n\n    /// @dev 2. Diff Gen Equal (pky vs tcomy)\n    rtn.b_dg = dg.verify(pp.g_pk(), Gs, sk_pos, stm.pky, stm.tcomEy, sig.dg_sig);\n    require(rtn.b_dg, \"Diff Gen Equal tcom failed\");\n\n    uneq_gs = new alt_bn128.G1Point[](2);\n    uneq_gs[0] = Gs[sk_pos+1];\n    uneq_gs[1] = Gs[sk_pos+2];\n    /// @dev 3. SigmaSum (b1^ + s)\n    rtn.b_sg = sg.verifySum(uneq_gs, stm.ocomEx, sig.sg_sig, [stm.common[5], 0]); // [s, 0]\n    require(rtn.b_sg, \"SigmaSum does not pass\");\n\n    uneq_gs = new alt_bn128.G1Point[](3);\n    for (uint i=0; i<3; i++) {\n      uneq_gs[i] = Gs[sk_pos+i];\n    }\n\n    pe_y[2] = stm.common[3]; // T3\n    pe_y[3] = stm.common[4]; // Tmax\n    Cy = pp.tCom(pe_y);\n    /// @dev 4. Part Equal signature (same y, valy, T3, Tmax)\n    rtn.b_pe_R = pe.verify(uneq_gs, stm.rBy, Cy, sig.pe_R_sig);\n    require(rtn.b_pe_R, \"SoKba : Part Equal R failed\");\n\n    /// @dev 5. Diff Gen Equal (pky vs R)\n    rtn.b_dg_R = dg.verify(pp.g_pk(), Gs, sk_pos, stm.pky, stm.rBy, sig.dg_R_sig);\n    require(rtn.b_dg_R, \"SoKba: Diff Gen Equal R failed\");\n  }\n\n}\n",
  "sourcePath": "/Users/qian/Desktop/Y4/COMP4550/project/XCSwap/contracts/TX/SoKba.sol",
  "compiler": {
    "name": "solc",
    "version": "0.8.19+commit.7dd6d404.Emscripten.clang"
  },
  "schemaVersion": "3.4.13",
  "updatedAt": "2023-08-11T12:39:59.407Z",
  "devdoc": {
    "kind": "dev",
    "methods": {
      "sign((uint256[6],(uint256,uint256),(uint256,uint256),(uint256,uint256),(uint256,uint256)),uint256[5])": {
        "details": "sok L_{ba} sign by user B",
        "params": {
          "wit": "(s, b1^, b2, b3, b4)"
        }
      },
      "verify((uint256[6],(uint256,uint256),(uint256,uint256),(uint256,uint256),(uint256,uint256)),(((uint256,uint256),uint256[]),((uint256,uint256),(uint256,uint256),uint256[]),((uint256,uint256),uint256[]),((uint256,uint256),uint256[]),((uint256,uint256),(uint256,uint256),uint256[])))": {
        "details": "sok L_{ba} verify by user A"
      }
    },
    "version": 1
  },
  "userdoc": {
    "kind": "user",
    "methods": {},
    "version": 1
  }
}