{
  "contractName": "SoKdp",
  "abi": [
    {
      "inputs": [
        {
          "internalType": "address",
          "name": "pp_addr",
          "type": "address"
        },
        {
          "internalType": "address",
          "name": "pe_addr",
          "type": "address"
        }
      ],
      "stateMutability": "nonpayable",
      "type": "constructor"
    },
    {
      "inputs": [
        {
          "components": [
            {
              "components": [
                {
                  "components": [
                    {
                      "internalType": "uint256",
                      "name": "X",
                      "type": "uint256"
                    },
                    {
                      "internalType": "uint256",
                      "name": "Y",
                      "type": "uint256"
                    }
                  ],
                  "internalType": "struct alt_bn128.G1Point",
                  "name": "pk",
                  "type": "tuple"
                },
                {
                  "components": [
                    {
                      "internalType": "uint256",
                      "name": "X",
                      "type": "uint256"
                    },
                    {
                      "internalType": "uint256",
                      "name": "Y",
                      "type": "uint256"
                    }
                  ],
                  "internalType": "struct alt_bn128.G1Point",
                  "name": "tcom",
                  "type": "tuple"
                },
                {
                  "components": [
                    {
                      "internalType": "uint256",
                      "name": "X",
                      "type": "uint256"
                    },
                    {
                      "internalType": "uint256",
                      "name": "Y",
                      "type": "uint256"
                    }
                  ],
                  "internalType": "struct alt_bn128.G1Point",
                  "name": "ocom",
                  "type": "tuple"
                }
              ],
              "internalType": "struct PubParam.Acc",
              "name": "s",
              "type": "tuple"
            },
            {
              "internalType": "uint256[]",
              "name": "attrS",
              "type": "uint256[]"
            }
          ],
          "internalType": "struct SoKdp.TX",
          "name": "tx_dp",
          "type": "tuple"
        },
        {
          "internalType": "uint256[3]",
          "name": "wit",
          "type": "uint256[3]"
        }
      ],
      "name": "sign",
      "outputs": [
        {
          "components": [
            {
              "components": [
                {
                  "components": [
                    {
                      "internalType": "uint256",
                      "name": "X",
                      "type": "uint256"
                    },
                    {
                      "internalType": "uint256",
                      "name": "Y",
                      "type": "uint256"
                    }
                  ],
                  "internalType": "struct alt_bn128.G1Point",
                  "name": "c",
                  "type": "tuple"
                },
                {
                  "internalType": "uint256[]",
                  "name": "zs",
                  "type": "uint256[]"
                }
              ],
              "internalType": "struct PartialEquality.Sig",
              "name": "pe_sig",
              "type": "tuple"
            }
          ],
          "internalType": "struct SoKdp.Sig",
          "name": "sig",
          "type": "tuple"
        }
      ],
      "stateMutability": "view",
      "type": "function",
      "constant": true
    },
    {
      "inputs": [
        {
          "components": [
            {
              "components": [
                {
                  "components": [
                    {
                      "internalType": "uint256",
                      "name": "X",
                      "type": "uint256"
                    },
                    {
                      "internalType": "uint256",
                      "name": "Y",
                      "type": "uint256"
                    }
                  ],
                  "internalType": "struct alt_bn128.G1Point",
                  "name": "pk",
                  "type": "tuple"
                },
                {
                  "components": [
                    {
                      "internalType": "uint256",
                      "name": "X",
                      "type": "uint256"
                    },
                    {
                      "internalType": "uint256",
                      "name": "Y",
                      "type": "uint256"
                    }
                  ],
                  "internalType": "struct alt_bn128.G1Point",
                  "name": "tcom",
                  "type": "tuple"
                },
                {
                  "components": [
                    {
                      "internalType": "uint256",
                      "name": "X",
                      "type": "uint256"
                    },
                    {
                      "internalType": "uint256",
                      "name": "Y",
                      "type": "uint256"
                    }
                  ],
                  "internalType": "struct alt_bn128.G1Point",
                  "name": "ocom",
                  "type": "tuple"
                }
              ],
              "internalType": "struct PubParam.Acc",
              "name": "s",
              "type": "tuple"
            },
            {
              "internalType": "uint256[]",
              "name": "attrS",
              "type": "uint256[]"
            }
          ],
          "internalType": "struct SoKdp.TX",
          "name": "tx_dp",
          "type": "tuple"
        },
        {
          "components": [
            {
              "components": [
                {
                  "components": [
                    {
                      "internalType": "uint256",
                      "name": "X",
                      "type": "uint256"
                    },
                    {
                      "internalType": "uint256",
                      "name": "Y",
                      "type": "uint256"
                    }
                  ],
                  "internalType": "struct alt_bn128.G1Point",
                  "name": "c",
                  "type": "tuple"
                },
                {
                  "internalType": "uint256[]",
                  "name": "zs",
                  "type": "uint256[]"
                }
              ],
              "internalType": "struct PartialEquality.Sig",
              "name": "pe_sig",
              "type": "tuple"
            }
          ],
          "internalType": "struct SoKdp.Sig",
          "name": "sig",
          "type": "tuple"
        }
      ],
      "name": "verify",
      "outputs": [
        {
          "internalType": "bool",
          "name": "",
          "type": "bool"
        }
      ],
      "stateMutability": "view",
      "type": "function",
      "constant": true
    }
  ],
  "bytecode": "0x608060405234801561001057600080fd5b506040516110c63803806110c683398101604081905261002f9161007c565b600080546001600160a01b039384166001600160a01b031991821617909155600180549290931691161790556100af565b80516001600160a01b038116811461007757600080fd5b919050565b6000806040838503121561008f57600080fd5b61009883610060565b91506100a660208401610060565b90509250929050565b611008806100be6000396000f3fe608060405234801561001057600080fd5b50600436106100365760003560e01c80633479fb7a1461003b578063a72365d814610063575b600080fd5b61004e610049366004610a52565b610083565b60405190151581526020015b60405180910390f35b610076610071366004610b25565b610431565b60405161005a9190610c10565b81516040810151602090910151600091829161009e9161078f565b905060008060009054906101000a90046001600160a01b03166001600160a01b0316632e52d6066040518163ffffffff1660e01b8152600401602060405180830381865afa1580156100f4573d6000803e3d6000fd5b505050506040513d601f19601f820116820180604052508101906101189190610c33565b6001600160401b0381111561012f5761012f61084b565b604051908082528060200260200182016040528015610158578160200160208202803683370190505b50905060005b8560200151518110156101b8578560200151818151811061018157610181610c4c565b602002602001015182828151811061019b5761019b610c4c565b6020908102919091010152806101b081610c78565b91505061015e565b50600080546040516338e0cdcb60e11b81526001600160a01b03909116906371c19b96906101ea908590600401610ccc565b6040805180830381865afa158015610206573d6000803e3d6000fd5b505050506040513d601f19601f8201168201806040525081019061022a9190610d16565b9050600086602001515160008054906101000a90046001600160a01b03166001600160a01b0316632e52d6066040518163ffffffff1660e01b8152600401602060405180830381865afa158015610285573d6000803e3d6000fd5b505050506040513d601f19601f820116820180604052508101906102a99190610c33565b6102b39190610d32565b6001600160401b038111156102ca576102ca61084b565b6040519080825280602002602001820160405280156102f3578160200160208202803683370190505b50905060005b8151811015610341576020880151516103129082610d45565b82828151811061032457610324610c4c565b60209081029190910101528061033981610c78565b9150506102f9565b50600154600080546040805162e71aaf60e01b815290516001600160a01b0394851694633ef87f269493169262e71aaf92600480820193918290030181865afa158015610392573d6000803e3d6000fd5b505050506040513d6000823e601f3d908101601f191682016040526103ba9190810190610d58565b88516040516001600160e01b031960e085901b1681526103e3929186918a918991600401610e2d565b602060405180830381865afa158015610400573d6000803e3d6000fd5b505050506040513d601f19601f820116820180604052508101906104249190610e8c565b9450505050505b92915050565b6104396107db565b60008060009054906101000a90046001600160a01b03166001600160a01b0316632e52d6066040518163ffffffff1660e01b8152600401602060405180830381865afa15801561048d573d6000803e3d6000fd5b505050506040513d601f19601f820116820180604052508101906104b19190610c33565b90506000816001600160401b038111156104cd576104cd61084b565b6040519080825280602002602001820160405280156104f6578160200160208202803683370190505b5090506000826001600160401b038111156105135761051361084b565b60405190808252806020026020018201604052801561053c578160200160208202803683370190505b5060408051600380825260808201909252919250600091906020820160608036833701905050905060005b8760200151518110156105fd578760200151818151811061058a5761058a610c4c565b60200260200101518482815181106105a4576105a4610c4c565b602002602001018181525050876020015181815181106105c6576105c6610c4c565b60200260200101518382815181106105e0576105e0610c4c565b6020908102919091010152806105f581610c78565b915050610567565b5060005b600381101561068f5786816003811061061c5761061c610c4c565b602002015184896020015151836106339190610d45565b8151811061064357610643610c4c565b602002602001018181525050876020015151816106609190610d45565b82828151811061067257610672610c4c565b60209081029190910101528061068781610c78565b915050610601565b50600154600080546040805162e71aaf60e01b8152905192936001600160a01b03908116936319d54992939091169162e71aaf91600480830192889291908290030181865afa1580156106e6573d6000803e3d6000fd5b505050506040513d6000823e601f3d908101601f1916820160405261070e9190810190610d58565b8686866040518563ffffffff1660e01b81526004016107309493929190610eae565b600060405180830381865afa15801561074d573d6000803e3d6000fd5b505050506040513d6000823e601f3d908101601f191682016040526107759190810190610efb565b604080516020810190915290815298975050505050505050565b6107976107f3565b61079f61080d565b83518152602080850151818301528351604080840191909152908401516060830152826080836006600019fa6107d457600080fd5b5092915050565b60405180602001604052806107ee61082b565b905290565b604051806040016040528060008152602001600081525090565b60405180608001604052806004906020820280368337509192915050565b604051806040016040528061083e6107f3565b8152602001606081525090565b634e487b7160e01b600052604160045260246000fd5b604080519081016001600160401b03811182821017156108835761088361084b565b60405290565b604051606081016001600160401b03811182821017156108835761088361084b565b604051602081016001600160401b03811182821017156108835761088361084b565b604051601f8201601f191681016001600160401b03811182821017156108f5576108f561084b565b604052919050565b60006040828403121561090f57600080fd5b610917610861565b9050813581526020820135602082015292915050565b60006001600160401b038211156109465761094661084b565b5060051b60200190565b600082601f83011261096157600080fd5b813560206109766109718361092d565b6108cd565b82815260059290921b8401810191818101908684111561099557600080fd5b8286015b848110156109b05780358352918301918301610999565b509695505050505050565b600081830360e08112156109ce57600080fd5b6109d6610861565b915060c08112156109e657600080fd5b506109ef610889565b6109f984846108fd565b8152610a0884604085016108fd565b6020820152610a1a84608085016108fd565b6040820152815260c08201356001600160401b03811115610a3a57600080fd5b610a4684828501610950565b60208301525092915050565b60008060408385031215610a6557600080fd5b82356001600160401b0380821115610a7c57600080fd5b610a88868387016109bb565b93506020850135915080821115610a9e57600080fd5b9084019060208287031215610ab257600080fd5b610aba6108ab565b823582811115610ac957600080fd5b929092019160608388031215610ade57600080fd5b610ae6610861565b610af088856108fd565b8152604084013583811115610b0457600080fd5b610b1089828701610950565b60208301525081529396939550929350505050565b60008060808385031215610b3857600080fd5b82356001600160401b03811115610b4e57600080fd5b610b5a858286016109bb565b925050602084603f850112610b6e57600080fd5b610b76610889565b806080860187811115610b8857600080fd5b8387015b81811015610ba35780358452928401928401610b8c565b509497909650945050505050565b80518252602090810151910152565b600060608301610bd1848451610bb1565b6020838101516060604087015280519283905281019160009060808701905b808310156109b05784518252938301936001929092019190830190610bf0565b6020815260008251602080840152610c2b6040840182610bc0565b949350505050565b600060208284031215610c4557600080fd5b5051919050565b634e487b7160e01b600052603260045260246000fd5b634e487b7160e01b600052601160045260246000fd5b600060018201610c8a57610c8a610c62565b5060010190565b600081518084526020808501945080840160005b83811015610cc157815187529582019590820190600101610ca5565b509495945050505050565b602081526000610cdf6020830184610c91565b9392505050565b600060408284031215610cf857600080fd5b610d00610861565b9050815181526020820151602082015292915050565b600060408284031215610d2857600080fd5b610cdf8383610ce6565b8181038181111561042b5761042b610c62565b8082018082111561042b5761042b610c62565b60006020808385031215610d6b57600080fd5b82516001600160401b03811115610d8157600080fd5b8301601f81018513610d9257600080fd5b8051610da06109718261092d565b81815260069190911b82018301908381019087831115610dbf57600080fd5b928401925b82841015610de857610dd68885610ce6565b82528482019150604084019350610dc4565b979650505050505050565b600081518084526020808501945080840160005b83811015610cc157610e1a878351610bb1565b6040969096019590820190600101610e07565b60e081526000610e4060e0830188610df3565b8281036020840152610e528188610c91565b9050610e616040840187610bb1565b610e6e6080840186610bb1565b82810360c0840152610e808185610bc0565b98975050505050505050565b600060208284031215610e9e57600080fd5b81518015158114610cdf57600080fd5b608081526000610ec16080830187610df3565b8281036020840152610ed38187610c91565b90508281036040840152610ee78186610c91565b90508281036060840152610de88185610c91565b60006020808385031215610f0e57600080fd5b82516001600160401b0380821115610f2557600080fd5b9084019060608287031215610f3957600080fd5b610f41610861565b610f4b8784610ce6565b8152604083015182811115610f5f57600080fd5b80840193505086601f840112610f7457600080fd5b82519150610f846109718361092d565b82815260059290921b83018401918481019088841115610fa357600080fd5b938501935b83851015610fc157845182529385019390850190610fa8565b94820194909452969550505050505056fea264697066735822122086375da99a7d828f18a48f9fc3c37ce9e38bd5624e6b1722052bfa3dbaf970ae64736f6c63430008130033",
  "immutableReferences": {},
  "source": "// SPDX-License-Identifier: GPL-3.0\npragma solidity >=0.4.0 <0.9.0;\n\nimport \"../lib/alt_bn128.sol\";\nimport \"../PubParam.sol\";\n\nimport {PartialEquality as PE} from \"../ZKP/PartialEquality.sol\";\n\ncontract SoKdp {\n  using alt_bn128 for uint256;\n  using alt_bn128 for alt_bn128.G1Point;\n\n  PubParam pp;\n  PE pe;\n\n  constructor (address pp_addr, address pe_addr) {\n    pp = PubParam(pp_addr);\n    pe = PE(pe_addr);\n  }\n\n  /// @param s (pk, tcom, ocom)\n  /// @param attrS (ty, val, t_beg, t_end)\n  struct TX {\n    PubParam.Acc s;\n    uint256[] attrS;\n  }\n\n  struct Sig {\n    PE.Sig pe_sig;\n  }\n\n  /// @dev sok L_{dp} sign\n  /// @param tx_dp deposit transaction statement\n  /// @param wit witness (sk, opn, ok)\n  /// @return sig deposit signature\n  function sign(TX memory tx_dp, uint256[3] memory wit) public view returns (Sig memory sig) {\n    uint n = pp.n();\n\n    uint256[] memory x = new uint256[](n);\n    uint256[] memory y = new uint256[](n);\n    uint256[] memory ine = new uint256[](wit.length); // [4,5,6]\n\n    for (uint i = 0; i < tx_dp.attrS.length; i++){\n      x[i] = tx_dp.attrS[i];\n      y[i] = tx_dp.attrS[i];\n    }\n\n    for (uint i = 0; i < wit.length; i++) {\n      x[i+tx_dp.attrS.length] = wit[i];\n      ine[i] = i + tx_dp.attrS.length;\n    }\n\n    PE.Sig memory pe_sig = pe.sign(pp.gs(), x, y, ine);\n\n    sig = Sig({\n      pe_sig : pe_sig\n    });\n  }\n\n  /// @param tx_dp deposit transaction statement\n  /// @param sig deposit signature\n  function verify(TX memory tx_dp, Sig memory sig) public view returns (bool) {\n    alt_bn128.G1Point memory Cx = tx_dp.s.tcom.add(tx_dp.s.ocom);\n\n    uint256[] memory y = new uint256[](pp.n());\n    for (uint i = 0; i < tx_dp.attrS.length; i++) {\n      y[i] = tx_dp.attrS[i];\n    }\n    alt_bn128.G1Point memory Cy = pp.Com(y);\n\n    uint256[] memory ine = new uint256[](pp.n() - tx_dp.attrS.length);\n    for (uint i = 0; i < ine.length; i++) {\n      ine[i] = i+tx_dp.attrS.length; // [4,5,6]\n    }\n\n    return pe.verify(pp.gs(), ine, Cx, Cy, sig.pe_sig);\n  }\n\n}",
  "sourcePath": "/Users/qian/Desktop/Y4/COMP4550/project/XCSwap/contracts/TX/SoKdp.sol",
  "compiler": {
    "name": "solc",
    "version": "0.8.19+commit.7dd6d404.Emscripten.clang"
  },
  "schemaVersion": "3.4.13",
  "updatedAt": "2023-08-19T19:16:54.638Z",
  "networkType": "ethereum",
  "devdoc": {
    "kind": "dev",
    "methods": {
      "sign((((uint256,uint256),(uint256,uint256),(uint256,uint256)),uint256[]),uint256[3])": {
        "details": "sok L_{dp} sign",
        "params": {
          "tx_dp": "deposit transaction statement",
          "wit": "witness (sk, opn, ok)"
        },
        "returns": {
          "sig": "deposit signature"
        }
      },
      "verify((((uint256,uint256),(uint256,uint256),(uint256,uint256)),uint256[]),(((uint256,uint256),uint256[])))": {
        "params": {
          "sig": "deposit signature",
          "tx_dp": "deposit transaction statement"
        }
      }
    },
    "version": 1
  },
  "userdoc": {
    "kind": "user",
    "methods": {},
    "version": 1
  }
}