{
  "contractName": "SoKsp",
  "abi": [
    {
      "inputs": [
        {
          "internalType": "address",
          "name": "pp_addr",
          "type": "address"
        },
        {
          "internalType": "address",
          "name": "pe_addr",
          "type": "address"
        },
        {
          "internalType": "address",
          "name": "dr_addr",
          "type": "address"
        },
        {
          "internalType": "address",
          "name": "dg_addr",
          "type": "address"
        },
        {
          "internalType": "address",
          "name": "om_addr",
          "type": "address"
        }
      ],
      "stateMutability": "nonpayable",
      "type": "constructor"
    },
    {
      "inputs": [
        {
          "components": [
            {
              "components": [
                {
                  "internalType": "uint256",
                  "name": "X",
                  "type": "uint256"
                },
                {
                  "internalType": "uint256",
                  "name": "Y",
                  "type": "uint256"
                }
              ],
              "internalType": "struct alt_bn128.G1Point[]",
              "name": "R",
              "type": "tuple[]"
            },
            {
              "components": [
                {
                  "internalType": "uint256",
                  "name": "X",
                  "type": "uint256"
                },
                {
                  "internalType": "uint256",
                  "name": "Y",
                  "type": "uint256"
                }
              ],
              "internalType": "struct alt_bn128.G1Point[]",
              "name": "gs",
              "type": "tuple[]"
            },
            {
              "components": [
                {
                  "internalType": "uint256",
                  "name": "X",
                  "type": "uint256"
                },
                {
                  "internalType": "uint256",
                  "name": "Y",
                  "type": "uint256"
                }
              ],
              "internalType": "struct alt_bn128.G1Point",
              "name": "tagS",
              "type": "tuple"
            },
            {
              "internalType": "uint256[3]",
              "name": "attrS",
              "type": "uint256[3]"
            },
            {
              "components": [
                {
                  "internalType": "uint256",
                  "name": "X",
                  "type": "uint256"
                },
                {
                  "internalType": "uint256",
                  "name": "Y",
                  "type": "uint256"
                }
              ],
              "internalType": "struct alt_bn128.G1Point",
              "name": "pk_T",
              "type": "tuple"
            },
            {
              "components": [
                {
                  "internalType": "uint256",
                  "name": "X",
                  "type": "uint256"
                },
                {
                  "internalType": "uint256",
                  "name": "Y",
                  "type": "uint256"
                }
              ],
              "internalType": "struct alt_bn128.G1Point[]",
              "name": "tcom_T",
              "type": "tuple[]"
            },
            {
              "components": [
                {
                  "internalType": "uint256",
                  "name": "X",
                  "type": "uint256"
                },
                {
                  "internalType": "uint256",
                  "name": "Y",
                  "type": "uint256"
                }
              ],
              "internalType": "struct alt_bn128.G1Point[]",
              "name": "ocom_T",
              "type": "tuple[]"
            }
          ],
          "internalType": "struct SoKsp.TX",
          "name": "tx_sp",
          "type": "tuple"
        },
        {
          "components": [
            {
              "internalType": "uint256",
              "name": "theta",
              "type": "uint256"
            },
            {
              "internalType": "uint256[]",
              "name": "attrS",
              "type": "uint256[]"
            },
            {
              "internalType": "uint256",
              "name": "sk_T",
              "type": "uint256"
            },
            {
              "internalType": "uint256[4][]",
              "name": "attrTs",
              "type": "uint256[4][]"
            }
          ],
          "internalType": "struct SoKsp.Wit",
          "name": "wit",
          "type": "tuple"
        }
      ],
      "name": "sign",
      "outputs": [
        {
          "components": [
            {
              "components": [
                {
                  "internalType": "uint256",
                  "name": "X",
                  "type": "uint256"
                },
                {
                  "internalType": "uint256",
                  "name": "Y",
                  "type": "uint256"
                }
              ],
              "internalType": "struct alt_bn128.G1Point",
              "name": "acc_d",
              "type": "tuple"
            },
            {
              "components": [
                {
                  "components": [
                    {
                      "internalType": "uint256",
                      "name": "X",
                      "type": "uint256"
                    },
                    {
                      "internalType": "uint256",
                      "name": "Y",
                      "type": "uint256"
                    }
                  ],
                  "internalType": "struct alt_bn128.G1Point",
                  "name": "cv",
                  "type": "tuple"
                },
                {
                  "components": [
                    {
                      "internalType": "uint256",
                      "name": "X",
                      "type": "uint256"
                    },
                    {
                      "internalType": "uint256",
                      "name": "Y",
                      "type": "uint256"
                    }
                  ],
                  "internalType": "struct alt_bn128.G1Point",
                  "name": "ct",
                  "type": "tuple"
                },
                {
                  "components": [
                    {
                      "internalType": "uint256",
                      "name": "X",
                      "type": "uint256"
                    },
                    {
                      "internalType": "uint256",
                      "name": "Y",
                      "type": "uint256"
                    }
                  ],
                  "internalType": "struct alt_bn128.G1Point[]",
                  "name": "cds",
                  "type": "tuple[]"
                },
                {
                  "internalType": "uint256[]",
                  "name": "fs",
                  "type": "uint256[]"
                },
                {
                  "internalType": "uint256",
                  "name": "u",
                  "type": "uint256"
                },
                {
                  "internalType": "uint256",
                  "name": "s",
                  "type": "uint256"
                }
              ],
              "internalType": "struct OneofMany.Sig",
              "name": "om_sig",
              "type": "tuple"
            },
            {
              "components": [
                {
                  "components": [
                    {
                      "internalType": "uint256",
                      "name": "X",
                      "type": "uint256"
                    },
                    {
                      "internalType": "uint256",
                      "name": "Y",
                      "type": "uint256"
                    }
                  ],
                  "internalType": "struct alt_bn128.G1Point",
                  "name": "cx",
                  "type": "tuple"
                },
                {
                  "components": [
                    {
                      "internalType": "uint256",
                      "name": "X",
                      "type": "uint256"
                    },
                    {
                      "internalType": "uint256",
                      "name": "Y",
                      "type": "uint256"
                    }
                  ],
                  "internalType": "struct alt_bn128.G1Point",
                  "name": "cy",
                  "type": "tuple"
                },
                {
                  "internalType": "uint256[]",
                  "name": "zs",
                  "type": "uint256[]"
                }
              ],
              "internalType": "struct DiffGenEqual.Sig",
              "name": "dg_tag_sig",
              "type": "tuple"
            },
            {
              "components": [
                {
                  "components": [
                    {
                      "internalType": "uint256",
                      "name": "X",
                      "type": "uint256"
                    },
                    {
                      "internalType": "uint256",
                      "name": "Y",
                      "type": "uint256"
                    }
                  ],
                  "internalType": "struct alt_bn128.G1Point",
                  "name": "c",
                  "type": "tuple"
                },
                {
                  "internalType": "uint256[]",
                  "name": "zs",
                  "type": "uint256[]"
                }
              ],
              "internalType": "struct PartialEquality.Sig",
              "name": "pe_opn_sig",
              "type": "tuple"
            },
            {
              "components": [
                {
                  "components": [
                    {
                      "internalType": "uint256",
                      "name": "X",
                      "type": "uint256"
                    },
                    {
                      "internalType": "uint256",
                      "name": "Y",
                      "type": "uint256"
                    }
                  ],
                  "internalType": "struct alt_bn128.G1Point",
                  "name": "c",
                  "type": "tuple"
                },
                {
                  "internalType": "uint256[]",
                  "name": "zs",
                  "type": "uint256[]"
                }
              ],
              "internalType": "struct PartialEquality.Sig[]",
              "name": "pe_ty_sig",
              "type": "tuple[]"
            },
            {
              "components": [
                {
                  "components": [
                    {
                      "internalType": "uint256",
                      "name": "X",
                      "type": "uint256"
                    },
                    {
                      "internalType": "uint256",
                      "name": "Y",
                      "type": "uint256"
                    }
                  ],
                  "internalType": "struct alt_bn128.G1Point",
                  "name": "cx",
                  "type": "tuple"
                },
                {
                  "components": [
                    {
                      "internalType": "uint256",
                      "name": "X",
                      "type": "uint256"
                    },
                    {
                      "internalType": "uint256",
                      "name": "Y",
                      "type": "uint256"
                    }
                  ],
                  "internalType": "struct alt_bn128.G1Point",
                  "name": "cy",
                  "type": "tuple"
                },
                {
                  "internalType": "uint256[]",
                  "name": "zs",
                  "type": "uint256[]"
                }
              ],
              "internalType": "struct DiffGenEqual.Sig[]",
              "name": "dg_sk_sig",
              "type": "tuple[]"
            }
          ],
          "internalType": "struct SoKsp.Sig",
          "name": "sig",
          "type": "tuple"
        }
      ],
      "stateMutability": "view",
      "type": "function",
      "constant": true
    },
    {
      "inputs": [
        {
          "components": [
            {
              "components": [
                {
                  "internalType": "uint256",
                  "name": "X",
                  "type": "uint256"
                },
                {
                  "internalType": "uint256",
                  "name": "Y",
                  "type": "uint256"
                }
              ],
              "internalType": "struct alt_bn128.G1Point[]",
              "name": "R",
              "type": "tuple[]"
            },
            {
              "components": [
                {
                  "internalType": "uint256",
                  "name": "X",
                  "type": "uint256"
                },
                {
                  "internalType": "uint256",
                  "name": "Y",
                  "type": "uint256"
                }
              ],
              "internalType": "struct alt_bn128.G1Point[]",
              "name": "gs",
              "type": "tuple[]"
            },
            {
              "components": [
                {
                  "internalType": "uint256",
                  "name": "X",
                  "type": "uint256"
                },
                {
                  "internalType": "uint256",
                  "name": "Y",
                  "type": "uint256"
                }
              ],
              "internalType": "struct alt_bn128.G1Point",
              "name": "tagS",
              "type": "tuple"
            },
            {
              "internalType": "uint256[3]",
              "name": "attrS",
              "type": "uint256[3]"
            },
            {
              "components": [
                {
                  "internalType": "uint256",
                  "name": "X",
                  "type": "uint256"
                },
                {
                  "internalType": "uint256",
                  "name": "Y",
                  "type": "uint256"
                }
              ],
              "internalType": "struct alt_bn128.G1Point",
              "name": "pk_T",
              "type": "tuple"
            },
            {
              "components": [
                {
                  "internalType": "uint256",
                  "name": "X",
                  "type": "uint256"
                },
                {
                  "internalType": "uint256",
                  "name": "Y",
                  "type": "uint256"
                }
              ],
              "internalType": "struct alt_bn128.G1Point[]",
              "name": "tcom_T",
              "type": "tuple[]"
            },
            {
              "components": [
                {
                  "internalType": "uint256",
                  "name": "X",
                  "type": "uint256"
                },
                {
                  "internalType": "uint256",
                  "name": "Y",
                  "type": "uint256"
                }
              ],
              "internalType": "struct alt_bn128.G1Point[]",
              "name": "ocom_T",
              "type": "tuple[]"
            }
          ],
          "internalType": "struct SoKsp.TX",
          "name": "tx_sp",
          "type": "tuple"
        },
        {
          "components": [
            {
              "components": [
                {
                  "internalType": "uint256",
                  "name": "X",
                  "type": "uint256"
                },
                {
                  "internalType": "uint256",
                  "name": "Y",
                  "type": "uint256"
                }
              ],
              "internalType": "struct alt_bn128.G1Point",
              "name": "acc_d",
              "type": "tuple"
            },
            {
              "components": [
                {
                  "components": [
                    {
                      "internalType": "uint256",
                      "name": "X",
                      "type": "uint256"
                    },
                    {
                      "internalType": "uint256",
                      "name": "Y",
                      "type": "uint256"
                    }
                  ],
                  "internalType": "struct alt_bn128.G1Point",
                  "name": "cv",
                  "type": "tuple"
                },
                {
                  "components": [
                    {
                      "internalType": "uint256",
                      "name": "X",
                      "type": "uint256"
                    },
                    {
                      "internalType": "uint256",
                      "name": "Y",
                      "type": "uint256"
                    }
                  ],
                  "internalType": "struct alt_bn128.G1Point",
                  "name": "ct",
                  "type": "tuple"
                },
                {
                  "components": [
                    {
                      "internalType": "uint256",
                      "name": "X",
                      "type": "uint256"
                    },
                    {
                      "internalType": "uint256",
                      "name": "Y",
                      "type": "uint256"
                    }
                  ],
                  "internalType": "struct alt_bn128.G1Point[]",
                  "name": "cds",
                  "type": "tuple[]"
                },
                {
                  "internalType": "uint256[]",
                  "name": "fs",
                  "type": "uint256[]"
                },
                {
                  "internalType": "uint256",
                  "name": "u",
                  "type": "uint256"
                },
                {
                  "internalType": "uint256",
                  "name": "s",
                  "type": "uint256"
                }
              ],
              "internalType": "struct OneofMany.Sig",
              "name": "om_sig",
              "type": "tuple"
            },
            {
              "components": [
                {
                  "components": [
                    {
                      "internalType": "uint256",
                      "name": "X",
                      "type": "uint256"
                    },
                    {
                      "internalType": "uint256",
                      "name": "Y",
                      "type": "uint256"
                    }
                  ],
                  "internalType": "struct alt_bn128.G1Point",
                  "name": "cx",
                  "type": "tuple"
                },
                {
                  "components": [
                    {
                      "internalType": "uint256",
                      "name": "X",
                      "type": "uint256"
                    },
                    {
                      "internalType": "uint256",
                      "name": "Y",
                      "type": "uint256"
                    }
                  ],
                  "internalType": "struct alt_bn128.G1Point",
                  "name": "cy",
                  "type": "tuple"
                },
                {
                  "internalType": "uint256[]",
                  "name": "zs",
                  "type": "uint256[]"
                }
              ],
              "internalType": "struct DiffGenEqual.Sig",
              "name": "dg_tag_sig",
              "type": "tuple"
            },
            {
              "components": [
                {
                  "components": [
                    {
                      "internalType": "uint256",
                      "name": "X",
                      "type": "uint256"
                    },
                    {
                      "internalType": "uint256",
                      "name": "Y",
                      "type": "uint256"
                    }
                  ],
                  "internalType": "struct alt_bn128.G1Point",
                  "name": "c",
                  "type": "tuple"
                },
                {
                  "internalType": "uint256[]",
                  "name": "zs",
                  "type": "uint256[]"
                }
              ],
              "internalType": "struct PartialEquality.Sig",
              "name": "pe_opn_sig",
              "type": "tuple"
            },
            {
              "components": [
                {
                  "components": [
                    {
                      "internalType": "uint256",
                      "name": "X",
                      "type": "uint256"
                    },
                    {
                      "internalType": "uint256",
                      "name": "Y",
                      "type": "uint256"
                    }
                  ],
                  "internalType": "struct alt_bn128.G1Point",
                  "name": "c",
                  "type": "tuple"
                },
                {
                  "internalType": "uint256[]",
                  "name": "zs",
                  "type": "uint256[]"
                }
              ],
              "internalType": "struct PartialEquality.Sig[]",
              "name": "pe_ty_sig",
              "type": "tuple[]"
            },
            {
              "components": [
                {
                  "components": [
                    {
                      "internalType": "uint256",
                      "name": "X",
                      "type": "uint256"
                    },
                    {
                      "internalType": "uint256",
                      "name": "Y",
                      "type": "uint256"
                    }
                  ],
                  "internalType": "struct alt_bn128.G1Point",
                  "name": "cx",
                  "type": "tuple"
                },
                {
                  "components": [
                    {
                      "internalType": "uint256",
                      "name": "X",
                      "type": "uint256"
                    },
                    {
                      "internalType": "uint256",
                      "name": "Y",
                      "type": "uint256"
                    }
                  ],
                  "internalType": "struct alt_bn128.G1Point",
                  "name": "cy",
                  "type": "tuple"
                },
                {
                  "internalType": "uint256[]",
                  "name": "zs",
                  "type": "uint256[]"
                }
              ],
              "internalType": "struct DiffGenEqual.Sig[]",
              "name": "dg_sk_sig",
              "type": "tuple[]"
            }
          ],
          "internalType": "struct SoKsp.Sig",
          "name": "sig",
          "type": "tuple"
        }
      ],
      "name": "verify",
      "outputs": [
        {
          "internalType": "bool",
          "name": "",
          "type": "bool"
        }
      ],
      "stateMutability": "view",
      "type": "function",
      "constant": true
    }
  ],
  "bytecode": "0x60806040523480156200001157600080fd5b506040516200328038038062003280833981016040819052620000349162000114565b600080546001600160a01b038088166001600160a01b031992831681179093556001805488831690841617905560028054878316908416179055600380548683169084161790556004805491851691909216178155604080516317296b0360e11b81529051632e52d606928281019260209291908290030181865afa158015620000c2573d6000803e3d6000fd5b505050506040513d601f19601f82011682018060405250810190620000e8919062000184565b600555506200019e9350505050565b80516001600160a01b03811681146200010f57600080fd5b919050565b600080600080600060a086880312156200012d57600080fd5b6200013886620000f7565b94506200014860208701620000f7565b93506200015860408701620000f7565b92506200016860608701620000f7565b91506200017860808701620000f7565b90509295509295909350565b6000602082840312156200019757600080fd5b5051919050565b6130d280620001ae6000396000f3fe608060405234801561001057600080fd5b50600436106100365760003560e01c8063093c39c41461003b578063de2692ad14610064575b600080fd5b61004e610049366004612233565b610087565b60405161005b919061251c565b60405180910390f35b61007761007236600461286e565b610f24565b604051901515815260200161005b565b61008f611d95565b60008060009054906101000a90046001600160a01b03166001600160a01b031662e71aaf6040518163ffffffff1660e01b8152600401600060405180830381865afa1580156100e2573d6000803e3d6000fd5b505050506040513d6000823e601f3d908101601f1916820160405261010a9190810190612a37565b905060006005546001600160401b0381111561012857610128611e99565b604051908082528060200260200182016040528015610151578160200160208202803683370190505b50905060005b600580546101659190612a81565b8110156101b9578460200151818151811061018257610182612a94565b602002602001015182828151811061019c5761019c612a94565b6020908102919091010152806101b181612aaa565b915050610157565b506060850151602001516005805483916101d291612a81565b815181106101e2576101e2612a94565b6020908102919091010152606085015160400151600554829061020790600490612a81565b8151811061021757610217612a94565b6020026020010181815250508360200151600580546102369190612a81565b8151811061024657610246612a94565b602002602001015181600360055461025e9190612a81565b8151811061026e5761026e612a94565b6020908102919091010152606085015151600554829061029090600290612a81565b815181106102a0576102a0612a94565b60200260200101818152505073__alt_bn128_____________________________635ec01e4d6040518163ffffffff1660e01b8152600401602060405180830381865af41580156102f5573d6000803e3d6000fd5b505050506040513d601f19601f820116820180604052508101906103199190612ac3565b8160016005546103299190612a81565b8151811061033957610339612a94565b6020908102919091010152600080546040516338e0cdcb60e11b81526001600160a01b03909116906371c19b9690610375908590600401612adc565b6040805180830381865afa158015610391573d6000803e3d6000fd5b505050506040513d601f19601f820116820180604052508101906103b59190612aef565b808552905060005b86515181101561042f576103fd6103d383610fd1565b88518051849081106103e7576103e7612a94565b602002602001015161105590919063ffffffff16565b875180518390811061041157610411612a94565b6020026020010181905250808061042790612aaa565b9150506103bd565b506004805460208801518851600080546040805163eef6a68160e01b8152815193976001600160a01b03978816976329db819197969594169363eef6a68193838301939092908290030181865afa15801561048e573d6000803e3d6000fd5b505050506040513d601f19601f820116820180604052508101906104b29190612aef565b6040518463ffffffff1660e01b81526004016104d093929190612b45565b600060405180830381865afa1580156104ed573d6000803e3d6000fd5b505050506040513d6000823e601f3d908101601f191682016040526105159190810190612b82565b90506000604051806040016040528061057c8660016005546105379190612a81565b8151811061054757610547612a94565b60200260200101518a6020015160038151811061056657610566612a94565b60200260200101516110a190919063ffffffff16565b8152885160209091015260048054604051634350525160e11b81529293506001600160a01b0316916386a0a4a2916105b8918691869101612c6f565b600060405180830381865afa1580156105d5573d6000803e3d6000fd5b505050506040513d6000823e601f3d908101601f191682016040526105fd9190810190612d10565b602087015260035460005460408051632d74e53160e01b815281516001600160a01b039485169463ff9cfea9941692632d74e53192600480820193918290030181865afa158015610652573d6000803e3d6000fd5b505050506040513d601f19601f820116820180604052508101906106769190612aef565b6000546040805163babe4fe560e01b815290518a926001600160a01b03169163babe4fe59160048083019260209291908290030181865afa1580156106bf573d6000803e3d6000fd5b505050506040513d601f19601f820116820180604052508101906106e39190612ac3565b886040518563ffffffff1660e01b81526004016107039493929190612dd9565b600060405180830381865afa158015610720573d6000803e3d6000fd5b505050506040513d6000823e601f3d908101601f191682016040526107489190810190612e1c565b60408701526005546000906001600160401b0381111561076a5761076a611e99565b604051908082528060200260200182016040528015610793578160200160208202803683370190505b5060608a01519091506001602002015181600580546107b29190612a81565b815181106107c2576107c2612a94565b602090810291909101015260608901516040015160055482906107e790600490612a81565b815181106107f7576107f7612a94565b6020908102919091010152606089015151600554829061081990600290612a81565b8151811061082957610829612a94565b602002602001018181525050600060036005546108469190612a81565b6001600160401b0381111561085d5761085d611e99565b604051908082528060200260200182016040528015610886578160200160208202803683370190505b50905060005b6005805461089a9190612a81565b8110156108d157808282815181106108b4576108b4612a94565b6020908102919091010152806108c981612aaa565b91505061088c565b5060036005546108e19190612a81565b81600580546108f09190612a81565b8151811061090057610900612a94565b602002602001018181525050600160055461091b9190612a81565b81600460055461092b9190612a81565b8151811061093b5761093b612a94565b6020908102919091010152600154604051630ceaa4c960e11b81526001600160a01b03909116906319d549929061097c908a908a9087908790600401612eac565b600060405180830381865afa158015610999573d6000803e3d6000fd5b505050506040513d6000823e601f3d908101601f191682016040526109c19190810190612ef9565b606089015260a08a015151806001600160401b038111156109e4576109e4611e99565b604051908082528060200260200182016040528015610a1d57816020015b610a0a611de3565b815260200190600190039081610a025790505b5060808a0152806001600160401b03811115610a3b57610a3b611e99565b604051908082528060200260200182016040528015610a7457816020015b610a61611e03565b815260200190600190039081610a595790505b5060a08a01526005546001600160401b03811115610a9457610a94611e99565b604051908082528060200260200182016040528015610abd578160200160208202803683370190505b50925060005b60008054906101000a90046001600160a01b03166001600160a01b031663babe4fe56040518163ffffffff1660e01b8152600401602060405180830381865afa158015610b14573d6000803e3d6000fd5b505050506040513d601f19601f82011682018060405250810190610b389190612ac3565b811015610b8c578a602001518181518110610b5557610b55612a94565b6020026020010151848281518110610b6f57610b6f612a94565b602090810291909101015280610b8481612aaa565b915050610ac3565b5060408051600580825260c08201909252906020820160a08036833701905050915060005b6005811015610c02578060058054610bc99190612a81565b610bd39190612f77565b838281518110610be557610be5612a94565b602090810291909101015280610bfa81612aaa565b915050610bb1565b508960400151836003600554610c189190612a81565b81518110610c2857610c28612a94565b60200260200101818152505060005b81811015610f15578a606001518181518110610c5557610c55612a94565b6020026020010151600060048110610c6f57610c6f612a94565b60200201518460058054610c839190612a81565b81518110610c9357610c93612a94565b6020026020010181815250508a606001518181518110610cb557610cb5612a94565b6020026020010151600160048110610ccf57610ccf612a94565b6020020151846004600554610ce49190612a81565b81518110610cf457610cf4612a94565b6020908102919091010152600154604051630ceaa4c960e11b81526001600160a01b03909116906319d5499290610d35908c908c9089908990600401612eac565b600060405180830381865afa158015610d52573d6000803e3d6000fd5b505050506040513d6000823e601f3d908101601f19168201604052610d7a9190810190612ef9565b8a608001518281518110610d9057610d90612a94565b60209081029190910101526003546000546040805163035e009f60e41b815281516001600160a01b039485169463ff9cfea99416926335e009f092600480820193918290030181865afa158015610deb573d6000803e3d6000fd5b505050506040513d601f19601f82011682018060405250810190610e0f9190612aef565b6000546040805163babe4fe560e01b815290518e926001600160a01b03169163babe4fe59160048083019260209291908290030181865afa158015610e58573d6000803e3d6000fd5b505050506040513d601f19601f82011682018060405250810190610e7c9190612ac3565b886040518563ffffffff1660e01b8152600401610e9c9493929190612dd9565b600060405180830381865afa158015610eb9573d6000803e3d6000fd5b505050506040513d6000823e601f3d908101601f19168201604052610ee19190810190612e1c565b8a60a001518281518110610ef757610ef7612a94565b60200260200101819052508080610f0d90612aaa565b915050610c37565b50505050505050505092915050565b600080610f3184846110f6565b905060005b816060015151811015610faa5781606001518181518110610f5957610f59612a94565b60200260200101511580610f88575081608001518181518110610f7e57610f7e612a94565b6020026020010151155b15610f9857600092505050610fcb565b80610fa281612aaa565b915050610f36565b5080518015610fba575080602001515b8015610fc7575080604001515b9150505b92915050565b610fd9611e1f565b8151158015610fea57506020820151155b15611008575050604080518082019091526000808252602082015290565b60405180604001604052808360000151815260200183602001517f30644e72e131a029b85045b68181585d97816a916871ca8d3c208c16d87cfd4761104d9190612a81565b905292915050565b61105d611e1f565b611065611e39565b83518152602080850151818301528351604080840191909152908401516060830152826080836006600019fa61109a57600080fd5b5092915050565b6000818310156110e557826110d6837f30644e72e131a029b85045b68181585d2833e84879b9709143e1f593f0000001612a81565b6110e09190612f77565b6110ef565b6110ef8284612a81565b9392505050565b6040805160a08101825260008082526020820181905291810182905260608082018190526080820152905b8351518110156111815761114f61113b8460000151610fd1565b85518051849081106103e7576103e7612a94565b845180518390811061116357611163612a94565b6020026020010181905250808061117990612aaa565b915050611121565b506004805460208501518551600080546040805163eef6a68160e01b8152815193976001600160a01b03978816976329db819197969594169363eef6a68193838301939092908290030181865afa1580156111e0573d6000803e3d6000fd5b505050506040513d601f19601f820116820180604052508101906112049190612aef565b6040518463ffffffff1660e01b815260040161122293929190612b45565b600060405180830381865afa15801561123f573d6000803e3d6000fd5b505050506040513d6000823e601f3d908101601f191682016040526112679190810190612b82565b600480546020860151604051630d74aab160e31b81529394506001600160a01b0390911692636ba55588926112a0928692909101612f8a565b602060405180830381865afa1580156112bd573d6000803e3d6000fd5b505050506040513d601f19601f820116820180604052508101906112e19190612fb8565b15158083526113365760405162461bcd60e51b815260206004820152601c60248201527b52696e67207369676e617475726520646f6573206e6f74207061737360201b60448201526064015b60405180910390fd5b60008060009054906101000a90046001600160a01b03166001600160a01b031662e71aaf6040518163ffffffff1660e01b8152600401600060405180830381865afa158015611389573d6000803e3d6000fd5b505050506040513d6000823e601f3d908101601f191682016040526113b19190810190612a37565b60035460005460408051632d74e53160e01b815281519495506001600160a01b039384169463d9502f759490931692632d74e531926004808401939192918290030181865afa158015611408573d6000803e3d6000fd5b505050506040513d601f19601f8201168201806040525081019061142c9190612aef565b6000546040805163babe4fe560e01b8152905186926001600160a01b03169163babe4fe59160048083019260209291908290030181865afa158015611475573d6000803e3d6000fd5b505050506040513d601f19601f820116820180604052508101906114999190612ac3565b6040808b01518a518b83015192516001600160e01b031960e089901b1681526114c89695949390600401612fda565b602060405180830381865afa1580156114e5573d6000803e3d6000fd5b505050506040513d601f19601f820116820180604052508101906115099190612fb8565b1515602084018190526115705760405162461bcd60e51b815260206004820152602960248201527f446966662047656e20457175616c20746167207673206163635f6420646f6573604482015268206e6f74207061737360b81b606482015260840161132d565b60006005546001600160401b0381111561158c5761158c611e99565b6040519080825280602002602001820160405280156115b5578160200160208202803683370190505b5060608701519091506001602002015181600580546115d49190612a81565b815181106115e4576115e4612a94565b6020908102919091010152606086015160400151600554829061160990600490612a81565b8151811061161957611619612a94565b6020908102919091010152606086015151600554829061163b90600290612a81565b8151811061164b5761164b612a94565b6020908102919091010152600080546040516338e0cdcb60e11b81526001600160a01b03909116906371c19b9690611687908590600401612adc565b6040805180830381865afa1580156116a3573d6000803e3d6000fd5b505050506040513d601f19601f820116820180604052508101906116c79190612aef565b9050600060036005546116da9190612a81565b6001600160401b038111156116f1576116f1611e99565b60405190808252806020026020018201604052801561171a578160200160208202803683370190505b50905060005b6005805461172e9190612a81565b811015611765578082828151811061174857611748612a94565b60209081029190910101528061175d81612aaa565b915050611720565b5060036005546117759190612a81565b81600580546117849190612a81565b8151811061179457611794612a94565b60200260200101818152505060016005546117af9190612a81565b8160046005546117bf9190612a81565b815181106117cf576117cf612a94565b602090810291909101015260015487516060890151604051631f7c3f9360e11b81526001600160a01b0390931692633ef87f2692611816928992879291899160040161303d565b602060405180830381865afa158015611833573d6000803e3d6000fd5b505050506040513d601f19601f820116820180604052508101906118579190612fb8565b1515604087018190526118d05760405162461bcd60e51b815260206004820152603b60248201527f5061727420457175616c207369676e6174757265202873616d6520545f62656760448201527a2c20545f656e642c206f706e2920646f6573206e6f74207061737360281b606482015260840161132d565b60a088015151806001600160401b038111156118ee576118ee611e99565b604051908082528060200260200182016040528015611917578160200160208202803683370190505b506060880152806001600160401b0381111561193557611935611e99565b60405190808252806020026020018201604052801561195e578160200160208202803683370190505b50608088015260408051600580825260c08201909252906020820160a08036833701905050915060005b60058110156119d95780600580546119a09190612a81565b6119aa9190612f77565b8382815181106119bc576119bc612a94565b6020908102919091010152806119d181612aaa565b915050611988565b5060005b81811015611d88578960a0015181815181106119fb576119fb612a94565b60200260200101519350600160009054906101000a90046001600160a01b03166001600160a01b0316633ef87f2687858c60000151888e608001518781518110611a4757611a47612a94565b60200260200101516040518663ffffffff1660e01b8152600401611a6f95949392919061303d565b602060405180830381865afa158015611a8c573d6000803e3d6000fd5b505050506040513d601f19601f82011682018060405250810190611ab09190612fb8565b88606001518281518110611ac657611ac6612a94565b60200260200101901515908115158152505087606001518181518110611aee57611aee612a94565b6020026020010151611b5f5760405162461bcd60e51b815260206004820152603460248201527f5061727420457175616c207369676e617475726573202873616d65207479532c6044820152732076616c532920646f6573206e6f74207061737360601b606482015260840161132d565b6003546000546040805163035e009f60e41b815281516001600160a01b039485169463d9502f759416926335e009f092600480820193918290030181865afa158015611baf573d6000803e3d6000fd5b505050506040513d601f19601f82011682018060405250810190611bd39190612aef565b6000546040805163babe4fe560e01b815290518b926001600160a01b03169163babe4fe59160048083019260209291908290030181865afa158015611c1c573d6000803e3d6000fd5b505050506040513d601f19601f82011682018060405250810190611c409190612ac3565b8e60800151898f60a001518881518110611c5c57611c5c612a94565b60200260200101516040518763ffffffff1660e01b8152600401611c8596959493929190612fda565b602060405180830381865afa158015611ca2573d6000803e3d6000fd5b505050506040513d601f19601f82011682018060405250810190611cc69190612fb8565b88608001518281518110611cdc57611cdc612a94565b60200260200101901515908115158152505087608001518181518110611d0457611d04612a94565b6020026020010151611d765760405162461bcd60e51b815260206004820152603560248201527f446966662047656e20457175616c207369676e6174757265732028706b5420766044820152747320636f6d542920646f6573206e6f74207061737360581b606482015260840161132d565b80611d8081612aaa565b9150506119dd565b5050505050505092915050565b6040518060c00160405280611da8611e1f565b8152602001611db5611e57565b8152602001611dc2611e03565b8152602001611dcf611de3565b815260200160608152602001606081525090565b6040518060400160405280611df6611e1f565b8152602001606081525090565b6040518060600160405280611e16611e1f565b8152602001611df65b604051806040016040528060008152602001600081525090565b60405180608001604052806004906020820280368337509192915050565b6040518060c00160405280611e6a611e1f565b8152602001611e77611e1f565b8152602001606081526020016060815260200160008152602001600081525090565b634e487b7160e01b600052604160045260246000fd5b604080519081016001600160401b0381118282101715611ed157611ed1611e99565b60405290565b60405160e081016001600160401b0381118282101715611ed157611ed1611e99565b604051608081016001600160401b0381118282101715611ed157611ed1611e99565b60405160c081016001600160401b0381118282101715611ed157611ed1611e99565b604051606081016001600160401b0381118282101715611ed157611ed1611e99565b604051601f8201601f191681016001600160401b0381118282101715611f8757611f87611e99565b604052919050565b60006001600160401b03821115611fa857611fa8611e99565b5060051b60200190565b600060408284031215611fc457600080fd5b611fcc611eaf565b9050813581526020820135602082015292915050565b600082601f830112611ff357600080fd5b8135602061200861200383611f8f565b611f5f565b82815260069290921b8401810191818101908684111561202757600080fd5b8286015b8481101561204b5761203d8882611fb2565b83529183019160400161202b565b509695505050505050565b6000612060611ef9565b905080608083018481111561207457600080fd5b835b8181101561208e578035835260209283019201612076565b50505092915050565b600082601f8301126120a857600080fd5b6120b0611f3d565b8060608401858111156120c257600080fd5b845b818110156120dc5780358452602093840193016120c4565b509095945050505050565b600061016082840312156120fa57600080fd5b612102611ed7565b905081356001600160401b038082111561211b57600080fd5b61212785838601611fe2565b8352602084013591508082111561213d57600080fd5b61214985838601611fe2565b602084015261215b8560408601611fb2565b604084015261216d8560808601612097565b606084015261217f8560e08601611fb2565b608084015261012084013591508082111561219957600080fd5b6121a585838601611fe2565b60a08401526101408401359150808211156121bf57600080fd5b506121cc84828501611fe2565b60c08301525092915050565b600082601f8301126121e957600080fd5b813560206121f961200383611f8f565b82815260059290921b8401810191818101908684111561221857600080fd5b8286015b8481101561204b578035835291830191830161221c565b6000806040838503121561224657600080fd5b82356001600160401b038082111561225d57600080fd5b612269868387016120e7565b935060209150818501358181111561228057600080fd5b8501608081880381131561229357600080fd5b61229b611ef9565b8235815284830135848111156122b057600080fd5b6122bc8a8286016121d8565b8683015250604083013560408201526060830135848111156122dd57600080fd5b808401945050601f925088838501126122f557600080fd5b833561230361200382611f8f565b81815260079190911b8501860190868101908b83111561232257600080fd5b958701955b82871015612357578b8688011261233e5760008081fd5b6123488c88612056565b82529584019590870190612327565b60608401525096999098509650505050505050565b80518252602090810151910152565b600081518084526020808501945080840160005b838110156123b5576123a287835161236c565b604096909601959082019060010161238f565b509495945050505050565b600081518084526020808501945080840160005b838110156123b5578151875295820195908201906001016123d4565b600061010061240084845161236c565b6020830151612412604086018261236c565b50604083015181608086015261242a8286018261237b565b915050606083015184820360a086015261244482826123c0565b915050608083015160c085015260a083015160e08501528091505092915050565b61247082825161236c565b60006020820151612484604085018261236c565b50604082015160a06080850152610fc760a08501826123c0565b6124a982825161236c565b6000602082015160606040850152610fc760608501826123c0565b600082825180855260208086019550808260051b84010181860160005b8481101561250f57601f198684030189526124fd838351612465565b988401989250908301906001016124e1565b5090979650505050505050565b60006020808352612530818401855161236c565b8084015160e060608501526125496101008501826123f0565b90506040850151601f19808684030160808701526125678383612465565b925060608701519150808684030160a0870152612584838361249e565b6080880151878203830160c089015280518083529194508501925084840190600581901b8501860160005b828110156125db57848783030184526125c982875161249e565b958801959388019391506001016125af565b5060a08a01519650838982030160e08a01526125f781886124c4565b9a9950505050505050505050565b6000610100828403121561261857600080fd5b612620611f1b565b905061262c8383611fb2565b815261263b8360408401611fb2565b602082015260808201356001600160401b038082111561265a57600080fd5b61266685838601611fe2565b604084015260a084013591508082111561267f57600080fd5b5061268c848285016121d8565b60608301525060c0820135608082015260e082013560a082015292915050565b600060a082840312156126be57600080fd5b6126c6611f3d565b90506126d28383611fb2565b81526126e18360408401611fb2565b602082015260808201356001600160401b038111156126ff57600080fd5b61270b848285016121d8565b60408301525092915050565b60006060828403121561272957600080fd5b612731611eaf565b905061273d8383611fb2565b815260408201356001600160401b0381111561275857600080fd5b612764848285016121d8565b60208301525092915050565b600082601f83011261278157600080fd5b8135602061279161200383611f8f565b82815260059290921b840181019181810190868411156127b057600080fd5b8286015b8481101561204b5780356001600160401b038111156127d35760008081fd5b6127e18986838b0101612717565b8452509183019183016127b4565b600082601f83011261280057600080fd5b8135602061281061200383611f8f565b82815260059290921b8401810191818101908684111561282f57600080fd5b8286015b8481101561204b5780356001600160401b038111156128525760008081fd5b6128608986838b01016126ac565b845250918301918301612833565b6000806040838503121561288157600080fd5b82356001600160401b038082111561289857600080fd5b6128a4868387016120e7565b935060208501359150808211156128ba57600080fd5b9084019060e082870312156128ce57600080fd5b6128d6611f1b565b6128e08784611fb2565b81526040830135828111156128f457600080fd5b61290088828601612605565b60208301525060608301358281111561291857600080fd5b612924888286016126ac565b60408301525060808301358281111561293c57600080fd5b61294888828601612717565b60608301525060a08301358281111561296057600080fd5b61296c88828601612770565b60808301525060c08301358281111561298457600080fd5b612990888286016127ef565b60a0830152508093505050509250929050565b6000604082840312156129b557600080fd5b6129bd611eaf565b9050815181526020820151602082015292915050565b600082601f8301126129e457600080fd5b815160206129f461200383611f8f565b82815260069290921b84018101918181019086841115612a1357600080fd5b8286015b8481101561204b57612a2988826129a3565b835291830191604001612a17565b600060208284031215612a4957600080fd5b81516001600160401b03811115612a5f57600080fd5b610fc7848285016129d3565b634e487b7160e01b600052601160045260246000fd5b81810381811115610fcb57610fcb612a6b565b634e487b7160e01b600052603260045260246000fd5b600060018201612abc57612abc612a6b565b5060010190565b600060208284031215612ad557600080fd5b5051919050565b6020815260006110ef60208301846123c0565b600060408284031215612b0157600080fd5b6110ef83836129a3565b600081518084526020808501945080840160005b838110156123b557612b3287835161236c565b6040969096019590820190600101612b1f565b608081526000612b586080830186612b0b565b8281036020840152612b6a8186612b0b565b915050612b7a604083018461236c565b949350505050565b600060208284031215612b9457600080fd5b81516001600160401b0380821115612bab57600080fd5b9083019060808286031215612bbf57600080fd5b612bc7611f3d565b825182811115612bd657600080fd5b612be2878286016129d3565b825250602083015182811115612bf757600080fd5b612c03878286016129d3565b602083015250612c1686604085016129a3565b604082015295945050505050565b6000815160808452612c39608085018261237b565b905060208301518482036020860152612c52828261237b565b9150506040830151612c67604086018261236c565b509392505050565b606081526000612c826060830185612c24565b905060208083018460005b6002811015612caa57815183529183019190830190600101612c8d565b505050509392505050565b600082601f830112612cc657600080fd5b81516020612cd661200383611f8f565b82815260059290921b84018101918181019086841115612cf557600080fd5b8286015b8481101561204b5780518352918301918301612cf9565b600060208284031215612d2257600080fd5b81516001600160401b0380821115612d3957600080fd5b908301906101008286031215612d4e57600080fd5b612d56611f1b565b612d6086846129a3565b8152612d6f86604085016129a3565b6020820152608083015182811115612d8657600080fd5b612d92878286016129d3565b60408301525060a083015182811115612daa57600080fd5b612db687828601612cb5565b60608301525060c0830151608082015260e09092015160a0830152509392505050565b612de3818661236c565b60a060408201526000612df960a0830186612b0b565b8460608401528281036080840152612e1181856123c0565b979650505050505050565b600060208284031215612e2e57600080fd5b81516001600160401b0380821115612e4557600080fd5b9083019060a08286031215612e5957600080fd5b612e61611f3d565b612e6b86846129a3565b8152612e7a86604085016129a3565b6020820152608083015182811115612e9157600080fd5b612e9d87828601612cb5565b60408301525095945050505050565b608081526000612ebf6080830187612b0b565b8281036020840152612ed181876123c0565b90508281036040840152612ee581866123c0565b90508281036060840152612e1181856123c0565b600060208284031215612f0b57600080fd5b81516001600160401b0380821115612f2257600080fd5b9083019060608286031215612f3657600080fd5b612f3e611eaf565b612f4886846129a3565b8152604083015182811115612f5c57600080fd5b612f6887828601612cb5565b60208301525095945050505050565b80820180821115610fcb57610fcb612a6b565b604081526000612f9d6040830185612c24565b8281036020840152612faf81856123f0565b95945050505050565b600060208284031215612fca57600080fd5b815180151581146110ef57600080fd5b6000610120612fe9838a61236c565b806040840152612ffb81840189612b0b565b9050866060840152613010608084018761236c565b61301d60c084018661236c565b8281036101008401526130308185612465565b9998505050505050505050565b60e08152600061305060e0830188612b0b565b828103602084015261306281886123c0565b9050613071604084018761236c565b61307e608084018661236c565b82810360c0840152613090818561249e565b9897505050505050505056fea26469706673582212208272ef70d375f1f8cdd719fb041c331311d525551e5253c38928f3392148d2f264736f6c63430008130033",
  "immutableReferences": {},
  "source": "// SPDX-License-Identifier: GPL-3.0\npragma solidity >=0.4.0 <0.9.0;\n\nimport \"../lib/alt_bn128.sol\";\nimport \"../PubParam.sol\";\nimport {PartialEquality as PE} from \"../ZKP/PartialEquality.sol\";\nimport {DualRingEC as DR} from \"../ZKP/DualRingEC.sol\";\nimport {DiffGenEqual as DG} from \"../ZKP/DiffGenEqual.sol\";\nimport {OneofMany as OM} from \"../ZKP/OneofMany.sol\";\n\ncontract SoKsp {\n  using alt_bn128 for uint256;\n  using alt_bn128 for alt_bn128.G1Point;\n\n  PubParam pp;\n  PE pe;\n  DR dr;\n  DG dg;\n  OM om;\n  uint n;\n\n  constructor (\n    address pp_addr, \n    address pe_addr, \n    address dr_addr, \n    address dg_addr,\n    address om_addr\n  ) {\n    pp = PubParam(pp_addr);\n    pe = PE(pe_addr);\n    dr = DR(dr_addr);\n    dg = DG(dg_addr);\n    om = OM(om_addr);\n\n    n = pp.n();\n  }\n\n  /// @param attrS (opnS, T_begS, T_endS)\n  struct TX {\n    alt_bn128.G1Point[] R;\n    alt_bn128.G1Point[] gs;\n    alt_bn128.G1Point tagS;\n    uint256[3] attrS; \n    alt_bn128.G1Point pk_T;\n    alt_bn128.G1Point[] tcom_T;\n    alt_bn128.G1Point[] ocom_T;\n  }\n\n  /// @param theta index of sk in R\n  /// @param attrS (ty, val, sk, ok)\n  /// @param attrTs (T_beg, T_end, opn, ok)^{T}\n  struct Wit {\n    uint256 theta;\n    uint256[] attrS;\n    uint256 sk_T;\n    uint256[4][] attrTs;\n  }\n\n  /// @param acc_d delegate of acc\n  struct Sig {\n    alt_bn128.G1Point acc_d;\n    // DR.SigEC dr_sig;\n    OM.Sig om_sig;\n    DG.Sig dg_tag_sig;\n    PE.Sig pe_opn_sig;\n    PE.Sig[] pe_ty_sig;\n    DG.Sig[] dg_sk_sig;\n  }\n\n  function sign(TX memory tx_sp, Wit memory wit) public view returns (Sig memory sig) {\n    alt_bn128.G1Point[] memory Gs = pp.gs();\n\n    uint256[] memory acc_d_attr = new uint256[](n);\n    for (uint i = 0; i < n-5; i++) {\n      acc_d_attr[i] = wit.attrS[i]; // (ty, val)\n    }\n    acc_d_attr[n-5] = tx_sp.attrS[1]; // T_beg\n    acc_d_attr[n-4] = tx_sp.attrS[2]; // T_end\n    acc_d_attr[n-3] = wit.attrS[n-5]; // sk\n    acc_d_attr[n-2] = tx_sp.attrS[0]; // opn\n    acc_d_attr[n-1] = alt_bn128.random(); // acc_d ok'\n\n    alt_bn128.G1Point memory acc_d = pp.Com(acc_d_attr); // acc_d\n    sig.acc_d = acc_d;\n\n    for (uint i = 0; i < tx_sp.R.length; i++) {\n      /// @dev ring pks := {acc/acc_d}\n      tx_sp.R[i] = tx_sp.R[i].add(acc_d.neg()); \n    }\n\n    /// @dev 1. Ring signature {acc/acc_d}\n    // DR.ParamEC memory dr_pp = dr.param(pp.g_ok(), tx_sp.R, pp.h());\n    // bytes memory m = abi.encode(address(0));\n    OM.Param memory om_pp = om.param(tx_sp.gs, tx_sp.R, pp.g_ok());\n    uint256[2] memory skj = [wit.attrS[3].sub(acc_d_attr[n-1]), wit.theta]; // (ok-ok', theta)\n    // sig.dr_sig = dr.signEC(dr_pp, m, skj);\n    sig.om_sig = om.sign(om_pp, skj);\n\n    /// @dev 2. Diff Gen Equal signature (tag vs acc_d)\n    sig.dg_tag_sig = dg.sign(pp.g_tag(), Gs, pp.sk_pos(), acc_d_attr);\n\n    /// @dev 3. Part Equal signature (same T_beg, T_end, opn)\n    uint256[] memory pe_y = new uint256[](n);\n    pe_y[n-5] = tx_sp.attrS[1]; // T_beg\n    pe_y[n-4] = tx_sp.attrS[2]; // T_end\n    pe_y[n-2] = tx_sp.attrS[0]; // opn\n\n    uint256[] memory idx_ne = new uint256[](n-3);\n    for (uint i = 0; i < n-5; i++){\n      idx_ne[i] = i;\n    }\n    idx_ne[n-5] = n-3;\n    idx_ne[n-4] = n-1;\n\n    sig.pe_opn_sig = pe.sign(Gs, acc_d_attr, pe_y, idx_ne);\n\n    /// @dev 4. Part Equal signatures (same tyS, valS)\n    /// @dev 5. Diff Gen Equal signatures (pkT vs comT) \n    uint target_length = tx_sp.tcom_T.length;\n\n    sig.pe_ty_sig = new PE.Sig[](target_length);\n    sig.dg_sk_sig = new DG.Sig[](target_length);\n\n    pe_y = new uint256[](n);\n    for (uint i = 0; i < pp.sk_pos(); i++){\n      pe_y[i] = wit.attrS[i];\n    }\n\n    idx_ne = new uint256[](5);\n    for (uint i = 0; i < 5; i++){\n      idx_ne[i] = n-5+i;\n    }\n\n    pe_y[n-3] = wit.sk_T;\n\n    for (uint i = 0; i < target_length; i++){\n      pe_y[n-5] = wit.attrTs[i][0]; // T_beg\n      pe_y[n-4] = wit.attrTs[i][1]; // T_end\n      /// @dev here what to do with opn and ok?\n      // pe_y[n-2] = wit.attrTs[i][2]; // opn\n      // pe_y[n-1] = wit.attrTs[i][3]; // ok\n\n      sig.pe_ty_sig[i] = pe.sign(Gs, acc_d_attr, pe_y, idx_ne);\n      sig.dg_sk_sig[i] = dg.sign(pp.g_pk(), Gs, pp.sk_pos(), pe_y);\n    }\n  }\n\n  struct RTN {\n    bool b_dr;\n    bool b_dg_tag;\n    bool b_pe_opn;\n    bool[] b_pe_ty;\n    bool[] b_dg_sk;\n  }\n\n  /// @dev verify the spend transaction\n  function verify(TX memory tx_sp, Sig memory sig) public view returns (bool) {\n    RTN memory b = verify_(tx_sp, sig);\n\n    for (uint i = 0; i < b.b_pe_ty.length; i++) {\n      if (!b.b_pe_ty[i] || !b.b_dg_sk[i]) return false;\n    }\n\n    return b.b_dr && b.b_dg_tag && b.b_pe_opn;\n  }\n\n  /// @dev verify the individual signatures\n  /// @return b a struct of bools\n  function verify_(TX memory tx_sp, Sig memory sig) private view returns (RTN memory b) {\n    for (uint i = 0; i < tx_sp.R.length; i++) {\n      /// @dev R pks := {acc/acc_d}\n      tx_sp.R[i] = tx_sp.R[i].add(sig.acc_d.neg()); \n    }\n\n    /// @dev 1. verify Ring signature {acc/acc_d}\n    // DR.ParamEC memory dr_pp = dr.param(pp.g_ok(), tx_sp.R, pp.h());\n    OM.Param memory om_pp = om.param(tx_sp.gs, tx_sp.R, pp.g_ok());\n    // b.b_dr = dr.verifyEC(dr_pp, abi.encode(address(0)), sig.dr_sig);\n    b.b_dr = om.verify(om_pp, sig.om_sig);\n    require (b.b_dr, \"Ring signature does not pass\");\n\n    /// @dev 2. verify Diff Gen Equal signature (tag vs acc_d)\n    alt_bn128.G1Point[] memory Gs = pp.gs();\n    b.b_dg_tag = dg.verify(pp.g_tag(), Gs, pp.sk_pos(), tx_sp.tagS, sig.acc_d, sig.dg_tag_sig);\n    require (b.b_dg_tag, \"Diff Gen Equal tag vs acc_d does not pass\");\n\n    /// @dev 3. verify Part Equal signature (T_beg, T_end, opn) vs acc_d \n    uint256[] memory pe_y = new uint256[](n);\n    pe_y[n-5] = tx_sp.attrS[1]; // T_beg\n    pe_y[n-4] = tx_sp.attrS[2]; // T_end\n    pe_y[n-2] = tx_sp.attrS[0]; // opn\n    alt_bn128.G1Point memory Cy = pp.Com(pe_y);\n\n    uint256[] memory idx_ne = new uint256[](n-3);\n    for (uint i = 0; i < n-5; i++){\n      idx_ne[i] = i;\n    }\n    idx_ne[n-5] = n-3;\n    idx_ne[n-4] = n-1;\n\n    b.b_pe_opn = pe.verify(Gs, idx_ne, sig.acc_d, Cy, sig.pe_opn_sig);\n    require (b.b_pe_opn, \"Part Equal signature (same T_beg, T_end, opn) does not pass\");\n\n    /// @dev 4. Part Equal signatures (same tyS, valS)\n    /// @dev 5. Diff Gen Equal signatures (pkT vs comT) \n    uint target_length = tx_sp.tcom_T.length;\n\n    b.b_pe_ty = new bool[](target_length);\n    b.b_dg_sk = new bool[](target_length);\n\n    idx_ne = new uint256[](5);\n    for (uint i = 0; i < 5; i++){\n      idx_ne[i] = n-5+i;\n    }\n\n    for (uint i = 0; i < target_length; i++){\n      // Cy = tx_sp.tcom_T[i].add(tx_sp.ocom_T[i]);\n      Cy = tx_sp.tcom_T[i];\n\n      b.b_pe_ty[i] = pe.verify(Gs, idx_ne, sig.acc_d, Cy, sig.pe_ty_sig[i]);\n      require (b.b_pe_ty[i], \"Part Equal signatures (same tyS, valS) does not pass\");\n\n      b.b_dg_sk[i] = dg.verify(pp.g_pk(), Gs, pp.sk_pos(), tx_sp.pk_T, Cy, sig.dg_sk_sig[i]);\n      require (b.b_dg_sk[i], \"Diff Gen Equal signatures (pkT vs comT) does not pass\");\n    }\n\n  }\n}",
  "sourcePath": "/Users/qian/Desktop/Y4/COMP4550/project/XCSwap/contracts/TX/SoKsp.sol",
  "compiler": {
    "name": "solc",
    "version": "0.8.19+commit.7dd6d404.Emscripten.clang"
  },
  "schemaVersion": "3.4.13",
  "updatedAt": "2023-08-22T03:30:48.826Z",
  "networkType": "ethereum",
  "devdoc": {
    "kind": "dev",
    "methods": {
      "verify(((uint256,uint256)[],(uint256,uint256)[],(uint256,uint256),uint256[3],(uint256,uint256),(uint256,uint256)[],(uint256,uint256)[]),((uint256,uint256),((uint256,uint256),(uint256,uint256),(uint256,uint256)[],uint256[],uint256,uint256),((uint256,uint256),(uint256,uint256),uint256[]),((uint256,uint256),uint256[]),((uint256,uint256),uint256[])[],((uint256,uint256),(uint256,uint256),uint256[])[]))": {
        "details": "verify the spend transaction"
      }
    },
    "version": 1
  },
  "userdoc": {
    "kind": "user",
    "methods": {},
    "version": 1
  }
}