{
  "contractName": "SoKsp",
  "abi": [
    {
      "inputs": [
        {
          "internalType": "address",
          "name": "pp_addr",
          "type": "address"
        },
        {
          "internalType": "address",
          "name": "pe_addr",
          "type": "address"
        },
        {
          "internalType": "address",
          "name": "dr_addr",
          "type": "address"
        },
        {
          "internalType": "address",
          "name": "dg_addr",
          "type": "address"
        }
      ],
      "stateMutability": "nonpayable",
      "type": "constructor"
    },
    {
      "inputs": [
        {
          "components": [
            {
              "components": [
                {
                  "internalType": "uint256",
                  "name": "X",
                  "type": "uint256"
                },
                {
                  "internalType": "uint256",
                  "name": "Y",
                  "type": "uint256"
                }
              ],
              "internalType": "struct alt_bn128.G1Point[]",
              "name": "R",
              "type": "tuple[]"
            },
            {
              "components": [
                {
                  "internalType": "uint256",
                  "name": "X",
                  "type": "uint256"
                },
                {
                  "internalType": "uint256",
                  "name": "Y",
                  "type": "uint256"
                }
              ],
              "internalType": "struct alt_bn128.G1Point",
              "name": "tagS",
              "type": "tuple"
            },
            {
              "internalType": "uint256[3]",
              "name": "attrS",
              "type": "uint256[3]"
            },
            {
              "components": [
                {
                  "internalType": "uint256",
                  "name": "X",
                  "type": "uint256"
                },
                {
                  "internalType": "uint256",
                  "name": "Y",
                  "type": "uint256"
                }
              ],
              "internalType": "struct alt_bn128.G1Point",
              "name": "pk_T",
              "type": "tuple"
            },
            {
              "components": [
                {
                  "internalType": "uint256",
                  "name": "X",
                  "type": "uint256"
                },
                {
                  "internalType": "uint256",
                  "name": "Y",
                  "type": "uint256"
                }
              ],
              "internalType": "struct alt_bn128.G1Point[]",
              "name": "tcom_T",
              "type": "tuple[]"
            },
            {
              "components": [
                {
                  "internalType": "uint256",
                  "name": "X",
                  "type": "uint256"
                },
                {
                  "internalType": "uint256",
                  "name": "Y",
                  "type": "uint256"
                }
              ],
              "internalType": "struct alt_bn128.G1Point[]",
              "name": "ocom_T",
              "type": "tuple[]"
            }
          ],
          "internalType": "struct SoKsp.TX",
          "name": "tx_sp",
          "type": "tuple"
        },
        {
          "components": [
            {
              "internalType": "uint256",
              "name": "theta",
              "type": "uint256"
            },
            {
              "internalType": "uint256[]",
              "name": "attrS",
              "type": "uint256[]"
            },
            {
              "internalType": "uint256",
              "name": "sk_T",
              "type": "uint256"
            },
            {
              "internalType": "uint256[4][]",
              "name": "attrTs",
              "type": "uint256[4][]"
            }
          ],
          "internalType": "struct SoKsp.Wit",
          "name": "wit",
          "type": "tuple"
        }
      ],
      "name": "sign",
      "outputs": [
        {
          "components": [
            {
              "components": [
                {
                  "internalType": "uint256",
                  "name": "X",
                  "type": "uint256"
                },
                {
                  "internalType": "uint256",
                  "name": "Y",
                  "type": "uint256"
                }
              ],
              "internalType": "struct alt_bn128.G1Point",
              "name": "acc_d",
              "type": "tuple"
            },
            {
              "components": [
                {
                  "internalType": "uint256",
                  "name": "z",
                  "type": "uint256"
                },
                {
                  "components": [
                    {
                      "internalType": "uint256",
                      "name": "X",
                      "type": "uint256"
                    },
                    {
                      "internalType": "uint256",
                      "name": "Y",
                      "type": "uint256"
                    }
                  ],
                  "internalType": "struct alt_bn128.G1Point",
                  "name": "R",
                  "type": "tuple"
                },
                {
                  "components": [
                    {
                      "components": [
                        {
                          "internalType": "uint256",
                          "name": "X",
                          "type": "uint256"
                        },
                        {
                          "internalType": "uint256",
                          "name": "Y",
                          "type": "uint256"
                        }
                      ],
                      "internalType": "struct alt_bn128.G1Point[]",
                      "name": "Ls",
                      "type": "tuple[]"
                    },
                    {
                      "components": [
                        {
                          "internalType": "uint256",
                          "name": "X",
                          "type": "uint256"
                        },
                        {
                          "internalType": "uint256",
                          "name": "Y",
                          "type": "uint256"
                        }
                      ],
                      "internalType": "struct alt_bn128.G1Point[]",
                      "name": "Rs",
                      "type": "tuple[]"
                    },
                    {
                      "internalType": "uint256",
                      "name": "a",
                      "type": "uint256"
                    },
                    {
                      "internalType": "uint256",
                      "name": "b",
                      "type": "uint256"
                    }
                  ],
                  "internalType": "struct NISA.Sig",
                  "name": "nisa_sig",
                  "type": "tuple"
                }
              ],
              "internalType": "struct DualRingEC.SigEC",
              "name": "dr_sig",
              "type": "tuple"
            },
            {
              "components": [
                {
                  "components": [
                    {
                      "internalType": "uint256",
                      "name": "X",
                      "type": "uint256"
                    },
                    {
                      "internalType": "uint256",
                      "name": "Y",
                      "type": "uint256"
                    }
                  ],
                  "internalType": "struct alt_bn128.G1Point",
                  "name": "cx",
                  "type": "tuple"
                },
                {
                  "components": [
                    {
                      "internalType": "uint256",
                      "name": "X",
                      "type": "uint256"
                    },
                    {
                      "internalType": "uint256",
                      "name": "Y",
                      "type": "uint256"
                    }
                  ],
                  "internalType": "struct alt_bn128.G1Point",
                  "name": "cy",
                  "type": "tuple"
                },
                {
                  "internalType": "uint256[]",
                  "name": "zs",
                  "type": "uint256[]"
                }
              ],
              "internalType": "struct DiffGenEqual.Sig",
              "name": "dg_tag_sig",
              "type": "tuple"
            },
            {
              "components": [
                {
                  "components": [
                    {
                      "internalType": "uint256",
                      "name": "X",
                      "type": "uint256"
                    },
                    {
                      "internalType": "uint256",
                      "name": "Y",
                      "type": "uint256"
                    }
                  ],
                  "internalType": "struct alt_bn128.G1Point",
                  "name": "c",
                  "type": "tuple"
                },
                {
                  "internalType": "uint256[]",
                  "name": "zs",
                  "type": "uint256[]"
                }
              ],
              "internalType": "struct PartialEquality.Sig",
              "name": "pe_opn_sig",
              "type": "tuple"
            },
            {
              "components": [
                {
                  "components": [
                    {
                      "internalType": "uint256",
                      "name": "X",
                      "type": "uint256"
                    },
                    {
                      "internalType": "uint256",
                      "name": "Y",
                      "type": "uint256"
                    }
                  ],
                  "internalType": "struct alt_bn128.G1Point",
                  "name": "c",
                  "type": "tuple"
                },
                {
                  "internalType": "uint256[]",
                  "name": "zs",
                  "type": "uint256[]"
                }
              ],
              "internalType": "struct PartialEquality.Sig[]",
              "name": "pe_ty_sig",
              "type": "tuple[]"
            },
            {
              "components": [
                {
                  "components": [
                    {
                      "internalType": "uint256",
                      "name": "X",
                      "type": "uint256"
                    },
                    {
                      "internalType": "uint256",
                      "name": "Y",
                      "type": "uint256"
                    }
                  ],
                  "internalType": "struct alt_bn128.G1Point",
                  "name": "cx",
                  "type": "tuple"
                },
                {
                  "components": [
                    {
                      "internalType": "uint256",
                      "name": "X",
                      "type": "uint256"
                    },
                    {
                      "internalType": "uint256",
                      "name": "Y",
                      "type": "uint256"
                    }
                  ],
                  "internalType": "struct alt_bn128.G1Point",
                  "name": "cy",
                  "type": "tuple"
                },
                {
                  "internalType": "uint256[]",
                  "name": "zs",
                  "type": "uint256[]"
                }
              ],
              "internalType": "struct DiffGenEqual.Sig[]",
              "name": "dg_sk_sig",
              "type": "tuple[]"
            }
          ],
          "internalType": "struct SoKsp.Sig",
          "name": "sig",
          "type": "tuple"
        }
      ],
      "stateMutability": "view",
      "type": "function"
    },
    {
      "inputs": [
        {
          "components": [
            {
              "components": [
                {
                  "internalType": "uint256",
                  "name": "X",
                  "type": "uint256"
                },
                {
                  "internalType": "uint256",
                  "name": "Y",
                  "type": "uint256"
                }
              ],
              "internalType": "struct alt_bn128.G1Point[]",
              "name": "R",
              "type": "tuple[]"
            },
            {
              "components": [
                {
                  "internalType": "uint256",
                  "name": "X",
                  "type": "uint256"
                },
                {
                  "internalType": "uint256",
                  "name": "Y",
                  "type": "uint256"
                }
              ],
              "internalType": "struct alt_bn128.G1Point",
              "name": "tagS",
              "type": "tuple"
            },
            {
              "internalType": "uint256[3]",
              "name": "attrS",
              "type": "uint256[3]"
            },
            {
              "components": [
                {
                  "internalType": "uint256",
                  "name": "X",
                  "type": "uint256"
                },
                {
                  "internalType": "uint256",
                  "name": "Y",
                  "type": "uint256"
                }
              ],
              "internalType": "struct alt_bn128.G1Point",
              "name": "pk_T",
              "type": "tuple"
            },
            {
              "components": [
                {
                  "internalType": "uint256",
                  "name": "X",
                  "type": "uint256"
                },
                {
                  "internalType": "uint256",
                  "name": "Y",
                  "type": "uint256"
                }
              ],
              "internalType": "struct alt_bn128.G1Point[]",
              "name": "tcom_T",
              "type": "tuple[]"
            },
            {
              "components": [
                {
                  "internalType": "uint256",
                  "name": "X",
                  "type": "uint256"
                },
                {
                  "internalType": "uint256",
                  "name": "Y",
                  "type": "uint256"
                }
              ],
              "internalType": "struct alt_bn128.G1Point[]",
              "name": "ocom_T",
              "type": "tuple[]"
            }
          ],
          "internalType": "struct SoKsp.TX",
          "name": "tx_sp",
          "type": "tuple"
        },
        {
          "components": [
            {
              "components": [
                {
                  "internalType": "uint256",
                  "name": "X",
                  "type": "uint256"
                },
                {
                  "internalType": "uint256",
                  "name": "Y",
                  "type": "uint256"
                }
              ],
              "internalType": "struct alt_bn128.G1Point",
              "name": "acc_d",
              "type": "tuple"
            },
            {
              "components": [
                {
                  "internalType": "uint256",
                  "name": "z",
                  "type": "uint256"
                },
                {
                  "components": [
                    {
                      "internalType": "uint256",
                      "name": "X",
                      "type": "uint256"
                    },
                    {
                      "internalType": "uint256",
                      "name": "Y",
                      "type": "uint256"
                    }
                  ],
                  "internalType": "struct alt_bn128.G1Point",
                  "name": "R",
                  "type": "tuple"
                },
                {
                  "components": [
                    {
                      "components": [
                        {
                          "internalType": "uint256",
                          "name": "X",
                          "type": "uint256"
                        },
                        {
                          "internalType": "uint256",
                          "name": "Y",
                          "type": "uint256"
                        }
                      ],
                      "internalType": "struct alt_bn128.G1Point[]",
                      "name": "Ls",
                      "type": "tuple[]"
                    },
                    {
                      "components": [
                        {
                          "internalType": "uint256",
                          "name": "X",
                          "type": "uint256"
                        },
                        {
                          "internalType": "uint256",
                          "name": "Y",
                          "type": "uint256"
                        }
                      ],
                      "internalType": "struct alt_bn128.G1Point[]",
                      "name": "Rs",
                      "type": "tuple[]"
                    },
                    {
                      "internalType": "uint256",
                      "name": "a",
                      "type": "uint256"
                    },
                    {
                      "internalType": "uint256",
                      "name": "b",
                      "type": "uint256"
                    }
                  ],
                  "internalType": "struct NISA.Sig",
                  "name": "nisa_sig",
                  "type": "tuple"
                }
              ],
              "internalType": "struct DualRingEC.SigEC",
              "name": "dr_sig",
              "type": "tuple"
            },
            {
              "components": [
                {
                  "components": [
                    {
                      "internalType": "uint256",
                      "name": "X",
                      "type": "uint256"
                    },
                    {
                      "internalType": "uint256",
                      "name": "Y",
                      "type": "uint256"
                    }
                  ],
                  "internalType": "struct alt_bn128.G1Point",
                  "name": "cx",
                  "type": "tuple"
                },
                {
                  "components": [
                    {
                      "internalType": "uint256",
                      "name": "X",
                      "type": "uint256"
                    },
                    {
                      "internalType": "uint256",
                      "name": "Y",
                      "type": "uint256"
                    }
                  ],
                  "internalType": "struct alt_bn128.G1Point",
                  "name": "cy",
                  "type": "tuple"
                },
                {
                  "internalType": "uint256[]",
                  "name": "zs",
                  "type": "uint256[]"
                }
              ],
              "internalType": "struct DiffGenEqual.Sig",
              "name": "dg_tag_sig",
              "type": "tuple"
            },
            {
              "components": [
                {
                  "components": [
                    {
                      "internalType": "uint256",
                      "name": "X",
                      "type": "uint256"
                    },
                    {
                      "internalType": "uint256",
                      "name": "Y",
                      "type": "uint256"
                    }
                  ],
                  "internalType": "struct alt_bn128.G1Point",
                  "name": "c",
                  "type": "tuple"
                },
                {
                  "internalType": "uint256[]",
                  "name": "zs",
                  "type": "uint256[]"
                }
              ],
              "internalType": "struct PartialEquality.Sig",
              "name": "pe_opn_sig",
              "type": "tuple"
            },
            {
              "components": [
                {
                  "components": [
                    {
                      "internalType": "uint256",
                      "name": "X",
                      "type": "uint256"
                    },
                    {
                      "internalType": "uint256",
                      "name": "Y",
                      "type": "uint256"
                    }
                  ],
                  "internalType": "struct alt_bn128.G1Point",
                  "name": "c",
                  "type": "tuple"
                },
                {
                  "internalType": "uint256[]",
                  "name": "zs",
                  "type": "uint256[]"
                }
              ],
              "internalType": "struct PartialEquality.Sig[]",
              "name": "pe_ty_sig",
              "type": "tuple[]"
            },
            {
              "components": [
                {
                  "components": [
                    {
                      "internalType": "uint256",
                      "name": "X",
                      "type": "uint256"
                    },
                    {
                      "internalType": "uint256",
                      "name": "Y",
                      "type": "uint256"
                    }
                  ],
                  "internalType": "struct alt_bn128.G1Point",
                  "name": "cx",
                  "type": "tuple"
                },
                {
                  "components": [
                    {
                      "internalType": "uint256",
                      "name": "X",
                      "type": "uint256"
                    },
                    {
                      "internalType": "uint256",
                      "name": "Y",
                      "type": "uint256"
                    }
                  ],
                  "internalType": "struct alt_bn128.G1Point",
                  "name": "cy",
                  "type": "tuple"
                },
                {
                  "internalType": "uint256[]",
                  "name": "zs",
                  "type": "uint256[]"
                }
              ],
              "internalType": "struct DiffGenEqual.Sig[]",
              "name": "dg_sk_sig",
              "type": "tuple[]"
            }
          ],
          "internalType": "struct SoKsp.Sig",
          "name": "sig",
          "type": "tuple"
        }
      ],
      "name": "verify",
      "outputs": [
        {
          "internalType": "bool",
          "name": "",
          "type": "bool"
        }
      ],
      "stateMutability": "view",
      "type": "function"
    }
  ],
  "bytecode": "0x60806040523480156200001157600080fd5b506040516200350438038062003504833981016040819052620000349162000109565b600080546001600160a01b038087166001600160a01b0319928316811790935560018054878316908416179055600280548683169084161790556003805491851691909216179055604080516317296b0360e11b81529051632e52d606916004808201926020929091908290030181865afa158015620000b8573d6000803e3d6000fd5b505050506040513d601f19601f82011682018060405250810190620000de919062000166565b600455506200018092505050565b80516001600160a01b03811681146200010457600080fd5b919050565b600080600080608085870312156200012057600080fd5b6200012b85620000ec565b93506200013b60208601620000ec565b92506200014b60408601620000ec565b91506200015b60608601620000ec565b905092959194509250565b6000602082840312156200017957600080fd5b5051919050565b61337480620001906000396000f3fe608060405234801561001057600080fd5b50600436106100365760003560e01c8063321f6da41461003b578063812e462314610064575b600080fd5b61004e6100493660046123eb565b610087565b60405161005b91906126d5565b60405180910390f35b610077610072366004612a4d565b611073565b604051901515815260200161005b565b61008f611f87565b60008060009054906101000a90046001600160a01b03166001600160a01b031662e71aaf6040518163ffffffff1660e01b8152600401600060405180830381865afa1580156100e2573d6000803e3d6000fd5b505050506040513d6000823e601f3d908101601f1916820160405261010a9190810190612c16565b905060006004546001600160401b0381111561012857610128612098565b604051908082528060200260200182016040528015610151578160200160208202803683370190505b50905060005b60056004546101669190612c60565b8110156101ba578460200151818151811061018357610183612c73565b602002602001015182828151811061019d5761019d612c73565b6020908102919091010152806101b281612c89565b915050610157565b5060408501516020015160045482906101d590600590612c60565b815181106101e5576101e5612c73565b6020908102919091010152604085810151015160048054839161020791612c60565b8151811061021757610217612c73565b602002602001018181525050836020015160056004546102379190612c60565b8151811061024757610247612c73565b602002602001015181600360045461025f9190612c60565b8151811061026f5761026f612c73565b6020908102919091010152604085015151600454829061029190600290612c60565b815181106102a1576102a1612c73565b60200260200101818152505073__alt_bn128_____________________________635ec01e4d6040518163ffffffff1660e01b8152600401602060405180830381865af41580156102f6573d6000803e3d6000fd5b505050506040513d601f19601f8201168201806040525081019061031a9190612ca2565b81600160045461032a9190612c60565b8151811061033a5761033a612c73565b6020908102919091010152600080546040516338e0cdcb60e11b81526001600160a01b03909116906371c19b9690610376908590600401612cbb565b6040805180830381865afa158015610392573d6000803e3d6000fd5b505050506040513d601f19601f820116820180604052508101906103b69190612cce565b808552905060005b865151811015610430576103fe6103d483611120565b88518051849081106103e8576103e8612c73565b60200260200101516111a490919063ffffffff16565b875180518390811061041257610412612c73565b6020026020010181905250808061042890612c89565b9150506103be565b50600254600080546040805163eef6a68160e01b8152815193946001600160a01b039081169463504af2ae949091169263eef6a68192600480820193918290030181865afa158015610486573d6000803e3d6000fd5b505050506040513d601f19601f820116820180604052508101906104aa9190612cce565b89516000546040805163b8c9d36560e01b815281516001600160a01b039093169263b8c9d365926004808401939192918290030181865afa1580156104f3573d6000803e3d6000fd5b505050506040513d601f19601f820116820180604052508101906105179190612cce565b6040518463ffffffff1660e01b815260040161053593929190612d24565b600060405180830381865afa158015610552573d6000803e3d6000fd5b505050506040513d6000823e601f3d908101601f1916820160405261057a9190810190612d5b565b905060008060405160200161058f9190612e19565b6040516020818303038152906040529050600060405180604001604052806106058760016004546105c09190612c60565b815181106105d0576105d0612c73565b60200260200101518b602001516003815181106105ef576105ef612c73565b60200260200101516111f090919063ffffffff16565b81528951602090910152600254604051634f30e73160e11b81529192506001600160a01b031690639e61ce629061064490869086908690600401612ebd565b600060405180830381865afa158015610661573d6000803e3d6000fd5b505050506040513d6000823e601f3d908101601f191682016040526106899190810190612f18565b602088015260035460005460408051632d74e53160e01b815281516001600160a01b039485169463ff9cfea9941692632d74e53192600480820193918290030181865afa1580156106de573d6000803e3d6000fd5b505050506040513d601f19601f820116820180604052508101906107029190612cce565b6000546040805163babe4fe560e01b815290518b926001600160a01b03169163babe4fe59160048083019260209291908290030181865afa15801561074b573d6000803e3d6000fd5b505050506040513d601f19601f8201168201806040525081019061076f9190612ca2565b896040518563ffffffff1660e01b815260040161078f949392919061300b565b600060405180830381865afa1580156107ac573d6000803e3d6000fd5b505050506040513d6000823e601f3d908101601f191682016040526107d491908101906130a9565b60408801526004546000906001600160401b038111156107f6576107f6612098565b60405190808252806020026020018201604052801561081f578160200160208202803683370190505b5060408b01519091506001602002015181600560045461083f9190612c60565b8151811061084f5761084f612c73565b602090810291909101015260408a810151015160048054839161087191612c60565b8151811061088157610881612c73565b602090810291909101015260408a01515160045482906108a390600290612c60565b815181106108b3576108b3612c73565b602002602001018181525050600060036004546108d09190612c60565b6001600160401b038111156108e7576108e7612098565b604051908082528060200260200182016040528015610910578160200160208202803683370190505b50905060005b60056004546109259190612c60565b81101561095c578082828151811061093f5761093f612c73565b60209081029190910101528061095481612c89565b915050610916565b50600360045461096c9190612c60565b81600560045461097c9190612c60565b8151811061098c5761098c612c73565b60200260200101818152505060016004546109a79190612c60565b81600480546109b69190612c60565b815181106109c6576109c6612c73565b6020908102919091010152600154604051630ceaa4c960e11b81526001600160a01b03909116906319d5499290610a07908b908b9087908790600401613139565b600060405180830381865afa158015610a24573d6000803e3d6000fd5b505050506040513d6000823e601f3d908101601f19168201604052610a4c9190810190613186565b60608a015260808b015151806001600160401b03811115610a6f57610a6f612098565b604051908082528060200260200182016040528015610aa857816020015b610a95611fd5565b815260200190600190039081610a8d5790505b5060808b0152806001600160401b03811115610ac657610ac6612098565b604051908082528060200260200182016040528015610aff57816020015b610aec611ff5565b815260200190600190039081610ae45790505b5060a08b01526004546001600160401b03811115610b1f57610b1f612098565b604051908082528060200260200182016040528015610b48578160200160208202803683370190505b50925060005b60008054906101000a90046001600160a01b03166001600160a01b031663babe4fe56040518163ffffffff1660e01b8152600401602060405180830381865afa158015610b9f573d6000803e3d6000fd5b505050506040513d601f19601f82011682018060405250810190610bc39190612ca2565b811015610c17578b602001518181518110610be057610be0612c73565b6020026020010151848281518110610bfa57610bfa612c73565b602090810291909101015280610c0f81612c89565b915050610b4e565b5060408051600580825260c08201909252906020820160a08036833701905050915060005b6005811015610c8e57806005600454610c559190612c60565b610c5f9190613204565b838281518110610c7157610c71612c73565b602090810291909101015280610c8681612c89565b915050610c3c565b508a60400151836003600454610ca49190612c60565b81518110610cb457610cb4612c73565b60200260200101818152505060005b81811015611063578b606001518181518110610ce157610ce1612c73565b6020026020010151600060048110610cfb57610cfb612c73565b6020020151846005600454610d109190612c60565b81518110610d2057610d20612c73565b6020026020010181815250508b606001518181518110610d4257610d42612c73565b6020026020010151600160048110610d5c57610d5c612c73565b60200201518460048054610d709190612c60565b81518110610d8057610d80612c73565b6020026020010181815250508b606001518181518110610da257610da2612c73565b6020026020010151600260048110610dbc57610dbc612c73565b6020020151846002600454610dd19190612c60565b81518110610de157610de1612c73565b6020026020010181815250508b606001518181518110610e0357610e03612c73565b6020026020010151600360048110610e1d57610e1d612c73565b6020020151846001600454610e329190612c60565b81518110610e4257610e42612c73565b6020908102919091010152600154604051630ceaa4c960e11b81526001600160a01b03909116906319d5499290610e83908d908d9089908990600401613139565b600060405180830381865afa158015610ea0573d6000803e3d6000fd5b505050506040513d6000823e601f3d908101601f19168201604052610ec89190810190613186565b8b608001518281518110610ede57610ede612c73565b60209081029190910101526003546000546040805163035e009f60e41b815281516001600160a01b039485169463ff9cfea99416926335e009f092600480820193918290030181865afa158015610f39573d6000803e3d6000fd5b505050506040513d601f19601f82011682018060405250810190610f5d9190612cce565b6000546040805163babe4fe560e01b815290518f926001600160a01b03169163babe4fe59160048083019260209291908290030181865afa158015610fa6573d6000803e3d6000fd5b505050506040513d601f19601f82011682018060405250810190610fca9190612ca2565b886040518563ffffffff1660e01b8152600401610fea949392919061300b565b600060405180830381865afa158015611007573d6000803e3d6000fd5b505050506040513d6000823e601f3d908101601f1916820160405261102f91908101906130a9565b8b60a00151828151811061104557611045612c73565b6020026020010181905250808061105b90612c89565b915050610cc3565b5050505050505050505092915050565b6000806110808484611245565b905060005b8160600151518110156110f957816060015181815181106110a8576110a8612c73565b602002602001015115806110d75750816080015181815181106110cd576110cd612c73565b6020026020010151155b156110e75760009250505061111a565b806110f181612c89565b915050611085565b5080518015611109575080602001515b8015611116575080604001515b9150505b92915050565b611128612011565b815115801561113957506020820151155b15611157575050604080518082019091526000808252602082015290565b60405180604001604052808360000151815260200183602001517f30644e72e131a029b85045b68181585d97816a916871ca8d3c208c16d87cfd4761119c9190612c60565b905292915050565b6111ac612011565b6111b461202b565b83518152602080850151818301528351604080840191909152908401516060830152826080836006600019fa6111e957600080fd5b5092915050565b6000818310156112345782611225837f30644e72e131a029b85045b68181585d2833e84879b9709143e1f593f0000001612c60565b61122f9190613204565b61123e565b61123e8284612c60565b9392505050565b6040805160a08101825260008082526020820181905291810182905260608082018190526080820152905b8351518110156112d05761129e61128a8460000151611120565b85518051849081106103e8576103e8612c73565b84518051839081106112b2576112b2612c73565b602002602001018190525080806112c890612c89565b915050611270565b50600254600080546040805163eef6a68160e01b8152815193946001600160a01b039081169463504af2ae949091169263eef6a68192600480820193918290030181865afa158015611326573d6000803e3d6000fd5b505050506040513d601f19601f8201168201806040525081019061134a9190612cce565b86516000546040805163b8c9d36560e01b815281516001600160a01b039093169263b8c9d365926004808401939192918290030181865afa158015611393573d6000803e3d6000fd5b505050506040513d601f19601f820116820180604052508101906113b79190612cce565b6040518463ffffffff1660e01b81526004016113d593929190612d24565b600060405180830381865afa1580156113f2573d6000803e3d6000fd5b505050506040513d6000823e601f3d908101601f1916820160405261141a9190810190612d5b565b6002546040519192506001600160a01b031690637524258090839061144490600090602001612e19565b60408051601f198184030181529082905260208801516001600160e01b031960e086901b1683526114789392600401613217565b602060405180830381865afa158015611495573d6000803e3d6000fd5b505050506040513d601f19601f820116820180604052508101906114b9919061325a565b151580835261150e5760405162461bcd60e51b815260206004820152601c60248201527b52696e67207369676e617475726520646f6573206e6f74207061737360201b60448201526064015b60405180910390fd5b60008060009054906101000a90046001600160a01b03166001600160a01b031662e71aaf6040518163ffffffff1660e01b8152600401600060405180830381865afa158015611561573d6000803e3d6000fd5b505050506040513d6000823e601f3d908101601f191682016040526115899190810190612c16565b60035460005460408051632d74e53160e01b815281519495506001600160a01b039384169463d9502f759490931692632d74e531926004808401939192918290030181865afa1580156115e0573d6000803e3d6000fd5b505050506040513d601f19601f820116820180604052508101906116049190612cce565b6000546040805163babe4fe560e01b8152905186926001600160a01b03169163babe4fe59160048083019260209291908290030181865afa15801561164d573d6000803e3d6000fd5b505050506040513d601f19601f820116820180604052508101906116719190612ca2565b896020015189600001518a604001516040518763ffffffff1660e01b81526004016116a19695949392919061327c565b602060405180830381865afa1580156116be573d6000803e3d6000fd5b505050506040513d601f19601f820116820180604052508101906116e2919061325a565b1515602084018190526117495760405162461bcd60e51b815260206004820152602960248201527f446966662047656e20457175616c20746167207673206163635f6420646f6573604482015268206e6f74207061737360b81b6064820152608401611505565b60006004546001600160401b0381111561176557611765612098565b60405190808252806020026020018201604052801561178e578160200160208202803683370190505b506040870151909150600160200201518160056004546117ae9190612c60565b815181106117be576117be612c73565b602090810291909101015260408681015101516004805483916117e091612c60565b815181106117f0576117f0612c73565b6020908102919091010152604086015151600454829061181290600290612c60565b8151811061182257611822612c73565b6020908102919091010152600080546040516338e0cdcb60e11b81526001600160a01b03909116906371c19b969061185e908590600401612cbb565b6040805180830381865afa15801561187a573d6000803e3d6000fd5b505050506040513d601f19601f8201168201806040525081019061189e9190612cce565b9050600060036004546118b19190612c60565b6001600160401b038111156118c8576118c8612098565b6040519080825280602002602001820160405280156118f1578160200160208202803683370190505b50905060005b60056004546119069190612c60565b81101561193d578082828151811061192057611920612c73565b60209081029190910101528061193581612c89565b9150506118f7565b50600360045461194d9190612c60565b81600560045461195d9190612c60565b8151811061196d5761196d612c73565b60200260200101818152505060016004546119889190612c60565b81600480546119979190612c60565b815181106119a7576119a7612c73565b602090810291909101015260015487516060890151604051631f7c3f9360e11b81526001600160a01b0390931692633ef87f26926119ee92899287929189916004016132df565b602060405180830381865afa158015611a0b573d6000803e3d6000fd5b505050506040513d601f19601f82011682018060405250810190611a2f919061325a565b151560408701819052611aa85760405162461bcd60e51b815260206004820152603b60248201527f5061727420457175616c207369676e6174757265202873616d6520545f62656760448201527a2c20545f656e642c206f706e2920646f6573206e6f74207061737360281b6064820152608401611505565b608088015151806001600160401b03811115611ac657611ac6612098565b604051908082528060200260200182016040528015611aef578160200160208202803683370190505b506060880152806001600160401b03811115611b0d57611b0d612098565b604051908082528060200260200182016040528015611b36578160200160208202803683370190505b50608088015260408051600580825260c08201909252906020820160a08036833701905050915060005b6005811015611bb257806005600454611b799190612c60565b611b839190613204565b838281518110611b9557611b95612c73565b602090810291909101015280611baa81612c89565b915050611b60565b5060005b81811015611f7a57611bf58a60a001518281518110611bd757611bd7612c73565b60200260200101518b6080015183815181106103e8576103e8612c73565b9350600160009054906101000a90046001600160a01b03166001600160a01b0316633ef87f2687858c60000151888e608001518781518110611c3957611c39612c73565b60200260200101516040518663ffffffff1660e01b8152600401611c619594939291906132df565b602060405180830381865afa158015611c7e573d6000803e3d6000fd5b505050506040513d601f19601f82011682018060405250810190611ca2919061325a565b88606001518281518110611cb857611cb8612c73565b60200260200101901515908115158152505087606001518181518110611ce057611ce0612c73565b6020026020010151611d515760405162461bcd60e51b815260206004820152603460248201527f5061727420457175616c207369676e617475726573202873616d65207479532c6044820152732076616c532920646f6573206e6f74207061737360601b6064820152608401611505565b6003546000546040805163035e009f60e41b815281516001600160a01b039485169463d9502f759416926335e009f092600480820193918290030181865afa158015611da1573d6000803e3d6000fd5b505050506040513d601f19601f82011682018060405250810190611dc59190612cce565b6000546040805163babe4fe560e01b815290518b926001600160a01b03169163babe4fe59160048083019260209291908290030181865afa158015611e0e573d6000803e3d6000fd5b505050506040513d601f19601f82011682018060405250810190611e329190612ca2565b8e60600151898f60a001518881518110611e4e57611e4e612c73565b60200260200101516040518763ffffffff1660e01b8152600401611e779695949392919061327c565b602060405180830381865afa158015611e94573d6000803e3d6000fd5b505050506040513d601f19601f82011682018060405250810190611eb8919061325a565b88608001518281518110611ece57611ece612c73565b60200260200101901515908115158152505087608001518181518110611ef657611ef6612c73565b6020026020010151611f685760405162461bcd60e51b815260206004820152603560248201527f446966662047656e20457175616c207369676e6174757265732028706b5420766044820152747320636f6d542920646f6573206e6f74207061737360581b6064820152608401611505565b80611f7281612c89565b915050611bb6565b5050505050505092915050565b6040518060c00160405280611f9a612011565b8152602001611fa7612049565b8152602001611fb4611ff5565b8152602001611fc1611fd5565b815260200160608152602001606081525090565b6040518060400160405280611fe8612011565b8152602001606081525090565b6040518060600160405280612008612011565b8152602001611fe85b604051806040016040528060008152602001600081525090565b60405180608001604052806004906020820280368337509192915050565b604051806060016040528060008152602001612063612011565b81526020016120936040518060800160405280606081526020016060815260200160008152602001600081525090565b905290565b634e487b7160e01b600052604160045260246000fd5b604080519081016001600160401b03811182821017156120d0576120d0612098565b60405290565b60405160c081016001600160401b03811182821017156120d0576120d0612098565b604051608081016001600160401b03811182821017156120d0576120d0612098565b604051606081016001600160401b03811182821017156120d0576120d0612098565b604051601f8201601f191681016001600160401b038111828210171561216457612164612098565b604052919050565b60006001600160401b0382111561218557612185612098565b5060051b60200190565b6000604082840312156121a157600080fd5b6121a96120ae565b9050813581526020820135602082015292915050565b600082601f8301126121d057600080fd5b813560206121e56121e08361216c565b61213c565b82815260069290921b8401810191818101908684111561220457600080fd5b8286015b848110156122285761221a888261218f565b835291830191604001612208565b509695505050505050565b600061223d6120f8565b905080608083018481111561225157600080fd5b835b8181101561226b578035835260209283019201612253565b50505092915050565b600082601f83011261228557600080fd5b61228d61211a565b80606084018581111561229f57600080fd5b845b818110156122b95780358452602093840193016122a1565b509095945050505050565b600061014082840312156122d757600080fd5b6122df6120d6565b905081356001600160401b03808211156122f857600080fd5b612304858386016121bf565b8352612313856020860161218f565b60208401526123258560608601612274565b60408401526123378560c0860161218f565b606084015261010084013591508082111561235157600080fd5b61235d858386016121bf565b608084015261012084013591508082111561237757600080fd5b50612384848285016121bf565b60a08301525092915050565b600082601f8301126123a157600080fd5b813560206123b16121e08361216c565b82815260059290921b840181019181810190868411156123d057600080fd5b8286015b8481101561222857803583529183019183016123d4565b600080604083850312156123fe57600080fd5b82356001600160401b038082111561241557600080fd5b612421868387016122c4565b935060209150818501358181111561243857600080fd5b8501608081880381131561244b57600080fd5b6124536120f8565b82358152848301358481111561246857600080fd5b6124748a828601612390565b86830152506040830135604082015260608301358481111561249557600080fd5b808401945050601f925088838501126124ad57600080fd5b83356124bb6121e08261216c565b81815260079190911b8501860190868101908b8311156124da57600080fd5b958701955b8287101561250f578b868801126124f65760008081fd5b6125008c88612233565b825295840195908701906124df565b60608401525096999098509650505050505050565b80518252602090810151910152565b600081518084526020808501945080840160005b8381101561256d5761255a878351612524565b6040969096019590820190600101612547565b509495945050505050565b80518252600060208201516125906020850182612524565b5060408201516080606085015280516080808601526125b3610100860182612533565b90506020820151607f198683030160a08701526125d08282612533565b604084015160c088015260609093015160e090960195909552509392505050565b600081518084526020808501945080840160005b8381101561256d57815187529582019590820190600101612605565b61262c828251612524565b600060208201516126406040850182612524565b50604082015160a0608085015261111660a08501826125f1565b612665828251612524565b600060208201516060604085015261111660608501826125f1565b600081518084526020808501808196508360051b8101915082860160005b858110156126c85782840389526126b6848351612621565b9885019893509084019060010161269e565b5091979650505050505050565b600060208083526126e98184018551612524565b8084015160e06060850152612702610100850182612578565b90506040850151601f19808684030160808701526127208383612621565b925060608701519150808684030160a087015261273d838361265a565b6080880151878203830160c089015280518083529194508501925084840190600581901b8501860160005b82811015612794578487830301845261278282875161265a565b95880195938801939150600101612768565b5060a08a01519650838982030160e08a01526127b08188612680565b9a9950505050505050505050565b6000608082840312156127d057600080fd5b6127d861211a565b9050813581526127eb836020840161218f565b602082015260608201356001600160401b038082111561280a57600080fd5b908301906080828603121561281e57600080fd5b6128266120f8565b82358281111561283557600080fd5b612841878286016121bf565b82525060208301358281111561285657600080fd5b612862878286016121bf565b602083015250604083013560408201526060830135606082015280604085015250505092915050565b600060a0828403121561289d57600080fd5b6128a561211a565b90506128b1838361218f565b81526128c0836040840161218f565b602082015260808201356001600160401b038111156128de57600080fd5b6128ea84828501612390565b60408301525092915050565b60006060828403121561290857600080fd5b6129106120ae565b905061291c838361218f565b815260408201356001600160401b0381111561293757600080fd5b61294384828501612390565b60208301525092915050565b600082601f83011261296057600080fd5b813560206129706121e08361216c565b82815260059290921b8401810191818101908684111561298f57600080fd5b8286015b848110156122285780356001600160401b038111156129b25760008081fd5b6129c08986838b01016128f6565b845250918301918301612993565b600082601f8301126129df57600080fd5b813560206129ef6121e08361216c565b82815260059290921b84018101918181019086841115612a0e57600080fd5b8286015b848110156122285780356001600160401b03811115612a315760008081fd5b612a3f8986838b010161288b565b845250918301918301612a12565b60008060408385031215612a6057600080fd5b82356001600160401b0380821115612a7757600080fd5b612a83868387016122c4565b93506020850135915080821115612a9957600080fd5b9084019060e08287031215612aad57600080fd5b612ab56120d6565b612abf878461218f565b8152604083013582811115612ad357600080fd5b612adf888286016127be565b602083015250606083013582811115612af757600080fd5b612b038882860161288b565b604083015250608083013582811115612b1b57600080fd5b612b27888286016128f6565b60608301525060a083013582811115612b3f57600080fd5b612b4b8882860161294f565b60808301525060c083013582811115612b6357600080fd5b612b6f888286016129ce565b60a0830152508093505050509250929050565b600060408284031215612b9457600080fd5b612b9c6120ae565b9050815181526020820151602082015292915050565b600082601f830112612bc357600080fd5b81516020612bd36121e08361216c565b82815260069290921b84018101918181019086841115612bf257600080fd5b8286015b8481101561222857612c088882612b82565b835291830191604001612bf6565b600060208284031215612c2857600080fd5b81516001600160401b03811115612c3e57600080fd5b61111684828501612bb2565b634e487b7160e01b600052601160045260246000fd5b8181038181111561111a5761111a612c4a565b634e487b7160e01b600052603260045260246000fd5b600060018201612c9b57612c9b612c4a565b5060010190565b600060208284031215612cb457600080fd5b5051919050565b60208152600061123e60208301846125f1565b600060408284031215612ce057600080fd5b61123e8383612b82565b600081518084526020808501945080840160005b8381101561256d57612d11878351612524565b6040969096019590820190600101612cfe565b612d2e8185612524565b60a060408201526000612d4460a0830185612cea565b9050612d536060830184612524565b949350505050565b600060208284031215612d6d57600080fd5b81516001600160401b0380821115612d8457600080fd5b9083019060608286031215612d9857600080fd5b612da06120ae565b825182811115612daf57600080fd5b830160608188031215612dc157600080fd5b612dc96120ae565b612dd38883612b82565b8152604082015184811115612de757600080fd5b612df389828501612bb2565b6020830152508083525050612e0b8660208501612b82565b602082015295945050505050565b6001600160a01b0391909116815260200190565b6000815160608452612e43606085018251612524565b60200151606060a0850152612e5b60c0850182612533565b90506020830151612e6f6020860182612524565b509392505050565b6000815180845260005b81811015612e9d57602081850181015186830182015201612e81565b506000602082860101526020601f19601f83011685010191505092915050565b608081526000612ed06080830186612e2d565b602083820381850152612ee38287612e77565b92506040840191508460005b6002811015612f0c57815184529282019290820190600101612eef565b50505050949350505050565b600060208284031215612f2a57600080fd5b81516001600160401b0380821115612f4157600080fd5b9083019060808286031215612f5557600080fd5b612f5d61211a565b82518152612f6e8660208501612b82565b6020820152606083015182811115612f8557600080fd5b929092019160808387031215612f9a57600080fd5b612fa26120f8565b835183811115612fb157600080fd5b612fbd88828701612bb2565b825250602084015183811115612fd257600080fd5b612fde88828701612bb2565b60208301525060408401516040820152606084015160608201528060408301525080935050505092915050565b6130158186612524565b60a06040820152600061302b60a0830186612cea565b846060840152828103608084015261304381856125f1565b979650505050505050565b600082601f83011261305f57600080fd5b8151602061306f6121e08361216c565b82815260059290921b8401810191818101908684111561308e57600080fd5b8286015b848110156122285780518352918301918301613092565b6000602082840312156130bb57600080fd5b81516001600160401b03808211156130d257600080fd5b9083019060a082860312156130e657600080fd5b6130ee61211a565b6130f88684612b82565b81526131078660408501612b82565b602082015260808301518281111561311e57600080fd5b61312a8782860161304e565b60408301525095945050505050565b60808152600061314c6080830187612cea565b828103602084015261315e81876125f1565b9050828103604084015261317281866125f1565b9050828103606084015261304381856125f1565b60006020828403121561319857600080fd5b81516001600160401b03808211156131af57600080fd5b90830190606082860312156131c357600080fd5b6131cb6120ae565b6131d58684612b82565b81526040830151828111156131e957600080fd5b6131f58782860161304e565b60208301525095945050505050565b8082018082111561111a5761111a612c4a565b60608152600061322a6060830186612e2d565b828103602084015261323c8186612e77565b905082810360408401526132508185612578565b9695505050505050565b60006020828403121561326c57600080fd5b8151801515811461123e57600080fd5b600061012061328b838a612524565b80604084015261329d81840189612cea565b90508660608401526132b26080840187612524565b6132bf60c0840186612524565b8281036101008401526132d28185612621565b9998505050505050505050565b60e0815260006132f260e0830188612cea565b828103602084015261330481886125f1565b90506133136040840187612524565b6133206080840186612524565b82810360c0840152613332818561265a565b9897505050505050505056fea2646970667358221220406dc445e9b7ec7dcb61fc3e62fc932539c8c4e2477396b9f4f8f77a89c917af64736f6c63430008130033",
  "immutableReferences": {},
  "source": "// SPDX-License-Identifier: GPL-3.0\npragma solidity >=0.4.0 <0.9.0;\n\nimport \"../lib/alt_bn128.sol\";\nimport \"../PubParam.sol\";\nimport {PartialEquality as PE} from \"../ZKP/PartialEquality.sol\";\nimport {DualRingEC as DR} from \"../ZKP/DualRingEC.sol\";\nimport {DiffGenEqual as DG} from \"../ZKP/DiffGenEqual.sol\";\n\ncontract SoKsp {\n  using alt_bn128 for uint256;\n  using alt_bn128 for alt_bn128.G1Point;\n\n  PubParam pp;\n  PE pe;\n  DR dr;\n  DG dg;\n  uint n;\n\n  constructor (\n    address pp_addr, \n    address pe_addr, \n    address dr_addr, \n    address dg_addr\n  ) {\n    pp = PubParam(pp_addr);\n    pe = PE(pe_addr);\n    dr = DR(dr_addr);\n    dg = DG(dg_addr);\n\n    n = pp.n();\n  }\n\n  /// @param attrS (opnS, T_begS, T_endS)\n  struct TX {\n    alt_bn128.G1Point[] R;\n    alt_bn128.G1Point tagS;\n    uint256[3] attrS; \n    alt_bn128.G1Point pk_T;\n    alt_bn128.G1Point[] tcom_T;\n    alt_bn128.G1Point[] ocom_T;\n  }\n\n  /// @param theta index of sk in R\n  /// @param attrS (ty, val, sk, ok)\n  /// @param attrTs (T_beg, T_end, opn, ok)^{T}\n  struct Wit {\n    uint256 theta;\n    uint256[] attrS;\n    uint256 sk_T;\n    uint256[4][] attrTs;\n  }\n\n  /// @param acc_d delegate of acc\n  struct Sig {\n    alt_bn128.G1Point acc_d;\n    DR.SigEC dr_sig;\n    DG.Sig dg_tag_sig;\n    PE.Sig pe_opn_sig;\n    PE.Sig[] pe_ty_sig;\n    DG.Sig[] dg_sk_sig;\n  }\n\n  function sign(TX memory tx_sp, Wit memory wit) public view returns (Sig memory sig) {\n    alt_bn128.G1Point[] memory Gs = pp.gs();\n\n    uint256[] memory acc_d_attr = new uint256[](n);\n    for (uint i = 0; i < n-5; i++) {\n      acc_d_attr[i] = wit.attrS[i]; // (ty, val)\n    }\n    acc_d_attr[n-5] = tx_sp.attrS[1]; // T_beg\n    acc_d_attr[n-4] = tx_sp.attrS[2]; // T_end\n    acc_d_attr[n-3] = wit.attrS[n-5]; // sk\n    acc_d_attr[n-2] = tx_sp.attrS[0]; // opn\n    acc_d_attr[n-1] = alt_bn128.random(); // acc_d ok'\n\n    alt_bn128.G1Point memory acc_d = pp.Com(acc_d_attr); // acc_d\n    sig.acc_d = acc_d;\n\n    for (uint i = 0; i < tx_sp.R.length; i++) {\n      /// @dev ring pks := {acc/acc_d}\n      tx_sp.R[i] = tx_sp.R[i].add(acc_d.neg()); \n    }\n\n    DR.ParamEC memory dr_pp = dr.param(pp.g_ok(), tx_sp.R, pp.h());\n    bytes memory m = abi.encode(address(0));\n    uint256[2] memory skj = [wit.attrS[3].sub(acc_d_attr[n-1]), wit.theta]; // (ok-ok', theta)\n\n    /// @dev 1. Ring signature {acc/acc_d}\n    sig.dr_sig = dr.signEC(dr_pp, m, skj);\n\n    /// @dev 2. Diff Gen Equal signature (tag vs acc_d)\n    sig.dg_tag_sig = dg.sign(pp.g_tag(), Gs, pp.sk_pos(), acc_d_attr);\n\n    /// @dev 3. Part Equal signature (same T_beg, T_end, opn)\n    uint256[] memory pe_y = new uint256[](n);\n    pe_y[n-5] = tx_sp.attrS[1]; // T_beg\n    pe_y[n-4] = tx_sp.attrS[2]; // T_end\n    pe_y[n-2] = tx_sp.attrS[0]; // opn\n\n    uint256[] memory idx_ne = new uint256[](n-3);\n    for (uint i = 0; i < n-5; i++){\n      idx_ne[i] = i;\n    }\n    idx_ne[n-5] = n-3;\n    idx_ne[n-4] = n-1;\n\n    sig.pe_opn_sig = pe.sign(Gs, acc_d_attr, pe_y, idx_ne);\n\n    /// @dev 4. Part Equal signatures (same tyS, valS)\n    /// @dev 5. Diff Gen Equal signatures (pkT vs comT) \n    uint target_length = tx_sp.tcom_T.length;\n\n    sig.pe_ty_sig = new PE.Sig[](target_length);\n    sig.dg_sk_sig = new DG.Sig[](target_length);\n\n    pe_y = new uint256[](n);\n    for (uint i = 0; i < pp.sk_pos(); i++){\n      pe_y[i] = wit.attrS[i];\n    }\n\n    idx_ne = new uint256[](5);\n    for (uint i = 0; i < 5; i++){\n      idx_ne[i] = n-5+i;\n    }\n\n    pe_y[n-3] = wit.sk_T;\n\n    for (uint i = 0; i < target_length; i++){\n      pe_y[n-5] = wit.attrTs[i][0]; // T_beg\n      pe_y[n-4] = wit.attrTs[i][1]; // T_end\n      pe_y[n-2] = wit.attrTs[i][2]; // opn\n      pe_y[n-1] = wit.attrTs[i][3]; // ok\n\n      sig.pe_ty_sig[i] = pe.sign(Gs, acc_d_attr, pe_y, idx_ne);\n      sig.dg_sk_sig[i] = dg.sign(pp.g_pk(), Gs, pp.sk_pos(), pe_y);\n    }\n  }\n\n  struct RTN {\n    bool b_dr;\n    bool b_dg_tag;\n    bool b_pe_opn;\n    bool[] b_pe_ty;\n    bool[] b_dg_sk;\n  }\n\n  /// @dev verify the spend transaction\n  function verify(TX memory tx_sp, Sig memory sig) public view returns (bool) {\n    RTN memory b = verify_(tx_sp, sig);\n\n    for (uint i = 0; i < b.b_pe_ty.length; i++) {\n      if (!b.b_pe_ty[i] || !b.b_dg_sk[i]) return false;\n    }\n\n    return b.b_dr && b.b_dg_tag && b.b_pe_opn;\n  }\n\n  /// @dev verify the individual signatures\n  /// @return b a struct of bools\n  function verify_(TX memory tx_sp, Sig memory sig) private view returns (RTN memory b) {\n    for (uint i = 0; i < tx_sp.R.length; i++) {\n      /// @dev R pks := {acc/acc_d}\n      tx_sp.R[i] = tx_sp.R[i].add(sig.acc_d.neg()); \n    }\n\n    DR.ParamEC memory dr_pp = dr.param(pp.g_ok(), tx_sp.R, pp.h());\n\n    /// @dev 1. verify Ring signature\n    b.b_dr = dr.verifyEC(dr_pp, abi.encode(address(0)), sig.dr_sig);\n    require (b.b_dr, \"Ring signature does not pass\");\n\n    /// @dev 2. verify Diff Gen Equal signature (tag vs acc_d)\n    alt_bn128.G1Point[] memory Gs = pp.gs();\n    b.b_dg_tag = dg.verify(pp.g_tag(), Gs, pp.sk_pos(), tx_sp.tagS, sig.acc_d, sig.dg_tag_sig);\n    require (b.b_dg_tag, \"Diff Gen Equal tag vs acc_d does not pass\");\n\n    /// @dev 3. verify Part Equal signature (T_beg, T_end, opn) vs acc_d \n    uint256[] memory pe_y = new uint256[](n);\n    pe_y[n-5] = tx_sp.attrS[1]; // T_beg\n    pe_y[n-4] = tx_sp.attrS[2]; // T_end\n    pe_y[n-2] = tx_sp.attrS[0]; // opn\n    alt_bn128.G1Point memory Cy = pp.Com(pe_y);\n\n    uint256[] memory idx_ne = new uint256[](n-3);\n    for (uint i = 0; i < n-5; i++){\n      idx_ne[i] = i;\n    }\n    idx_ne[n-5] = n-3;\n    idx_ne[n-4] = n-1;\n\n    b.b_pe_opn = pe.verify(Gs, idx_ne, sig.acc_d, Cy, sig.pe_opn_sig);\n    require (b.b_pe_opn, \"Part Equal signature (same T_beg, T_end, opn) does not pass\");\n\n    /// @dev 4. Part Equal signatures (same tyS, valS)\n    /// @dev 5. Diff Gen Equal signatures (pkT vs comT) \n    uint target_length = tx_sp.tcom_T.length;\n\n    b.b_pe_ty = new bool[](target_length);\n    b.b_dg_sk = new bool[](target_length);\n\n    idx_ne = new uint256[](5);\n    for (uint i = 0; i < 5; i++){\n      idx_ne[i] = n-5+i;\n    }\n\n    for (uint i = 0; i < target_length; i++){\n      Cy = tx_sp.tcom_T[i].add(tx_sp.ocom_T[i]);\n\n      b.b_pe_ty[i] = pe.verify(Gs, idx_ne, sig.acc_d, Cy, sig.pe_ty_sig[i]);\n      require (b.b_pe_ty[i], \"Part Equal signatures (same tyS, valS) does not pass\");\n\n      b.b_dg_sk[i] = dg.verify(pp.g_pk(), Gs, pp.sk_pos(), tx_sp.pk_T, Cy, sig.dg_sk_sig[i]);\n      require (b.b_dg_sk[i], \"Diff Gen Equal signatures (pkT vs comT) does not pass\");\n    }\n\n  }\n}",
  "sourcePath": "/Users/qian/Desktop/Y4/COMP4550/project/XCSwap/contracts/TX/SoKsp.sol",
  "compiler": {
    "name": "solc",
    "version": "0.8.19+commit.7dd6d404.Emscripten.clang"
  },
  "schemaVersion": "3.4.13",
  "updatedAt": "2023-08-10T14:22:56.103Z",
  "devdoc": {
    "kind": "dev",
    "methods": {
      "verify(((uint256,uint256)[],(uint256,uint256),uint256[3],(uint256,uint256),(uint256,uint256)[],(uint256,uint256)[]),((uint256,uint256),(uint256,(uint256,uint256),((uint256,uint256)[],(uint256,uint256)[],uint256,uint256)),((uint256,uint256),(uint256,uint256),uint256[]),((uint256,uint256),uint256[]),((uint256,uint256),uint256[])[],((uint256,uint256),(uint256,uint256),uint256[])[]))": {
        "details": "verify the spend transaction"
      }
    },
    "version": 1
  },
  "userdoc": {
    "kind": "user",
    "methods": {},
    "version": 1
  }
}