{
  "contractName": "SoKsp",
  "abi": [
    {
      "inputs": [
        {
          "internalType": "address",
          "name": "pp_addr",
          "type": "address"
        }
      ],
      "stateMutability": "nonpayable",
      "type": "constructor"
    },
    {
      "inputs": [
        {
          "components": [
            {
              "components": [
                {
                  "internalType": "uint256",
                  "name": "X",
                  "type": "uint256"
                },
                {
                  "internalType": "uint256",
                  "name": "Y",
                  "type": "uint256"
                }
              ],
              "internalType": "struct alt_bn128.G1Point[]",
              "name": "R",
              "type": "tuple[]"
            },
            {
              "components": [
                {
                  "internalType": "uint256",
                  "name": "X",
                  "type": "uint256"
                },
                {
                  "internalType": "uint256",
                  "name": "Y",
                  "type": "uint256"
                }
              ],
              "internalType": "struct alt_bn128.G1Point",
              "name": "tag",
              "type": "tuple"
            },
            {
              "internalType": "uint256[3]",
              "name": "attrS",
              "type": "uint256[3]"
            },
            {
              "components": [
                {
                  "internalType": "uint256",
                  "name": "X",
                  "type": "uint256"
                },
                {
                  "internalType": "uint256",
                  "name": "Y",
                  "type": "uint256"
                }
              ],
              "internalType": "struct alt_bn128.G1Point",
              "name": "pk_T",
              "type": "tuple"
            },
            {
              "components": [
                {
                  "internalType": "uint256",
                  "name": "X",
                  "type": "uint256"
                },
                {
                  "internalType": "uint256",
                  "name": "Y",
                  "type": "uint256"
                }
              ],
              "internalType": "struct alt_bn128.G1Point[]",
              "name": "tcom_T",
              "type": "tuple[]"
            },
            {
              "components": [
                {
                  "internalType": "uint256",
                  "name": "X",
                  "type": "uint256"
                },
                {
                  "internalType": "uint256",
                  "name": "Y",
                  "type": "uint256"
                }
              ],
              "internalType": "struct alt_bn128.G1Point[]",
              "name": "ocom_T",
              "type": "tuple[]"
            }
          ],
          "internalType": "struct SoKsp.TX_sp",
          "name": "tx_sp",
          "type": "tuple"
        },
        {
          "components": [
            {
              "internalType": "uint256",
              "name": "theta",
              "type": "uint256"
            },
            {
              "internalType": "uint256[]",
              "name": "attrS",
              "type": "uint256[]"
            },
            {
              "internalType": "uint256",
              "name": "sk_T",
              "type": "uint256"
            },
            {
              "internalType": "uint256[][4]",
              "name": "attrTs",
              "type": "uint256[][4]"
            }
          ],
          "internalType": "struct SoKsp.Wit",
          "name": "wit",
          "type": "tuple"
        }
      ],
      "name": "sign",
      "outputs": [
        {
          "components": [
            {
              "components": [
                {
                  "internalType": "uint256",
                  "name": "X",
                  "type": "uint256"
                },
                {
                  "internalType": "uint256",
                  "name": "Y",
                  "type": "uint256"
                }
              ],
              "internalType": "struct alt_bn128.G1Point",
              "name": "acc_d",
              "type": "tuple"
            },
            {
              "components": [
                {
                  "internalType": "uint256",
                  "name": "z",
                  "type": "uint256"
                },
                {
                  "components": [
                    {
                      "internalType": "uint256",
                      "name": "X",
                      "type": "uint256"
                    },
                    {
                      "internalType": "uint256",
                      "name": "Y",
                      "type": "uint256"
                    }
                  ],
                  "internalType": "struct alt_bn128.G1Point",
                  "name": "R",
                  "type": "tuple"
                },
                {
                  "components": [
                    {
                      "components": [
                        {
                          "internalType": "uint256",
                          "name": "X",
                          "type": "uint256"
                        },
                        {
                          "internalType": "uint256",
                          "name": "Y",
                          "type": "uint256"
                        }
                      ],
                      "internalType": "struct alt_bn128.G1Point[]",
                      "name": "Ls",
                      "type": "tuple[]"
                    },
                    {
                      "components": [
                        {
                          "internalType": "uint256",
                          "name": "X",
                          "type": "uint256"
                        },
                        {
                          "internalType": "uint256",
                          "name": "Y",
                          "type": "uint256"
                        }
                      ],
                      "internalType": "struct alt_bn128.G1Point[]",
                      "name": "Rs",
                      "type": "tuple[]"
                    },
                    {
                      "internalType": "uint256",
                      "name": "a",
                      "type": "uint256"
                    },
                    {
                      "internalType": "uint256",
                      "name": "b",
                      "type": "uint256"
                    }
                  ],
                  "internalType": "struct NISA.Sig",
                  "name": "nisa_sig",
                  "type": "tuple"
                }
              ],
              "internalType": "struct DualRingEC.SigEC",
              "name": "dr_sig",
              "type": "tuple"
            },
            {
              "components": [
                {
                  "components": [
                    {
                      "internalType": "uint256",
                      "name": "X",
                      "type": "uint256"
                    },
                    {
                      "internalType": "uint256",
                      "name": "Y",
                      "type": "uint256"
                    }
                  ],
                  "internalType": "struct alt_bn128.G1Point",
                  "name": "cx",
                  "type": "tuple"
                },
                {
                  "components": [
                    {
                      "internalType": "uint256",
                      "name": "X",
                      "type": "uint256"
                    },
                    {
                      "internalType": "uint256",
                      "name": "Y",
                      "type": "uint256"
                    }
                  ],
                  "internalType": "struct alt_bn128.G1Point",
                  "name": "cy",
                  "type": "tuple"
                },
                {
                  "internalType": "uint256[]",
                  "name": "zs",
                  "type": "uint256[]"
                }
              ],
              "internalType": "struct DiffGenEqual.Sig",
              "name": "dg_tag_sig",
              "type": "tuple"
            },
            {
              "components": [
                {
                  "components": [
                    {
                      "internalType": "uint256",
                      "name": "X",
                      "type": "uint256"
                    },
                    {
                      "internalType": "uint256",
                      "name": "Y",
                      "type": "uint256"
                    }
                  ],
                  "internalType": "struct alt_bn128.G1Point",
                  "name": "c",
                  "type": "tuple"
                },
                {
                  "internalType": "uint256[]",
                  "name": "zs",
                  "type": "uint256[]"
                }
              ],
              "internalType": "struct PartialEquality.Sig",
              "name": "pe_opn_sig",
              "type": "tuple"
            },
            {
              "components": [
                {
                  "components": [
                    {
                      "internalType": "uint256",
                      "name": "X",
                      "type": "uint256"
                    },
                    {
                      "internalType": "uint256",
                      "name": "Y",
                      "type": "uint256"
                    }
                  ],
                  "internalType": "struct alt_bn128.G1Point",
                  "name": "c",
                  "type": "tuple"
                },
                {
                  "internalType": "uint256[]",
                  "name": "zs",
                  "type": "uint256[]"
                }
              ],
              "internalType": "struct PartialEquality.Sig[]",
              "name": "pe_ty_sig",
              "type": "tuple[]"
            },
            {
              "components": [
                {
                  "components": [
                    {
                      "internalType": "uint256",
                      "name": "X",
                      "type": "uint256"
                    },
                    {
                      "internalType": "uint256",
                      "name": "Y",
                      "type": "uint256"
                    }
                  ],
                  "internalType": "struct alt_bn128.G1Point",
                  "name": "cx",
                  "type": "tuple"
                },
                {
                  "components": [
                    {
                      "internalType": "uint256",
                      "name": "X",
                      "type": "uint256"
                    },
                    {
                      "internalType": "uint256",
                      "name": "Y",
                      "type": "uint256"
                    }
                  ],
                  "internalType": "struct alt_bn128.G1Point",
                  "name": "cy",
                  "type": "tuple"
                },
                {
                  "internalType": "uint256[]",
                  "name": "zs",
                  "type": "uint256[]"
                }
              ],
              "internalType": "struct DiffGenEqual.Sig[]",
              "name": "dg_sk_sig",
              "type": "tuple[]"
            }
          ],
          "internalType": "struct SoKsp.Sig",
          "name": "sig",
          "type": "tuple"
        }
      ],
      "stateMutability": "nonpayable",
      "type": "function"
    }
  ],
  "bytecode": "0x60806040523480156200001157600080fd5b50604051620075c8380380620075c8833981016040819052620000349162000164565b600080546001600160a01b0319166001600160a01b0383161790556040516200005d906200013a565b604051809103906000f0801580156200007a573d6000803e3d6000fd5b50600180546001600160a01b0319166001600160a01b0392909216919091179055604051620000a99062000148565b604051809103906000f080158015620000c6573d6000803e3d6000fd5b50600280546001600160a01b0319166001600160a01b0392909216919091179055604051620000f59062000156565b604051809103906000f08015801562000112573d6000803e3d6000fd5b50600380546001600160a01b0319166001600160a01b03929092169190911790555062000196565b611066806200215283390190565b6138ce80620031b883390190565b610b428062006a8683390190565b6000602082840312156200017757600080fd5b81516001600160a01b03811681146200018f57600080fd5b9392505050565b611fac80620001a66000396000f3fe608060405234801561001057600080fd5b506004361061002b5760003560e01c8063f04fdd1214610030575b600080fd5b61004361003e366004611570565b610059565b604051610050919061180a565b60405180910390f35b61006161113c565b60008060009054906101000a90046001600160a01b03166001600160a01b0316632e52d6066040518163ffffffff1660e01b8152600401602060405180830381865afa1580156100b5573d6000803e3d6000fd5b505050506040513d601f19601f820116820180604052508101906100d99190611924565b90506000816001600160401b038111156100f5576100f561124d565b60405190808252806020026020018201604052801561011e578160200160208202803683370190505b50905060005b61012f600584611953565b811015610183578460200151818151811061014c5761014c611966565b602002602001015182828151811061016657610166611966565b60209081029190910101528061017b8161197c565b915050610124565b5060408501516020015181610199600585611953565b815181106101a9576101a9611966565b60209081029190910101526040858101510151816101c8600485611953565b815181106101d8576101d8611966565b60200260200101818152505083602001516005836101f69190611953565b8151811061020657610206611966565b60200260200101518160038461021c9190611953565b8151811061022c5761022c611966565b602090810291909101015260408501515181610249600285611953565b8151811061025957610259611966565b60200260200101818152505073__alt_bn128_____________________________635ec01e4d6040518163ffffffff1660e01b8152600401602060405180830381865af41580156102ae573d6000803e3d6000fd5b505050506040513d601f19601f820116820180604052508101906102d29190611924565b816102de600185611953565b815181106102ee576102ee611966565b6020908102919091010152600080546040516338e0cdcb60e11b81526001600160a01b03909116906371c19b969061032a908590600401611995565b6040805180830381865afa158015610346573d6000803e3d6000fd5b505050506040513d601f19601f8201168201806040525081019061036a91906119d8565b808552905060005b8651518110156103e4576103b261038883611015565b885180518490811061039c5761039c611966565b602002602001015161109990919063ffffffff16565b87518051839081106103c6576103c6611966565b602002602001018190525080806103dc9061197c565b915050610372565b50600254600080546040805163eef6a68160e01b8152815193946001600160a01b039081169463504af2ae949091169263eef6a68192600480820193918290030181865afa15801561043a573d6000803e3d6000fd5b505050506040513d601f19601f8201168201806040525081019061045e91906119d8565b89516000546040805163b8c9d36560e01b815281516001600160a01b039093169263b8c9d365926004808401939192918290030181865afa1580156104a7573d6000803e3d6000fd5b505050506040513d601f19601f820116820180604052508101906104cb91906119d8565b6040518463ffffffff1660e01b81526004016104e993929190611a2e565b600060405180830381865afa158015610506573d6000803e3d6000fd5b505050506040513d6000823e601f3d908101601f1916820160405261052e9190810190611ac1565b9050600060405160200161054d90602080825260009082015260400190565b60408051601f198184030181528282019091529150600090806105c58761057560018b611953565b8151811061058557610585611966565b60200260200101518b6020015160048b61059f9190611953565b815181106105af576105af611966565b60200260200101516110e590919063ffffffff16565b81528951602090910152600254604051634f30e73160e11b81529192506001600160a01b031690639e61ce629061060490869086908690600401611ba8565b600060405180830381865afa158015610621573d6000803e3d6000fd5b505050506040513d6000823e601f3d908101601f191682016040526106499190810190611c43565b6020880152600080546040805162e71aaf60e01b815290516001600160a01b039092169162e71aaf9160048082019286929091908290030181865afa158015610696573d6000803e3d6000fd5b505050506040513d6000823e601f3d908101601f191682016040526106be9190810190611d36565b60035460005460408051632d74e53160e01b815281519495506001600160a01b039384169463ff9cfea99490931692632d74e531926004808401939192918290030181865afa158015610715573d6000803e3d6000fd5b505050506040513d601f19601f8201168201806040525081019061073991906119d8565b6000546040805163babe4fe560e01b8152905186926001600160a01b03169163babe4fe59160048083019260209291908290030181865afa158015610782573d6000803e3d6000fd5b505050506040513d601f19601f820116820180604052508101906107a69190611924565b8a6040518563ffffffff1660e01b81526004016107c69493929190611d6a565b600060405180830381865afa1580156107e3573d6000803e3d6000fd5b505050506040513d6000823e601f3d908101601f1916820160405261080b9190810190611e08565b60408901526000876001600160401b0381111561082a5761082a61124d565b604051908082528060200260200182016040528015610853578160200160208202803683370190505b5060408c0151602001519091508161086c60058b611953565b8151811061087c5761087c611966565b602090810291909101015260408b81015101518161089b60048b611953565b815181106108ab576108ab611966565b602090810291909101015260408b015151816108c860028b611953565b815181106108d8576108d8611966565b60209081029190910101526040805160038082526080820190925260009181602001602082028036833701905050905061091360058a611953565b8160008151811061092657610926611966565b602090810291909101015261093c60048a611953565b8160018151811061094f5761094f611966565b602090810291909101015261096560028a611953565b8160028151811061097857610978611966565b6020908102919091010152600154604051630ceaa4c960e11b81526001600160a01b03909116906319d54992906109b990869086908d908790600401611e98565b600060405180830381865afa1580156109d6573d6000803e3d6000fd5b505050506040513d6000823e601f3d908101601f191682016040526109fe9190810190611ee5565b60608b015260808c015151806001600160401b03811115610a2157610a2161124d565b604051908082528060200260200182016040528015610a5a57816020015b610a4761118a565b815260200190600190039081610a3f5790505b5060808c0152806001600160401b03811115610a7857610a7861124d565b604051908082528060200260200182016040528015610ab157816020015b610a9e6111aa565b815260200190600190039081610a965790505b5060a08c0152896001600160401b03811115610acf57610acf61124d565b604051908082528060200260200182016040528015610af8578160200160208202803683370190505b50925060005b60008054906101000a90046001600160a01b03166001600160a01b031663babe4fe56040518163ffffffff1660e01b8152600401602060405180830381865afa158015610b4f573d6000803e3d6000fd5b505050506040513d601f19601f82011682018060405250810190610b739190611924565b811015610bc7578c602001518181518110610b9057610b90611966565b6020026020010151848281518110610baa57610baa611966565b602090810291909101015280610bbf8161197c565b915050610afe565b5060408051600580825260c08201909252906020820160a08036833701905050915060005b6005811015610c3a5780610c0160058d611953565b610c0b9190611f63565b838281518110610c1d57610c1d611966565b602090810291909101015280610c328161197c565b915050610bec565b5060408c015183610c4c60038d611953565b81518110610c5c57610c5c611966565b60200260200101818152505060005b81811015611004578c606001518160048110610c8957610c89611966565b6020020151600081518110610ca057610ca0611966565b60200260200101518460058d610cb69190611953565b81518110610cc657610cc6611966565b6020026020010181815250508c606001518160048110610ce857610ce8611966565b6020020151600181518110610cff57610cff611966565b60200260200101518460048d610d159190611953565b81518110610d2557610d25611966565b6020026020010181815250508c606001518160048110610d4757610d47611966565b6020020151600281518110610d5e57610d5e611966565b60200260200101518460028d610d749190611953565b81518110610d8457610d84611966565b6020026020010181815250508c606001518160048110610da657610da6611966565b6020020151600381518110610dbd57610dbd611966565b60200260200101518460018d610dd39190611953565b81518110610de357610de3611966565b6020908102919091010152600154604051630ceaa4c960e11b81526001600160a01b03909116906319d5499290610e2490889088908f908990600401611e98565b600060405180830381865afa158015610e41573d6000803e3d6000fd5b505050506040513d6000823e601f3d908101601f19168201604052610e699190810190611ee5565b8c608001518281518110610e7f57610e7f611966565b60209081029190910101526003546000546040805163035e009f60e41b815281516001600160a01b039485169463ff9cfea99416926335e009f092600480820193918290030181865afa158015610eda573d6000803e3d6000fd5b505050506040513d601f19601f82011682018060405250810190610efe91906119d8565b6000546040805163babe4fe560e01b815290518a926001600160a01b03169163babe4fe59160048083019260209291908290030181865afa158015610f47573d6000803e3d6000fd5b505050506040513d601f19601f82011682018060405250810190610f6b9190611924565b886040518563ffffffff1660e01b8152600401610f8b9493929190611d6a565b600060405180830381865afa158015610fa8573d6000803e3d6000fd5b505050506040513d6000823e601f3d908101601f19168201604052610fd09190810190611e08565b8c60a001518281518110610fe657610fe6611966565b60200260200101819052508080610ffc9061197c565b915050610c6b565b505050505050505050505092915050565b61101d6111c6565b815115801561102e57506020820151155b1561104c575050604080518082019091526000808252602082015290565b60405180604001604052808360000151815260200183602001517f30644e72e131a029b85045b68181585d97816a916871ca8d3c208c16d87cfd476110919190611953565b905292915050565b6110a16111c6565b6110a96111e0565b83518152602080850151818301528351604080840191909152908401516060830152826080836006600019fa6110de57600080fd5b5092915050565b600081831015611129578261111a837f30644e72e131a029b85045b68181585d2833e84879b9709143e1f593f0000001611953565b6111249190611f63565b611133565b6111338284611953565b90505b92915050565b6040518060c0016040528061114f6111c6565b815260200161115c6111fe565b81526020016111696111aa565b815260200161117661118a565b815260200160608152602001606081525090565b604051806040016040528061119d6111c6565b8152602001606081525090565b60405180606001604052806111bd6111c6565b815260200161119d5b604051806040016040528060008152602001600081525090565b60405180608001604052806004906020820280368337509192915050565b6040518060600160405280600081526020016112186111c6565b81526020016112486040518060800160405280606081526020016060815260200160008152602001600081525090565b905290565b634e487b7160e01b600052604160045260246000fd5b604080519081016001600160401b03811182821017156112855761128561124d565b60405290565b604051608081016001600160401b03811182821017156112855761128561124d565b60405160c081016001600160401b03811182821017156112855761128561124d565b604051606081016001600160401b03811182821017156112855761128561124d565b604051601f8201601f191681016001600160401b03811182821017156113195761131961124d565b604052919050565b60006001600160401b0382111561133a5761133a61124d565b5060051b60200190565b60006040828403121561135657600080fd5b61135e611263565b9050813581526020820135602082015292915050565b600082601f83011261138557600080fd5b8135602061139a61139583611321565b6112f1565b82815260069290921b840181019181810190868411156113b957600080fd5b8286015b848110156113dd576113cf8882611344565b8352918301916040016113bd565b509695505050505050565b600082601f8301126113f957600080fd5b6114016112cf565b80606084018581111561141357600080fd5b845b8181101561142d578035845260209384019301611415565b509095945050505050565b600082601f83011261144957600080fd5b8135602061145961139583611321565b82815260059290921b8401810191818101908684111561147857600080fd5b8286015b848110156113dd578035835291830191830161147c565b6000608082840312156114a557600080fd5b6114ad61128b565b8235815290506020808301356001600160401b03808211156114ce57600080fd5b6114da86838701611438565b838501526040850135604085015260608501359150808211156114fc57600080fd5b818501915085601f83011261151057600080fd5b61151861128b565b80608084018881111561152a57600080fd5b845b8181101561155e578035858111156115445760008081fd5b6115508b828901611438565b85525092860192860161152c565b50506060860152509295945050505050565b6000806040838503121561158357600080fd5b82356001600160401b038082111561159a57600080fd5b9084019061014082870312156115af57600080fd5b6115b76112ad565b8235828111156115c657600080fd5b6115d288828601611374565b8252506115e28760208501611344565b60208201526115f487606085016113e8565b60408201526116068760c08501611344565b60608201526101008301358281111561161e57600080fd5b61162a88828601611374565b6080830152506101208301358281111561164357600080fd5b61164f88828601611374565b60a0830152509350602085013591508082111561166b57600080fd5b5061167885828601611493565b9150509250929050565b80518252602090810151910152565b600081518084526020808501945080840160005b838110156116cb576116b8878351611682565b60409690960195908201906001016116a5565b509495945050505050565b600081518084526020808501945080840160005b838110156116cb578151875295820195908201906001016116ea565b611711828251611682565b600060208201516117256040850182611682565b50604082015160a0608085015261173f60a08501826116d6565b949350505050565b611752828251611682565b600060208201516060604085015261173f60608501826116d6565b600081518084526020808501808196508360051b8101915082860160005b858110156117b55782840389526117a3848351611747565b9885019893509084019060010161178b565b5091979650505050505050565b600081518084526020808501808196508360051b8101915082860160005b858110156117b55782840389526117f8848351611706565b988501989350908401906001016117e0565b6020815261181c602082018351611682565b6000602083015160e0606084015280516101008401526020810151611845610120850182611682565b506040810151905060806101608401528051608061018085015261186d610200850182611691565b9050602082015161017f19858303016101a086015261188c8282611691565b91505060408201516101c085015260608201516101e085015260408501519150601f19808583030160808601526118c38284611706565b925060608601519150808584030160a08601526118e08383611747565b925060808601519150808584030160c08601526118fd838361176d565b925060a08601519150808584030160e08601525061191b82826117c2565b95945050505050565b60006020828403121561193657600080fd5b5051919050565b634e487b7160e01b600052601160045260246000fd5b818103818111156111365761113661193d565b634e487b7160e01b600052603260045260246000fd5b60006001820161198e5761198e61193d565b5060010190565b60208152600061113360208301846116d6565b6000604082840312156119ba57600080fd5b6119c2611263565b9050815181526020820151602082015292915050565b6000604082840312156119ea57600080fd5b61113383836119a8565b600081518084526020808501945080840160005b838110156116cb57611a1b878351611682565b6040969096019590820190600101611a08565b611a388185611682565b60a060408201526000611a4e60a08301856119f4565b905061173f6060830184611682565b600082601f830112611a6e57600080fd5b81516020611a7e61139583611321565b82815260069290921b84018101918181019086841115611a9d57600080fd5b8286015b848110156113dd57611ab388826119a8565b835291830191604001611aa1565b600060208284031215611ad357600080fd5b81516001600160401b0380821115611aea57600080fd5b9083019060608286031215611afe57600080fd5b611b06611263565b825182811115611b1557600080fd5b830160608188031215611b2757600080fd5b611b2f611263565b611b3988836119a8565b8152604082015184811115611b4d57600080fd5b611b5989828501611a5d565b6020830152508083525050611b7186602085016119a8565b602082015295945050505050565b8060005b6002811015611ba2578151845260209384019390910190600101611b83565b50505050565b608081526000845160606080840152611bc560e084018251611682565b602090810151606061012085015290611be2610140850183611691565b915080870151611bf560a0860182611682565b5083820381850152855180835260005b81811015611c20578781018301518482018401528201611c05565b506000838201830152601f01601f191690910101905061173f6040830184611b7f565b600060208284031215611c5557600080fd5b81516001600160401b0380821115611c6c57600080fd5b9083019060808286031215611c8057600080fd5b611c886112cf565b82518152611c9986602085016119a8565b6020820152606083015182811115611cb057600080fd5b929092019160808387031215611cc557600080fd5b611ccd61128b565b835183811115611cdc57600080fd5b611ce888828701611a5d565b825250602084015183811115611cfd57600080fd5b611d0988828701611a5d565b60208301525060408401516040820152606084015160608201528060408301525080935050505092915050565b600060208284031215611d4857600080fd5b81516001600160401b03811115611d5e57600080fd5b61173f84828501611a5d565b611d748186611682565b60a060408201526000611d8a60a08301866119f4565b8460608401528281036080840152611da281856116d6565b979650505050505050565b600082601f830112611dbe57600080fd5b81516020611dce61139583611321565b82815260059290921b84018101918181019086841115611ded57600080fd5b8286015b848110156113dd5780518352918301918301611df1565b600060208284031215611e1a57600080fd5b81516001600160401b0380821115611e3157600080fd5b9083019060a08286031215611e4557600080fd5b611e4d6112cf565b611e5786846119a8565b8152611e6686604085016119a8565b6020820152608083015182811115611e7d57600080fd5b611e8987828601611dad565b60408301525095945050505050565b608081526000611eab60808301876119f4565b8281036020840152611ebd81876116d6565b90508281036040840152611ed181866116d6565b90508281036060840152611da281856116d6565b600060208284031215611ef757600080fd5b81516001600160401b0380821115611f0e57600080fd5b9083019060608286031215611f2257600080fd5b611f2a611263565b611f3486846119a8565b8152604083015182811115611f4857600080fd5b611f5487828601611dad565b60208301525095945050505050565b808201808211156111365761113661193d56fea26469706673582212206b69fa05ee485cf0bb6a89982506382aec2e4f160c4e710c7eaceda8675ca2b864736f6c63430008130033608060405234801561001057600080fd5b50611046806100206000396000f3fe608060405234801561001057600080fd5b506004361061004c5760003560e01c806319d54992146100515780633ef87f261461007a5780639460eead1461009d578063f96ce23b146100b0575b600080fd5b61006461005f366004610c05565b6100c3565b6040516100719190610cb1565b60405180910390f35b61008d610088366004610d62565b61040e565b6040519015158152602001610071565b6100646100ab366004610e0d565b6104ea565b61008d6100be366004610e94565b61071e565b6100cb6109ff565b82518451146100f55760405162461bcd60e51b81526004016100ec90610f0e565b60405180910390fd5b8151845181111561010557600080fd5b6000816001600160401b0381111561011f5761011f610a75565b604051908082528060200260200182016040528015610148578160200160208202803683370190505b50905060006040518060400160405280600081526020016000815250905060005b838110156102e15773__alt_bn128_____________________________635ec01e4d6040518163ffffffff1660e01b8152600401602060405180830381865af41580156101ba573d6000803e3d6000fd5b505050506040513d601f19601f820116820180604052508101906101de9190610f55565b8382815181106101f0576101f0610f6e565b602002602001018181525050885186828151811061021057610210610f6e565b6020026020010151106102655760405162461bcd60e51b815260206004820152601f60248201527f5061727469616c457175616c7469793a20496e646578204f766572666c6f770060448201526064016100ec565b6102cd6102c684838151811061027d5761027d610f6e565b60200260200101518b89858151811061029857610298610f6e565b6020026020010151815181106102b0576102b0610f6e565b602002602001015161083790919063ffffffff16565b83906108a0565b9150806102d981610f9a565b915050610169565b506000816040516020016102f59190610fb3565b6040516020818303038152906040528051906020012060001c905060005b848110156103ed576103be610396836103908c8b868151811061033857610338610f6e565b60200260200101518151811061035057610350610f6e565b60200260200101518c8c878151811061036b5761036b610f6e565b60200260200101518151811061038357610383610f6e565b60200260200101516108e5565b90610928565b8583815181106103a8576103a8610f6e565b602002602001015161094390919063ffffffff16565b8482815181106103d0576103d0610f6e565b6020908102919091010152806103e581610f9a565b915050610313565b50506040805180820190915290815260208101919091529695505050505050565b6040805180820190915260008082526020820181905290815b865181101561047b576104676102c68560200151838151811061044c5761044c610f6e565b60200260200101518a8a858151811061029857610298610f6e565b91508061047381610f9a565b915050610427565b50825160405160009161049091602001610fb3565b6040516020818303038152906040528051906020012060001c905060006104d185600001516104c6846104cb8b6104c68c61095e565b6108a0565b90610837565b90506104dd83826109e2565b9998505050505050505050565b6104f26109ff565b81518351148015610504575082518451145b6105205760405162461bcd60e51b81526004016100ec90610f0e565b600083516001600160401b0381111561053b5761053b610a75565b604051908082528060200260200182016040528015610564578160200160208202803683370190505b50905060006040518060400160405280600081526020016000815250905060005b825181101561065f5773__alt_bn128_____________________________635ec01e4d6040518163ffffffff1660e01b8152600401602060405180830381865af41580156105d7573d6000803e3d6000fd5b505050506040513d601f19601f820116820180604052508101906105fb9190610f55565b83828151811061060d5761060d610f6e565b60200260200101818152505061064b6102c684838151811061063157610631610f6e565b60200260200101518984815181106102b0576102b0610f6e565b91508061065781610f9a565b915050610585565b506000816040516020016106739190610fb3565b6040516020818303038152906040528051906020012060001c905060005b83518110156106ff576106d0610396836103908a85815181106106b6576106b6610f6e565b60200260200101518a868151811061038357610383610f6e565b8482815181106106e2576106e2610f6e565b6020908102919091010152806106f781610f9a565b915050610691565b5050604080518082019091529081526020810191909152949350505050565b60008160200151518551146107845760405162461bcd60e51b815260206004820152602660248201527f5061727469616c457175616c6974793a2076657269667920756e657175616c206044820152650d8cadccee8d60d31b60648201526084016100ec565b604080518082019091526000808252602082018190525b86518110156107d4576107c06102c68560200151838151811061063157610631610f6e565b9150806107cc81610f9a565b91505061079b565b5082516040516000916107e991602001610fb3565b6040516020818303038152906040528051906020012060001c9050600061081f85600001516104c6846104cb8b6104c68c61095e565b905061082b83826109e2565b98975050505050505050565b61083f610a1f565b8160010361084e57508161089a565b816002036108675761086083846108a0565b905061089a565b61086f610a39565b83518152602080850151908201526040808201849052826060836007600019fa61089857600080fd5b505b92915050565b6108a8610a1f565b6108b0610a57565b83518152602080850151818301528351604080840191909152908401516060830152826080836006600019fa61089857600080fd5b600081831015610917578261090883600080516020610ff1833981519152610fca565b6109129190610fdd565b610921565b6109218284610fca565b9392505050565b6000600080516020610ff18339815191528284099392505050565b6000600080516020610ff18339815191528284089392505050565b610966610a1f565b815115801561097757506020820151155b15610995575050604080518082019091526000808252602082015290565b60405180604001604052808360000151815260200183602001517f30644e72e131a029b85045b68181585d97816a916871ca8d3c208c16d87cfd476109da9190610fca565b905292915050565b805182516000911480156109215750506020908101519101511490565b6040518060400160405280610a12610a1f565b8152602001606081525090565b604051806040016040528060008152602001600081525090565b60405180606001604052806003906020820280368337509192915050565b60405180608001604052806004906020820280368337509192915050565b634e487b7160e01b600052604160045260246000fd5b604080519081016001600160401b0381118282101715610aad57610aad610a75565b60405290565b604051601f8201601f191681016001600160401b0381118282101715610adb57610adb610a75565b604052919050565b60006001600160401b03821115610afc57610afc610a75565b5060051b60200190565b600060408284031215610b1857600080fd5b610b20610a8b565b9050813581526020820135602082015292915050565b600082601f830112610b4757600080fd5b81356020610b5c610b5783610ae3565b610ab3565b82815260069290921b84018101918181019086841115610b7b57600080fd5b8286015b84811015610b9f57610b918882610b06565b835291830191604001610b7f565b509695505050505050565b600082601f830112610bbb57600080fd5b81356020610bcb610b5783610ae3565b82815260059290921b84018101918181019086841115610bea57600080fd5b8286015b84811015610b9f5780358352918301918301610bee565b60008060008060808587031215610c1b57600080fd5b84356001600160401b0380821115610c3257600080fd5b610c3e88838901610b36565b95506020870135915080821115610c5457600080fd5b610c6088838901610baa565b94506040870135915080821115610c7657600080fd5b610c8288838901610baa565b93506060870135915080821115610c9857600080fd5b50610ca587828801610baa565b91505092959194509250565b602080825282518051838301528101516040830152600090608083018482015160608581015280519182905282019060009060a08601905b80831015610b9f5783518252928401926001929092019190840190610ce9565b600060608284031215610d1b57600080fd5b610d23610a8b565b9050610d2f8383610b06565b815260408201356001600160401b03811115610d4a57600080fd5b610d5684828501610baa565b60208301525092915050565b600080600080600060e08688031215610d7a57600080fd5b85356001600160401b0380821115610d9157600080fd5b610d9d89838a01610b36565b96506020880135915080821115610db357600080fd5b610dbf89838a01610baa565b9550610dce8960408a01610b06565b9450610ddd8960808a01610b06565b935060c0880135915080821115610df357600080fd5b50610e0088828901610d09565b9150509295509295909350565b600080600060608486031215610e2257600080fd5b83356001600160401b0380821115610e3957600080fd5b610e4587838801610b36565b94506020860135915080821115610e5b57600080fd5b610e6787838801610baa565b93506040860135915080821115610e7d57600080fd5b50610e8a86828701610baa565b9150509250925092565b60008060008060c08587031215610eaa57600080fd5b84356001600160401b0380821115610ec157600080fd5b610ecd88838901610b36565b9550610edc8860208901610b06565b9450610eeb8860608901610b06565b935060a0870135915080821115610f0157600080fd5b50610ca587828801610d09565b60208082526027908201527f5061727469616c457175616c7469793a207769746e65737320756e657175616c604082015266040d8cadccee8d60cb1b606082015260800190565b600060208284031215610f6757600080fd5b5051919050565b634e487b7160e01b600052603260045260246000fd5b634e487b7160e01b600052601160045260246000fd5b600060018201610fac57610fac610f84565b5060010190565b81518152602080830151908201526040810161089a565b8181038181111561089a5761089a610f84565b8082018082111561089a5761089a610f8456fe30644e72e131a029b85045b68181585d2833e84879b9709143e1f593f0000001a2646970667358221220076f8d0e9991cd3aa1674b2625b0fc399749fc30ec968b9c10b47c9667bcff7f64736f6c63430008130033608060405234801561001057600080fd5b5060405161001d9061005f565b604051809103906000f080158015610039573d6000803e3d6000fd5b50600080546001600160a01b0319166001600160a01b039290921691909117905561006c565b611cbd80611c1183390190565b611b968061007b6000396000f3fe608060405234801561001057600080fd5b506004361061006d5760003560e01c8063504af2ae146100725780636b7411c51461009b57806375242580146100be5780637d2beca3146100d15780639e61ce62146100e45780639e8e957d14610104578063f4f4b60914610126575b600080fd5b6100856100803660046110b5565b610146565b604051610092919061118e565b60405180910390f35b6100ae6100a9366004611297565b610175565b6040519015158152602001610092565b6100ae6100cc3660046113f8565b61024a565b6100856100df366004611583565b610384565b6100f76100f23660046115b0565b61041e565b604051610092919061166a565b6101176101123660046116a2565b610545565b6040516100929392919061170a565b610139610134366004611583565b61081c565b6040516100929190611747565b61014e610e01565b50604080516080810182529081019384526060810192909252918152602081019190915290565b60008061018a85600001518460200151610a2c565b90506000805b866020015151811015610230576101ea836101e5896020015184815181106101ba576101ba61175a565b6020026020010151886000015185815181106101d8576101d861175a565b6020026020010151610a2c565b610a93565b925061021c856000015182815181106102055761020561175a565b602002602001015183610ad890919063ffffffff16565b91508061022881611786565b915050610190565b5061024085876020015184610af3565b1495945050505050565b600080610264848660000151602001518560200151610af3565b8351865151919250600091610290916102859161028091610a2c565b610bc7565b602086015190610a93565b6040805160808101825288516020908101518252808a015190820152808201839052606081018590526000548783015192516310a4eddf60e21b815293945090926001600160a01b0390911691634293b77c916102f19185916004016117f0565b602060405180830381865afa15801561030e573d6000803e3d6000fd5b505050506040513d601f19601f82011682018060405250810190610332919061181e565b6103775760405162461bcd60e51b8152602060048201526011602482015270111d585b149a5b99d150c819985a5b1959607a1b60448201526064015b60405180910390fd5b5060019695505050505050565b61038c610e01565b610396838361081c565b816000018190525061041373__alt_bn128_____________________________635ec01e4d6040518163ffffffff1660e01b8152600401602060405180830381865af41580156103ea573d6000803e3d6000fd5b505050506040513d601f19601f8201168201806040525081019061040e9190611840565b610c39565b602082015292915050565b610426610e26565b61042e610e70565b6000610438610e8a565b8651610445908787610545565b604080516080810182528b516020908101518252808d0151818301528501518c51519598509396509194506000939192908301916104919161048a9161028091610a2c565b8590610a93565b8152602001849052600080548651604051630ae8fb3b60e21b815293945091926001600160a01b0390911691632ba3ecec916104d1918691600401611859565b600060405180830381865afa1580156104ee573d6000803e3d6000fd5b505050506040513d6000823e601f3d908101601f1916820160405261051691908101906118fd565b905060405180606001604052808660200151815260200184815260200182815250955050505050509392505050565b61054d610e70565b6000610557610e8a565b6020868101515190850151106105ba5760405162461bcd60e51b815260206004820152602260248201527f4475616c52696e673a20736563726574206b657920696e76616c696420696e646044820152610caf60f31b606482015260840161036e565b60008660200151516001600160401b038111156105d9576105d9610f3c565b604051908082528060200260200182016040528015610602578160200160208202803683370190505b509050600073__alt_bn128_____________________________635ec01e4d6040518163ffffffff1660e01b8152600401602060405180830381865af4158015610650573d6000803e3d6000fd5b505050506040513d601f19601f820116820180604052508101906106749190611840565b9050610684886000015182610a2c565b92506000805b896020015151811015610790576020880151811461077e5773__alt_bn128_____________________________635ec01e4d6040518163ffffffff1660e01b8152600401602060405180830381865af41580156106eb573d6000803e3d6000fd5b505050506040513d601f19601f8201168201806040525081019061070f9190611840565b8482815181106107215761072161175a565b6020026020010181815250506107428482815181106102055761020561175a565b915061077b856101e58c6020015184815181106107615761076161175a565b60200260200101518785815181106101d8576101d861175a565b94505b8061078881611786565b91505061068a565b506107a0888a6020015186610af3565b945060006107ae8683610d33565b905080848960016020020151815181106107ca576107ca61175a565b602090810291909101015287516000906107f8906107f1906107ec9085610d76565b610d91565b8590610ad8565b60408051808201909152958652602086015250929994985092965092945050505050565b610824610ea4565b602082015183116108855760405162461bcd60e51b815260206004820152602560248201527f4475616c52696e673a20736563726574206b657920696e76616c696420706f7360448201526434ba34b7b760d91b606482015260840161036e565b6108d173__alt_bn128_____________________________635ec01e4d6040518163ffffffff1660e01b8152600401602060405180830381865af41580156103ea573d6000803e3d6000fd5b8152826001600160401b038111156108eb576108eb610f3c565b60405190808252806020026020018201604052801561092457816020015b610911610e8a565b8152602001906001900390816109095790505b5060208201528151815161093791610a2c565b60208281015190840151815181106109515761095161175a565b602002602001018190525060005b83811015610a255760208301518114610a1357600073__alt_bn128_____________________________635ec01e4d6040518163ffffffff1660e01b8152600401602060405180830381865af41580156109bd573d6000803e3d6000fd5b505050506040513d601f19601f820116820180604052508101906109e19190611840565b83519091506109f09082610a2c565b83602001518381518110610a0657610a0661175a565b6020026020010181905250505b80610a1d81611786565b91505061095f565b5092915050565b610a34610e8a565b81600103610a43575081610a8d565b81600203610a5c57610a558384610a93565b9050610a8d565b610a64610ec4565b83518152602080850151908201526040808201849052826060836007600019fa610a2557600080fd5b92915050565b610a9b610e8a565b610aa3610ee2565b83518152602080850151818301528351604080840191909152908401516060830152826080836006600019fa610a2557600080fd5b6000600080516020611b418339815191528284089392505050565b604051630ef39c1960e41b8152600090600080516020611b4183398151915290859073__alt_bn128_____________________________9063ef39c19090610b3f9088906004016119ba565b600060405180830381865af4158015610b5c573d6000803e3d6000fd5b505050506040513d6000823e601f3d908101601f19168201604052610b849190810190611a2b565b8451602080870151604051610b9c9594939201611a98565b6040516020818303038152906040528051906020012060001c610bbf9190611ad2565b949350505050565b610bcf610e8a565b8151158015610be057506020820151155b15610bfe575050604080518082019091526000808252602082015290565b6040518060400160405280836000015181526020018360200151600080516020611b21833981519152610c319190611ae6565b905292915050565b610c41610e8a565b6000610c5b600080516020611b2183398151915284611ad2565b90506000610c6a600183611ae6565b91506000805b81610d1957610c80600185611af9565b9350600080516020611b218339815191528485099050600080516020611b218339815191528482099050600080516020611b21833981519152600382089050610cfc816004610cde600080516020611b218339815191526001611af9565b610ce89190611b0c565b600080516020611b21833981519152610dab565b925080600080516020611b21833981519152848509149150610c70565b505060408051808201909152918252602082015292915050565b600081831015610d655782610d5683600080516020611b41833981519152611ae6565b610d609190611af9565b610d6f565b610d6f8284611ae6565b9392505050565b6000600080516020611b418339815191528284099392505050565b6000610a8d82600080516020611b41833981519152611ae6565b6000610db5610f00565b610dbd610f1e565b602080835282810181905260408301819052606083018790526080830186905260a083018590528160c0846005600019fa610df757600080fd5b5195945050505050565b6040518060400160405280610e14610ea4565b8152602001610e21610e8a565b905290565b604051806060016040528060008152602001610e40610e8a565b8152602001610e216040518060800160405280606081526020016060815260200160008152602001600081525090565b604051806040016040528060608152602001600081525090565b604051806040016040528060008152602001600081525090565b6040518060400160405280610eb7610e8a565b8152602001606081525090565b60405180606001604052806003906020820280368337509192915050565b60405180608001604052806004906020820280368337509192915050565b6040518060c001604052806006906020820280368337509192915050565b60405180602001604052806001906020820280368337509192915050565b634e487b7160e01b600052604160045260246000fd5b604080519081016001600160401b0381118282101715610f7457610f74610f3c565b60405290565b604051606081016001600160401b0381118282101715610f7457610f74610f3c565b604051608081016001600160401b0381118282101715610f7457610f74610f3c565b604051601f8201601f191681016001600160401b0381118282101715610fe657610fe6610f3c565b604052919050565b60006040828403121561100057600080fd5b611008610f52565b9050813581526020820135602082015292915050565b60006001600160401b0382111561103757611037610f3c565b5060051b60200190565b600082601f83011261105257600080fd5b813560206110676110628361101e565b610fbe565b82815260069290921b8401810191818101908684111561108657600080fd5b8286015b848110156110aa5761109c8882610fee565b83529183019160400161108a565b509695505050505050565b600080600060a084860312156110ca57600080fd5b6110d48585610fee565b925060408401356001600160401b038111156110ef57600080fd5b6110fb86828701611041565b92505061110b8560608601610fee565b90509250925092565b80518252602090810151910152565b600081518084526020808501945080840160005b8381101561115d5761114a878351611114565b6040969096019590820190600101611137565b509495945050505050565b611173828251611114565b6000602082015160606040850152610bbf6060850182611123565b6020815260008251606060208401526111aa6080840182611168565b905060208401516111be6040850182611114565b509392505050565b6000606082840312156111d857600080fd5b6111e0610f52565b90506111ec8383610fee565b815260408201356001600160401b0381111561120757600080fd5b61121384828501611041565b60208301525092915050565b60006001600160401b0382111561123857611238610f3c565b50601f01601f191660200190565b600082601f83011261125757600080fd5b81356112656110628261121f565b81815284602083860101111561127a57600080fd5b816020850160208301376000918101602001919091529392505050565b6000806000606084860312156112ac57600080fd5b83356001600160401b03808211156112c357600080fd5b6112cf878388016111c6565b94506020915081860135818111156112e657600080fd5b6112f288828901611246565b94505060408601358181111561130757600080fd5b86016040818903121561131957600080fd5b611321610f52565b81358381111561133057600080fd5b82019250601f8301891361134357600080fd5b82356113516110628261101e565b81815260059190911b8401850190858101908b83111561137057600080fd5b948601945b8286101561138e57853582529486019490860190611375565b8084525050508382013584820152809450505050509250925092565b6000606082840312156113bc57600080fd5b6113c4610f52565b905081356001600160401b038111156113dc57600080fd5b6113e8848285016111c6565b8252506104138360208401610fee565b60008060006060848603121561140d57600080fd5b83356001600160401b038082111561142457600080fd5b611430878388016113aa565b9450602086013591508082111561144657600080fd5b61145287838801611246565b9350604086013591508082111561146857600080fd5b908501906080828803121561147c57600080fd5b611484610f7a565b823581526114958860208501610fee565b60208201526060830135828111156114ac57600080fd5b9290920191608083890312156114c157600080fd5b6114c9610f9c565b8335838111156114d857600080fd5b6114e48a828701611041565b8252506020840135838111156114f957600080fd5b6115058a828701611041565b6020830152506040840135604082015260608401356060820152806040830152508093505050509250925092565b600082601f83011261154457600080fd5b61154c610f52565b80604084018581111561155e57600080fd5b845b81811015611578578035845260209384019301611560565b509095945050505050565b6000806060838503121561159657600080fd5b823591506115a78460208501611533565b90509250929050565b6000806000608084860312156115c557600080fd5b83356001600160401b03808211156115dc57600080fd5b6115e8878388016113aa565b945060208601359150808211156115fe57600080fd5b5061160b86828701611246565b92505061110b8560408601611533565b60008151608084526116306080850182611123565b9050602083015184820360208601526116498282611123565b91505060408301516040850152606083015160608501528091505092915050565b6020815281516020820152600060208301516116896040840182611114565b506040830151608080840152610bbf60a084018261161b565b6000806000608084860312156116b757600080fd5b83356001600160401b03808211156116ce57600080fd5b6115e8878388016111c6565b600081518084526020808501945080840160005b8381101561115d578151875295820195908201906001016116ee565b60808152600084516040608084015261172660c08401826116da565b60208781015160a086015284018690529150610bbf90506040830184611114565b602081526000610d6f6020830184611168565b634e487b7160e01b600052603260045260246000fd5b634e487b7160e01b600052601160045260246000fd5b60006001820161179857611798611770565b5060010190565b6000815160c084526117b460c0850182611123565b905060208301516117c86020860182611114565b5060408301516117db6060860182611114565b50606083015160a08501528091505092915050565b604081526000611803604083018561179f565b8281036020840152611815818561161b565b95945050505050565b60006020828403121561183057600080fd5b81518015158114610d6f57600080fd5b60006020828403121561185257600080fd5b5051919050565b60408152600061186c604083018561179f565b828103602084015261181581856116da565b600082601f83011261188f57600080fd5b8151602061189f6110628361101e565b82815260069290921b840181019181810190868411156118be57600080fd5b8286015b848110156110aa57604081890312156118db5760008081fd5b6118e3610f52565b8151815284820151858201528352918301916040016118c2565b60006020828403121561190f57600080fd5b81516001600160401b038082111561192657600080fd5b908301906080828603121561193a57600080fd5b611942610f9c565b82518281111561195157600080fd5b61195d8782860161187e565b82525060208301518281111561197257600080fd5b61197e8782860161187e565b602083015250604083015160408201526060830151606082015280935050505092915050565b634e487b7160e01b600052601260045260246000fd5b602080825282518282018190526000919060409081850190868401855b828110156119fa576119ea848351611114565b92840192908501906001016119d7565b5091979650505050505050565b60005b83811015611a22578181015183820152602001611a0a565b50506000910152565b600060208284031215611a3d57600080fd5b81516001600160401b03811115611a5357600080fd5b8201601f81018413611a6457600080fd5b8051611a726110628261121f565b818152856020838501011115611a8757600080fd5b611815826020830160208601611a07565b60008551611aaa818460208a01611a07565b855190830190611abe818360208a01611a07565b019384525050602082015260400192915050565b600082611ae157611ae16119a4565b500690565b81810381811115610a8d57610a8d611770565b80820180821115610a8d57610a8d611770565b600082611b1b57611b1b6119a4565b50049056fe30644e72e131a029b85045b68181585d97816a916871ca8d3c208c16d87cfd4730644e72e131a029b85045b68181585d2833e84879b9709143e1f593f0000001a2646970667358221220169c6e6c7bcc8be6bbf7870c52d2eebf90047edb1003818d17cbb19b9276d52e64736f6c63430008130033608060405234801561001057600080fd5b50611c9d806100206000396000f3fe608060405234801561001057600080fd5b50600436106100415760003560e01c806324f35549146100465780632ba3ecec1461006f5780634293b77c1461008f575b600080fd5b61005961005436600461167a565b6100b2565b604051610066919061170a565b60405180910390f35b61008261007d366004611889565b6102a8565b60405161006691906118ec565b6100a261009d366004611946565b610827565b6040519015158152602001610066565b6100ba6114b8565b600182516100c89190611a27565b825116156100f15760405162461bcd60e51b81526004016100e890611a3a565b60405180910390fd5b81516001600160401b0381111561010a5761010a61157e565b60405190808252806020026020018201604052801561014357816020015b6101306114ec565b8152602001906001900390816101285790505b50815260005b825181101561019757610165610160826002611a7e565b610e07565b825180518390811061017957610179611a91565b6020026020010181905250808061018f90611aa7565b915050610149565b506101a26001610e07565b6020820152815182906000906101ba576101ba611a91565b602002602001015181606001818152505061020d81600001516000815181106101e5576101e5611a91565b60200260200101518360008151811061020057610200611a91565b6020026020010151610f01565b604082015260015b82518110156102a257610245826060015184838151811061023857610238611a91565b6020026020010151610f69565b606083015260408201518251805161028b9291610286918590811061026c5761026c611a91565b602002602001015186858151811061020057610200611a91565b610f84565b60408301528061029a81611aa7565b915050610215565b50919050565b6102d36040518060800160405280606081526020016060815260200160008152602001600081525090565b600182516102e19190611a27565b825116156103015760405162461bcd60e51b81526004016100e890611a3a565b600061030d8351610fc9565b9050806001600160401b038111156103275761032761157e565b60405190808252806020026020018201604052801561036057816020015b61034d6114ec565b8152602001906001900390816103455790505b508252806001600160401b0381111561037b5761037b61157e565b6040519080825280602002602001820160405280156103b457816020015b6103a16114ec565b8152602001906001900390816103995790505b5060208301526040808501519051632f2d020d60e01b815260009173__alt_bn128_____________________________91632f2d020d916103f791600401611ac0565b600060405180830381865af4158015610414573d6000803e3d6000fd5b505050506040513d6000823e601f3d908101601f1916820160405261043c9190810190611af2565b6020860151604051632f2d020d60e01b815273__alt_bn128_____________________________91632f2d020d916104779190600401611ac0565b600060405180830381865af4158015610494573d6000803e3d6000fd5b505050506040513d6000823e601f3d908101601f191682016040526104bc9190810190611af2565b86606001516040516020016104d393929190611b85565b6040516020818303038152906040528051906020012060001c905060006104fe866020015183610f01565b9050600085516001600160401b0381111561051b5761051b61157e565b604051908082528060200260200182016040528015610544578160200160208202803683370190505b509050600086516001600160401b038111156105625761056261157e565b60405190808252806020026020018201604052801561059b57816020015b6105886114ec565b8152602001906001900390816105805790505b50905060005b82518110156106155760018382815181106105be576105be611a91565b602090810291909101015288518051829081106105dd576105dd611a91565b60200260200101518282815181106105f7576105f7611a91565b6020026020010181905250808061060d90611aa7565b9150506105a1565b5061061e6114ec565b6106266114ec565b6000805b888110156107d05761063e858c888a610ff3565b8b51805192965090945085918390811061065a5761065a611a91565b6020026020010181905250828a60200151828151811061067c5761067c611a91565b6020908102919091010152604051632f2d020d60e01b815273__alt_bn128_____________________________90632f2d020d906106be908790600401611ac0565b600060405180830381865af41580156106db573d6000803e3d6000fd5b505050506040513d6000823e601f3d908101601f191682016040526107039190810190611af2565b604051632f2d020d60e01b815273__alt_bn128_____________________________90632f2d020d9061073a908790600401611ac0565b600060405180830381865af4158015610757573d6000803e3d6000fd5b505050506040513d6000823e601f3d908101601f1916820160405261077f9190810190611af2565b604051602001610790929190611bba565b6040516020818303038152906040528051906020012060001c91506107b7858c88856111ce565b909c5096509450806107c881611aa7565b91505061062a565b50896000815181106107e4576107e4611a91565b60200260200101518960400181815250508460008151811061080857610808611a91565b6020026020010151896060018181525050505050505050505092915050565b600080610838846000015151610fc9565b90506000816001600160401b038111156108545761085461157e565b60405190808252806020026020018201604052801561087d578160200160208202803683370190505b5090506000826001600160401b0381111561089a5761089a61157e565b6040519080825280602002602001820160405280156108c3578160200160208202803683370190505b50905060008073__alt_bn128_____________________________632f2d020d89604001516040518263ffffffff1660e01b81526004016109049190611ac0565b600060405180830381865af4158015610921573d6000803e3d6000fd5b505050506040513d6000823e601f3d908101601f191682016040526109499190810190611af2565b6020890151604051632f2d020d60e01b815273__alt_bn128_____________________________91632f2d020d916109849190600401611ac0565b600060405180830381865af41580156109a1573d6000803e3d6000fd5b505050506040513d6000823e601f3d908101601f191682016040526109c99190810190611af2565b89606001516040516020016109e093929190611b85565b6040516020818303038152906040528051906020012060001c90506000610a2089604001516102868b60200151610a1b8d60600151876113f2565b610f01565b90506001925060005b86811015610cce5773__alt_bn128_____________________________632f2d020d8a600001518381518110610a6157610a61611a91565b60200260200101516040518263ffffffff1660e01b8152600401610a859190611ac0565b600060405180830381865af4158015610aa2573d6000803e3d6000fd5b505050506040513d6000823e601f3d908101601f19168201604052610aca9190810190611af2565b73__alt_bn128_____________________________632f2d020d8b602001518481518110610afa57610afa611a91565b60200260200101516040518263ffffffff1660e01b8152600401610b1e9190611ac0565b600060405180830381865af4158015610b3b573d6000803e3d6000fd5b505050506040513d6000823e601f3d908101601f19168201604052610b639190810190611af2565b604051602001610b74929190611bba565b6040516020818303038152906040528051906020012060001c868281518110610b9f57610b9f611a91565b602002602001018181525050610bcd868281518110610bc057610bc0611a91565b602002602001015161140d565b858281518110610bdf57610bdf611a91565b602002602001018181525050610c4c826102868b600001518481518110610c0857610c08611a91565b6020026020010151610a1b8a8681518110610c2557610c25611a91565b60200260200101518b8781518110610c3f57610c3f611a91565b60200260200101516113f2565b9150610ca2826102868b602001518481518110610c6b57610c6b611a91565b6020026020010151610a1b898681518110610c8857610c88611a91565b60200260200101518a8781518110610c3f57610c3f611a91565b9150610cba84868381518110610c3f57610c3f611a91565b935080610cc681611aa7565b915050610a29565b506000610cf98a60000151600081518110610ceb57610ceb611a91565b602002602001015185610f01565b905060015b8a5151811015610dbb576001945060005b88811015610d7b57600182821c811603610d5557610d4e86896001610d34858e611a27565b610d3e9190611a27565b81518110610c3f57610c3f611a91565b9550610d69565b610d6686886001610d34858e611a27565b95505b80610d7381611aa7565b915050610d0f565b50610da7826102868d600001518481518110610d9957610d99611a91565b602002602001015188610f01565b915080610db381611aa7565b915050610cfe565b50610ddb81610286610dd18d6020015187610f01565b8c60600151610f01565b9050610deb818a60400151610f01565b9050610df78282611440565b9750505050505050505b92915050565b610e0f6114ec565b6000610e29600080516020611c2883398151915284611bff565b90506000610e38600183611a27565b91506000805b81610ee757610e4e600185611a7e565b9350600080516020611c288339815191528485099050600080516020611c288339815191528482099050600080516020611c28833981519152600382089050610eca816004610eac600080516020611c288339815191526001611a7e565b610eb69190611c13565b600080516020611c28833981519152611462565b925080600080516020611c28833981519152848509149150610e3e565b505060408051808201909152918252602082015292915050565b610f096114ec565b81600103610f18575081610e01565b81600203610f3157610f2a8384610f84565b9050610e01565b610f39611506565b83518152602080850151908201526040808201849052826060836007600019fa610f6257600080fd5b5092915050565b6000600080516020611c488339815191528284089392505050565b610f8c6114ec565b610f94611524565b83518152602080850151818301528351604080840191909152908401516060830152826080836006600019fa610f6257600080fd5b60005b6001821115610fee57610fe0600182611a7e565b9050600182901c9150610fcc565b919050565b610ffb6114ec565b6110036114ec565b6000600286516110139190611c13565b905060006110478760008151811061102d5761102d611a91565b6020026020010151878481518110610c3f57610c3f611a91565b9050600061107b88848151811061106057611060611a91565b602002602001015188600081518110610c3f57610c3f611a91565b905060015b8381101561110d576110bb836110b68b84815181106110a1576110a1611a91565b60200260200101518b8589610d3e9190611a7e565b610f69565b92506110f9826110b68b6110cf8589611a7e565b815181106110df576110df611a91565b60200260200101518b8581518110610c3f57610c3f611a91565b91508061110581611aa7565b915050611080565b506111188683610f01565b94506111248682610f01565b935060005b838110156111c15761116d866102868c6111438589611a7e565b8151811061115357611153611a91565b60200260200101518c858151811061020057610200611a91565b95506111ad856102868c848151811061118857611188611a91565b60200260200101518c858961119d9190611a7e565b8151811061020057610200611a91565b9450806111b981611aa7565b915050611129565b5050505094509492505050565b60608060606000600287516111e39190611c13565b905060006111f08661140d565b9050816001600160401b0381111561120a5761120a61157e565b60405190808252806020026020018201604052801561124357816020015b6112306114ec565b8152602001906001900390816112285790505b509450816001600160401b0381111561125e5761125e61157e565b604051908082528060200260200182016040528015611287578160200160208202803683370190505b509350816001600160401b038111156112a2576112a261157e565b6040519080825280602002602001820160405280156112cb578160200160208202803683370190505b50925060005b828110156113e55761132b6112ff8b83815181106112f1576112f1611a91565b602002602001015184610f01565b6102868c61130d8588611a7e565b8151811061131d5761131d611a91565b60200260200101518a610f01565b86828151811061133d5761133d611a91565b6020026020010181905250611370611361888b8481518110610c3f57610c3f611a91565b6110b6848c610d3e8689611a7e565b85828151811061138257611382611a91565b6020026020010181815250506113b66113a7838a8481518110610c3f57610c3f611a91565b6110b6898b610d3e8689611a7e565b8482815181106113c8576113c8611a91565b6020908102919091010152806113dd81611aa7565b9150506112d1565b5050509450945094915050565b6000600080516020611c488339815191528284099392505050565b6000610e018261142c6002600080516020611c48833981519152611a27565b600080516020611c48833981519152611462565b8051825160009114801561145b575081602001518360200151145b9392505050565b600061146c611542565b611474611560565b602080835282810181905260408301819052606083018790526080830186905260a083018590528160c0846005600019fa6114ae57600080fd5b5195945050505050565b6040518060800160405280606081526020016114d26114ec565b81526020016114df6114ec565b8152602001600081525090565b604051806040016040528060008152602001600081525090565b60405180606001604052806003906020820280368337509192915050565b60405180608001604052806004906020820280368337509192915050565b6040518060c001604052806006906020820280368337509192915050565b60405180602001604052806001906020820280368337509192915050565b634e487b7160e01b600052604160045260246000fd5b604051608081016001600160401b03811182821017156115b6576115b661157e565b60405290565b604051601f8201601f191681016001600160401b03811182821017156115e4576115e461157e565b604052919050565b60006001600160401b038211156116055761160561157e565b5060051b60200190565b600082601f83011261162057600080fd5b81356020611635611630836115ec565b6115bc565b82815260059290921b8401810191818101908684111561165457600080fd5b8286015b8481101561166f5780358352918301918301611658565b509695505050505050565b60006020828403121561168c57600080fd5b81356001600160401b038111156116a257600080fd5b6116ae8482850161160f565b949350505050565b80518252602090810151910152565b600081518084526020808501945080840160005b838110156116ff576116ec8783516116b6565b60409690960195908201906001016116d9565b509495945050505050565b602081526000825160c0602084015261172660e08401826116c5565b9050602084015161173a60408501826116b6565b50604084015161174d60808501826116b6565b50606084015160c08401528091505092915050565b60006040828403121561177457600080fd5b604080519081016001600160401b03811182821017156117965761179661157e565b604052823581526020928301359281019290925250919050565b600082601f8301126117c157600080fd5b813560206117d1611630836115ec565b82815260069290921b840181019181810190868411156117f057600080fd5b8286015b8481101561166f576118068882611762565b8352918301916040016117f4565b600060c0828403121561182657600080fd5b61182e611594565b905081356001600160401b0381111561184657600080fd5b611852848285016117b0565b8252506118628360208401611762565b60208201526118748360608401611762565b604082015260a0820135606082015292915050565b6000806040838503121561189c57600080fd5b82356001600160401b03808211156118b357600080fd5b6118bf86838701611814565b935060208501359150808211156118d557600080fd5b506118e28582860161160f565b9150509250929050565b60208152600082516080602084015261190860a08401826116c5565b90506020840151601f1984830301604085015261192582826116c5565b91505060408401516060840152606084015160808401528091505092915050565b6000806040838503121561195957600080fd5b82356001600160401b038082111561197057600080fd5b61197c86838701611814565b9350602085013591508082111561199257600080fd5b90840190608082870312156119a657600080fd5b6119ae611594565b8235828111156119bd57600080fd5b6119c9888286016117b0565b8252506020830135828111156119de57600080fd5b6119ea888286016117b0565b60208301525060408301356040820152606083013560608201528093505050509250929050565b634e487b7160e01b600052601160045260246000fd5b81810381811115610e0157610e01611a11565b60208082526024908201527f766563746f72206c656e6774682073686f756c64206265206120706f7765722060408201526337b3101960e11b606082015260800190565b80820180821115610e0157610e01611a11565b634e487b7160e01b600052603260045260246000fd5b600060018201611ab957611ab9611a11565b5060010190565b60408101610e0182846116b6565b60005b83811015611ae9578181015183820152602001611ad1565b50506000910152565b600060208284031215611b0457600080fd5b81516001600160401b0380821115611b1b57600080fd5b818401915084601f830112611b2f57600080fd5b815181811115611b4157611b4161157e565b611b54601f8201601f19166020016115bc565b9150808252856020828501011115611b6b57600080fd5b611b7c816020840160208601611ace565b50949350505050565b60008451611b97818460208901611ace565b845190830190611bab818360208901611ace565b01928352505060200192915050565b60008351611bcc818460208801611ace565b835190830190611be0818360208801611ace565b01949350505050565b634e487b7160e01b600052601260045260246000fd5b600082611c0e57611c0e611be9565b500690565b600082611c2257611c22611be9565b50049056fe30644e72e131a029b85045b68181585d97816a916871ca8d3c208c16d87cfd4730644e72e131a029b85045b68181585d2833e84879b9709143e1f593f0000001a26469706673582212208edf92ab67f6259793d11cefeb0472e76654151e552474fdaeac5aa8058cc3d264736f6c63430008130033608060405234801561001057600080fd5b50610b22806100206000396000f3fe608060405234801561001057600080fd5b50600436106100365760003560e01c8063d9502f751461003b578063ff9cfea914610063575b600080fd5b61004e610049366004610871565b610083565b60405190151581526020015b60405180910390f35b610076610071366004610967565b610268565b60405161005a91906109f4565b60008160400151518651146101015760405162461bcd60e51b815260206004820152603960248201527f4469666647656e457175616c203a2067656e657261746f7220616e64207265736044820152780e0dedce6ca40d8cadccee8d040c8de40dcdee840dac2e8c6d603b1b60648201526084015b60405180910390fd5b60008260000151836020015160405160200161011e929190610a5b565b6040516020818303038152906040528051906020012060001c9050600061016b8460400151888151811061015457610154610a76565b60200260200101518a61053a90919063ffffffff16565b845190915060009061018790610181898661053a565b906105a3565b9050600061019583836105e8565b905060006040518060400160405280600081526020016000815250905060005b8b518110156102255761021161020a896040015183815181106101da576101da610a76565b60200260200101518e84815181106101f4576101f4610a76565b602002602001015161053a90919063ffffffff16565b83906105a3565b91508061021d81610a8c565b9150506101b5565b50602087015160009061023c906101818b8961053a565b9050600061024a83836105e8565b90508380156102565750805b9e9d5050505050505050505050505050565b610270610640565b81518451146102e15760405162461bcd60e51b815260206004820152603760248201527f4469666647656e457175616c3a2067656e657261746f7220616e64207769746e6044820152760cae6e640d8cadccee8d040c8de40dcdee840dac2e8c6d604b1b60648201526084016100f8565b600082516001600160401b038111156102fc576102fc6106c3565b604051908082528060200260200182016040528015610325578160200160208202803683370190505b50905060006040518060400160405280600081526020016000815250905060005b82518110156104205773__alt_bn128_____________________________635ec01e4d6040518163ffffffff1660e01b8152600401602060405180830381865af4158015610398573d6000803e3d6000fd5b505050506040513d601f19601f820116820180604052508101906103bc9190610ab3565b8382815181106103ce576103ce610a76565b60200260200101818152505061040c61020a8483815181106103f2576103f2610a76565b60200260200101518984815181106101f4576101f4610a76565b91508061041881610a8c565b915050610346565b50600061044f83878151811061043857610438610a76565b60200260200101518961053a90919063ffffffff16565b905060008183604051602001610466929190610a5b565b6040516020818303038152906040528051906020012060001c905060005b8451811015610513576104e46104bc838984815181106104a6576104a6610a76565b602002602001015161060a90919063ffffffff16565b8683815181106104ce576104ce610a76565b602002602001015161062590919063ffffffff16565b8582815181106104f6576104f6610a76565b60209081029190910101528061050b81610a8c565b915050610484565b50506040805160608101825291825260208201929092529081019190915295945050505050565b61054261066d565b8160010361055157508161059d565b8160020361056a5761056383846105a3565b905061059d565b610572610687565b83518152602080850151908201526040808201849052826060836007600019fa61059b57600080fd5b505b92915050565b6105ab61066d565b6105b36106a5565b83518152602080850151818301528351604080840191909152908401516060830152826080836006600019fa61059b57600080fd5b80518251600091148015610603575081602001518360200151145b9392505050565b6000600080516020610acd8339815191528284099392505050565b6000600080516020610acd8339815191528284089392505050565b604051806060016040528061065361066d565b815260200161066061066d565b8152602001606081525090565b604051806040016040528060008152602001600081525090565b60405180606001604052806003906020820280368337509192915050565b60405180608001604052806004906020820280368337509192915050565b634e487b7160e01b600052604160045260246000fd5b604051606081016001600160401b03811182821017156106fb576106fb6106c3565b60405290565b604051601f8201601f191681016001600160401b0381118282101715610729576107296106c3565b604052919050565b60006040828403121561074357600080fd5b604080519081016001600160401b0381118282101715610765576107656106c3565b604052823581526020928301359281019290925250919050565b60006001600160401b03821115610798576107986106c3565b5060051b60200190565b600082601f8301126107b357600080fd5b813560206107c86107c38361077f565b610701565b82815260069290921b840181019181810190868411156107e757600080fd5b8286015b8481101561080b576107fd8882610731565b8352918301916040016107eb565b509695505050505050565b600082601f83011261082757600080fd5b813560206108376107c38361077f565b82815260059290921b8401810191818101908684111561085657600080fd5b8286015b8481101561080b578035835291830191830161085a565b600080600080600080610120878903121561088b57600080fd5b6108958888610731565b955060408701356001600160401b03808211156108b157600080fd5b6108bd8a838b016107a2565b9650606089013595506108d38a60808b01610731565b94506108e28a60c08b01610731565b93506101008901359150808211156108f957600080fd5b9088019060a0828b03121561090d57600080fd5b6109156106d9565b61091f8b84610731565b815261092e8b60408501610731565b602082015260808301358281111561094557600080fd5b6109518c828601610816565b6040830152508093505050509295509295509295565b60008060008060a0858703121561097d57600080fd5b6109878686610731565b935060408501356001600160401b03808211156109a357600080fd5b6109af888389016107a2565b94506060870135935060808701359150808211156109cc57600080fd5b506109d987828801610816565b91505092959194509250565b80518252602090810151910152565b6000602080835260c08301610a0c82850186516109e5565b81850151610a1d60608601826109e5565b50604085015160a08581015280519182905282019060009060e08601905b8083101561080b5783518252928401926001929092019190840190610a3b565b60808101610a6982856109e5565b61060360408301846109e5565b634e487b7160e01b600052603260045260246000fd5b600060018201610aac57634e487b7160e01b600052601160045260246000fd5b5060010190565b600060208284031215610ac557600080fd5b505191905056fe30644e72e131a029b85045b68181585d2833e84879b9709143e1f593f0000001a26469706673582212203221ca74d36fe9a06f3ab81d5925fe85217d029f0e689d26d64fa7af627d1aa664736f6c63430008130033",
  "immutableReferences": {},
  "source": "// SPDX-License-Identifier: GPL-3.0\npragma solidity >=0.4.0 <0.9.0;\n\nimport \"../lib/alt_bn128.sol\";\nimport \"../PubParam.sol\";\nimport {PartialEquality as PE} from \"../ZKP/PartialEquality.sol\";\nimport {DualRingEC as DR} from \"../ZKP/DualRingEC.sol\";\nimport {DiffGenEqual as DG} from \"../ZKP/DiffGenEqual.sol\";\n\ncontract SoKsp {\n  using alt_bn128 for uint256;\n  using alt_bn128 for alt_bn128.G1Point;\n\n  PubParam pp;\n  PE pe;\n  DR dr;\n  DG dg;\n\n  constructor (address pp_addr) {\n    pp = PubParam(pp_addr);\n    pe = new PE();\n    dr = new DR();\n    dg = new DG();\n  }\n\n  struct TX_sp {\n    alt_bn128.G1Point[] R;\n    alt_bn128.G1Point tag;\n    uint256[3] attrS; // (opnS, T_beg, T_end)\n    alt_bn128.G1Point pk_T;\n    alt_bn128.G1Point[] tcom_T;\n    alt_bn128.G1Point[] ocom_T;\n  }\n\n  /// @param theta index of sk in R\n  /// @param attrS (ty, val, sk, ok)\n  /// @param attrTs (T_beg, T_end, opn, ok)^{T}\n  struct Wit {\n    uint256 theta;\n    uint256[] attrS;\n    uint256 sk_T;\n    uint256[][4] attrTs;\n  }\n\n  struct Sig {\n    alt_bn128.G1Point acc_d;\n    DR.SigEC dr_sig;\n    DG.Sig dg_tag_sig;\n    PE.Sig pe_opn_sig;\n    PE.Sig[] pe_ty_sig;\n    DG.Sig[] dg_sk_sig;\n  }\n\n  function sign(TX_sp memory tx_sp, Wit memory wit) public returns (Sig memory sig) {\n    uint n = pp.n();\n\n    uint256[] memory acc_d_attr = new uint256[](n);\n    for (uint i = 0; i < n-5; i++) {\n      acc_d_attr[i] = wit.attrS[i]; // (ty, val)\n    }\n    acc_d_attr[n-5] = tx_sp.attrS[1]; // T_beg\n    acc_d_attr[n-4] = tx_sp.attrS[2]; // T_end\n    acc_d_attr[n-3] = wit.attrS[n-5]; // sk\n    acc_d_attr[n-2] = tx_sp.attrS[0]; // opn\n    acc_d_attr[n-1] = alt_bn128.random(); // acc_d ok'\n\n    alt_bn128.G1Point memory acc_d = pp.Com(acc_d_attr); // acc_d\n    sig.acc_d = acc_d;\n\n    for (uint i = 0; i < tx_sp.R.length; i++) {\n      tx_sp.R[i] = tx_sp.R[i].add(acc_d.neg()); // ring pks := {acc/acc_d}\n    }\n\n    DR.ParamEC memory dr_pp = dr.param(pp.g_ok(), tx_sp.R, pp.h());\n    bytes memory m = abi.encode(\"\");\n    uint256[2] memory skj = [wit.attrS[n-4].sub(acc_d_attr[n-1]), wit.theta]; // (ok-ok', theta)\n\n    /// @dev 1. Ring signature {acc/acc_d}\n    sig.dr_sig = dr.signEC(dr_pp, m, skj);\n\n    alt_bn128.G1Point[] memory Gs = pp.gs();\n\n    /// @dev 2. Diff Gen Equal signature (tag vs acc_d)\n    sig.dg_tag_sig = dg.sign(pp.g_tag(), Gs, pp.sk_pos(), acc_d_attr);\n\n    /// @dev 3. Part Equal signature (same T_beg, T_end, opn)\n    uint256[] memory pe_x = new uint256[](n);\n    pe_x[n-5] = tx_sp.attrS[1]; // T_beg\n    pe_x[n-4] = tx_sp.attrS[2]; // T_end\n    pe_x[n-2] = tx_sp.attrS[0]; // opn\n    uint256[] memory idx_ne = new uint256[](3);\n    idx_ne[0] = n-5;\n    idx_ne[1] = n-4;\n    idx_ne[2] = n-2;\n\n    sig.pe_opn_sig = pe.sign(Gs, pe_x, acc_d_attr, idx_ne);\n\n    /// @dev 4. Part Equal signatures (same tyS, valS)\n    /// @dev 5. Diff Gen Equal signatures (pkT vs tcomT) \n    uint target_length = tx_sp.tcom_T.length;\n\n    sig.pe_ty_sig = new PE.Sig[](target_length);\n    sig.dg_sk_sig = new DG.Sig[](target_length);\n\n    pe_x = new uint256[](n);\n    for (uint i = 0; i < pp.sk_pos(); i++){\n      pe_x[i] = wit.attrS[i];\n    }\n\n    idx_ne = new uint256[](5);\n    for (uint i = 0; i < 5; i++){\n      idx_ne[i] = n-5+i;\n    }\n\n    pe_x[n-3] = wit.sk_T;\n\n    for (uint i = 0; i < target_length; i++){\n      pe_x[n-5] = wit.attrTs[i][0]; // T_beg\n      pe_x[n-4] = wit.attrTs[i][1]; // T_end\n      pe_x[n-2] = wit.attrTs[i][2]; // opn\n      pe_x[n-1] = wit.attrTs[i][3]; // ok\n\n      sig.pe_ty_sig[i] = pe.sign(Gs, pe_x, acc_d_attr, idx_ne);\n\n      sig.dg_sk_sig[i] = dg.sign(pp.g_pk(), Gs, pp.sk_pos(), pe_x);\n    }\n\n    /// @dev Diff Gen Equal signatures (pkT vs tcomT)  \n    \n    \n\n    // alt_bn128.G1Point[] memory gs = new alt_bn128.G1Point[](n-2);\n    // for (uint i = 0; i < gs.length; i++){\n    //   gs[i] = Gs[i];\n    // }\n\n    // uint256[] memory dg_sk_wit = new uint256[](n-2);\n    // /// @dev rmb to generalise index afterwards\n    // dg_sk_wit[0] = wit.attrS[0]; // ty\n    // dg_sk_wit[1] = wit.attrS[1]; // val\n    // dg_sk_wit[5] = wit.sk_T; // sk\n    \n    // for (uint i = 0; i < target_length; i++){\n    //   dg_sk_wit[2] = wit.attrTs[i][0]; // T_beg\n    //   dg_sk_wit[3] = wit.attrTs[i][1]; // T_end\n    //   sig.dg_sk_sig[i] = dg.sign(pp.g_pk(), gs, pp.sk_pos(), dg_sk_wit);\n    // }\n\n    \n\n    \n\n  }\n\n\n}",
  "sourcePath": "/Users/qian/Desktop/Y4/COMP4550/project/XCSwap/contracts/TX/SoKsp.sol",
  "compiler": {
    "name": "solc",
    "version": "0.8.19+commit.7dd6d404.Emscripten.clang"
  },
  "schemaVersion": "3.4.13",
  "updatedAt": "2023-07-29T13:11:03.725Z",
  "devdoc": {
    "kind": "dev",
    "methods": {},
    "version": 1
  },
  "userdoc": {
    "kind": "user",
    "methods": {},
    "version": 1
  }
}