{
  "contractName": "SoKwd",
  "abi": [
    {
      "inputs": [
        {
          "internalType": "address",
          "name": "pp_addr",
          "type": "address"
        }
      ],
      "stateMutability": "nonpayable",
      "type": "constructor"
    },
    {
      "inputs": [
        {
          "components": [
            {
              "components": [
                {
                  "internalType": "uint256",
                  "name": "X",
                  "type": "uint256"
                },
                {
                  "internalType": "uint256",
                  "name": "Y",
                  "type": "uint256"
                }
              ],
              "internalType": "struct alt_bn128.G1Point[]",
              "name": "R",
              "type": "tuple[]"
            },
            {
              "components": [
                {
                  "internalType": "uint256",
                  "name": "X",
                  "type": "uint256"
                },
                {
                  "internalType": "uint256",
                  "name": "Y",
                  "type": "uint256"
                }
              ],
              "internalType": "struct alt_bn128.G1Point",
              "name": "tag",
              "type": "tuple"
            },
            {
              "internalType": "uint256[]",
              "name": "attrS",
              "type": "uint256[]"
            },
            {
              "internalType": "address",
              "name": "u_rcpt",
              "type": "address"
            }
          ],
          "internalType": "struct SoKwd.TX",
          "name": "tx_wd",
          "type": "tuple"
        },
        {
          "internalType": "uint256[4]",
          "name": "wit",
          "type": "uint256[4]"
        }
      ],
      "name": "sign",
      "outputs": [
        {
          "components": [
            {
              "components": [
                {
                  "internalType": "uint256",
                  "name": "X",
                  "type": "uint256"
                },
                {
                  "internalType": "uint256",
                  "name": "Y",
                  "type": "uint256"
                }
              ],
              "internalType": "struct alt_bn128.G1Point",
              "name": "acc_d",
              "type": "tuple"
            },
            {
              "components": [
                {
                  "internalType": "uint256",
                  "name": "z",
                  "type": "uint256"
                },
                {
                  "components": [
                    {
                      "internalType": "uint256",
                      "name": "X",
                      "type": "uint256"
                    },
                    {
                      "internalType": "uint256",
                      "name": "Y",
                      "type": "uint256"
                    }
                  ],
                  "internalType": "struct alt_bn128.G1Point",
                  "name": "R",
                  "type": "tuple"
                },
                {
                  "components": [
                    {
                      "components": [
                        {
                          "internalType": "uint256",
                          "name": "X",
                          "type": "uint256"
                        },
                        {
                          "internalType": "uint256",
                          "name": "Y",
                          "type": "uint256"
                        }
                      ],
                      "internalType": "struct alt_bn128.G1Point[]",
                      "name": "Ls",
                      "type": "tuple[]"
                    },
                    {
                      "components": [
                        {
                          "internalType": "uint256",
                          "name": "X",
                          "type": "uint256"
                        },
                        {
                          "internalType": "uint256",
                          "name": "Y",
                          "type": "uint256"
                        }
                      ],
                      "internalType": "struct alt_bn128.G1Point[]",
                      "name": "Rs",
                      "type": "tuple[]"
                    },
                    {
                      "internalType": "uint256",
                      "name": "a",
                      "type": "uint256"
                    },
                    {
                      "internalType": "uint256",
                      "name": "b",
                      "type": "uint256"
                    }
                  ],
                  "internalType": "struct NISA.Sig",
                  "name": "nisa_sig",
                  "type": "tuple"
                }
              ],
              "internalType": "struct DualRingEC.SigEC",
              "name": "dr_sig",
              "type": "tuple"
            },
            {
              "components": [
                {
                  "components": [
                    {
                      "internalType": "uint256",
                      "name": "X",
                      "type": "uint256"
                    },
                    {
                      "internalType": "uint256",
                      "name": "Y",
                      "type": "uint256"
                    }
                  ],
                  "internalType": "struct alt_bn128.G1Point",
                  "name": "cx",
                  "type": "tuple"
                },
                {
                  "components": [
                    {
                      "internalType": "uint256",
                      "name": "X",
                      "type": "uint256"
                    },
                    {
                      "internalType": "uint256",
                      "name": "Y",
                      "type": "uint256"
                    }
                  ],
                  "internalType": "struct alt_bn128.G1Point",
                  "name": "cy",
                  "type": "tuple"
                },
                {
                  "internalType": "uint256[]",
                  "name": "zs",
                  "type": "uint256[]"
                }
              ],
              "internalType": "struct DiffGenEqual.Sig",
              "name": "dg_sig",
              "type": "tuple"
            },
            {
              "components": [
                {
                  "components": [
                    {
                      "internalType": "uint256",
                      "name": "X",
                      "type": "uint256"
                    },
                    {
                      "internalType": "uint256",
                      "name": "Y",
                      "type": "uint256"
                    }
                  ],
                  "internalType": "struct alt_bn128.G1Point",
                  "name": "c",
                  "type": "tuple"
                },
                {
                  "internalType": "uint256[]",
                  "name": "zs",
                  "type": "uint256[]"
                }
              ],
              "internalType": "struct PartialEquality.Sig",
              "name": "pe_sig",
              "type": "tuple"
            }
          ],
          "internalType": "struct SoKwd.Sig",
          "name": "sig",
          "type": "tuple"
        }
      ],
      "stateMutability": "view",
      "type": "function"
    },
    {
      "inputs": [
        {
          "components": [
            {
              "components": [
                {
                  "internalType": "uint256",
                  "name": "X",
                  "type": "uint256"
                },
                {
                  "internalType": "uint256",
                  "name": "Y",
                  "type": "uint256"
                }
              ],
              "internalType": "struct alt_bn128.G1Point[]",
              "name": "R",
              "type": "tuple[]"
            },
            {
              "components": [
                {
                  "internalType": "uint256",
                  "name": "X",
                  "type": "uint256"
                },
                {
                  "internalType": "uint256",
                  "name": "Y",
                  "type": "uint256"
                }
              ],
              "internalType": "struct alt_bn128.G1Point",
              "name": "tag",
              "type": "tuple"
            },
            {
              "internalType": "uint256[]",
              "name": "attrS",
              "type": "uint256[]"
            },
            {
              "internalType": "address",
              "name": "u_rcpt",
              "type": "address"
            }
          ],
          "internalType": "struct SoKwd.TX",
          "name": "tx_wd",
          "type": "tuple"
        },
        {
          "components": [
            {
              "components": [
                {
                  "internalType": "uint256",
                  "name": "X",
                  "type": "uint256"
                },
                {
                  "internalType": "uint256",
                  "name": "Y",
                  "type": "uint256"
                }
              ],
              "internalType": "struct alt_bn128.G1Point",
              "name": "acc_d",
              "type": "tuple"
            },
            {
              "components": [
                {
                  "internalType": "uint256",
                  "name": "z",
                  "type": "uint256"
                },
                {
                  "components": [
                    {
                      "internalType": "uint256",
                      "name": "X",
                      "type": "uint256"
                    },
                    {
                      "internalType": "uint256",
                      "name": "Y",
                      "type": "uint256"
                    }
                  ],
                  "internalType": "struct alt_bn128.G1Point",
                  "name": "R",
                  "type": "tuple"
                },
                {
                  "components": [
                    {
                      "components": [
                        {
                          "internalType": "uint256",
                          "name": "X",
                          "type": "uint256"
                        },
                        {
                          "internalType": "uint256",
                          "name": "Y",
                          "type": "uint256"
                        }
                      ],
                      "internalType": "struct alt_bn128.G1Point[]",
                      "name": "Ls",
                      "type": "tuple[]"
                    },
                    {
                      "components": [
                        {
                          "internalType": "uint256",
                          "name": "X",
                          "type": "uint256"
                        },
                        {
                          "internalType": "uint256",
                          "name": "Y",
                          "type": "uint256"
                        }
                      ],
                      "internalType": "struct alt_bn128.G1Point[]",
                      "name": "Rs",
                      "type": "tuple[]"
                    },
                    {
                      "internalType": "uint256",
                      "name": "a",
                      "type": "uint256"
                    },
                    {
                      "internalType": "uint256",
                      "name": "b",
                      "type": "uint256"
                    }
                  ],
                  "internalType": "struct NISA.Sig",
                  "name": "nisa_sig",
                  "type": "tuple"
                }
              ],
              "internalType": "struct DualRingEC.SigEC",
              "name": "dr_sig",
              "type": "tuple"
            },
            {
              "components": [
                {
                  "components": [
                    {
                      "internalType": "uint256",
                      "name": "X",
                      "type": "uint256"
                    },
                    {
                      "internalType": "uint256",
                      "name": "Y",
                      "type": "uint256"
                    }
                  ],
                  "internalType": "struct alt_bn128.G1Point",
                  "name": "cx",
                  "type": "tuple"
                },
                {
                  "components": [
                    {
                      "internalType": "uint256",
                      "name": "X",
                      "type": "uint256"
                    },
                    {
                      "internalType": "uint256",
                      "name": "Y",
                      "type": "uint256"
                    }
                  ],
                  "internalType": "struct alt_bn128.G1Point",
                  "name": "cy",
                  "type": "tuple"
                },
                {
                  "internalType": "uint256[]",
                  "name": "zs",
                  "type": "uint256[]"
                }
              ],
              "internalType": "struct DiffGenEqual.Sig",
              "name": "dg_sig",
              "type": "tuple"
            },
            {
              "components": [
                {
                  "components": [
                    {
                      "internalType": "uint256",
                      "name": "X",
                      "type": "uint256"
                    },
                    {
                      "internalType": "uint256",
                      "name": "Y",
                      "type": "uint256"
                    }
                  ],
                  "internalType": "struct alt_bn128.G1Point",
                  "name": "c",
                  "type": "tuple"
                },
                {
                  "internalType": "uint256[]",
                  "name": "zs",
                  "type": "uint256[]"
                }
              ],
              "internalType": "struct PartialEquality.Sig",
              "name": "pe_sig",
              "type": "tuple"
            }
          ],
          "internalType": "struct SoKwd.Sig",
          "name": "sig",
          "type": "tuple"
        }
      ],
      "name": "verify",
      "outputs": [
        {
          "internalType": "bool",
          "name": "",
          "type": "bool"
        }
      ],
      "stateMutability": "view",
      "type": "function"
    }
  ],
  "bytecode": "0x60806040523480156200001157600080fd5b5060405162007a3638038062007a36833981016040819052620000349162000164565b600080546001600160a01b0319166001600160a01b0383161790556040516200005d906200013a565b604051809103906000f0801580156200007a573d6000803e3d6000fd5b50600180546001600160a01b0319166001600160a01b0392909216919091179055604051620000a99062000148565b604051809103906000f080158015620000c6573d6000803e3d6000fd5b50600280546001600160a01b0319166001600160a01b0392909216919091179055604051620000f59062000156565b604051809103906000f08015801562000112573d6000803e3d6000fd5b50600380546001600160a01b0319166001600160a01b03929092169190911790555062000196565b61106680620025c083390190565b6138ce806200362683390190565b610b428062006ef483390190565b6000602082840312156200017757600080fd5b81516001600160a01b03811681146200018f57600080fd5b9392505050565b61241a80620001a66000396000f3fe608060405234801561001057600080fd5b50600436106100365760003560e01c806315b520b71461003b578063a2b4c3a514610063575b600080fd5b61004e610049366004611839565b610083565b60405190151581526020015b60405180910390f35b6100766100713660046119ce565b6108ff565b60405161005a9190611bbe565b600254600080546040805163eef6a68160e01b81528151939485946001600160a01b039182169463504af2ae9492169263eef6a6819260048083019391928290030181865afa1580156100da573d6000803e3d6000fd5b505050506040513d601f19601f820116820180604052508101906100fe9190611c60565b86516000546040805163b8c9d36560e01b815281516001600160a01b039093169263b8c9d365926004808401939192918290030181865afa158015610147573d6000803e3d6000fd5b505050506040513d601f19601f8201168201806040525081019061016b9190611c60565b6040518463ffffffff1660e01b815260040161018993929190611cb6565b600060405180830381865afa1580156101a6573d6000803e3d6000fd5b505050506040513d6000823e601f3d908101601f191682016040526101ce9190810190611d49565b9050600084606001516040516020016101e79190611e07565b60408051601f1981840301815290829052600254602087015162ea484b60e71b84529193506000926001600160a01b0390911691637524258091610232918791879190600401611eab565b602060405180830381865afa15801561024f573d6000803e3d6000fd5b505050506040513d601f19601f820116820180604052508101906102739190611eee565b9050806102c65760405162461bcd60e51b815260206004820152601c60248201527b52696e67207369676e617475726520646f6573206e6f74207061737360201b60448201526064015b60405180910390fd5b6003546000805460408051632d74e53160e01b8152815193946001600160a01b039081169463d9502f759490911692632d74e53192600480820193918290030181865afa15801561031b573d6000803e3d6000fd5b505050506040513d601f19601f8201168201806040525081019061033f9190611c60565b600080546040805162e71aaf60e01b815290516001600160a01b039092169262e71aaf926004808401938290030181865afa158015610382573d6000803e3d6000fd5b505050506040513d6000823e601f3d908101601f191682016040526103aa9190810190611f10565b60008054906101000a90046001600160a01b03166001600160a01b031663babe4fe56040518163ffffffff1660e01b8152600401602060405180830381865afa1580156103fb573d6000803e3d6000fd5b505050506040513d601f19601f8201168201806040525081019061041f9190611f44565b8b602001518b600001518c604001516040518763ffffffff1660e01b815260040161044f96959493929190611f5d565b602060405180830381865afa15801561046c573d6000803e3d6000fd5b505050506040513d601f19601f820116820180604052508101906104909190611eee565b9050806104ee5760405162461bcd60e51b815260206004820152602660248201527f446966662047656e20457175616c207369676e617475726520646f6573206e6f60448201526574207061737360d01b60648201526084016102bd565b60008060009054906101000a90046001600160a01b03166001600160a01b0316632e52d6066040518163ffffffff1660e01b8152600401602060405180830381865afa158015610542573d6000803e3d6000fd5b505050506040513d601f19601f820116820180604052508101906105669190611f44565b6001600160401b0381111561057d5761057d611502565b6040519080825280602002602001820160405280156105a6578160200160208202803683370190505b50905060005b88604001515181101561060657886040015181815181106105cf576105cf611fc0565b60200260200101518282815181106105e9576105e9611fc0565b6020908102919091010152806105fe81611fec565b9150506105ac565b50600080546040516338e0cdcb60e11b81526001600160a01b03909116906371c19b9690610638908590600401612005565b6040805180830381865afa158015610654573d6000803e3d6000fd5b505050506040513d601f19601f820116820180604052508101906106789190611c60565b9050600089604001515160008054906101000a90046001600160a01b03166001600160a01b0316632e52d6066040518163ffffffff1660e01b8152600401602060405180830381865afa1580156106d3573d6000803e3d6000fd5b505050506040513d601f19601f820116820180604052508101906106f79190611f44565b6107019190612018565b6001600160401b0381111561071857610718611502565b604051908082528060200260200182016040528015610741578160200160208202803683370190505b50905060005b815181101561078f5760408b015151610760908261202b565b82828151811061077257610772611fc0565b60209081029190910101528061078781611fec565b915050610747565b50600154600080546040805162e71aaf60e01b8152905192936001600160a01b0390811693633ef87f26939091169162e71aaf91600480830192889291908290030181865afa1580156107e6573d6000803e3d6000fd5b505050506040513d6000823e601f3d908101601f1916820160405261080e9190810190611f10565b848d60000151878f606001516040518663ffffffff1660e01b815260040161083a95949392919061203e565b602060405180830381865afa158015610857573d6000803e3d6000fd5b505050506040513d601f19601f8201168201806040525081019061087b9190611eee565b9050806108db5760405162461bcd60e51b815260206004820152602860248201527f5061727469616c20457175616c697479207369676e617475726520646f6573206044820152676e6f74207061737360c01b60648201526084016102bd565b8580156108e55750845b80156108ee5750805b985050505050505050505b92915050565b610907611401565b6000546020830151604051639766247160e01b81526004810191909152610986916001600160a01b0316906397662471906024016040805180830381865afa158015610957573d6000803e3d6000fd5b505050506040513d601f19601f8201168201806040525081019061097b9190611c60565b6020850151906112c1565b6109c05760405162461bcd60e51b815260206004820152600b60248201526a546167206d61746368657360a81b60448201526064016102bd565b60008060009054906101000a90046001600160a01b03166001600160a01b0316632e52d6066040518163ffffffff1660e01b8152600401602060405180830381865afa158015610a14573d6000803e3d6000fd5b505050506040513d601f19601f82011682018060405250810190610a389190611f44565b6040850151519091506000610a4d8284612018565b90506000836001600160401b03811115610a6957610a69611502565b604051908082528060200260200182016040528015610a92578160200160208202803683370190505b5090506000846001600160401b03811115610aaf57610aaf611502565b604051908082528060200260200182016040528015610ad8578160200160208202803683370190505b5090506000836001600160401b03811115610af557610af5611502565b604051908082528060200260200182016040528015610b1e578160200160208202803683370190505b50905060005b85811015610bb55789604001518181518110610b4257610b42611fc0565b6020026020010151848281518110610b5c57610b5c611fc0565b60200260200101818152505089604001518181518110610b7e57610b7e611fc0565b6020026020010151838281518110610b9857610b98611fc0565b602090810291909101015280610bad81611fec565b915050610b24565b5060005b84811015610c415788610bcd82600161202b565b60048110610bdd57610bdd611fc0565b602002015184610bed838961202b565b81518110610bfd57610bfd611fc0565b6020908102919091010152610c12818761202b565b828281518110610c2457610c24611fc0565b602090810291909101015280610c3981611fec565b915050610bb9565b5073__alt_bn128_____________________________635ec01e4d6040518163ffffffff1660e01b8152600401602060405180830381865af4158015610c8b573d6000803e3d6000fd5b505050506040513d601f19601f82011682018060405250810190610caf9190611f44565b83610cbb600189612018565b81518110610ccb57610ccb611fc0565b6020908102919091010152600080546040516338e0cdcb60e11b81526001600160a01b03909116906371c19b9690610d07908790600401612005565b6040805180830381865afa158015610d23573d6000803e3d6000fd5b505050506040513d601f19601f82011682018060405250810190610d479190611c60565b808952905060005b8a5151811015610dc157610d8f610d65836112e3565b8c51805184908110610d7957610d79611fc0565b602002602001015161136790919063ffffffff16565b8b51805183908110610da357610da3611fc0565b60200260200101819052508080610db990611fec565b915050610d4f565b50600254600080546040805163eef6a68160e01b8152815193946001600160a01b039081169463504af2ae949091169263eef6a68192600480820193918290030181865afa158015610e17573d6000803e3d6000fd5b505050506040513d601f19601f82011682018060405250810190610e3b9190611c60565b8d516000546040805163b8c9d36560e01b815281516001600160a01b039093169263b8c9d365926004808401939192918290030181865afa158015610e84573d6000803e3d6000fd5b505050506040513d601f19601f82011682018060405250810190610ea89190611c60565b6040518463ffffffff1660e01b8152600401610ec693929190611cb6565b600060405180830381865afa158015610ee3573d6000803e3d6000fd5b505050506040513d6000823e601f3d908101601f19168201604052610f0b9190810190611d49565b905060008b60600151604051602001610f249190611e07565b60408051601f19818403018152828201909152915060009080610f8289610f4c60018f612018565b81518110610f5c57610f5c611fc0565b60200260200101518f600360048110610f7757610f77611fc0565b6020020151906113b3565b81528d51602090910152600254604051634f30e73160e11b81529192506001600160a01b031690639e61ce6290610fc19086908690869060040161209d565b600060405180830381865afa158015610fde573d6000803e3d6000fd5b505050506040513d6000823e601f3d908101601f1916820160405261100691908101906120f8565b60208c015260035460005460408051632d74e53160e01b815281516001600160a01b039485169463ff9cfea9941692632d74e53192600480820193918290030181865afa15801561105b573d6000803e3d6000fd5b505050506040513d601f19601f8201168201806040525081019061107f9190611c60565b600080546040805162e71aaf60e01b815290516001600160a01b039092169262e71aaf926004808401938290030181865afa1580156110c2573d6000803e3d6000fd5b505050506040513d6000823e601f3d908101601f191682016040526110ea9190810190611f10565b60008054906101000a90046001600160a01b03166001600160a01b031663babe4fe56040518163ffffffff1660e01b8152600401602060405180830381865afa15801561113b573d6000803e3d6000fd5b505050506040513d601f19601f8201168201806040525081019061115f9190611f44565b8b6040518563ffffffff1660e01b815260040161117f94939291906121eb565b600060405180830381865afa15801561119c573d6000803e3d6000fd5b505050506040513d6000823e601f3d908101601f191682016040526111c49190810190612289565b60408c81019190915260015460008054835162e71aaf60e01b815293516001600160a01b03938416946319d54992949092169262e71aaf92600480820193918290030181865afa15801561121c573d6000803e3d6000fd5b505050506040513d6000823e601f3d908101601f191682016040526112449190810190611f10565b8989896040518563ffffffff1660e01b81526004016112669493929190612319565b600060405180830381865afa158015611283573d6000803e3d6000fd5b505050506040513d6000823e601f3d908101601f191682016040526112ab9190810190612366565b60608c015250989b9a5050505050505050505050565b805182516000911480156112dc575081602001518360200151145b9392505050565b6112eb611440565b81511580156112fc57506020820151155b1561131a575050604080518082019091526000808252602082015290565b60405180604001604052808360000151815260200183602001517f30644e72e131a029b85045b68181585d97816a916871ca8d3c208c16d87cfd4761135f9190612018565b905292915050565b61136f611440565b61137761145a565b83518152602080850151818301528351604080840191909152908401516060830152826080836006600019fa6113ac57600080fd5b5092915050565b6000818310156113f757826113e8837f30644e72e131a029b85045b68181585d2833e84879b9709143e1f593f0000001612018565b6113f2919061202b565b6112dc565b6112dc8284612018565b6040518060800160405280611414611440565b8152602001611421611478565b815260200161142e6114c2565b815260200161143b6114ef565b905290565b604051806040016040528060008152602001600081525090565b60405180608001604052806004906020820280368337509192915050565b604051806060016040528060008152602001611492611440565b815260200161143b6040518060800160405280606081526020016060815260200160008152602001600081525090565b60405180606001604052806114d5611440565b81526020016114e2611440565b8152602001606081525090565b60405180604001604052806114e2611440565b634e487b7160e01b600052604160045260246000fd5b604080519081016001600160401b038111828210171561153a5761153a611502565b60405290565b604051608081016001600160401b038111828210171561153a5761153a611502565b604051606081016001600160401b038111828210171561153a5761153a611502565b604051601f8201601f191681016001600160401b03811182821017156115ac576115ac611502565b604052919050565b60006001600160401b038211156115cd576115cd611502565b5060051b60200190565b6000604082840312156115e957600080fd5b6115f1611518565b9050813581526020820135602082015292915050565b600082601f83011261161857600080fd5b8135602061162d611628836115b4565b611584565b82815260069290921b8401810191818101908684111561164c57600080fd5b8286015b848110156116705761166288826115d7565b835291830191604001611650565b509695505050505050565b600082601f83011261168c57600080fd5b8135602061169c611628836115b4565b82815260059290921b840181019181810190868411156116bb57600080fd5b8286015b8481101561167057803583529183019183016116bf565b600060a082840312156116e857600080fd5b6116f0611540565b905081356001600160401b038082111561170957600080fd5b61171585838601611607565b835261172485602086016115d7565b6020840152606084013591508082111561173d57600080fd5b5061174a8482850161167b565b60408301525060808201356001600160a01b038116811461176a57600080fd5b606082015292915050565b600060a0828403121561178757600080fd5b61178f611562565b905061179b83836115d7565b81526117aa83604084016115d7565b602082015260808201356001600160401b038111156117c857600080fd5b6117d48482850161167b565b60408301525092915050565b6000606082840312156117f257600080fd5b6117fa611518565b905061180683836115d7565b815260408201356001600160401b0381111561182157600080fd5b61182d8482850161167b565b60208301525092915050565b600080604080848603121561184d57600080fd5b83356001600160401b038082111561186457600080fd5b611870878388016116d6565b945060209150818601358181111561188757600080fd5b860160a0818903121561189957600080fd5b6118a1611540565b6118ab89836115d7565b815284820135838111156118be57600080fd5b82016080818b0312156118d057600080fd5b6118d8611562565b813581526118e88b8784016115d7565b868201526060820135858111156118fe57600080fd5b91909101906080828c03121561191357600080fd5b61191b611540565b82358681111561192a57600080fd5b6119368d828601611607565b825250868301358681111561194a57600080fd5b6119568d828601611607565b8289015250828801358882015260609283013583820152818801529482019490945292810135928284111561198a57600080fd5b61199689858401611775565b8582015260808201359450828511156119ae57600080fd5b6119ba898684016117e0565b606082015280955050505050509250929050565b60008060a083850312156119e157600080fd5b82356001600160401b038111156119f757600080fd5b611a03858286016116d6565b925050602084603f850112611a1757600080fd5b611a1f611540565b8060a0860187811115611a3157600080fd5b8387015b81811015611a4c5780358452928401928401611a35565b509497909650945050505050565b80518252602090810151910152565b600081518084526020808501945080840160005b83811015611aa357611a90878351611a5a565b6040969096019590820190600101611a7d565b509495945050505050565b8051825260006020820151611ac66020850182611a5a565b506040820151608060608501528051608080860152611ae9610100860182611a69565b90506020820151607f198683030160a0870152611b068282611a69565b604084015160c088015260609093015160e090960195909552509392505050565b600081518084526020808501945080840160005b83811015611aa357815187529582019590820190600101611b3b565b611b62828251611a5a565b60006020820151611b766040850182611a5a565b50604082015160a06080850152611b9060a0850182611b27565b949350505050565b611ba3828251611a5a565b6000602082015160606040850152611b906060850182611b27565b60208152611bd0602082018351611a5a565b6000602083015160a06060840152611beb60c0840182611aae565b90506040840151601f1980858403016080860152611c098383611b57565b925060608601519150808584030160a086015250611c278282611b98565b95945050505050565b600060408284031215611c4257600080fd5b611c4a611518565b9050815181526020820151602082015292915050565b600060408284031215611c7257600080fd5b6112dc8383611c30565b600081518084526020808501945080840160005b83811015611aa357611ca3878351611a5a565b6040969096019590820190600101611c90565b611cc08185611a5a565b60a060408201526000611cd660a0830185611c7c565b9050611b906060830184611a5a565b600082601f830112611cf657600080fd5b81516020611d06611628836115b4565b82815260069290921b84018101918181019086841115611d2557600080fd5b8286015b8481101561167057611d3b8882611c30565b835291830191604001611d29565b600060208284031215611d5b57600080fd5b81516001600160401b0380821115611d7257600080fd5b9083019060608286031215611d8657600080fd5b611d8e611518565b825182811115611d9d57600080fd5b830160608188031215611daf57600080fd5b611db7611518565b611dc18883611c30565b8152604082015184811115611dd557600080fd5b611de189828501611ce5565b6020830152508083525050611df98660208501611c30565b602082015295945050505050565b6001600160a01b0391909116815260200190565b6000815160608452611e31606085018251611a5a565b60200151606060a0850152611e4960c0850182611a69565b90506020830151611e5d6020860182611a5a565b509392505050565b6000815180845260005b81811015611e8b57602081850181015186830182015201611e6f565b506000602082860101526020601f19601f83011685010191505092915050565b606081526000611ebe6060830186611e1b565b8281036020840152611ed08186611e65565b90508281036040840152611ee48185611aae565b9695505050505050565b600060208284031215611f0057600080fd5b815180151581146112dc57600080fd5b600060208284031215611f2257600080fd5b81516001600160401b03811115611f3857600080fd5b611b9084828501611ce5565b600060208284031215611f5657600080fd5b5051919050565b6000610120611f6c838a611a5a565b806040840152611f7e81840189611c7c565b9050866060840152611f936080840187611a5a565b611fa060c0840186611a5a565b828103610100840152611fb38185611b57565b9998505050505050505050565b634e487b7160e01b600052603260045260246000fd5b634e487b7160e01b600052601160045260246000fd5b600060018201611ffe57611ffe611fd6565b5060010190565b6020815260006112dc6020830184611b27565b818103818111156108f9576108f9611fd6565b808201808211156108f9576108f9611fd6565b60e08152600061205160e0830188611c7c565b82810360208401526120638188611b27565b90506120726040840187611a5a565b61207f6080840186611a5a565b82810360c08401526120918185611b98565b98975050505050505050565b6080815260006120b06080830186611e1b565b6020838203818501526120c38287611e65565b92506040840191508460005b60028110156120ec578151845292820192908201906001016120cf565b50505050949350505050565b60006020828403121561210a57600080fd5b81516001600160401b038082111561212157600080fd5b908301906080828603121561213557600080fd5b61213d611562565b8251815261214e8660208501611c30565b602082015260608301518281111561216557600080fd5b92909201916080838703121561217a57600080fd5b612182611540565b83518381111561219157600080fd5b61219d88828701611ce5565b8252506020840151838111156121b257600080fd5b6121be88828701611ce5565b60208301525060408401516040820152606084015160608201528060408301525080935050505092915050565b6121f58186611a5a565b60a06040820152600061220b60a0830186611c7c565b84606084015282810360808401526122238185611b27565b979650505050505050565b600082601f83011261223f57600080fd5b8151602061224f611628836115b4565b82815260059290921b8401810191818101908684111561226e57600080fd5b8286015b848110156116705780518352918301918301612272565b60006020828403121561229b57600080fd5b81516001600160401b03808211156122b257600080fd5b9083019060a082860312156122c657600080fd5b6122ce611562565b6122d88684611c30565b81526122e78660408501611c30565b60208201526080830151828111156122fe57600080fd5b61230a8782860161222e565b60408301525095945050505050565b60808152600061232c6080830187611c7c565b828103602084015261233e8187611b27565b905082810360408401526123528186611b27565b905082810360608401526122238185611b27565b60006020828403121561237857600080fd5b81516001600160401b038082111561238f57600080fd5b90830190606082860312156123a357600080fd5b6123ab611518565b6123b58684611c30565b81526040830151828111156123c957600080fd5b6123d58782860161222e565b6020830152509594505050505056fea26469706673582212207f68ea08528ea3f54369c6d280f5f026b267da41ee89855eb6fd45e400086f0764736f6c63430008130033608060405234801561001057600080fd5b50611046806100206000396000f3fe608060405234801561001057600080fd5b506004361061004c5760003560e01c806319d54992146100515780633ef87f261461007a5780639460eead1461009d578063f96ce23b146100b0575b600080fd5b61006461005f366004610c05565b6100c3565b6040516100719190610cb1565b60405180910390f35b61008d610088366004610d62565b61040e565b6040519015158152602001610071565b6100646100ab366004610e0d565b6104ea565b61008d6100be366004610e94565b61071e565b6100cb6109ff565b82518451146100f55760405162461bcd60e51b81526004016100ec90610f0e565b60405180910390fd5b8151845181111561010557600080fd5b6000816001600160401b0381111561011f5761011f610a75565b604051908082528060200260200182016040528015610148578160200160208202803683370190505b50905060006040518060400160405280600081526020016000815250905060005b838110156102e15773__alt_bn128_____________________________635ec01e4d6040518163ffffffff1660e01b8152600401602060405180830381865af41580156101ba573d6000803e3d6000fd5b505050506040513d601f19601f820116820180604052508101906101de9190610f55565b8382815181106101f0576101f0610f6e565b602002602001018181525050885186828151811061021057610210610f6e565b6020026020010151106102655760405162461bcd60e51b815260206004820152601f60248201527f5061727469616c457175616c7469793a20496e646578204f766572666c6f770060448201526064016100ec565b6102cd6102c684838151811061027d5761027d610f6e565b60200260200101518b89858151811061029857610298610f6e565b6020026020010151815181106102b0576102b0610f6e565b602002602001015161083790919063ffffffff16565b83906108a0565b9150806102d981610f9a565b915050610169565b506000816040516020016102f59190610fb3565b6040516020818303038152906040528051906020012060001c905060005b848110156103ed576103be610396836103908c8b868151811061033857610338610f6e565b60200260200101518151811061035057610350610f6e565b60200260200101518c8c878151811061036b5761036b610f6e565b60200260200101518151811061038357610383610f6e565b60200260200101516108e5565b90610928565b8583815181106103a8576103a8610f6e565b602002602001015161094390919063ffffffff16565b8482815181106103d0576103d0610f6e565b6020908102919091010152806103e581610f9a565b915050610313565b50506040805180820190915290815260208101919091529695505050505050565b6040805180820190915260008082526020820181905290815b865181101561047b576104676102c68560200151838151811061044c5761044c610f6e565b60200260200101518a8a858151811061029857610298610f6e565b91508061047381610f9a565b915050610427565b50825160405160009161049091602001610fb3565b6040516020818303038152906040528051906020012060001c905060006104d185600001516104c6846104cb8b6104c68c61095e565b6108a0565b90610837565b90506104dd83826109e2565b9998505050505050505050565b6104f26109ff565b81518351148015610504575082518451145b6105205760405162461bcd60e51b81526004016100ec90610f0e565b600083516001600160401b0381111561053b5761053b610a75565b604051908082528060200260200182016040528015610564578160200160208202803683370190505b50905060006040518060400160405280600081526020016000815250905060005b825181101561065f5773__alt_bn128_____________________________635ec01e4d6040518163ffffffff1660e01b8152600401602060405180830381865af41580156105d7573d6000803e3d6000fd5b505050506040513d601f19601f820116820180604052508101906105fb9190610f55565b83828151811061060d5761060d610f6e565b60200260200101818152505061064b6102c684838151811061063157610631610f6e565b60200260200101518984815181106102b0576102b0610f6e565b91508061065781610f9a565b915050610585565b506000816040516020016106739190610fb3565b6040516020818303038152906040528051906020012060001c905060005b83518110156106ff576106d0610396836103908a85815181106106b6576106b6610f6e565b60200260200101518a868151811061038357610383610f6e565b8482815181106106e2576106e2610f6e565b6020908102919091010152806106f781610f9a565b915050610691565b5050604080518082019091529081526020810191909152949350505050565b60008160200151518551146107845760405162461bcd60e51b815260206004820152602660248201527f5061727469616c457175616c6974793a2076657269667920756e657175616c206044820152650d8cadccee8d60d31b60648201526084016100ec565b604080518082019091526000808252602082018190525b86518110156107d4576107c06102c68560200151838151811061063157610631610f6e565b9150806107cc81610f9a565b91505061079b565b5082516040516000916107e991602001610fb3565b6040516020818303038152906040528051906020012060001c9050600061081f85600001516104c6846104cb8b6104c68c61095e565b905061082b83826109e2565b98975050505050505050565b61083f610a1f565b8160010361084e57508161089a565b816002036108675761086083846108a0565b905061089a565b61086f610a39565b83518152602080850151908201526040808201849052826060836007600019fa61089857600080fd5b505b92915050565b6108a8610a1f565b6108b0610a57565b83518152602080850151818301528351604080840191909152908401516060830152826080836006600019fa61089857600080fd5b600081831015610917578261090883600080516020610ff1833981519152610fca565b6109129190610fdd565b610921565b6109218284610fca565b9392505050565b6000600080516020610ff18339815191528284099392505050565b6000600080516020610ff18339815191528284089392505050565b610966610a1f565b815115801561097757506020820151155b15610995575050604080518082019091526000808252602082015290565b60405180604001604052808360000151815260200183602001517f30644e72e131a029b85045b68181585d97816a916871ca8d3c208c16d87cfd476109da9190610fca565b905292915050565b805182516000911480156109215750506020908101519101511490565b6040518060400160405280610a12610a1f565b8152602001606081525090565b604051806040016040528060008152602001600081525090565b60405180606001604052806003906020820280368337509192915050565b60405180608001604052806004906020820280368337509192915050565b634e487b7160e01b600052604160045260246000fd5b604080519081016001600160401b0381118282101715610aad57610aad610a75565b60405290565b604051601f8201601f191681016001600160401b0381118282101715610adb57610adb610a75565b604052919050565b60006001600160401b03821115610afc57610afc610a75565b5060051b60200190565b600060408284031215610b1857600080fd5b610b20610a8b565b9050813581526020820135602082015292915050565b600082601f830112610b4757600080fd5b81356020610b5c610b5783610ae3565b610ab3565b82815260069290921b84018101918181019086841115610b7b57600080fd5b8286015b84811015610b9f57610b918882610b06565b835291830191604001610b7f565b509695505050505050565b600082601f830112610bbb57600080fd5b81356020610bcb610b5783610ae3565b82815260059290921b84018101918181019086841115610bea57600080fd5b8286015b84811015610b9f5780358352918301918301610bee565b60008060008060808587031215610c1b57600080fd5b84356001600160401b0380821115610c3257600080fd5b610c3e88838901610b36565b95506020870135915080821115610c5457600080fd5b610c6088838901610baa565b94506040870135915080821115610c7657600080fd5b610c8288838901610baa565b93506060870135915080821115610c9857600080fd5b50610ca587828801610baa565b91505092959194509250565b602080825282518051838301528101516040830152600090608083018482015160608581015280519182905282019060009060a08601905b80831015610b9f5783518252928401926001929092019190840190610ce9565b600060608284031215610d1b57600080fd5b610d23610a8b565b9050610d2f8383610b06565b815260408201356001600160401b03811115610d4a57600080fd5b610d5684828501610baa565b60208301525092915050565b600080600080600060e08688031215610d7a57600080fd5b85356001600160401b0380821115610d9157600080fd5b610d9d89838a01610b36565b96506020880135915080821115610db357600080fd5b610dbf89838a01610baa565b9550610dce8960408a01610b06565b9450610ddd8960808a01610b06565b935060c0880135915080821115610df357600080fd5b50610e0088828901610d09565b9150509295509295909350565b600080600060608486031215610e2257600080fd5b83356001600160401b0380821115610e3957600080fd5b610e4587838801610b36565b94506020860135915080821115610e5b57600080fd5b610e6787838801610baa565b93506040860135915080821115610e7d57600080fd5b50610e8a86828701610baa565b9150509250925092565b60008060008060c08587031215610eaa57600080fd5b84356001600160401b0380821115610ec157600080fd5b610ecd88838901610b36565b9550610edc8860208901610b06565b9450610eeb8860608901610b06565b935060a0870135915080821115610f0157600080fd5b50610ca587828801610d09565b60208082526027908201527f5061727469616c457175616c7469793a207769746e65737320756e657175616c604082015266040d8cadccee8d60cb1b606082015260800190565b600060208284031215610f6757600080fd5b5051919050565b634e487b7160e01b600052603260045260246000fd5b634e487b7160e01b600052601160045260246000fd5b600060018201610fac57610fac610f84565b5060010190565b81518152602080830151908201526040810161089a565b8181038181111561089a5761089a610f84565b8082018082111561089a5761089a610f8456fe30644e72e131a029b85045b68181585d2833e84879b9709143e1f593f0000001a2646970667358221220076f8d0e9991cd3aa1674b2625b0fc399749fc30ec968b9c10b47c9667bcff7f64736f6c63430008130033608060405234801561001057600080fd5b5060405161001d9061005f565b604051809103906000f080158015610039573d6000803e3d6000fd5b50600080546001600160a01b0319166001600160a01b039290921691909117905561006c565b611cbd80611c1183390190565b611b968061007b6000396000f3fe608060405234801561001057600080fd5b506004361061006d5760003560e01c8063504af2ae146100725780636b7411c51461009b57806375242580146100be5780637d2beca3146100d15780639e61ce62146100e45780639e8e957d14610104578063f4f4b60914610126575b600080fd5b6100856100803660046110b5565b610146565b604051610092919061118e565b60405180910390f35b6100ae6100a9366004611297565b610175565b6040519015158152602001610092565b6100ae6100cc3660046113f8565b61024a565b6100856100df366004611583565b610384565b6100f76100f23660046115b0565b61041e565b604051610092919061166a565b6101176101123660046116a2565b610545565b6040516100929392919061170a565b610139610134366004611583565b61081c565b6040516100929190611747565b61014e610e01565b50604080516080810182529081019384526060810192909252918152602081019190915290565b60008061018a85600001518460200151610a2c565b90506000805b866020015151811015610230576101ea836101e5896020015184815181106101ba576101ba61175a565b6020026020010151886000015185815181106101d8576101d861175a565b6020026020010151610a2c565b610a93565b925061021c856000015182815181106102055761020561175a565b602002602001015183610ad890919063ffffffff16565b91508061022881611786565b915050610190565b5061024085876020015184610af3565b1495945050505050565b600080610264848660000151602001518560200151610af3565b8351865151919250600091610290916102859161028091610a2c565b610bc7565b602086015190610a93565b6040805160808101825288516020908101518252808a015190820152808201839052606081018590526000548783015192516310a4eddf60e21b815293945090926001600160a01b0390911691634293b77c916102f19185916004016117f0565b602060405180830381865afa15801561030e573d6000803e3d6000fd5b505050506040513d601f19601f82011682018060405250810190610332919061181e565b6103775760405162461bcd60e51b8152602060048201526011602482015270111d585b149a5b99d150c819985a5b1959607a1b60448201526064015b60405180910390fd5b5060019695505050505050565b61038c610e01565b610396838361081c565b816000018190525061041373__alt_bn128_____________________________635ec01e4d6040518163ffffffff1660e01b8152600401602060405180830381865af41580156103ea573d6000803e3d6000fd5b505050506040513d601f19601f8201168201806040525081019061040e9190611840565b610c39565b602082015292915050565b610426610e26565b61042e610e70565b6000610438610e8a565b8651610445908787610545565b604080516080810182528b516020908101518252808d0151818301528501518c51519598509396509194506000939192908301916104919161048a9161028091610a2c565b8590610a93565b8152602001849052600080548651604051630ae8fb3b60e21b815293945091926001600160a01b0390911691632ba3ecec916104d1918691600401611859565b600060405180830381865afa1580156104ee573d6000803e3d6000fd5b505050506040513d6000823e601f3d908101601f1916820160405261051691908101906118fd565b905060405180606001604052808660200151815260200184815260200182815250955050505050509392505050565b61054d610e70565b6000610557610e8a565b6020868101515190850151106105ba5760405162461bcd60e51b815260206004820152602260248201527f4475616c52696e673a20736563726574206b657920696e76616c696420696e646044820152610caf60f31b606482015260840161036e565b60008660200151516001600160401b038111156105d9576105d9610f3c565b604051908082528060200260200182016040528015610602578160200160208202803683370190505b509050600073__alt_bn128_____________________________635ec01e4d6040518163ffffffff1660e01b8152600401602060405180830381865af4158015610650573d6000803e3d6000fd5b505050506040513d601f19601f820116820180604052508101906106749190611840565b9050610684886000015182610a2c565b92506000805b896020015151811015610790576020880151811461077e5773__alt_bn128_____________________________635ec01e4d6040518163ffffffff1660e01b8152600401602060405180830381865af41580156106eb573d6000803e3d6000fd5b505050506040513d601f19601f8201168201806040525081019061070f9190611840565b8482815181106107215761072161175a565b6020026020010181815250506107428482815181106102055761020561175a565b915061077b856101e58c6020015184815181106107615761076161175a565b60200260200101518785815181106101d8576101d861175a565b94505b8061078881611786565b91505061068a565b506107a0888a6020015186610af3565b945060006107ae8683610d33565b905080848960016020020151815181106107ca576107ca61175a565b602090810291909101015287516000906107f8906107f1906107ec9085610d76565b610d91565b8590610ad8565b60408051808201909152958652602086015250929994985092965092945050505050565b610824610ea4565b602082015183116108855760405162461bcd60e51b815260206004820152602560248201527f4475616c52696e673a20736563726574206b657920696e76616c696420706f7360448201526434ba34b7b760d91b606482015260840161036e565b6108d173__alt_bn128_____________________________635ec01e4d6040518163ffffffff1660e01b8152600401602060405180830381865af41580156103ea573d6000803e3d6000fd5b8152826001600160401b038111156108eb576108eb610f3c565b60405190808252806020026020018201604052801561092457816020015b610911610e8a565b8152602001906001900390816109095790505b5060208201528151815161093791610a2c565b60208281015190840151815181106109515761095161175a565b602002602001018190525060005b83811015610a255760208301518114610a1357600073__alt_bn128_____________________________635ec01e4d6040518163ffffffff1660e01b8152600401602060405180830381865af41580156109bd573d6000803e3d6000fd5b505050506040513d601f19601f820116820180604052508101906109e19190611840565b83519091506109f09082610a2c565b83602001518381518110610a0657610a0661175a565b6020026020010181905250505b80610a1d81611786565b91505061095f565b5092915050565b610a34610e8a565b81600103610a43575081610a8d565b81600203610a5c57610a558384610a93565b9050610a8d565b610a64610ec4565b83518152602080850151908201526040808201849052826060836007600019fa610a2557600080fd5b92915050565b610a9b610e8a565b610aa3610ee2565b83518152602080850151818301528351604080840191909152908401516060830152826080836006600019fa610a2557600080fd5b6000600080516020611b418339815191528284089392505050565b604051630ef39c1960e41b8152600090600080516020611b4183398151915290859073__alt_bn128_____________________________9063ef39c19090610b3f9088906004016119ba565b600060405180830381865af4158015610b5c573d6000803e3d6000fd5b505050506040513d6000823e601f3d908101601f19168201604052610b849190810190611a2b565b8451602080870151604051610b9c9594939201611a98565b6040516020818303038152906040528051906020012060001c610bbf9190611ad2565b949350505050565b610bcf610e8a565b8151158015610be057506020820151155b15610bfe575050604080518082019091526000808252602082015290565b6040518060400160405280836000015181526020018360200151600080516020611b21833981519152610c319190611ae6565b905292915050565b610c41610e8a565b6000610c5b600080516020611b2183398151915284611ad2565b90506000610c6a600183611ae6565b91506000805b81610d1957610c80600185611af9565b9350600080516020611b218339815191528485099050600080516020611b218339815191528482099050600080516020611b21833981519152600382089050610cfc816004610cde600080516020611b218339815191526001611af9565b610ce89190611b0c565b600080516020611b21833981519152610dab565b925080600080516020611b21833981519152848509149150610c70565b505060408051808201909152918252602082015292915050565b600081831015610d655782610d5683600080516020611b41833981519152611ae6565b610d609190611af9565b610d6f565b610d6f8284611ae6565b9392505050565b6000600080516020611b418339815191528284099392505050565b6000610a8d82600080516020611b41833981519152611ae6565b6000610db5610f00565b610dbd610f1e565b602080835282810181905260408301819052606083018790526080830186905260a083018590528160c0846005600019fa610df757600080fd5b5195945050505050565b6040518060400160405280610e14610ea4565b8152602001610e21610e8a565b905290565b604051806060016040528060008152602001610e40610e8a565b8152602001610e216040518060800160405280606081526020016060815260200160008152602001600081525090565b604051806040016040528060608152602001600081525090565b604051806040016040528060008152602001600081525090565b6040518060400160405280610eb7610e8a565b8152602001606081525090565b60405180606001604052806003906020820280368337509192915050565b60405180608001604052806004906020820280368337509192915050565b6040518060c001604052806006906020820280368337509192915050565b60405180602001604052806001906020820280368337509192915050565b634e487b7160e01b600052604160045260246000fd5b604080519081016001600160401b0381118282101715610f7457610f74610f3c565b60405290565b604051606081016001600160401b0381118282101715610f7457610f74610f3c565b604051608081016001600160401b0381118282101715610f7457610f74610f3c565b604051601f8201601f191681016001600160401b0381118282101715610fe657610fe6610f3c565b604052919050565b60006040828403121561100057600080fd5b611008610f52565b9050813581526020820135602082015292915050565b60006001600160401b0382111561103757611037610f3c565b5060051b60200190565b600082601f83011261105257600080fd5b813560206110676110628361101e565b610fbe565b82815260069290921b8401810191818101908684111561108657600080fd5b8286015b848110156110aa5761109c8882610fee565b83529183019160400161108a565b509695505050505050565b600080600060a084860312156110ca57600080fd5b6110d48585610fee565b925060408401356001600160401b038111156110ef57600080fd5b6110fb86828701611041565b92505061110b8560608601610fee565b90509250925092565b80518252602090810151910152565b600081518084526020808501945080840160005b8381101561115d5761114a878351611114565b6040969096019590820190600101611137565b509495945050505050565b611173828251611114565b6000602082015160606040850152610bbf6060850182611123565b6020815260008251606060208401526111aa6080840182611168565b905060208401516111be6040850182611114565b509392505050565b6000606082840312156111d857600080fd5b6111e0610f52565b90506111ec8383610fee565b815260408201356001600160401b0381111561120757600080fd5b61121384828501611041565b60208301525092915050565b60006001600160401b0382111561123857611238610f3c565b50601f01601f191660200190565b600082601f83011261125757600080fd5b81356112656110628261121f565b81815284602083860101111561127a57600080fd5b816020850160208301376000918101602001919091529392505050565b6000806000606084860312156112ac57600080fd5b83356001600160401b03808211156112c357600080fd5b6112cf878388016111c6565b94506020915081860135818111156112e657600080fd5b6112f288828901611246565b94505060408601358181111561130757600080fd5b86016040818903121561131957600080fd5b611321610f52565b81358381111561133057600080fd5b82019250601f8301891361134357600080fd5b82356113516110628261101e565b81815260059190911b8401850190858101908b83111561137057600080fd5b948601945b8286101561138e57853582529486019490860190611375565b8084525050508382013584820152809450505050509250925092565b6000606082840312156113bc57600080fd5b6113c4610f52565b905081356001600160401b038111156113dc57600080fd5b6113e8848285016111c6565b8252506104138360208401610fee565b60008060006060848603121561140d57600080fd5b83356001600160401b038082111561142457600080fd5b611430878388016113aa565b9450602086013591508082111561144657600080fd5b61145287838801611246565b9350604086013591508082111561146857600080fd5b908501906080828803121561147c57600080fd5b611484610f7a565b823581526114958860208501610fee565b60208201526060830135828111156114ac57600080fd5b9290920191608083890312156114c157600080fd5b6114c9610f9c565b8335838111156114d857600080fd5b6114e48a828701611041565b8252506020840135838111156114f957600080fd5b6115058a828701611041565b6020830152506040840135604082015260608401356060820152806040830152508093505050509250925092565b600082601f83011261154457600080fd5b61154c610f52565b80604084018581111561155e57600080fd5b845b81811015611578578035845260209384019301611560565b509095945050505050565b6000806060838503121561159657600080fd5b823591506115a78460208501611533565b90509250929050565b6000806000608084860312156115c557600080fd5b83356001600160401b03808211156115dc57600080fd5b6115e8878388016113aa565b945060208601359150808211156115fe57600080fd5b5061160b86828701611246565b92505061110b8560408601611533565b60008151608084526116306080850182611123565b9050602083015184820360208601526116498282611123565b91505060408301516040850152606083015160608501528091505092915050565b6020815281516020820152600060208301516116896040840182611114565b506040830151608080840152610bbf60a084018261161b565b6000806000608084860312156116b757600080fd5b83356001600160401b03808211156116ce57600080fd5b6115e8878388016111c6565b600081518084526020808501945080840160005b8381101561115d578151875295820195908201906001016116ee565b60808152600084516040608084015261172660c08401826116da565b60208781015160a086015284018690529150610bbf90506040830184611114565b602081526000610d6f6020830184611168565b634e487b7160e01b600052603260045260246000fd5b634e487b7160e01b600052601160045260246000fd5b60006001820161179857611798611770565b5060010190565b6000815160c084526117b460c0850182611123565b905060208301516117c86020860182611114565b5060408301516117db6060860182611114565b50606083015160a08501528091505092915050565b604081526000611803604083018561179f565b8281036020840152611815818561161b565b95945050505050565b60006020828403121561183057600080fd5b81518015158114610d6f57600080fd5b60006020828403121561185257600080fd5b5051919050565b60408152600061186c604083018561179f565b828103602084015261181581856116da565b600082601f83011261188f57600080fd5b8151602061189f6110628361101e565b82815260069290921b840181019181810190868411156118be57600080fd5b8286015b848110156110aa57604081890312156118db5760008081fd5b6118e3610f52565b8151815284820151858201528352918301916040016118c2565b60006020828403121561190f57600080fd5b81516001600160401b038082111561192657600080fd5b908301906080828603121561193a57600080fd5b611942610f9c565b82518281111561195157600080fd5b61195d8782860161187e565b82525060208301518281111561197257600080fd5b61197e8782860161187e565b602083015250604083015160408201526060830151606082015280935050505092915050565b634e487b7160e01b600052601260045260246000fd5b602080825282518282018190526000919060409081850190868401855b828110156119fa576119ea848351611114565b92840192908501906001016119d7565b5091979650505050505050565b60005b83811015611a22578181015183820152602001611a0a565b50506000910152565b600060208284031215611a3d57600080fd5b81516001600160401b03811115611a5357600080fd5b8201601f81018413611a6457600080fd5b8051611a726110628261121f565b818152856020838501011115611a8757600080fd5b611815826020830160208601611a07565b60008551611aaa818460208a01611a07565b855190830190611abe818360208a01611a07565b019384525050602082015260400192915050565b600082611ae157611ae16119a4565b500690565b81810381811115610a8d57610a8d611770565b80820180821115610a8d57610a8d611770565b600082611b1b57611b1b6119a4565b50049056fe30644e72e131a029b85045b68181585d97816a916871ca8d3c208c16d87cfd4730644e72e131a029b85045b68181585d2833e84879b9709143e1f593f0000001a2646970667358221220169c6e6c7bcc8be6bbf7870c52d2eebf90047edb1003818d17cbb19b9276d52e64736f6c63430008130033608060405234801561001057600080fd5b50611c9d806100206000396000f3fe608060405234801561001057600080fd5b50600436106100415760003560e01c806324f35549146100465780632ba3ecec1461006f5780634293b77c1461008f575b600080fd5b61005961005436600461167a565b6100b2565b604051610066919061170a565b60405180910390f35b61008261007d366004611889565b6102a8565b60405161006691906118ec565b6100a261009d366004611946565b610827565b6040519015158152602001610066565b6100ba6114b8565b600182516100c89190611a27565b825116156100f15760405162461bcd60e51b81526004016100e890611a3a565b60405180910390fd5b81516001600160401b0381111561010a5761010a61157e565b60405190808252806020026020018201604052801561014357816020015b6101306114ec565b8152602001906001900390816101285790505b50815260005b825181101561019757610165610160826002611a7e565b610e07565b825180518390811061017957610179611a91565b6020026020010181905250808061018f90611aa7565b915050610149565b506101a26001610e07565b6020820152815182906000906101ba576101ba611a91565b602002602001015181606001818152505061020d81600001516000815181106101e5576101e5611a91565b60200260200101518360008151811061020057610200611a91565b6020026020010151610f01565b604082015260015b82518110156102a257610245826060015184838151811061023857610238611a91565b6020026020010151610f69565b606083015260408201518251805161028b9291610286918590811061026c5761026c611a91565b602002602001015186858151811061020057610200611a91565b610f84565b60408301528061029a81611aa7565b915050610215565b50919050565b6102d36040518060800160405280606081526020016060815260200160008152602001600081525090565b600182516102e19190611a27565b825116156103015760405162461bcd60e51b81526004016100e890611a3a565b600061030d8351610fc9565b9050806001600160401b038111156103275761032761157e565b60405190808252806020026020018201604052801561036057816020015b61034d6114ec565b8152602001906001900390816103455790505b508252806001600160401b0381111561037b5761037b61157e565b6040519080825280602002602001820160405280156103b457816020015b6103a16114ec565b8152602001906001900390816103995790505b5060208301526040808501519051632f2d020d60e01b815260009173__alt_bn128_____________________________91632f2d020d916103f791600401611ac0565b600060405180830381865af4158015610414573d6000803e3d6000fd5b505050506040513d6000823e601f3d908101601f1916820160405261043c9190810190611af2565b6020860151604051632f2d020d60e01b815273__alt_bn128_____________________________91632f2d020d916104779190600401611ac0565b600060405180830381865af4158015610494573d6000803e3d6000fd5b505050506040513d6000823e601f3d908101601f191682016040526104bc9190810190611af2565b86606001516040516020016104d393929190611b85565b6040516020818303038152906040528051906020012060001c905060006104fe866020015183610f01565b9050600085516001600160401b0381111561051b5761051b61157e565b604051908082528060200260200182016040528015610544578160200160208202803683370190505b509050600086516001600160401b038111156105625761056261157e565b60405190808252806020026020018201604052801561059b57816020015b6105886114ec565b8152602001906001900390816105805790505b50905060005b82518110156106155760018382815181106105be576105be611a91565b602090810291909101015288518051829081106105dd576105dd611a91565b60200260200101518282815181106105f7576105f7611a91565b6020026020010181905250808061060d90611aa7565b9150506105a1565b5061061e6114ec565b6106266114ec565b6000805b888110156107d05761063e858c888a610ff3565b8b51805192965090945085918390811061065a5761065a611a91565b6020026020010181905250828a60200151828151811061067c5761067c611a91565b6020908102919091010152604051632f2d020d60e01b815273__alt_bn128_____________________________90632f2d020d906106be908790600401611ac0565b600060405180830381865af41580156106db573d6000803e3d6000fd5b505050506040513d6000823e601f3d908101601f191682016040526107039190810190611af2565b604051632f2d020d60e01b815273__alt_bn128_____________________________90632f2d020d9061073a908790600401611ac0565b600060405180830381865af4158015610757573d6000803e3d6000fd5b505050506040513d6000823e601f3d908101601f1916820160405261077f9190810190611af2565b604051602001610790929190611bba565b6040516020818303038152906040528051906020012060001c91506107b7858c88856111ce565b909c5096509450806107c881611aa7565b91505061062a565b50896000815181106107e4576107e4611a91565b60200260200101518960400181815250508460008151811061080857610808611a91565b6020026020010151896060018181525050505050505050505092915050565b600080610838846000015151610fc9565b90506000816001600160401b038111156108545761085461157e565b60405190808252806020026020018201604052801561087d578160200160208202803683370190505b5090506000826001600160401b0381111561089a5761089a61157e565b6040519080825280602002602001820160405280156108c3578160200160208202803683370190505b50905060008073__alt_bn128_____________________________632f2d020d89604001516040518263ffffffff1660e01b81526004016109049190611ac0565b600060405180830381865af4158015610921573d6000803e3d6000fd5b505050506040513d6000823e601f3d908101601f191682016040526109499190810190611af2565b6020890151604051632f2d020d60e01b815273__alt_bn128_____________________________91632f2d020d916109849190600401611ac0565b600060405180830381865af41580156109a1573d6000803e3d6000fd5b505050506040513d6000823e601f3d908101601f191682016040526109c99190810190611af2565b89606001516040516020016109e093929190611b85565b6040516020818303038152906040528051906020012060001c90506000610a2089604001516102868b60200151610a1b8d60600151876113f2565b610f01565b90506001925060005b86811015610cce5773__alt_bn128_____________________________632f2d020d8a600001518381518110610a6157610a61611a91565b60200260200101516040518263ffffffff1660e01b8152600401610a859190611ac0565b600060405180830381865af4158015610aa2573d6000803e3d6000fd5b505050506040513d6000823e601f3d908101601f19168201604052610aca9190810190611af2565b73__alt_bn128_____________________________632f2d020d8b602001518481518110610afa57610afa611a91565b60200260200101516040518263ffffffff1660e01b8152600401610b1e9190611ac0565b600060405180830381865af4158015610b3b573d6000803e3d6000fd5b505050506040513d6000823e601f3d908101601f19168201604052610b639190810190611af2565b604051602001610b74929190611bba565b6040516020818303038152906040528051906020012060001c868281518110610b9f57610b9f611a91565b602002602001018181525050610bcd868281518110610bc057610bc0611a91565b602002602001015161140d565b858281518110610bdf57610bdf611a91565b602002602001018181525050610c4c826102868b600001518481518110610c0857610c08611a91565b6020026020010151610a1b8a8681518110610c2557610c25611a91565b60200260200101518b8781518110610c3f57610c3f611a91565b60200260200101516113f2565b9150610ca2826102868b602001518481518110610c6b57610c6b611a91565b6020026020010151610a1b898681518110610c8857610c88611a91565b60200260200101518a8781518110610c3f57610c3f611a91565b9150610cba84868381518110610c3f57610c3f611a91565b935080610cc681611aa7565b915050610a29565b506000610cf98a60000151600081518110610ceb57610ceb611a91565b602002602001015185610f01565b905060015b8a5151811015610dbb576001945060005b88811015610d7b57600182821c811603610d5557610d4e86896001610d34858e611a27565b610d3e9190611a27565b81518110610c3f57610c3f611a91565b9550610d69565b610d6686886001610d34858e611a27565b95505b80610d7381611aa7565b915050610d0f565b50610da7826102868d600001518481518110610d9957610d99611a91565b602002602001015188610f01565b915080610db381611aa7565b915050610cfe565b50610ddb81610286610dd18d6020015187610f01565b8c60600151610f01565b9050610deb818a60400151610f01565b9050610df78282611440565b9750505050505050505b92915050565b610e0f6114ec565b6000610e29600080516020611c2883398151915284611bff565b90506000610e38600183611a27565b91506000805b81610ee757610e4e600185611a7e565b9350600080516020611c288339815191528485099050600080516020611c288339815191528482099050600080516020611c28833981519152600382089050610eca816004610eac600080516020611c288339815191526001611a7e565b610eb69190611c13565b600080516020611c28833981519152611462565b925080600080516020611c28833981519152848509149150610e3e565b505060408051808201909152918252602082015292915050565b610f096114ec565b81600103610f18575081610e01565b81600203610f3157610f2a8384610f84565b9050610e01565b610f39611506565b83518152602080850151908201526040808201849052826060836007600019fa610f6257600080fd5b5092915050565b6000600080516020611c488339815191528284089392505050565b610f8c6114ec565b610f94611524565b83518152602080850151818301528351604080840191909152908401516060830152826080836006600019fa610f6257600080fd5b60005b6001821115610fee57610fe0600182611a7e565b9050600182901c9150610fcc565b919050565b610ffb6114ec565b6110036114ec565b6000600286516110139190611c13565b905060006110478760008151811061102d5761102d611a91565b6020026020010151878481518110610c3f57610c3f611a91565b9050600061107b88848151811061106057611060611a91565b602002602001015188600081518110610c3f57610c3f611a91565b905060015b8381101561110d576110bb836110b68b84815181106110a1576110a1611a91565b60200260200101518b8589610d3e9190611a7e565b610f69565b92506110f9826110b68b6110cf8589611a7e565b815181106110df576110df611a91565b60200260200101518b8581518110610c3f57610c3f611a91565b91508061110581611aa7565b915050611080565b506111188683610f01565b94506111248682610f01565b935060005b838110156111c15761116d866102868c6111438589611a7e565b8151811061115357611153611a91565b60200260200101518c858151811061020057610200611a91565b95506111ad856102868c848151811061118857611188611a91565b60200260200101518c858961119d9190611a7e565b8151811061020057610200611a91565b9450806111b981611aa7565b915050611129565b5050505094509492505050565b60608060606000600287516111e39190611c13565b905060006111f08661140d565b9050816001600160401b0381111561120a5761120a61157e565b60405190808252806020026020018201604052801561124357816020015b6112306114ec565b8152602001906001900390816112285790505b509450816001600160401b0381111561125e5761125e61157e565b604051908082528060200260200182016040528015611287578160200160208202803683370190505b509350816001600160401b038111156112a2576112a261157e565b6040519080825280602002602001820160405280156112cb578160200160208202803683370190505b50925060005b828110156113e55761132b6112ff8b83815181106112f1576112f1611a91565b602002602001015184610f01565b6102868c61130d8588611a7e565b8151811061131d5761131d611a91565b60200260200101518a610f01565b86828151811061133d5761133d611a91565b6020026020010181905250611370611361888b8481518110610c3f57610c3f611a91565b6110b6848c610d3e8689611a7e565b85828151811061138257611382611a91565b6020026020010181815250506113b66113a7838a8481518110610c3f57610c3f611a91565b6110b6898b610d3e8689611a7e565b8482815181106113c8576113c8611a91565b6020908102919091010152806113dd81611aa7565b9150506112d1565b5050509450945094915050565b6000600080516020611c488339815191528284099392505050565b6000610e018261142c6002600080516020611c48833981519152611a27565b600080516020611c48833981519152611462565b8051825160009114801561145b575081602001518360200151145b9392505050565b600061146c611542565b611474611560565b602080835282810181905260408301819052606083018790526080830186905260a083018590528160c0846005600019fa6114ae57600080fd5b5195945050505050565b6040518060800160405280606081526020016114d26114ec565b81526020016114df6114ec565b8152602001600081525090565b604051806040016040528060008152602001600081525090565b60405180606001604052806003906020820280368337509192915050565b60405180608001604052806004906020820280368337509192915050565b6040518060c001604052806006906020820280368337509192915050565b60405180602001604052806001906020820280368337509192915050565b634e487b7160e01b600052604160045260246000fd5b604051608081016001600160401b03811182821017156115b6576115b661157e565b60405290565b604051601f8201601f191681016001600160401b03811182821017156115e4576115e461157e565b604052919050565b60006001600160401b038211156116055761160561157e565b5060051b60200190565b600082601f83011261162057600080fd5b81356020611635611630836115ec565b6115bc565b82815260059290921b8401810191818101908684111561165457600080fd5b8286015b8481101561166f5780358352918301918301611658565b509695505050505050565b60006020828403121561168c57600080fd5b81356001600160401b038111156116a257600080fd5b6116ae8482850161160f565b949350505050565b80518252602090810151910152565b600081518084526020808501945080840160005b838110156116ff576116ec8783516116b6565b60409690960195908201906001016116d9565b509495945050505050565b602081526000825160c0602084015261172660e08401826116c5565b9050602084015161173a60408501826116b6565b50604084015161174d60808501826116b6565b50606084015160c08401528091505092915050565b60006040828403121561177457600080fd5b604080519081016001600160401b03811182821017156117965761179661157e565b604052823581526020928301359281019290925250919050565b600082601f8301126117c157600080fd5b813560206117d1611630836115ec565b82815260069290921b840181019181810190868411156117f057600080fd5b8286015b8481101561166f576118068882611762565b8352918301916040016117f4565b600060c0828403121561182657600080fd5b61182e611594565b905081356001600160401b0381111561184657600080fd5b611852848285016117b0565b8252506118628360208401611762565b60208201526118748360608401611762565b604082015260a0820135606082015292915050565b6000806040838503121561189c57600080fd5b82356001600160401b03808211156118b357600080fd5b6118bf86838701611814565b935060208501359150808211156118d557600080fd5b506118e28582860161160f565b9150509250929050565b60208152600082516080602084015261190860a08401826116c5565b90506020840151601f1984830301604085015261192582826116c5565b91505060408401516060840152606084015160808401528091505092915050565b6000806040838503121561195957600080fd5b82356001600160401b038082111561197057600080fd5b61197c86838701611814565b9350602085013591508082111561199257600080fd5b90840190608082870312156119a657600080fd5b6119ae611594565b8235828111156119bd57600080fd5b6119c9888286016117b0565b8252506020830135828111156119de57600080fd5b6119ea888286016117b0565b60208301525060408301356040820152606083013560608201528093505050509250929050565b634e487b7160e01b600052601160045260246000fd5b81810381811115610e0157610e01611a11565b60208082526024908201527f766563746f72206c656e6774682073686f756c64206265206120706f7765722060408201526337b3101960e11b606082015260800190565b80820180821115610e0157610e01611a11565b634e487b7160e01b600052603260045260246000fd5b600060018201611ab957611ab9611a11565b5060010190565b60408101610e0182846116b6565b60005b83811015611ae9578181015183820152602001611ad1565b50506000910152565b600060208284031215611b0457600080fd5b81516001600160401b0380821115611b1b57600080fd5b818401915084601f830112611b2f57600080fd5b815181811115611b4157611b4161157e565b611b54601f8201601f19166020016115bc565b9150808252856020828501011115611b6b57600080fd5b611b7c816020840160208601611ace565b50949350505050565b60008451611b97818460208901611ace565b845190830190611bab818360208901611ace565b01928352505060200192915050565b60008351611bcc818460208801611ace565b835190830190611be0818360208801611ace565b01949350505050565b634e487b7160e01b600052601260045260246000fd5b600082611c0e57611c0e611be9565b500690565b600082611c2257611c22611be9565b50049056fe30644e72e131a029b85045b68181585d97816a916871ca8d3c208c16d87cfd4730644e72e131a029b85045b68181585d2833e84879b9709143e1f593f0000001a26469706673582212208edf92ab67f6259793d11cefeb0472e76654151e552474fdaeac5aa8058cc3d264736f6c63430008130033608060405234801561001057600080fd5b50610b22806100206000396000f3fe608060405234801561001057600080fd5b50600436106100365760003560e01c8063d9502f751461003b578063ff9cfea914610063575b600080fd5b61004e610049366004610871565b610083565b60405190151581526020015b60405180910390f35b610076610071366004610967565b610268565b60405161005a91906109f4565b60008160400151518651146101015760405162461bcd60e51b815260206004820152603960248201527f4469666647656e457175616c203a2067656e657261746f7220616e64207265736044820152780e0dedce6ca40d8cadccee8d040c8de40dcdee840dac2e8c6d603b1b60648201526084015b60405180910390fd5b60008260000151836020015160405160200161011e929190610a5b565b6040516020818303038152906040528051906020012060001c9050600061016b8460400151888151811061015457610154610a76565b60200260200101518a61053a90919063ffffffff16565b845190915060009061018790610181898661053a565b906105a3565b9050600061019583836105e8565b905060006040518060400160405280600081526020016000815250905060005b8b518110156102255761021161020a896040015183815181106101da576101da610a76565b60200260200101518e84815181106101f4576101f4610a76565b602002602001015161053a90919063ffffffff16565b83906105a3565b91508061021d81610a8c565b9150506101b5565b50602087015160009061023c906101818b8961053a565b9050600061024a83836105e8565b90508380156102565750805b9e9d5050505050505050505050505050565b610270610640565b81518451146102e15760405162461bcd60e51b815260206004820152603760248201527f4469666647656e457175616c3a2067656e657261746f7220616e64207769746e6044820152760cae6e640d8cadccee8d040c8de40dcdee840dac2e8c6d604b1b60648201526084016100f8565b600082516001600160401b038111156102fc576102fc6106c3565b604051908082528060200260200182016040528015610325578160200160208202803683370190505b50905060006040518060400160405280600081526020016000815250905060005b82518110156104205773__alt_bn128_____________________________635ec01e4d6040518163ffffffff1660e01b8152600401602060405180830381865af4158015610398573d6000803e3d6000fd5b505050506040513d601f19601f820116820180604052508101906103bc9190610ab3565b8382815181106103ce576103ce610a76565b60200260200101818152505061040c61020a8483815181106103f2576103f2610a76565b60200260200101518984815181106101f4576101f4610a76565b91508061041881610a8c565b915050610346565b50600061044f83878151811061043857610438610a76565b60200260200101518961053a90919063ffffffff16565b905060008183604051602001610466929190610a5b565b6040516020818303038152906040528051906020012060001c905060005b8451811015610513576104e46104bc838984815181106104a6576104a6610a76565b602002602001015161060a90919063ffffffff16565b8683815181106104ce576104ce610a76565b602002602001015161062590919063ffffffff16565b8582815181106104f6576104f6610a76565b60209081029190910101528061050b81610a8c565b915050610484565b50506040805160608101825291825260208201929092529081019190915295945050505050565b61054261066d565b8160010361055157508161059d565b8160020361056a5761056383846105a3565b905061059d565b610572610687565b83518152602080850151908201526040808201849052826060836007600019fa61059b57600080fd5b505b92915050565b6105ab61066d565b6105b36106a5565b83518152602080850151818301528351604080840191909152908401516060830152826080836006600019fa61059b57600080fd5b80518251600091148015610603575081602001518360200151145b9392505050565b6000600080516020610acd8339815191528284099392505050565b6000600080516020610acd8339815191528284089392505050565b604051806060016040528061065361066d565b815260200161066061066d565b8152602001606081525090565b604051806040016040528060008152602001600081525090565b60405180606001604052806003906020820280368337509192915050565b60405180608001604052806004906020820280368337509192915050565b634e487b7160e01b600052604160045260246000fd5b604051606081016001600160401b03811182821017156106fb576106fb6106c3565b60405290565b604051601f8201601f191681016001600160401b0381118282101715610729576107296106c3565b604052919050565b60006040828403121561074357600080fd5b604080519081016001600160401b0381118282101715610765576107656106c3565b604052823581526020928301359281019290925250919050565b60006001600160401b03821115610798576107986106c3565b5060051b60200190565b600082601f8301126107b357600080fd5b813560206107c86107c38361077f565b610701565b82815260069290921b840181019181810190868411156107e757600080fd5b8286015b8481101561080b576107fd8882610731565b8352918301916040016107eb565b509695505050505050565b600082601f83011261082757600080fd5b813560206108376107c38361077f565b82815260059290921b8401810191818101908684111561085657600080fd5b8286015b8481101561080b578035835291830191830161085a565b600080600080600080610120878903121561088b57600080fd5b6108958888610731565b955060408701356001600160401b03808211156108b157600080fd5b6108bd8a838b016107a2565b9650606089013595506108d38a60808b01610731565b94506108e28a60c08b01610731565b93506101008901359150808211156108f957600080fd5b9088019060a0828b03121561090d57600080fd5b6109156106d9565b61091f8b84610731565b815261092e8b60408501610731565b602082015260808301358281111561094557600080fd5b6109518c828601610816565b6040830152508093505050509295509295509295565b60008060008060a0858703121561097d57600080fd5b6109878686610731565b935060408501356001600160401b03808211156109a357600080fd5b6109af888389016107a2565b94506060870135935060808701359150808211156109cc57600080fd5b506109d987828801610816565b91505092959194509250565b80518252602090810151910152565b6000602080835260c08301610a0c82850186516109e5565b81850151610a1d60608601826109e5565b50604085015160a08581015280519182905282019060009060e08601905b8083101561080b5783518252928401926001929092019190840190610a3b565b60808101610a6982856109e5565b61060360408301846109e5565b634e487b7160e01b600052603260045260246000fd5b600060018201610aac57634e487b7160e01b600052601160045260246000fd5b5060010190565b600060208284031215610ac557600080fd5b505191905056fe30644e72e131a029b85045b68181585d2833e84879b9709143e1f593f0000001a264697066735822122008729c557d2c68b62416dbce34bc214c7e8e84a071a0c41961de8d23387c113064736f6c63430008130033",
  "immutableReferences": {},
  "source": "// SPDX-License-Identifier: GPL-3.0\npragma solidity >=0.4.0 <0.9.0;\n\nimport \"../lib/alt_bn128.sol\";\nimport \"../PubParam.sol\";\nimport {PartialEquality as PE} from \"../ZKP/PartialEquality.sol\";\nimport {DualRingEC as DR} from \"../ZKP/DualRingEC.sol\";\nimport {DiffGenEqual as DG} from \"../ZKP/DiffGenEqual.sol\";\n\ncontract SoKwd {\n\n  using alt_bn128 for uint256;\n  using alt_bn128 for alt_bn128.G1Point;\n\n  /// @param R ring accounts\n  /// @param tag tag = g_tag^sk\n  /// @param attrS (ty, val, t_beg, t_end)\n  /// @param u_rcpt receipt address\n  struct TX {\n    alt_bn128.G1Point[] R; \n    alt_bn128.G1Point tag;\n    uint256[] attrS;\n    address u_rcpt;\n  }\n\n  struct Sig {\n    alt_bn128.G1Point acc_d;\n    DR.SigEC dr_sig;\n    DG.Sig dg_sig;\n    PE.Sig pe_sig;\n  }\n\n  PubParam pp;\n  PE pe;\n  DR dr;\n  DG dg;\n\n  // constructor (address pp_addr, address pe_addr, address dr_addr, address dg_addr) {\n  //   pe = PE(pe_addr);\n  //   dr = DR(dr_addr);\n  //   dg = DG(dg_addr);\n  //   pp = PubParam(pp_addr);\n  // }\n\n  constructor (address pp_addr) {\n    pp = PubParam(pp_addr);\n    pe = new PE();\n    dr = new DR();\n    dg = new DG();\n  }\n\n  function sign(TX memory tx_wd, uint256[4] memory wit) public view returns (Sig memory sig){\n    require (tx_wd.tag.eq(pp.TagEval(wit[1])), \"Tag matches\");\n\n    uint n = pp.n();\n    uint pub_l = tx_wd.attrS.length;\n    uint ne_l = n-tx_wd.attrS.length;\n\n    uint256[] memory acc_d_attr = new uint256[](n);\n    uint256[] memory y = new uint256[](n);\n    uint256[] memory i_ne = new uint256[](ne_l);\n\n    for (uint i = 0; i < pub_l; i++) {\n      acc_d_attr[i] = tx_wd.attrS[i];\n      y[i] = tx_wd.attrS[i];\n    }\n\n    for (uint i = 0; i < ne_l; i++) {\n      acc_d_attr[pub_l+i] = wit[1+i]; // (sk, opn, ok)\n      i_ne[i] = pub_l + i; // [4,5,6]\n    }\n\n    acc_d_attr[n-1] = alt_bn128.random(); // acc_d ok'\n\n    alt_bn128.G1Point memory acc_d = pp.Com(acc_d_attr); // acc_d\n    sig.acc_d = acc_d;\n\n    // alt_bn128.G1Point[] memory new_R = new alt_bn128.G1Point[](tx_wd.R.length); // ring pks\n\n    for (uint i = 0; i < tx_wd.R.length; i++) {\n      tx_wd.R[i] = tx_wd.R[i].add(acc_d.neg()); // ring pks := {acc/acc_d}\n    }\n\n    DR.ParamEC memory dr_pp = dr.param(pp.g_ok(), tx_wd.R, pp.h());\n    bytes memory m = abi.encode(tx_wd.u_rcpt);\n    uint256[2] memory skj = [wit[3].sub(acc_d_attr[n-1]), wit[0]]; // (ok-ok', theta)\n\n    /// @dev Ring signature {acc/acc_d}\n    sig.dr_sig = dr.signEC(dr_pp, m, skj);\n\n    /// @dev Diff Gen Equal signature (tag vs acc_d)\n    sig.dg_sig = dg.sign(pp.g_tag(), pp.gs(), pp.sk_pos(), acc_d_attr);\n\n    /// @dev Partial Equality signature (acc_d vs pub)\n    sig.pe_sig = pe.sign(pp.gs(), acc_d_attr, y, i_ne);\n\n  }\n\n  \n  function verify(TX memory tx_wd, Sig memory sig) public view returns (bool) {\n    DR.ParamEC memory dr_pp = dr.param(pp.g_ok(), tx_wd.R, pp.h());\n    bytes memory m = abi.encode(tx_wd.u_rcpt);\n\n    /// @dev verify Ring signature\n    bool b_dr = dr.verifyEC(dr_pp, m, sig.dr_sig);\n    require (b_dr, \"Ring signature does not pass\");\n\n    /// @dev verify Diff Gen Equal signature\n    bool b_dg = dg.verify(pp.g_tag(), pp.gs(), pp.sk_pos(), tx_wd.tag, sig.acc_d, sig.dg_sig);\n    require (b_dg, \"Diff Gen Equal signature does not pass\");\n\n    uint256[] memory y = new uint256[](pp.n());\n    for (uint i = 0; i < tx_wd.attrS.length; i++) {\n      y[i] = tx_wd.attrS[i];\n    }\n    alt_bn128.G1Point memory Cy = pp.Com(y);\n\n    uint256[] memory ine = new uint256[](pp.n() - tx_wd.attrS.length);\n    for (uint i = 0; i < ine.length; i++) {\n      ine[i] = i+tx_wd.attrS.length; // [4,5,6]\n    }\n\n    /// @dev verify Partial Equality signature\n    bool b_pe = pe.verify(pp.gs(), ine, sig.acc_d, Cy, sig.pe_sig);\n    require (b_pe, \"Partial Equality signature does not pass\");\n\n    return b_dr && b_dg && b_pe;\n  }\n}",
  "sourcePath": "/Users/qian/Desktop/Y4/COMP4550/project/XCSwap/contracts/TX/SoKwd.sol",
  "compiler": {
    "name": "solc",
    "version": "0.8.19+commit.7dd6d404.Emscripten.clang"
  },
  "schemaVersion": "3.4.13",
  "updatedAt": "2023-08-04T04:56:27.132Z",
  "devdoc": {
    "kind": "dev",
    "methods": {},
    "version": 1
  },
  "userdoc": {
    "kind": "user",
    "methods": {},
    "version": 1
  }
}