{
  "contractName": "SoKwd",
  "abi": [
    {
      "inputs": [
        {
          "internalType": "address",
          "name": "pp_addr",
          "type": "address"
        },
        {
          "internalType": "address",
          "name": "pe_addr",
          "type": "address"
        },
        {
          "internalType": "address",
          "name": "dr_addr",
          "type": "address"
        },
        {
          "internalType": "address",
          "name": "dg_addr",
          "type": "address"
        },
        {
          "internalType": "address",
          "name": "om_addr",
          "type": "address"
        }
      ],
      "stateMutability": "nonpayable",
      "type": "constructor"
    },
    {
      "inputs": [
        {
          "components": [
            {
              "components": [
                {
                  "internalType": "uint256",
                  "name": "X",
                  "type": "uint256"
                },
                {
                  "internalType": "uint256",
                  "name": "Y",
                  "type": "uint256"
                }
              ],
              "internalType": "struct alt_bn128.G1Point[]",
              "name": "R",
              "type": "tuple[]"
            },
            {
              "components": [
                {
                  "internalType": "uint256",
                  "name": "X",
                  "type": "uint256"
                },
                {
                  "internalType": "uint256",
                  "name": "Y",
                  "type": "uint256"
                }
              ],
              "internalType": "struct alt_bn128.G1Point[]",
              "name": "gs",
              "type": "tuple[]"
            },
            {
              "components": [
                {
                  "internalType": "uint256",
                  "name": "X",
                  "type": "uint256"
                },
                {
                  "internalType": "uint256",
                  "name": "Y",
                  "type": "uint256"
                }
              ],
              "internalType": "struct alt_bn128.G1Point",
              "name": "tag",
              "type": "tuple"
            },
            {
              "internalType": "uint256[]",
              "name": "attrS",
              "type": "uint256[]"
            },
            {
              "internalType": "address",
              "name": "u_rcpt",
              "type": "address"
            }
          ],
          "internalType": "struct SoKwd.TX",
          "name": "tx_wd",
          "type": "tuple"
        },
        {
          "internalType": "uint256[4]",
          "name": "wit",
          "type": "uint256[4]"
        }
      ],
      "name": "sign",
      "outputs": [
        {
          "components": [
            {
              "components": [
                {
                  "internalType": "uint256",
                  "name": "X",
                  "type": "uint256"
                },
                {
                  "internalType": "uint256",
                  "name": "Y",
                  "type": "uint256"
                }
              ],
              "internalType": "struct alt_bn128.G1Point",
              "name": "acc_d",
              "type": "tuple"
            },
            {
              "components": [
                {
                  "components": [
                    {
                      "internalType": "uint256",
                      "name": "X",
                      "type": "uint256"
                    },
                    {
                      "internalType": "uint256",
                      "name": "Y",
                      "type": "uint256"
                    }
                  ],
                  "internalType": "struct alt_bn128.G1Point",
                  "name": "cv",
                  "type": "tuple"
                },
                {
                  "components": [
                    {
                      "internalType": "uint256",
                      "name": "X",
                      "type": "uint256"
                    },
                    {
                      "internalType": "uint256",
                      "name": "Y",
                      "type": "uint256"
                    }
                  ],
                  "internalType": "struct alt_bn128.G1Point",
                  "name": "ct",
                  "type": "tuple"
                },
                {
                  "components": [
                    {
                      "internalType": "uint256",
                      "name": "X",
                      "type": "uint256"
                    },
                    {
                      "internalType": "uint256",
                      "name": "Y",
                      "type": "uint256"
                    }
                  ],
                  "internalType": "struct alt_bn128.G1Point[]",
                  "name": "cds",
                  "type": "tuple[]"
                },
                {
                  "internalType": "uint256[]",
                  "name": "fs",
                  "type": "uint256[]"
                },
                {
                  "internalType": "uint256",
                  "name": "u",
                  "type": "uint256"
                },
                {
                  "internalType": "uint256",
                  "name": "s",
                  "type": "uint256"
                }
              ],
              "internalType": "struct OneofMany.Sig",
              "name": "om_sig",
              "type": "tuple"
            },
            {
              "components": [
                {
                  "components": [
                    {
                      "internalType": "uint256",
                      "name": "X",
                      "type": "uint256"
                    },
                    {
                      "internalType": "uint256",
                      "name": "Y",
                      "type": "uint256"
                    }
                  ],
                  "internalType": "struct alt_bn128.G1Point",
                  "name": "cx",
                  "type": "tuple"
                },
                {
                  "components": [
                    {
                      "internalType": "uint256",
                      "name": "X",
                      "type": "uint256"
                    },
                    {
                      "internalType": "uint256",
                      "name": "Y",
                      "type": "uint256"
                    }
                  ],
                  "internalType": "struct alt_bn128.G1Point",
                  "name": "cy",
                  "type": "tuple"
                },
                {
                  "internalType": "uint256[]",
                  "name": "zs",
                  "type": "uint256[]"
                }
              ],
              "internalType": "struct DiffGenEqual.Sig",
              "name": "dg_sig",
              "type": "tuple"
            },
            {
              "components": [
                {
                  "components": [
                    {
                      "internalType": "uint256",
                      "name": "X",
                      "type": "uint256"
                    },
                    {
                      "internalType": "uint256",
                      "name": "Y",
                      "type": "uint256"
                    }
                  ],
                  "internalType": "struct alt_bn128.G1Point",
                  "name": "c",
                  "type": "tuple"
                },
                {
                  "internalType": "uint256[]",
                  "name": "zs",
                  "type": "uint256[]"
                }
              ],
              "internalType": "struct PartialEquality.Sig",
              "name": "pe_sig",
              "type": "tuple"
            }
          ],
          "internalType": "struct SoKwd.Sig",
          "name": "sig",
          "type": "tuple"
        }
      ],
      "stateMutability": "view",
      "type": "function",
      "constant": true
    },
    {
      "inputs": [
        {
          "components": [
            {
              "components": [
                {
                  "internalType": "uint256",
                  "name": "X",
                  "type": "uint256"
                },
                {
                  "internalType": "uint256",
                  "name": "Y",
                  "type": "uint256"
                }
              ],
              "internalType": "struct alt_bn128.G1Point[]",
              "name": "R",
              "type": "tuple[]"
            },
            {
              "components": [
                {
                  "internalType": "uint256",
                  "name": "X",
                  "type": "uint256"
                },
                {
                  "internalType": "uint256",
                  "name": "Y",
                  "type": "uint256"
                }
              ],
              "internalType": "struct alt_bn128.G1Point[]",
              "name": "gs",
              "type": "tuple[]"
            },
            {
              "components": [
                {
                  "internalType": "uint256",
                  "name": "X",
                  "type": "uint256"
                },
                {
                  "internalType": "uint256",
                  "name": "Y",
                  "type": "uint256"
                }
              ],
              "internalType": "struct alt_bn128.G1Point",
              "name": "tag",
              "type": "tuple"
            },
            {
              "internalType": "uint256[]",
              "name": "attrS",
              "type": "uint256[]"
            },
            {
              "internalType": "address",
              "name": "u_rcpt",
              "type": "address"
            }
          ],
          "internalType": "struct SoKwd.TX",
          "name": "tx_wd",
          "type": "tuple"
        },
        {
          "components": [
            {
              "components": [
                {
                  "internalType": "uint256",
                  "name": "X",
                  "type": "uint256"
                },
                {
                  "internalType": "uint256",
                  "name": "Y",
                  "type": "uint256"
                }
              ],
              "internalType": "struct alt_bn128.G1Point",
              "name": "acc_d",
              "type": "tuple"
            },
            {
              "components": [
                {
                  "components": [
                    {
                      "internalType": "uint256",
                      "name": "X",
                      "type": "uint256"
                    },
                    {
                      "internalType": "uint256",
                      "name": "Y",
                      "type": "uint256"
                    }
                  ],
                  "internalType": "struct alt_bn128.G1Point",
                  "name": "cv",
                  "type": "tuple"
                },
                {
                  "components": [
                    {
                      "internalType": "uint256",
                      "name": "X",
                      "type": "uint256"
                    },
                    {
                      "internalType": "uint256",
                      "name": "Y",
                      "type": "uint256"
                    }
                  ],
                  "internalType": "struct alt_bn128.G1Point",
                  "name": "ct",
                  "type": "tuple"
                },
                {
                  "components": [
                    {
                      "internalType": "uint256",
                      "name": "X",
                      "type": "uint256"
                    },
                    {
                      "internalType": "uint256",
                      "name": "Y",
                      "type": "uint256"
                    }
                  ],
                  "internalType": "struct alt_bn128.G1Point[]",
                  "name": "cds",
                  "type": "tuple[]"
                },
                {
                  "internalType": "uint256[]",
                  "name": "fs",
                  "type": "uint256[]"
                },
                {
                  "internalType": "uint256",
                  "name": "u",
                  "type": "uint256"
                },
                {
                  "internalType": "uint256",
                  "name": "s",
                  "type": "uint256"
                }
              ],
              "internalType": "struct OneofMany.Sig",
              "name": "om_sig",
              "type": "tuple"
            },
            {
              "components": [
                {
                  "components": [
                    {
                      "internalType": "uint256",
                      "name": "X",
                      "type": "uint256"
                    },
                    {
                      "internalType": "uint256",
                      "name": "Y",
                      "type": "uint256"
                    }
                  ],
                  "internalType": "struct alt_bn128.G1Point",
                  "name": "cx",
                  "type": "tuple"
                },
                {
                  "components": [
                    {
                      "internalType": "uint256",
                      "name": "X",
                      "type": "uint256"
                    },
                    {
                      "internalType": "uint256",
                      "name": "Y",
                      "type": "uint256"
                    }
                  ],
                  "internalType": "struct alt_bn128.G1Point",
                  "name": "cy",
                  "type": "tuple"
                },
                {
                  "internalType": "uint256[]",
                  "name": "zs",
                  "type": "uint256[]"
                }
              ],
              "internalType": "struct DiffGenEqual.Sig",
              "name": "dg_sig",
              "type": "tuple"
            },
            {
              "components": [
                {
                  "components": [
                    {
                      "internalType": "uint256",
                      "name": "X",
                      "type": "uint256"
                    },
                    {
                      "internalType": "uint256",
                      "name": "Y",
                      "type": "uint256"
                    }
                  ],
                  "internalType": "struct alt_bn128.G1Point",
                  "name": "c",
                  "type": "tuple"
                },
                {
                  "internalType": "uint256[]",
                  "name": "zs",
                  "type": "uint256[]"
                }
              ],
              "internalType": "struct PartialEquality.Sig",
              "name": "pe_sig",
              "type": "tuple"
            }
          ],
          "internalType": "struct SoKwd.Sig",
          "name": "sig",
          "type": "tuple"
        }
      ],
      "name": "verify",
      "outputs": [
        {
          "internalType": "bool",
          "name": "",
          "type": "bool"
        }
      ],
      "stateMutability": "view",
      "type": "function",
      "constant": true
    }
  ],
  "bytecode": "0x60806040523480156200001157600080fd5b506040516200241c3803806200241c8339810160408190526200003491620000b4565b600080546001600160a01b03199081166001600160a01b0397881617909155600180548216958716959095179094556002805485169386169390931790925560038054841691851691909117905560048054909216921691909117905562000124565b80516001600160a01b0381168114620000af57600080fd5b919050565b600080600080600060a08688031215620000cd57600080fd5b620000d88662000097565b9450620000e86020870162000097565b9350620000f86040870162000097565b9250620001086060870162000097565b9150620001186080870162000097565b90509295509295909350565b6122e880620001346000396000f3fe608060405234801561001057600080fd5b50600436106100365760003560e01c806366c227661461003b578063f453530a14610063575b600080fd5b61004e6100493660046117f4565b610083565b60405190151581526020015b60405180910390f35b61007661007136600461196c565b6108ea565b60405161005a9190611b58565b6000805b8351518110156100fd576100cb6100a1846000015161120d565b85518051849081106100b5576100b5611bca565b602002602001015161129190919063ffffffff16565b84518051839081106100df576100df611bca565b602002602001018190525080806100f590611bf6565b915050610087565b506004805460208501518551600080546040805163eef6a68160e01b8152815193976001600160a01b03978816976329db819197969594169363eef6a68193838301939092908290030181865afa15801561015c573d6000803e3d6000fd5b505050506040513d601f19601f820116820180604052508101906101809190611c3f565b6040518463ffffffff1660e01b815260040161019e93929190611c95565b600060405180830381865afa1580156101bb573d6000803e3d6000fd5b505050506040513d6000823e601f3d908101601f191682016040526101e39190810190611d2e565b600480546020860151604051630d74aab160e31b81529394506000936001600160a01b0390921692636ba555889261021f928792909101611e1b565b602060405180830381865afa15801561023c573d6000803e3d6000fd5b505050506040513d601f19601f820116820180604052508101906102609190611e40565b9050806102b35760405162461bcd60e51b815260206004820152601c60248201527b52696e67207369676e617475726520646f6573206e6f74207061737360201b60448201526064015b60405180910390fd5b6003546000805460408051632d74e53160e01b8152815193946001600160a01b039081169463d9502f759490911692632d74e53192600480820193918290030181865afa158015610308573d6000803e3d6000fd5b505050506040513d601f19601f8201168201806040525081019061032c9190611c3f565b600080546040805162e71aaf60e01b815290516001600160a01b039092169262e71aaf926004808401938290030181865afa15801561036f573d6000803e3d6000fd5b505050506040513d6000823e601f3d908101601f191682016040526103979190810190611e62565b60008054906101000a90046001600160a01b03166001600160a01b031663babe4fe56040518163ffffffff1660e01b8152600401602060405180830381865afa1580156103e8573d6000803e3d6000fd5b505050506040513d601f19601f8201168201806040525081019061040c9190611e96565b6040808c01518b518c83015192516001600160e01b031960e089901b16815261043b9695949390600401611eaf565b602060405180830381865afa158015610458573d6000803e3d6000fd5b505050506040513d601f19601f8201168201806040525081019061047c9190611e40565b9050806104da5760405162461bcd60e51b815260206004820152602660248201527f446966662047656e20457175616c207369676e617475726520646f6573206e6f60448201526574207061737360d01b60648201526084016102aa565b60008060009054906101000a90046001600160a01b03166001600160a01b0316632e52d6066040518163ffffffff1660e01b8152600401602060405180830381865afa15801561052e573d6000803e3d6000fd5b505050506040513d601f19601f820116820180604052508101906105529190611e96565b6001600160401b0381111561056957610569611446565b604051908082528060200260200182016040528015610592578160200160208202803683370190505b50905060005b8760600151518110156105f257876060015181815181106105bb576105bb611bca565b60200260200101518282815181106105d5576105d5611bca565b6020908102919091010152806105ea81611bf6565b915050610598565b50600080546040516338e0cdcb60e11b81526001600160a01b03909116906371c19b9690610624908590600401611f12565b6040805180830381865afa158015610640573d6000803e3d6000fd5b505050506040513d601f19601f820116820180604052508101906106649190611c3f565b9050600088606001515160008054906101000a90046001600160a01b03166001600160a01b0316632e52d6066040518163ffffffff1660e01b8152600401602060405180830381865afa1580156106bf573d6000803e3d6000fd5b505050506040513d601f19601f820116820180604052508101906106e39190611e96565b6106ed9190611f25565b6001600160401b0381111561070457610704611446565b60405190808252806020026020018201604052801561072d578160200160208202803683370190505b50905060005b815181101561077b5760608a01515161074c9082611f38565b82828151811061075e5761075e611bca565b60209081029190910101528061077381611bf6565b915050610733565b50600154600080546040805162e71aaf60e01b8152905192936001600160a01b0390811693633ef87f26939091169162e71aaf91600480830192889291908290030181865afa1580156107d2573d6000803e3d6000fd5b505050506040513d6000823e601f3d908101601f191682016040526107fa9190810190611e62565b848c60000151878e606001516040518663ffffffff1660e01b8152600401610826959493929190611f4b565b602060405180830381865afa158015610843573d6000803e3d6000fd5b505050506040513d601f19601f820116820180604052508101906108679190611e40565b9050806108c75760405162461bcd60e51b815260206004820152602860248201527f5061727469616c20457175616c697479207369676e617475726520646f6573206044820152676e6f74207061737360c01b60648201526084016102aa565b8580156108d15750845b80156108da5750805b9750505050505050505b92915050565b6108f261134d565b6000546020830151604051639766247160e01b81526004810191909152610971916001600160a01b0316906397662471906024016040805180830381865afa158015610942573d6000803e3d6000fd5b505050506040513d601f19601f820116820180604052508101906109669190611c3f565b6040850151906112dd565b6109ab5760405162461bcd60e51b815260206004820152600b60248201526a546167206d61746368657360a81b60448201526064016102aa565b60008060009054906101000a90046001600160a01b03166001600160a01b0316632e52d6066040518163ffffffff1660e01b8152600401602060405180830381865afa1580156109ff573d6000803e3d6000fd5b505050506040513d601f19601f82011682018060405250810190610a239190611e96565b6060850151519091506000610a388284611f25565b90506000836001600160401b03811115610a5457610a54611446565b604051908082528060200260200182016040528015610a7d578160200160208202803683370190505b5090506000846001600160401b03811115610a9a57610a9a611446565b604051908082528060200260200182016040528015610ac3578160200160208202803683370190505b5090506000836001600160401b03811115610ae057610ae0611446565b604051908082528060200260200182016040528015610b09578160200160208202803683370190505b50905060005b85811015610ba05789606001518181518110610b2d57610b2d611bca565b6020026020010151848281518110610b4757610b47611bca565b60200260200101818152505089606001518181518110610b6957610b69611bca565b6020026020010151838281518110610b8357610b83611bca565b602090810291909101015280610b9881611bf6565b915050610b0f565b5060005b84811015610c2c5788610bb8826001611f38565b60048110610bc857610bc8611bca565b602002015184610bd88389611f38565b81518110610be857610be8611bca565b6020908102919091010152610bfd8187611f38565b828281518110610c0f57610c0f611bca565b602090810291909101015280610c2481611bf6565b915050610ba4565b5073__alt_bn128_____________________________635ec01e4d6040518163ffffffff1660e01b8152600401602060405180830381865af4158015610c76573d6000803e3d6000fd5b505050506040513d601f19601f82011682018060405250810190610c9a9190611e96565b83610ca6600189611f25565b81518110610cb657610cb6611bca565b6020908102919091010152600080546040516338e0cdcb60e11b81526001600160a01b03909116906371c19b9690610cf2908790600401611f12565b6040805180830381865afa158015610d0e573d6000803e3d6000fd5b505050506040513d601f19601f82011682018060405250810190610d329190611c3f565b808952905060005b8a5151811015610d9657610d64610d508361120d565b8c518051849081106100b5576100b5611bca565b8b51805183908110610d7857610d78611bca565b60200260200101819052508080610d8e90611bf6565b915050610d3a565b506004805460208c01518c51600080546040805163eef6a68160e01b8152815193976001600160a01b03978816976329db819197969594169363eef6a68193838301939092908290030181865afa158015610df5573d6000803e3d6000fd5b505050506040513d601f19601f82011682018060405250810190610e199190611c3f565b6040518463ffffffff1660e01b8152600401610e3793929190611c95565b600060405180830381865afa158015610e54573d6000803e3d6000fd5b505050506040513d6000823e601f3d908101601f19168201604052610e7c9190810190611d2e565b905060006040518060400160405280610ed28860018d610e9c9190611f25565b81518110610eac57610eac611bca565b60200260200101518e600360048110610ec757610ec7611bca565b6020020151906112ff565b81528c5160209091015260048054604051634350525160e11b81529293506001600160a01b0316916386a0a4a291610f0e918691869101611faa565b600060405180830381865afa158015610f2b573d6000803e3d6000fd5b505050506040513d6000823e601f3d908101601f19168201604052610f53919081019061204b565b60208b015260035460005460408051632d74e53160e01b815281516001600160a01b039485169463ff9cfea9941692632d74e53192600480820193918290030181865afa158015610fa8573d6000803e3d6000fd5b505050506040513d601f19601f82011682018060405250810190610fcc9190611c3f565b600080546040805162e71aaf60e01b815290516001600160a01b039092169262e71aaf926004808401938290030181865afa15801561100f573d6000803e3d6000fd5b505050506040513d6000823e601f3d908101601f191682016040526110379190810190611e62565b60008054906101000a90046001600160a01b03166001600160a01b031663babe4fe56040518163ffffffff1660e01b8152600401602060405180830381865afa158015611088573d6000803e3d6000fd5b505050506040513d601f19601f820116820180604052508101906110ac9190611e96565b8a6040518563ffffffff1660e01b81526004016110cc9493929190612114565b600060405180830381865afa1580156110e9573d6000803e3d6000fd5b505050506040513d6000823e601f3d908101601f191682016040526111119190810190612157565b60408b81019190915260015460008054835162e71aaf60e01b815293516001600160a01b03938416946319d54992949092169262e71aaf92600480820193918290030181865afa158015611169573d6000803e3d6000fd5b505050506040513d6000823e601f3d908101601f191682016040526111919190810190611e62565b8888886040518563ffffffff1660e01b81526004016111b394939291906121e7565b600060405180830381865afa1580156111d0573d6000803e3d6000fd5b505050506040513d6000823e601f3d908101601f191682016040526111f89190810190612234565b60608b015250979a9950505050505050505050565b61121561138c565b815115801561122657506020820151155b15611244575050604080518082019091526000808252602082015290565b60405180604001604052808360000151815260200183602001517f30644e72e131a029b85045b68181585d97816a916871ca8d3c208c16d87cfd476112899190611f25565b905292915050565b61129961138c565b6112a16113a6565b83518152602080850151818301528351604080840191909152908401516060830152826080836006600019fa6112d657600080fd5b5092915050565b805182516000911480156112f8575081602001518360200151145b9392505050565b6000818310156113435782611334837f30644e72e131a029b85045b68181585d2833e84879b9709143e1f593f0000001611f25565b61133e9190611f38565b6112f8565b6112f88284611f25565b604051806080016040528061136061138c565b815260200161136d6113c4565b815260200161137a611406565b8152602001611387611433565b905290565b604051806040016040528060008152602001600081525090565b60405180608001604052806004906020820280368337509192915050565b6040518060c001604052806113d761138c565b81526020016113e461138c565b8152602001606081526020016060815260200160008152602001600081525090565b604051806060016040528061141961138c565b815260200161142661138c565b8152602001606081525090565b604051806040016040528061142661138c565b634e487b7160e01b600052604160045260246000fd5b604080519081016001600160401b038111828210171561147e5761147e611446565b60405290565b60405160a081016001600160401b038111828210171561147e5761147e611446565b604051606081016001600160401b038111828210171561147e5761147e611446565b604051608081016001600160401b038111828210171561147e5761147e611446565b60405160c081016001600160401b038111828210171561147e5761147e611446565b604051601f8201601f191681016001600160401b038111828210171561153457611534611446565b604052919050565b60006001600160401b0382111561155557611555611446565b5060051b60200190565b60006040828403121561157157600080fd5b61157961145c565b9050813581526020820135602082015292915050565b600082601f8301126115a057600080fd5b813560206115b56115b08361153c565b61150c565b82815260069290921b840181019181810190868411156115d457600080fd5b8286015b848110156115f8576115ea888261155f565b8352918301916040016115d8565b509695505050505050565b600082601f83011261161457600080fd5b813560206116246115b08361153c565b82815260059290921b8401810191818101908684111561164357600080fd5b8286015b848110156115f85780358352918301918301611647565b80356001600160a01b038116811461167557600080fd5b919050565b600060c0828403121561168c57600080fd5b611694611484565b905081356001600160401b03808211156116ad57600080fd5b6116b98583860161158f565b835260208401359150808211156116cf57600080fd5b6116db8583860161158f565b60208401526116ed856040860161155f565b6040840152608084013591508082111561170657600080fd5b5061171384828501611603565b60608301525061172560a0830161165e565b608082015292915050565b600060a0828403121561174257600080fd5b61174a6114a6565b9050611756838361155f565b8152611765836040840161155f565b602082015260808201356001600160401b0381111561178357600080fd5b61178f84828501611603565b60408301525092915050565b6000606082840312156117ad57600080fd5b6117b561145c565b90506117c1838361155f565b815260408201356001600160401b038111156117dc57600080fd5b6117e884828501611603565b60208301525092915050565b6000806040838503121561180757600080fd5b82356001600160401b038082111561181e57600080fd5b61182a8683870161167a565b9350602085013591508082111561184057600080fd5b9084019060a0828703121561185457600080fd5b61185c6114c8565b611866878461155f565b815260408301358281111561187a57600080fd5b8301610100818903121561188d57600080fd5b6118956114ea565b61189f898361155f565b81526118ae896040840161155f565b60208201526080820135848111156118c557600080fd5b6118d18a82850161158f565b60408301525060a0820135848111156118e957600080fd5b6118f58a828501611603565b60608301525060c0820135608082015260e082013560a0820152806020840152505060608301358281111561192957600080fd5b61193588828601611730565b60408301525060808301358281111561194d57600080fd5b6119598882860161179b565b6060830152508093505050509250929050565b60008060a0838503121561197f57600080fd5b82356001600160401b0381111561199557600080fd5b6119a18582860161167a565b925050602084603f8501126119b557600080fd5b6119bd6114c8565b8060a08601878111156119cf57600080fd5b8387015b818110156119ea57803584529284019284016119d3565b509497909650945050505050565b80518252602090810151910152565b600081518084526020808501945080840160005b83811015611a4157611a2e8783516119f8565b6040969096019590820190600101611a1b565b509495945050505050565b600081518084526020808501945080840160005b83811015611a4157815187529582019590820190600101611a60565b6000610100611a8c8484516119f8565b6020830151611a9e60408601826119f8565b506040830151816080860152611ab682860182611a07565b915050606083015184820360a0860152611ad08282611a4c565b915050608083015160c085015260a083015160e08501528091505092915050565b611afc8282516119f8565b60006020820151611b1060408501826119f8565b50604082015160a06080850152611b2a60a0850182611a4c565b949350505050565b611b3d8282516119f8565b6000602082015160606040850152611b2a6060850182611a4c565b60208152611b6a6020820183516119f8565b6000602083015160a06060840152611b8560c0840182611a7c565b90506040840151601f1980858403016080860152611ba38383611af1565b925060608601519150808584030160a086015250611bc18282611b32565b95945050505050565b634e487b7160e01b600052603260045260246000fd5b634e487b7160e01b600052601160045260246000fd5b600060018201611c0857611c08611be0565b5060010190565b600060408284031215611c2157600080fd5b611c2961145c565b9050815181526020820151602082015292915050565b600060408284031215611c5157600080fd5b6112f88383611c0f565b600081518084526020808501945080840160005b83811015611a4157611c828783516119f8565b6040969096019590820190600101611c6f565b608081526000611ca86080830186611c5b565b8281036020840152611cba8186611c5b565b915050611b2a60408301846119f8565b600082601f830112611cdb57600080fd5b81516020611ceb6115b08361153c565b82815260069290921b84018101918181019086841115611d0a57600080fd5b8286015b848110156115f857611d208882611c0f565b835291830191604001611d0e565b600060208284031215611d4057600080fd5b81516001600160401b0380821115611d5757600080fd5b9083019060808286031215611d6b57600080fd5b611d736114a6565b825182811115611d8257600080fd5b611d8e87828601611cca565b825250602083015182811115611da357600080fd5b611daf87828601611cca565b602083015250611dc28660408501611c0f565b604082015295945050505050565b6000815160808452611de56080850182611a07565b905060208301518482036020860152611dfe8282611a07565b9150506040830151611e1360408601826119f8565b509392505050565b604081526000611e2e6040830185611dd0565b8281036020840152611bc18185611a7c565b600060208284031215611e5257600080fd5b815180151581146112f857600080fd5b600060208284031215611e7457600080fd5b81516001600160401b03811115611e8a57600080fd5b611b2a84828501611cca565b600060208284031215611ea857600080fd5b5051919050565b6000610120611ebe838a6119f8565b806040840152611ed081840189611c5b565b9050866060840152611ee560808401876119f8565b611ef260c08401866119f8565b828103610100840152611f058185611af1565b9998505050505050505050565b6020815260006112f86020830184611a4c565b818103818111156108e4576108e4611be0565b808201808211156108e4576108e4611be0565b60e081526000611f5e60e0830188611c5b565b8281036020840152611f708188611a4c565b9050611f7f60408401876119f8565b611f8c60808401866119f8565b82810360c0840152611f9e8185611b32565b98975050505050505050565b606081526000611fbd6060830185611dd0565b905060208083018460005b6002811015611fe557815183529183019190830190600101611fc8565b505050509392505050565b600082601f83011261200157600080fd5b815160206120116115b08361153c565b82815260059290921b8401810191818101908684111561203057600080fd5b8286015b848110156115f85780518352918301918301612034565b60006020828403121561205d57600080fd5b81516001600160401b038082111561207457600080fd5b90830190610100828603121561208957600080fd5b6120916114ea565b61209b8684611c0f565b81526120aa8660408501611c0f565b60208201526080830151828111156120c157600080fd5b6120cd87828601611cca565b60408301525060a0830151828111156120e557600080fd5b6120f187828601611ff0565b60608301525060c0830151608082015260e09092015160a0830152509392505050565b61211e81866119f8565b60a06040820152600061213460a0830186611c5b565b846060840152828103608084015261214c8185611a4c565b979650505050505050565b60006020828403121561216957600080fd5b81516001600160401b038082111561218057600080fd5b9083019060a0828603121561219457600080fd5b61219c6114a6565b6121a68684611c0f565b81526121b58660408501611c0f565b60208201526080830151828111156121cc57600080fd5b6121d887828601611ff0565b60408301525095945050505050565b6080815260006121fa6080830187611c5b565b828103602084015261220c8187611a4c565b905082810360408401526122208186611a4c565b9050828103606084015261214c8185611a4c565b60006020828403121561224657600080fd5b81516001600160401b038082111561225d57600080fd5b908301906060828603121561227157600080fd5b61227961145c565b6122838684611c0f565b815260408301518281111561229757600080fd5b6122a387828601611ff0565b6020830152509594505050505056fea264697066735822122001fb58d997785bf2b4823a9be71a8929882c66cffca7bfdd2b2d6d5950ecb62164736f6c63430008130033",
  "immutableReferences": {},
  "source": "// SPDX-License-Identifier: GPL-3.0\npragma solidity >=0.4.0 <0.9.0;\n\nimport \"../lib/alt_bn128.sol\";\nimport \"../PubParam.sol\";\nimport {PartialEquality as PE} from \"../ZKP/PartialEquality.sol\";\nimport {DualRingEC as DR} from \"../ZKP/DualRingEC.sol\";\nimport {OneofMany as OM} from \"../ZKP/OneofMany.sol\";\nimport {DiffGenEqual as DG} from \"../ZKP/DiffGenEqual.sol\";\n\ncontract SoKwd {\n\n  using alt_bn128 for uint256;\n  using alt_bn128 for alt_bn128.G1Point;\n\n  /// @param R N ring accounts\n  /// @param gs log N generators\n  /// @param tag tag = g_tag^sk\n  /// @param attrS (ty, val, t_beg, t_end)\n  /// @param u_rcpt receipt address\n  struct TX {\n    alt_bn128.G1Point[] R;\n    alt_bn128.G1Point[] gs;\n    alt_bn128.G1Point tag;\n    uint256[] attrS;\n    address u_rcpt;\n  }\n\n  struct Sig {\n    alt_bn128.G1Point acc_d;\n    // DR.SigEC dr_sig;\n    OM.Sig om_sig;\n    DG.Sig dg_sig;\n    PE.Sig pe_sig;\n  }\n\n  PubParam pp;\n  PE pe;\n  DR dr;\n  DG dg;\n  OM om;\n\n  constructor (address pp_addr, address pe_addr, address dr_addr, address dg_addr, address om_addr) {\n    pp = PubParam(pp_addr);\n    pe = PE(pe_addr);\n    dr = DR(dr_addr);\n    dg = DG(dg_addr);\n    om = OM(om_addr);\n  }\n\n  /// @param wit (S, skS, opnS, okS)\n  function sign(TX memory tx_wd, uint256[4] memory wit) public view returns (Sig memory sig){\n    require (tx_wd.tag.eq(pp.TagEval(wit[1])), \"Tag matches\");\n\n    uint n = pp.n();\n    uint pub_l = tx_wd.attrS.length;\n    uint ne_l = n-tx_wd.attrS.length;\n\n    uint256[] memory acc_d_attr = new uint256[](n);\n    uint256[] memory y = new uint256[](n);\n    uint256[] memory i_ne = new uint256[](ne_l);\n\n    for (uint i = 0; i < pub_l; i++) {\n      acc_d_attr[i] = tx_wd.attrS[i];\n      y[i] = tx_wd.attrS[i];\n    }\n\n    for (uint i = 0; i < ne_l; i++) {\n      acc_d_attr[pub_l+i] = wit[1+i]; // (sk, opn, ok)\n      i_ne[i] = pub_l + i; // [4,5,6]\n    }\n\n    acc_d_attr[n-1] = alt_bn128.random(); // acc_d ok'\n\n    alt_bn128.G1Point memory acc_d = pp.Com(acc_d_attr); // acc_d\n    sig.acc_d = acc_d;\n\n    for (uint i = 0; i < tx_wd.R.length; i++) {\n      /// @dev R pks := {acc/acc_d}\n      tx_wd.R[i] = tx_wd.R[i].add(acc_d.neg()); \n    }\n\n    // DR.ParamEC memory dr_pp = dr.param(pp.g_ok(), tx_wd.R, pp.h());\n    // bytes memory m = abi.encode(tx_wd.u_rcpt);\n    OM.Param memory om_pp = om.param(tx_wd.gs, tx_wd.R, pp.g_ok());\n    uint256[2] memory skj = [wit[3].sub(acc_d_attr[n-1]), wit[0]]; // (ok-ok', theta)\n\n    /// @dev Ring signature {acc/acc_d}\n    // sig.dr_sig = dr.signEC(dr_pp, m, skj);\n    sig.om_sig = om.sign(om_pp, skj);\n\n    /// @dev Diff Gen Equal signature (tag vs acc_d)\n    sig.dg_sig = dg.sign(pp.g_tag(), pp.gs(), pp.sk_pos(), acc_d_attr);\n\n    /// @dev Partial Equality signature (acc_d vs pub)\n    sig.pe_sig = pe.sign(pp.gs(), acc_d_attr, y, i_ne);\n\n  }\n\n  function verify(TX memory tx_wd, Sig memory sig) public view returns (bool) {\n    for (uint i = 0; i < tx_wd.R.length; i++) {\n      /// @dev R pks := {acc/acc_d}\n      tx_wd.R[i] = tx_wd.R[i].add(sig.acc_d.neg());\n    }\n\n    /// @dev verify Ring signature\n    // DR.ParamEC memory dr_pp = dr.param(pp.g_ok(), tx_wd.R, pp.h());\n    // bytes memory m = abi.encode(tx_wd.u_rcpt);\n    // bool b_dr = dr.verifyEC(dr_pp, m, sig.dr_sig);\n    OM.Param memory om_pp = om.param(tx_wd.gs, tx_wd.R, pp.g_ok());\n    bool b_dr = om.verify(om_pp, sig.om_sig);\n    require (b_dr, \"Ring signature does not pass\");\n\n    /// @dev verify Diff Gen Equal signature\n    bool b_dg = dg.verify(pp.g_tag(), pp.gs(), pp.sk_pos(), tx_wd.tag, sig.acc_d, sig.dg_sig);\n    require (b_dg, \"Diff Gen Equal signature does not pass\");\n\n    uint256[] memory y = new uint256[](pp.n());\n    for (uint i = 0; i < tx_wd.attrS.length; i++) {\n      y[i] = tx_wd.attrS[i];\n    }\n    alt_bn128.G1Point memory Cy = pp.Com(y);\n\n    uint256[] memory ine = new uint256[](pp.n() - tx_wd.attrS.length);\n    for (uint i = 0; i < ine.length; i++) {\n      ine[i] = i+tx_wd.attrS.length; // [4,5,6]\n    }\n\n    /// @dev verify Partial Equality signature\n    bool b_pe = pe.verify(pp.gs(), ine, sig.acc_d, Cy, sig.pe_sig);\n    require (b_pe, \"Partial Equality signature does not pass\");\n\n    return b_dr && b_dg && b_pe;\n  }\n}",
  "sourcePath": "/Users/qian/Desktop/Y4/COMP4550/project/XCSwap/contracts/TX/SoKwd.sol",
  "compiler": {
    "name": "solc",
    "version": "0.8.19+commit.7dd6d404.Emscripten.clang"
  },
  "schemaVersion": "3.4.13",
  "updatedAt": "2023-08-19T10:00:12.066Z",
  "networkType": "ethereum",
  "devdoc": {
    "kind": "dev",
    "methods": {
      "sign(((uint256,uint256)[],(uint256,uint256)[],(uint256,uint256),uint256[],address),uint256[4])": {
        "params": {
          "wit": "(S, skS, opnS, okS)"
        }
      }
    },
    "version": 1
  },
  "userdoc": {
    "kind": "user",
    "methods": {},
    "version": 1
  }
}