{
  "contractName": "TokenFT",
  "abi": [
    {
      "inputs": [
        {
          "internalType": "string",
          "name": "_name",
          "type": "string"
        },
        {
          "internalType": "string",
          "name": "_symbol",
          "type": "string"
        }
      ],
      "stateMutability": "nonpayable",
      "type": "constructor"
    },
    {
      "anonymous": false,
      "inputs": [
        {
          "indexed": true,
          "internalType": "address",
          "name": "owner",
          "type": "address"
        },
        {
          "indexed": true,
          "internalType": "address",
          "name": "spender",
          "type": "address"
        },
        {
          "indexed": false,
          "internalType": "uint256",
          "name": "value",
          "type": "uint256"
        }
      ],
      "name": "Approval",
      "type": "event"
    },
    {
      "anonymous": false,
      "inputs": [
        {
          "indexed": true,
          "internalType": "address",
          "name": "from",
          "type": "address"
        },
        {
          "indexed": true,
          "internalType": "address",
          "name": "to",
          "type": "address"
        },
        {
          "indexed": false,
          "internalType": "uint256",
          "name": "value",
          "type": "uint256"
        }
      ],
      "name": "Transfer",
      "type": "event"
    },
    {
      "inputs": [
        {
          "internalType": "address",
          "name": "owner",
          "type": "address"
        },
        {
          "internalType": "address",
          "name": "spender",
          "type": "address"
        }
      ],
      "name": "allowance",
      "outputs": [
        {
          "internalType": "uint256",
          "name": "",
          "type": "uint256"
        }
      ],
      "stateMutability": "view",
      "type": "function"
    },
    {
      "inputs": [
        {
          "internalType": "address",
          "name": "account",
          "type": "address"
        }
      ],
      "name": "balanceOf",
      "outputs": [
        {
          "internalType": "uint256",
          "name": "",
          "type": "uint256"
        }
      ],
      "stateMutability": "view",
      "type": "function"
    },
    {
      "inputs": [],
      "name": "decimals",
      "outputs": [
        {
          "internalType": "uint8",
          "name": "",
          "type": "uint8"
        }
      ],
      "stateMutability": "view",
      "type": "function"
    },
    {
      "inputs": [
        {
          "internalType": "address",
          "name": "spender",
          "type": "address"
        },
        {
          "internalType": "uint256",
          "name": "subtractedValue",
          "type": "uint256"
        }
      ],
      "name": "decreaseAllowance",
      "outputs": [
        {
          "internalType": "bool",
          "name": "",
          "type": "bool"
        }
      ],
      "stateMutability": "nonpayable",
      "type": "function"
    },
    {
      "inputs": [
        {
          "internalType": "address",
          "name": "spender",
          "type": "address"
        },
        {
          "internalType": "uint256",
          "name": "addedValue",
          "type": "uint256"
        }
      ],
      "name": "increaseAllowance",
      "outputs": [
        {
          "internalType": "bool",
          "name": "",
          "type": "bool"
        }
      ],
      "stateMutability": "nonpayable",
      "type": "function"
    },
    {
      "inputs": [
        {
          "internalType": "uint256",
          "name": "ty_",
          "type": "uint256"
        }
      ],
      "name": "setTy",
      "outputs": [],
      "stateMutability": "nonpayable",
      "type": "function"
    },
    {
      "inputs": [],
      "name": "totalSupply",
      "outputs": [
        {
          "internalType": "uint256",
          "name": "",
          "type": "uint256"
        }
      ],
      "stateMutability": "view",
      "type": "function"
    },
    {
      "inputs": [
        {
          "internalType": "address",
          "name": "from",
          "type": "address"
        },
        {
          "internalType": "address",
          "name": "to",
          "type": "address"
        },
        {
          "internalType": "uint256",
          "name": "amount",
          "type": "uint256"
        }
      ],
      "name": "transferFrom",
      "outputs": [
        {
          "internalType": "bool",
          "name": "",
          "type": "bool"
        }
      ],
      "stateMutability": "nonpayable",
      "type": "function"
    },
    {
      "inputs": [],
      "name": "ty",
      "outputs": [
        {
          "internalType": "uint256",
          "name": "",
          "type": "uint256"
        }
      ],
      "stateMutability": "view",
      "type": "function"
    },
    {
      "inputs": [],
      "name": "name",
      "outputs": [
        {
          "internalType": "string",
          "name": "",
          "type": "string"
        }
      ],
      "stateMutability": "view",
      "type": "function"
    },
    {
      "inputs": [],
      "name": "symbol",
      "outputs": [
        {
          "internalType": "string",
          "name": "",
          "type": "string"
        }
      ],
      "stateMutability": "view",
      "type": "function"
    },
    {
      "inputs": [
        {
          "internalType": "address",
          "name": "spender",
          "type": "address"
        },
        {
          "internalType": "uint256",
          "name": "value",
          "type": "uint256"
        }
      ],
      "name": "approve",
      "outputs": [
        {
          "internalType": "bool",
          "name": "",
          "type": "bool"
        }
      ],
      "stateMutability": "nonpayable",
      "type": "function"
    },
    {
      "inputs": [
        {
          "internalType": "address",
          "name": "spender",
          "type": "address"
        },
        {
          "internalType": "uint256",
          "name": "value",
          "type": "uint256"
        }
      ],
      "name": "isApproved",
      "outputs": [
        {
          "internalType": "bool",
          "name": "",
          "type": "bool"
        }
      ],
      "stateMutability": "view",
      "type": "function"
    },
    {
      "inputs": [
        {
          "internalType": "address",
          "name": "to",
          "type": "address"
        },
        {
          "internalType": "uint256",
          "name": "amount",
          "type": "uint256"
        }
      ],
      "name": "transfer",
      "outputs": [
        {
          "internalType": "bool",
          "name": "",
          "type": "bool"
        }
      ],
      "stateMutability": "nonpayable",
      "type": "function"
    },
    {
      "inputs": [
        {
          "internalType": "address",
          "name": "from",
          "type": "address"
        },
        {
          "internalType": "address",
          "name": "to",
          "type": "address"
        },
        {
          "internalType": "uint256",
          "name": "value",
          "type": "uint256"
        }
      ],
      "name": "transfer",
      "outputs": [
        {
          "internalType": "bool",
          "name": "",
          "type": "bool"
        }
      ],
      "stateMutability": "nonpayable",
      "type": "function"
    },
    {
      "inputs": [
        {
          "internalType": "address",
          "name": "account",
          "type": "address"
        },
        {
          "internalType": "uint256",
          "name": "value",
          "type": "uint256"
        }
      ],
      "name": "mint",
      "outputs": [],
      "stateMutability": "nonpayable",
      "type": "function"
    }
  ],
  "bytecode": "0x60806040523480156200001157600080fd5b5060405162000d6338038062000d63833981016040819052620000349162000147565b81818181600062000046838262000240565b50600162000055828262000240565b5060069150620000689050838262000240565b50600762000077828262000240565b50505050506200030c565b634e487b7160e01b600052604160045260246000fd5b600082601f830112620000aa57600080fd5b81516001600160401b0380821115620000c757620000c762000082565b604051601f8301601f19908116603f01168101908282118183101715620000f257620000f262000082565b816040528381526020925086838588010111156200010f57600080fd5b600091505b8382101562000133578582018301518183018401529082019062000114565b600093810190920192909252949350505050565b600080604083850312156200015b57600080fd5b82516001600160401b03808211156200017357600080fd5b620001818683870162000098565b935060208501519150808211156200019857600080fd5b50620001a78582860162000098565b9150509250929050565b600181811c90821680620001c657607f821691505b602082108103620001e757634e487b7160e01b600052602260045260246000fd5b50919050565b601f8211156200023b57600081815260208120601f850160051c81016020861015620002165750805b601f850160051c820191505b81811015620002375782815560010162000222565b5050505b505050565b81516001600160401b038111156200025c576200025c62000082565b62000274816200026d8454620001b1565b84620001ed565b602080601f831160018114620002ac5760008415620002935750858301515b600019600386901b1c1916600185901b17855562000237565b600085815260208120601f198616915b82811015620002dd57888601518255948401946001909101908401620002bc565b5085821015620002fc5787850151600019600388901b60f8161c191681555b5050505050600190811b01905550565b610a47806200031c6000396000f3fe608060405234801561001057600080fd5b50600436106100d05760003560e01c806306fdde03146100d5578063095ea7b3146100f357806318160ddd1461011657806323b872dd146101285780632a16cca41461013b578063313ce5671461014e578063395093511461015d57806340c10f19146101705780634a980a1a146101855780634e0f33e31461019857806370a08231146101a057806395d89b41146101c9578063a457c2d7146101d1578063a9059cbb146101e4578063beabacc8146101f7578063dd62ed3e1461020a575b600080fd5b6100dd61021d565b6040516100ea919061085f565b60405180910390f35b6101066101013660046108c9565b61022c565b60405190151581526020016100ea565b6005545b6040519081526020016100ea565b6101066101363660046108f3565b610241565b6101066101493660046108c9565b610265565b604051601281526020016100ea565b61010661016b3660046108c9565b61027d565b61018361017e3660046108c9565b6102a9565b005b61018361019336600461092f565b6102b7565b60025461011a565b61011a6101ae366004610948565b6001600160a01b031660009081526003602052604090205490565b6100dd6102ff565b6101066101df3660046108c9565b610309565b6101066101f23660046108c9565b610384565b6101066102053660046108f3565b610392565b61011a610218366004610963565b61039f565b60606102276103ca565b905090565b6000610238838361045c565b90505b92915050565b60003361024f85828561046a565b61025a8585856104e4565b506001949350505050565b60003282610273828661039f565b1015949350505050565b60003361029f818585610290838361039f565b61029a9190610996565b61067d565b5060019392505050565b6102b382826107a1565b5050565b600254156102fa5760405162461bcd60e51b815260206004820152600b60248201526a547970652065786973747360a81b60448201526064015b60405180910390fd5b600255565b6060610227610850565b60003381610317828661039f565b9050838110156103775760405162461bcd60e51b815260206004820152602560248201527f45524332303a2064656372656173656420616c6c6f77616e63652062656c6f77604482015264207a65726f60d81b60648201526084016102f1565b61025a828686840361067d565b60003361029f8185856104e4565b600061029f8484846104e4565b6001600160a01b03918216600090815260046020908152604080832093909416825291909152205490565b6060600680546103d9906109b7565b80601f0160208091040260200160405190810160405280929190818152602001828054610405906109b7565b80156104525780601f1061042757610100808354040283529160200191610452565b820191906000526020600020905b81548152906001019060200180831161043557829003601f168201915b5050505050905090565b60003361029f81858561067d565b6000610476848461039f565b905060001981146104de57818110156104d15760405162461bcd60e51b815260206004820152601d60248201527f45524332303a20696e73756666696369656e7420616c6c6f77616e636500000060448201526064016102f1565b6104de848484840361067d565b50505050565b6001600160a01b0383166105485760405162461bcd60e51b815260206004820152602560248201527f45524332303a207472616e736665722066726f6d20746865207a65726f206164604482015264647265737360d81b60648201526084016102f1565b6001600160a01b0382166105aa5760405162461bcd60e51b815260206004820152602360248201527f45524332303a207472616e7366657220746f20746865207a65726f206164647260448201526265737360e81b60648201526084016102f1565b6001600160a01b038316600090815260036020526040902054818110156106225760405162461bcd60e51b815260206004820152602660248201527f45524332303a207472616e7366657220616d6f756e7420657863656564732062604482015265616c616e636560d01b60648201526084016102f1565b6001600160a01b0380851660008181526003602052604080822086860390559286168082529083902080548601905591516000805160206109f2833981519152906106709086815260200190565b60405180910390a36104de565b6001600160a01b0383166106df5760405162461bcd60e51b8152602060048201526024808201527f45524332303a20617070726f76652066726f6d20746865207a65726f206164646044820152637265737360e01b60648201526084016102f1565b6001600160a01b0382166107405760405162461bcd60e51b815260206004820152602260248201527f45524332303a20617070726f766520746f20746865207a65726f206164647265604482015261737360f01b60648201526084016102f1565b6001600160a01b0383811660008181526004602090815260408083209487168084529482529182902085905590518481527f8c5be1e5ebec7d5bd14f71427d1e84f3dd0314c0f7b2291e5b200ac8c7c3b925910160405180910390a3505050565b6001600160a01b0382166107f75760405162461bcd60e51b815260206004820152601f60248201527f45524332303a206d696e7420746f20746865207a65726f20616464726573730060448201526064016102f1565b80600560008282546108099190610996565b90915550506001600160a01b0382166000818152600360209081526040808320805486019055518481526000805160206109f2833981519152910160405180910390a35050565b6060600780546103d9906109b7565b600060208083528351808285015260005b8181101561088c57858101830151858201604001528201610870565b506000604082860101526040601f19601f8301168501019250505092915050565b80356001600160a01b03811681146108c457600080fd5b919050565b600080604083850312156108dc57600080fd5b6108e5836108ad565b946020939093013593505050565b60008060006060848603121561090857600080fd5b610911846108ad565b925061091f602085016108ad565b9150604084013590509250925092565b60006020828403121561094157600080fd5b5035919050565b60006020828403121561095a57600080fd5b610238826108ad565b6000806040838503121561097657600080fd5b61097f836108ad565b915061098d602084016108ad565b90509250929050565b8082018082111561023b57634e487b7160e01b600052601160045260246000fd5b600181811c908216806109cb57607f821691505b6020821081036109eb57634e487b7160e01b600052602260045260246000fd5b5091905056feddf252ad1be2c89b69c2b068fc378daa952ba7f163c4a11628f55a4df523b3efa26469706673582212203dfff56dc65f3bf4e0ec492818eda25c86c73e65b7de27337c33204caccaaebf64736f6c63430008130033",
  "immutableReferences": {},
  "source": "// SPDX-License-Identifier: GPL-3.0\npragma solidity >=0.4.0 <0.9.0;\n\nimport \"./Token.sol\";\nimport \"../../node_modules/@openzeppelin/contracts/token/ERC20/ERC20.sol\";\n/**\n * @dev ERC20\n */\ncontract TokenFT is Token, ERC20 {\n\n  constructor (string memory _name, string memory _symbol) Token (_name, _symbol) ERC20 (_name, _symbol) {}\n\n  function name() public view override(ERC20, Token) returns (string memory) {\n    return super.name();\n  }\n\n  function symbol() public view override(ERC20, Token) returns (string memory) {\n    return super.symbol();\n  }\n\n  /// @dev approve spender to spend token on behave of owner\n  /// @param spender authorised spender\n  /// @param value authorised amount\n  function approve(address spender, uint256 value) public override(ERC20) returns (bool) {\n    return ERC20.approve(spender, value);\n  }\n\n  function isApproved(address spender, uint256 value) public view override returns (bool){\n    address owner = tx.origin;\n    // if (balanceOf(owner) < value) revert (\"Insufficient Allowance\");\n    return ERC20.allowance(owner, spender) >= value;\n  }\n\n  /// @dev transfer token\n  /// @param from owner address\n  /// @param to destination address\n  /// @param value transfer value\n  function transfer(address from, address to, uint256 value) public override returns (bool) {\n    // return ERC20.transferFrom(from, to, value);\n    ERC20._transfer(from, to, value);\n    return true;\n  }\n\n  function mint(address account, uint256 value) public override {\n    ERC20._mint(account, value);\n  }\n\n}\n\ncontract FTFactory {\n  address[] _tokens;\n\n  function createFT(string memory name, string memory symbol) public {\n    TokenFT token = new TokenFT(name, symbol);\n    _tokens.push(address(token));\n  }\n\n  function getTokens() public view returns (address[] memory) {\n    return _tokens;\n  }\n}",
  "sourcePath": "/Users/qian/Desktop/Y4/COMP4550/project/XCSwap/contracts/Token/TokenFT.sol",
  "compiler": {
    "name": "solc",
    "version": "0.8.19+commit.7dd6d404.Emscripten.clang"
  },
  "schemaVersion": "3.4.13",
  "updatedAt": "2023-09-15T07:32:06.370Z",
  "devdoc": {
    "details": "ERC20",
    "events": {
      "Approval(address,address,uint256)": {
        "details": "Emitted when the allowance of a `spender` for an `owner` is set by a call to {approve}. `value` is the new allowance."
      },
      "Transfer(address,address,uint256)": {
        "details": "Emitted when `value` tokens are moved from one account (`from`) to another (`to`). Note that `value` may be zero."
      }
    },
    "kind": "dev",
    "methods": {
      "allowance(address,address)": {
        "details": "See {IERC20-allowance}."
      },
      "approve(address,uint256)": {
        "details": "approve spender to spend token on behave of owner",
        "params": {
          "spender": "authorised spender",
          "value": "authorised amount"
        }
      },
      "balanceOf(address)": {
        "details": "See {IERC20-balanceOf}."
      },
      "decimals()": {
        "details": "Returns the number of decimals used to get its user representation. For example, if `decimals` equals `2`, a balance of `505` tokens should be displayed to a user as `5.05` (`505 / 10 ** 2`). Tokens usually opt for a value of 18, imitating the relationship between Ether and Wei. This is the default value returned by this function, unless it's overridden. NOTE: This information is only used for _display_ purposes: it in no way affects any of the arithmetic of the contract, including {IERC20-balanceOf} and {IERC20-transfer}."
      },
      "decreaseAllowance(address,uint256)": {
        "details": "Atomically decreases the allowance granted to `spender` by the caller. This is an alternative to {approve} that can be used as a mitigation for problems described in {IERC20-approve}. Emits an {Approval} event indicating the updated allowance. Requirements: - `spender` cannot be the zero address. - `spender` must have allowance for the caller of at least `subtractedValue`."
      },
      "increaseAllowance(address,uint256)": {
        "details": "Atomically increases the allowance granted to `spender` by the caller. This is an alternative to {approve} that can be used as a mitigation for problems described in {IERC20-approve}. Emits an {Approval} event indicating the updated allowance. Requirements: - `spender` cannot be the zero address."
      },
      "totalSupply()": {
        "details": "See {IERC20-totalSupply}."
      },
      "transfer(address,address,uint256)": {
        "details": "transfer token",
        "params": {
          "from": "owner address",
          "to": "destination address",
          "value": "transfer value"
        }
      },
      "transfer(address,uint256)": {
        "details": "See {IERC20-transfer}. Requirements: - `to` cannot be the zero address. - the caller must have a balance of at least `amount`."
      },
      "transferFrom(address,address,uint256)": {
        "details": "See {IERC20-transferFrom}. Emits an {Approval} event indicating the updated allowance. This is not required by the EIP. See the note at the beginning of {ERC20}. NOTE: Does not update the allowance if the current allowance is the maximum `uint256`. Requirements: - `from` and `to` cannot be the zero address. - `from` must have a balance of at least `amount`. - the caller must have allowance for ``from``'s tokens of at least `amount`."
      }
    },
    "version": 1
  },
  "userdoc": {
    "kind": "user",
    "methods": {},
    "version": 1
  }
}