{
  "contractName": "TokenRegistrar",
  "abi": [
    {
      "inputs": [
        {
          "internalType": "address",
          "name": "tk_addr",
          "type": "address"
        }
      ],
      "name": "register",
      "outputs": [
        {
          "internalType": "bool",
          "name": "",
          "type": "bool"
        }
      ],
      "stateMutability": "nonpayable",
      "type": "function"
    },
    {
      "inputs": [
        {
          "internalType": "address",
          "name": "tk_addr",
          "type": "address"
        }
      ],
      "name": "isRegistered",
      "outputs": [
        {
          "internalType": "bool",
          "name": "",
          "type": "bool"
        }
      ],
      "stateMutability": "view",
      "type": "function"
    },
    {
      "inputs": [
        {
          "internalType": "uint256",
          "name": "ty",
          "type": "uint256"
        }
      ],
      "name": "getToken",
      "outputs": [
        {
          "internalType": "address",
          "name": "",
          "type": "address"
        }
      ],
      "stateMutability": "view",
      "type": "function"
    }
  ],
  "bytecode": "0x608060405234801561001057600080fd5b50610872806100206000396000f3fe608060405234801561001057600080fd5b50600436106100415760003560e01c80634420e48614610046578063c3c5a54714610076578063e4b50cb8146100a6575b600080fd5b610060600480360381019061005b9190610490565b6100d6565b60405161006d91906104d8565b60405180910390f35b610090600480360381019061008b9190610490565b6101c3565b60405161009d91906104d8565b60405180910390f35b6100c060048036038101906100bb9190610529565b6101d5565b6040516100cd9190610565565b60405180910390f35b60006100e182610285565b156100ef57600090506101be565b60006100fa836102fe565b90508260008083815260200190815260200160002060006101000a81548173ffffffffffffffffffffffffffffffffffffffff021916908373ffffffffffffffffffffffffffffffffffffffff1602179055508273ffffffffffffffffffffffffffffffffffffffff16634a980a1a826040518263ffffffff1660e01b8152600401610186919061058f565b600060405180830381600087803b1580156101a057600080fd5b505af11580156101b4573d6000803e3d6000fd5b5050505060019150505b919050565b60006101ce82610285565b9050919050565b60008060008084815260200190815260200160002060009054906101000a900473ffffffffffffffffffffffffffffffffffffffff169050600073ffffffffffffffffffffffffffffffffffffffff168173ffffffffffffffffffffffffffffffffffffffff160361027c576040517f08c379a000000000000000000000000000000000000000000000000000000000815260040161027390610607565b60405180910390fd5b80915050919050565b600080610291836102fe565b9050600073ffffffffffffffffffffffffffffffffffffffff1660008083815260200190815260200160002060009054906101000a900473ffffffffffffffffffffffffffffffffffffffff1673ffffffffffffffffffffffffffffffffffffffff161415915050919050565b6000808290508073ffffffffffffffffffffffffffffffffffffffff166306fdde036040518163ffffffff1660e01b8152600401600060405180830381865afa15801561034f573d6000803e3d6000fd5b505050506040513d6000823e3d601f19601f820116820180604052508101906103789190610788565b8173ffffffffffffffffffffffffffffffffffffffff166395d89b416040518163ffffffff1660e01b8152600401600060405180830381865afa1580156103c3573d6000803e3d6000fd5b505050506040513d6000823e3d601f19601f820116820180604052508101906103ec9190610788565b6040516020016103fd929190610818565b6040516020818303038152906040528051906020012060001c915050919050565b6000604051905090565b600080fd5b600080fd5b600073ffffffffffffffffffffffffffffffffffffffff82169050919050565b600061045d82610432565b9050919050565b61046d81610452565b811461047857600080fd5b50565b60008135905061048a81610464565b92915050565b6000602082840312156104a6576104a5610428565b5b60006104b48482850161047b565b91505092915050565b60008115159050919050565b6104d2816104bd565b82525050565b60006020820190506104ed60008301846104c9565b92915050565b6000819050919050565b610506816104f3565b811461051157600080fd5b50565b600081359050610523816104fd565b92915050565b60006020828403121561053f5761053e610428565b5b600061054d84828501610514565b91505092915050565b61055f81610452565b82525050565b600060208201905061057a6000830184610556565b92915050565b610589816104f3565b82525050565b60006020820190506105a46000830184610580565b92915050565b600082825260208201905092915050565b7f546f6b656e2074797065206e6f74206578697374000000000000000000000000600082015250565b60006105f16014836105aa565b91506105fc826105bb565b602082019050919050565b60006020820190508181036000830152610620816105e4565b9050919050565b600080fd5b600080fd5b6000601f19601f8301169050919050565b7f4e487b7100000000000000000000000000000000000000000000000000000000600052604160045260246000fd5b61067a82610631565b810181811067ffffffffffffffff8211171561069957610698610642565b5b80604052505050565b60006106ac61041e565b90506106b88282610671565b919050565b600067ffffffffffffffff8211156106d8576106d7610642565b5b6106e182610631565b9050602081019050919050565b60005b8381101561070c5780820151818401526020810190506106f1565b60008484015250505050565b600061072b610726846106bd565b6106a2565b9050828152602081018484840111156107475761074661062c565b5b6107528482856106ee565b509392505050565b600082601f83011261076f5761076e610627565b5b815161077f848260208601610718565b91505092915050565b60006020828403121561079e5761079d610428565b5b600082015167ffffffffffffffff8111156107bc576107bb61042d565b5b6107c88482850161075a565b91505092915050565b600081519050919050565b600081905092915050565b60006107f2826107d1565b6107fc81856107dc565b935061080c8185602086016106ee565b80840191505092915050565b600061082482856107e7565b915061083082846107e7565b9150819050939250505056fea2646970667358221220d0f77eb9893d2a88cb54b412b9d0faf626960e5ce5651a0954a0777cc612b45064736f6c63430008130033",
  "immutableReferences": {},
  "source": "// SPDX-License-Identifier: GPL-3.0\npragma solidity >=0.4.0 <0.9.0;\n\nimport \"./Token.sol\";\n\n/**\n * @dev Token Registrar\n */\ncontract TokenRegistrar {\n  /// @dev unique type id => token address\n  mapping(uint256 => address) tokenTy;\n\n  /// @dev register a token\n  /// @param tk_addr token address\n  function register(address tk_addr) public returns (bool) {\n    if (_exists(tk_addr)) return false;\n    uint256 ty = _hash(tk_addr); \n    tokenTy[ty] = tk_addr;\n    // set ty\n    Token(tk_addr).setTy(ty);\n    return true;\n  }\n\n  /// @dev checks if a token is already registered\n  /// @param tk_addr token address\n  function isRegistered(address tk_addr) public view returns (bool) {\n    return _exists(tk_addr);\n  }\n\n  /// @dev get token address by its unique type\n  /// @param ty token type\n  function getToken(uint256 ty) public view returns (address) {\n    address tk_addr = tokenTy[ty];\n    if (tk_addr == address(0)) revert (\"Token type not exist\");\n    return tk_addr;\n  }\n\n  /// @dev checks if a token already exists\n  /// @param tk_addr token address\n  function _exists(address tk_addr) private view returns (bool) {\n    uint256 ty = _hash(tk_addr);\n    return tokenTy[ty] != address(0);\n  }\n\n  /// @dev unique token identifier by hashing name and symbol\n  /// @param tk_addr token address\n  function _hash(address tk_addr) private view returns (uint256) {\n    Token t = Token(tk_addr);\n    return uint256(keccak256(abi.encodePacked(t.name(), t.symbol())));\n  }\n\n}",
  "sourcePath": "/Users/qian/Desktop/Y4/COMP4550/project/XCSwap/contracts/Token/TokenRegistrar.sol",
  "compiler": {
    "name": "solc",
    "version": "0.8.19+commit.7dd6d404.Emscripten.clang"
  },
  "schemaVersion": "3.4.13",
  "updatedAt": "2023-07-13T08:51:17.518Z",
  "devdoc": {
    "details": "Token Registrar",
    "kind": "dev",
    "methods": {
      "getToken(uint256)": {
        "details": "get token address by its unique type",
        "params": {
          "ty": "token type"
        }
      },
      "isRegistered(address)": {
        "details": "checks if a token is already registered",
        "params": {
          "tk_addr": "token address"
        }
      },
      "register(address)": {
        "details": "register a token",
        "params": {
          "tk_addr": "token address"
        }
      }
    },
    "stateVariables": {
      "tokenTy": {
        "details": "unique type id => token address"
      }
    },
    "version": 1
  },
  "userdoc": {
    "kind": "user",
    "methods": {},
    "version": 1
  }
}