{
  "contractName": "TokenFT",
  "abi": [
    {
      "inputs": [
        {
          "internalType": "string",
          "name": "_name",
          "type": "string"
        },
        {
          "internalType": "string",
          "name": "_symbol",
          "type": "string"
        }
      ],
      "stateMutability": "nonpayable",
      "type": "constructor"
    },
    {
      "inputs": [],
      "name": "name",
      "outputs": [
        {
          "internalType": "string",
          "name": "",
          "type": "string"
        }
      ],
      "stateMutability": "view",
      "type": "function"
    },
    {
      "inputs": [
        {
          "internalType": "uint256",
          "name": "ty_",
          "type": "uint256"
        }
      ],
      "name": "setTy",
      "outputs": [],
      "stateMutability": "nonpayable",
      "type": "function"
    },
    {
      "inputs": [],
      "name": "symbol",
      "outputs": [
        {
          "internalType": "string",
          "name": "",
          "type": "string"
        }
      ],
      "stateMutability": "view",
      "type": "function"
    },
    {
      "inputs": [],
      "name": "ty",
      "outputs": [
        {
          "internalType": "uint256",
          "name": "",
          "type": "uint256"
        }
      ],
      "stateMutability": "view",
      "type": "function"
    },
    {
      "inputs": [
        {
          "internalType": "address",
          "name": "spender",
          "type": "address"
        },
        {
          "internalType": "uint256",
          "name": "value",
          "type": "uint256"
        }
      ],
      "name": "approve",
      "outputs": [
        {
          "internalType": "bool",
          "name": "",
          "type": "bool"
        }
      ],
      "stateMutability": "nonpayable",
      "type": "function"
    },
    {
      "inputs": [
        {
          "internalType": "address",
          "name": "from",
          "type": "address"
        },
        {
          "internalType": "address",
          "name": "to",
          "type": "address"
        },
        {
          "internalType": "uint256",
          "name": "value",
          "type": "uint256"
        }
      ],
      "name": "transfer",
      "outputs": [
        {
          "internalType": "bool",
          "name": "",
          "type": "bool"
        }
      ],
      "stateMutability": "nonpayable",
      "type": "function"
    },
    {
      "inputs": [
        {
          "internalType": "address",
          "name": "account",
          "type": "address"
        },
        {
          "internalType": "uint256",
          "name": "value",
          "type": "uint256"
        }
      ],
      "name": "mint",
      "outputs": [],
      "stateMutability": "nonpayable",
      "type": "function"
    },
    {
      "inputs": [
        {
          "internalType": "address",
          "name": "owner",
          "type": "address"
        },
        {
          "internalType": "address",
          "name": "spender",
          "type": "address"
        }
      ],
      "name": "allowance",
      "outputs": [
        {
          "internalType": "uint256",
          "name": "",
          "type": "uint256"
        }
      ],
      "stateMutability": "view",
      "type": "function"
    },
    {
      "inputs": [
        {
          "internalType": "address",
          "name": "account",
          "type": "address"
        }
      ],
      "name": "balanceOf",
      "outputs": [
        {
          "internalType": "uint256",
          "name": "",
          "type": "uint256"
        }
      ],
      "stateMutability": "view",
      "type": "function"
    }
  ],
  "bytecode": "0x60806040523480156200001157600080fd5b506040516200097a3803806200097a833981016040819052620000349162000123565b818160006200004483826200021c565b5060016200005382826200021c565b5050505050620002e8565b634e487b7160e01b600052604160045260246000fd5b600082601f8301126200008657600080fd5b81516001600160401b0380821115620000a357620000a36200005e565b604051601f8301601f19908116603f01168101908282118183101715620000ce57620000ce6200005e565b81604052838152602092508683858801011115620000eb57600080fd5b600091505b838210156200010f5785820183015181830184015290820190620000f0565b600093810190920192909252949350505050565b600080604083850312156200013757600080fd5b82516001600160401b03808211156200014f57600080fd5b6200015d8683870162000074565b935060208501519150808211156200017457600080fd5b50620001838582860162000074565b9150509250929050565b600181811c90821680620001a257607f821691505b602082108103620001c357634e487b7160e01b600052602260045260246000fd5b50919050565b601f8211156200021757600081815260208120601f850160051c81016020861015620001f25750805b601f850160051c820191505b818110156200021357828155600101620001fe565b5050505b505050565b81516001600160401b038111156200023857620002386200005e565b62000250816200024984546200018d565b84620001c9565b602080601f8311600181146200028857600084156200026f5750858301515b600019600386901b1c1916600185901b17855562000213565b600085815260208120601f198616915b82811015620002b95788860151825594840194600190910190840162000298565b5085821015620002d85787850151600019600388901b60f8161c191681555b5050505050600190811b01905550565b61068280620002f86000396000f3fe608060405234801561001057600080fd5b50600436106100835760003560e01c806306fdde0314610088578063095ea7b3146100a657806340c10f19146100c95780634a980a1a146100de5780634e0f33e3146100f157806370a082311461010357806395d89b4114610116578063beabacc81461011e578063dd62ed3e14610131575b600080fd5b610090610144565b60405161009d91906104b3565b60405180910390f35b6100b96100b436600461051d565b6101d6565b604051901515815260200161009d565b6100dc6100d736600461051d565b6102a9565b005b6100dc6100ec366004610547565b610330565b6002545b60405190815260200161009d565b6100f5610111366004610560565b610373565b61009061038e565b6100b961012c366004610582565b61039d565b6100f561013f3660046105be565b610488565b606060008054610153906105f1565b80601f016020809104026020016040519081016040528092919081815260200182805461017f906105f1565b80156101cc5780601f106101a1576101008083540402835291602001916101cc565b820191906000526020600020905b8154815290600101906020018083116101af57829003601f168201915b5050505050905090565b60006001600160a01b0383166102255760405162461bcd60e51b815260206004820152600f60248201526e24b73b30b634b21029b832b73232b960891b60448201526064015b60405180910390fd5b338261023082610373565b10156102775760405162461bcd60e51b8152602060048201526016602482015275496e73756666696369656e7420416c6c6f77616e636560501b604482015260640161021c565b6001600160a01b0390811660009081526004602090815260408083209387168352929052208290555060015b92915050565b6001600160a01b0382166102ff5760405162461bcd60e51b815260206004820152601e60248201527f4d696e743a20496e76616c696420726563656976657220616464726573730000604482015260640161021c565b6001600160a01b0382166000908152600360205260408120805483929061032790849061062b565b90915550505050565b6002541561036e5760405162461bcd60e51b815260206004820152600b60248201526a547970652065786973747360a81b604482015260640161021c565b600255565b6001600160a01b031660009081526003602052604090205490565b606060018054610153906105f1565b6000816103a985610373565b10156103ee5760405162461bcd60e51b8152602060048201526014602482015273496e73756666696369656e742062616c616e636560601b604482015260640161021c565b336001600160a01b0385168114610451578261040a8683610488565b10156104515760405162461bcd60e51b8152602060048201526016602482015275496e73756666696369656e7420616c6c6f77616e636560501b604482015260640161021c565b50506001600160a01b0392831660009081526003602052604080822080548490039055929093168352912080549091019055600190565b6001600160a01b03918216600090815260046020908152604080832093909416825291909152205490565b600060208083528351808285015260005b818110156104e0578581018301518582016040015282016104c4565b506000604082860101526040601f19601f8301168501019250505092915050565b80356001600160a01b038116811461051857600080fd5b919050565b6000806040838503121561053057600080fd5b61053983610501565b946020939093013593505050565b60006020828403121561055957600080fd5b5035919050565b60006020828403121561057257600080fd5b61057b82610501565b9392505050565b60008060006060848603121561059757600080fd5b6105a084610501565b92506105ae60208501610501565b9150604084013590509250925092565b600080604083850312156105d157600080fd5b6105da83610501565b91506105e860208401610501565b90509250929050565b600181811c9082168061060557607f821691505b60208210810361062557634e487b7160e01b600052602260045260246000fd5b50919050565b808201808211156102a357634e487b7160e01b600052601160045260246000fdfea26469706673582212202dcaef53a36913fdf8988b74284e8bcee8a70815919ff0409651b6d2c30601ce64736f6c63430008130033",
  "immutableReferences": {},
  "source": "// SPDX-License-Identifier: GPL-3.0\npragma solidity >=0.4.0 <0.9.0;\n\nimport \"./Token.sol\";\n\n/**\n * @dev ERC20\n */\ncontract TokenFT is Token {\n  /// @dev account => balance\n  mapping(address => uint256) private _balances;\n  /// @dev account => (spender => approved value)\n  mapping(address => mapping(address => uint256)) private _allowances;\n\n  constructor (string memory _name, string memory _symbol) Token (_name, _symbol) {}\n\n  /// @dev approve spender to spend token on behave of owner\n  /// @param spender authorised spender\n  /// @param value authorised amount\n  function approve(address spender, uint256 value) public override returns (bool) {\n    if (spender == address(0)) revert (\"Invalid Spender\");\n    \n    address owner = msg.sender;\n    if (balanceOf(owner) < value) revert (\"Insufficient Allowance\");\n\n    _allowances[owner][spender] = value;\n\n    return true;\n  }\n\n  /// @dev transfer token\n  /// @param from owner address\n  /// @param to destination address\n  /// @param value transfer amount\n  function transfer(address from, address to, uint256 value) public override returns (bool) {\n    if (balanceOf(from) < value) revert (\"Insufficient balance\");\n\n    address spender = msg.sender;\n    if (spender != from) { // spender not owner\n      if (allowance(from, spender) < value) revert (\"Insufficient allowance\");\n    }\n\n    unchecked {\n      // Overflow not possible: value <= balance <= totalSupply.\n      _balances[from] -= value;\n      // Overflow not possible: balance + value is at most totalSupply, fits into a uint256.\n      _balances[to] += value;\n    }\n    return true;\n  }\n\n  function mint(address account, uint256 value) public override {\n    if (account == address(0)) revert(\"Mint: Invalid receiver address\");\n    _balances[account] += value;\n  }\n\n  function allowance(address owner, address spender) public view returns (uint256) {\n    return _allowances[owner][spender];\n  }\n\n  function balanceOf(address account) public view returns (uint256) {\n    return _balances[account];\n  }\n\n  // function ownerOf(uint256 val) public override returns (address) {\n  //   return address(0);\n  // }\n}\n",
  "sourcePath": "/Users/qian/Desktop/Y4/COMP4550/project/XCSwap/contracts/Token/TokenFT.sol",
  "compiler": {
    "name": "solc",
    "version": "0.8.19+commit.7dd6d404.Emscripten.clang"
  },
  "schemaVersion": "3.4.13",
  "updatedAt": "2023-08-19T15:56:27.298Z",
  "devdoc": {
    "details": "ERC20",
    "kind": "dev",
    "methods": {
      "approve(address,uint256)": {
        "details": "approve spender to spend token on behave of owner",
        "params": {
          "spender": "authorised spender",
          "value": "authorised amount"
        }
      },
      "transfer(address,address,uint256)": {
        "details": "transfer token",
        "params": {
          "from": "owner address",
          "to": "destination address",
          "value": "transfer amount"
        }
      }
    },
    "stateVariables": {
      "_allowances": {
        "details": "account => (spender => approved value)"
      },
      "_balances": {
        "details": "account => balance"
      }
    },
    "version": 1
  },
  "userdoc": {
    "kind": "user",
    "methods": {},
    "version": 1
  }
}