{
  "contractName": "TokenNFT",
  "abi": [
    {
      "inputs": [
        {
          "internalType": "string",
          "name": "_name",
          "type": "string"
        },
        {
          "internalType": "string",
          "name": "_symbol",
          "type": "string"
        }
      ],
      "stateMutability": "nonpayable",
      "type": "constructor"
    },
    {
      "inputs": [],
      "name": "name",
      "outputs": [
        {
          "internalType": "string",
          "name": "",
          "type": "string"
        }
      ],
      "stateMutability": "view",
      "type": "function"
    },
    {
      "inputs": [
        {
          "internalType": "uint256",
          "name": "ty_",
          "type": "uint256"
        }
      ],
      "name": "setTy",
      "outputs": [],
      "stateMutability": "nonpayable",
      "type": "function"
    },
    {
      "inputs": [],
      "name": "symbol",
      "outputs": [
        {
          "internalType": "string",
          "name": "",
          "type": "string"
        }
      ],
      "stateMutability": "view",
      "type": "function"
    },
    {
      "inputs": [],
      "name": "ty",
      "outputs": [
        {
          "internalType": "uint256",
          "name": "",
          "type": "uint256"
        }
      ],
      "stateMutability": "view",
      "type": "function"
    },
    {
      "inputs": [
        {
          "internalType": "address",
          "name": "to",
          "type": "address"
        },
        {
          "internalType": "uint256",
          "name": "tokenId",
          "type": "uint256"
        }
      ],
      "name": "approve",
      "outputs": [
        {
          "internalType": "bool",
          "name": "",
          "type": "bool"
        }
      ],
      "stateMutability": "nonpayable",
      "type": "function"
    },
    {
      "inputs": [
        {
          "internalType": "address",
          "name": "from",
          "type": "address"
        },
        {
          "internalType": "address",
          "name": "to",
          "type": "address"
        },
        {
          "internalType": "uint256",
          "name": "tokenId",
          "type": "uint256"
        }
      ],
      "name": "transfer",
      "outputs": [
        {
          "internalType": "bool",
          "name": "",
          "type": "bool"
        }
      ],
      "stateMutability": "nonpayable",
      "type": "function"
    },
    {
      "inputs": [
        {
          "internalType": "address",
          "name": "to",
          "type": "address"
        },
        {
          "internalType": "uint256",
          "name": "tokenId",
          "type": "uint256"
        }
      ],
      "name": "mint",
      "outputs": [],
      "stateMutability": "nonpayable",
      "type": "function"
    },
    {
      "inputs": [
        {
          "internalType": "uint256",
          "name": "tokenId",
          "type": "uint256"
        }
      ],
      "name": "ownerOf",
      "outputs": [
        {
          "internalType": "address",
          "name": "",
          "type": "address"
        }
      ],
      "stateMutability": "view",
      "type": "function"
    },
    {
      "inputs": [
        {
          "internalType": "address",
          "name": "owner",
          "type": "address"
        }
      ],
      "name": "balanceOf",
      "outputs": [
        {
          "internalType": "uint256",
          "name": "",
          "type": "uint256"
        }
      ],
      "stateMutability": "view",
      "type": "function"
    }
  ],
  "bytecode": "0x60806040523480156200001157600080fd5b5060405162001758380380620017588339818101604052810190620000379190620001fa565b818181600090816200004a9190620004ca565b5080600190816200005c9190620004ca565b5050505050620005b1565b6000604051905090565b600080fd5b600080fd5b600080fd5b600080fd5b6000601f19601f8301169050919050565b7f4e487b7100000000000000000000000000000000000000000000000000000000600052604160045260246000fd5b620000d08262000085565b810181811067ffffffffffffffff82111715620000f257620000f162000096565b5b80604052505050565b60006200010762000067565b9050620001158282620000c5565b919050565b600067ffffffffffffffff82111562000138576200013762000096565b5b620001438262000085565b9050602081019050919050565b60005b838110156200017057808201518184015260208101905062000153565b60008484015250505050565b6000620001936200018d846200011a565b620000fb565b905082815260208101848484011115620001b257620001b162000080565b5b620001bf84828562000150565b509392505050565b600082601f830112620001df57620001de6200007b565b5b8151620001f18482602086016200017c565b91505092915050565b6000806040838503121562000214576200021362000071565b5b600083015167ffffffffffffffff81111562000235576200023462000076565b5b6200024385828601620001c7565b925050602083015167ffffffffffffffff81111562000267576200026662000076565b5b6200027585828601620001c7565b9150509250929050565b600081519050919050565b7f4e487b7100000000000000000000000000000000000000000000000000000000600052602260045260246000fd5b60006002820490506001821680620002d257607f821691505b602082108103620002e857620002e76200028a565b5b50919050565b60008190508160005260206000209050919050565b60006020601f8301049050919050565b600082821b905092915050565b600060088302620003527fffffffffffffffffffffffffffffffffffffffffffffffffffffffffffffffff8262000313565b6200035e868362000313565b95508019841693508086168417925050509392505050565b6000819050919050565b6000819050919050565b6000620003ab620003a56200039f8462000376565b62000380565b62000376565b9050919050565b6000819050919050565b620003c7836200038a565b620003df620003d682620003b2565b84845462000320565b825550505050565b600090565b620003f6620003e7565b62000403818484620003bc565b505050565b5b818110156200042b576200041f600082620003ec565b60018101905062000409565b5050565b601f8211156200047a576200044481620002ee565b6200044f8462000303565b810160208510156200045f578190505b620004776200046e8562000303565b83018262000408565b50505b505050565b600082821c905092915050565b60006200049f600019846008026200047f565b1980831691505092915050565b6000620004ba83836200048c565b9150826002028217905092915050565b620004d5826200027f565b67ffffffffffffffff811115620004f157620004f062000096565b5b620004fd8254620002b9565b6200050a8282856200042f565b600060209050601f8311600181146200054257600084156200052d578287015190505b620005398582620004ac565b865550620005a9565b601f1984166200055286620002ee565b60005b828110156200057c5784890151825560018201915060208501945060208101905062000555565b868310156200059c578489015162000598601f8916826200048c565b8355505b6001600288020188555050505b505050505050565b61119780620005c16000396000f3fe608060405234801561001057600080fd5b50600436106100935760003560e01c80634e0f33e3116100665780634e0f33e31461011e5780636352211e1461013c57806370a082311461016c57806395d89b411461019c578063beabacc8146101ba57610093565b806306fdde0314610098578063095ea7b3146100b657806340c10f19146100e65780634a980a1a14610102575b600080fd5b6100a06101ea565b6040516100ad9190610ad8565b60405180910390f35b6100d060048036038101906100cb9190610b93565b61027c565b6040516100dd9190610bee565b60405180910390f35b61010060048036038101906100fb9190610b93565b6103c3565b005b61011c60048036038101906101179190610c09565b610528565b005b610126610577565b6040516101339190610c45565b60405180910390f35b61015660048036038101906101519190610c09565b610581565b6040516101639190610c6f565b60405180910390f35b61018660048036038101906101819190610c8a565b6105be565b6040516101939190610c45565b60405180910390f35b6101a4610675565b6040516101b19190610ad8565b60405180910390f35b6101d460048036038101906101cf9190610cb7565b610707565b6040516101e19190610bee565b60405180910390f35b6060600080546101f990610d39565b80601f016020809104026020016040519081016040528092919081815260200182805461022590610d39565b80156102725780601f1061024757610100808354040283529160200191610272565b820191906000526020600020905b81548152906001019060200180831161025557829003601f168201915b5050505050905090565b60008061028883610581565b90508073ffffffffffffffffffffffffffffffffffffffff168473ffffffffffffffffffffffffffffffffffffffff16036102f8576040517f08c379a00000000000000000000000000000000000000000000000000000000081526004016102ef90610db6565b60405180910390fd5b8073ffffffffffffffffffffffffffffffffffffffff163373ffffffffffffffffffffffffffffffffffffffff1614610366576040517f08c379a000000000000000000000000000000000000000000000000000000000815260040161035d90610e22565b60405180910390fd5b836005600085815260200190815260200160002060006101000a81548173ffffffffffffffffffffffffffffffffffffffff021916908373ffffffffffffffffffffffffffffffffffffffff160217905550600191505092915050565b6103cc816109dc565b1561040c576040517f08c379a000000000000000000000000000000000000000000000000000000000815260040161040390610e8e565b60405180910390fd5b600073ffffffffffffffffffffffffffffffffffffffff168273ffffffffffffffffffffffffffffffffffffffff160361047b576040517f08c379a000000000000000000000000000000000000000000000000000000000815260040161047290610efa565b60405180910390fd5b6001600460008473ffffffffffffffffffffffffffffffffffffffff1673ffffffffffffffffffffffffffffffffffffffff16815260200190815260200160002060008282546104cb9190610f49565b92505081905550816003600083815260200190815260200160002060006101000a81548173ffffffffffffffffffffffffffffffffffffffff021916908373ffffffffffffffffffffffffffffffffffffffff1602179055505050565b60006002541461056d576040517f08c379a000000000000000000000000000000000000000000000000000000000815260040161056490610fc9565b60405180910390fd5b8060028190555050565b6000600254905090565b60006003600083815260200190815260200160002060009054906101000a900473ffffffffffffffffffffffffffffffffffffffff169050919050565b60008073ffffffffffffffffffffffffffffffffffffffff168273ffffffffffffffffffffffffffffffffffffffff160361062e576040517f08c379a000000000000000000000000000000000000000000000000000000000815260040161062590611035565b60405180910390fd5b600460008373ffffffffffffffffffffffffffffffffffffffff1673ffffffffffffffffffffffffffffffffffffffff168152602001908152602001600020549050919050565b60606001805461068490610d39565b80601f01602080910402602001604051908101604052809291908181526020018280546106b090610d39565b80156106fd5780601f106106d2576101008083540402835291602001916106fd565b820191906000526020600020905b8154815290600101906020018083116106e057829003601f168201915b5050505050905090565b60008061071383610581565b90508473ffffffffffffffffffffffffffffffffffffffff168173ffffffffffffffffffffffffffffffffffffffff1614610783576040517f08c379a000000000000000000000000000000000000000000000000000000000815260040161077a906110a1565b60405180910390fd5b600073ffffffffffffffffffffffffffffffffffffffff168473ffffffffffffffffffffffffffffffffffffffff16036107f2576040517f08c379a00000000000000000000000000000000000000000000000000000000081526004016107e99061110d565b60405180910390fd5b8073ffffffffffffffffffffffffffffffffffffffff163373ffffffffffffffffffffffffffffffffffffffff16148061088a57506005600084815260200190815260200160002060009054906101000a900473ffffffffffffffffffffffffffffffffffffffff1673ffffffffffffffffffffffffffffffffffffffff163373ffffffffffffffffffffffffffffffffffffffff16145b156109cf576005600084815260200190815260200160002060006101000a81549073ffffffffffffffffffffffffffffffffffffffff02191690556001600460008773ffffffffffffffffffffffffffffffffffffffff1673ffffffffffffffffffffffffffffffffffffffff1681526020019081526020016000206000828254610915919061112d565b925050819055506001600460008673ffffffffffffffffffffffffffffffffffffffff1673ffffffffffffffffffffffffffffffffffffffff168152602001908152602001600020600082825461096c9190610f49565b92505081905550836003600085815260200190815260200160002060006101000a81548173ffffffffffffffffffffffffffffffffffffffff021916908373ffffffffffffffffffffffffffffffffffffffff16021790555060019150506109d5565b60009150505b9392505050565b60008073ffffffffffffffffffffffffffffffffffffffff166003600084815260200190815260200160002060009054906101000a900473ffffffffffffffffffffffffffffffffffffffff1673ffffffffffffffffffffffffffffffffffffffff1614159050919050565b600081519050919050565b600082825260208201905092915050565b60005b83811015610a82578082015181840152602081019050610a67565b60008484015250505050565b6000601f19601f8301169050919050565b6000610aaa82610a48565b610ab48185610a53565b9350610ac4818560208601610a64565b610acd81610a8e565b840191505092915050565b60006020820190508181036000830152610af28184610a9f565b905092915050565b600080fd5b600073ffffffffffffffffffffffffffffffffffffffff82169050919050565b6000610b2a82610aff565b9050919050565b610b3a81610b1f565b8114610b4557600080fd5b50565b600081359050610b5781610b31565b92915050565b6000819050919050565b610b7081610b5d565b8114610b7b57600080fd5b50565b600081359050610b8d81610b67565b92915050565b60008060408385031215610baa57610ba9610afa565b5b6000610bb885828601610b48565b9250506020610bc985828601610b7e565b9150509250929050565b60008115159050919050565b610be881610bd3565b82525050565b6000602082019050610c036000830184610bdf565b92915050565b600060208284031215610c1f57610c1e610afa565b5b6000610c2d84828501610b7e565b91505092915050565b610c3f81610b5d565b82525050565b6000602082019050610c5a6000830184610c36565b92915050565b610c6981610b1f565b82525050565b6000602082019050610c846000830184610c60565b92915050565b600060208284031215610ca057610c9f610afa565b5b6000610cae84828501610b48565b91505092915050565b600080600060608486031215610cd057610ccf610afa565b5b6000610cde86828701610b48565b9350506020610cef86828701610b48565b9250506040610d0086828701610b7e565b9150509250925092565b7f4e487b7100000000000000000000000000000000000000000000000000000000600052602260045260246000fd5b60006002820490506001821680610d5157607f821691505b602082108103610d6457610d63610d0a565b5b50919050565b7f496e76616c6964204f70657261746f7200000000000000000000000000000000600082015250565b6000610da0601083610a53565b9150610dab82610d6a565b602082019050919050565b60006020820190508181036000830152610dcf81610d93565b9050919050565b7f496e76616c696420417070726f76657200000000000000000000000000000000600082015250565b6000610e0c601083610a53565b9150610e1782610dd6565b602082019050919050565b60006020820190508181036000830152610e3b81610dff565b9050919050565b7f4d696e743a20546f6b656e204944206578697374730000000000000000000000600082015250565b6000610e78601583610a53565b9150610e8382610e42565b602082019050919050565b60006020820190508181036000830152610ea781610e6b565b9050919050565b7f4d696e743a20496e76616c696420726563656976657220616464726573730000600082015250565b6000610ee4601e83610a53565b9150610eef82610eae565b602082019050919050565b60006020820190508181036000830152610f1381610ed7565b9050919050565b7f4e487b7100000000000000000000000000000000000000000000000000000000600052601160045260246000fd5b6000610f5482610b5d565b9150610f5f83610b5d565b9250828201905080821115610f7757610f76610f1a565b5b92915050565b7f5479706520657869737473000000000000000000000000000000000000000000600082015250565b6000610fb3600b83610a53565b9150610fbe82610f7d565b602082019050919050565b60006020820190508181036000830152610fe281610fa6565b9050919050565b7f496e76616c6964204f776e657200000000000000000000000000000000000000600082015250565b600061101f600d83610a53565b915061102a82610fe9565b602082019050919050565b6000602082019050818103600083015261104e81611012565b9050919050565b7f496e636f7272656374204f776e65720000000000000000000000000000000000600082015250565b600061108b600f83610a53565b915061109682611055565b602082019050919050565b600060208201905081810360008301526110ba8161107e565b9050919050565b7f496e76616c696420526563656976657200000000000000000000000000000000600082015250565b60006110f7601083610a53565b9150611102826110c1565b602082019050919050565b60006020820190508181036000830152611126816110ea565b9050919050565b600061113882610b5d565b915061114383610b5d565b925082820390508181111561115b5761115a610f1a565b5b9291505056fea2646970667358221220840f4b41386b27354de1ff60422515f0dcf9d4da10c959931f369f1a44bd4bd864736f6c63430008130033",
  "immutableReferences": {},
  "source": "// SPDX-License-Identifier: GPL-3.0\npragma solidity >=0.4.0 <0.9.0;\n\nimport \"./Token.sol\";\n\n/**\n * @dev ERC721\n */\ncontract TokenNFT is Token {\n\n  /// @dev token id => _owners\n  mapping(uint256 => address) private _owners;\n  /// @dev _owners => token count\n  mapping(address => uint256) private _balances;\n  /// @dev token id => approved address\n  mapping(uint256 => address) private _tokenApproval;\n  /// @dev _owners => (operator => approved?)\n  mapping(address => mapping(address => bool)) private _operatorApproval;\n\n  constructor (string memory _name, string memory _symbol) Token(_name, _symbol) {}\n\n  function approve(address to, uint256 tokenId) public override returns (bool) {\n    address owner = ownerOf(tokenId);\n    if (to == owner) revert (\"Invalid Operator\");\n    if (msg.sender != owner) revert(\"Invalid Approver\");\n\n    _tokenApproval[tokenId] = to;\n    return true;\n  }\n\n  function transfer(address from, address to, uint256 tokenId) public override returns (bool) {\n    address owner = ownerOf(tokenId);\n    if (owner != from) revert (\"Incorrect Owner\");\n    if (to == address(0)) revert (\"Invalid Receiver\");\n    /// @dev could extend to _operatorApproval\n    if (msg.sender == owner || msg.sender == _tokenApproval[tokenId]) {\n      // Clear approvals from the previous owner\n      delete _tokenApproval[tokenId];\n      // transfer \n      _balances[from] -= 1;\n      _balances[to] += 1;\n\n      _owners[tokenId] = to;\n      return true;\n    }\n    return false;\n  }\n\n  /// @dev create a token for address to\n  /// @param to account address\n  /// @param tokenId token ID\n  function mint(address to, uint256 tokenId) public override {\n    if (_exists(tokenId)) revert(\"Mint: Token ID exists\");\n    if (to == address(0)) revert(\"Mint: Invalid receiver address\");\n    _balances[to] += 1;\n    _owners[tokenId] = to;\n  }\n\n  function ownerOf(uint256 tokenId) public view returns (address) {\n    return _owners[tokenId];\n  }\n\n  function balanceOf(address owner) public view returns (uint256) {\n    if (owner == address(0)) revert (\"Invalid Owner\");\n    return _balances[owner];\n  }\n\n  function _exists(uint256 tokenId) internal view returns (bool) {\n    return _owners[tokenId] != address(0);\n  }\n}",
  "sourcePath": "/Users/qian/Desktop/Y4/COMP4550/project/XCSwap/contracts/Token/TokenNFT.sol",
  "compiler": {
    "name": "solc",
    "version": "0.8.19+commit.7dd6d404.Emscripten.clang"
  },
  "schemaVersion": "3.4.13",
  "updatedAt": "2023-07-13T08:51:17.512Z",
  "devdoc": {
    "details": "ERC721",
    "kind": "dev",
    "methods": {
      "mint(address,uint256)": {
        "details": "create a token for address to",
        "params": {
          "to": "account address",
          "tokenId": "token ID"
        }
      }
    },
    "stateVariables": {
      "_balances": {
        "details": "_owners => token count"
      },
      "_operatorApproval": {
        "details": "_owners => (operator => approved?)"
      },
      "_owners": {
        "details": "token id => _owners"
      },
      "_tokenApproval": {
        "details": "token id => approved address"
      }
    },
    "version": 1
  },
  "userdoc": {
    "kind": "user",
    "methods": {},
    "version": 1
  }
}