{
  "contractName": "TokenFT",
  "abi": [
    {
      "inputs": [
        {
          "internalType": "string",
          "name": "_name",
          "type": "string"
        },
        {
          "internalType": "string",
          "name": "_symbol",
          "type": "string"
        }
      ],
      "stateMutability": "nonpayable",
      "type": "constructor"
    },
    {
      "inputs": [],
      "name": "name",
      "outputs": [
        {
          "internalType": "string",
          "name": "",
          "type": "string"
        }
      ],
      "stateMutability": "view",
      "type": "function"
    },
    {
      "inputs": [
        {
          "internalType": "uint256",
          "name": "ty_",
          "type": "uint256"
        }
      ],
      "name": "setTy",
      "outputs": [],
      "stateMutability": "nonpayable",
      "type": "function"
    },
    {
      "inputs": [],
      "name": "symbol",
      "outputs": [
        {
          "internalType": "string",
          "name": "",
          "type": "string"
        }
      ],
      "stateMutability": "view",
      "type": "function"
    },
    {
      "inputs": [],
      "name": "ty",
      "outputs": [
        {
          "internalType": "uint256",
          "name": "",
          "type": "uint256"
        }
      ],
      "stateMutability": "view",
      "type": "function"
    },
    {
      "inputs": [
        {
          "internalType": "address",
          "name": "spender",
          "type": "address"
        },
        {
          "internalType": "uint256",
          "name": "value",
          "type": "uint256"
        }
      ],
      "name": "approve",
      "outputs": [
        {
          "internalType": "bool",
          "name": "",
          "type": "bool"
        }
      ],
      "stateMutability": "nonpayable",
      "type": "function"
    },
    {
      "inputs": [
        {
          "internalType": "address",
          "name": "from",
          "type": "address"
        },
        {
          "internalType": "address",
          "name": "to",
          "type": "address"
        },
        {
          "internalType": "uint256",
          "name": "value",
          "type": "uint256"
        }
      ],
      "name": "transfer",
      "outputs": [
        {
          "internalType": "bool",
          "name": "",
          "type": "bool"
        }
      ],
      "stateMutability": "nonpayable",
      "type": "function"
    },
    {
      "inputs": [
        {
          "internalType": "address",
          "name": "account",
          "type": "address"
        },
        {
          "internalType": "uint256",
          "name": "value",
          "type": "uint256"
        }
      ],
      "name": "mint",
      "outputs": [],
      "stateMutability": "nonpayable",
      "type": "function"
    },
    {
      "inputs": [
        {
          "internalType": "address",
          "name": "owner",
          "type": "address"
        },
        {
          "internalType": "address",
          "name": "spender",
          "type": "address"
        }
      ],
      "name": "allowance",
      "outputs": [
        {
          "internalType": "uint256",
          "name": "",
          "type": "uint256"
        }
      ],
      "stateMutability": "view",
      "type": "function"
    },
    {
      "inputs": [
        {
          "internalType": "address",
          "name": "account",
          "type": "address"
        }
      ],
      "name": "balanceOf",
      "outputs": [
        {
          "internalType": "uint256",
          "name": "",
          "type": "uint256"
        }
      ],
      "stateMutability": "view",
      "type": "function"
    }
  ],
  "bytecode": "0x60806040523480156200001157600080fd5b50604051620013de380380620013de8339818101604052810190620000379190620001fa565b818181600090816200004a9190620004ca565b5080600190816200005c9190620004ca565b5050505050620005b1565b6000604051905090565b600080fd5b600080fd5b600080fd5b600080fd5b6000601f19601f8301169050919050565b7f4e487b7100000000000000000000000000000000000000000000000000000000600052604160045260246000fd5b620000d08262000085565b810181811067ffffffffffffffff82111715620000f257620000f162000096565b5b80604052505050565b60006200010762000067565b9050620001158282620000c5565b919050565b600067ffffffffffffffff82111562000138576200013762000096565b5b620001438262000085565b9050602081019050919050565b60005b838110156200017057808201518184015260208101905062000153565b60008484015250505050565b6000620001936200018d846200011a565b620000fb565b905082815260208101848484011115620001b257620001b162000080565b5b620001bf84828562000150565b509392505050565b600082601f830112620001df57620001de6200007b565b5b8151620001f18482602086016200017c565b91505092915050565b6000806040838503121562000214576200021362000071565b5b600083015167ffffffffffffffff81111562000235576200023462000076565b5b6200024385828601620001c7565b925050602083015167ffffffffffffffff81111562000267576200026662000076565b5b6200027585828601620001c7565b9150509250929050565b600081519050919050565b7f4e487b7100000000000000000000000000000000000000000000000000000000600052602260045260246000fd5b60006002820490506001821680620002d257607f821691505b602082108103620002e857620002e76200028a565b5b50919050565b60008190508160005260206000209050919050565b60006020601f8301049050919050565b600082821b905092915050565b600060088302620003527fffffffffffffffffffffffffffffffffffffffffffffffffffffffffffffffff8262000313565b6200035e868362000313565b95508019841693508086168417925050509392505050565b6000819050919050565b6000819050919050565b6000620003ab620003a56200039f8462000376565b62000380565b62000376565b9050919050565b6000819050919050565b620003c7836200038a565b620003df620003d682620003b2565b84845462000320565b825550505050565b600090565b620003f6620003e7565b62000403818484620003bc565b505050565b5b818110156200042b576200041f600082620003ec565b60018101905062000409565b5050565b601f8211156200047a576200044481620002ee565b6200044f8462000303565b810160208510156200045f578190505b620004776200046e8562000303565b83018262000408565b50505b505050565b600082821c905092915050565b60006200049f600019846008026200047f565b1980831691505092915050565b6000620004ba83836200048c565b9150826002028217905092915050565b620004d5826200027f565b67ffffffffffffffff811115620004f157620004f062000096565b5b620004fd8254620002b9565b6200050a8282856200042f565b600060209050601f8311600181146200054257600084156200052d578287015190505b620005398582620004ac565b865550620005a9565b601f1984166200055286620002ee565b60005b828110156200057c5784890151825560018201915060208501945060208101905062000555565b868310156200059c578489015162000598601f8916826200048c565b8355505b6001600288020188555050505b505050505050565b610e1d80620005c16000396000f3fe608060405234801561001057600080fd5b50600436106100935760003560e01c80634e0f33e3116100665780634e0f33e31461011e57806370a082311461013c57806395d89b411461016c578063beabacc81461018a578063dd62ed3e146101ba57610093565b806306fdde0314610098578063095ea7b3146100b657806340c10f19146100e65780634a980a1a14610102575b600080fd5b6100a06101ea565b6040516100ad9190610854565b60405180910390f35b6100d060048036038101906100cb919061090f565b61027c565b6040516100dd919061096a565b60405180910390f35b61010060048036038101906100fb919061090f565b6103c8565b005b61011c60048036038101906101179190610985565b610491565b005b6101266104e0565b60405161013391906109c1565b60405180910390f35b610156600480360381019061015191906109dc565b6104ea565b60405161016391906109c1565b60405180910390f35b610174610533565b6040516101819190610854565b60405180910390f35b6101a4600480360381019061019f9190610a09565b6105c5565b6040516101b1919061096a565b60405180910390f35b6101d460048036038101906101cf9190610a5c565b61073d565b6040516101e191906109c1565b60405180910390f35b6060600080546101f990610acb565b80601f016020809104026020016040519081016040528092919081815260200182805461022590610acb565b80156102725780601f1061024757610100808354040283529160200191610272565b820191906000526020600020905b81548152906001019060200180831161025557829003601f168201915b5050505050905090565b60008073ffffffffffffffffffffffffffffffffffffffff168373ffffffffffffffffffffffffffffffffffffffff16036102ec576040517f08c379a00000000000000000000000000000000000000000000000000000000081526004016102e390610b48565b60405180910390fd5b6000339050826102fb826104ea565b101561033c576040517f08c379a000000000000000000000000000000000000000000000000000000000815260040161033390610bb4565b60405180910390fd5b82600460008373ffffffffffffffffffffffffffffffffffffffff1673ffffffffffffffffffffffffffffffffffffffff16815260200190815260200160002060008673ffffffffffffffffffffffffffffffffffffffff1673ffffffffffffffffffffffffffffffffffffffff16815260200190815260200160002081905550600191505092915050565b600073ffffffffffffffffffffffffffffffffffffffff168273ffffffffffffffffffffffffffffffffffffffff1603610437576040517f08c379a000000000000000000000000000000000000000000000000000000000815260040161042e90610c20565b60405180910390fd5b80600360008473ffffffffffffffffffffffffffffffffffffffff1673ffffffffffffffffffffffffffffffffffffffff16815260200190815260200160002060008282546104869190610c6f565b925050819055505050565b6000600254146104d6576040517f08c379a00000000000000000000000000000000000000000000000000000000081526004016104cd90610cef565b60405180910390fd5b8060028190555050565b6000600254905090565b6000600360008373ffffffffffffffffffffffffffffffffffffffff1673ffffffffffffffffffffffffffffffffffffffff168152602001908152602001600020549050919050565b60606001805461054290610acb565b80601f016020809104026020016040519081016040528092919081815260200182805461056e90610acb565b80156105bb5780601f10610590576101008083540402835291602001916105bb565b820191906000526020600020905b81548152906001019060200180831161059e57829003601f168201915b5050505050905090565b6000816105d1856104ea565b1015610612576040517f08c379a000000000000000000000000000000000000000000000000000000000815260040161060990610d5b565b60405180910390fd5b60003390508473ffffffffffffffffffffffffffffffffffffffff168173ffffffffffffffffffffffffffffffffffffffff16146106975782610655868361073d565b1015610696576040517f08c379a000000000000000000000000000000000000000000000000000000000815260040161068d90610dc7565b60405180910390fd5b5b82600360008773ffffffffffffffffffffffffffffffffffffffff1673ffffffffffffffffffffffffffffffffffffffff1681526020019081526020016000206000828254039250508190555082600360008673ffffffffffffffffffffffffffffffffffffffff1673ffffffffffffffffffffffffffffffffffffffff1681526020019081526020016000206000828254019250508190555060019150509392505050565b6000600460008473ffffffffffffffffffffffffffffffffffffffff1673ffffffffffffffffffffffffffffffffffffffff16815260200190815260200160002060008373ffffffffffffffffffffffffffffffffffffffff1673ffffffffffffffffffffffffffffffffffffffff16815260200190815260200160002054905092915050565b600081519050919050565b600082825260208201905092915050565b60005b838110156107fe5780820151818401526020810190506107e3565b60008484015250505050565b6000601f19601f8301169050919050565b6000610826826107c4565b61083081856107cf565b93506108408185602086016107e0565b6108498161080a565b840191505092915050565b6000602082019050818103600083015261086e818461081b565b905092915050565b600080fd5b600073ffffffffffffffffffffffffffffffffffffffff82169050919050565b60006108a68261087b565b9050919050565b6108b68161089b565b81146108c157600080fd5b50565b6000813590506108d3816108ad565b92915050565b6000819050919050565b6108ec816108d9565b81146108f757600080fd5b50565b600081359050610909816108e3565b92915050565b6000806040838503121561092657610925610876565b5b6000610934858286016108c4565b9250506020610945858286016108fa565b9150509250929050565b60008115159050919050565b6109648161094f565b82525050565b600060208201905061097f600083018461095b565b92915050565b60006020828403121561099b5761099a610876565b5b60006109a9848285016108fa565b91505092915050565b6109bb816108d9565b82525050565b60006020820190506109d660008301846109b2565b92915050565b6000602082840312156109f2576109f1610876565b5b6000610a00848285016108c4565b91505092915050565b600080600060608486031215610a2257610a21610876565b5b6000610a30868287016108c4565b9350506020610a41868287016108c4565b9250506040610a52868287016108fa565b9150509250925092565b60008060408385031215610a7357610a72610876565b5b6000610a81858286016108c4565b9250506020610a92858286016108c4565b9150509250929050565b7f4e487b7100000000000000000000000000000000000000000000000000000000600052602260045260246000fd5b60006002820490506001821680610ae357607f821691505b602082108103610af657610af5610a9c565b5b50919050565b7f496e76616c6964205370656e6465720000000000000000000000000000000000600082015250565b6000610b32600f836107cf565b9150610b3d82610afc565b602082019050919050565b60006020820190508181036000830152610b6181610b25565b9050919050565b7f496e73756666696369656e7420416c6c6f77616e636500000000000000000000600082015250565b6000610b9e6016836107cf565b9150610ba982610b68565b602082019050919050565b60006020820190508181036000830152610bcd81610b91565b9050919050565b7f4d696e743a20496e76616c696420726563656976657220616464726573730000600082015250565b6000610c0a601e836107cf565b9150610c1582610bd4565b602082019050919050565b60006020820190508181036000830152610c3981610bfd565b9050919050565b7f4e487b7100000000000000000000000000000000000000000000000000000000600052601160045260246000fd5b6000610c7a826108d9565b9150610c85836108d9565b9250828201905080821115610c9d57610c9c610c40565b5b92915050565b7f5479706520657869737473000000000000000000000000000000000000000000600082015250565b6000610cd9600b836107cf565b9150610ce482610ca3565b602082019050919050565b60006020820190508181036000830152610d0881610ccc565b9050919050565b7f496e73756666696369656e742062616c616e6365000000000000000000000000600082015250565b6000610d456014836107cf565b9150610d5082610d0f565b602082019050919050565b60006020820190508181036000830152610d7481610d38565b9050919050565b7f496e73756666696369656e7420616c6c6f77616e636500000000000000000000600082015250565b6000610db16016836107cf565b9150610dbc82610d7b565b602082019050919050565b60006020820190508181036000830152610de081610da4565b905091905056fea264697066735822122092cd0ba727061d2e179e6cab59211f465ba1154c7cb13fd7b34705eadbae8ffe64736f6c63430008130033",
  "immutableReferences": {},
  "source": "// SPDX-License-Identifier: GPL-3.0\npragma solidity >=0.4.0 <0.9.0;\n\nimport \"./Token.sol\";\n\n/**\n * @dev ERC20\n */\ncontract TokenFT is Token {\n  /// @dev account => balance\n  mapping(address => uint256) private _balances;\n  /// @dev account => (spender => approved value)\n  mapping(address => mapping(address => uint256)) private _allowances;\n\n  constructor (string memory _name, string memory _symbol) Token (_name, _symbol) {}\n\n  /// @dev approve spender to spend token on behave of owner\n  /// @param spender authorised spender\n  /// @param value authorised amount\n  function approve(address spender, uint256 value) public override returns (bool) {\n    if (spender == address(0)) revert (\"Invalid Spender\");\n    \n    address owner = msg.sender;\n    if (balanceOf(owner) < value) revert (\"Insufficient Allowance\");\n\n    _allowances[owner][spender] = value;\n\n    return true;\n  }\n\n  /// @dev transfer token\n  /// @param from owner address\n  /// @param to destination address\n  /// @param value transfer amount\n  function transfer(address from, address to, uint256 value) public override returns (bool) {\n    if (balanceOf(from) < value) revert (\"Insufficient balance\");\n\n    address spender = msg.sender;\n    if (spender != from) { // spender not owner\n      if (allowance(from, spender) < value) revert (\"Insufficient allowance\");\n    }\n\n    unchecked {\n      // Overflow not possible: value <= balance <= totalSupply.\n      _balances[from] -= value;\n      // Overflow not possible: balance + value is at most totalSupply, fits into a uint256.\n      _balances[to] += value;\n    }\n    return true;\n  }\n\n  function mint(address account, uint256 value) public override {\n    if (account == address(0)) revert(\"Mint: Invalid receiver address\");\n    _balances[account] += value;\n  }\n\n  function allowance(address owner, address spender) public view returns (uint256) {\n    return _allowances[owner][spender];\n  }\n\n  function balanceOf(address account) public view returns (uint256) {\n    return _balances[account];\n  }\n}\n",
  "sourcePath": "/Users/qian/Desktop/Y4/COMP4550/project/XCSwap/contracts/Token/TokenFT.sol",
  "compiler": {
    "name": "solc",
    "version": "0.8.19+commit.7dd6d404.Emscripten.clang"
  },
  "schemaVersion": "3.4.13",
  "updatedAt": "2023-07-13T08:51:17.507Z",
  "devdoc": {
    "details": "ERC20",
    "kind": "dev",
    "methods": {
      "approve(address,uint256)": {
        "details": "approve spender to spend token on behave of owner",
        "params": {
          "spender": "authorised spender",
          "value": "authorised amount"
        }
      },
      "transfer(address,address,uint256)": {
        "details": "transfer token",
        "params": {
          "from": "owner address",
          "to": "destination address",
          "value": "transfer amount"
        }
      }
    },
    "stateVariables": {
      "_allowances": {
        "details": "account => (spender => approved value)"
      },
      "_balances": {
        "details": "account => balance"
      }
    },
    "version": 1
  },
  "userdoc": {
    "kind": "user",
    "methods": {},
    "version": 1
  }
}