{
  "contractName": "TokenNFT",
  "abi": [
    {
      "inputs": [
        {
          "internalType": "string",
          "name": "_name",
          "type": "string"
        },
        {
          "internalType": "string",
          "name": "_symbol",
          "type": "string"
        }
      ],
      "stateMutability": "nonpayable",
      "type": "constructor"
    },
    {
      "inputs": [],
      "name": "name",
      "outputs": [
        {
          "internalType": "string",
          "name": "",
          "type": "string"
        }
      ],
      "stateMutability": "view",
      "type": "function",
      "constant": true
    },
    {
      "inputs": [
        {
          "internalType": "uint256",
          "name": "ty_",
          "type": "uint256"
        }
      ],
      "name": "setTy",
      "outputs": [],
      "stateMutability": "nonpayable",
      "type": "function"
    },
    {
      "inputs": [],
      "name": "symbol",
      "outputs": [
        {
          "internalType": "string",
          "name": "",
          "type": "string"
        }
      ],
      "stateMutability": "view",
      "type": "function",
      "constant": true
    },
    {
      "inputs": [],
      "name": "ty",
      "outputs": [
        {
          "internalType": "uint256",
          "name": "",
          "type": "uint256"
        }
      ],
      "stateMutability": "view",
      "type": "function",
      "constant": true
    },
    {
      "inputs": [
        {
          "internalType": "address",
          "name": "to",
          "type": "address"
        },
        {
          "internalType": "uint256",
          "name": "tokenId",
          "type": "uint256"
        }
      ],
      "name": "approve",
      "outputs": [
        {
          "internalType": "bool",
          "name": "",
          "type": "bool"
        }
      ],
      "stateMutability": "nonpayable",
      "type": "function"
    },
    {
      "inputs": [
        {
          "internalType": "address",
          "name": "from",
          "type": "address"
        },
        {
          "internalType": "address",
          "name": "to",
          "type": "address"
        },
        {
          "internalType": "uint256",
          "name": "tokenId",
          "type": "uint256"
        }
      ],
      "name": "transfer",
      "outputs": [
        {
          "internalType": "bool",
          "name": "",
          "type": "bool"
        }
      ],
      "stateMutability": "nonpayable",
      "type": "function"
    },
    {
      "inputs": [
        {
          "internalType": "address",
          "name": "to",
          "type": "address"
        },
        {
          "internalType": "uint256",
          "name": "tokenId",
          "type": "uint256"
        }
      ],
      "name": "mint",
      "outputs": [],
      "stateMutability": "nonpayable",
      "type": "function"
    },
    {
      "inputs": [
        {
          "internalType": "uint256",
          "name": "tokenId",
          "type": "uint256"
        }
      ],
      "name": "ownerOf",
      "outputs": [
        {
          "internalType": "address",
          "name": "",
          "type": "address"
        }
      ],
      "stateMutability": "view",
      "type": "function",
      "constant": true
    },
    {
      "inputs": [
        {
          "internalType": "address",
          "name": "owner",
          "type": "address"
        }
      ],
      "name": "balanceOf",
      "outputs": [
        {
          "internalType": "uint256",
          "name": "",
          "type": "uint256"
        }
      ],
      "stateMutability": "view",
      "type": "function",
      "constant": true
    }
  ],
  "bytecode": "0x60806040523480156200001157600080fd5b5060405162000b7338038062000b73833981016040819052620000349162000123565b818160006200004483826200021c565b5060016200005382826200021c565b5050505050620002e8565b634e487b7160e01b600052604160045260246000fd5b600082601f8301126200008657600080fd5b81516001600160401b0380821115620000a357620000a36200005e565b604051601f8301601f19908116603f01168101908282118183101715620000ce57620000ce6200005e565b81604052838152602092508683858801011115620000eb57600080fd5b600091505b838210156200010f5785820183015181830184015290820190620000f0565b600093810190920192909252949350505050565b600080604083850312156200013757600080fd5b82516001600160401b03808211156200014f57600080fd5b6200015d8683870162000074565b935060208501519150808211156200017457600080fd5b50620001838582860162000074565b9150509250929050565b600181811c90821680620001a257607f821691505b602082108103620001c357634e487b7160e01b600052602260045260246000fd5b50919050565b601f8211156200021757600081815260208120601f850160051c81016020861015620001f25750805b601f850160051c820191505b818110156200021357828155600101620001fe565b5050505b505050565b81516001600160401b038111156200023857620002386200005e565b62000250816200024984546200018d565b84620001c9565b602080601f8311600181146200028857600084156200026f5750858301515b600019600386901b1c1916600185901b17855562000213565b600085815260208120601f198616915b82811015620002b95788860151825594840194600190910190840162000298565b5085821015620002d85787850151600019600388901b60f8161c191681555b5050505050600190811b01905550565b61087b80620002f86000396000f3fe608060405234801561001057600080fd5b50600436106100835760003560e01c806306fdde0314610088578063095ea7b3146100a657806340c10f19146100c95780634a980a1a146100de5780634e0f33e3146100f15780636352211e1461010357806370a082311461012e57806395d89b4114610141578063beabacc814610149575b600080fd5b61009061015c565b60405161009d91906106cb565b60405180910390f35b6100b96100b4366004610735565b6101ee565b604051901515815260200161009d565b6100dc6100d7366004610735565b610302565b005b6100dc6100ec36600461075f565b610411565b6002545b60405190815260200161009d565b61011661011136600461075f565b610454565b6040516001600160a01b03909116815260200161009d565b6100f561013c366004610778565b61046f565b6100906104d3565b6100b9610157366004610793565b6104e2565b60606000805461016b906107cf565b80601f0160208091040260200160405190810160405280929190818152602001828054610197906107cf565b80156101e45780601f106101b9576101008083540402835291602001916101e4565b820191906000526020600020905b8154815290600101906020018083116101c757829003601f168201915b5050505050905090565b6000806101fa83610454565b9050806001600160a01b0316846001600160a01b03160361026d5760405162461bcd60e51b815260206004820152602260248201527f546f6b656e4e46542e617070726f76653a20496e76616c6964204f706572617460448201526137b960f11b60648201526084015b60405180910390fd5b326001600160a01b038216146102d05760405162461bcd60e51b815260206004820152602260248201527f546f6b656e4e46542e617070726f76653a20496e76616c696420417070726f7660448201526132b960f11b6064820152608401610264565b5050600081815260056020526040902080546001600160a01b0319166001600160a01b03841617905560015b92915050565b6000818152600360205260409020546001600160a01b03161561035f5760405162461bcd60e51b81526020600482015260156024820152744d696e743a20546f6b656e2049442065786973747360581b6044820152606401610264565b6001600160a01b0382166103b55760405162461bcd60e51b815260206004820152601e60248201527f4d696e743a20496e76616c6964207265636569766572206164647265737300006044820152606401610264565b6001600160a01b03821660009081526004602052604081208054600192906103de90849061081f565b9091555050600090815260036020526040902080546001600160a01b0319166001600160a01b0392909216919091179055565b6002541561044f5760405162461bcd60e51b815260206004820152600b60248201526a547970652065786973747360a81b6044820152606401610264565b600255565b6000908152600360205260409020546001600160a01b031690565b60006001600160a01b0382166104b75760405162461bcd60e51b815260206004820152600d60248201526c24b73b30b634b21027bbb732b960991b6044820152606401610264565b506001600160a01b031660009081526004602052604090205490565b60606001805461016b906107cf565b600033816104ef84610454565b9050806001600160a01b0316856001600160a01b03160361053c5760405162461bcd60e51b815260206004820152600760248201526650726f626c656d60c81b6044820152606401610264565b856001600160a01b0316816001600160a01b03161461058e5760405162461bcd60e51b815260206004820152600e60248201526d496e636f72726563742046726f6d60901b6044820152606401610264565b6001600160a01b0385166105d75760405162461bcd60e51b815260206004820152601060248201526f24b73b30b634b2102932b1b2b4bb32b960811b6044820152606401610264565b806001600160a01b0316826001600160a01b0316148061061057506000848152600560205260409020546001600160a01b038381169116145b156106bd57600084815260056020908152604080832080546001600160a01b03191690556001600160a01b038916835260049091528120805460019290610658908490610832565b90915550506001600160a01b038516600090815260046020526040812080546001929061068690849061081f565b909155505050600083815260036020526040902080546001600160a01b0319166001600160a01b03861617905550600190506106c4565b6000925050505b9392505050565b600060208083528351808285015260005b818110156106f8578581018301518582016040015282016106dc565b506000604082860101526040601f19601f8301168501019250505092915050565b80356001600160a01b038116811461073057600080fd5b919050565b6000806040838503121561074857600080fd5b61075183610719565b946020939093013593505050565b60006020828403121561077157600080fd5b5035919050565b60006020828403121561078a57600080fd5b6106c482610719565b6000806000606084860312156107a857600080fd5b6107b184610719565b92506107bf60208501610719565b9150604084013590509250925092565b600181811c908216806107e357607f821691505b60208210810361080357634e487b7160e01b600052602260045260246000fd5b50919050565b634e487b7160e01b600052601160045260246000fd5b808201808211156102fc576102fc610809565b818103818111156102fc576102fc61080956fea2646970667358221220d159bb6f8a4474ecd28b44a1e2161160d2806912c22344c12d9718c40660966464736f6c63430008130033",
  "immutableReferences": {},
  "source": "// SPDX-License-Identifier: GPL-3.0\npragma solidity >=0.4.0 <0.9.0;\n\nimport \"./Token.sol\";\n\n/**\n * @dev ERC721\n */\ncontract TokenNFT is Token {\n\n  /// @dev token id => _owners\n  mapping(uint256 => address) private _owners;\n  /// @dev _owners => token count\n  mapping(address => uint256) private _balances;\n  /// @dev token id => approved address\n  mapping(uint256 => address) private _tokenApproval;\n  /// @dev _owners => (operator => approved?)\n  mapping(address => mapping(address => bool)) private _operatorApproval;\n\n  constructor (string memory _name, string memory _symbol) Token(_name, _symbol) {}\n\n  // error InvalidOperator (address op);\n\n  function approve(address to, uint256 tokenId) public override returns (bool) {\n    address owner = ownerOf(tokenId);\n    if (to == owner)  revert (\"TokenNFT.approve: Invalid Operator\");\n    /// @dev call chain\n    if (tx.origin != owner) revert(\"TokenNFT.approve: Invalid Approver\");\n\n    _tokenApproval[tokenId] = to;\n    return true;\n  }\n\n  function transfer(address from, address to, uint256 tokenId) public override returns (bool) {\n    address operator = msg.sender;\n    address owner = ownerOf(tokenId);\n    if (to == owner) revert(\"Problem\");\n    if (owner != from) revert (\"Incorrect From\");\n    // if (owner != from || operator != _tokenApproval[tokenId]) revert (\"Incorrect From Address\");\n    if (to == address(0)) revert (\"Invalid Receiver\");\n\n    /// @dev could extend to _operatorApproval\n    if (operator == owner || operator == _tokenApproval[tokenId]) {\n      /// @dev Clear approvals from the previous owner\n      delete _tokenApproval[tokenId];\n\n      /// @dev update balance\n      _balances[from] -= 1;\n      _balances[to] += 1;\n\n      /// @dev transfer\n      _owners[tokenId] = to;\n      return true;\n    }\n    return false;\n  }\n\n  /// @dev create a token for address to\n  /// @param to account address\n  /// @param tokenId token ID\n  function mint(address to, uint256 tokenId) public override {\n    if (_exists(tokenId)) revert(\"Mint: Token ID exists\");\n    if (to == address(0)) revert(\"Mint: Invalid receiver address\");\n    _balances[to] += 1;\n    _owners[tokenId] = to;\n  }\n\n  function ownerOf(uint256 tokenId) public view returns (address) {\n    return _owners[tokenId];\n  }\n\n  function balanceOf(address owner) public view returns (uint256) {\n    if (owner == address(0)) revert (\"Invalid Owner\");\n    return _balances[owner];\n  }\n\n  function _exists(uint256 tokenId) internal view returns (bool) {\n    return _owners[tokenId] != address(0);\n  }\n}",
  "sourcePath": "/Users/qian/Desktop/Y4/COMP4550/project/XCSwap/contracts/Token/TokenNFT.sol",
  "compiler": {
    "name": "solc",
    "version": "0.8.19+commit.7dd6d404.Emscripten.clang"
  },
  "schemaVersion": "3.4.13",
  "updatedAt": "2023-08-19T19:16:54.566Z",
  "networkType": "ethereum",
  "devdoc": {
    "details": "ERC721",
    "kind": "dev",
    "methods": {
      "mint(address,uint256)": {
        "details": "create a token for address to",
        "params": {
          "to": "account address",
          "tokenId": "token ID"
        }
      }
    },
    "stateVariables": {
      "_balances": {
        "details": "_owners => token count"
      },
      "_operatorApproval": {
        "details": "_owners => (operator => approved?)"
      },
      "_owners": {
        "details": "token id => _owners"
      },
      "_tokenApproval": {
        "details": "token id => approved address"
      }
    },
    "version": 1
  },
  "userdoc": {
    "kind": "user",
    "methods": {},
    "version": 1
  }
}