{
  "contractName": "TokenRegistrar",
  "abi": [
    {
      "inputs": [
        {
          "internalType": "address",
          "name": "tk_addr",
          "type": "address"
        }
      ],
      "name": "register",
      "outputs": [
        {
          "internalType": "bool",
          "name": "",
          "type": "bool"
        }
      ],
      "stateMutability": "nonpayable",
      "type": "function"
    },
    {
      "inputs": [
        {
          "internalType": "address",
          "name": "tk_addr",
          "type": "address"
        }
      ],
      "name": "getTy",
      "outputs": [
        {
          "internalType": "uint256",
          "name": "",
          "type": "uint256"
        }
      ],
      "stateMutability": "view",
      "type": "function",
      "constant": true
    },
    {
      "inputs": [
        {
          "internalType": "address",
          "name": "tk_addr",
          "type": "address"
        }
      ],
      "name": "isRegistered",
      "outputs": [
        {
          "internalType": "bool",
          "name": "",
          "type": "bool"
        }
      ],
      "stateMutability": "view",
      "type": "function",
      "constant": true
    },
    {
      "inputs": [
        {
          "internalType": "uint256",
          "name": "ty",
          "type": "uint256"
        }
      ],
      "name": "getToken",
      "outputs": [
        {
          "internalType": "address",
          "name": "",
          "type": "address"
        }
      ],
      "stateMutability": "view",
      "type": "function",
      "constant": true
    }
  ],
  "bytecode": "0x608060405234801561001057600080fd5b5061050e806100206000396000f3fe608060405234801561001057600080fd5b506004361061004c5760003560e01c80634420e48614610051578063c3c5a54714610079578063e4b50cb81461008c578063e4d9361d146100b7575b600080fd5b61006461005f36600461037a565b6100d8565b60405190151581526020015b60405180910390f35b61006461008736600461037a565b610182565b61009f61009a3660046103aa565b610193565b6040516001600160a01b039091168152602001610070565b6100ca6100c536600461037a565b6101f4565b604051908152602001610070565b60006100e38261024b565b156100f057506000919050565b60006100fb83610278565b6000818152602081905260409081902080546001600160a01b0319166001600160a01b038716908117909155905163254c050d60e11b81526004810183905291925090634a980a1a90602401600060405180830381600087803b15801561016157600080fd5b505af1158015610175573d6000803e3d6000fd5b5060019695505050505050565b600061018d8261024b565b92915050565b6000818152602081905260408120546001600160a01b03168061018d5760405162461bcd60e51b8152602060048201526014602482015273151bdad95b881d1e5c19481b9bdd08195e1a5cdd60621b60448201526064015b60405180910390fd5b60006101ff82610182565b6102425760405162461bcd60e51b8152602060048201526014602482015273151bdad95b881b9bdd081c9959da5cdd195c995960621b60448201526064016101eb565b61018d82610278565b60008061025783610278565b6000908152602081905260409020546001600160a01b031615159392505050565b600080829050806001600160a01b03166306fdde036040518163ffffffff1660e01b8152600401600060405180830381865afa1580156102bc573d6000803e3d6000fd5b505050506040513d6000823e601f3d908101601f191682016040526102e491908101906103fd565b816001600160a01b03166395d89b416040518163ffffffff1660e01b8152600401600060405180830381865afa158015610322573d6000803e3d6000fd5b505050506040513d6000823e601f3d908101601f1916820160405261034a91908101906103fd565b60405160200161035b9291906104a9565b60408051601f1981840301815291905280516020909101209392505050565b60006020828403121561038c57600080fd5b81356001600160a01b03811681146103a357600080fd5b9392505050565b6000602082840312156103bc57600080fd5b5035919050565b634e487b7160e01b600052604160045260246000fd5b60005b838110156103f45781810151838201526020016103dc565b50506000910152565b60006020828403121561040f57600080fd5b81516001600160401b038082111561042657600080fd5b818401915084601f83011261043a57600080fd5b81518181111561044c5761044c6103c3565b604051601f8201601f19908116603f01168101908382118183101715610474576104746103c3565b8160405282815287602084870101111561048d57600080fd5b61049e8360208301602088016103d9565b979650505050505050565b600083516104bb8184602088016103d9565b8351908301906104cf8183602088016103d9565b0194935050505056fea2646970667358221220239543708ee0c8c6d6b5abbc681121f7189eb7215c78d9b2adc20efbeee1c42464736f6c63430008130033",
  "immutableReferences": {},
  "source": "// SPDX-License-Identifier: GPL-3.0\npragma solidity >=0.4.0 <0.9.0;\n\nimport \"./Token.sol\";\n\n/**\n * @dev Token Registrar\n */\ncontract TokenRegistrar {\n  /// @dev unique type id => token address\n  mapping(uint256 => address) _tokenTy;\n\n  /// @dev register a token\n  /// @param tk_addr token address\n  function register(address tk_addr) public returns (bool) {\n    if (_exists(tk_addr)) return false;\n    uint256 ty = _hash(tk_addr); \n    _tokenTy[ty] = tk_addr;\n    // set ty\n    Token(tk_addr).setTy(ty);\n    return true;\n  }\n\n  /// @dev obtain registered type identifier\n  function getTy(address tk_addr) public view returns (uint256) {\n    if (!isRegistered(tk_addr)) revert (\"Token not registered\");\n    return _hash(tk_addr);\n  }\n\n  /// @dev checks if a token is already registered\n  /// @param tk_addr token address\n  function isRegistered(address tk_addr) public view returns (bool) {\n    return _exists(tk_addr);\n  }\n\n  /// @dev get token address by its unique type\n  /// @param ty token type\n  function getToken(uint256 ty) public view returns (address) {\n    address tk_addr = _tokenTy[ty];\n    if (tk_addr == address(0)) revert (\"Token type not exist\");\n    return tk_addr;\n  }\n\n  /// @dev checks if a token already exists\n  /// @param tk_addr token address\n  function _exists(address tk_addr) private view returns (bool) {\n    uint256 ty = _hash(tk_addr);\n    return _tokenTy[ty] != address(0);\n  }\n\n  /// @dev unique token identifier by hashing name and symbol\n  /// @param tk_addr token address\n  function _hash(address tk_addr) private view returns (uint256) {\n    Token t = Token(tk_addr);\n    return uint256(keccak256(abi.encodePacked(t.name(), t.symbol())));\n  }\n\n}",
  "sourcePath": "/Users/qian/Desktop/Y4/COMP4550/project/XCSwap/contracts/Token/TokenRegistrar.sol",
  "compiler": {
    "name": "solc",
    "version": "0.8.19+commit.7dd6d404.Emscripten.clang"
  },
  "schemaVersion": "3.4.13",
  "updatedAt": "2023-08-28T06:06:14.802Z",
  "networkType": "ethereum",
  "devdoc": {
    "details": "Token Registrar",
    "kind": "dev",
    "methods": {
      "getToken(uint256)": {
        "details": "get token address by its unique type",
        "params": {
          "ty": "token type"
        }
      },
      "getTy(address)": {
        "details": "obtain registered type identifier"
      },
      "isRegistered(address)": {
        "details": "checks if a token is already registered",
        "params": {
          "tk_addr": "token address"
        }
      },
      "register(address)": {
        "details": "register a token",
        "params": {
          "tk_addr": "token address"
        }
      }
    },
    "stateVariables": {
      "_tokenTy": {
        "details": "unique type id => token address"
      }
    },
    "version": 1
  },
  "userdoc": {
    "kind": "user",
    "methods": {},
    "version": 1
  }
}