{
  "contractName": "TokenFT",
  "abi": [
    {
      "inputs": [
        {
          "internalType": "string",
          "name": "_name",
          "type": "string"
        },
        {
          "internalType": "string",
          "name": "_symbol",
          "type": "string"
        }
      ],
      "stateMutability": "nonpayable",
      "type": "constructor"
    },
    {
      "inputs": [],
      "name": "name",
      "outputs": [
        {
          "internalType": "string",
          "name": "",
          "type": "string"
        }
      ],
      "stateMutability": "view",
      "type": "function"
    },
    {
      "inputs": [
        {
          "internalType": "uint256",
          "name": "ty_",
          "type": "uint256"
        }
      ],
      "name": "setTy",
      "outputs": [],
      "stateMutability": "nonpayable",
      "type": "function"
    },
    {
      "inputs": [],
      "name": "symbol",
      "outputs": [
        {
          "internalType": "string",
          "name": "",
          "type": "string"
        }
      ],
      "stateMutability": "view",
      "type": "function"
    },
    {
      "inputs": [],
      "name": "ty",
      "outputs": [
        {
          "internalType": "uint256",
          "name": "",
          "type": "uint256"
        }
      ],
      "stateMutability": "view",
      "type": "function"
    },
    {
      "inputs": [
        {
          "internalType": "address",
          "name": "spender",
          "type": "address"
        },
        {
          "internalType": "uint256",
          "name": "value",
          "type": "uint256"
        }
      ],
      "name": "approve",
      "outputs": [],
      "stateMutability": "nonpayable",
      "type": "function"
    },
    {
      "inputs": [
        {
          "internalType": "address",
          "name": "spender",
          "type": "address"
        },
        {
          "internalType": "uint256",
          "name": "value",
          "type": "uint256"
        }
      ],
      "name": "isApproved",
      "outputs": [
        {
          "internalType": "bool",
          "name": "",
          "type": "bool"
        }
      ],
      "stateMutability": "view",
      "type": "function"
    },
    {
      "inputs": [
        {
          "internalType": "address",
          "name": "from",
          "type": "address"
        },
        {
          "internalType": "address",
          "name": "to",
          "type": "address"
        },
        {
          "internalType": "uint256",
          "name": "value",
          "type": "uint256"
        }
      ],
      "name": "transfer",
      "outputs": [
        {
          "internalType": "bool",
          "name": "",
          "type": "bool"
        }
      ],
      "stateMutability": "nonpayable",
      "type": "function"
    },
    {
      "inputs": [
        {
          "internalType": "address",
          "name": "account",
          "type": "address"
        },
        {
          "internalType": "uint256",
          "name": "value",
          "type": "uint256"
        }
      ],
      "name": "mint",
      "outputs": [],
      "stateMutability": "nonpayable",
      "type": "function"
    },
    {
      "inputs": [
        {
          "internalType": "address",
          "name": "owner",
          "type": "address"
        },
        {
          "internalType": "address",
          "name": "spender",
          "type": "address"
        }
      ],
      "name": "allowance",
      "outputs": [
        {
          "internalType": "uint256",
          "name": "",
          "type": "uint256"
        }
      ],
      "stateMutability": "view",
      "type": "function"
    },
    {
      "inputs": [
        {
          "internalType": "address",
          "name": "account",
          "type": "address"
        }
      ],
      "name": "balanceOf",
      "outputs": [
        {
          "internalType": "uint256",
          "name": "",
          "type": "uint256"
        }
      ],
      "stateMutability": "view",
      "type": "function"
    }
  ],
  "bytecode": "0x60806040523480156200001157600080fd5b50604051620009f4380380620009f4833981016040819052620000349162000123565b818160006200004483826200021c565b5060016200005382826200021c565b5050505050620002e8565b634e487b7160e01b600052604160045260246000fd5b600082601f8301126200008657600080fd5b81516001600160401b0380821115620000a357620000a36200005e565b604051601f8301601f19908116603f01168101908282118183101715620000ce57620000ce6200005e565b81604052838152602092508683858801011115620000eb57600080fd5b600091505b838210156200010f5785820183015181830184015290820190620000f0565b600093810190920192909252949350505050565b600080604083850312156200013757600080fd5b82516001600160401b03808211156200014f57600080fd5b6200015d8683870162000074565b935060208501519150808211156200017457600080fd5b50620001838582860162000074565b9150509250929050565b600181811c90821680620001a257607f821691505b602082108103620001c357634e487b7160e01b600052602260045260246000fd5b50919050565b601f8211156200021757600081815260208120601f850160051c81016020861015620001f25750805b601f850160051c820191505b818110156200021357828155600101620001fe565b5050505b505050565b81516001600160401b038111156200023857620002386200005e565b62000250816200024984546200018d565b84620001c9565b602080601f8311600181146200028857600084156200026f5750858301515b600019600386901b1c1916600185901b17855562000213565b600085815260208120601f198616915b82811015620002b95788860151825594840194600190910190840162000298565b5085821015620002d85787850151600019600388901b60f8161c191681555b5050505050600190811b01905550565b6106fc80620002f86000396000f3fe608060405234801561001057600080fd5b506004361061008e5760003560e01c806306fdde0314610093578063095ea7b3146100b15780632a16cca4146100c657806340c10f19146100e95780634a980a1a146100fc5780634e0f33e31461010f57806370a082311461012157806395d89b4114610134578063beabacc81461013c578063dd62ed3e1461014f575b600080fd5b61009b610162565b6040516100a891906104fd565b60405180910390f35b6100c46100bf366004610567565b6101f4565b005b6100d96100d4366004610567565b610296565b60405190151581526020016100a8565b6100c46100f7366004610567565b6102f3565b6100c461010a366004610591565b61037a565b6002545b6040519081526020016100a8565b61011361012f3660046105aa565b6103bd565b61009b6103d8565b6100d961014a3660046105cc565b6103e7565b61011361015d366004610608565b6104d2565b6060600080546101719061063b565b80601f016020809104026020016040519081016040528092919081815260200182805461019d9061063b565b80156101ea5780601f106101bf576101008083540402835291602001916101ea565b820191906000526020600020905b8154815290600101906020018083116101cd57829003601f168201915b5050505050905090565b6001600160a01b0382166102415760405162461bcd60e51b815260206004820152600f60248201526e24b73b30b634b21029b832b73232b960891b60448201526064015b60405180910390fd5b338161024c826103bd565b101561026a5760405162461bcd60e51b815260040161023890610675565b6001600160a01b0390811660009081526004602090815260408083209590931682529390935290912055565b600033826102a3826103bd565b10156102c15760405162461bcd60e51b815260040161023890610675565b6001600160a01b0390811660009081526004602090815260408083209387168352929052205482111590505b92915050565b6001600160a01b0382166103495760405162461bcd60e51b815260206004820152601e60248201527f4d696e743a20496e76616c6964207265636569766572206164647265737300006044820152606401610238565b6001600160a01b038216600090815260036020526040812080548392906103719084906106a5565b90915550505050565b600254156103b85760405162461bcd60e51b815260206004820152600b60248201526a547970652065786973747360a81b6044820152606401610238565b600255565b6001600160a01b031660009081526003602052604090205490565b6060600180546101719061063b565b6000816103f3856103bd565b10156104385760405162461bcd60e51b8152602060048201526014602482015273496e73756666696369656e742062616c616e636560601b6044820152606401610238565b336001600160a01b038516811461049b578261045486836104d2565b101561049b5760405162461bcd60e51b8152602060048201526016602482015275496e73756666696369656e7420616c6c6f77616e636560501b6044820152606401610238565b50506001600160a01b0392831660009081526003602052604080822080548490039055929093168352912080549091019055600190565b6001600160a01b03918216600090815260046020908152604080832093909416825291909152205490565b600060208083528351808285015260005b8181101561052a5785810183015185820160400152820161050e565b506000604082860101526040601f19601f8301168501019250505092915050565b80356001600160a01b038116811461056257600080fd5b919050565b6000806040838503121561057a57600080fd5b6105838361054b565b946020939093013593505050565b6000602082840312156105a357600080fd5b5035919050565b6000602082840312156105bc57600080fd5b6105c58261054b565b9392505050565b6000806000606084860312156105e157600080fd5b6105ea8461054b565b92506105f86020850161054b565b9150604084013590509250925092565b6000806040838503121561061b57600080fd5b6106248361054b565b91506106326020840161054b565b90509250929050565b600181811c9082168061064f57607f821691505b60208210810361066f57634e487b7160e01b600052602260045260246000fd5b50919050565b602080825260169082015275496e73756666696369656e7420416c6c6f77616e636560501b604082015260600190565b808201808211156102ed57634e487b7160e01b600052601160045260246000fdfea26469706673582212209f37b05a8af24501ef072691b215fbdf0384d21baea80a3aa2be735c8bc7dc5164736f6c63430008130033",
  "immutableReferences": {},
  "source": "// SPDX-License-Identifier: GPL-3.0\npragma solidity >=0.4.0 <0.9.0;\n\nimport \"./Token.sol\";\n\n/**\n * @dev ERC20\n */\ncontract TokenFT is Token {\n  /// @dev account => balance\n  mapping(address => uint256) private _balances;\n  /// @dev account => (spender => approved value)\n  mapping(address => mapping(address => uint256)) private _allowances;\n\n  constructor (string memory _name, string memory _symbol) Token (_name, _symbol) {}\n\n  /// @dev approve spender to spend token on behave of owner\n  /// @param spender authorised spender\n  /// @param value authorised amount\n  function approve(address spender, uint256 value) public override {\n    if (spender == address(0)) revert (\"Invalid Spender\");\n    \n    address owner = msg.sender;\n    if (balanceOf(owner) < value) revert (\"Insufficient Allowance\");\n\n    _allowances[owner][spender] = value;\n\n    // return true;\n  }\n\n  function isApproved(address spender, uint256 value) public view override returns (bool){\n    address owner = msg.sender;\n    if (balanceOf(owner) < value) revert (\"Insufficient Allowance\");\n    return _allowances[owner][spender] >= value;\n  }\n\n  /// @dev transfer token\n  /// @param from owner address\n  /// @param to destination address\n  /// @param value transfer amount\n  function transfer(address from, address to, uint256 value) public override returns (bool) {\n    if (balanceOf(from) < value) revert (\"Insufficient balance\");\n\n    address spender = msg.sender;\n    if (spender != from) { // spender not owner\n      if (allowance(from, spender) < value) revert (\"Insufficient allowance\");\n    }\n\n    unchecked {\n      // Overflow not possible: value <= balance <= totalSupply.\n      _balances[from] -= value;\n      // Overflow not possible: balance + value is at most totalSupply, fits into a uint256.\n      _balances[to] += value;\n    }\n    return true;\n  }\n\n  function mint(address account, uint256 value) public override {\n    if (account == address(0)) revert(\"Mint: Invalid receiver address\");\n    _balances[account] += value;\n  }\n\n  function allowance(address owner, address spender) public view returns (uint256) {\n    return _allowances[owner][spender];\n  }\n\n  function balanceOf(address account) public view returns (uint256) {\n    return _balances[account];\n  }\n\n  // function ownerOf(uint256 val) public override returns (address) {\n  //   return address(0);\n  // }\n}\n",
  "sourcePath": "/Users/qian/Desktop/Y4/COMP4550/project/XCSwap/contracts/Token/TokenFT.sol",
  "compiler": {
    "name": "solc",
    "version": "0.8.19+commit.7dd6d404.Emscripten.clang"
  },
  "schemaVersion": "3.4.13",
  "updatedAt": "2023-08-22T10:21:16.600Z",
  "devdoc": {
    "details": "ERC20",
    "kind": "dev",
    "methods": {
      "approve(address,uint256)": {
        "details": "approve spender to spend token on behave of owner",
        "params": {
          "spender": "authorised spender",
          "value": "authorised amount"
        }
      },
      "transfer(address,address,uint256)": {
        "details": "transfer token",
        "params": {
          "from": "owner address",
          "to": "destination address",
          "value": "transfer amount"
        }
      }
    },
    "stateVariables": {
      "_allowances": {
        "details": "account => (spender => approved value)"
      },
      "_balances": {
        "details": "account => balance"
      }
    },
    "version": 1
  },
  "userdoc": {
    "kind": "user",
    "methods": {},
    "version": 1
  }
}