{
  "contractName": "Token",
  "abi": [
    {
      "inputs": [
        {
          "internalType": "address",
          "name": "delegate",
          "type": "address"
        },
        {
          "internalType": "uint256",
          "name": "numTokens",
          "type": "uint256"
        }
      ],
      "name": "approve",
      "outputs": [
        {
          "internalType": "bool",
          "name": "",
          "type": "bool"
        }
      ],
      "stateMutability": "nonpayable",
      "type": "function"
    }
  ],
  "bytecode": "0x608060405234801561001057600080fd5b506101b1806100206000396000f3fe608060405234801561001057600080fd5b506004361061002b5760003560e01c8063095ea7b314610030575b600080fd5b61004a60048036038101906100459190610105565b610060565b6040516100579190610160565b60405180910390f35b60006001905092915050565b600080fd5b600073ffffffffffffffffffffffffffffffffffffffff82169050919050565b600061009c82610071565b9050919050565b6100ac81610091565b81146100b757600080fd5b50565b6000813590506100c9816100a3565b92915050565b6000819050919050565b6100e2816100cf565b81146100ed57600080fd5b50565b6000813590506100ff816100d9565b92915050565b6000806040838503121561011c5761011b61006c565b5b600061012a858286016100ba565b925050602061013b858286016100f0565b9150509250929050565b60008115159050919050565b61015a81610145565b82525050565b60006020820190506101756000830184610151565b9291505056fea2646970667358221220ae7234494f61327a2dca9645751c917e247dded8eb379316a028abe0e24ef83464736f6c63430008130033",
  "immutableReferences": {},
  "source": "// SPDX-License-Identifier: GPL-3.0\npragma solidity >=0.4.0 <0.9.0;\n\n/**\n * @dev Token creation contract\n International Token Identification Number (ITIN)\n */\ncontract Token {\n\n  mapping(address => uint256) balances;\n\n  \n\n  function approve(address delegate, uint numTokens) public returns (bool) {\n    // allowed[msg.sender][delegate] = numTokens;\n    return true;\n  }\n\n}",
  "sourcePath": "/Users/qian/Desktop/Y4/COMP4550/project/XCSwap/contracts/Token.sol",
  "compiler": {
    "name": "solc",
    "version": "0.8.19+commit.7dd6d404.Emscripten.clang"
  },
  "schemaVersion": "3.4.13",
  "updatedAt": "2023-07-04T06:23:20.960Z",
  "devdoc": {
    "details": "Token creation contract International Token Identification Number (ITIN)",
    "kind": "dev",
    "methods": {},
    "version": 1
  },
  "userdoc": {
    "kind": "user",
    "methods": {},
    "version": 1
  }
}