{
  "contractName": "XCSwap_base",
  "abi": [
    {
      "inputs": [
        {
          "internalType": "address",
          "name": "r_addr",
          "type": "address"
        },
        {
          "internalType": "address",
          "name": "pp_addr",
          "type": "address"
        }
      ],
      "stateMutability": "nonpayable",
      "type": "constructor"
    },
    {
      "inputs": [
        {
          "components": [
            {
              "components": [
                {
                  "components": [
                    {
                      "internalType": "uint256",
                      "name": "X",
                      "type": "uint256"
                    },
                    {
                      "internalType": "uint256",
                      "name": "Y",
                      "type": "uint256"
                    }
                  ],
                  "internalType": "struct alt_bn128.G1Point",
                  "name": "acc",
                  "type": "tuple"
                },
                {
                  "components": [
                    {
                      "internalType": "uint256",
                      "name": "X",
                      "type": "uint256"
                    },
                    {
                      "internalType": "uint256",
                      "name": "Y",
                      "type": "uint256"
                    }
                  ],
                  "internalType": "struct alt_bn128.G1Point",
                  "name": "tcom",
                  "type": "tuple"
                },
                {
                  "components": [
                    {
                      "internalType": "uint256",
                      "name": "X",
                      "type": "uint256"
                    },
                    {
                      "internalType": "uint256",
                      "name": "Y",
                      "type": "uint256"
                    }
                  ],
                  "internalType": "struct alt_bn128.G1Point",
                  "name": "ocom",
                  "type": "tuple"
                }
              ],
              "internalType": "struct XCSwap.Acc",
              "name": "src",
              "type": "tuple"
            },
            {
              "internalType": "uint256",
              "name": "ty",
              "type": "uint256"
            },
            {
              "internalType": "uint256",
              "name": "val",
              "type": "uint256"
            },
            {
              "internalType": "uint256",
              "name": "t_beg",
              "type": "uint256"
            },
            {
              "internalType": "uint256",
              "name": "t_end",
              "type": "uint256"
            }
          ],
          "internalType": "struct XCSwap.TX_dp",
          "name": "tx_",
          "type": "tuple"
        },
        {
          "internalType": "address",
          "name": "mixer",
          "type": "address"
        }
      ],
      "name": "deposit",
      "outputs": [
        {
          "internalType": "bool",
          "name": "",
          "type": "bool"
        }
      ],
      "stateMutability": "nonpayable",
      "type": "function"
    },
    {
      "inputs": [],
      "name": "withdrawal",
      "outputs": [
        {
          "internalType": "bool",
          "name": "",
          "type": "bool"
        }
      ],
      "stateMutability": "pure",
      "type": "function"
    },
    {
      "inputs": [],
      "name": "spend",
      "outputs": [
        {
          "internalType": "bool",
          "name": "",
          "type": "bool"
        }
      ],
      "stateMutability": "pure",
      "type": "function"
    }
  ],
  "bytecode": "0x608060405234801561001057600080fd5b5060405161077b38038061077b8339818101604052810190610032919061011d565b816000806101000a81548173ffffffffffffffffffffffffffffffffffffffff021916908373ffffffffffffffffffffffffffffffffffffffff16021790555080600160006101000a81548173ffffffffffffffffffffffffffffffffffffffff021916908373ffffffffffffffffffffffffffffffffffffffff160217905550505061015d565b600080fd5b600073ffffffffffffffffffffffffffffffffffffffff82169050919050565b60006100ea826100bf565b9050919050565b6100fa816100df565b811461010557600080fd5b50565b600081519050610117816100f1565b92915050565b60008060408385031215610134576101336100ba565b5b600061014285828601610108565b925050602061015385828601610108565b9150509250929050565b61060f8061016c6000396000f3fe608060405234801561001057600080fd5b50600436106100415760003560e01c806345615bcc146100465780638483a1a614610064578063d4e9329214610094575b600080fd5b61004e6100b2565b60405161005b9190610208565b60405180910390f35b61007e6004803603810190610079919061049a565b6100b7565b60405161008b9190610208565b60405180910390f35b61009c6101e8565b6040516100a99190610208565b60405180910390f35b600090565b60008060008054906101000a900473ffffffffffffffffffffffffffffffffffffffff1673ffffffffffffffffffffffffffffffffffffffff1663e4b50cb885602001516040518263ffffffff1660e01b815260040161011791906104eb565b602060405180830381865afa158015610134573d6000803e3d6000fd5b505050506040513d601f19601f82011682018060405250810190610158919061051b565b90508073ffffffffffffffffffffffffffffffffffffffff1663095ea7b38486604001516040518363ffffffff1660e01b8152600401610199929190610557565b6020604051808303816000875af11580156101b8573d6000803e3d6000fd5b505050506040513d601f19601f820116820180604052508101906101dc91906105ac565b50600191505092915050565b600090565b60008115159050919050565b610202816101ed565b82525050565b600060208201905061021d60008301846101f9565b92915050565b6000604051905090565b600080fd5b600080fd5b6000601f19601f8301169050919050565b7f4e487b7100000000000000000000000000000000000000000000000000000000600052604160045260246000fd5b61028082610237565b810181811067ffffffffffffffff8211171561029f5761029e610248565b5b80604052505050565b60006102b2610223565b90506102be8282610277565b919050565b6000819050919050565b6102d6816102c3565b81146102e157600080fd5b50565b6000813590506102f3816102cd565b92915050565b60006040828403121561030f5761030e610232565b5b61031960406102a8565b90506000610329848285016102e4565b600083015250602061033d848285016102e4565b60208301525092915050565b600060c0828403121561035f5761035e610232565b5b61036960606102a8565b90506000610379848285016102f9565b600083015250604061038d848285016102f9565b60208301525060806103a1848285016102f9565b60408301525092915050565b600061014082840312156103c4576103c3610232565b5b6103ce60a06102a8565b905060006103de84828501610349565b60008301525060c06103f2848285016102e4565b60208301525060e0610406848285016102e4565b60408301525061010061041b848285016102e4565b606083015250610120610430848285016102e4565b60808301525092915050565b600073ffffffffffffffffffffffffffffffffffffffff82169050919050565b60006104678261043c565b9050919050565b6104778161045c565b811461048257600080fd5b50565b6000813590506104948161046e565b92915050565b60008061016083850312156104b2576104b161022d565b5b60006104c0858286016103ad565b9250506101406104d285828601610485565b9150509250929050565b6104e5816102c3565b82525050565b600060208201905061050060008301846104dc565b92915050565b6000815190506105158161046e565b92915050565b6000602082840312156105315761053061022d565b5b600061053f84828501610506565b91505092915050565b6105518161045c565b82525050565b600060408201905061056c6000830185610548565b61057960208301846104dc565b9392505050565b610589816101ed565b811461059457600080fd5b50565b6000815190506105a681610580565b92915050565b6000602082840312156105c2576105c161022d565b5b60006105d084828501610597565b9150509291505056fea26469706673582212203b35a9b29a6149d5fc62c061f6aa36de8cff3bf2f89241a84f697625ca4a8c8964736f6c63430008130033",
  "immutableReferences": {},
  "source": "// SPDX-License-Identifier: GPL-3.0\npragma solidity >=0.4.0 <0.9.0;\n\nimport \"./lib/alt_bn128.sol\";\nimport \"./Token/Token.sol\";\nimport \"./Token/TokenRegistrar.sol\";\nimport \"./PubParam.sol\";\nimport \"./XCSwap.sol\";\n\ncontract XCSwap_base is XCSwap {\n\n  TokenRegistrar r;\n  PubParam pp;\n\n  constructor (address r_addr, address pp_addr) {\n    r = TokenRegistrar(r_addr);\n    pp = PubParam(pp_addr);\n  }\n\n  // function setupB() public view returns () \n\n\n  // function setupA() {\n    \n  // }\n\n  /**\n   * @dev create a P account\n   */\n  function deposit(TX_dp memory tx_, address mixer) public returns (bool){\n    Token t = Token(r.getToken(tx_.ty));\n\n    if (t.approve(mixer, tx_.val)) {\n      \n    }\n\n    return true;\n  }\n\n  function withdrawal() public pure returns (bool){\n\n  }\n\n  function spend() public pure returns (bool){\n\n  }\n\n}",
  "sourcePath": "/Users/qian/Desktop/Y4/COMP4550/project/XCSwap/contracts/XCSwap_base.sol",
  "compiler": {
    "name": "solc",
    "version": "0.8.19+commit.7dd6d404.Emscripten.clang"
  },
  "schemaVersion": "3.4.13",
  "updatedAt": "2023-07-13T08:51:17.521Z",
  "devdoc": {
    "kind": "dev",
    "methods": {
      "deposit((((uint256,uint256),(uint256,uint256),(uint256,uint256)),uint256,uint256,uint256,uint256),address)": {
        "details": "create a P account"
      }
    },
    "version": 1
  },
  "userdoc": {
    "kind": "user",
    "methods": {},
    "version": 1
  }
}